{
  "contractName": "CompanyTreasuryManager",
  "abi": [
    {
      "inputs": [
        {
          "internalType": "address",
          "name": "_roleManagementAddress",
          "type": "address"
        },
        {
          "internalType": "address",
          "name": "_itemsManagementAddress",
          "type": "address"
        },
        {
          "internalType": "uint256",
          "name": "_expectedInitialCapital",
          "type": "uint256"
        }
      ],
      "stateMutability": "payable",
      "type": "constructor"
    },
    {
      "anonymous": false,
      "inputs": [
        {
          "indexed": true,
          "internalType": "address",
          "name": "candidate",
          "type": "address"
        },
        {
          "indexed": false,
          "internalType": "uint256",
          "name": "amount",
          "type": "uint256"
        }
      ],
      "name": "BoardMemberContributionReceived",
      "type": "event"
    },
    {
      "anonymous": false,
      "inputs": [
        {
          "indexed": true,
          "internalType": "address",
          "name": "comAddress",
          "type": "address"
        }
      ],
      "name": "CustomerOrderManagementAddressSet",
      "type": "event"
    },
    {
      "anonymous": false,
      "inputs": [
        {
          "indexed": true,
          "internalType": "uint256",
          "name": "orderId",
          "type": "uint256"
        },
        {
          "indexed": true,
          "internalType": "address",
          "name": "customer",
          "type": "address"
        },
        {
          "indexed": false,
          "internalType": "uint256",
          "name": "amount",
          "type": "uint256"
        }
      ],
      "name": "CustomerRefundProcessedFromTreasury",
      "type": "event"
    },
    {
      "anonymous": false,
      "inputs": [
        {
          "indexed": false,
          "internalType": "string",
          "name": "internalOrderId",
          "type": "string"
        },
        {
          "indexed": true,
          "internalType": "address",
          "name": "warehouse",
          "type": "address"
        },
        {
          "indexed": false,
          "internalType": "uint256",
          "name": "amount",
          "type": "uint256"
        }
      ],
      "name": "EscrowRefunded",
      "type": "event"
    },
    {
      "anonymous": false,
      "inputs": [
        {
          "indexed": true,
          "internalType": "address",
          "name": "newDirector",
          "type": "address"
        }
      ],
      "name": "FinanceDirectorSet",
      "type": "event"
    },
    {
      "anonymous": false,
      "inputs": [
        {
          "indexed": true,
          "internalType": "address",
          "name": "from",
          "type": "address"
        },
        {
          "indexed": false,
          "internalType": "uint256",
          "name": "amount",
          "type": "uint256"
        }
      ],
      "name": "FundsDeposited",
      "type": "event"
    },
    {
      "anonymous": false,
      "inputs": [
        {
          "indexed": true,
          "internalType": "address",
          "name": "by",
          "type": "address"
        },
        {
          "indexed": true,
          "internalType": "address",
          "name": "recipient",
          "type": "address"
        },
        {
          "indexed": false,
          "internalType": "uint256",
          "name": "amount",
          "type": "uint256"
        },
        {
          "indexed": false,
          "internalType": "string",
          "name": "reason",
          "type": "string"
        }
      ],
      "name": "GeneralWithdrawal",
      "type": "event"
    },
    {
      "anonymous": false,
      "inputs": [
        {
          "indexed": false,
          "internalType": "uint256",
          "name": "amount",
          "type": "uint256"
        }
      ],
      "name": "InitialCapitalReceived",
      "type": "event"
    },
    {
      "anonymous": false,
      "inputs": [
        {
          "indexed": true,
          "internalType": "address",
          "name": "by",
          "type": "address"
        },
        {
          "indexed": true,
          "internalType": "address",
          "name": "toRoleHolder",
          "type": "address"
        },
        {
          "indexed": false,
          "internalType": "uint256",
          "name": "amount",
          "type": "uint256"
        }
      ],
      "name": "InternalTransfer",
      "type": "event"
    },
    {
      "anonymous": false,
      "inputs": [
        {
          "indexed": true,
          "internalType": "address",
          "name": "previousOwner",
          "type": "address"
        },
        {
          "indexed": true,
          "internalType": "address",
          "name": "newOwner",
          "type": "address"
        }
      ],
      "name": "OwnershipTransferred",
      "type": "event"
    },
    {
      "anonymous": false,
      "inputs": [
        {
          "indexed": true,
          "internalType": "address",
          "name": "rmFullAddress",
          "type": "address"
        }
      ],
      "name": "RoleManagementFullAddressSet",
      "type": "event"
    },
    {
      "anonymous": false,
      "inputs": [
        {
          "indexed": true,
          "internalType": "address",
          "name": "setBy",
          "type": "address"
        },
        {
          "indexed": true,
          "internalType": "address",
          "name": "warehouse",
          "type": "address"
        },
        {
          "indexed": true,
          "internalType": "address",
          "name": "supplier",
          "type": "address"
        },
        {
          "indexed": false,
          "internalType": "uint256",
          "name": "maxAmount",
          "type": "uint256"
        }
      ],
      "name": "SpendingPolicySet",
      "type": "event"
    },
    {
      "anonymous": false,
      "inputs": [
        {
          "indexed": false,
          "internalType": "string",
          "name": "internalOrderId",
          "type": "string"
        },
        {
          "indexed": true,
          "internalType": "address",
          "name": "warehouse",
          "type": "address"
        },
        {
          "indexed": true,
          "internalType": "address",
          "name": "supplier",
          "type": "address"
        },
        {
          "indexed": false,
          "internalType": "uint256",
          "name": "amount",
          "type": "uint256"
        }
      ],
      "name": "SupplierPaymentEscrowed",
      "type": "event"
    },
    {
      "anonymous": false,
      "inputs": [
        {
          "indexed": false,
          "internalType": "string",
          "name": "internalOrderId",
          "type": "string"
        },
        {
          "indexed": true,
          "internalType": "address",
          "name": "supplier",
          "type": "address"
        },
        {
          "indexed": false,
          "internalType": "uint256",
          "name": "amount",
          "type": "uint256"
        }
      ],
      "name": "SupplierPaymentReleased",
      "type": "event"
    },
    {
      "anonymous": false,
      "inputs": [
        {
          "indexed": true,
          "internalType": "address",
          "name": "wsomAddress",
          "type": "address"
        }
      ],
      "name": "WarehouseSupplierOrderManagementAddressSet",
      "type": "event"
    },
    {
      "inputs": [],
      "name": "INTERNAL_ROLE_TOP_UP_AMOUNT",
      "outputs": [
        {
          "internalType": "uint256",
          "name": "",
          "type": "uint256"
        }
      ],
      "stateMutability": "view",
      "type": "function"
    },
    {
      "inputs": [],
      "name": "INTERNAL_ROLE_TOP_UP_THRESHOLD",
      "outputs": [
        {
          "internalType": "uint256",
          "name": "",
          "type": "uint256"
        }
      ],
      "stateMutability": "view",
      "type": "function"
    },
    {
      "inputs": [],
      "name": "WAREHOUSE_SPENDING_LIMIT_PER_PERIOD",
      "outputs": [
        {
          "internalType": "uint256",
          "name": "",
          "type": "uint256"
        }
      ],
      "stateMutability": "view",
      "type": "function"
    },
    {
      "inputs": [
        {
          "internalType": "string",
          "name": "",
          "type": "string"
        }
      ],
      "name": "activeEscrows",
      "outputs": [
        {
          "internalType": "address",
          "name": "warehouseAddress",
          "type": "address"
        },
        {
          "internalType": "address",
          "name": "supplierAddress",
          "type": "address"
        },
        {
          "internalType": "uint256",
          "name": "amount",
          "type": "uint256"
        },
        {
          "internalType": "bool",
          "name": "active",
          "type": "bool"
        }
      ],
      "stateMutability": "view",
      "type": "function"
    },
    {
      "inputs": [],
      "name": "customerOrderManagementAddress",
      "outputs": [
        {
          "internalType": "address",
          "name": "",
          "type": "address"
        }
      ],
      "stateMutability": "view",
      "type": "function"
    },
    {
      "inputs": [],
      "name": "financeDirector",
      "outputs": [
        {
          "internalType": "address",
          "name": "",
          "type": "address"
        }
      ],
      "stateMutability": "view",
      "type": "function"
    },
    {
      "inputs": [],
      "name": "itemsManagement",
      "outputs": [
        {
          "internalType": "contract IItemsManagementInterface",
          "name": "",
          "type": "address"
        }
      ],
      "stateMutability": "view",
      "type": "function"
    },
    {
      "inputs": [],
      "name": "owner",
      "outputs": [
        {
          "internalType": "address",
          "name": "",
          "type": "address"
        }
      ],
      "stateMutability": "view",
      "type": "function"
    },
    {
      "inputs": [],
      "name": "renounceOwnership",
      "outputs": [],
      "stateMutability": "nonpayable",
      "type": "function"
    },
    {
      "inputs": [],
      "name": "roleManagement",
      "outputs": [
        {
          "internalType": "contract IRoleManagement",
          "name": "",
          "type": "address"
        }
      ],
      "stateMutability": "view",
      "type": "function"
    },
    {
      "inputs": [],
      "name": "roleManagementFullAddress",
      "outputs": [
        {
          "internalType": "address",
          "name": "",
          "type": "address"
        }
      ],
      "stateMutability": "view",
      "type": "function"
    },
    {
      "inputs": [
        {
          "internalType": "address",
          "name": "newOwner",
          "type": "address"
        }
      ],
      "name": "transferOwnership",
      "outputs": [],
      "stateMutability": "nonpayable",
      "type": "function"
    },
    {
      "inputs": [
        {
          "internalType": "address",
          "name": "",
          "type": "address"
        },
        {
          "internalType": "address",
          "name": "",
          "type": "address"
        }
      ],
      "name": "warehouseSpendingPolicies",
      "outputs": [
        {
          "internalType": "uint256",
          "name": "",
          "type": "uint256"
        }
      ],
      "stateMutability": "view",
      "type": "function"
    },
    {
      "inputs": [
        {
          "internalType": "address",
          "name": "",
          "type": "address"
        }
      ],
      "name": "warehouseSpendingThisPeriod",
      "outputs": [
        {
          "internalType": "uint256",
          "name": "",
          "type": "uint256"
        }
      ],
      "stateMutability": "view",
      "type": "function"
    },
    {
      "inputs": [],
      "name": "warehouseSupplierOrderManagement",
      "outputs": [
        {
          "internalType": "address",
          "name": "",
          "type": "address"
        }
      ],
      "stateMutability": "view",
      "type": "function"
    },
    {
      "stateMutability": "payable",
      "type": "receive"
    },
    {
      "inputs": [
        {
          "internalType": "address",
          "name": "_wsomAddress",
          "type": "address"
        }
      ],
      "name": "setWarehouseSupplierOrderManagementAddress",
      "outputs": [],
      "stateMutability": "nonpayable",
      "type": "function"
    },
    {
      "inputs": [
        {
          "internalType": "address",
          "name": "_comAddress",
          "type": "address"
        }
      ],
      "name": "setCustomerOrderManagementAddress",
      "outputs": [],
      "stateMutability": "nonpayable",
      "type": "function"
    },
    {
      "inputs": [
        {
          "internalType": "address",
          "name": "_director",
          "type": "address"
        }
      ],
      "name": "setInitialFinanceDirector",
      "outputs": [],
      "stateMutability": "nonpayable",
      "type": "function"
    },
    {
      "inputs": [
        {
          "internalType": "address",
          "name": "_roleHolderAddress",
          "type": "address"
        },
        {
          "internalType": "bytes32",
          "name": "_roleKey",
          "type": "bytes32"
        }
      ],
      "name": "transferToInternalRole",
      "outputs": [],
      "stateMutability": "nonpayable",
      "type": "function"
    },
    {
      "inputs": [
        {
          "internalType": "address",
          "name": "_warehouseAddress",
          "type": "address"
        },
        {
          "internalType": "address",
          "name": "_supplierAddress",
          "type": "address"
        },
        {
          "internalType": "uint256",
          "name": "_maxAmountPerOrder",
          "type": "uint256"
        }
      ],
      "name": "setWarehouseSpendingPolicy",
      "outputs": [],
      "stateMutability": "nonpayable",
      "type": "function"
    },
    {
      "inputs": [
        {
          "internalType": "address payable",
          "name": "_recipient",
          "type": "address"
        },
        {
          "internalType": "uint256",
          "name": "_amount",
          "type": "uint256"
        },
        {
          "internalType": "string",
          "name": "_reason",
          "type": "string"
        }
      ],
      "name": "generalWithdrawal",
      "outputs": [],
      "stateMutability": "nonpayable",
      "type": "function"
    },
    {
      "inputs": [
        {
          "internalType": "address",
          "name": "_newDirector",
          "type": "address"
        }
      ],
      "name": "changeFinanceDirector",
      "outputs": [],
      "stateMutability": "nonpayable",
      "type": "function"
    },
    {
      "inputs": [
        {
          "internalType": "address",
          "name": "_warehouseAddress",
          "type": "address"
        },
        {
          "internalType": "address",
          "name": "_supplierAddress",
          "type": "address"
        },
        {
          "internalType": "string",
          "name": "_internalSupplierOrderId",
          "type": "string"
        },
        {
          "internalType": "uint256",
          "name": "_amount",
          "type": "uint256"
        }
      ],
      "name": "requestEscrowForSupplierOrder",
      "outputs": [
        {
          "internalType": "bool",
          "name": "",
          "type": "bool"
        }
      ],
      "stateMutability": "nonpayable",
      "type": "function"
    },
    {
      "inputs": [
        {
          "internalType": "address",
          "name": "_supplierAddressToVerify",
          "type": "address"
        },
        {
          "internalType": "string",
          "name": "_internalSupplierOrderId",
          "type": "string"
        },
        {
          "internalType": "uint256",
          "name": "_amountToVerify",
          "type": "uint256"
        }
      ],
      "name": "releaseEscrowToSupplier",
      "outputs": [
        {
          "internalType": "bool",
          "name": "",
          "type": "bool"
        }
      ],
      "stateMutability": "nonpayable",
      "type": "function"
    },
    {
      "inputs": [
        {
          "internalType": "address",
          "name": "_warehouseAddressToVerify",
          "type": "address"
        },
        {
          "internalType": "string",
          "name": "_internalSupplierOrderId",
          "type": "string"
        },
        {
          "internalType": "uint256",
          "name": "_amountToVerify",
          "type": "uint256"
        }
      ],
      "name": "refundEscrowToTreasury",
      "outputs": [
        {
          "internalType": "bool",
          "name": "",
          "type": "bool"
        }
      ],
      "stateMutability": "nonpayable",
      "type": "function"
    },
    {
      "inputs": [
        {
          "internalType": "uint256",
          "name": "_orderId",
          "type": "uint256"
        },
        {
          "internalType": "address payable",
          "name": "_customerAddress",
          "type": "address"
        },
        {
          "internalType": "uint256",
          "name": "_amountToRefund",
          "type": "uint256"
        }
      ],
      "name": "refundCustomerOrderFromTreasury",
      "outputs": [],
      "stateMutability": "nonpayable",
      "type": "function"
    },
    {
      "inputs": [],
      "name": "receiveBoardMemberContribution",
      "outputs": [],
      "stateMutability": "payable",
      "type": "function"
    },
    {
      "inputs": [],
      "name": "getBalance",
      "outputs": [
        {
          "internalType": "uint256",
          "name": "",
          "type": "uint256"
        }
      ],
      "stateMutability": "view",
      "type": "function"
    },
    {
      "inputs": [
        {
          "internalType": "address",
          "name": "_warehouseAddress",
          "type": "address"
        },
        {
          "internalType": "address",
          "name": "_supplierAddress",
          "type": "address"
        }
      ],
      "name": "getWarehouseSpendingPolicy",
      "outputs": [
        {
          "internalType": "uint256",
          "name": "",
          "type": "uint256"
        }
      ],
      "stateMutability": "view",
      "type": "function"
    },
    {
      "inputs": [
        {
          "internalType": "address",
          "name": "_warehouseAddress",
          "type": "address"
        }
      ],
      "name": "getWarehouseSpendingThisPeriod",
      "outputs": [
        {
          "internalType": "uint256",
          "name": "",
          "type": "uint256"
        }
      ],
      "stateMutability": "view",
      "type": "function"
    },
    {
      "inputs": [
        {
          "internalType": "string",
          "name": "_internalSupplierOrderId",
          "type": "string"
        }
      ],
      "name": "getEscrowDetails",
      "outputs": [
        {
          "components": [
            {
              "internalType": "address",
              "name": "warehouseAddress",
              "type": "address"
            },
            {
              "internalType": "address",
              "name": "supplierAddress",
              "type": "address"
            },
            {
              "internalType": "uint256",
              "name": "amount",
              "type": "uint256"
            },
            {
              "internalType": "bool",
              "name": "active",
              "type": "bool"
            }
          ],
          "internalType": "struct CompanyTreasuryManager.EscrowDetails",
          "name": "",
          "type": "tuple"
        }
      ],
      "stateMutability": "view",
      "type": "function"
    },
    {
      "inputs": [],
      "name": "WAREHOUSE_SPENDING_LIMIT_PER_PERIOD_CONST",
      "outputs": [
        {
          "internalType": "uint256",
          "name": "",
          "type": "uint256"
        }
      ],
      "stateMutability": "pure",
      "type": "function"
    },
    {
      "inputs": [],
      "name": "INTERNAL_ROLE_TOP_UP_THRESHOLD_CONST",
      "outputs": [
        {
          "internalType": "uint256",
          "name": "",
          "type": "uint256"
        }
      ],
      "stateMutability": "pure",
      "type": "function"
    },
    {
      "inputs": [],
      "name": "INTERNAL_ROLE_TOP_UP_AMOUNT_CONST",
      "outputs": [
        {
          "internalType": "uint256",
          "name": "",
          "type": "uint256"
        }
      ],
      "stateMutability": "pure",
      "type": "function"
    }
  ],
  "bytecode": "0x60c060405260405162003e6738038062003e678339810160408190526200002691620002b4565b600080546001600160a01b031916339081178255604051909182917f8be0079c531659141344cd1fd0a4f28419497f9722a3daafe3b4186f6b6457e0908290a350600180556001600160a01b038316620000d85760405162461bcd60e51b815260206004820152602860248201527f43544d3a204469612063686920526f6c654d616e6167656d656e74206b686f6e6044820152676720686f70206c6560c01b60648201526084015b60405180910390fd5b6001600160a01b038216620001425760405162461bcd60e51b815260206004820152602960248201527f43544d3a2044696120636869204974656d734d616e6167656d656e74206b686f6044820152686e6720686f70206c6560b81b6064820152608401620000cf565b6001600160601b0319606084811b821660805283901b1660a052600280546001600160a01b0319166001600160a01b03851617905580156200021857803414620001df5760405162461bcd60e51b815260206004820152602760248201527f43544d3a20536f20766f6e2062616e2064617520677569206b686f6e67206368604482015266696e682078616360c81b6064820152608401620000cf565b6040513481527f5a8d86dba9b5978a0cdf6ec0ed77250aa7a80cc0d35f20ff655f42a6c583d4e59060200160405180910390a16200028e565b34156200028e5760405162461bcd60e51b815260206004820152603560248201527f43544d3a204b686f6e67206e656e20677569204574686572206e657520766f6e60448201527f2062616e20646175206475206b69656e206c61203000000000000000000000006064820152608401620000cf565b505050620002f4565b80516001600160a01b0381168114620002af57600080fd5b919050565b600080600060608486031215620002c9578283fd5b620002d48462000297565b9250620002e46020850162000297565b9150604084015190509250925092565b60805160601c60a05160601c613b0f620003586000396000818161065901528181611cbe0152611dcc01526000818161062501528181610eca01528181610f820152818161172e015281816117e60152818161271c015261280c0152613b0f6000f3fe60806040526004361061021d5760003560e01c80638b77b9a91161011d578063c19aacdd116100b0578063daf45d4e1161007f578063ef1ac8a911610064578063ef1ac8a91461075b578063f2fde38b146107a1578063f9510d64146107c157600080fd5b8063daf45d4e146106d4578063dc906182146106f457600080fd5b8063c19aacdd14610647578063cffe4f371461067b578063d505ea1f14610698578063d5a12238146106b457600080fd5b8063a22b0f84116100ec578063a22b0f84146105b7578063aa9ce11f146105d7578063b0cc67e4146105f7578063b977ba181461061357600080fd5b80638b77b9a9146104b85780638da5cb5b146104ee5780638deecc201461050c5780639e70350f1461059757600080fd5b8063626f94d6116101b057806371ff198a1161017f5780637d75cddc116101645780637d75cddc146104335780637dc161c314610453578063895621e11461048b57600080fd5b806371ff198a146103fa57806376d22d7e1461041757600080fd5b8063626f94d6146103855780636718b05b146103a55780636a15d2a2146103c5578063715018a6146103e557600080fd5b80634eddf360116101ec5780634eddf360146102e257806351aeb5771461031a5780635b5a08591461034a5780636191718c1461036a57600080fd5b806301a2a94e1461025e57806311197b3e1461028057806312065fe0146102a05780631c181773146102c257600080fd5b366102595760405134815233907f543ba50a5eec5e6178218e364b1d0f396157b3c8fa278522c2cb7fd99407d4749060200160405180910390a2005b600080fd5b34801561026a57600080fd5b5061027e6102793660046134ce565b6107c9565b005b34801561028c57600080fd5b5061027e61029b36600461390b565b610abf565b3480156102ac57600080fd5b50475b6040519081526020015b60405180910390f35b3480156102ce57600080fd5b5061027e6102dd3660046134ab565b610df0565b3480156102ee57600080fd5b50600554610302906001600160a01b031681565b6040516001600160a01b0390911681526020016102b9565b34801561032657600080fd5b5061033a610335366004613636565b61114c565b60405190151581526020016102b9565b34801561035657600080fd5b50600354610302906001600160a01b031681565b34801561037657600080fd5b50674563918244f400006102af565b34801561039157600080fd5b5061027e6103a03660046134ab565b61154d565b3480156103b157600080fd5b50600454610302906001600160a01b031681565b3480156103d157600080fd5b5061027e6103e03660046134ab565b611654565b3480156103f157600080fd5b5061027e611953565b34801561040657600080fd5b506102af6801158e460913d0000081565b34801561042357600080fd5b506102af674563918244f4000081565b34801561043f57600080fd5b50600254610302906001600160a01b031681565b34801561045f57600080fd5b506102af61046e366004613528565b600660209081526000928352604080842090915290825290205481565b34801561049757600080fd5b506102af6104a63660046134ab565b60076020526000908152604090205481565b3480156104c457600080fd5b506102af6104d33660046134ab565b6001600160a01b031660009081526007602052604090205490565b3480156104fa57600080fd5b506000546001600160a01b0316610302565b34801561051857600080fd5b5061056a610527366004613702565b80518082016020908101805160088252928201919093012091528054600182015460028301546003909301546001600160a01b0392831693919092169160ff1684565b604080516001600160a01b03958616815294909316602085015291830152151560608201526080016102b9565b3480156105a357600080fd5b5061027e6105b23660046134ab565b611a04565b3480156105c357600080fd5b5061027e6105d23660046135cb565b611b0b565b3480156105e357600080fd5b5061033a6105f2366004613560565b611f37565b34801561060357600080fd5b506801158e460913d000006102af565b34801561061f57600080fd5b506103027f000000000000000000000000000000000000000000000000000000000000000081565b34801561065357600080fd5b506103027f000000000000000000000000000000000000000000000000000000000000000081565b34801561068757600080fd5b506102af68056bc75e2d6310000081565b3480156106a457600080fd5b5068056bc75e2d631000006102af565b3480156106c057600080fd5b5061027e6106cf36600461360b565b6125a2565b3480156106e057600080fd5b5061033a6106ef366004613636565b612b0b565b34801561070057600080fd5b5061071461070f3660046136c2565b612ebe565b6040516102b9919060006080820190506001600160a01b03808451168352806020850151166020840152506040830151604083015260608301511515606083015292915050565b34801561076757600080fd5b506102af610776366004613528565b6001600160a01b03918216600090815260066020908152604080832093909416825291909152205490565b3480156107ad57600080fd5b5061027e6107bc3660046134ab565b612f47565b61027e613085565b6005546001600160a01b0316331461084e5760405162461bcd60e51b815260206004820152602c60248201527f43544d3a204e67756f6920676f69206b686f6e672070686169204769616d206460448201527f6f6320546169206368696e68000000000000000000000000000000000000000060648201526084015b60405180910390fd5b600260015414156108a15760405162461bcd60e51b815260206004820152601f60248201527f5265656e7472616e637947756172643a207265656e7472616e742063616c6c006044820152606401610845565b60026001556001600160a01b0384166109225760405162461bcd60e51b815260206004820152602960248201527f43544d3a204e67756f69206e68616e206b686f6e6720746865206c612064696160448201527f20636869207a65726f00000000000000000000000000000000000000000000006064820152608401610845565b600083116109725760405162461bcd60e51b815260206004820152601d60248201527f43544d3a20536f207469656e2070686169206c6120736f2064756f6e670000006044820152606401610845565b824710156109c25760405162461bcd60e51b815260206004820152601b60248201527f43544d3a204e67616e20717579206b686f6e67206475207469656e00000000006044820152606401610845565b6000846001600160a01b03168460405160006040518083038185875af1925050503d8060008114610a0f576040519150601f19603f3d011682016040523d82523d6000602084013e610a14565b606091505b5050905080610a655760405162461bcd60e51b815260206004820152601c60248201527f43544d3a20527574207469656e206368756e67207468617420626169000000006044820152606401610845565b846001600160a01b0316336001600160a01b03167f551cda44af45f8ecc2ee4fc9d36201c3e1269e76d0a188c66adcc131b7b1ec60868686604051610aac9392919061398f565b60405180910390a3505060018055505050565b60026001541415610b125760405162461bcd60e51b815260206004820152601f60248201527f5265656e7472616e637947756172643a207265656e7472616e742063616c6c006044820152606401610845565b60026001556004546001600160a01b03163314610b975760405162461bcd60e51b815260206004820152602b60248201527f43544d3a2043686920434f4d206d6f692064756f63207965752063617520686f60448201527f616e207469656e206e61790000000000000000000000000000000000000000006064820152608401610845565b6001600160a01b038216610c135760405162461bcd60e51b815260206004820152603160248201527f43544d3a2044696120636869206b686163682068616e67206b686f6e6720686f60448201527f70206c6520646520686f616e207469656e0000000000000000000000000000006064820152608401610845565b60008111610c635760405162461bcd60e51b815260206004820181905260248201527f43544d3a20536f207469656e20686f616e2070686169206c6f6e20686f6e20306044820152606401610845565b80471015610cd95760405162461bcd60e51b815260206004820152602360248201527f43544d3a204e67616e20717579206b686f6e67206475207469656e206465206860448201527f6f616e00000000000000000000000000000000000000000000000000000000006064820152608401610845565b6000826001600160a01b03168260405160006040518083038185875af1925050503d8060008114610d26576040519150601f19603f3d011682016040523d82523d6000602084013e610d2b565b606091505b5050905080610da25760405162461bcd60e51b815260206004820152602d60248201527f43544d3a20486f616e207469656e2063686f206b68616368207475206e67616e60448201527f20717579207468617420626169000000000000000000000000000000000000006064820152608401610845565b826001600160a01b0316847fc12d6ca8c39120133bdb248b7f11862fe29cf43ea3c09abd5fb7594d59da35da84604051610dde91815260200190565b60405180910390a35050600180555050565b6000546001600160a01b03163314610e4a5760405162461bcd60e51b815260206004820181905260248201527f4f776e61626c653a2063616c6c6572206973206e6f7420746865206f776e65726044820152606401610845565b6001600160a01b038116610ec65760405162461bcd60e51b815260206004820152602b60248201527f43544d3a204769616d20646f63206d6f69206b686f6e6720746865206c61206460448201527f696120636869207a65726f0000000000000000000000000000000000000000006064820152608401610845565b60007f00000000000000000000000000000000000000000000000000000000000000006001600160a01b0316638b94a8e26040518163ffffffff1660e01b815260040160206040518083038186803b158015610f2157600080fd5b505afa158015610f35573d6000803e3d6000fd5b505050506040513d601f19601f82011682018060405250810190610f5991906136aa565b604051632474521560e21b8152600481018290526001600160a01b0384811660248301529192507f0000000000000000000000000000000000000000000000000000000000000000909116906391d148549060440160206040518083038186803b158015610fc657600080fd5b505afa158015610fda573d6000803e3d6000fd5b505050506040513d601f19601f82011682018060405250810190610ffe9190613690565b6110705760405162461bcd60e51b815260206004820152603160248201527f43544d3a204769616d20646f63206d6f69207468696575207661692074726f2060448201527f46494e5f4449524543544f525f524f4c450000000000000000000000000000006064820152608401610845565b6005546001600160a01b03838116911614156110f45760405162461bcd60e51b815260206004820152602d60248201527f43544d3a204769616d20646f63206d6f69207472756e6720766f69206769616d60448201527f20646f63206869656e20746169000000000000000000000000000000000000006064820152608401610845565b6005805473ffffffffffffffffffffffffffffffffffffffff19166001600160a01b0384169081179091556040517fefdd118ca7d5b7a6f2ba4688dbbfc422f9e0a98948ef0a0b17da8b1d3200a76d90600090a25050565b6000600260015414156111a15760405162461bcd60e51b815260206004820152601f60248201527f5265656e7472616e637947756172643a207265656e7472616e742063616c6c006044820152606401610845565b60026001556003546001600160a01b031633146112005760405162461bcd60e51b815260206004820152601e60248201527f43544d3a204e67756f6920676f69206b686f6e6720706861692057534f4d00006044820152606401610845565b6001600160a01b03851661127c5760405162461bcd60e51b815260206004820152602f60248201527f43544d3a2044696120636869204e4343206b686f6e6720746865206c61207a6560448201527f726f2064652067696169206e67616e00000000000000000000000000000000006064820152608401610845565b826112ef5760405162461bcd60e51b815260206004820152602d60248201527f43544d3a20494420646f6e2068616e67206b686f6e672064756f6320726f6e6760448201527f2064652067696169206e67616e000000000000000000000000000000000000006064820152608401610845565b60006008858560405161130392919061395b565b908152604051908190036020019020600381015490915060ff1661138f5760405162461bcd60e51b815260206004820152603c60248201527f43544d3a204b7920717579206b686f6e67206b69636820686f617420686f616360448201527f206b686f6e672074696d20746861792064652067696169206e67616e000000006064820152608401610845565b60018101546001600160a01b038781169116146113ee5760405162461bcd60e51b815260206004820181905260248201527f43544d3a204e4343206b686f6e67206b686f702064652067696169206e67616e6044820152606401610845565b828160020154146114665760405162461bcd60e51b8152602060048201526024808201527f43544d3a20536f207469656e206b686f6e67206b686f7020646520676961692060448201527f6e67616e000000000000000000000000000000000000000000000000000000006064820152608401610845565b60038101805460ff19169055600181015460028201546040516000926001600160a01b031691908381818185875af1925050503d80600081146114c5576040519150601f19603f3d011682016040523d82523d6000602084013e6114ca565b606091505b50509050806114ea5750600301805460ff19166001179055506000611541565b600182015460028301546040516001600160a01b03909216917f887f535c60243445802f8a07b39ad62c28b084f008cc72080bc9776a6bdec58591611532918a918a9161396b565b60405180910390a26001925050505b60018055949350505050565b6000546001600160a01b031633146115a75760405162461bcd60e51b815260206004820181905260248201527f4f776e61626c653a2063616c6c6572206973206e6f7420746865206f776e65726044820152606401610845565b6001600160a01b0381166115fd5760405162461bcd60e51b815260206004820152601d60248201527f43544d3a204469612063686920434f4d206b686f6e6720686f70206c650000006044820152606401610845565b6004805473ffffffffffffffffffffffffffffffffffffffff19166001600160a01b0383169081179091556040517ff60a7d245ccf77dd2036da1a1ad14a8c5dba1a9ccc98b56d0ad004b140c9472390600090a250565b6000546001600160a01b031633146116ae5760405162461bcd60e51b815260206004820181905260248201527f4f776e61626c653a2063616c6c6572206973206e6f7420746865206f776e65726044820152606401610845565b6001600160a01b03811661172a5760405162461bcd60e51b815260206004820152602760248201527f43544d3a2044696120636869204769616d20646f63206b686f6e67207468652060448201527f6c61207a65726f000000000000000000000000000000000000000000000000006064820152608401610845565b60007f00000000000000000000000000000000000000000000000000000000000000006001600160a01b0316638b94a8e26040518163ffffffff1660e01b815260040160206040518083038186803b15801561178557600080fd5b505afa158015611799573d6000803e3d6000fd5b505050506040513d601f19601f820116820180604052508101906117bd91906136aa565b604051632474521560e21b8152600481018290526001600160a01b0384811660248301529192507f0000000000000000000000000000000000000000000000000000000000000000909116906391d148549060440160206040518083038186803b15801561182a57600080fd5b505afa15801561183e573d6000803e3d6000fd5b505050506040513d601f19601f820116820180604052508101906118629190613690565b6118d45760405162461bcd60e51b815260206004820152603560248201527f43544d3a20446961206368692064756f632067616e207468696575207661692060448201527f74726f2046494e5f4449524543544f525f524f4c4500000000000000000000006064820152608401610845565b6005546001600160a01b0316156110f45760405162461bcd60e51b815260206004820152603160248201527f43544d3a204769616d20646f6320546169206368696e682062616e206461752060448201527f64612064756f63207468696574206c61700000000000000000000000000000006064820152608401610845565b6000546001600160a01b031633146119ad5760405162461bcd60e51b815260206004820181905260248201527f4f776e61626c653a2063616c6c6572206973206e6f7420746865206f776e65726044820152606401610845565b600080546040516001600160a01b03909116907f8be0079c531659141344cd1fd0a4f28419497f9722a3daafe3b4186f6b6457e0908390a36000805473ffffffffffffffffffffffffffffffffffffffff19169055565b6000546001600160a01b03163314611a5e5760405162461bcd60e51b815260206004820181905260248201527f4f776e61626c653a2063616c6c6572206973206e6f7420746865206f776e65726044820152606401610845565b6001600160a01b038116611ab45760405162461bcd60e51b815260206004820152601e60248201527f43544d3a20446961206368692057534f4d206b686f6e6720686f70206c6500006044820152606401610845565b6003805473ffffffffffffffffffffffffffffffffffffffff19166001600160a01b0383169081179091556040517fcb36ba9fb6b00797b047f7ee0bd8a7a2e9035de6fdcb2cd93c50aaa91d2c1bbc90600090a250565b6005546001600160a01b03163314611b8b5760405162461bcd60e51b815260206004820152602c60248201527f43544d3a204e67756f6920676f69206b686f6e672070686169204769616d206460448201527f6f6320546169206368696e6800000000000000000000000000000000000000006064820152608401610845565b6001600160a01b038316611c075760405162461bcd60e51b815260206004820152602260248201527f43544d3a2044696120636869206b686f206b686f6e6720746865206c61207a6560448201527f726f0000000000000000000000000000000000000000000000000000000000006064820152608401610845565b6001600160a01b038216611c835760405162461bcd60e51b815260206004820152602260248201527f43544d3a2044696120636869204e4343206b686f6e6720746865206c61207a6560448201527f726f0000000000000000000000000000000000000000000000000000000000006064820152608401610845565b6040517f7160572b0000000000000000000000000000000000000000000000000000000081526001600160a01b0384811660048301526000917f000000000000000000000000000000000000000000000000000000000000000090911690637160572b9060240160006040518083038186803b158015611d0257600080fd5b505afa158015611d16573d6000803e3d6000fd5b505050506040513d6000823e601f3d908101601f19168201604052611d3e9190810190613776565b90508060800151611d915760405162461bcd60e51b815260206004820152601f60248201527f43544d3a204b686f206b686f6e6720746f6e207461692074726f6e6720494d006044820152606401610845565b6040517f59435f040000000000000000000000000000000000000000000000000000000081526001600160a01b0384811660048301526000917f0000000000000000000000000000000000000000000000000000000000000000909116906359435f049060240160006040518083038186803b158015611e1057600080fd5b505afa158015611e24573d6000803e3d6000fd5b505050506040513d6000823e601f3d908101601f19168201604052611e4c9190810190613857565b905080606001518015611e60575080604001515b611ed25760405162461bcd60e51b815260206004820152603860248201527f43544d3a204e4343206b686f6e6720746f6e2074616920686f6163206368756160448201527f2064756f63207068652064757965742074726f6e6720494d00000000000000006064820152608401610845565b6001600160a01b03858116600081815260066020908152604080832094891680845294825291829020879055905186815233917ffcbafc2c7d8791bb6ad7ee03317625c081371655d277ef5abf133add155be5f1910160405180910390a45050505050565b600060026001541415611f8c5760405162461bcd60e51b815260206004820152601f60248201527f5265656e7472616e637947756172643a207265656e7472616e742063616c6c006044820152606401610845565b60026001556003546001600160a01b03163314611feb5760405162461bcd60e51b815260206004820152601e60248201527f43544d3a204e67756f6920676f69206b686f6e6720706861692057534f4d00006044820152606401610845565b6001600160a01b0386166120675760405162461bcd60e51b815260206004820152602960248201527f43544d3a2044696120636869206b686f206b7920717579206b686f6e6720746860448201527f65206c61207a65726f00000000000000000000000000000000000000000000006064820152608401610845565b6001600160a01b0385166120e35760405162461bcd60e51b815260206004820152602960248201527f43544d3a2044696120636869204e4343206b7920717579206b686f6e6720746860448201527f65206c61207a65726f00000000000000000000000000000000000000000000006064820152608401610845565b826121565760405162461bcd60e51b815260206004820152602760248201527f43544d3a20494420646f6e2068616e67206b7920717579206b686f6e6720647560448201527f6f6320726f6e67000000000000000000000000000000000000000000000000006064820152608401610845565b600082116121cb5760405162461bcd60e51b8152602060048201526024808201527f43544d3a20536f207469656e206b79207175792070686169206c6120736f206460448201527f756f6e67000000000000000000000000000000000000000000000000000000006064820152608401610845565b600884846040516121dd92919061395b565b9081526040519081900360200190206003015460ff16156122665760405162461bcd60e51b815260206004820152602d60248201527f43544d3a204944206b7920717579206461206b69636820686f617420686f616360448201527f206b686f6e6720686f70206c65000000000000000000000000000000000000006064820152608401610845565b6001600160a01b03808716600090815260066020908152604080832093891683529290522054806122ff5760405162461bcd60e51b815260206004820152603160248201527f43544d3a204b686f6e6720636f206368696e682073616368206368692074696560448201527f752063686f206b686f2f6e6363206e61790000000000000000000000000000006064820152608401610845565b808311156123755760405162461bcd60e51b815260206004820152603660248201527f43544d3a20536f207469656e2076756f74207175612067696f692068616e206360448201527f68696e682073616368206d6f6920646f6e2068616e67000000000000000000006064820152608401610845565b6001600160a01b038716600090815260076020526040812054612399908590613a34565b905068056bc75e2d6310000081111561241a5760405162461bcd60e51b815260206004820152602f60248201527f43544d3a2056756f74207175612067696f692068616e2063686920746965752060448201527f64696e68206b7920637561206b686f00000000000000000000000000000000006064820152608401610845565b834710156124905760405162461bcd60e51b815260206004820152602560248201527f43544d3a204e67616e20717579206b686f6e67206475207469656e206465206b60448201527f79207175790000000000000000000000000000000000000000000000000000006064820152608401610845565b604080516080810182526001600160a01b03808b168252891660208201528082018690526001606082015290516008906124cd908990899061395b565b90815260408051602092819003830181208451815473ffffffffffffffffffffffffffffffffffffffff199081166001600160a01b03928316178355868601516001840180549092169083161790558584015160028301556060909501516003909101805460ff19169115159190911790558b8416600081815260079094529190922084905591891691907f8832efea4e13c2ed683f9c0908aba7265d18c42517933ebeea3b4d9092f3655b90612589908a908a908a9061396b565b60405180910390a3505060018080559695505050505050565b6005546001600160a01b031633146126225760405162461bcd60e51b815260206004820152602c60248201527f43544d3a204e67756f6920676f69206b686f6e672070686169204769616d206460448201527f6f6320546169206368696e6800000000000000000000000000000000000000006064820152608401610845565b600260015414156126755760405162461bcd60e51b815260206004820152601f60248201527f5265656e7472616e637947756172643a207265656e7472616e742063616c6c006044820152606401610845565b60026001556001600160a01b0382166126f65760405162461bcd60e51b815260206004820152603060248201527f43544d3a2044696120636869206e67756f6920676975207661692074726f206b60448201527f686f6e6720746865206c61207a65726f000000000000000000000000000000006064820152608401610845565b604051632474521560e21b8152600481018290526001600160a01b0383811660248301527f000000000000000000000000000000000000000000000000000000000000000016906391d148549060440160206040518083038186803b15801561275e57600080fd5b505afa158015612772573d6000803e3d6000fd5b505050506040513d601f19601f820116820180604052508101906127969190613690565b6128085760405162461bcd60e51b815260206004820152603460248201527f43544d3a2044696120636869206d75632074696575206b686f6e6720636f207660448201527f61692074726f2064756f63206368692064696e680000000000000000000000006064820152608401610845565b60007f00000000000000000000000000000000000000000000000000000000000000006001600160a01b0316638b94a8e26040518163ffffffff1660e01b815260040160206040518083038186803b15801561286357600080fd5b505afa158015612877573d6000803e3d6000fd5b505050506040513d601f19601f8201168201806040525081019061289b91906136aa565b90508082141561293a5760405162461bcd60e51b8152602060048201526044602482018190527f43544d3a204b686f6e6720746865206e6170207469656e2063686f2076616920908201527f74726f204769616d20646f6320546169206368696e68207468656f206361636860648201527f206e617900000000000000000000000000000000000000000000000000000000608482015260a401610845565b6001600160a01b038316316801158e460913d0000081106129c35760405162461bcd60e51b815260206004820152603b60248201527f43544d3a20536f20647520637561206e67756f6920676975207661692074726f60448201527f206d75632074696575206b686f6e672064756f69206e67756f6e6700000000006064820152608401610845565b674563918244f4000047811115612a1c5760405162461bcd60e51b815260206004820152601b60248201527f43544d3a204e67616e20717579206b686f6e67206475207469656e00000000006044820152606401610845565b6000856001600160a01b03168260405160006040518083038185875af1925050503d8060008114612a69576040519150601f19603f3d011682016040523d82523d6000602084013e612a6e565b606091505b5050905080612abf5760405162461bcd60e51b815260206004820181905260248201527f43544d3a2043687579656e207469656e206e6f6920626f2074686174206261696044820152606401610845565b6040518281526001600160a01b0387169033907fe2080c8fc8d86c864d8dc081fadaebf2be7191086615e786f954420f13ed122a9060200160405180910390a350506001805550505050565b600060026001541415612b605760405162461bcd60e51b815260206004820152601f60248201527f5265656e7472616e637947756172643a207265656e7472616e742063616c6c006044820152606401610845565b60026001556003546001600160a01b03163314612bbf5760405162461bcd60e51b815260206004820152601e60248201527f43544d3a204e67756f6920676f69206b686f6e6720706861692057534f4d00006044820152606401610845565b6001600160a01b038516612c3b5760405162461bcd60e51b815260206004820152602e60248201527f43544d3a2044696120636869206b686f206b686f6e6720746865206c61207a6560448201527f726f20646520686f616e207472610000000000000000000000000000000000006064820152608401610845565b82612cae5760405162461bcd60e51b815260206004820152602c60248201527f43544d3a20494420646f6e2068616e67206b686f6e672064756f6320726f6e6760448201527f20646520686f616e2074726100000000000000000000000000000000000000006064820152608401610845565b600060088585604051612cc292919061395b565b908152604051908190036020019020600381015490915060ff16612d4e5760405162461bcd60e51b815260206004820152603b60248201527f43544d3a204b7920717579206b686f6e67206b69636820686f617420686f616360448201527f206b686f6e672074696d207468617920646520686f616e2074726100000000006064820152608401610845565b80546001600160a01b03878116911614612daa5760405162461bcd60e51b815260206004820152601f60248201527f43544d3a204b686f206b686f6e67206b686f7020646520686f616e20747261006044820152606401610845565b82816002015414612e235760405162461bcd60e51b815260206004820152602360248201527f43544d3a20536f207469656e206b686f6e67206b686f7020646520686f616e2060448201527f74726100000000000000000000000000000000000000000000000000000000006064820152608401610845565b60038101805460ff19169055600281015481546001600160a01b031660009081526007602052604081208054909190612e5d908490613a4c565b9091555050805460028201546040516001600160a01b03909216917f1065ba1a5e4d9d087a309d86a9ce14c67c7dbef9aa278a382c31e408d826cbdd91612ea7918991899161396b565b60405180910390a250506001808055949350505050565b6040805160808101825260008082526020820181905281830181905260608201529051600890612ef1908590859061395b565b90815260408051918290036020908101832060808401835280546001600160a01b039081168552600182015416918401919091526002810154918301919091526003015460ff1615156060820152905092915050565b6000546001600160a01b03163314612fa15760405162461bcd60e51b815260206004820181905260248201527f4f776e61626c653a2063616c6c6572206973206e6f7420746865206f776e65726044820152606401610845565b6001600160a01b03811661301d5760405162461bcd60e51b815260206004820152602660248201527f4f776e61626c653a206e6577206f776e657220697320746865207a65726f206160448201527f64647265737300000000000000000000000000000000000000000000000000006064820152608401610845565b600080546040516001600160a01b03808516939216917f8be0079c531659141344cd1fd0a4f28419497f9722a3daafe3b4186f6b6457e091a36000805473ffffffffffffffffffffffffffffffffffffffff19166001600160a01b0392909216919091179055565b600260015414156130d85760405162461bcd60e51b815260206004820152601f60248201527f5265656e7472616e637947756172643a207265656e7472616e742063616c6c006044820152606401610845565b6002600181905554339034906001600160a01b031661315f5760405162461bcd60e51b815260206004820152603660248201527f43544d3a204469612063686920526f6c654d616e6167656d656e74206461792060448201527f647520636875612064756f63207468696574206c6170000000000000000000006064820152608401610845565b6002546040517fbe9d3db30000000000000000000000000000000000000000000000000000000081526001600160a01b038481166004830152600092169063be9d3db39060240160206040518083038186803b1580156131be57600080fd5b505afa1580156131d2573d6000803e3d6000fd5b505050506040513d601f19601f820116820180604052508101906131f691906136aa565b9050600081116132945760405162461bcd60e51b815260206004820152604c60248201527f43544d3a204b686f6e6720636f206465207875617420766f6e2063686f20756e60448201527f67207669656e206e617920686f616320526f6c654d616e6167656d656e74206360648201527f6875612073616e2073616e670000000000000000000000000000000000000000608482015260a401610845565b8082146133095760405162461bcd60e51b815260206004820152602b60248201527f43544d3a20536f207469656e20676f70206b686f6e672064756e6720766f692060448201527f6465207875617420766f6e0000000000000000000000000000000000000000006064820152608401610845565b826001600160a01b03167f5b2867009c0e15ae94a5d29f41dc792d26e95e9ab9a5ef8ebd64e7b41fd6015a8360405161334491815260200190565b60405180910390a26002546040517ff83ea09f0000000000000000000000000000000000000000000000000000000081526001600160a01b038581166004830152602482018590529091169063f83ea09f90604401600060405180830381600087803b1580156133b357600080fd5b505af11580156133c7573d6000803e3d6000fd5b5050600180555050505050565b80516133df81613ac1565b919050565b805180151581146133df57600080fd5b60008083601f840112613405578182fd5b50813567ffffffffffffffff81111561341c578182fd5b60208301915083602082850101111561343457600080fd5b9250929050565b600082601f83011261344b578081fd5b815161345e61345982613a0c565b6139db565b81815260208581848701011115613473578384fd5b835b83811015613490578581018201518382018301528101613475565b838111156134a057848285850101525b509095945050505050565b6000602082840312156134bc578081fd5b81356134c781613ac1565b9392505050565b600080600080606085870312156134e3578283fd5b84356134ee81613ac1565b935060208501359250604085013567ffffffffffffffff811115613510578283fd5b61351c878288016133f4565b95989497509550505050565b6000806040838503121561353a578182fd5b823561354581613ac1565b9150602083013561355581613ac1565b809150509250929050565b600080600080600060808688031215613577578081fd5b853561358281613ac1565b9450602086013561359281613ac1565b9350604086013567ffffffffffffffff8111156135ad578182fd5b6135b9888289016133f4565b96999598509660600135949350505050565b6000806000606084860312156135df578283fd5b83356135ea81613ac1565b925060208401356135fa81613ac1565b929592945050506040919091013590565b6000806040838503121561361d578182fd5b823561362881613ac1565b946020939093013593505050565b6000806000806060858703121561364b578384fd5b843561365681613ac1565b9350602085013567ffffffffffffffff811115613671578384fd5b61367d878288016133f4565b9598909750949560400135949350505050565b6000602082840312156136a1578081fd5b6134c7826133e4565b6000602082840312156136bb578081fd5b5051919050565b600080602083850312156136d4578182fd5b823567ffffffffffffffff8111156136ea578283fd5b6136f6858286016133f4565b90969095509350505050565b600060208284031215613713578081fd5b813567ffffffffffffffff811115613729578182fd5b8201601f81018413613739578182fd5b803561374761345982613a0c565b81815285602083850101111561375b578384fd5b81602084016020830137908101602001929092525092915050565b600060208284031215613787578081fd5b815167ffffffffffffffff8082111561379e578283fd5b9083019060e082860312156137b1578283fd5b6137b96139b2565b6137c2836133d4565b81526020830151828111156137d5578485fd5b6137e18782860161343b565b6020830152506040830151828111156137f8578485fd5b6138048782860161343b565b604083015250613816606084016133d4565b6060820152613827608084016133e4565b608082015261383860a084016133e4565b60a082015261384960c084016133d4565b60c082015295945050505050565b600060208284031215613868578081fd5b815167ffffffffffffffff8082111561387f578283fd5b9083019060808286031215613892578283fd5b6040516080810181811083821117156138ad576138ad613a92565b60405282516138bb81613ac1565b81526020830151828111156138ce578485fd5b6138da8782860161343b565b6020830152506138ec604084016133e4565b60408201526138fd606084016133e4565b606082015295945050505050565b60008060006060848603121561391f578081fd5b8335925060208401356135fa81613ac1565b8183528181602085013750600080602083850101526020601f19601f840116840101905092915050565b8183823760009101908152919050565b60408152600061397f604083018587613931565b9050826020830152949350505050565b8381526040602082015260006139a9604083018486613931565b95945050505050565b60405160e0810167ffffffffffffffff811182821017156139d5576139d5613a92565b60405290565b604051601f8201601f1916810167ffffffffffffffff81118282101715613a0457613a04613a92565b604052919050565b600067ffffffffffffffff821115613a2657613a26613a92565b50601f01601f191660200190565b60008219821115613a4757613a47613a63565b500190565b600082821015613a5e57613a5e613a63565b500390565b7f4e487b7100000000000000000000000000000000000000000000000000000000600052601160045260246000fd5b7f4e487b7100000000000000000000000000000000000000000000000000000000600052604160045260246000fd5b6001600160a01b0381168114613ad657600080fd5b5056fea26469706673582212203a50d3293288670adf900fa3a6e77f39269bda697f00bb3f54b51aa9fbbd045d64736f6c63430008040033",
  "immutableReferences": {
    "792": [
      {
        "length": 32,
        "start": 1573
      },
      {
        "length": 32,
        "start": 3786
      },
      {
        "length": 32,
        "start": 3970
      },
      {
        "length": 32,
        "start": 5934
      },
      {
        "length": 32,
        "start": 6118
      },
      {
        "length": 32,
        "start": 10012
      },
      {
        "length": 32,
        "start": 10252
      }
    ],
    "795": [
      {
        "length": 32,
        "start": 1625
      },
      {
        "length": 32,
        "start": 7358
      },
      {
        "length": 32,
        "start": 7628
      }
    ]
  },
  "source": "// SPDX-License-Identifier: MIT\r\npragma solidity ^0.8.4;\r\n\r\nimport \"@openzeppelin/contracts/access/Ownable.sol\";\r\nimport \"@openzeppelin/contracts/security/ReentrancyGuard.sol\";\r\nimport \"./Interfaces.sol\";      // Import file Interfaces.sol tp trung\r\nimport \"./ItemsManagement.sol\"; // Import ItemsManagement  hiu cc struct nh PhysicalLocationInfo, SupplierInfo\r\n\r\n// Hp ng Qun l Ngn qu Cng ty\r\ncontract CompanyTreasuryManager is Ownable, ReentrancyGuard {\r\n    // S dng cc interface t Interfaces.sol\r\n    IRoleManagement public immutable roleManagement;\r\n    IItemsManagementInterface public immutable itemsManagement;\r\n\r\n    address public roleManagementFullAddress; // a ch y  ca RoleManagement cho vic kch hot BH\r\n    address public warehouseSupplierOrderManagement;\r\n    address public customerOrderManagementAddress;\r\n\r\n    address public financeDirector;\r\n\r\n    // Constants for internal transfers and spending limits\r\n    uint256 public constant INTERNAL_ROLE_TOP_UP_THRESHOLD = 20 ether;\r\n    uint256 public constant INTERNAL_ROLE_TOP_UP_AMOUNT = 5 ether;\r\n    uint256 public constant WAREHOUSE_SPENDING_LIMIT_PER_PERIOD = 100 ether;\r\n\r\n    // Mappings for spending policies and escrow\r\n    mapping(address => mapping(address => uint256)) public warehouseSpendingPolicies; // warehouse => supplier => maxAmountPerOrder\r\n    mapping(address => uint256) public warehouseSpendingThisPeriod; // warehouse => currentSpendingInPeriod\r\n\r\n    struct EscrowDetails {\r\n        address warehouseAddress;\r\n        address supplierAddress;\r\n        uint256 amount;\r\n        bool active;\r\n    }\r\n    mapping(string => EscrowDetails) public activeEscrows; // internalSupplierOrderId => EscrowDetails\r\n\r\n    // --- EVENTS ---\r\n    event FundsDeposited(address indexed from, uint256 amount);\r\n    event InitialCapitalReceived(uint256 amount);\r\n    event BoardMemberContributionReceived(address indexed candidate, uint256 amount);\r\n    event InternalTransfer(address indexed by, address indexed toRoleHolder, uint256 amount);\r\n    event SupplierPaymentEscrowed(string internalOrderId, address indexed warehouse, address indexed supplier, uint256 amount);\r\n    event SupplierPaymentReleased(string internalOrderId, address indexed supplier, uint256 amount);\r\n    event EscrowRefunded(string internalOrderId, address indexed warehouse, uint256 amount);\r\n    event SpendingPolicySet(address indexed setBy, address indexed warehouse, address indexed supplier, uint256 maxAmount);\r\n    event FinanceDirectorSet(address indexed newDirector);\r\n    event RoleManagementFullAddressSet(address indexed rmFullAddress); // Though set in constructor now, event is good practice\r\n    event WarehouseSupplierOrderManagementAddressSet(address indexed wsomAddress);\r\n    event CustomerOrderManagementAddressSet(address indexed comAddress);\r\n    event GeneralWithdrawal(address indexed by, address indexed recipient, uint256 amount, string reason);\r\n    event CustomerRefundProcessedFromTreasury(uint256 indexed orderId, address indexed customer, uint256 amount);\r\n\r\n    // --- MODIFIERS ---\r\n    modifier onlyFinanceDirector() {\r\n        require(msg.sender == financeDirector, \"CTM: Nguoi goi khong phai Giam doc Tai chinh\");\r\n        _;\r\n    }\r\n\r\n    // --- CONSTRUCTOR ---\r\n    constructor(\r\n        address _roleManagementAddress,\r\n        address _itemsManagementAddress,\r\n        uint256 _expectedInitialCapital\r\n    ) Ownable() payable { // Ownable() constructor doesn't take arguments in OZ 4.x+\r\n        require(_roleManagementAddress != address(0), \"CTM: Dia chi RoleManagement khong hop le\");\r\n        require(_itemsManagementAddress != address(0), \"CTM: Dia chi ItemsManagement khong hop le\");\r\n        require(_expectedInitialCapital >= 0, \"CTM: Von ban dau du kien khong the am\");\r\n\r\n        roleManagement = IRoleManagement(_roleManagementAddress);\r\n        itemsManagement = IItemsManagementInterface(_itemsManagementAddress);\r\n        roleManagementFullAddress = _roleManagementAddress; // Store for board member activation\r\n\r\n        if (_expectedInitialCapital > 0) {\r\n            require(msg.value == _expectedInitialCapital, \"CTM: So von ban dau gui khong chinh xac\");\r\n            emit InitialCapitalReceived(msg.value);\r\n        } else {\r\n            require(msg.value == 0, \"CTM: Khong nen gui Ether neu von ban dau du kien la 0\");\r\n        }\r\n    }\r\n\r\n    // --- SETTER FUNCTIONS (Owner controlled) ---\r\n    function setWarehouseSupplierOrderManagementAddress(address _wsomAddress) external onlyOwner {\r\n        require(_wsomAddress != address(0), \"CTM: Dia chi WSOM khong hop le\");\r\n        warehouseSupplierOrderManagement = _wsomAddress;\r\n        emit WarehouseSupplierOrderManagementAddressSet(_wsomAddress);\r\n    }\r\n\r\n    function setCustomerOrderManagementAddress(address _comAddress) external onlyOwner {\r\n        require(_comAddress != address(0), \"CTM: Dia chi COM khong hop le\");\r\n        customerOrderManagementAddress = _comAddress;\r\n        emit CustomerOrderManagementAddressSet(_comAddress);\r\n    }\r\n\r\n    function setInitialFinanceDirector(address _director) external onlyOwner {\r\n        require(_director != address(0), \"CTM: Dia chi Giam doc khong the la zero\");\r\n        bytes32 finDirectorRole = roleManagement.FINANCE_DIRECTOR_ROLE();\r\n        require(roleManagement.hasRole(finDirectorRole, _director), \"CTM: Dia chi duoc gan thieu vai tro FIN_DIRECTOR_ROLE\");\r\n        require(financeDirector == address(0), \"CTM: Giam doc Tai chinh ban dau da duoc thiet lap\"); // Can only set once initially\r\n        financeDirector = _director;\r\n        emit FinanceDirectorSet(_director);\r\n    }\r\n\r\n    // --- RECEIVE ETHER ---\r\n    receive() external payable {\r\n        emit FundsDeposited(msg.sender, msg.value);\r\n    }\r\n\r\n    // --- CORE TREASURY FUNCTIONS ---\r\n\r\n    // Called by Finance Director to top-up internal roles\r\n    function transferToInternalRole(address _roleHolderAddress, bytes32 _roleKey)\r\n        external\r\n        onlyFinanceDirector\r\n        nonReentrant\r\n    {\r\n        require(_roleHolderAddress != address(0), \"CTM: Dia chi nguoi giu vai tro khong the la zero\");\r\n        require(roleManagement.hasRole(_roleKey, _roleHolderAddress), \"CTM: Dia chi muc tieu khong co vai tro duoc chi dinh\");\r\n\r\n        bytes32 finDirectorRole = roleManagement.FINANCE_DIRECTOR_ROLE();\r\n        require(_roleKey != finDirectorRole, \"CTM: Khong the nap tien cho vai tro Giam doc Tai chinh theo cach nay\");\r\n\r\n        uint256 targetBalance = _roleHolderAddress.balance;\r\n        require(targetBalance < INTERNAL_ROLE_TOP_UP_THRESHOLD, \"CTM: So du cua nguoi giu vai tro muc tieu khong duoi nguong\");\r\n\r\n        uint256 amountToSend = INTERNAL_ROLE_TOP_UP_AMOUNT;\r\n        require(address(this).balance >= amountToSend, \"CTM: Ngan quy khong du tien\");\r\n\r\n        (bool success, ) = payable(_roleHolderAddress).call{value: amountToSend}(\"\");\r\n        require(success, \"CTM: Chuyen tien noi bo that bai\");\r\n        emit InternalTransfer(msg.sender, _roleHolderAddress, amountToSend);\r\n    }\r\n\r\n    // Called by Finance Director to set spending policies\r\n    function setWarehouseSpendingPolicy(\r\n        address _warehouseAddress,\r\n        address _supplierAddress,\r\n        uint256 _maxAmountPerOrder\r\n    ) external onlyFinanceDirector {\r\n        require(_warehouseAddress != address(0), \"CTM: Dia chi kho khong the la zero\");\r\n        require(_supplierAddress != address(0), \"CTM: Dia chi NCC khong the la zero\");\r\n\r\n        // itemsManagement.getWarehouseInfo returns ItemsManagement.PhysicalLocationInfo\r\n        // We imported ItemsManagement.sol, so the compiler knows this struct.\r\n        PhysicalLocationInfo memory whInfo = itemsManagement.getWarehouseInfo(_warehouseAddress);\r\n        require(whInfo.exists, \"CTM: Kho khong ton tai trong IM\");\r\n\r\n        SupplierInfo memory supInfo = itemsManagement.getSupplierInfo(_supplierAddress);\r\n        require(supInfo.exists && supInfo.isApprovedByBoard, \"CTM: NCC khong ton tai hoac chua duoc phe duyet trong IM\");\r\n\r\n\r\n        warehouseSpendingPolicies[_warehouseAddress][_supplierAddress] = _maxAmountPerOrder;\r\n        emit SpendingPolicySet(msg.sender, _warehouseAddress, _supplierAddress, _maxAmountPerOrder);\r\n    }\r\n\r\n    // Called by Finance Director for general withdrawals\r\n    function generalWithdrawal(address payable _recipient, uint256 _amount, string calldata _reason)\r\n        external\r\n        onlyFinanceDirector\r\n        nonReentrant\r\n    {\r\n        require(_recipient != address(0), \"CTM: Nguoi nhan khong the la dia chi zero\");\r\n        require(_amount > 0, \"CTM: So tien phai la so duong\");\r\n        require(address(this).balance >= _amount, \"CTM: Ngan quy khong du tien\");\r\n\r\n        (bool success, ) = _recipient.call{value: _amount}(\"\");\r\n        require(success, \"CTM: Rut tien chung that bai\");\r\n        emit GeneralWithdrawal(msg.sender, _recipient, _amount, _reason);\r\n    }\r\n\r\n    // Called by Owner to change the Finance Director\r\n    function changeFinanceDirector(address _newDirector) external onlyOwner {\r\n        require(_newDirector != address(0), \"CTM: Giam doc moi khong the la dia chi zero\");\r\n        bytes32 finDirectorRole = roleManagement.FINANCE_DIRECTOR_ROLE();\r\n        require(roleManagement.hasRole(finDirectorRole, _newDirector), \"CTM: Giam doc moi thieu vai tro FIN_DIRECTOR_ROLE\");\r\n        require(_newDirector != financeDirector, \"CTM: Giam doc moi trung voi giam doc hien tai\");\r\n        financeDirector = _newDirector;\r\n        emit FinanceDirectorSet(_newDirector);\r\n    }\r\n\r\n    // --- ESCROW FUNCTIONS (Called by WarehouseSupplierOrderManagement) ---\r\n    function requestEscrowForSupplierOrder(\r\n        address _warehouseAddress,\r\n        address _supplierAddress,\r\n        string calldata _internalSupplierOrderId,\r\n        uint256 _amount\r\n    ) external nonReentrant returns (bool) {\r\n        require(msg.sender == warehouseSupplierOrderManagement, \"CTM: Nguoi goi khong phai WSOM\");\r\n        require(_warehouseAddress != address(0), \"CTM: Dia chi kho ky quy khong the la zero\");\r\n        require(_supplierAddress != address(0), \"CTM: Dia chi NCC ky quy khong the la zero\");\r\n        require(bytes(_internalSupplierOrderId).length > 0, \"CTM: ID don hang ky quy khong duoc rong\");\r\n        require(_amount > 0, \"CTM: So tien ky quy phai la so duong\");\r\n        require(!activeEscrows[_internalSupplierOrderId].active, \"CTM: ID ky quy da kich hoat hoac khong hop le\");\r\n\r\n        uint256 maxAmountAllowed = warehouseSpendingPolicies[_warehouseAddress][_supplierAddress];\r\n        require(maxAmountAllowed > 0, \"CTM: Khong co chinh sach chi tieu cho kho/ncc nay\");\r\n        require(_amount <= maxAmountAllowed, \"CTM: So tien vuot qua gioi han chinh sach moi don hang\");\r\n\r\n        uint256 spendingAfterThisOrder = warehouseSpendingThisPeriod[_warehouseAddress] + _amount;\r\n        require(spendingAfterThisOrder <= WAREHOUSE_SPENDING_LIMIT_PER_PERIOD, \"CTM: Vuot qua gioi han chi tieu dinh ky cua kho\");\r\n        require(address(this).balance >= _amount, \"CTM: Ngan quy khong du tien de ky quy\");\r\n\r\n        activeEscrows[_internalSupplierOrderId] = EscrowDetails({\r\n            warehouseAddress: _warehouseAddress,\r\n            supplierAddress: _supplierAddress,\r\n            amount: _amount,\r\n            active: true\r\n        });\r\n        warehouseSpendingThisPeriod[_warehouseAddress] = spendingAfterThisOrder; // Update spending for the period\r\n        emit SupplierPaymentEscrowed(_internalSupplierOrderId, _warehouseAddress, _supplierAddress, _amount);\r\n        return true;\r\n    }\r\n\r\n    function releaseEscrowToSupplier(\r\n        address _supplierAddressToVerify,\r\n        string calldata _internalSupplierOrderId,\r\n        uint256 _amountToVerify\r\n    ) external nonReentrant returns (bool) {\r\n        require(msg.sender == warehouseSupplierOrderManagement, \"CTM: Nguoi goi khong phai WSOM\");\r\n        require(_supplierAddressToVerify != address(0), \"CTM: Dia chi NCC khong the la zero de giai ngan\");\r\n        require(bytes(_internalSupplierOrderId).length > 0, \"CTM: ID don hang khong duoc rong de giai ngan\");\r\n\r\n        EscrowDetails storage escrow = activeEscrows[_internalSupplierOrderId];\r\n        require(escrow.active, \"CTM: Ky quy khong kich hoat hoac khong tim thay de giai ngan\");\r\n        require(escrow.supplierAddress == _supplierAddressToVerify, \"CTM: NCC khong khop de giai ngan\");\r\n        require(escrow.amount == _amountToVerify, \"CTM: So tien khong khop de giai ngan\");\r\n\r\n        escrow.active = false; // Mark as inactive before transfer\r\n        (bool success, ) = payable(escrow.supplierAddress).call{value: escrow.amount}(\"\");\r\n        if (!success) {\r\n            escrow.active = true; // Revert state if transfer fails\r\n            return false; // Indicate failure\r\n        }\r\n        // warehouseSpendingThisPeriod is NOT reduced here, as the money has been spent\r\n        emit SupplierPaymentReleased(_internalSupplierOrderId, escrow.supplierAddress, escrow.amount);\r\n        return true;\r\n    }\r\n\r\n    function refundEscrowToTreasury( // Called when an order is cancelled before payment release\r\n        address _warehouseAddressToVerify,\r\n        string calldata _internalSupplierOrderId,\r\n        uint256 _amountToVerify\r\n    ) external nonReentrant returns (bool) {\r\n        require(msg.sender == warehouseSupplierOrderManagement, \"CTM: Nguoi goi khong phai WSOM\");\r\n        require(_warehouseAddressToVerify != address(0), \"CTM: Dia chi kho khong the la zero de hoan tra\");\r\n        require(bytes(_internalSupplierOrderId).length > 0, \"CTM: ID don hang khong duoc rong de hoan tra\");\r\n\r\n        EscrowDetails storage escrow = activeEscrows[_internalSupplierOrderId];\r\n        require(escrow.active, \"CTM: Ky quy khong kich hoat hoac khong tim thay de hoan tra\");\r\n        require(escrow.warehouseAddress == _warehouseAddressToVerify, \"CTM: Kho khong khop de hoan tra\");\r\n        require(escrow.amount == _amountToVerify, \"CTM: So tien khong khop de hoan tra\");\r\n\r\n        escrow.active = false;\r\n        // Refund the spending amount back to the period's allowance\r\n        warehouseSpendingThisPeriod[escrow.warehouseAddress] -= escrow.amount;\r\n        emit EscrowRefunded(_internalSupplierOrderId, escrow.warehouseAddress, escrow.amount);\r\n        return true;\r\n    }\r\n\r\n    // --- CUSTOMER REFUND (Called by CustomerOrderManagement) ---\r\n    function refundCustomerOrderFromTreasury(\r\n        uint256 _orderId,\r\n        address payable _customerAddress,\r\n        uint256 _amountToRefund\r\n    )\r\n        external\r\n        nonReentrant\r\n    {\r\n        require(msg.sender == customerOrderManagementAddress, \"CTM: Chi COM moi duoc yeu cau hoan tien nay\");\r\n        require(_customerAddress != address(0), \"CTM: Dia chi khach hang khong hop le de hoan tien\");\r\n        require(_amountToRefund > 0, \"CTM: So tien hoan phai lon hon 0\");\r\n        require(address(this).balance >= _amountToRefund, \"CTM: Ngan quy khong du tien de hoan\");\r\n\r\n        (bool success, ) = _customerAddress.call{value: _amountToRefund}(\"\");\r\n        require(success, \"CTM: Hoan tien cho khach tu ngan quy that bai\");\r\n\r\n        emit CustomerRefundProcessedFromTreasury(_orderId, _customerAddress, _amountToRefund);\r\n    }\r\n\r\n    // --- BOARD MEMBER CONTRIBUTION (Called directly by board candidates) ---\r\n    function receiveBoardMemberContribution() external payable nonReentrant {\r\n        address candidate = msg.sender;\r\n        uint256 amountContributed = msg.value;\r\n\r\n        require(roleManagementFullAddress != address(0), \"CTM: Dia chi RoleManagement day du chua duoc thiet lap\");\r\n\r\n        // Use IRoleManagement from Interfaces.sol\r\n        uint256 proposedCapital = IRoleManagement(roleManagementFullAddress).getProposedShareCapital(candidate);\r\n\r\n        require(proposedCapital > 0, \"CTM: Khong co de xuat von cho ung vien nay hoac RoleManagement chua san sang\");\r\n        require(amountContributed == proposedCapital, \"CTM: So tien gop khong dung voi de xuat von\");\r\n\r\n        // Ether is already in this contract's balance due to `payable`\r\n        emit BoardMemberContributionReceived(candidate, amountContributed);\r\n\r\n        // Call back to RoleManagement to activate the member\r\n        IRoleManagement(roleManagementFullAddress).activateBoardMemberByTreasury(candidate, amountContributed);\r\n    }\r\n\r\n    // --- VIEW FUNCTIONS ---\r\n    function getBalance() external view returns (uint256) {\r\n        return address(this).balance;\r\n    }\r\n\r\n    function getWarehouseSpendingPolicy(address _warehouseAddress, address _supplierAddress) external view returns (uint256) {\r\n        return warehouseSpendingPolicies[_warehouseAddress][_supplierAddress];\r\n    }\r\n\r\n    function getWarehouseSpendingThisPeriod(address _warehouseAddress) external view returns (uint256) {\r\n        return warehouseSpendingThisPeriod[_warehouseAddress];\r\n    }\r\n\r\n    function getEscrowDetails(string calldata _internalSupplierOrderId) external view returns (EscrowDetails memory) {\r\n        return activeEscrows[_internalSupplierOrderId];\r\n    }\r\n\r\n    // --- CONSTANT GETTERS (useful for front-end or other contracts to know limits) ---\r\n    function WAREHOUSE_SPENDING_LIMIT_PER_PERIOD_CONST() external pure returns (uint256) {\r\n        return WAREHOUSE_SPENDING_LIMIT_PER_PERIOD;\r\n    }\r\n    function INTERNAL_ROLE_TOP_UP_THRESHOLD_CONST() external pure returns (uint256) {\r\n        return INTERNAL_ROLE_TOP_UP_THRESHOLD;\r\n    }\r\n    function INTERNAL_ROLE_TOP_UP_AMOUNT_CONST() external pure returns (uint256) {\r\n        return INTERNAL_ROLE_TOP_UP_AMOUNT;\r\n    }\r\n}",
  "sourcePath": "D:\\nhi\\Logtech\\New tech in Log\\dapp2\\SC\\contracts\\CompanyTreasuryManager.sol",
  "compiler": {
    "name": "solc",
    "version": "0.8.4+commit.c7e474f2.Emscripten.clang"
  },
  "schemaVersion": "3.4.16",
  "updatedAt": "2025-06-02T14:38:40.241Z",
  "devdoc": {
    "kind": "dev",
    "methods": {
      "owner()": {
        "details": "Returns the address of the current owner."
      },
      "renounceOwnership()": {
        "details": "Leaves the contract without owner. It will not be possible to call `onlyOwner` functions anymore. Can only be called by the current owner. NOTE: Renouncing ownership will leave the contract without an owner, thereby removing any functionality that is only available to the owner."
      },
      "transferOwnership(address)": {
        "details": "Transfers ownership of the contract to a new account (`newOwner`). Can only be called by the current owner."
      }
    },
    "version": 1
  },
  "userdoc": {
    "kind": "user",
    "methods": {},
    "version": 1
  }
}