{
  "contractName": "CompanyTreasuryManager",
  "abi": [
    {
      "inputs": [
        {
          "internalType": "address",
          "name": "_roleManagementAddress",
          "type": "address"
        },
        {
          "internalType": "address",
          "name": "_itemsManagementCoreAddress",
          "type": "address"
        },
        {
          "internalType": "uint256",
          "name": "_expectedInitialCapital",
          "type": "uint256"
        }
      ],
      "stateMutability": "payable",
      "type": "constructor",
      "payable": true
    },
    {
      "anonymous": false,
      "inputs": [
        {
          "indexed": true,
          "internalType": "address",
          "name": "candidate",
          "type": "address"
        },
        {
          "indexed": false,
          "internalType": "uint256",
          "name": "amount",
          "type": "uint256"
        }
      ],
      "name": "BoardMemberContributionReceived",
      "type": "event"
    },
    {
      "anonymous": false,
      "inputs": [
        {
          "indexed": true,
          "internalType": "address",
          "name": "comAddress",
          "type": "address"
        }
      ],
      "name": "CustomerOrderManagementAddressSet",
      "type": "event"
    },
    {
      "anonymous": false,
      "inputs": [
        {
          "indexed": true,
          "internalType": "uint256",
          "name": "orderId",
          "type": "uint256"
        },
        {
          "indexed": true,
          "internalType": "address",
          "name": "customer",
          "type": "address"
        },
        {
          "indexed": false,
          "internalType": "uint256",
          "name": "amount",
          "type": "uint256"
        }
      ],
      "name": "CustomerRefundProcessedFromTreasury",
      "type": "event"
    },
    {
      "anonymous": false,
      "inputs": [
        {
          "indexed": false,
          "internalType": "string",
          "name": "internalOrderId",
          "type": "string"
        },
        {
          "indexed": true,
          "internalType": "address",
          "name": "warehouse",
          "type": "address"
        },
        {
          "indexed": false,
          "internalType": "uint256",
          "name": "amount",
          "type": "uint256"
        }
      ],
      "name": "EscrowRefunded",
      "type": "event"
    },
    {
      "anonymous": false,
      "inputs": [
        {
          "indexed": true,
          "internalType": "address",
          "name": "newDirector",
          "type": "address"
        }
      ],
      "name": "FinanceDirectorSet",
      "type": "event"
    },
    {
      "anonymous": false,
      "inputs": [
        {
          "indexed": true,
          "internalType": "address",
          "name": "from",
          "type": "address"
        },
        {
          "indexed": false,
          "internalType": "uint256",
          "name": "amount",
          "type": "uint256"
        }
      ],
      "name": "FundsDeposited",
      "type": "event"
    },
    {
      "anonymous": false,
      "inputs": [
        {
          "indexed": true,
          "internalType": "address",
          "name": "by",
          "type": "address"
        },
        {
          "indexed": true,
          "internalType": "address",
          "name": "recipient",
          "type": "address"
        },
        {
          "indexed": false,
          "internalType": "uint256",
          "name": "amount",
          "type": "uint256"
        },
        {
          "indexed": false,
          "internalType": "string",
          "name": "reason",
          "type": "string"
        }
      ],
      "name": "GeneralWithdrawal",
      "type": "event"
    },
    {
      "anonymous": false,
      "inputs": [
        {
          "indexed": false,
          "internalType": "uint256",
          "name": "amount",
          "type": "uint256"
        }
      ],
      "name": "InitialCapitalReceived",
      "type": "event"
    },
    {
      "anonymous": false,
      "inputs": [
        {
          "indexed": true,
          "internalType": "address",
          "name": "by",
          "type": "address"
        },
        {
          "indexed": true,
          "internalType": "address",
          "name": "toRoleHolder",
          "type": "address"
        },
        {
          "indexed": false,
          "internalType": "uint256",
          "name": "amount",
          "type": "uint256"
        }
      ],
      "name": "InternalTransfer",
      "type": "event"
    },
    {
      "anonymous": false,
      "inputs": [
        {
          "indexed": true,
          "internalType": "address",
          "name": "previousOwner",
          "type": "address"
        },
        {
          "indexed": true,
          "internalType": "address",
          "name": "newOwner",
          "type": "address"
        }
      ],
      "name": "OwnershipTransferred",
      "type": "event"
    },
    {
      "anonymous": false,
      "inputs": [
        {
          "indexed": true,
          "internalType": "address",
          "name": "rmFullAddress",
          "type": "address"
        }
      ],
      "name": "RoleManagementFullAddressSet",
      "type": "event"
    },
    {
      "anonymous": false,
      "inputs": [
        {
          "indexed": true,
          "internalType": "address",
          "name": "setBy",
          "type": "address"
        },
        {
          "indexed": true,
          "internalType": "address",
          "name": "warehouse",
          "type": "address"
        },
        {
          "indexed": true,
          "internalType": "address",
          "name": "supplier",
          "type": "address"
        },
        {
          "indexed": false,
          "internalType": "uint256",
          "name": "maxAmount",
          "type": "uint256"
        }
      ],
      "name": "SpendingPolicySet",
      "type": "event"
    },
    {
      "anonymous": false,
      "inputs": [
        {
          "indexed": false,
          "internalType": "string",
          "name": "internalOrderId",
          "type": "string"
        },
        {
          "indexed": true,
          "internalType": "address",
          "name": "warehouse",
          "type": "address"
        },
        {
          "indexed": true,
          "internalType": "address",
          "name": "supplier",
          "type": "address"
        },
        {
          "indexed": false,
          "internalType": "uint256",
          "name": "amount",
          "type": "uint256"
        }
      ],
      "name": "SupplierPaymentEscrowed",
      "type": "event"
    },
    {
      "anonymous": false,
      "inputs": [
        {
          "indexed": false,
          "internalType": "string",
          "name": "internalOrderId",
          "type": "string"
        },
        {
          "indexed": true,
          "internalType": "address",
          "name": "supplier",
          "type": "address"
        },
        {
          "indexed": false,
          "internalType": "uint256",
          "name": "amount",
          "type": "uint256"
        }
      ],
      "name": "SupplierPaymentReleased",
      "type": "event"
    },
    {
      "anonymous": false,
      "inputs": [
        {
          "indexed": true,
          "internalType": "address",
          "name": "wsomAddress",
          "type": "address"
        }
      ],
      "name": "WarehouseSupplierOrderManagementAddressSet",
      "type": "event"
    },
    {
      "inputs": [],
      "name": "INTERNAL_ROLE_TOP_UP_AMOUNT",
      "outputs": [
        {
          "internalType": "uint256",
          "name": "",
          "type": "uint256"
        }
      ],
      "stateMutability": "view",
      "type": "function",
      "constant": true
    },
    {
      "inputs": [],
      "name": "INTERNAL_ROLE_TOP_UP_THRESHOLD",
      "outputs": [
        {
          "internalType": "uint256",
          "name": "",
          "type": "uint256"
        }
      ],
      "stateMutability": "view",
      "type": "function",
      "constant": true
    },
    {
      "inputs": [],
      "name": "WAREHOUSE_SPENDING_LIMIT_PER_PERIOD",
      "outputs": [
        {
          "internalType": "uint256",
          "name": "",
          "type": "uint256"
        }
      ],
      "stateMutability": "view",
      "type": "function",
      "constant": true
    },
    {
      "inputs": [
        {
          "internalType": "string",
          "name": "",
          "type": "string"
        }
      ],
      "name": "activeEscrows",
      "outputs": [
        {
          "internalType": "address",
          "name": "warehouseAddress",
          "type": "address"
        },
        {
          "internalType": "address",
          "name": "supplierAddress",
          "type": "address"
        },
        {
          "internalType": "uint256",
          "name": "amount",
          "type": "uint256"
        },
        {
          "internalType": "bool",
          "name": "active",
          "type": "bool"
        }
      ],
      "stateMutability": "view",
      "type": "function",
      "constant": true
    },
    {
      "inputs": [],
      "name": "customerOrderManagementAddress",
      "outputs": [
        {
          "internalType": "address",
          "name": "",
          "type": "address"
        }
      ],
      "stateMutability": "view",
      "type": "function",
      "constant": true
    },
    {
      "inputs": [],
      "name": "financeDirector",
      "outputs": [
        {
          "internalType": "address",
          "name": "",
          "type": "address"
        }
      ],
      "stateMutability": "view",
      "type": "function",
      "constant": true
    },
    {
      "inputs": [],
      "name": "itemsManagementCore",
      "outputs": [
        {
          "internalType": "contract IItemsManagementCoreInterface",
          "name": "",
          "type": "address"
        }
      ],
      "stateMutability": "view",
      "type": "function",
      "constant": true
    },
    {
      "inputs": [],
      "name": "owner",
      "outputs": [
        {
          "internalType": "address",
          "name": "",
          "type": "address"
        }
      ],
      "stateMutability": "view",
      "type": "function",
      "constant": true
    },
    {
      "inputs": [],
      "name": "renounceOwnership",
      "outputs": [],
      "stateMutability": "nonpayable",
      "type": "function"
    },
    {
      "inputs": [],
      "name": "roleManagement",
      "outputs": [
        {
          "internalType": "contract IRoleManagement",
          "name": "",
          "type": "address"
        }
      ],
      "stateMutability": "view",
      "type": "function",
      "constant": true
    },
    {
      "inputs": [],
      "name": "roleManagementFullAddress",
      "outputs": [
        {
          "internalType": "address",
          "name": "",
          "type": "address"
        }
      ],
      "stateMutability": "view",
      "type": "function",
      "constant": true
    },
    {
      "inputs": [
        {
          "internalType": "address",
          "name": "newOwner",
          "type": "address"
        }
      ],
      "name": "transferOwnership",
      "outputs": [],
      "stateMutability": "nonpayable",
      "type": "function"
    },
    {
      "inputs": [
        {
          "internalType": "address",
          "name": "",
          "type": "address"
        },
        {
          "internalType": "address",
          "name": "",
          "type": "address"
        }
      ],
      "name": "warehouseSpendingPolicies",
      "outputs": [
        {
          "internalType": "uint256",
          "name": "",
          "type": "uint256"
        }
      ],
      "stateMutability": "view",
      "type": "function",
      "constant": true
    },
    {
      "inputs": [
        {
          "internalType": "address",
          "name": "",
          "type": "address"
        }
      ],
      "name": "warehouseSpendingThisPeriod",
      "outputs": [
        {
          "internalType": "uint256",
          "name": "",
          "type": "uint256"
        }
      ],
      "stateMutability": "view",
      "type": "function",
      "constant": true
    },
    {
      "inputs": [],
      "name": "warehouseSupplierOrderManagement",
      "outputs": [
        {
          "internalType": "address",
          "name": "",
          "type": "address"
        }
      ],
      "stateMutability": "view",
      "type": "function",
      "constant": true
    },
    {
      "stateMutability": "payable",
      "type": "receive",
      "payable": true
    },
    {
      "inputs": [
        {
          "internalType": "address",
          "name": "_wsomAddress",
          "type": "address"
        }
      ],
      "name": "setWarehouseSupplierOrderManagementAddress",
      "outputs": [],
      "stateMutability": "nonpayable",
      "type": "function"
    },
    {
      "inputs": [
        {
          "internalType": "address",
          "name": "_comAddress",
          "type": "address"
        }
      ],
      "name": "setCustomerOrderManagementAddress",
      "outputs": [],
      "stateMutability": "nonpayable",
      "type": "function"
    },
    {
      "inputs": [
        {
          "internalType": "address",
          "name": "_director",
          "type": "address"
        }
      ],
      "name": "setInitialFinanceDirector",
      "outputs": [],
      "stateMutability": "nonpayable",
      "type": "function"
    },
    {
      "inputs": [
        {
          "internalType": "address",
          "name": "_roleHolderAddress",
          "type": "address"
        },
        {
          "internalType": "bytes32",
          "name": "_roleKey",
          "type": "bytes32"
        }
      ],
      "name": "transferToInternalRole",
      "outputs": [],
      "stateMutability": "nonpayable",
      "type": "function"
    },
    {
      "inputs": [
        {
          "internalType": "address",
          "name": "_warehouseAddress",
          "type": "address"
        },
        {
          "internalType": "address",
          "name": "_supplierAddress",
          "type": "address"
        },
        {
          "internalType": "uint256",
          "name": "_maxAmountPerOrder",
          "type": "uint256"
        }
      ],
      "name": "setWarehouseSpendingPolicy",
      "outputs": [],
      "stateMutability": "nonpayable",
      "type": "function"
    },
    {
      "inputs": [
        {
          "internalType": "address payable",
          "name": "_recipient",
          "type": "address"
        },
        {
          "internalType": "uint256",
          "name": "_amount",
          "type": "uint256"
        },
        {
          "internalType": "string",
          "name": "_reason",
          "type": "string"
        }
      ],
      "name": "generalWithdrawal",
      "outputs": [],
      "stateMutability": "nonpayable",
      "type": "function"
    },
    {
      "inputs": [
        {
          "internalType": "address",
          "name": "_newDirector",
          "type": "address"
        }
      ],
      "name": "changeFinanceDirector",
      "outputs": [],
      "stateMutability": "nonpayable",
      "type": "function"
    },
    {
      "inputs": [
        {
          "internalType": "address",
          "name": "_warehouseAddress",
          "type": "address"
        },
        {
          "internalType": "address",
          "name": "_supplierAddress",
          "type": "address"
        },
        {
          "internalType": "string",
          "name": "_internalSupplierOrderId",
          "type": "string"
        },
        {
          "internalType": "uint256",
          "name": "_amount",
          "type": "uint256"
        }
      ],
      "name": "requestEscrowForSupplierOrder",
      "outputs": [
        {
          "internalType": "bool",
          "name": "",
          "type": "bool"
        }
      ],
      "stateMutability": "nonpayable",
      "type": "function"
    },
    {
      "inputs": [
        {
          "internalType": "address",
          "name": "_supplierAddressToVerify",
          "type": "address"
        },
        {
          "internalType": "string",
          "name": "_internalSupplierOrderId",
          "type": "string"
        },
        {
          "internalType": "uint256",
          "name": "_amountToVerify",
          "type": "uint256"
        }
      ],
      "name": "releaseEscrowToSupplier",
      "outputs": [
        {
          "internalType": "bool",
          "name": "",
          "type": "bool"
        }
      ],
      "stateMutability": "nonpayable",
      "type": "function"
    },
    {
      "inputs": [
        {
          "internalType": "address",
          "name": "_warehouseAddressToVerify",
          "type": "address"
        },
        {
          "internalType": "string",
          "name": "_internalSupplierOrderId",
          "type": "string"
        },
        {
          "internalType": "uint256",
          "name": "_amountToVerify",
          "type": "uint256"
        }
      ],
      "name": "refundEscrowToTreasury",
      "outputs": [
        {
          "internalType": "bool",
          "name": "",
          "type": "bool"
        }
      ],
      "stateMutability": "nonpayable",
      "type": "function"
    },
    {
      "inputs": [
        {
          "internalType": "uint256",
          "name": "_orderId",
          "type": "uint256"
        },
        {
          "internalType": "address payable",
          "name": "_customerAddress",
          "type": "address"
        },
        {
          "internalType": "uint256",
          "name": "_amountToRefund",
          "type": "uint256"
        }
      ],
      "name": "refundCustomerOrderFromTreasury",
      "outputs": [],
      "stateMutability": "nonpayable",
      "type": "function"
    },
    {
      "inputs": [],
      "name": "receiveBoardMemberContribution",
      "outputs": [],
      "stateMutability": "payable",
      "type": "function",
      "payable": true
    },
    {
      "inputs": [],
      "name": "getBalance",
      "outputs": [
        {
          "internalType": "uint256",
          "name": "",
          "type": "uint256"
        }
      ],
      "stateMutability": "view",
      "type": "function",
      "constant": true
    },
    {
      "inputs": [
        {
          "internalType": "address",
          "name": "_warehouseAddress",
          "type": "address"
        },
        {
          "internalType": "address",
          "name": "_supplierAddress",
          "type": "address"
        }
      ],
      "name": "getWarehouseSpendingPolicy",
      "outputs": [
        {
          "internalType": "uint256",
          "name": "",
          "type": "uint256"
        }
      ],
      "stateMutability": "view",
      "type": "function",
      "constant": true
    },
    {
      "inputs": [
        {
          "internalType": "address",
          "name": "_warehouseAddress",
          "type": "address"
        }
      ],
      "name": "getWarehouseSpendingThisPeriod",
      "outputs": [
        {
          "internalType": "uint256",
          "name": "",
          "type": "uint256"
        }
      ],
      "stateMutability": "view",
      "type": "function",
      "constant": true
    },
    {
      "inputs": [
        {
          "internalType": "string",
          "name": "_internalSupplierOrderId",
          "type": "string"
        }
      ],
      "name": "getEscrowDetails",
      "outputs": [
        {
          "components": [
            {
              "internalType": "address",
              "name": "warehouseAddress",
              "type": "address"
            },
            {
              "internalType": "address",
              "name": "supplierAddress",
              "type": "address"
            },
            {
              "internalType": "uint256",
              "name": "amount",
              "type": "uint256"
            },
            {
              "internalType": "bool",
              "name": "active",
              "type": "bool"
            }
          ],
          "internalType": "struct CompanyTreasuryManager.EscrowDetails",
          "name": "",
          "type": "tuple"
        }
      ],
      "stateMutability": "view",
      "type": "function",
      "constant": true
    },
    {
      "inputs": [],
      "name": "WAREHOUSE_SPENDING_LIMIT_PER_PERIOD_CONST",
      "outputs": [
        {
          "internalType": "uint256",
          "name": "",
          "type": "uint256"
        }
      ],
      "stateMutability": "pure",
      "type": "function",
      "constant": true
    },
    {
      "inputs": [],
      "name": "INTERNAL_ROLE_TOP_UP_THRESHOLD_CONST",
      "outputs": [
        {
          "internalType": "uint256",
          "name": "",
          "type": "uint256"
        }
      ],
      "stateMutability": "pure",
      "type": "function",
      "constant": true
    },
    {
      "inputs": [],
      "name": "INTERNAL_ROLE_TOP_UP_AMOUNT_CONST",
      "outputs": [
        {
          "internalType": "uint256",
          "name": "",
          "type": "uint256"
        }
      ],
      "stateMutability": "pure",
      "type": "function",
      "constant": true
    }
  ],
  "bytecode": "0x60c060405260405162003772380380620037728339810160408190526200002691620002b8565b600080546001600160a01b031916339081178255604051909182917f8be0079c531659141344cd1fd0a4f28419497f9722a3daafe3b4186f6b6457e0908290a350600180556001600160a01b038316620000d85760405162461bcd60e51b815260206004820152602860248201527f43544d3a204469612063686920526f6c654d616e6167656d656e74206b686f6e6044820152676720686f70206c6560c01b60648201526084015b60405180910390fd5b6001600160a01b038216620001465760405162461bcd60e51b815260206004820152602d60248201527f43544d3a2044696120636869204974656d734d616e6167656d656e74436f726560448201526c206b686f6e6720686f70206c6560981b6064820152608401620000cf565b6001600160601b0319606084811b821660805283901b1660a052600280546001600160a01b0319166001600160a01b03851617905580156200021c57803414620001e35760405162461bcd60e51b815260206004820152602760248201527f43544d3a20536f20766f6e2062616e2064617520677569206b686f6e67206368604482015266696e682078616360c81b6064820152608401620000cf565b6040513481527f5a8d86dba9b5978a0cdf6ec0ed77250aa7a80cc0d35f20ff655f42a6c583d4e59060200160405180910390a162000292565b3415620002925760405162461bcd60e51b815260206004820152603560248201527f43544d3a204b686f6e67206e656e20677569204574686572206e657520766f6e60448201527f2062616e20646175206475206b69656e206c61203000000000000000000000006064820152608401620000cf565b505050620002f8565b80516001600160a01b0381168114620002b357600080fd5b919050565b600080600060608486031215620002cd578283fd5b620002d8846200029b565b9250620002e8602085016200029b565b9150604084015190509250925092565b60805160601c60a05160601c6134166200035c60003960008181610264015281816117ca01526118cc0152600081816105b501528181610ca601528181610d4f015281816113960152818161143f01528181612075015261216901526134166000f3fe60806040526004361061018d5760003560e01c806301a2a94e146101ce57806311197b3e146101f057806312065fe0146102105780631c181773146102325780632eb3292f146102525780634eddf3601461029357806351aeb577146102b35780635b5a0859146102e35780636191718c14610303578063626f94d61461031e5780636718b05b1461033e5780636a15d2a21461035e578063715018a61461037e57806371ff198a1461039357806376d22d7e146103b05780637d75cddc146103cc5780637dc161c3146103ec578063895621e1146104245780638b77b9a9146104515780638da5cb5b146104875780638deecc201461049c5780639e70350f14610527578063a22b0f8414610547578063aa9ce11f14610567578063b0cc67e414610587578063b977ba18146105a3578063cffe4f37146105d7578063d505ea1f146105f4578063d5a1223814610610578063daf45d4e14610630578063dc90618214610650578063ef1ac8a9146106b3578063f2fde38b146106f9578063f9510d641461071957600080fd5b366101c95760405134815233907f543ba50a5eec5e6178218e364b1d0f396157b3c8fa278522c2cb7fd99407d4749060200160405180910390a2005b600080fd5b3480156101da57600080fd5b506101ee6101e9366004612c23565b610721565b005b3480156101fc57600080fd5b506101ee61020b366004613059565b610950565b34801561021c57600080fd5b50475b6040519081526020015b60405180910390f35b34801561023e57600080fd5b506101ee61024d366004612c00565b610c09565b34801561025e57600080fd5b506102867f000000000000000000000000000000000000000000000000000000000000000081565b60405161022991906130b8565b34801561029f57600080fd5b50600554610286906001600160a01b031681565b3480156102bf57600080fd5b506102d36102ce366004612d89565b610efb565b6040519015158152602001610229565b3480156102ef57600080fd5b50600354610286906001600160a01b031681565b34801561030f57600080fd5b50674563918244f4000061021f565b34801561032a57600080fd5b506101ee610339366004612c00565b61122e565b34801561034a57600080fd5b50600454610286906001600160a01b031681565b34801561036a57600080fd5b506101ee610379366004612c00565b6112fd565b34801561038a57600080fd5b506101ee6115a3565b34801561039f57600080fd5b5061021f6801158e460913d0000081565b3480156103bc57600080fd5b5061021f674563918244f4000081565b3480156103d857600080fd5b50600254610286906001600160a01b031681565b3480156103f857600080fd5b5061021f610407366004612c7c565b600660209081526000928352604080842090915290825290205481565b34801561043057600080fd5b5061021f61043f366004612c00565b60076020526000908152604090205481565b34801561045d57600080fd5b5061021f61046c366004612c00565b6001600160a01b031660009081526007602052604090205490565b34801561049357600080fd5b5061028661160a565b3480156104a857600080fd5b506104fa6104b7366004612e53565b80518082016020908101805160088252928201919093012091528054600182015460028301546003909301546001600160a01b0392831693919092169160ff1684565b604080516001600160a01b0395861681529490931660208501529183015215156060820152608001610229565b34801561053357600080fd5b506101ee610542366004612c00565b611619565b34801561055357600080fd5b506101ee610562366004612d1e565b6116e8565b34801561057357600080fd5b506102d3610582366004612cb4565b611a3f565b34801561059357600080fd5b506801158e460913d0000061021f565b3480156105af57600080fd5b506102867f000000000000000000000000000000000000000000000000000000000000000081565b3480156105e357600080fd5b5061021f681b1ae4d6e2ef50000081565b34801561060057600080fd5b50681b1ae4d6e2ef50000061021f565b34801561061c57600080fd5b506101ee61062b366004612d5e565b611f9d565b34801561063c57600080fd5b506102d361064b366004612d89565b61241d565b34801561065c57600080fd5b5061067061066b366004612e14565b6126fe565b604051610229919081516001600160a01b039081168252602080840151909116908201526040808301519082015260609182015115159181019190915260800190565b3480156106bf57600080fd5b5061021f6106ce366004612c7c565b6001600160a01b03918216600090815260066020908152604080832093909416825291909152205490565b34801561070557600080fd5b506101ee610714366004612c00565b612787565b6101ee612864565b6005546001600160a01b031633146107545760405162461bcd60e51b815260040161074b90613107565b60405180910390fd5b600260015414156107775760405162461bcd60e51b815260040161074b906131f4565b60026001556001600160a01b0384166107e45760405162461bcd60e51b815260206004820152602960248201527f43544d3a204e67756f69206e68616e206b686f6e6720746865206c612064696160448201526820636869207a65726f60b81b606482015260840161074b565b600083116108345760405162461bcd60e51b815260206004820152601d60248201527f43544d3a20536f207469656e2070686169206c6120736f2064756f6e67000000604482015260640161074b565b824710156108545760405162461bcd60e51b815260040161074b9061318a565b6000846001600160a01b03168460405160006040518083038185875af1925050503d80600081146108a1576040519150601f19603f3d011682016040523d82523d6000602084013e6108a6565b606091505b50509050806108f65760405162461bcd60e51b815260206004820152601c60248201527b43544d3a20527574207469656e206368756e6720746861742062616960201b604482015260640161074b565b846001600160a01b0316336001600160a01b03167f551cda44af45f8ecc2ee4fc9d36201c3e1269e76d0a188c66adcc131b7b1ec6086868660405161093d9392919061322b565b60405180910390a3505060018055505050565b600260015414156109735760405162461bcd60e51b815260040161074b906131f4565b60026001556004546001600160a01b031633146109e65760405162461bcd60e51b815260206004820152602b60248201527f43544d3a2043686920434f4d206d6f692064756f63207965752063617520686f60448201526a616e207469656e206e617960a81b606482015260840161074b565b6001600160a01b038216610a565760405162461bcd60e51b815260206004820152603160248201527f43544d3a2044696120636869206b686163682068616e67206b686f6e6720686f60448201527038103632903232903437b0b7103a34b2b760791b606482015260840161074b565b60008111610aa65760405162461bcd60e51b815260206004820181905260248201527f43544d3a20536f207469656e20686f616e2070686169206c6f6e20686f6e2030604482015260640161074b565b80471015610b025760405162461bcd60e51b815260206004820152602360248201527f43544d3a204e67616e20717579206b686f6e67206475207469656e206465206860448201526237b0b760e91b606482015260840161074b565b6000826001600160a01b03168260405160006040518083038185875af1925050503d8060008114610b4f576040519150601f19603f3d011682016040523d82523d6000602084013e610b54565b606091505b5050905080610bbb5760405162461bcd60e51b815260206004820152602d60248201527f43544d3a20486f616e207469656e2063686f206b68616368207475206e67616e60448201526c2071757920746861742062616960981b606482015260840161074b565b826001600160a01b0316847fc12d6ca8c39120133bdb248b7f11862fe29cf43ea3c09abd5fb7594d59da35da84604051610bf791815260200190565b60405180910390a35050600180555050565b33610c1261160a565b6001600160a01b031614610c385760405162461bcd60e51b815260040161074b906131bf565b6001600160a01b038116610ca25760405162461bcd60e51b815260206004820152602b60248201527f43544d3a204769616d20646f63206d6f69206b686f6e6720746865206c61206460448201526a696120636869207a65726f60a81b606482015260840161074b565b60007f00000000000000000000000000000000000000000000000000000000000000006001600160a01b0316638b94a8e26040518163ffffffff1660e01b815260040160206040518083038186803b158015610cfd57600080fd5b505afa158015610d11573d6000803e3d6000fd5b505050506040513d601f19601f82011682018060405250810190610d359190612dfc565b604051632474521560e21b81529091506001600160a01b037f000000000000000000000000000000000000000000000000000000000000000016906391d1485490610d8690849086906004016130cc565b60206040518083038186803b158015610d9e57600080fd5b505afa158015610db2573d6000803e3d6000fd5b505050506040513d601f19601f82011682018060405250810190610dd69190612de2565b610e3c5760405162461bcd60e51b815260206004820152603160248201527f43544d3a204769616d20646f63206d6f69207468696575207661692074726f2060448201527046494e5f4449524543544f525f524f4c4560781b606482015260840161074b565b6005546001600160a01b0383811691161415610eb05760405162461bcd60e51b815260206004820152602d60248201527f43544d3a204769616d20646f63206d6f69207472756e6720766f69206769616d60448201526c20646f63206869656e2074616960981b606482015260840161074b565b600580546001600160a01b0319166001600160a01b0384169081179091556040517fefdd118ca7d5b7a6f2ba4688dbbfc422f9e0a98948ef0a0b17da8b1d3200a76d90600090a25050565b600060026001541415610f205760405162461bcd60e51b815260040161074b906131f4565b60026001556003546001600160a01b03163314610f4f5760405162461bcd60e51b815260040161074b90613153565b6001600160a01b038516610fab5760405162461bcd60e51b815260206004820152602f60248201526000805160206133c183398151915260448201526e39379032329033b4b0b4903733b0b760891b606482015260840161074b565b82610ffc5760405162461bcd60e51b815260206004820152602d60248201526000805160206133a183398151915260448201526c1032329033b4b0b4903733b0b760991b606482015260840161074b565b6000600885856040516110109291906130a8565b908152604051908190036020019020600381015490915060ff166110895760405162461bcd60e51b815260206004820152603c602482015260008051602061338183398151915260448201527b1035b437b733903a34b6903a3430bc9032329033b4b0b4903733b0b760211b606482015260840161074b565b60018101546001600160a01b038781169116146110e85760405162461bcd60e51b815260206004820181905260248201527f43544d3a204e4343206b686f6e67206b686f702064652067696169206e67616e604482015260640161074b565b828160020154146111475760405162461bcd60e51b8152602060048201526024808201527f43544d3a20536f207469656e206b686f6e67206b686f702064652067696169206044820152633733b0b760e11b606482015260840161074b565b60038101805460ff19169055600181015460028201546040516000926001600160a01b031691908381818185875af1925050503d80600081146111a6576040519150601f19603f3d011682016040523d82523d6000602084013e6111ab565b606091505b50509050806111cb5750600301805460ff19166001179055506000611222565b600182015460028301546040516001600160a01b03909216917f887f535c60243445802f8a07b39ad62c28b084f008cc72080bc9776a6bdec58591611213918a918a916130e3565b60405180910390a26001925050505b60018055949350505050565b3361123761160a565b6001600160a01b03161461125d5760405162461bcd60e51b815260040161074b906131bf565b6001600160a01b0381166112b35760405162461bcd60e51b815260206004820152601d60248201527f43544d3a204469612063686920434f4d206b686f6e6720686f70206c65000000604482015260640161074b565b600480546001600160a01b0319166001600160a01b0383169081179091556040517ff60a7d245ccf77dd2036da1a1ad14a8c5dba1a9ccc98b56d0ad004b140c9472390600090a250565b3361130661160a565b6001600160a01b03161461132c5760405162461bcd60e51b815260040161074b906131bf565b6001600160a01b0381166113925760405162461bcd60e51b815260206004820152602760248201527f43544d3a2044696120636869204769616d20646f63206b686f6e6720746865206044820152666c61207a65726f60c81b606482015260840161074b565b60007f00000000000000000000000000000000000000000000000000000000000000006001600160a01b0316638b94a8e26040518163ffffffff1660e01b815260040160206040518083038186803b1580156113ed57600080fd5b505afa158015611401573d6000803e3d6000fd5b505050506040513d601f19601f820116820180604052508101906114259190612dfc565b604051632474521560e21b81529091506001600160a01b037f000000000000000000000000000000000000000000000000000000000000000016906391d148549061147690849086906004016130cc565b60206040518083038186803b15801561148e57600080fd5b505afa1580156114a2573d6000803e3d6000fd5b505050506040513d601f19601f820116820180604052508101906114c69190612de2565b6115305760405162461bcd60e51b815260206004820152603560248201527f43544d3a20446961206368692064756f632067616e207468696575207661692060448201527474726f2046494e5f4449524543544f525f524f4c4560581b606482015260840161074b565b6005546001600160a01b031615610eb05760405162461bcd60e51b815260206004820152603160248201527f43544d3a204769616d20646f6320546169206368696e682062616e2064617520604482015270064612064756f63207468696574206c617607c1b606482015260840161074b565b336115ac61160a565b6001600160a01b0316146115d25760405162461bcd60e51b815260040161074b906131bf565b600080546040516001600160a01b0390911690600080516020613361833981519152908390a3600080546001600160a01b0319169055565b6000546001600160a01b031690565b3361162261160a565b6001600160a01b0316146116485760405162461bcd60e51b815260040161074b906131bf565b6001600160a01b03811661169e5760405162461bcd60e51b815260206004820152601e60248201527f43544d3a20446961206368692057534f4d206b686f6e6720686f70206c650000604482015260640161074b565b600380546001600160a01b0319166001600160a01b0383169081179091556040517fcb36ba9fb6b00797b047f7ee0bd8a7a2e9035de6fdcb2cd93c50aaa91d2c1bbc90600090a250565b6005546001600160a01b031633146117125760405162461bcd60e51b815260040161074b90613107565b6001600160a01b0383166117615760405162461bcd60e51b81526020600482015260226024820152600080516020613341833981519152604482015261726f60f01b606482015260840161074b565b6001600160a01b0382166117b05760405162461bcd60e51b815260206004820152602260248201526000805160206133c1833981519152604482015261726f60f01b606482015260840161074b565b604051637160572b60e01b81526000906001600160a01b037f00000000000000000000000000000000000000000000000000000000000000001690637160572b906117ff9087906004016130b8565b60006040518083038186803b15801561181757600080fd5b505afa15801561182b573d6000803e3d6000fd5b505050506040513d6000823e601f3d908101601f191682016040526118539190810190612ec6565b905080608001516118b25760405162461bcd60e51b815260206004820152602360248201527f43544d3a204b686f206b686f6e6720746f6e207461692074726f6e6720494d436044820152626f726560e81b606482015260840161074b565b604051631650d7c160e21b81526000906001600160a01b037f000000000000000000000000000000000000000000000000000000000000000016906359435f04906119019087906004016130b8565b60006040518083038186803b15801561191957600080fd5b505afa15801561192d573d6000803e3d6000fd5b505050506040513d6000823e601f3d908101601f191682016040526119559190810190612fa6565b905080606001518015611969575080604001515b6119da5760405162461bcd60e51b815260206004820152603c60248201527f43544d3a204e4343206b686f6e6720746f6e2074616920686f6163206368756160448201527b2064756f63207068652064757965742074726f6e6720494d436f726560201b606482015260840161074b565b6001600160a01b03858116600081815260066020908152604080832094891680845294825291829020879055905186815233917ffcbafc2c7d8791bb6ad7ee03317625c081371655d277ef5abf133add155be5f1910160405180910390a45050505050565b600060026001541415611a645760405162461bcd60e51b815260040161074b906131f4565b60026001556003546001600160a01b03163314611a935760405162461bcd60e51b815260040161074b90613153565b6001600160a01b038616611afb5760405162461bcd60e51b815260206004820152602960248201527f43544d3a2044696120636869206b686f206b7920717579206b686f6e6720746860448201526865206c61207a65726f60b81b606482015260840161074b565b6001600160a01b038516611b635760405162461bcd60e51b815260206004820152602960248201527f43544d3a2044696120636869204e4343206b7920717579206b686f6e6720746860448201526865206c61207a65726f60b81b606482015260840161074b565b82611bc05760405162461bcd60e51b815260206004820152602760248201527f43544d3a20494420646f6e2068616e67206b7920717579206b686f6e672064756044820152666f6320726f6e6760c81b606482015260840161074b565b60008211611c1c5760405162461bcd60e51b8152602060048201526024808201527f43544d3a20536f207469656e206b79207175792070686169206c6120736f2064604482015263756f6e6760e01b606482015260840161074b565b60088484604051611c2e9291906130a8565b9081526040519081900360200190206003015460ff1615611ca75760405162461bcd60e51b815260206004820152602d60248201527f43544d3a204944206b7920717579206461206b69636820686f617420686f616360448201526c206b686f6e6720686f70206c6560981b606482015260840161074b565b6001600160a01b0380871660009081526006602090815260408083209389168352929052205480611d345760405162461bcd60e51b815260206004820152603160248201527f43544d3a204b686f6e6720636f206368696e6820736163682063686920746965604482015270752063686f206b686f2f6e6363206e617960781b606482015260840161074b565b80831115611da35760405162461bcd60e51b815260206004820152603660248201527f43544d3a20536f207469656e2076756f74207175612067696f692068616e206360448201527568696e682073616368206d6f6920646f6e2068616e6760501b606482015260840161074b565b6001600160a01b038716600090815260076020526040812054611dc79085906132cd565b9050681b1ae4d6e2ef500000811115611e3a5760405162461bcd60e51b815260206004820152602f60248201527f43544d3a2056756f74207175612067696f692068616e2063686920746965752060448201526e64696e68206b7920637561206b686f60881b606482015260840161074b565b83471015611e985760405162461bcd60e51b815260206004820152602560248201527f43544d3a204e67616e20717579206b686f6e67206475207469656e206465206b604482015264792071757960d81b606482015260840161074b565b604080516080810182526001600160a01b03808b16825289166020820152808201869052600160608201529051600890611ed590899089906130a8565b9081526040805160209281900383018120845181546001600160a01b03199081166001600160a01b03928316178355868601516001840180549092169083161790558584015160028301556060909501516003909101805460ff19169115159190911790558b8416600081815260079094529190922084905591891691907f8832efea4e13c2ed683f9c0908aba7265d18c42517933ebeea3b4d9092f3655b90611f84908a908a908a906130e3565b60405180910390a3505060018080559695505050505050565b6005546001600160a01b03163314611fc75760405162461bcd60e51b815260040161074b90613107565b60026001541415611fea5760405162461bcd60e51b815260040161074b906131f4565b60026001556001600160a01b03821661205e5760405162461bcd60e51b815260206004820152603060248201527f43544d3a2044696120636869206e67756f6920676975207661692074726f206b60448201526f686f6e6720746865206c61207a65726f60801b606482015260840161074b565b604051632474521560e21b81526001600160a01b037f000000000000000000000000000000000000000000000000000000000000000016906391d14854906120ac90849086906004016130cc565b60206040518083038186803b1580156120c457600080fd5b505afa1580156120d8573d6000803e3d6000fd5b505050506040513d601f19601f820116820180604052508101906120fc9190612de2565b6121655760405162461bcd60e51b815260206004820152603460248201527f43544d3a2044696120636869206d75632074696575206b686f6e6720636f20766044820152730c2d240e8e4de40c8eadec640c6d0d240c8d2dcd60631b606482015260840161074b565b60007f00000000000000000000000000000000000000000000000000000000000000006001600160a01b0316638b94a8e26040518163ffffffff1660e01b815260040160206040518083038186803b1580156121c057600080fd5b505afa1580156121d4573d6000803e3d6000fd5b505050506040513d601f19601f820116820180604052508101906121f89190612dfc565b90508082141561227e5760405162461bcd60e51b8152602060048201526044602482018190527f43544d3a204b686f6e6720746865206e6170207469656e2063686f2076616920908201527f74726f204769616d20646f6320546169206368696e68207468656f2063616368606482015263206e617960e01b608482015260a40161074b565b6001600160a01b038316316801158e460913d0000081106123055760405162461bcd60e51b815260206004820152603b60248201527f43544d3a20536f20647520637561206e67756f6920676975207661692074726f60448201527a206d75632074696575206b686f6e672064756f69206e67756f6e6760281b606482015260840161074b565b674563918244f400004781111561232e5760405162461bcd60e51b815260040161074b9061318a565b6000856001600160a01b03168260405160006040518083038185875af1925050503d806000811461237b576040519150601f19603f3d011682016040523d82523d6000602084013e612380565b606091505b50509050806123d15760405162461bcd60e51b815260206004820181905260248201527f43544d3a2043687579656e207469656e206e6f6920626f207468617420626169604482015260640161074b565b6040518281526001600160a01b0387169033907fe2080c8fc8d86c864d8dc081fadaebf2be7191086615e786f954420f13ed122a9060200160405180910390a350506001805550505050565b6000600260015414156124425760405162461bcd60e51b815260040161074b906131f4565b60026001556003546001600160a01b031633146124715760405162461bcd60e51b815260040161074b90613153565b6001600160a01b0385166124cc5760405162461bcd60e51b815260206004820152602e602482015260008051602061334183398151915260448201526d726f20646520686f616e2074726160901b606482015260840161074b565b8261251c5760405162461bcd60e51b815260206004820152602c60248201526000805160206133a183398151915260448201526b20646520686f616e2074726160a01b606482015260840161074b565b6000600885856040516125309291906130a8565b908152604051908190036020019020600381015490915060ff166125a85760405162461bcd60e51b815260206004820152603b602482015260008051602061338183398151915260448201527a206b686f6e672074696d207468617920646520686f616e2074726160281b606482015260840161074b565b80546001600160a01b038781169116146126045760405162461bcd60e51b815260206004820152601f60248201527f43544d3a204b686f206b686f6e67206b686f7020646520686f616e2074726100604482015260640161074b565b828160020154146126635760405162461bcd60e51b815260206004820152602360248201527f43544d3a20536f207469656e206b686f6e67206b686f7020646520686f616e2060448201526274726160e81b606482015260840161074b565b60038101805460ff19169055600281015481546001600160a01b03166000908152600760205260408120805490919061269d9084906132e5565b9091555050805460028201546040516001600160a01b03909216917f1065ba1a5e4d9d087a309d86a9ce14c67c7dbef9aa278a382c31e408d826cbdd916126e791899189916130e3565b60405180910390a250506001808055949350505050565b604080516080810182526000808252602082018190528183018190526060820152905160089061273190859085906130a8565b90815260408051918290036020908101832060808401835280546001600160a01b039081168552600182015416918401919091526002810154918301919091526003015460ff1615156060820152905092915050565b3361279061160a565b6001600160a01b0316146127b65760405162461bcd60e51b815260040161074b906131bf565b6001600160a01b03811661281b5760405162461bcd60e51b815260206004820152602660248201527f4f776e61626c653a206e6577206f776e657220697320746865207a65726f206160448201526564647265737360d01b606482015260840161074b565b600080546040516001600160a01b038085169392169160008051602061336183398151915291a3600080546001600160a01b0319166001600160a01b0392909216919091179055565b600260015414156128875760405162461bcd60e51b815260040161074b906131f4565b6002600181905554339034906001600160a01b03166129075760405162461bcd60e51b815260206004820152603660248201527f43544d3a204469612063686920526f6c654d616e6167656d656e7420646179206044820152750647520636875612064756f63207468696574206c61760541b606482015260840161074b565b60025460405163be9d3db360e01b81526000916001600160a01b03169063be9d3db3906129389086906004016130b8565b60206040518083038186803b15801561295057600080fd5b505afa158015612964573d6000803e3d6000fd5b505050506040513d601f19601f820116820180604052508101906129889190612dfc565b905060008111612a155760405162461bcd60e51b815260206004820152604c60248201527f43544d3a204b686f6e6720636f206465207875617420766f6e2063686f20756e60448201527f67207669656e206e617920686f616320526f6c654d616e6167656d656e74206360648201526b6875612073616e2073616e6760a01b608482015260a40161074b565b808214612a785760405162461bcd60e51b815260206004820152602b60248201527f43544d3a20536f207469656e20676f70206b686f6e672064756e6720766f692060448201526a3232903c3ab0ba103b37b760a91b606482015260840161074b565b826001600160a01b03167f5b2867009c0e15ae94a5d29f41dc792d26e95e9ab9a5ef8ebd64e7b41fd6015a83604051612ab391815260200190565b60405180910390a260025460405163f83ea09f60e01b81526001600160a01b038581166004830152602482018590529091169063f83ea09f90604401600060405180830381600087803b158015612b0957600080fd5b505af1158015612b1d573d6000803e3d6000fd5b5050600180555050505050565b8051612b3581613328565b919050565b80518015158114612b3557600080fd5b60008083601f840112612b5b578182fd5b5081356001600160401b03811115612b71578182fd5b602083019150836020828501011115612b8957600080fd5b9250929050565b600082601f830112612ba0578081fd5b8151612bb3612bae826132a6565b613276565b81815260208581848701011115612bc8578384fd5b835b83811015612be5578581018201518382018301528101612bca565b83811115612bf557848285850101525b509095945050505050565b600060208284031215612c11578081fd5b8135612c1c81613328565b9392505050565b60008060008060608587031215612c38578283fd5b8435612c4381613328565b93506020850135925060408501356001600160401b03811115612c64578283fd5b612c7087828801612b4a565b95989497509550505050565b60008060408385031215612c8e578182fd5b8235612c9981613328565b91506020830135612ca981613328565b809150509250929050565b600080600080600060808688031215612ccb578081fd5b8535612cd681613328565b94506020860135612ce681613328565b935060408601356001600160401b03811115612d00578182fd5b612d0c88828901612b4a565b96999598509660600135949350505050565b600080600060608486031215612d32578283fd5b8335612d3d81613328565b92506020840135612d4d81613328565b929592945050506040919091013590565b60008060408385031215612d70578182fd5b8235612d7b81613328565b946020939093013593505050565b60008060008060608587031215612d9e578384fd5b8435612da981613328565b935060208501356001600160401b03811115612dc3578384fd5b612dcf87828801612b4a565b9598909750949560400135949350505050565b600060208284031215612df3578081fd5b612c1c82612b3a565b600060208284031215612e0d578081fd5b5051919050565b60008060208385031215612e26578182fd5b82356001600160401b03811115612e3b578283fd5b612e4785828601612b4a565b90969095509350505050565b600060208284031215612e64578081fd5b81356001600160401b03811115612e79578182fd5b8201601f81018413612e89578182fd5b8035612e97612bae826132a6565b818152856020838501011115612eab578384fd5b81602084016020830137908101602001929092525092915050565b600060208284031215612ed7578081fd5b81516001600160401b0380821115612eed578283fd5b9083019060e08286031215612f00578283fd5b612f0861324e565b612f1183612b2a565b8152602083015182811115612f24578485fd5b612f3087828601612b90565b602083015250604083015182811115612f47578485fd5b612f5387828601612b90565b604083015250612f6560608401612b2a565b6060820152612f7660808401612b3a565b6080820152612f8760a08401612b3a565b60a0820152612f9860c08401612b2a565b60c082015295945050505050565b600060208284031215612fb7578081fd5b81516001600160401b0380821115612fcd578283fd5b9083019060808286031215612fe0578283fd5b604051608081018181108382111715612ffb57612ffb613312565b604052825161300981613328565b815260208301518281111561301c578485fd5b61302887828601612b90565b60208301525061303a60408401612b3a565b604082015261304b60608401612b3a565b606082015295945050505050565b60008060006060848603121561306d578081fd5b833592506020840135612d4d81613328565b81835281816020850137506000828201602090810191909152601f909101601f19169091010190565b8183823760009101908152919050565b6001600160a01b0391909116815260200190565b9182526001600160a01b0316602082015260400190565b6040815260006130f760408301858761307f565b9050826020830152949350505050565b6020808252602c908201527f43544d3a204e67756f6920676f69206b686f6e672070686169204769616d206460408201526b0dec640a8c2d240c6d0d2dcd60a31b606082015260800190565b6020808252601e908201527f43544d3a204e67756f6920676f69206b686f6e6720706861692057534f4d0000604082015260600190565b6020808252601b908201527a21aa269d102733b0b71038babc9035b437b73390323a903a34b2b760291b604082015260600190565b6020808252818101527f4f776e61626c653a2063616c6c6572206973206e6f7420746865206f776e6572604082015260600190565b6020808252601f908201527f5265656e7472616e637947756172643a207265656e7472616e742063616c6c00604082015260600190565b83815260406020820152600061324560408301848661307f565b95945050505050565b60405160e081016001600160401b038111828210171561327057613270613312565b60405290565b604051601f8201601f191681016001600160401b038111828210171561329e5761329e613312565b604052919050565b60006001600160401b038211156132bf576132bf613312565b50601f01601f191660200190565b600082198211156132e0576132e06132fc565b500190565b6000828210156132f7576132f76132fc565b500390565b634e487b7160e01b600052601160045260246000fd5b634e487b7160e01b600052604160045260246000fd5b6001600160a01b038116811461333d57600080fd5b5056fe43544d3a2044696120636869206b686f206b686f6e6720746865206c61207a658be0079c531659141344cd1fd0a4f28419497f9722a3daafe3b4186f6b6457e043544d3a204b7920717579206b686f6e67206b69636820686f617420686f616343544d3a20494420646f6e2068616e67206b686f6e672064756f6320726f6e6743544d3a2044696120636869204e4343206b686f6e6720746865206c61207a65a2646970667358221220201d9fd446ce4eefe440da38f6f3e6ee8d63ebaf29fe1fb0a4314046a70f9d8864736f6c63430008040033",
  "immutableReferences": {
    "791": [
      {
        "length": 32,
        "start": 1461
      },
      {
        "length": 32,
        "start": 3238
      },
      {
        "length": 32,
        "start": 3407
      },
      {
        "length": 32,
        "start": 5014
      },
      {
        "length": 32,
        "start": 5183
      },
      {
        "length": 32,
        "start": 8309
      },
      {
        "length": 32,
        "start": 8553
      }
    ],
    "794": [
      {
        "length": 32,
        "start": 612
      },
      {
        "length": 32,
        "start": 6090
      },
      {
        "length": 32,
        "start": 6348
      }
    ]
  },
  "source": "// SPDX-License-Identifier: MIT\r\npragma solidity ^0.8.4;\r\n\r\nimport \"@openzeppelin/contracts/access/Ownable.sol\";\r\nimport \"@openzeppelin/contracts/security/ReentrancyGuard.sol\";\r\nimport \"./Interfaces.sol\";      // Import file Interfaces.sol tp trung\r\n// KHNG CN: import \"./ItemsManagement.sol\";\r\n\r\n// Hp ng Qun l Ngn qu Cng ty\r\ncontract CompanyTreasuryManager is Ownable, ReentrancyGuard {\r\n    // S dng cc interface t Interfaces.sol\r\n    IRoleManagement public immutable roleManagement;\r\n    // THAY I:\r\n    IItemsManagementCoreInterface public immutable itemsManagementCore;\r\n\r\n    address public roleManagementFullAddress;\r\n    address public warehouseSupplierOrderManagement;\r\n    address public customerOrderManagementAddress;\r\n\r\n    address public financeDirector;\r\n\r\n    // Constants for internal transfers and spending limits\r\n    uint256 public constant INTERNAL_ROLE_TOP_UP_THRESHOLD = 20 ether;\r\n    uint256 public constant INTERNAL_ROLE_TOP_UP_AMOUNT = 5 ether;\r\n    uint256 public constant WAREHOUSE_SPENDING_LIMIT_PER_PERIOD = 500 ether;\r\n\r\n    // Mappings for spending policies and escrow\r\n    mapping(address => mapping(address => uint256)) public warehouseSpendingPolicies;\r\n    mapping(address => uint256) public warehouseSpendingThisPeriod;\r\n\r\n    struct EscrowDetails {\r\n        address warehouseAddress;\r\n        address supplierAddress;\r\n        uint256 amount;\r\n        bool active;\r\n    }\r\n    mapping(string => EscrowDetails) public activeEscrows;\r\n\r\n    // --- EVENTS ---\r\n    event FundsDeposited(address indexed from, uint256 amount);\r\n    event InitialCapitalReceived(uint256 amount);\r\n    event BoardMemberContributionReceived(address indexed candidate, uint256 amount);\r\n    event InternalTransfer(address indexed by, address indexed toRoleHolder, uint256 amount);\r\n    event SupplierPaymentEscrowed(string internalOrderId, address indexed warehouse, address indexed supplier, uint256 amount);\r\n    event SupplierPaymentReleased(string internalOrderId, address indexed supplier, uint256 amount);\r\n    event EscrowRefunded(string internalOrderId, address indexed warehouse, uint256 amount);\r\n    event SpendingPolicySet(address indexed setBy, address indexed warehouse, address indexed supplier, uint256 maxAmount);\r\n    event FinanceDirectorSet(address indexed newDirector);\r\n    event RoleManagementFullAddressSet(address indexed rmFullAddress);\r\n    event WarehouseSupplierOrderManagementAddressSet(address indexed wsomAddress);\r\n    event CustomerOrderManagementAddressSet(address indexed comAddress);\r\n    event GeneralWithdrawal(address indexed by, address indexed recipient, uint256 amount, string reason);\r\n    event CustomerRefundProcessedFromTreasury(uint256 indexed orderId, address indexed customer, uint256 amount);\r\n\r\n    modifier onlyFinanceDirector() {\r\n        require(msg.sender == financeDirector, \"CTM: Nguoi goi khong phai Giam doc Tai chinh\");\r\n        _;\r\n    }\r\n\r\n    constructor(\r\n        address _roleManagementAddress,\r\n        // THAY I:\r\n        address _itemsManagementCoreAddress,\r\n        uint256 _expectedInitialCapital\r\n    ) Ownable() payable {\r\n        require(_roleManagementAddress != address(0), \"CTM: Dia chi RoleManagement khong hop le\");\r\n        // THAY I:\r\n        require(_itemsManagementCoreAddress != address(0), \"CTM: Dia chi ItemsManagementCore khong hop le\");\r\n        require(_expectedInitialCapital >= 0, \"CTM: Von ban dau du kien khong the am\");\r\n\r\n        roleManagement = IRoleManagement(_roleManagementAddress);\r\n        // THAY I:\r\n        itemsManagementCore = IItemsManagementCoreInterface(_itemsManagementCoreAddress);\r\n        roleManagementFullAddress = _roleManagementAddress;\r\n\r\n        if (_expectedInitialCapital > 0) {\r\n            require(msg.value == _expectedInitialCapital, \"CTM: So von ban dau gui khong chinh xac\");\r\n            emit InitialCapitalReceived(msg.value);\r\n        } else {\r\n            require(msg.value == 0, \"CTM: Khong nen gui Ether neu von ban dau du kien la 0\");\r\n        }\r\n    }\r\n\r\n    function setWarehouseSupplierOrderManagementAddress(address _wsomAddress) external onlyOwner {\r\n        require(_wsomAddress != address(0), \"CTM: Dia chi WSOM khong hop le\");\r\n        warehouseSupplierOrderManagement = _wsomAddress;\r\n        emit WarehouseSupplierOrderManagementAddressSet(_wsomAddress);\r\n    }\r\n\r\n    function setCustomerOrderManagementAddress(address _comAddress) external onlyOwner {\r\n        require(_comAddress != address(0), \"CTM: Dia chi COM khong hop le\");\r\n        customerOrderManagementAddress = _comAddress;\r\n        emit CustomerOrderManagementAddressSet(_comAddress);\r\n    }\r\n\r\n    function setInitialFinanceDirector(address _director) external onlyOwner {\r\n        require(_director != address(0), \"CTM: Dia chi Giam doc khong the la zero\");\r\n        bytes32 finDirectorRole = roleManagement.FINANCE_DIRECTOR_ROLE();\r\n        require(roleManagement.hasRole(finDirectorRole, _director), \"CTM: Dia chi duoc gan thieu vai tro FIN_DIRECTOR_ROLE\");\r\n        require(financeDirector == address(0), \"CTM: Giam doc Tai chinh ban dau da duoc thiet lap\");\r\n        financeDirector = _director;\r\n        emit FinanceDirectorSet(_director);\r\n    }\r\n\r\n    receive() external payable {\r\n        emit FundsDeposited(msg.sender, msg.value);\r\n    }\r\n\r\n    function transferToInternalRole(address _roleHolderAddress, bytes32 _roleKey)\r\n        external\r\n        onlyFinanceDirector\r\n        nonReentrant\r\n    {\r\n        require(_roleHolderAddress != address(0), \"CTM: Dia chi nguoi giu vai tro khong the la zero\");\r\n        require(roleManagement.hasRole(_roleKey, _roleHolderAddress), \"CTM: Dia chi muc tieu khong co vai tro duoc chi dinh\");\r\n        bytes32 finDirectorRole = roleManagement.FINANCE_DIRECTOR_ROLE();\r\n        require(_roleKey != finDirectorRole, \"CTM: Khong the nap tien cho vai tro Giam doc Tai chinh theo cach nay\");\r\n        uint256 targetBalance = _roleHolderAddress.balance;\r\n        require(targetBalance < INTERNAL_ROLE_TOP_UP_THRESHOLD, \"CTM: So du cua nguoi giu vai tro muc tieu khong duoi nguong\");\r\n        uint256 amountToSend = INTERNAL_ROLE_TOP_UP_AMOUNT;\r\n        require(address(this).balance >= amountToSend, \"CTM: Ngan quy khong du tien\");\r\n        (bool success, ) = payable(_roleHolderAddress).call{value: amountToSend}(\"\");\r\n        require(success, \"CTM: Chuyen tien noi bo that bai\");\r\n        emit InternalTransfer(msg.sender, _roleHolderAddress, amountToSend);\r\n    }\r\n\r\n    function setWarehouseSpendingPolicy(\r\n        address _warehouseAddress,\r\n        address _supplierAddress,\r\n        uint256 _maxAmountPerOrder\r\n    ) external onlyFinanceDirector {\r\n        require(_warehouseAddress != address(0), \"CTM: Dia chi kho khong the la zero\");\r\n        require(_supplierAddress != address(0), \"CTM: Dia chi NCC khong the la zero\");\r\n\r\n        // THAY I:\r\n        PhysicalLocationInfo memory whInfo = itemsManagementCore.getWarehouseInfo(_warehouseAddress);\r\n        require(whInfo.exists, \"CTM: Kho khong ton tai trong IMCore\");\r\n\r\n        // THAY I:\r\n        SupplierInfo memory supInfo = itemsManagementCore.getSupplierInfo(_supplierAddress);\r\n        require(supInfo.exists && supInfo.isApprovedByBoard, \"CTM: NCC khong ton tai hoac chua duoc phe duyet trong IMCore\");\r\n\r\n        warehouseSpendingPolicies[_warehouseAddress][_supplierAddress] = _maxAmountPerOrder;\r\n        emit SpendingPolicySet(msg.sender, _warehouseAddress, _supplierAddress, _maxAmountPerOrder);\r\n    }\r\n\r\n    function generalWithdrawal(address payable _recipient, uint256 _amount, string calldata _reason)\r\n        external\r\n        onlyFinanceDirector\r\n        nonReentrant\r\n    {\r\n        require(_recipient != address(0), \"CTM: Nguoi nhan khong the la dia chi zero\");\r\n        require(_amount > 0, \"CTM: So tien phai la so duong\");\r\n        require(address(this).balance >= _amount, \"CTM: Ngan quy khong du tien\");\r\n        (bool success, ) = _recipient.call{value: _amount}(\"\");\r\n        require(success, \"CTM: Rut tien chung that bai\");\r\n        emit GeneralWithdrawal(msg.sender, _recipient, _amount, _reason);\r\n    }\r\n\r\n    function changeFinanceDirector(address _newDirector) external onlyOwner {\r\n        require(_newDirector != address(0), \"CTM: Giam doc moi khong the la dia chi zero\");\r\n        bytes32 finDirectorRole = roleManagement.FINANCE_DIRECTOR_ROLE();\r\n        require(roleManagement.hasRole(finDirectorRole, _newDirector), \"CTM: Giam doc moi thieu vai tro FIN_DIRECTOR_ROLE\");\r\n        require(_newDirector != financeDirector, \"CTM: Giam doc moi trung voi giam doc hien tai\");\r\n        financeDirector = _newDirector;\r\n        emit FinanceDirectorSet(_newDirector);\r\n    }\r\n\r\n    function requestEscrowForSupplierOrder(\r\n        address _warehouseAddress,\r\n        address _supplierAddress,\r\n        string calldata _internalSupplierOrderId,\r\n        uint256 _amount\r\n    ) external nonReentrant returns (bool) {\r\n        require(msg.sender == warehouseSupplierOrderManagement, \"CTM: Nguoi goi khong phai WSOM\");\r\n        require(_warehouseAddress != address(0), \"CTM: Dia chi kho ky quy khong the la zero\");\r\n        require(_supplierAddress != address(0), \"CTM: Dia chi NCC ky quy khong the la zero\");\r\n        require(bytes(_internalSupplierOrderId).length > 0, \"CTM: ID don hang ky quy khong duoc rong\");\r\n        require(_amount > 0, \"CTM: So tien ky quy phai la so duong\");\r\n        require(!activeEscrows[_internalSupplierOrderId].active, \"CTM: ID ky quy da kich hoat hoac khong hop le\");\r\n        uint256 maxAmountAllowed = warehouseSpendingPolicies[_warehouseAddress][_supplierAddress];\r\n        require(maxAmountAllowed > 0, \"CTM: Khong co chinh sach chi tieu cho kho/ncc nay\");\r\n        require(_amount <= maxAmountAllowed, \"CTM: So tien vuot qua gioi han chinh sach moi don hang\");\r\n        uint256 spendingAfterThisOrder = warehouseSpendingThisPeriod[_warehouseAddress] + _amount;\r\n        require(spendingAfterThisOrder <= WAREHOUSE_SPENDING_LIMIT_PER_PERIOD, \"CTM: Vuot qua gioi han chi tieu dinh ky cua kho\");\r\n        require(address(this).balance >= _amount, \"CTM: Ngan quy khong du tien de ky quy\");\r\n        activeEscrows[_internalSupplierOrderId] = EscrowDetails({\r\n            warehouseAddress: _warehouseAddress,\r\n            supplierAddress: _supplierAddress,\r\n            amount: _amount,\r\n            active: true\r\n        });\r\n        warehouseSpendingThisPeriod[_warehouseAddress] = spendingAfterThisOrder;\r\n        emit SupplierPaymentEscrowed(_internalSupplierOrderId, _warehouseAddress, _supplierAddress, _amount);\r\n        return true;\r\n    }\r\n\r\n    function releaseEscrowToSupplier(\r\n        address _supplierAddressToVerify,\r\n        string calldata _internalSupplierOrderId,\r\n        uint256 _amountToVerify\r\n    ) external nonReentrant returns (bool) {\r\n        require(msg.sender == warehouseSupplierOrderManagement, \"CTM: Nguoi goi khong phai WSOM\");\r\n        require(_supplierAddressToVerify != address(0), \"CTM: Dia chi NCC khong the la zero de giai ngan\");\r\n        require(bytes(_internalSupplierOrderId).length > 0, \"CTM: ID don hang khong duoc rong de giai ngan\");\r\n        EscrowDetails storage escrow = activeEscrows[_internalSupplierOrderId];\r\n        require(escrow.active, \"CTM: Ky quy khong kich hoat hoac khong tim thay de giai ngan\");\r\n        require(escrow.supplierAddress == _supplierAddressToVerify, \"CTM: NCC khong khop de giai ngan\");\r\n        require(escrow.amount == _amountToVerify, \"CTM: So tien khong khop de giai ngan\");\r\n        escrow.active = false;\r\n        (bool success, ) = payable(escrow.supplierAddress).call{value: escrow.amount}(\"\");\r\n        if (!success) {\r\n            escrow.active = true;\r\n            return false;\r\n        }\r\n        emit SupplierPaymentReleased(_internalSupplierOrderId, escrow.supplierAddress, escrow.amount);\r\n        return true;\r\n    }\r\n\r\n    function refundEscrowToTreasury(\r\n        address _warehouseAddressToVerify,\r\n        string calldata _internalSupplierOrderId,\r\n        uint256 _amountToVerify\r\n    ) external nonReentrant returns (bool) {\r\n        require(msg.sender == warehouseSupplierOrderManagement, \"CTM: Nguoi goi khong phai WSOM\");\r\n        require(_warehouseAddressToVerify != address(0), \"CTM: Dia chi kho khong the la zero de hoan tra\");\r\n        require(bytes(_internalSupplierOrderId).length > 0, \"CTM: ID don hang khong duoc rong de hoan tra\");\r\n        EscrowDetails storage escrow = activeEscrows[_internalSupplierOrderId];\r\n        require(escrow.active, \"CTM: Ky quy khong kich hoat hoac khong tim thay de hoan tra\");\r\n        require(escrow.warehouseAddress == _warehouseAddressToVerify, \"CTM: Kho khong khop de hoan tra\");\r\n        require(escrow.amount == _amountToVerify, \"CTM: So tien khong khop de hoan tra\");\r\n        escrow.active = false;\r\n        warehouseSpendingThisPeriod[escrow.warehouseAddress] -= escrow.amount;\r\n        emit EscrowRefunded(_internalSupplierOrderId, escrow.warehouseAddress, escrow.amount);\r\n        return true;\r\n    }\r\n\r\n    function refundCustomerOrderFromTreasury(\r\n        uint256 _orderId,\r\n        address payable _customerAddress,\r\n        uint256 _amountToRefund\r\n    )\r\n        external\r\n        nonReentrant\r\n    {\r\n        require(msg.sender == customerOrderManagementAddress, \"CTM: Chi COM moi duoc yeu cau hoan tien nay\");\r\n        require(_customerAddress != address(0), \"CTM: Dia chi khach hang khong hop le de hoan tien\");\r\n        require(_amountToRefund > 0, \"CTM: So tien hoan phai lon hon 0\");\r\n        require(address(this).balance >= _amountToRefund, \"CTM: Ngan quy khong du tien de hoan\");\r\n        (bool success, ) = _customerAddress.call{value: _amountToRefund}(\"\");\r\n        require(success, \"CTM: Hoan tien cho khach tu ngan quy that bai\");\r\n        emit CustomerRefundProcessedFromTreasury(_orderId, _customerAddress, _amountToRefund);\r\n    }\r\n\r\n    function receiveBoardMemberContribution() external payable nonReentrant {\r\n        address candidate = msg.sender;\r\n        uint256 amountContributed = msg.value;\r\n        require(roleManagementFullAddress != address(0), \"CTM: Dia chi RoleManagement day du chua duoc thiet lap\");\r\n        uint256 proposedCapital = IRoleManagement(roleManagementFullAddress).getProposedShareCapital(candidate);\r\n        require(proposedCapital > 0, \"CTM: Khong co de xuat von cho ung vien nay hoac RoleManagement chua san sang\");\r\n        require(amountContributed == proposedCapital, \"CTM: So tien gop khong dung voi de xuat von\");\r\n        emit BoardMemberContributionReceived(candidate, amountContributed);\r\n        IRoleManagement(roleManagementFullAddress).activateBoardMemberByTreasury(candidate, amountContributed);\r\n    }\r\n\r\n    function getBalance() external view returns (uint256) {\r\n        return address(this).balance;\r\n    }\r\n\r\n    function getWarehouseSpendingPolicy(address _warehouseAddress, address _supplierAddress) external view returns (uint256) {\r\n        return warehouseSpendingPolicies[_warehouseAddress][_supplierAddress];\r\n    }\r\n\r\n    function getWarehouseSpendingThisPeriod(address _warehouseAddress) external view returns (uint256) {\r\n        return warehouseSpendingThisPeriod[_warehouseAddress];\r\n    }\r\n\r\n    function getEscrowDetails(string calldata _internalSupplierOrderId) external view returns (EscrowDetails memory) {\r\n        return activeEscrows[_internalSupplierOrderId];\r\n    }\r\n\r\n    function WAREHOUSE_SPENDING_LIMIT_PER_PERIOD_CONST() external pure returns (uint256) {\r\n        return WAREHOUSE_SPENDING_LIMIT_PER_PERIOD;\r\n    }\r\n    function INTERNAL_ROLE_TOP_UP_THRESHOLD_CONST() external pure returns (uint256) {\r\n        return INTERNAL_ROLE_TOP_UP_THRESHOLD;\r\n    }\r\n    function INTERNAL_ROLE_TOP_UP_AMOUNT_CONST() external pure returns (uint256) {\r\n        return INTERNAL_ROLE_TOP_UP_AMOUNT;\r\n    }\r\n}",
  "sourcePath": "D:\\nhi\\Logtech\\New tech in Log\\dapp2\\SC\\contracts\\CompanyTreasuryManager.sol",
  "compiler": {
    "name": "solc",
    "version": "0.8.4+commit.c7e474f2.Emscripten.clang"
  },
  "schemaVersion": "3.4.16",
  "updatedAt": "2025-06-03T05:39:59.355Z",
  "networkType": "ethereum",
  "devdoc": {
    "kind": "dev",
    "methods": {
      "owner()": {
        "details": "Returns the address of the current owner."
      },
      "renounceOwnership()": {
        "details": "Leaves the contract without owner. It will not be possible to call `onlyOwner` functions anymore. Can only be called by the current owner. NOTE: Renouncing ownership will leave the contract without an owner, thereby removing any functionality that is only available to the owner."
      },
      "transferOwnership(address)": {
        "details": "Transfers ownership of the contract to a new account (`newOwner`). Can only be called by the current owner."
      }
    },
    "version": 1
  },
  "userdoc": {
    "kind": "user",
    "methods": {},
    "version": 1
  }
}