{
  "contractName": "CompanyTreasuryManager",
  "abi": [
    {
      "inputs": [
        {
          "internalType": "address",
          "name": "_roleManagementAddress",
          "type": "address"
        },
        {
          "internalType": "address",
          "name": "_itemsManagementAddress",
          "type": "address"
        },
        {
          "internalType": "uint256",
          "name": "_expectedInitialCapital",
          "type": "uint256"
        }
      ],
      "stateMutability": "payable",
      "type": "constructor"
    },
    {
      "anonymous": false,
      "inputs": [
        {
          "indexed": true,
          "internalType": "address",
          "name": "candidate",
          "type": "address"
        },
        {
          "indexed": false,
          "internalType": "uint256",
          "name": "amount",
          "type": "uint256"
        }
      ],
      "name": "BoardMemberContributionReceived",
      "type": "event"
    },
    {
      "anonymous": false,
      "inputs": [
        {
          "indexed": true,
          "internalType": "address",
          "name": "comAddress",
          "type": "address"
        }
      ],
      "name": "CustomerOrderManagementAddressSet",
      "type": "event"
    },
    {
      "anonymous": false,
      "inputs": [
        {
          "indexed": true,
          "internalType": "uint256",
          "name": "orderId",
          "type": "uint256"
        },
        {
          "indexed": true,
          "internalType": "address",
          "name": "customer",
          "type": "address"
        },
        {
          "indexed": false,
          "internalType": "uint256",
          "name": "amount",
          "type": "uint256"
        }
      ],
      "name": "CustomerRefundProcessedFromTreasury",
      "type": "event"
    },
    {
      "anonymous": false,
      "inputs": [
        {
          "indexed": false,
          "internalType": "string",
          "name": "internalOrderId",
          "type": "string"
        },
        {
          "indexed": true,
          "internalType": "address",
          "name": "warehouse",
          "type": "address"
        },
        {
          "indexed": false,
          "internalType": "uint256",
          "name": "amount",
          "type": "uint256"
        }
      ],
      "name": "EscrowRefunded",
      "type": "event"
    },
    {
      "anonymous": false,
      "inputs": [
        {
          "indexed": true,
          "internalType": "address",
          "name": "newDirector",
          "type": "address"
        }
      ],
      "name": "FinanceDirectorSet",
      "type": "event"
    },
    {
      "anonymous": false,
      "inputs": [
        {
          "indexed": true,
          "internalType": "address",
          "name": "from",
          "type": "address"
        },
        {
          "indexed": false,
          "internalType": "uint256",
          "name": "amount",
          "type": "uint256"
        }
      ],
      "name": "FundsDeposited",
      "type": "event"
    },
    {
      "anonymous": false,
      "inputs": [
        {
          "indexed": true,
          "internalType": "address",
          "name": "by",
          "type": "address"
        },
        {
          "indexed": true,
          "internalType": "address",
          "name": "recipient",
          "type": "address"
        },
        {
          "indexed": false,
          "internalType": "uint256",
          "name": "amount",
          "type": "uint256"
        },
        {
          "indexed": false,
          "internalType": "string",
          "name": "reason",
          "type": "string"
        }
      ],
      "name": "GeneralWithdrawal",
      "type": "event"
    },
    {
      "anonymous": false,
      "inputs": [
        {
          "indexed": false,
          "internalType": "uint256",
          "name": "amount",
          "type": "uint256"
        }
      ],
      "name": "InitialCapitalReceived",
      "type": "event"
    },
    {
      "anonymous": false,
      "inputs": [
        {
          "indexed": true,
          "internalType": "address",
          "name": "by",
          "type": "address"
        },
        {
          "indexed": true,
          "internalType": "address",
          "name": "toRoleHolder",
          "type": "address"
        },
        {
          "indexed": false,
          "internalType": "uint256",
          "name": "amount",
          "type": "uint256"
        }
      ],
      "name": "InternalTransfer",
      "type": "event"
    },
    {
      "anonymous": false,
      "inputs": [
        {
          "indexed": true,
          "internalType": "address",
          "name": "previousOwner",
          "type": "address"
        },
        {
          "indexed": true,
          "internalType": "address",
          "name": "newOwner",
          "type": "address"
        }
      ],
      "name": "OwnershipTransferred",
      "type": "event"
    },
    {
      "anonymous": false,
      "inputs": [
        {
          "indexed": true,
          "internalType": "address",
          "name": "rmFullAddress",
          "type": "address"
        }
      ],
      "name": "RoleManagementFullAddressSet",
      "type": "event"
    },
    {
      "anonymous": false,
      "inputs": [
        {
          "indexed": true,
          "internalType": "address",
          "name": "setBy",
          "type": "address"
        },
        {
          "indexed": true,
          "internalType": "address",
          "name": "warehouse",
          "type": "address"
        },
        {
          "indexed": true,
          "internalType": "address",
          "name": "supplier",
          "type": "address"
        },
        {
          "indexed": false,
          "internalType": "uint256",
          "name": "maxAmount",
          "type": "uint256"
        }
      ],
      "name": "SpendingPolicySet",
      "type": "event"
    },
    {
      "anonymous": false,
      "inputs": [
        {
          "indexed": false,
          "internalType": "string",
          "name": "internalOrderId",
          "type": "string"
        },
        {
          "indexed": true,
          "internalType": "address",
          "name": "warehouse",
          "type": "address"
        },
        {
          "indexed": true,
          "internalType": "address",
          "name": "supplier",
          "type": "address"
        },
        {
          "indexed": false,
          "internalType": "uint256",
          "name": "amount",
          "type": "uint256"
        }
      ],
      "name": "SupplierPaymentEscrowed",
      "type": "event"
    },
    {
      "anonymous": false,
      "inputs": [
        {
          "indexed": false,
          "internalType": "string",
          "name": "internalOrderId",
          "type": "string"
        },
        {
          "indexed": true,
          "internalType": "address",
          "name": "supplier",
          "type": "address"
        },
        {
          "indexed": false,
          "internalType": "uint256",
          "name": "amount",
          "type": "uint256"
        }
      ],
      "name": "SupplierPaymentReleased",
      "type": "event"
    },
    {
      "anonymous": false,
      "inputs": [
        {
          "indexed": true,
          "internalType": "address",
          "name": "wsomAddress",
          "type": "address"
        }
      ],
      "name": "WarehouseSupplierOrderManagementAddressSet",
      "type": "event"
    },
    {
      "inputs": [],
      "name": "INTERNAL_ROLE_TOP_UP_AMOUNT",
      "outputs": [
        {
          "internalType": "uint256",
          "name": "",
          "type": "uint256"
        }
      ],
      "stateMutability": "view",
      "type": "function"
    },
    {
      "inputs": [],
      "name": "INTERNAL_ROLE_TOP_UP_THRESHOLD",
      "outputs": [
        {
          "internalType": "uint256",
          "name": "",
          "type": "uint256"
        }
      ],
      "stateMutability": "view",
      "type": "function"
    },
    {
      "inputs": [],
      "name": "WAREHOUSE_SPENDING_LIMIT_PER_PERIOD",
      "outputs": [
        {
          "internalType": "uint256",
          "name": "",
          "type": "uint256"
        }
      ],
      "stateMutability": "view",
      "type": "function"
    },
    {
      "inputs": [
        {
          "internalType": "string",
          "name": "",
          "type": "string"
        }
      ],
      "name": "activeEscrows",
      "outputs": [
        {
          "internalType": "address",
          "name": "warehouseAddress",
          "type": "address"
        },
        {
          "internalType": "address",
          "name": "supplierAddress",
          "type": "address"
        },
        {
          "internalType": "uint256",
          "name": "amount",
          "type": "uint256"
        },
        {
          "internalType": "bool",
          "name": "active",
          "type": "bool"
        }
      ],
      "stateMutability": "view",
      "type": "function"
    },
    {
      "inputs": [],
      "name": "customerOrderManagementAddress",
      "outputs": [
        {
          "internalType": "address",
          "name": "",
          "type": "address"
        }
      ],
      "stateMutability": "view",
      "type": "function"
    },
    {
      "inputs": [],
      "name": "financeDirector",
      "outputs": [
        {
          "internalType": "address",
          "name": "",
          "type": "address"
        }
      ],
      "stateMutability": "view",
      "type": "function"
    },
    {
      "inputs": [],
      "name": "itemsManagement",
      "outputs": [
        {
          "internalType": "contract IItemsManagementMinimalInterface",
          "name": "",
          "type": "address"
        }
      ],
      "stateMutability": "view",
      "type": "function"
    },
    {
      "inputs": [],
      "name": "owner",
      "outputs": [
        {
          "internalType": "address",
          "name": "",
          "type": "address"
        }
      ],
      "stateMutability": "view",
      "type": "function"
    },
    {
      "inputs": [],
      "name": "renounceOwnership",
      "outputs": [],
      "stateMutability": "nonpayable",
      "type": "function"
    },
    {
      "inputs": [],
      "name": "roleManagement",
      "outputs": [
        {
          "internalType": "contract IRoleManagementMinimalInterface",
          "name": "",
          "type": "address"
        }
      ],
      "stateMutability": "view",
      "type": "function"
    },
    {
      "inputs": [],
      "name": "roleManagementFullAddress",
      "outputs": [
        {
          "internalType": "address",
          "name": "",
          "type": "address"
        }
      ],
      "stateMutability": "view",
      "type": "function"
    },
    {
      "inputs": [
        {
          "internalType": "address",
          "name": "newOwner",
          "type": "address"
        }
      ],
      "name": "transferOwnership",
      "outputs": [],
      "stateMutability": "nonpayable",
      "type": "function"
    },
    {
      "inputs": [
        {
          "internalType": "address",
          "name": "",
          "type": "address"
        },
        {
          "internalType": "address",
          "name": "",
          "type": "address"
        }
      ],
      "name": "warehouseSpendingPolicies",
      "outputs": [
        {
          "internalType": "uint256",
          "name": "",
          "type": "uint256"
        }
      ],
      "stateMutability": "view",
      "type": "function"
    },
    {
      "inputs": [
        {
          "internalType": "address",
          "name": "",
          "type": "address"
        }
      ],
      "name": "warehouseSpendingThisPeriod",
      "outputs": [
        {
          "internalType": "uint256",
          "name": "",
          "type": "uint256"
        }
      ],
      "stateMutability": "view",
      "type": "function"
    },
    {
      "inputs": [],
      "name": "warehouseSupplierOrderManagement",
      "outputs": [
        {
          "internalType": "address",
          "name": "",
          "type": "address"
        }
      ],
      "stateMutability": "view",
      "type": "function"
    },
    {
      "stateMutability": "payable",
      "type": "receive"
    },
    {
      "inputs": [
        {
          "internalType": "address",
          "name": "_wsomAddress",
          "type": "address"
        }
      ],
      "name": "setWarehouseSupplierOrderManagementAddress",
      "outputs": [],
      "stateMutability": "nonpayable",
      "type": "function"
    },
    {
      "inputs": [
        {
          "internalType": "address",
          "name": "_comAddress",
          "type": "address"
        }
      ],
      "name": "setCustomerOrderManagementAddress",
      "outputs": [],
      "stateMutability": "nonpayable",
      "type": "function"
    },
    {
      "inputs": [
        {
          "internalType": "address",
          "name": "_director",
          "type": "address"
        }
      ],
      "name": "setInitialFinanceDirector",
      "outputs": [],
      "stateMutability": "nonpayable",
      "type": "function"
    },
    {
      "inputs": [
        {
          "internalType": "address",
          "name": "_roleHolderAddress",
          "type": "address"
        },
        {
          "internalType": "bytes32",
          "name": "_roleKey",
          "type": "bytes32"
        }
      ],
      "name": "transferToInternalRole",
      "outputs": [],
      "stateMutability": "nonpayable",
      "type": "function"
    },
    {
      "inputs": [
        {
          "internalType": "address",
          "name": "_warehouseAddress",
          "type": "address"
        },
        {
          "internalType": "address",
          "name": "_supplierAddress",
          "type": "address"
        },
        {
          "internalType": "uint256",
          "name": "_maxAmountPerOrder",
          "type": "uint256"
        }
      ],
      "name": "setWarehouseSpendingPolicy",
      "outputs": [],
      "stateMutability": "nonpayable",
      "type": "function"
    },
    {
      "inputs": [
        {
          "internalType": "address payable",
          "name": "_recipient",
          "type": "address"
        },
        {
          "internalType": "uint256",
          "name": "_amount",
          "type": "uint256"
        },
        {
          "internalType": "string",
          "name": "_reason",
          "type": "string"
        }
      ],
      "name": "generalWithdrawal",
      "outputs": [],
      "stateMutability": "nonpayable",
      "type": "function"
    },
    {
      "inputs": [
        {
          "internalType": "address",
          "name": "_newDirector",
          "type": "address"
        }
      ],
      "name": "changeFinanceDirector",
      "outputs": [],
      "stateMutability": "nonpayable",
      "type": "function"
    },
    {
      "inputs": [
        {
          "internalType": "address",
          "name": "_warehouseAddress",
          "type": "address"
        },
        {
          "internalType": "address",
          "name": "_supplierAddress",
          "type": "address"
        },
        {
          "internalType": "string",
          "name": "_internalSupplierOrderId",
          "type": "string"
        },
        {
          "internalType": "uint256",
          "name": "_amount",
          "type": "uint256"
        }
      ],
      "name": "requestEscrowForSupplierOrder",
      "outputs": [
        {
          "internalType": "bool",
          "name": "",
          "type": "bool"
        }
      ],
      "stateMutability": "nonpayable",
      "type": "function"
    },
    {
      "inputs": [
        {
          "internalType": "address",
          "name": "_supplierAddressToVerify",
          "type": "address"
        },
        {
          "internalType": "string",
          "name": "_internalSupplierOrderId",
          "type": "string"
        },
        {
          "internalType": "uint256",
          "name": "_amountToVerify",
          "type": "uint256"
        }
      ],
      "name": "releaseEscrowToSupplier",
      "outputs": [
        {
          "internalType": "bool",
          "name": "",
          "type": "bool"
        }
      ],
      "stateMutability": "nonpayable",
      "type": "function"
    },
    {
      "inputs": [
        {
          "internalType": "address",
          "name": "_warehouseAddressToVerify",
          "type": "address"
        },
        {
          "internalType": "string",
          "name": "_internalSupplierOrderId",
          "type": "string"
        },
        {
          "internalType": "uint256",
          "name": "_amountToVerify",
          "type": "uint256"
        }
      ],
      "name": "refundEscrowToTreasury",
      "outputs": [
        {
          "internalType": "bool",
          "name": "",
          "type": "bool"
        }
      ],
      "stateMutability": "nonpayable",
      "type": "function"
    },
    {
      "inputs": [
        {
          "internalType": "uint256",
          "name": "_orderId",
          "type": "uint256"
        },
        {
          "internalType": "address payable",
          "name": "_customerAddress",
          "type": "address"
        },
        {
          "internalType": "uint256",
          "name": "_amountToRefund",
          "type": "uint256"
        }
      ],
      "name": "refundCustomerOrderFromTreasury",
      "outputs": [],
      "stateMutability": "nonpayable",
      "type": "function"
    },
    {
      "inputs": [],
      "name": "receiveBoardMemberContribution",
      "outputs": [],
      "stateMutability": "payable",
      "type": "function"
    },
    {
      "inputs": [],
      "name": "getBalance",
      "outputs": [
        {
          "internalType": "uint256",
          "name": "",
          "type": "uint256"
        }
      ],
      "stateMutability": "view",
      "type": "function"
    },
    {
      "inputs": [
        {
          "internalType": "address",
          "name": "_warehouseAddress",
          "type": "address"
        },
        {
          "internalType": "address",
          "name": "_supplierAddress",
          "type": "address"
        }
      ],
      "name": "getWarehouseSpendingPolicy",
      "outputs": [
        {
          "internalType": "uint256",
          "name": "",
          "type": "uint256"
        }
      ],
      "stateMutability": "view",
      "type": "function"
    },
    {
      "inputs": [
        {
          "internalType": "address",
          "name": "_warehouseAddress",
          "type": "address"
        }
      ],
      "name": "getWarehouseSpendingThisPeriod",
      "outputs": [
        {
          "internalType": "uint256",
          "name": "",
          "type": "uint256"
        }
      ],
      "stateMutability": "view",
      "type": "function"
    },
    {
      "inputs": [
        {
          "internalType": "string",
          "name": "_internalSupplierOrderId",
          "type": "string"
        }
      ],
      "name": "getEscrowDetails",
      "outputs": [
        {
          "components": [
            {
              "internalType": "address",
              "name": "warehouseAddress",
              "type": "address"
            },
            {
              "internalType": "address",
              "name": "supplierAddress",
              "type": "address"
            },
            {
              "internalType": "uint256",
              "name": "amount",
              "type": "uint256"
            },
            {
              "internalType": "bool",
              "name": "active",
              "type": "bool"
            }
          ],
          "internalType": "struct CompanyTreasuryManager.EscrowDetails",
          "name": "",
          "type": "tuple"
        }
      ],
      "stateMutability": "view",
      "type": "function"
    },
    {
      "inputs": [],
      "name": "WAREHOUSE_SPENDING_LIMIT_PER_PERIOD_CONST",
      "outputs": [
        {
          "internalType": "uint256",
          "name": "",
          "type": "uint256"
        }
      ],
      "stateMutability": "pure",
      "type": "function"
    },
    {
      "inputs": [],
      "name": "INTERNAL_ROLE_TOP_UP_THRESHOLD_CONST",
      "outputs": [
        {
          "internalType": "uint256",
          "name": "",
          "type": "uint256"
        }
      ],
      "stateMutability": "pure",
      "type": "function"
    },
    {
      "inputs": [],
      "name": "INTERNAL_ROLE_TOP_UP_AMOUNT_CONST",
      "outputs": [
        {
          "internalType": "uint256",
          "name": "",
          "type": "uint256"
        }
      ],
      "stateMutability": "pure",
      "type": "function"
    }
  ],
  "bytecode": "0x60c060405260405162003962380380620039628339810160408190526200002691620001c3565b600062000032620001a2565b600080546001600160a01b0319166001600160a01b0383169081178255604051929350917f8be0079c531659141344cd1fd0a4f28419497f9722a3daafe3b4186f6b6457e0908290a350600180556001600160a01b038316620000b25760405162461bcd60e51b8152600401620000a99062000203565b60405180910390fd5b6001600160a01b038216620000db5760405162461bcd60e51b8152600401620000a990620002ef565b6001600160601b0319606084811b821660805283901b1660a052600280546001600160a01b0319166001600160a01b03851617905580156200017857803414620001395760405162461bcd60e51b8152600401620000a990620002a8565b7f5a8d86dba9b5978a0cdf6ec0ed77250aa7a80cc0d35f20ff655f42a6c583d4e5346040516200016a919062000338565b60405180910390a162000199565b3415620001995760405162461bcd60e51b8152600401620000a9906200024b565b50505062000341565b3390565b80516001600160a01b0381168114620001be57600080fd5b919050565b600080600060608486031215620001d8578283fd5b620001e384620001a6565b9250620001f360208501620001a6565b9150604084015190509250925092565b60208082526028908201527f43544d3a204469612063686920526f6c654d616e6167656d656e74206b686f6e6040820152676720686f70206c6560c01b606082015260800190565b60208082526035908201527f43544d3a204b686f6e67206e656e20677569204574686572206e657520766f6e60408201527f2062616e20646175206475206b69656e206c6120300000000000000000000000606082015260800190565b60208082526027908201527f43544d3a20536f20766f6e2062616e2064617520677569206b686f6e67206368604082015266696e682078616360c81b606082015260800190565b60208082526029908201527f43544d3a2044696120636869204974656d734d616e6167656d656e74206b686f6040820152686e6720686f70206c6560b81b606082015260800190565b90815260200190565b60805160601c60a05160601c6135bd620003a560003960008181611238015281816112fe0152611742015260008181610930015281816109d901528181610e6e01528181610f170152818161171e0152818161180d01526118b401526135bd6000f3fe60806040526004361061018d5760003560e01c806301a2a94e146101da57806311197b3e146101fc57806312065fe01461021c5780631c181773146102475780634eddf3601461026757806351aeb577146102895780635b5a0859146102b65780636191718c146102cb578063626f94d6146102e05780636718b05b146103005780636a15d2a214610315578063715018a61461033557806371ff198a1461034a57806376d22d7e1461035f5780637d75cddc146103745780637dc161c314610389578063895621e1146103a95780638b77b9a9146103c95780638da5cb5b146103e95780638deecc20146103fe5780639e70350f1461042e578063a22b0f841461044e578063aa9ce11f1461046e578063b0cc67e41461048e578063b977ba18146104a3578063c19aacdd146104b8578063cffe4f37146104cd578063d505ea1f146104e2578063d5a12238146104f7578063daf45d4e14610517578063dc90618214610537578063ef1ac8a914610564578063f2fde38b14610584578063f9510d64146105a4576101d5565b366101d557336001600160a01b03167f543ba50a5eec5e6178218e364b1d0f396157b3c8fa278522c2cb7fd99407d474346040516101cb91906133f8565b60405180910390a2005b600080fd5b3480156101e657600080fd5b506101fa6101f536600461208b565b6105ac565b005b34801561020857600080fd5b506101fa6102173660046124b2565b610743565b34801561022857600080fd5b506102316108c3565b60405161023e91906133f8565b60405180910390f35b34801561025357600080fd5b506101fa610262366004612068565b6108c7565b34801561027357600080fd5b5061027c610af5565b60405161023e9190612515565b34801561029557600080fd5b506102a96102a43660046121f1565b610b04565b60405161023e919061256b565b3480156102c257600080fd5b5061027c610d2c565b3480156102d757600080fd5b50610231610d3b565b3480156102ec57600080fd5b506101fa6102fb366004612068565b610d47565b34801561030c57600080fd5b5061027c610df6565b34801561032157600080fd5b506101fa610330366004612068565b610e05565b34801561034157600080fd5b506101fa610fba565b34801561035657600080fd5b50610231611031565b34801561036b57600080fd5b5061023161103e565b34801561038057600080fd5b5061027c61104a565b34801561039557600080fd5b506102316103a43660046120e4565b611059565b3480156103b557600080fd5b506102316103c4366004612068565b611076565b3480156103d557600080fd5b506102316103e4366004612068565b611088565b3480156103f557600080fd5b5061027c6110a7565b34801561040a57600080fd5b5061041e6104193660046122bb565b6110b6565b60405161023e9493929190612529565b34801561043a57600080fd5b506101fa610449366004612068565b6110f9565b34801561045a57600080fd5b506101fa610469366004612186565b6111a8565b34801561047a57600080fd5b506102a961048936600461211c565b611416565b34801561049a57600080fd5b5061023161170f565b3480156104af57600080fd5b5061027c61171c565b3480156104c457600080fd5b5061027c611740565b3480156104d957600080fd5b50610231611764565b3480156104ee57600080fd5b50610231611771565b34801561050357600080fd5b506101fa6105123660046121c6565b61177e565b34801561052357600080fd5b506102a96105323660046121f1565b611a94565b34801561054357600080fd5b5061055761055236600461227c565b611c5f565b60405161023e91906133bd565b34801561057057600080fd5b5061023161057f3660046120e4565b611ccf565b34801561059057600080fd5b506101fa61059f366004612068565b611cfa565b6101fa611da8565b6005546001600160a01b031633146105df5760405162461bcd60e51b81526004016105d6906126b0565b60405180910390fd5b600260015414156106025760405162461bcd60e51b81526004016105d690613218565b60026001556001600160a01b03841661062d5760405162461bcd60e51b81526004016105d690612cb8565b6000831161064d5760405162461bcd60e51b81526004016105d690612ada565b8247101561066d5760405162461bcd60e51b81526004016105d690612aa5565b6000846001600160a01b03168460405161068690612512565b60006040518083038185875af1925050503d80600081146106c3576040519150601f19603f3d011682016040523d82523d6000602084013e6106c8565b606091505b50509050806106e95760405162461bcd60e51b81526004016105d69061267a565b846001600160a01b0316336001600160a01b03167f551cda44af45f8ecc2ee4fc9d36201c3e1269e76d0a188c66adcc131b7b1ec6086868660405161073093929190613401565b60405180910390a3505060018055505050565b600260015414156107665760405162461bcd60e51b81526004016105d690613218565b60026001556004546001600160a01b031633146107955760405162461bcd60e51b81526004016105d690612f09565b6001600160a01b0382166107bb5760405162461bcd60e51b81526004016105d6906127ce565b600081116107db5760405162461bcd60e51b81526004016105d690612ed4565b804710156107fb5760405162461bcd60e51b81526004016105d6906125b1565b6000826001600160a01b03168260405161081490612512565b60006040518083038185875af1925050503d8060008114610851576040519150601f19603f3d011682016040523d82523d6000602084013e610856565b606091505b50509050806108775760405162461bcd60e51b81526004016105d6906130fc565b826001600160a01b0316847fc12d6ca8c39120133bdb248b7f11862fe29cf43ea3c09abd5fb7594d59da35da846040516108b191906133f8565b60405180910390a35050600180555050565b4790565b6108cf611f6c565b6001600160a01b03166108e06110a7565b6001600160a01b0316146109065760405162461bcd60e51b81526004016105d690612e9f565b6001600160a01b03811661092c5760405162461bcd60e51b81526004016105d690612b11565b60007f00000000000000000000000000000000000000000000000000000000000000006001600160a01b0316638b94a8e26040518163ffffffff1660e01b815260040160206040518083038186803b15801561098757600080fd5b505afa15801561099b573d6000803e3d6000fd5b505050506040513d601f19601f820116820180604052508101906109bf9190612264565b604051632474521560e21b81529091506001600160a01b037f000000000000000000000000000000000000000000000000000000000000000016906391d1485490610a109084908690600401612576565b60206040518083038186803b158015610a2857600080fd5b505afa158015610a3c573d6000803e3d6000fd5b505050506040513d601f19601f82011682018060405250810190610a60919061224a565b610a7c5760405162461bcd60e51b81526004016105d6906126fc565b6005546001600160a01b0383811691161415610aaa5760405162461bcd60e51b81526004016105d690613370565b600580546001600160a01b0319166001600160a01b0384169081179091556040517fefdd118ca7d5b7a6f2ba4688dbbfc422f9e0a98948ef0a0b17da8b1d3200a76d90600090a25050565b6005546001600160a01b031681565b600060026001541415610b295760405162461bcd60e51b81526004016105d690613218565b60026001556003546001600160a01b03163314610b585760405162461bcd60e51b81526004016105d690612884565b6001600160a01b038516610b7e5760405162461bcd60e51b81526004016105d69061274d565b82610b9b5760405162461bcd60e51b81526004016105d690612b93565b600060088585604051610baf929190612502565b908152604051908190036020019020600381015490915060ff16610be55760405162461bcd60e51b81526004016105d690612fe6565b60018101546001600160a01b03878116911614610c145760405162461bcd60e51b81526004016105d69061281f565b82816002015414610c375760405162461bcd60e51b81526004016105d6906131d4565b60038101805460ff19169055600181015460028201546040516000926001600160a01b03169190610c6790612512565b60006040518083038185875af1925050503d8060008114610ca4576040519150601f19603f3d011682016040523d82523d6000602084013e610ca9565b606091505b5050905080610cc95750600301805460ff19166001179055506000610d20565b600182015460028301546040516001600160a01b03909216917f887f535c60243445802f8a07b39ad62c28b084f008cc72080bc9776a6bdec58591610d11918a918a9161258d565b60405180910390a26001925050505b60018055949350505050565b6003546001600160a01b031681565b674563918244f4000090565b610d4f611f6c565b6001600160a01b0316610d606110a7565b6001600160a01b031614610d865760405162461bcd60e51b81526004016105d690612e9f565b6001600160a01b038116610dac5760405162461bcd60e51b81526004016105d690612f54565b600480546001600160a01b0319166001600160a01b0383169081179091556040517ff60a7d245ccf77dd2036da1a1ad14a8c5dba1a9ccc98b56d0ad004b140c9472390600090a250565b6004546001600160a01b031681565b610e0d611f6c565b6001600160a01b0316610e1e6110a7565b6001600160a01b031614610e445760405162461bcd60e51b81526004016105d690612e9f565b6001600160a01b038116610e6a5760405162461bcd60e51b81526004016105d690612c71565b60007f00000000000000000000000000000000000000000000000000000000000000006001600160a01b0316638b94a8e26040518163ffffffff1660e01b815260040160206040518083038186803b158015610ec557600080fd5b505afa158015610ed9573d6000803e3d6000fd5b505050506040513d601f19601f82011682018060405250810190610efd9190612264565b604051632474521560e21b81529091506001600160a01b037f000000000000000000000000000000000000000000000000000000000000000016906391d1485490610f4e9084908690600401612576565b60206040518083038186803b158015610f6657600080fd5b505afa158015610f7a573d6000803e3d6000fd5b505050506040513d601f19601f82011682018060405250810190610f9e919061224a565b610aaa5760405162461bcd60e51b81526004016105d6906129ba565b610fc2611f6c565b6001600160a01b0316610fd36110a7565b6001600160a01b031614610ff95760405162461bcd60e51b81526004016105d690612e9f565b600080546040516001600160a01b0390911690600080516020613508833981519152908390a3600080546001600160a01b0319169055565b6801158e460913d0000081565b674563918244f4000081565b6002546001600160a01b031681565b600660209081526000928352604080842090915290825290205481565b60076020526000908152604090205481565b6001600160a01b0381166000908152600760205260409020545b919050565b6000546001600160a01b031690565b80518082016020908101805160088252928201919093012091528054600182015460028301546003909301546001600160a01b0392831693919092169160ff1684565b611101611f6c565b6001600160a01b03166111126110a7565b6001600160a01b0316146111385760405162461bcd60e51b81526004016105d690612e9f565b6001600160a01b03811661115e5760405162461bcd60e51b81526004016105d69061324f565b600380546001600160a01b0319166001600160a01b0383169081179091556040517fcb36ba9fb6b00797b047f7ee0bd8a7a2e9035de6fdcb2cd93c50aaa91d2c1bbc90600090a250565b6005546001600160a01b031633146111d25760405162461bcd60e51b81526004016105d6906126b0565b6001600160a01b0383166111f85760405162461bcd60e51b81526004016105d6906125f4565b6001600160a01b03821661121e5760405162461bcd60e51b81526004016105d690612854565b604051637160572b60e01b81526000906001600160a01b037f00000000000000000000000000000000000000000000000000000000000000001690637160572b9061126d908790600401612515565b60006040518083038186803b15801561128557600080fd5b505afa158015611299573d6000803e3d6000fd5b505050506040513d6000823e601f3d908101601f191682016040526112c1919081019061232e565b905080608001516112e45760405162461bcd60e51b81526004016105d690613286565b604051631650d7c160e21b81526000906001600160a01b037f000000000000000000000000000000000000000000000000000000000000000016906359435f0490611333908790600401612515565b60006040518083038186803b15801561134b57600080fd5b505afa15801561135f573d6000803e3d6000fd5b505050506040513d6000823e601f3d908101601f1916820160405261138791908101906123ff565b905080606001516113aa5760405162461bcd60e51b81526004016105d690612b5c565b6001600160a01b03808616600081815260066020908152604080832094891680845294909152908190208690555133907ffcbafc2c7d8791bb6ad7ee03317625c081371655d277ef5abf133add155be5f1906114079088906133f8565b60405180910390a45050505050565b60006002600154141561143b5760405162461bcd60e51b81526004016105d690613218565b60026001556003546001600160a01b0316331461146a5760405162461bcd60e51b81526004016105d690612884565b6001600160a01b0386166114905760405162461bcd60e51b81526004016105d6906132bd565b6001600160a01b0385166114b65760405162461bcd60e51b81526004016105d690612d4a565b826114d35760405162461bcd60e51b81526004016105d6906130b5565b600082116114f35760405162461bcd60e51b81526004016105d69061278a565b60088484604051611505929190612502565b9081526040519081900360200190206003015460ff16156115385760405162461bcd60e51b81526004016105d690612c24565b6001600160a01b038087166000908152600660209081526040808320938916835292905220548061157b5760405162461bcd60e51b81526004016105d690612a54565b8083111561159b5760405162461bcd60e51b81526004016105d690612624565b6001600160a01b0387166000908152600760205260408120546115bf908590613474565b905068056bc75e2d631000008111156115ea5760405162461bcd60e51b81526004016105d690612e50565b8347101561160a5760405162461bcd60e51b81526004016105d690612a0f565b604080516080810182526001600160a01b03808b168252891660208201528082018690526001606082015290516008906116479089908990612502565b9081526040805160209281900383018120845181546001600160a01b03199081166001600160a01b03928316178355868601516001840180549092169083161790558584015160028301556060909501516003909101805460ff19169115159190911790558b8416600081815260079094529190922084905591891691907f8832efea4e13c2ed683f9c0908aba7265d18c42517933ebeea3b4d9092f3655b906116f6908a908a908a9061258d565b60405180910390a3505060018080559695505050505050565b6801158e460913d0000090565b7f000000000000000000000000000000000000000000000000000000000000000081565b7f000000000000000000000000000000000000000000000000000000000000000081565b68056bc75e2d6310000081565b68056bc75e2d6310000090565b6005546001600160a01b031633146117a85760405162461bcd60e51b81526004016105d6906126b0565b600260015414156117cb5760405162461bcd60e51b81526004016105d690613218565b60026001556001600160a01b0382166117f65760405162461bcd60e51b81526004016105d690613065565b604051632474521560e21b81526001600160a01b037f000000000000000000000000000000000000000000000000000000000000000016906391d14854906118449084908690600401612576565b60206040518083038186803b15801561185c57600080fd5b505afa158015611870573d6000803e3d6000fd5b505050506040513d601f19601f82011682018060405250810190611894919061224a565b6118b05760405162461bcd60e51b81526004016105d690613149565b60007f00000000000000000000000000000000000000000000000000000000000000006001600160a01b0316638b94a8e26040518163ffffffff1660e01b815260040160206040518083038186803b15801561190b57600080fd5b505afa15801561191f573d6000803e3d6000fd5b505050506040513d601f19601f820116820180604052508101906119439190612264565b9050808214156119655760405162461bcd60e51b81526004016105d690613306565b6001600160a01b038316316801158e460913d0000081106119985760405162461bcd60e51b81526004016105d690612f8b565b674563918244f40000478111156119c15760405162461bcd60e51b81526004016105d690612aa5565b6000856001600160a01b0316826040516119da90612512565b60006040518083038185875af1925050503d8060008114611a17576040519150601f19603f3d011682016040523d82523d6000602084013e611a1c565b606091505b5050905080611a3d5760405162461bcd60e51b81526004016105d690613030565b856001600160a01b0316336001600160a01b03167fe2080c8fc8d86c864d8dc081fadaebf2be7191086615e786f954420f13ed122a84604051611a8091906133f8565b60405180910390a350506001805550505050565b600060026001541415611ab95760405162461bcd60e51b81526004016105d690613218565b60026001556003546001600160a01b03163314611ae85760405162461bcd60e51b81526004016105d690612884565b6001600160a01b038516611b0e5760405162461bcd60e51b81526004016105d6906128bb565b82611b2b5760405162461bcd60e51b81526004016105d69061293d565b600060088585604051611b3f929190612502565b908152604051908190036020019020600381015490915060ff16611b755760405162461bcd60e51b81526004016105d690612d01565b80546001600160a01b03878116911614611ba15760405162461bcd60e51b81526004016105d69061319d565b82816002015414611bc45760405162461bcd60e51b81526004016105d690612977565b60038101805460ff19169055600281015481546001600160a01b031660009081526007602052604081208054909190611bfe90849061348c565b9091555050805460028201546040516001600160a01b03909216917f1065ba1a5e4d9d087a309d86a9ce14c67c7dbef9aa278a382c31e408d826cbdd91611c48918991899161258d565b60405180910390a250506001808055949350505050565b611c67611f70565b60088383604051611c79929190612502565b90815260408051918290036020908101832060808401835280546001600160a01b039081168552600182015416918401919091526002810154918301919091526003015460ff1615156060820152905092915050565b6001600160a01b03918216600090815260066020908152604080832093909416825291909152205490565b611d02611f6c565b6001600160a01b0316611d136110a7565b6001600160a01b031614611d395760405162461bcd60e51b81526004016105d690612e9f565b6001600160a01b038116611d5f5760405162461bcd60e51b81526004016105d6906128f7565b600080546040516001600160a01b038085169392169160008051602061350883398151915291a3600080546001600160a01b0319166001600160a01b0392909216919091179055565b60026001541415611dcb5760405162461bcd60e51b81526004016105d690613218565b6002600181905554339034906001600160a01b0316611dfc5760405162461bcd60e51b81526004016105d690612bce565b60025460405163be9d3db360e01b81526000916001600160a01b03169063be9d3db390611e2d908690600401612515565b60206040518083038186803b158015611e4557600080fd5b505afa158015611e59573d6000803e3d6000fd5b505050506040513d601f19601f82011682018060405250810190611e7d9190612264565b905060008111611e9f5760405162461bcd60e51b81526004016105d690612dde565b808214611ebe5760405162461bcd60e51b81526004016105d690612d93565b826001600160a01b03167f5b2867009c0e15ae94a5d29f41dc792d26e95e9ab9a5ef8ebd64e7b41fd6015a83604051611ef791906133f8565b60405180910390a260025460405163f83ea09f60e01b81526001600160a01b039091169063f83ea09f90611f319086908690600401612552565b600060405180830381600087803b158015611f4b57600080fd5b505af1158015611f5f573d6000803e3d6000fd5b5050600180555050505050565b3390565b60408051608081018252600080825260208201819052918101829052606081019190915290565b80516110a2816134cf565b805180151581146110a257600080fd5b60008083601f840112611fc3578182fd5b5081356001600160401b03811115611fd9578182fd5b602083019150836020828501011115611ff157600080fd5b9250929050565b600082601f830112612008578081fd5b815161201b6120168261344d565b613424565b81815260208581848701011115612030578384fd5b835b8381101561204d578581018201518382018301528101612032565b8381111561205d57848285850101525b509095945050505050565b600060208284031215612079578081fd5b8135612084816134cf565b9392505050565b600080600080606085870312156120a0578283fd5b84356120ab816134cf565b93506020850135925060408501356001600160401b038111156120cc578283fd5b6120d887828801611fb2565b95989497509550505050565b600080604083850312156120f6578182fd5b8235612101816134cf565b91506020830135612111816134cf565b809150509250929050565b600080600080600060808688031215612133578081fd5b853561213e816134cf565b9450602086013561214e816134cf565b935060408601356001600160401b03811115612168578182fd5b61217488828901611fb2565b96999598509660600135949350505050565b60008060006060848603121561219a578283fd5b83356121a5816134cf565b925060208401356121b5816134cf565b929592945050506040919091013590565b600080604083850312156121d8578182fd5b82356121e3816134cf565b946020939093013593505050565b60008060008060608587031215612206578384fd5b8435612211816134cf565b935060208501356001600160401b0381111561222b578384fd5b61223787828801611fb2565b9598909750949560400135949350505050565b60006020828403121561225b578081fd5b61208482611fa2565b600060208284031215612275578081fd5b5051919050565b6000806020838503121561228e578182fd5b82356001600160401b038111156122a3578283fd5b6122af85828601611fb2565b90969095509350505050565b6000602082840312156122cc578081fd5b81356001600160401b038111156122e1578182fd5b8201601f810184136122f1578182fd5b80356122ff6120168261344d565b818152856020838501011115612313578384fd5b81602084016020830137908101602001929092525092915050565b60006020828403121561233f578081fd5b81516001600160401b0380821115612355578283fd5b9083019060c08286031215612368578283fd5b61237260c0613424565b61237b83611f97565b815260208301518281111561238e578485fd5b61239a87828601611ff8565b6020830152506040830151828111156123b1578485fd5b6123bd87828601611ff8565b6040830152506123cf60608401611f97565b60608201526123e060808401611fa2565b60808201526123f160a08401611f97565b60a082015295945050505050565b600060208284031215612410578081fd5b81516001600160401b0380821115612426578283fd5b9083019060808286031215612439578283fd5b604051608081018181108382111715612454576124546134b9565b6040528251612462816134cf565b8152602083015182811115612475578485fd5b61248187828601611ff8565b60208301525061249360408401611fa2565b60408201526124a460608401611fa2565b606082015295945050505050565b6000806000606084860312156124c6578081fd5b8335925060208401356121b5816134cf565b60008284528282602086013780602084860101526020601f19601f85011685010190509392505050565b6000828483379101908152919050565b90565b6001600160a01b0391909116815260200190565b6001600160a01b0394851681529290931660208301526040820152901515606082015260800190565b6001600160a01b03929092168252602082015260400190565b901515815260200190565b9182526001600160a01b0316602082015260400190565b6000604082526125a16040830185876124d8565b9050826020830152949350505050565b60208082526023908201527f43544d3a204e67616e20717579206b686f6e67206475207469656e206465206860408201526237b0b760e91b606082015260800190565b60208082526022908201526000805160206134e8833981519152604082015261726f60f01b606082015260800190565b60208082526036908201527f43544d3a20536f207469656e2076756f74207175612067696f692068616e206360408201527568696e682073616368206d6f6920646f6e2068616e6760501b606082015260800190565b6020808252601c908201527b43544d3a20527574207469656e206368756e6720746861742062616960201b604082015260600190565b6020808252602c908201527f43544d3a204e67756f6920676f69206b686f6e672070686169204769616d206460408201526b0dec640a8c2d240c6d0d2dcd60a31b606082015260800190565b60208082526031908201527f43544d3a204769616d20646f63206d6f69207468696575207661692074726f2060408201527046494e5f4449524543544f525f524f4c4560781b606082015260800190565b6020808252602f9082015260008051602061356883398151915260408201526e39379032329033b4b0b4903733b0b760891b606082015260800190565b60208082526024908201527f43544d3a20536f207469656e206b79207175792070686169206c6120736f2064604082015263756f6e6760e01b606082015260800190565b60208082526031908201527f43544d3a2044696120636869206b686163682068616e67206b686f6e6720686f60408201527038103632903232903437b0b7103a34b2b760791b606082015260800190565b6020808252818101527f43544d3a204e4343206b686f6e67206b686f702064652067696169206e67616e604082015260600190565b6020808252602290820152600080516020613568833981519152604082015261726f60f01b606082015260800190565b6020808252601e908201527f43544d3a204e67756f6920676f69206b686f6e6720706861692057534f4d0000604082015260600190565b6020808252602e908201526000805160206134e883398151915260408201526d726f20646520686f616e2074726160901b606082015260800190565b60208082526026908201527f4f776e61626c653a206e6577206f776e657220697320746865207a65726f206160408201526564647265737360d01b606082015260800190565b6020808252602c9082015260008051602061354883398151915260408201526b20646520686f616e2074726160a01b606082015260800190565b60208082526023908201527f43544d3a20536f207469656e206b686f6e67206b686f7020646520686f616e2060408201526274726160e81b606082015260800190565b60208082526035908201527f43544d3a20446961206368692064756f632067616e207468696575207661692060408201527474726f2046494e5f4449524543544f525f524f4c4560581b606082015260800190565b60208082526025908201527f43544d3a204e67616e20717579206b686f6e67206475207469656e206465206b604082015264792071757960d81b606082015260800190565b60208082526031908201527f43544d3a204b686f6e6720636f206368696e6820736163682063686920746965604082015270752063686f206b686f2f6e6363206e617960781b606082015260800190565b6020808252601b908201527a21aa269d102733b0b71038babc9035b437b73390323a903a34b2b760291b604082015260600190565b6020808252601d908201527f43544d3a20536f207469656e2070686169206c6120736f2064756f6e67000000604082015260600190565b6020808252602b908201527f43544d3a204769616d20646f63206d6f69206b686f6e6720746865206c61206460408201526a696120636869207a65726f60a81b606082015260800190565b6020808252601f908201527f43544d3a204e4343206b686f6e6720746f6e207461692074726f6e6720494d00604082015260600190565b6020808252602d9082015260008051602061354883398151915260408201526c1032329033b4b0b4903733b0b760991b606082015260800190565b60208082526036908201527f43544d3a204469612063686920526f6c654d616e6167656d656e7420646179206040820152750647520636875612064756f63207468696574206c61760541b606082015260800190565b6020808252602d908201527f43544d3a204944206b7920717579206461206b69636820686f617420686f616360408201526c206b686f6e6720686f70206c6560981b606082015260800190565b60208082526027908201527f43544d3a2044696120636869204769616d20646f63206b686f6e6720746865206040820152666c61207a65726f60c81b606082015260800190565b60208082526029908201527f43544d3a204e67756f69206e68616e206b686f6e6720746865206c612064696160408201526820636869207a65726f60b81b606082015260800190565b6020808252603b9082015260008051602061352883398151915260408201527a206b686f6e672074696d207468617920646520686f616e2074726160281b606082015260800190565b60208082526029908201527f43544d3a2044696120636869204e4343206b7920717579206b686f6e6720746860408201526865206c61207a65726f60b81b606082015260800190565b6020808252602b908201527f43544d3a20536f207469656e20676f70206b686f6e672064756e6720766f692060408201526a3232903c3ab0ba103b37b760a91b606082015260800190565b6020808252604c908201527f43544d3a204b686f6e6720636f206465207875617420766f6e2063686f20756e60408201527f67207669656e206e617920686f616320526f6c654d616e6167656d656e74206360608201526b6875612073616e2073616e6760a01b608082015260a00190565b6020808252602f908201527f43544d3a2056756f74207175612067696f692068616e2063686920746965752060408201526e64696e68206b7920637561206b686f60881b606082015260800190565b6020808252818101527f4f776e61626c653a2063616c6c6572206973206e6f7420746865206f776e6572604082015260600190565b6020808252818101527f43544d3a20536f207469656e20686f616e2070686169206c6f6e20686f6e2030604082015260600190565b6020808252602b908201527f43544d3a2043686920434f4d206d6f692064756f63207965752063617520686f60408201526a616e207469656e206e617960a81b606082015260800190565b6020808252601d908201527f43544d3a204469612063686920434f4d206b686f6e6720686f70206c65000000604082015260600190565b6020808252603b908201527f43544d3a20536f20647520637561206e67756f6920676975207661692074726f60408201527a206d75632074696575206b686f6e672064756f69206e67756f6e6760281b606082015260800190565b6020808252603c9082015260008051602061352883398151915260408201527b1035b437b733903a34b6903a3430bc9032329033b4b0b4903733b0b760211b606082015260800190565b6020808252818101527f43544d3a2043687579656e207469656e206e6f6920626f207468617420626169604082015260600190565b60208082526030908201527f43544d3a2044696120636869206e67756f6920676975207661692074726f206b60408201526f686f6e6720746865206c61207a65726f60801b606082015260800190565b60208082526027908201527f43544d3a20494420646f6e2068616e67206b7920717579206b686f6e672064756040820152666f6320726f6e6760c81b606082015260800190565b6020808252602d908201527f43544d3a20486f616e207469656e2063686f206b68616368207475206e67616e60408201526c2071757920746861742062616960981b606082015260800190565b60208082526034908201527f43544d3a2044696120636869206d75632074696575206b686f6e6720636f20766040820152730c2d240e8e4de40c8eadec640c6d0d240c8d2dcd60631b606082015260800190565b6020808252601f908201527f43544d3a204b686f206b686f6e67206b686f7020646520686f616e2074726100604082015260600190565b60208082526024908201527f43544d3a20536f207469656e206b686f6e67206b686f702064652067696169206040820152633733b0b760e11b606082015260800190565b6020808252601f908201527f5265656e7472616e637947756172643a207265656e7472616e742063616c6c00604082015260600190565b6020808252601e908201527f43544d3a20446961206368692057534f4d206b686f6e6720686f70206c650000604082015260600190565b6020808252601f908201527f43544d3a204b686f206b686f6e6720746f6e207461692074726f6e6720494d00604082015260600190565b60208082526029908201527f43544d3a2044696120636869206b686f206b7920717579206b686f6e6720746860408201526865206c61207a65726f60b81b606082015260800190565b60208082526044908201527f43544d3a204b686f6e6720746865206e6170207469656e2063686f207661692060408201527f74726f204769616d20646f6320546169206368696e68207468656f2063616368606082015263206e617960e01b608082015260a00190565b6020808252602d908201527f43544d3a204769616d20646f63206d6f69207472756e6720766f69206769616d60408201526c20646f63206869656e2074616960981b606082015260800190565b81516001600160a01b039081168252602080840151909116908201526040808301519082015260609182015115159181019190915260800190565b90815260200190565b60008482526040602083015261341b6040830184866124d8565b95945050505050565b6040518181016001600160401b0381118282101715613445576134456134b9565b604052919050565b60006001600160401b03821115613466576134666134b9565b50601f01601f191660200190565b60008219821115613487576134876134a3565b500190565b60008282101561349e5761349e6134a3565b500390565b634e487b7160e01b600052601160045260246000fd5b634e487b7160e01b600052604160045260246000fd5b6001600160a01b03811681146134e457600080fd5b5056fe43544d3a2044696120636869206b686f206b686f6e6720746865206c61207a658be0079c531659141344cd1fd0a4f28419497f9722a3daafe3b4186f6b6457e043544d3a204b7920717579206b686f6e67206b69636820686f617420686f616343544d3a20494420646f6e2068616e67206b686f6e672064756f6320726f6e6743544d3a2044696120636869204e4343206b686f6e6720746865206c61207a65a2646970667358221220b485d3aebd33a4c43ec783a4cb0339cdd06076e2b84d9d96db64068e4d06f96f64736f6c63430008000033",
  "immutableReferences": {
    "4158": [
      {
        "length": 32,
        "start": 2352
      },
      {
        "length": 32,
        "start": 2521
      },
      {
        "length": 32,
        "start": 3694
      },
      {
        "length": 32,
        "start": 3863
      },
      {
        "length": 32,
        "start": 5918
      },
      {
        "length": 32,
        "start": 6157
      },
      {
        "length": 32,
        "start": 6324
      }
    ],
    "4161": [
      {
        "length": 32,
        "start": 4664
      },
      {
        "length": 32,
        "start": 4862
      },
      {
        "length": 32,
        "start": 5954
      }
    ]
  },
  "source": "// SPDX-License-Identifier: MIT\r\npragma solidity ^0.8.0; \r\n\r\nimport \"@openzeppelin/contracts/access/Ownable.sol\";\r\nimport \"@openzeppelin/contracts/security/ReentrancyGuard.sol\"; //  sa ng dn import\r\n\r\n// --- INTERFACES ---\r\n// Khai bo trc cu trc t ItemsManagement (nu bn dng struct trc tip trong interface)\r\n// Nu khng, ch cn khai bo interface l .\r\ncontract ItemsManagement { \r\n    struct PhysicalLocationInfo { address locationId; string name; string locationType; address manager; bool exists; address designatedSourceWarehouseAddress; }\r\n    struct SupplierInfo { address supplierId; string name; bool isApprovedByBoard; bool exists;}\r\n}\r\n\r\n// Interface cho RoleManagement \r\ninterface IRoleManagementMinimalInterface { // Interface ti thiu RoleManagement m CTM cn\r\n    function FINANCE_DIRECTOR_ROLE() external view returns (bytes32);\r\n    function WAREHOUSE_MANAGER_ROLE() external view returns (bytes32); // Gi li nu cn dng cho logic top-up\r\n    function hasRole(bytes32 role, address account) external view returns (bool);\r\n}\r\n\r\n// Interface MI  CTM tng tc vi RoleManagement cho vic kch hot BH\r\ninterface IRoleManagementForBoardActivationInterface {\r\n    function activateBoardMemberByTreasury(address candidate, uint256 contributedAmount) external;\r\n    function getProposedShareCapital(address candidate) external view returns (uint256);\r\n}\r\n\r\n// Interface cho ItemsManagement\r\ninterface IItemsManagementMinimalInterface { // Interface ti thiu ItemsManagement m CTM cn\r\n    function getWarehouseInfo(address warehouseAddress) external view returns (ItemsManagement.PhysicalLocationInfo memory);\r\n    function getSupplierInfo(address supplierAddress) external view returns (ItemsManagement.SupplierInfo memory);\r\n}\r\n// --- END INTERFACES ---\r\n\r\n\r\n// Hp ng Qun l Ngn qu Cng ty\r\ncontract CompanyTreasuryManager is Ownable, ReentrancyGuard {\r\n    IRoleManagementMinimalInterface public immutable roleManagement;    // Dng interface ti thiu\r\n    IItemsManagementMinimalInterface public immutable itemsManagement; // Dng interface ti thiu\r\n    \r\n    address public roleManagementFullAddress; // a ch y  ca RoleManagement cho vic kch hot BH v cc chc nng khc nu cn\r\n    address public warehouseSupplierOrderManagement;\r\n    address public customerOrderManagementAddress; \r\n\r\n    address public financeDirector; \r\n\r\n    uint256 public constant INTERNAL_ROLE_TOP_UP_THRESHOLD = 20 ether;\r\n    uint256 public constant INTERNAL_ROLE_TOP_UP_AMOUNT = 5 ether;\r\n    mapping(address => mapping(address => uint256)) public warehouseSpendingPolicies; \r\n    mapping(address => uint256) public warehouseSpendingThisPeriod; \r\n    uint256 public constant WAREHOUSE_SPENDING_LIMIT_PER_PERIOD = 100 ether;\r\n    struct EscrowDetails { address warehouseAddress; address supplierAddress; uint256 amount; bool active; }\r\n    mapping(string => EscrowDetails) public activeEscrows;\r\n\r\n    // S kin\r\n    event FundsDeposited(address indexed from, uint256 amount);\r\n    event InitialCapitalReceived(uint256 amount); // Vn ban u khi deploy CTM\r\n    event BoardMemberContributionReceived(address indexed candidate, uint256 amount); // Khi ng vin BH gp vn\r\n    event InternalTransfer(address indexed by, address indexed toRoleHolder, uint256 amount);\r\n    event SupplierPaymentEscrowed(string internalOrderId, address indexed warehouse, address indexed supplier, uint256 amount);\r\n    event SupplierPaymentReleased(string internalOrderId, address indexed supplier, uint256 amount);\r\n    event EscrowRefunded(string internalOrderId, address indexed warehouse, uint256 amount);\r\n    event SpendingPolicySet(address indexed setBy, address indexed warehouse, address indexed supplier, uint256 maxAmount);\r\n    event FinanceDirectorSet(address indexed newDirector);\r\n    event RoleManagementFullAddressSet(address indexed rmFullAddress);\r\n    event WarehouseSupplierOrderManagementAddressSet(address indexed wsomAddress);\r\n    event CustomerOrderManagementAddressSet(address indexed comAddress);\r\n    event GeneralWithdrawal(address indexed by, address indexed recipient, uint256 amount, string reason);\r\n    event CustomerRefundProcessedFromTreasury(uint256 indexed orderId, address indexed customer, uint256 amount);\r\n\r\n    modifier onlyFinanceDirector() {\r\n        require(msg.sender == financeDirector, \"CTM: Nguoi goi khong phai Giam doc Tai chinh\");\r\n        _;\r\n    }\r\n\r\n    constructor(\r\n        address _roleManagementAddress,     // a ch RoleManagement\r\n        address _itemsManagementAddress,\r\n        uint256 _expectedInitialCapital     // Vn ban u khi deploy CTM (v d, t ngi deploy t gp)\r\n    ) Ownable() payable { // Sa: Ownable() khng c tham s\r\n        require(_roleManagementAddress != address(0), \"CTM: Dia chi RoleManagement khong hop le\");\r\n        require(_itemsManagementAddress != address(0), \"CTM: Dia chi ItemsManagement khong hop le\");\r\n        require(_expectedInitialCapital >= 0, \"CTM: Von ban dau du kien khong the am\"); // Cho php vn ban u l 0\r\n        roleManagement = IRoleManagementMinimalInterface(_roleManagementAddress);\r\n        itemsManagement = IItemsManagementMinimalInterface(_itemsManagementAddress);\r\n        roleManagementFullAddress = _roleManagementAddress; // Lu a ch y   gi cc hm trong IRoleManagementForBoardActivation\r\n\r\n        if (_expectedInitialCapital > 0) {\r\n            require(msg.value == _expectedInitialCapital, \"CTM: So von ban dau gui khong chinh xac\");\r\n            emit InitialCapitalReceived(msg.value);\r\n        } else {\r\n            // Nu vn ban u d kin l 0, khng nn gi Ether km theo\r\n            require(msg.value == 0, \"CTM: Khong nen gui Ether neu von ban dau du kien la 0\");\r\n        }\r\n    }\r\n\r\n    function setWarehouseSupplierOrderManagementAddress(address _wsomAddress) external onlyOwner {\r\n        require(_wsomAddress != address(0), \"CTM: Dia chi WSOM khong hop le\");\r\n        warehouseSupplierOrderManagement = _wsomAddress;\r\n        emit WarehouseSupplierOrderManagementAddressSet(_wsomAddress);\r\n    }\r\n\r\n    function setCustomerOrderManagementAddress(address _comAddress) external onlyOwner {\r\n        require(_comAddress != address(0), \"CTM: Dia chi COM khong hop le\");\r\n        customerOrderManagementAddress = _comAddress;\r\n        emit CustomerOrderManagementAddressSet(_comAddress);\r\n    }\r\n\r\n    function setInitialFinanceDirector(address _director) external onlyOwner {\r\n        require(_director != address(0), \"CTM: Dia chi Giam doc khong the la zero\");\r\n        bytes32 finDirectorRole = roleManagement.FINANCE_DIRECTOR_ROLE(); \r\n        require(roleManagement.hasRole(finDirectorRole, _director), \"CTM: Dia chi duoc gan thieu vai tro FIN_DIRECTOR_ROLE\");\r\n        financeDirector = _director;\r\n        emit FinanceDirectorSet(_director);\r\n    }\r\n\r\n    receive() external payable {\r\n        emit FundsDeposited(msg.sender, msg.value);\r\n    }\r\n\r\n    function transferToInternalRole(address _roleHolderAddress, bytes32 _roleKey)\r\n        external\r\n        onlyFinanceDirector\r\n        nonReentrant\r\n    {\r\n        require(_roleHolderAddress != address(0), \"CTM: Dia chi nguoi giu vai tro khong the la zero\");\r\n        require(roleManagement.hasRole(_roleKey, _roleHolderAddress), \"CTM: Dia chi muc tieu khong co vai tro duoc chi dinh\");\r\n        bytes32 finDirectorRole = roleManagement.FINANCE_DIRECTOR_ROLE();\r\n        require(_roleKey != finDirectorRole, \"CTM: Khong the nap tien cho vai tro Giam doc Tai chinh theo cach nay\");\r\n\r\n        uint256 targetBalance = _roleHolderAddress.balance;\r\n        require(targetBalance < INTERNAL_ROLE_TOP_UP_THRESHOLD, \"CTM: So du cua nguoi giu vai tro muc tieu khong duoi nguong\");\r\n        uint256 amountToSend = INTERNAL_ROLE_TOP_UP_AMOUNT;\r\n        require(address(this).balance >= amountToSend, \"CTM: Ngan quy khong du tien\");\r\n\r\n        (bool success, ) = payable(_roleHolderAddress).call{value: amountToSend}(\"\");\r\n        require(success, \"CTM: Chuyen tien noi bo that bai\");\r\n        emit InternalTransfer(msg.sender, _roleHolderAddress, amountToSend);\r\n    }\r\n\r\n    function setWarehouseSpendingPolicy(\r\n        address _warehouseAddress,\r\n        address _supplierAddress,\r\n        uint256 _maxAmountPerOrder\r\n    ) external onlyFinanceDirector {\r\n        require(_warehouseAddress != address(0), \"CTM: Dia chi kho khong the la zero\");\r\n        require(_supplierAddress != address(0), \"CTM: Dia chi NCC khong the la zero\");\r\n\r\n        ItemsManagement.PhysicalLocationInfo memory whInfo = itemsManagement.getWarehouseInfo(_warehouseAddress);\r\n        require(whInfo.exists, \"CTM: Kho khong ton tai trong IM\");\r\n        ItemsManagement.SupplierInfo memory supInfo = itemsManagement.getSupplierInfo(_supplierAddress);\r\n        require(supInfo.exists, \"CTM: NCC khong ton tai trong IM\");\r\n\r\n        warehouseSpendingPolicies[_warehouseAddress][_supplierAddress] = _maxAmountPerOrder;\r\n        emit SpendingPolicySet(msg.sender, _warehouseAddress, _supplierAddress, _maxAmountPerOrder);\r\n    }\r\n\r\n    function generalWithdrawal(address payable _recipient, uint256 _amount, string calldata _reason)\r\n        external\r\n        onlyFinanceDirector\r\n        nonReentrant\r\n    {\r\n        require(_recipient != address(0), \"CTM: Nguoi nhan khong the la dia chi zero\");\r\n        require(_amount > 0, \"CTM: So tien phai la so duong\");\r\n        require(address(this).balance >= _amount, \"CTM: Ngan quy khong du tien\");\r\n\r\n        (bool success, ) = _recipient.call{value: _amount}(\"\");\r\n        require(success, \"CTM: Rut tien chung that bai\");\r\n        emit GeneralWithdrawal(msg.sender, _recipient, _amount, _reason);\r\n    }\r\n\r\n    function changeFinanceDirector(address _newDirector) external onlyOwner {\r\n        require(_newDirector != address(0), \"CTM: Giam doc moi khong the la dia chi zero\");\r\n        bytes32 finDirectorRole = roleManagement.FINANCE_DIRECTOR_ROLE();\r\n        require(roleManagement.hasRole(finDirectorRole, _newDirector), \"CTM: Giam doc moi thieu vai tro FIN_DIRECTOR_ROLE\");\r\n        require(_newDirector != financeDirector, \"CTM: Giam doc moi trung voi giam doc hien tai\");\r\n        financeDirector = _newDirector;\r\n        emit FinanceDirectorSet(_newDirector);\r\n    }\r\n\r\n    function requestEscrowForSupplierOrder(\r\n        address _warehouseAddress,\r\n        address _supplierAddress,\r\n        string calldata _internalSupplierOrderId,\r\n        uint256 _amount\r\n    ) external nonReentrant returns (bool) {\r\n        require(msg.sender == warehouseSupplierOrderManagement, \"CTM: Nguoi goi khong phai WSOM\");\r\n        require(_warehouseAddress != address(0), \"CTM: Dia chi kho ky quy khong the la zero\");\r\n        require(_supplierAddress != address(0), \"CTM: Dia chi NCC ky quy khong the la zero\");\r\n        require(bytes(_internalSupplierOrderId).length > 0, \"CTM: ID don hang ky quy khong duoc rong\");\r\n        require(_amount > 0, \"CTM: So tien ky quy phai la so duong\");\r\n        require(!activeEscrows[_internalSupplierOrderId].active, \"CTM: ID ky quy da kich hoat hoac khong hop le\");\r\n\r\n        uint256 maxAmountAllowed = warehouseSpendingPolicies[_warehouseAddress][_supplierAddress];\r\n        require(maxAmountAllowed > 0, \"CTM: Khong co chinh sach chi tieu cho kho/ncc nay\");\r\n        require(_amount <= maxAmountAllowed, \"CTM: So tien vuot qua gioi han chinh sach moi don hang\");\r\n\r\n        uint256 spendingAfterThisOrder = warehouseSpendingThisPeriod[_warehouseAddress] + _amount;\r\n        require(spendingAfterThisOrder <= WAREHOUSE_SPENDING_LIMIT_PER_PERIOD, \"CTM: Vuot qua gioi han chi tieu dinh ky cua kho\");\r\n        require(address(this).balance >= _amount, \"CTM: Ngan quy khong du tien de ky quy\");\r\n\r\n        activeEscrows[_internalSupplierOrderId] = EscrowDetails({\r\n            warehouseAddress: _warehouseAddress, supplierAddress: _supplierAddress, amount: _amount, active: true\r\n        });\r\n        warehouseSpendingThisPeriod[_warehouseAddress] = spendingAfterThisOrder;\r\n        emit SupplierPaymentEscrowed(_internalSupplierOrderId, _warehouseAddress, _supplierAddress, _amount);\r\n        return true;\r\n    }\r\n\r\n    function releaseEscrowToSupplier(\r\n        address _supplierAddressToVerify,\r\n        string calldata _internalSupplierOrderId,\r\n        uint256 _amountToVerify\r\n    ) external nonReentrant returns (bool) {\r\n        require(msg.sender == warehouseSupplierOrderManagement, \"CTM: Nguoi goi khong phai WSOM\");\r\n        require(_supplierAddressToVerify != address(0), \"CTM: Dia chi NCC khong the la zero de giai ngan\");\r\n        require(bytes(_internalSupplierOrderId).length > 0, \"CTM: ID don hang khong duoc rong de giai ngan\");\r\n\r\n        EscrowDetails storage escrow = activeEscrows[_internalSupplierOrderId];\r\n        require(escrow.active, \"CTM: Ky quy khong kich hoat hoac khong tim thay de giai ngan\");\r\n        require(escrow.supplierAddress == _supplierAddressToVerify, \"CTM: NCC khong khop de giai ngan\");\r\n        require(escrow.amount == _amountToVerify, \"CTM: So tien khong khop de giai ngan\");\r\n\r\n        escrow.active = false;\r\n        (bool success, ) = payable(escrow.supplierAddress).call{value: escrow.amount}(\"\");\r\n        if (!success) {\r\n            escrow.active = true; \r\n            return false;\r\n        }\r\n        emit SupplierPaymentReleased(_internalSupplierOrderId, escrow.supplierAddress, escrow.amount);\r\n        return true;\r\n    }\r\n\r\n    function refundEscrowToTreasury(\r\n        address _warehouseAddressToVerify,\r\n        string calldata _internalSupplierOrderId,\r\n        uint256 _amountToVerify\r\n    ) external nonReentrant returns (bool) {\r\n        require(msg.sender == warehouseSupplierOrderManagement, \"CTM: Nguoi goi khong phai WSOM\");\r\n        require(_warehouseAddressToVerify != address(0), \"CTM: Dia chi kho khong the la zero de hoan tra\");\r\n        require(bytes(_internalSupplierOrderId).length > 0, \"CTM: ID don hang khong duoc rong de hoan tra\");\r\n\r\n        EscrowDetails storage escrow = activeEscrows[_internalSupplierOrderId];\r\n        require(escrow.active, \"CTM: Ky quy khong kich hoat hoac khong tim thay de hoan tra\");\r\n        require(escrow.warehouseAddress == _warehouseAddressToVerify, \"CTM: Kho khong khop de hoan tra\");\r\n        require(escrow.amount == _amountToVerify, \"CTM: So tien khong khop de hoan tra\");\r\n\r\n        escrow.active = false;\r\n        warehouseSpendingThisPeriod[escrow.warehouseAddress] -= escrow.amount;\r\n        emit EscrowRefunded(_internalSupplierOrderId, escrow.warehouseAddress, escrow.amount);\r\n        return true;\r\n    }\r\n\r\n    function refundCustomerOrderFromTreasury(\r\n        uint256 _orderId, \r\n        address payable _customerAddress, \r\n        uint256 _amountToRefund\r\n    )\r\n        external\r\n        nonReentrant\r\n    {\r\n        require(msg.sender == customerOrderManagementAddress, \"CTM: Chi COM moi duoc yeu cau hoan tien nay\");\r\n        require(_customerAddress != address(0), \"CTM: Dia chi khach hang khong hop le de hoan tien\");\r\n        require(_amountToRefund > 0, \"CTM: So tien hoan phai lon hon 0\");\r\n        require(address(this).balance >= _amountToRefund, \"CTM: Ngan quy khong du tien de hoan\");\r\n\r\n        (bool success, ) = _customerAddress.call{value: _amountToRefund}(\"\");\r\n        require(success, \"CTM: Hoan tien cho khach tu ngan quy that bai\");\r\n\r\n        emit CustomerRefundProcessedFromTreasury(_orderId, _customerAddress, _amountToRefund);\r\n    }\r\n\r\n    // ng vin BH gi vn gp vo y\r\n    function receiveBoardMemberContribution() external payable nonReentrant {\r\n        address candidate = msg.sender;\r\n        uint256 amountContributed = msg.value;\r\n\r\n        require(roleManagementFullAddress != address(0), \"CTM: Dia chi RoleManagement day du chua duoc thiet lap\");\r\n        \r\n        uint256 proposedCapital = IRoleManagementForBoardActivationInterface(roleManagementFullAddress).getProposedShareCapital(candidate);\r\n        \r\n        require(proposedCapital > 0, \"CTM: Khong co de xuat von cho ung vien nay hoac RoleManagement chua san sang\");\r\n        require(amountContributed == proposedCapital, \"CTM: So tien gop khong dung voi de xuat von\");\r\n\r\n        // msg.value  t ng c cng vo s d ca contract ny\r\n        emit BoardMemberContributionReceived(candidate, amountContributed);\r\n\r\n        // Gi li RoleManagement  kch hot thnh vin\r\n        IRoleManagementForBoardActivationInterface(roleManagementFullAddress).activateBoardMemberByTreasury(candidate, amountContributed);\r\n    }\r\n\r\n    function getBalance() external view returns (uint256) { return address(this).balance; }\r\n    function getWarehouseSpendingPolicy(address _warehouseAddress, address _supplierAddress) external view returns (uint256) { return warehouseSpendingPolicies[_warehouseAddress][_supplierAddress]; }\r\n    function getWarehouseSpendingThisPeriod(address _warehouseAddress) external view returns (uint256) { return warehouseSpendingThisPeriod[_warehouseAddress]; }\r\n    function getEscrowDetails(string calldata _internalSupplierOrderId) external view returns (EscrowDetails memory) { return activeEscrows[_internalSupplierOrderId]; }\r\n    function WAREHOUSE_SPENDING_LIMIT_PER_PERIOD_CONST() external pure returns (uint256) { return WAREHOUSE_SPENDING_LIMIT_PER_PERIOD; }\r\n    function INTERNAL_ROLE_TOP_UP_THRESHOLD_CONST() external pure returns (uint256) { return INTERNAL_ROLE_TOP_UP_THRESHOLD; }\r\n    function INTERNAL_ROLE_TOP_UP_AMOUNT_CONST() external pure returns (uint256) { return INTERNAL_ROLE_TOP_UP_AMOUNT; }\r\n}",
  "sourcePath": "D:\\nhi\\Logtech\\New tech in Log\\dapp2\\SC\\contracts\\Money.sol",
  "compiler": {
    "name": "solc",
    "version": "0.8.0+commit.c7dfd78e.Emscripten.clang"
  },
  "schemaVersion": "3.4.16",
  "updatedAt": "2025-06-02T03:33:10.749Z",
  "devdoc": {
    "kind": "dev",
    "methods": {
      "owner()": {
        "details": "Returns the address of the current owner."
      },
      "renounceOwnership()": {
        "details": "Leaves the contract without owner. It will not be possible to call `onlyOwner` functions anymore. Can only be called by the current owner. NOTE: Renouncing ownership will leave the contract without an owner, thereby removing any functionality that is only available to the owner."
      },
      "transferOwnership(address)": {
        "details": "Transfers ownership of the contract to a new account (`newOwner`). Can only be called by the current owner."
      }
    },
    "version": 1
  },
  "userdoc": {
    "kind": "user",
    "methods": {},
    "version": 1
  }
}