{
  "contractName": "CustomerOrderManagement",
  "abi": [
    {
      "inputs": [
        {
          "internalType": "address",
          "name": "_roleManagementAddress",
          "type": "address"
        },
        {
          "internalType": "address",
          "name": "_itemsManagementCoreAddress",
          "type": "address"
        },
        {
          "internalType": "address",
          "name": "_itemsPricingAndListingAddress",
          "type": "address"
        },
        {
          "internalType": "address",
          "name": "_companyTreasuryManagerAddress",
          "type": "address"
        }
      ],
      "stateMutability": "nonpayable",
      "type": "constructor"
    },
    {
      "anonymous": false,
      "inputs": [
        {
          "indexed": true,
          "internalType": "uint256",
          "name": "orderId",
          "type": "uint256"
        },
        {
          "indexed": false,
          "internalType": "uint256",
          "name": "amount",
          "type": "uint256"
        },
        {
          "indexed": true,
          "internalType": "address",
          "name": "treasuryAddress",
          "type": "address"
        }
      ],
      "name": "FundsReleasedToCompanyTreasury",
      "type": "event"
    },
    {
      "anonymous": false,
      "inputs": [
        {
          "indexed": true,
          "internalType": "uint256",
          "name": "orderId",
          "type": "uint256"
        },
        {
          "indexed": true,
          "internalType": "address",
          "name": "canceller",
          "type": "address"
        },
        {
          "indexed": false,
          "internalType": "enum CustomerOrderManagement.OrderStatus",
          "name": "newStatus",
          "type": "uint8"
        },
        {
          "indexed": false,
          "internalType": "string",
          "name": "reason",
          "type": "string"
        },
        {
          "indexed": false,
          "internalType": "uint256",
          "name": "amountRefunded",
          "type": "uint256"
        }
      ],
      "name": "OrderCancelled",
      "type": "event"
    },
    {
      "anonymous": false,
      "inputs": [
        {
          "indexed": true,
          "internalType": "uint256",
          "name": "orderId",
          "type": "uint256"
        },
        {
          "indexed": true,
          "internalType": "address",
          "name": "customer",
          "type": "address"
        }
      ],
      "name": "OrderCompletedByCustomer",
      "type": "event"
    },
    {
      "anonymous": false,
      "inputs": [
        {
          "indexed": true,
          "internalType": "uint256",
          "name": "orderId",
          "type": "uint256"
        },
        {
          "indexed": true,
          "internalType": "address",
          "name": "storeAddress",
          "type": "address"
        },
        {
          "indexed": true,
          "internalType": "address",
          "name": "byStoreManager",
          "type": "address"
        }
      ],
      "name": "OrderDeliveryConfirmedByStore",
      "type": "event"
    },
    {
      "anonymous": false,
      "inputs": [
        {
          "indexed": true,
          "internalType": "uint256",
          "name": "orderId",
          "type": "uint256"
        },
        {
          "indexed": false,
          "internalType": "uint256",
          "name": "itemIndexInOrder",
          "type": "uint256"
        },
        {
          "indexed": false,
          "internalType": "string",
          "name": "itemId",
          "type": "string"
        },
        {
          "indexed": false,
          "internalType": "enum CustomerOrderManagement.OrderItemStatus",
          "name": "newItemStatus",
          "type": "uint8"
        },
        {
          "indexed": true,
          "internalType": "address",
          "name": "byStoreManager",
          "type": "address"
        }
      ],
      "name": "OrderItemStatusUpdatedByStore",
      "type": "event"
    },
    {
      "anonymous": false,
      "inputs": [
        {
          "indexed": true,
          "internalType": "uint256",
          "name": "orderId",
          "type": "uint256"
        },
        {
          "indexed": false,
          "internalType": "enum CustomerOrderManagement.OrderStatus",
          "name": "newStatus",
          "type": "uint8"
        },
        {
          "indexed": false,
          "internalType": "uint256",
          "name": "timestamp",
          "type": "uint256"
        }
      ],
      "name": "OrderOverallStatusUpdated",
      "type": "event"
    },
    {
      "anonymous": false,
      "inputs": [
        {
          "indexed": true,
          "internalType": "uint256",
          "name": "orderId",
          "type": "uint256"
        },
        {
          "indexed": true,
          "internalType": "address",
          "name": "customer",
          "type": "address"
        },
        {
          "indexed": true,
          "internalType": "address",
          "name": "storeAddress",
          "type": "address"
        },
        {
          "indexed": false,
          "internalType": "uint256",
          "name": "totalAmount",
          "type": "uint256"
        }
      ],
      "name": "OrderPlaced",
      "type": "event"
    },
    {
      "anonymous": false,
      "inputs": [
        {
          "indexed": true,
          "internalType": "uint256",
          "name": "orderId",
          "type": "uint256"
        },
        {
          "indexed": true,
          "internalType": "address",
          "name": "storeAddress",
          "type": "address"
        },
        {
          "indexed": true,
          "internalType": "address",
          "name": "byStoreManager",
          "type": "address"
        }
      ],
      "name": "OrderReadyForDelivery",
      "type": "event"
    },
    {
      "anonymous": false,
      "inputs": [
        {
          "indexed": true,
          "internalType": "uint256",
          "name": "orderId",
          "type": "uint256"
        },
        {
          "indexed": true,
          "internalType": "address",
          "name": "customer",
          "type": "address"
        },
        {
          "indexed": false,
          "internalType": "address",
          "name": "returnToWarehouse",
          "type": "address"
        },
        {
          "indexed": false,
          "internalType": "string",
          "name": "reason",
          "type": "string"
        }
      ],
      "name": "OrderReturnProcessed",
      "type": "event"
    },
    {
      "anonymous": false,
      "inputs": [
        {
          "indexed": true,
          "internalType": "address",
          "name": "previousOwner",
          "type": "address"
        },
        {
          "indexed": true,
          "internalType": "address",
          "name": "newOwner",
          "type": "address"
        }
      ],
      "name": "OwnershipTransferred",
      "type": "event"
    },
    {
      "anonymous": false,
      "inputs": [
        {
          "indexed": true,
          "internalType": "address",
          "name": "simAddress",
          "type": "address"
        }
      ],
      "name": "StoreInventoryManagementAddressSet",
      "type": "event"
    },
    {
      "anonymous": false,
      "inputs": [
        {
          "indexed": true,
          "internalType": "address",
          "name": "wimAddress",
          "type": "address"
        }
      ],
      "name": "WarehouseInventoryManagementAddressSet",
      "type": "event"
    },
    {
      "inputs": [],
      "name": "companyTreasuryManager",
      "outputs": [
        {
          "internalType": "contract ICompanyTreasuryManagerInterface",
          "name": "",
          "type": "address"
        }
      ],
      "stateMutability": "view",
      "type": "function",
      "constant": true
    },
    {
      "inputs": [
        {
          "internalType": "address",
          "name": "",
          "type": "address"
        },
        {
          "internalType": "uint256",
          "name": "",
          "type": "uint256"
        }
      ],
      "name": "customerOrderIds",
      "outputs": [
        {
          "internalType": "uint256",
          "name": "",
          "type": "uint256"
        }
      ],
      "stateMutability": "view",
      "type": "function",
      "constant": true
    },
    {
      "inputs": [],
      "name": "itemsManagementCore",
      "outputs": [
        {
          "internalType": "contract IItemsManagementCoreInterface",
          "name": "",
          "type": "address"
        }
      ],
      "stateMutability": "view",
      "type": "function",
      "constant": true
    },
    {
      "inputs": [],
      "name": "itemsPricingAndListing",
      "outputs": [
        {
          "internalType": "contract IItemsPricingAndListingInterface",
          "name": "",
          "type": "address"
        }
      ],
      "stateMutability": "view",
      "type": "function",
      "constant": true
    },
    {
      "inputs": [],
      "name": "nextOrderId",
      "outputs": [
        {
          "internalType": "uint256",
          "name": "",
          "type": "uint256"
        }
      ],
      "stateMutability": "view",
      "type": "function",
      "constant": true
    },
    {
      "inputs": [
        {
          "internalType": "uint256",
          "name": "",
          "type": "uint256"
        }
      ],
      "name": "orders",
      "outputs": [
        {
          "internalType": "uint256",
          "name": "orderId",
          "type": "uint256"
        },
        {
          "internalType": "address",
          "name": "customerAddress",
          "type": "address"
        },
        {
          "internalType": "address",
          "name": "storeAddress",
          "type": "address"
        },
        {
          "internalType": "uint256",
          "name": "totalAmountPaid",
          "type": "uint256"
        },
        {
          "internalType": "enum CustomerOrderManagement.OrderStatus",
          "name": "status",
          "type": "uint8"
        },
        {
          "internalType": "uint256",
          "name": "creationTimestamp",
          "type": "uint256"
        },
        {
          "internalType": "uint256",
          "name": "lastUpdateTimestamp",
          "type": "uint256"
        },
        {
          "internalType": "bool",
          "name": "fundsReleasedToCompany",
          "type": "bool"
        }
      ],
      "stateMutability": "view",
      "type": "function",
      "constant": true
    },
    {
      "inputs": [],
      "name": "owner",
      "outputs": [
        {
          "internalType": "address",
          "name": "",
          "type": "address"
        }
      ],
      "stateMutability": "view",
      "type": "function",
      "constant": true
    },
    {
      "inputs": [],
      "name": "renounceOwnership",
      "outputs": [],
      "stateMutability": "nonpayable",
      "type": "function"
    },
    {
      "inputs": [],
      "name": "roleManagement",
      "outputs": [
        {
          "internalType": "contract IRoleManagementInterface",
          "name": "",
          "type": "address"
        }
      ],
      "stateMutability": "view",
      "type": "function",
      "constant": true
    },
    {
      "inputs": [
        {
          "internalType": "address",
          "name": "",
          "type": "address"
        },
        {
          "internalType": "uint256",
          "name": "",
          "type": "uint256"
        }
      ],
      "name": "storeAssignedOrderIds",
      "outputs": [
        {
          "internalType": "uint256",
          "name": "",
          "type": "uint256"
        }
      ],
      "stateMutability": "view",
      "type": "function",
      "constant": true
    },
    {
      "inputs": [],
      "name": "storeInventoryManagement",
      "outputs": [
        {
          "internalType": "contract IStoreInventoryManagementInterface",
          "name": "",
          "type": "address"
        }
      ],
      "stateMutability": "view",
      "type": "function",
      "constant": true
    },
    {
      "inputs": [
        {
          "internalType": "address",
          "name": "newOwner",
          "type": "address"
        }
      ],
      "name": "transferOwnership",
      "outputs": [],
      "stateMutability": "nonpayable",
      "type": "function"
    },
    {
      "inputs": [],
      "name": "warehouseInventoryManagement",
      "outputs": [
        {
          "internalType": "contract IWarehouseInventoryManagementInterface",
          "name": "",
          "type": "address"
        }
      ],
      "stateMutability": "view",
      "type": "function",
      "constant": true
    },
    {
      "inputs": [
        {
          "internalType": "address",
          "name": "_simAddress",
          "type": "address"
        }
      ],
      "name": "setStoreInventoryManagementAddress",
      "outputs": [],
      "stateMutability": "nonpayable",
      "type": "function"
    },
    {
      "inputs": [
        {
          "internalType": "address",
          "name": "_wimAddress",
          "type": "address"
        }
      ],
      "name": "setWarehouseInventoryManagementAddress",
      "outputs": [],
      "stateMutability": "nonpayable",
      "type": "function"
    },
    {
      "inputs": [
        {
          "components": [
            {
              "internalType": "string",
              "name": "itemId",
              "type": "string"
            },
            {
              "internalType": "uint256",
              "name": "quantity",
              "type": "uint256"
            }
          ],
          "internalType": "struct CustomerOrderManagement.OrderItemInput[]",
          "name": "_orderItemsInput",
          "type": "tuple[]"
        },
        {
          "internalType": "address",
          "name": "_storeAddress",
          "type": "address"
        }
      ],
      "name": "placeOrder",
      "outputs": [],
      "stateMutability": "payable",
      "type": "function",
      "payable": true
    },
    {
      "inputs": [
        {
          "internalType": "uint256",
          "name": "_orderId",
          "type": "uint256"
        },
        {
          "internalType": "uint256",
          "name": "_itemIndex",
          "type": "uint256"
        },
        {
          "internalType": "enum CustomerOrderManagement.OrderItemStatus",
          "name": "_newStatus",
          "type": "uint8"
        }
      ],
      "name": "storeUpdateOrderItemStatus",
      "outputs": [],
      "stateMutability": "nonpayable",
      "type": "function"
    },
    {
      "inputs": [
        {
          "internalType": "uint256",
          "name": "_orderId",
          "type": "uint256"
        }
      ],
      "name": "storeConfirmAllItemsReadyForDelivery",
      "outputs": [],
      "stateMutability": "nonpayable",
      "type": "function"
    },
    {
      "inputs": [
        {
          "internalType": "uint256",
          "name": "_orderId",
          "type": "uint256"
        }
      ],
      "name": "storeConfirmDeliveryToCustomer",
      "outputs": [],
      "stateMutability": "nonpayable",
      "type": "function"
    },
    {
      "inputs": [
        {
          "internalType": "uint256",
          "name": "_orderId",
          "type": "uint256"
        }
      ],
      "name": "customerConfirmReceipt",
      "outputs": [],
      "stateMutability": "nonpayable",
      "type": "function"
    },
    {
      "inputs": [
        {
          "internalType": "uint256",
          "name": "_orderId",
          "type": "uint256"
        },
        {
          "internalType": "string",
          "name": "_reason",
          "type": "string"
        }
      ],
      "name": "cancelOrderByStore",
      "outputs": [],
      "stateMutability": "nonpayable",
      "type": "function"
    },
    {
      "inputs": [
        {
          "internalType": "uint256",
          "name": "_orderId",
          "type": "uint256"
        },
        {
          "internalType": "string",
          "name": "_reason",
          "type": "string"
        }
      ],
      "name": "customerCancelOrderBeforeDelivery",
      "outputs": [],
      "stateMutability": "nonpayable",
      "type": "function"
    },
    {
      "inputs": [
        {
          "internalType": "uint256",
          "name": "_orderId",
          "type": "uint256"
        },
        {
          "internalType": "address",
          "name": "_returnToWarehouseAddress",
          "type": "address"
        },
        {
          "internalType": "string",
          "name": "_reason",
          "type": "string"
        }
      ],
      "name": "customerReturnOrderAfterReceipt",
      "outputs": [],
      "stateMutability": "nonpayable",
      "type": "function"
    },
    {
      "inputs": [
        {
          "internalType": "uint256",
          "name": "_orderId",
          "type": "uint256"
        }
      ],
      "name": "getOrderDetails",
      "outputs": [
        {
          "components": [
            {
              "internalType": "uint256",
              "name": "orderId",
              "type": "uint256"
            },
            {
              "internalType": "address",
              "name": "customerAddress",
              "type": "address"
            },
            {
              "internalType": "address",
              "name": "storeAddress",
              "type": "address"
            },
            {
              "components": [
                {
                  "internalType": "string",
                  "name": "itemId",
                  "type": "string"
                },
                {
                  "internalType": "uint256",
                  "name": "quantity",
                  "type": "uint256"
                },
                {
                  "internalType": "uint256",
                  "name": "unitPrice",
                  "type": "uint256"
                },
                {
                  "internalType": "enum CustomerOrderManagement.OrderItemStatus",
                  "name": "status",
                  "type": "uint8"
                }
              ],
              "internalType": "struct CustomerOrderManagement.OrderItem[]",
              "name": "items",
              "type": "tuple[]"
            },
            {
              "internalType": "uint256",
              "name": "totalAmountPaid",
              "type": "uint256"
            },
            {
              "internalType": "enum CustomerOrderManagement.OrderStatus",
              "name": "status",
              "type": "uint8"
            },
            {
              "internalType": "uint256",
              "name": "creationTimestamp",
              "type": "uint256"
            },
            {
              "internalType": "uint256",
              "name": "lastUpdateTimestamp",
              "type": "uint256"
            },
            {
              "internalType": "bool",
              "name": "fundsReleasedToCompany",
              "type": "bool"
            }
          ],
          "internalType": "struct CustomerOrderManagement.Order",
          "name": "",
          "type": "tuple"
        }
      ],
      "stateMutability": "view",
      "type": "function",
      "constant": true
    },
    {
      "inputs": [
        {
          "internalType": "uint256",
          "name": "_orderId",
          "type": "uint256"
        }
      ],
      "name": "getOrderItems",
      "outputs": [
        {
          "components": [
            {
              "internalType": "string",
              "name": "itemId",
              "type": "string"
            },
            {
              "internalType": "uint256",
              "name": "quantity",
              "type": "uint256"
            },
            {
              "internalType": "uint256",
              "name": "unitPrice",
              "type": "uint256"
            },
            {
              "internalType": "enum CustomerOrderManagement.OrderItemStatus",
              "name": "status",
              "type": "uint8"
            }
          ],
          "internalType": "struct CustomerOrderManagement.OrderItem[]",
          "name": "",
          "type": "tuple[]"
        }
      ],
      "stateMutability": "view",
      "type": "function",
      "constant": true
    },
    {
      "inputs": [
        {
          "internalType": "address",
          "name": "_customer",
          "type": "address"
        }
      ],
      "name": "getCustomerOrders",
      "outputs": [
        {
          "internalType": "uint256[]",
          "name": "",
          "type": "uint256[]"
        }
      ],
      "stateMutability": "view",
      "type": "function",
      "constant": true
    },
    {
      "inputs": [
        {
          "internalType": "address",
          "name": "_store",
          "type": "address"
        }
      ],
      "name": "getStoreAssignedOrders",
      "outputs": [
        {
          "internalType": "uint256[]",
          "name": "",
          "type": "uint256[]"
        }
      ],
      "stateMutability": "view",
      "type": "function",
      "constant": true
    },
    {
      "inputs": [
        {
          "internalType": "address payable",
          "name": "_to",
          "type": "address"
        }
      ],
      "name": "emergencyWithdrawEther",
      "outputs": [],
      "stateMutability": "nonpayable",
      "type": "function"
    }
  ],
  "bytecode": "0x6101006040523480156200001257600080fd5b50604051620046dd380380620046dd833981016040819052620000359162000266565b6001600081815581546001600160a01b031916339081179092556040518291907f8be0079c531659141344cd1fd0a4f28419497f9722a3daafe3b4186f6b6457e0908290a3506001600160a01b038416620000d75760405162461bcd60e51b815260206004820152601c60248201527f434f4d3a204469612063686920524d206b686f6e6720686f70206c650000000060448201526064015b60405180910390fd5b6001600160601b0319606085901b166080526001600160a01b0383166200014d5760405162461bcd60e51b8152602060048201526024808201527f434f4d3a2044696120636869204974656d734d436f7265206b686f6e6720686f60448201526370206c6560e01b6064820152608401620000ce565b6001600160601b0319606084901b1660a0526001600160a01b038216620001c15760405162461bcd60e51b815260206004820152602160248201527f434f4d3a2044696120636869204974656d73504c206b686f6e6720686f70206c6044820152606560f81b6064820152608401620000ce565b6001600160601b0319606083901b1660c0526001600160a01b0381166200022b5760405162461bcd60e51b815260206004820152601d60248201527f434f4d3a20446961206368692043544d206b686f6e6720686f70206c650000006044820152606401620000ce565b60601b6001600160601b03191660e0525050600160045550620002c2565b80516001600160a01b03811681146200026157600080fd5b919050565b600080600080608085870312156200027c578384fd5b620002878562000249565b9350620002976020860162000249565b9250620002a76040860162000249565b9150620002b76060860162000249565b905092959194509250565b60805160601c60a05160601c60c05160601c60e05160601c61435e6200037f6000396000818161028e01528181611e3a01528181611f320152612a7801526000818161031701526108ce01526000818161021a015281816106d401528181610d2801528181611372015281816118af015261204901526000818161048401528181610de401528181610e8d0152818161142e015281816114d70152818161196b01528181611a140152818161210501526121ae015261435e6000f3fe6080604052600436106101475760003560e01c80630aa1be391461014c5780630abd47631461016157806314693b751461019757806322f974d2146101c55780632a58b330146101f25780632eb3292f1461020857806338a3b2d81461023c5780635d942d421461025c5780635f6778811461027c578063675b3724146102b057806368137aeb146102d0578063715018a6146102f05780637b622215146103055780638da5cb5b146103395780638f5b18f11461034e57806390e312611461036e578063a85c38ef1461038e578063b34b29a314610412578063b39399af14610432578063b630afc914610452578063b977ba1814610472578063c10940ad146104a6578063deeb2b9c146104c6578063ec7dd7bb146104e6578063f2fde38b14610513578063f4ddd27a14610533578063fb13e2eb14610553578063feedc7d314610580575b600080fd5b61015f61015a366004613774565b6105a0565b005b34801561016d57600080fd5b50600254610181906001600160a01b031681565b60405161018e9190613bc9565b60405180910390f35b3480156101a357600080fd5b506101b76101b2366004613749565b610c17565b60405190815260200161018e565b3480156101d157600080fd5b506101e56101e0366004613726565b610c48565b60405161018e9190613cfb565b3480156101fe57600080fd5b506101b760045481565b34801561021457600080fd5b506101817f000000000000000000000000000000000000000000000000000000000000000081565b34801561024857600080fd5b5061015f6102573660046139eb565b610cb4565b34801561026857600080fd5b506101e5610277366004613726565b611294565b34801561028857600080fd5b506101817f000000000000000000000000000000000000000000000000000000000000000081565b3480156102bc57600080fd5b5061015f6102cb366004613906565b6112fe565b3480156102dc57600080fd5b5061015f6102eb3660046139a2565b61183b565b3480156102fc57600080fd5b5061015f611bf4565b34801561031157600080fd5b506101817f000000000000000000000000000000000000000000000000000000000000000081565b34801561034557600080fd5b50610181611c5b565b34801561035a57600080fd5b506101b7610369366004613749565b611c6a565b34801561037a57600080fd5b5061015f610389366004613906565b611c86565b34801561039a57600080fd5b506103fe6103a9366004613906565b60056020819052600091825260409091208054600182015460028301546004840154948401546006850154600786015460089096015494966001600160a01b0394851696939094169460ff9283169391921688565b60405161018e989796959493929190614082565b34801561041e57600080fd5b50600354610181906001600160a01b031681565b34801561043e57600080fd5b5061015f61044d366004613906565b611fd5565b34801561045e57600080fd5b5061015f61046d3660046139a2565b612481565b34801561047e57600080fd5b506101817f000000000000000000000000000000000000000000000000000000000000000081565b3480156104b257600080fd5b5061015f6104c136600461391e565b612648565b3480156104d257600080fd5b5061015f6104e1366004613726565b612b5e565b3480156104f257600080fd5b50610506610501366004613906565b612cbf565b60405161018e9190613fdf565b34801561051f57600080fd5b5061015f61052e366004613726565b612f45565b34801561053f57600080fd5b5061015f61054e366004613726565b613023565b34801561055f57600080fd5b5061057361056e366004613906565b6130f2565b60405161018e9190613c66565b34801561058c57600080fd5b5061015f61059b366004613726565b61327e565b600260005414156105cc5760405162461bcd60e51b81526004016105c390613fa8565b60405180910390fd5b60026000819055546001600160a01b03166105f95760405162461bcd60e51b81526004016105c390613dcd565b6001600160a01b03811661065a5760405162461bcd60e51b815260206004820152602260248201527f434f4d3a2044696120636869206375612068616e67206b686f6e6720686f70206044820152616c6560f01b60648201526084016105c3565b816106ba5760405162461bcd60e51b815260206004820152602a60248201527f434f4d3a20446f6e2068616e67207068616920636f206974206e686174206d6f60448201526974206d61742068616e6760b01b60648201526084016105c3565b60405163329a587360e01b81526000906001600160a01b037f0000000000000000000000000000000000000000000000000000000000000000169063329a587390610709908590600401613bc9565b60006040518083038186803b15801561072157600080fd5b505afa158015610735573d6000803e3d6000fd5b505050506040513d6000823e601f3d908101601f1916820160405261075d9190810190613826565b905080608001516107ae5760405162461bcd60e51b815260206004820152601b60248201527a434f4d3a204375612068616e67206b686f6e6720746f6e2074616960281b60448201526064016105c3565b60048054600091826107bf83614253565b9091555060008181526005602081905260408220838155600181018054336001600160a01b0319918216179091556002820180549091166001600160a01b038916179055908101805460ff1916905542600682018190556007820155919250805b86811015610af3573688888381811061084957634e487b7160e01b600052603260045260246000fd5b905060200281019061085b919061414a565b905060008160200135116108c15760405162461bcd60e51b815260206004820152602760248201527f434f4d3a20536f206c756f6e67206d61742068616e672070686169206c6120736044820152666f2064756f6e6760c81b60648201526084016105c3565b6000806001600160a01b037f0000000000000000000000000000000000000000000000000000000000000000166375a05d126108fd8580614106565b8c6040518463ffffffff1660e01b815260040161091c93929190613da1565b604080518083038186803b15801561093357600080fd5b505afa158015610947573d6000803e3d6000fd5b505050506040513d601f19601f8201168201806040525081019061096b9190613977565b9150915080801561097c5750600082115b6109dc5760405162461bcd60e51b815260206004820152602b60248201527f434f4d3a20476961206d61742068616e67206b686f6e6720686f70206c65207460448201526a6169206375612068616e6760a81b60648201526084016105c3565b60408051608081019091526003870190806109f78680614106565b8080601f016020809104026020016040519081016040528093929190818152602001838380828437600092018290525093855250505060208781013581840152604083018790526060909201819052835460018101855593815281902082518051939460040290910192610a6e92849201906135a2565b50602082015181600101556040820151816002015560608201518160030160006101000a81548160ff02191690836004811115610abb57634e487b7160e01b600052602160045260246000fd5b0217905550610ad19150506020840135836141c9565b610adb9086614191565b94505050508080610aeb90614253565b915050610820565b50803414610b535760405162461bcd60e51b815260206004820152602760248201527f434f4d3a20536f207469656e207468616e6820746f616e206b686f6e67206368604482015266696e682078616360c81b60648201526084016105c3565b60048201819055336000818152600660209081526040808320805460018082018355918552838520018890556001600160a01b038a168085526007845282852080549283018155855293839020018790555184815291929186917faf03488da094bc08f76858b3b2a0c36a13217c95790c77139137fc6e062ba9cd910160405180910390a4600582015460405184916000805160206142c983398151915291610c019160ff16904290613d86565b60405180910390a2505060016000555050505050565b60066020528160005260406000208181548110610c3357600080fd5b90600052602060002001600091509150505481565b6001600160a01b038116600090815260066020908152604091829020805483518184028101840190945280845260609392830182828015610ca857602002820191906000526020600020905b815481526020019060010190808311610c94575b50505050509050919050565b60008381526005602052604090208054849190610ce35760405162461bcd60e51b81526004016105c390613ee4565b60028101546001600160a01b031680610d0e5760405162461bcd60e51b81526004016105c390613f19565b60405163329a587360e01b81526000906001600160a01b037f0000000000000000000000000000000000000000000000000000000000000000169063329a587390610d5d908590600401613bc9565b60006040518083038186803b158015610d7557600080fd5b505afa158015610d89573d6000803e3d6000fd5b505050506040513d6000823e601f3d908101601f19168201604052610db19190810190613826565b60608101519091506001600160a01b03163314610de05760405162461bcd60e51b81526004016105c390613e04565b60007f00000000000000000000000000000000000000000000000000000000000000006001600160a01b0316631f1077986040518163ffffffff1660e01b815260040160206040518083038186803b158015610e3b57600080fd5b505afa158015610e4f573d6000803e3d6000fd5b505050506040513d601f19601f82011682018060405250810190610e73919061380e565b604051632474521560e21b81529091506001600160a01b037f000000000000000000000000000000000000000000000000000000000000000016906391d1485490610ec49084903390600401613d3f565b60206040518083038186803b158015610edc57600080fd5b505afa158015610ef0573d6000803e3d6000fd5b505050506040513d601f19601f82011682018060405250810190610f1491906137f4565b610f305760405162461bcd60e51b81526004016105c390613f61565b60026000541415610f535760405162461bcd60e51b81526004016105c390613fa8565b6002600090815588815260056020526040812090600582015460ff166007811115610f8e57634e487b7160e01b600052602160045260246000fd5b1480610fc057506001600582015460ff166007811115610fbe57634e487b7160e01b600052602160045260246000fd5b145b61102b5760405162461bcd60e51b8152602060048201526042602482015260008051602061430983398151915260448201527f686f2070686570206375612068616e6720636170206e68617420636869207469606482015261195d60f21b608482015260a4016105c3565b600381015488106110895760405162461bcd60e51b815260206004820152602260248201527f434f4d3a20436869206d7563206d61742068616e67206b686f6e6720686f70206044820152616c6560f01b60648201526084016105c3565b60008160030189815481106110ae57634e487b7160e01b600052603260045260246000fd5b60009182526020909120600490910201905060018860048111156110e257634e487b7160e01b600052602160045260246000fd5b148061110d5750600288600481111561110b57634e487b7160e01b600052602160045260246000fd5b145b806111375750600388600481111561113557634e487b7160e01b600052602160045260246000fd5b145b61119e5760405162461bcd60e51b815260206004820152603260248201527f434f4d3a205472616e67207468616920636170206e6861742063686f206d61746044820152712068616e67206b686f6e6720686f70206c6560701b60648201526084016105c3565b60038101805489919060ff191660018360048111156111cd57634e487b7160e01b600052602160045260246000fd5b021790555042600783015560405133908b907fff0d8a7be28e6f36b6ff784bad0dc3841124462e87f7a201e4961d76481d68b790611210908d9086908e906140d6565b60405180910390a36000600583015460ff16600781111561124157634e487b7160e01b600052602160045260246000fd5b14156112835760058201805460ff191660019081179091556040518b916000805160206142c98339815191529161127a91904290613d86565b60405180910390a25b505060016000555050505050505050565b6001600160a01b038116600090815260076020908152604091829020805483518184028101840190945280845260609392830182828015610ca85760200282019190600052602060002090815481526020019060010190808311610c945750505050509050919050565b6000818152600560205260409020805482919061132d5760405162461bcd60e51b81526004016105c390613ee4565b60028101546001600160a01b0316806113585760405162461bcd60e51b81526004016105c390613f19565b60405163329a587360e01b81526000906001600160a01b037f0000000000000000000000000000000000000000000000000000000000000000169063329a5873906113a7908590600401613bc9565b60006040518083038186803b1580156113bf57600080fd5b505afa1580156113d3573d6000803e3d6000fd5b505050506040513d6000823e601f3d908101601f191682016040526113fb9190810190613826565b60608101519091506001600160a01b0316331461142a5760405162461bcd60e51b81526004016105c390613e04565b60007f00000000000000000000000000000000000000000000000000000000000000006001600160a01b0316631f1077986040518163ffffffff1660e01b815260040160206040518083038186803b15801561148557600080fd5b505afa158015611499573d6000803e3d6000fd5b505050506040513d601f19601f820116820180604052508101906114bd919061380e565b604051632474521560e21b81529091506001600160a01b037f000000000000000000000000000000000000000000000000000000000000000016906391d148549061150e9084903390600401613d3f565b60206040518083038186803b15801561152657600080fd5b505afa15801561153a573d6000803e3d6000fd5b505050506040513d601f19601f8201168201806040525081019061155e91906137f4565b61157a5760405162461bcd60e51b81526004016105c390613f61565b6002600054141561159d5760405162461bcd60e51b81526004016105c390613fa8565b6002600081815587815260056020526040902090600582015460ff1660078111156115d857634e487b7160e01b600052602160045260246000fd5b146116315760405162461bcd60e51b815260206004820152602360248201527f434f4d3a20446f6e2068616e6720636875612073616e2073616e67206465206760448201526269616f60e81b60648201526084016105c3565b6002546001600160a01b03166116595760405162461bcd60e51b81526004016105c390613dcd565b60005b60038201548110156117c057600082600301828154811061168d57634e487b7160e01b600052603260045260246000fd5b60009182526020909120600490910201905060038082015460ff1660048111156116c757634e487b7160e01b600052602160045260246000fd5b1461172e5760405162461bcd60e51b815260206004820152603160248201527f434f4d3a204d6f74206d61742068616e672074726f6e6720646f6e20636875616044820152702073616e2073616e67206465206769616f60781b60648201526084016105c3565b60028054908401546001830154604051631ec3e04f60e21b81526001600160a01b0393841693637b0f813c9361176e939116918691908f90600401613c42565b600060405180830381600087803b15801561178857600080fd5b505af115801561179c573d6000803e3d6000fd5b50505050600301805460ff19166004179055806117b881614253565b91505061165c565b5060058101805460ff19166003179055426007820155600281015460405133916001600160a01b03169089907faed449934768d32ac20f87fd0f552e69568e1eb815079272a728db1ff656911590600090a4600581015460405188916000805160206142c983398151915291610c019160ff16904290613d86565b6000838152600560205260409020805484919061186a5760405162461bcd60e51b81526004016105c390613ee4565b60028101546001600160a01b0316806118955760405162461bcd60e51b81526004016105c390613f19565b60405163329a587360e01b81526000906001600160a01b037f0000000000000000000000000000000000000000000000000000000000000000169063329a5873906118e4908590600401613bc9565b60006040518083038186803b1580156118fc57600080fd5b505afa158015611910573d6000803e3d6000fd5b505050506040513d6000823e601f3d908101601f191682016040526119389190810190613826565b60608101519091506001600160a01b031633146119675760405162461bcd60e51b81526004016105c390613e04565b60007f00000000000000000000000000000000000000000000000000000000000000006001600160a01b0316631f1077986040518163ffffffff1660e01b815260040160206040518083038186803b1580156119c257600080fd5b505afa1580156119d6573d6000803e3d6000fd5b505050506040513d601f19601f820116820180604052508101906119fa919061380e565b604051632474521560e21b81529091506001600160a01b037f000000000000000000000000000000000000000000000000000000000000000016906391d1485490611a4b9084903390600401613d3f565b60206040518083038186803b158015611a6357600080fd5b505afa158015611a77573d6000803e3d6000fd5b505050506040513d601f19601f82011682018060405250810190611a9b91906137f4565b611ab75760405162461bcd60e51b81526004016105c390613f61565b60026000541415611ada5760405162461bcd60e51b81526004016105c390613fa8565b6002600090815588815260056020526040812090600582015460ff166007811115611b1557634e487b7160e01b600052602160045260246000fd5b1480611b4757506001600582015460ff166007811115611b4557634e487b7160e01b600052602160045260246000fd5b145b611b9e5760405162461bcd60e51b81526020600482015260346024820152600080516020614309833981519152604482015273686f2070686570206375612068616e672068757960601b60648201526084016105c3565b611be4893360058b8b8080601f0160208091040260200160405190810160405280939291908181526020018383808284376000920191909152506064925061334d915050565b5050600160005550505050505050565b33611bfd611c5b565b6001600160a01b031614611c235760405162461bcd60e51b81526004016105c390613eaf565b6001546040516000916001600160a01b0316906000805160206142e9833981519152908390a3600180546001600160a01b0319169055565b6001546001600160a01b031690565b60076020528160005260406000208181548110610c3357600080fd5b60008181526005602052604090208054829190611cb55760405162461bcd60e51b81526004016105c390613ee4565b60018101546001600160a01b03163314611ce15760405162461bcd60e51b81526004016105c390613e5b565b60026000541415611d045760405162461bcd60e51b81526004016105c390613fa8565b600260009081558381526005602052604090206003600582015460ff166007811115611d4057634e487b7160e01b600052602160045260246000fd5b14611d9b5760405162461bcd60e51b815260206004820152602560248201527f434f4d3a204375612068616e67206368756120786163206e68616e206769616f6044820152642068616e6760d81b60648201526084016105c3565b600881015460ff1615611e005760405162461bcd60e51b815260206004820152602760248201527f434f4d3a205469656e2064612064756f632067696169206e67616e2063686f20604482015266636f6e6720747960c81b60648201526084016105c3565b600581018054600460ff19918216811790925542600784015560088301805490911660011790558101546040516000916001600160a01b037f000000000000000000000000000000000000000000000000000000000000000016918381818185875af1925050503d8060008114611e93576040519150601f19603f3d011682016040523d82523d6000602084013e611e98565b606091505b5050905080611f035760405162461bcd60e51b815260206004820152603160248201527f434f4d3a2047696169206e67616e207469656e2063686f206e67616e2071757960448201527020636f6e6720747920746861742062616960781b60648201526084016105c3565b604051339086907f66335ab67b17f1df563c368ec1e30a3f6cd36401015614bed9bd38a592d7ed6690600090a37f00000000000000000000000000000000000000000000000000000000000000006001600160a01b0316857f7e027c4d2bafa92ff9f3966ab71f6c3557ade1773984f57ad7c36bd97657b3d98460040154604051611f9091815260200190565b60405180910390a3600582015460405186916000805160206142c983398151915291611fc19160ff16904290613d86565b60405180910390a250506001600055505050565b600081815260056020526040902080548291906120045760405162461bcd60e51b81526004016105c390613ee4565b60028101546001600160a01b03168061202f5760405162461bcd60e51b81526004016105c390613f19565b60405163329a587360e01b81526000906001600160a01b037f0000000000000000000000000000000000000000000000000000000000000000169063329a58739061207e908590600401613bc9565b60006040518083038186803b15801561209657600080fd5b505afa1580156120aa573d6000803e3d6000fd5b505050506040513d6000823e601f3d908101601f191682016040526120d29190810190613826565b60608101519091506001600160a01b031633146121015760405162461bcd60e51b81526004016105c390613e04565b60007f00000000000000000000000000000000000000000000000000000000000000006001600160a01b0316631f1077986040518163ffffffff1660e01b815260040160206040518083038186803b15801561215c57600080fd5b505afa158015612170573d6000803e3d6000fd5b505050506040513d601f19601f82011682018060405250810190612194919061380e565b604051632474521560e21b81529091506001600160a01b037f000000000000000000000000000000000000000000000000000000000000000016906391d14854906121e59084903390600401613d3f565b60206040518083038186803b1580156121fd57600080fd5b505afa158015612211573d6000803e3d6000fd5b505050506040513d601f19601f8201168201806040525081019061223591906137f4565b6122515760405162461bcd60e51b81526004016105c390613f61565b600260005414156122745760405162461bcd60e51b81526004016105c390613fa8565b600260009081558681526005602052604090206001600582015460ff1660078111156122b057634e487b7160e01b600052602160045260246000fd5b1461231d5760405162461bcd60e51b815260206004820152603760248201527f434f4d3a20446f6e2068616e672063687561206f207472616e6720746861692060448201527664616e67207875206c7920626f69206375612068616e6760481b60648201526084016105c3565b60005b600382015481101561240557600382600301828154811061235157634e487b7160e01b600052603260045260246000fd5b600091825260209091206004918202016003015460ff169081111561238657634e487b7160e01b600052602160045260246000fd5b146123f35760405162461bcd60e51b815260206004820152603760248201527f434f4d3a204368756120647520746174206361206d61742068616e672074726f6044820152766e6720646f6e2073616e2073616e67206465206769616f60481b60648201526084016105c3565b806123fd81614253565b915050612320565b5060058101805460ff1916600290811790915542600783015581015460405133916001600160a01b03169089907f1dab13ec0792bd2da6773f87d2a4551f4432a7489644b53bd828762f9e0a2b1890600090a4600581015460405188916000805160206142c983398151915291610c019160ff16904290613d86565b600083815260056020526040902080548491906124b05760405162461bcd60e51b81526004016105c390613ee4565b60018101546001600160a01b031633146124dc5760405162461bcd60e51b81526004016105c390613e5b565b600260005414156124ff5760405162461bcd60e51b81526004016105c390613fa8565b600260009081558581526005602052604090206003600582015460ff16600781111561253b57634e487b7160e01b600052602160045260246000fd5b10801561256e575060058082015460ff16600781111561256b57634e487b7160e01b600052602160045260246000fd5b14155b80156125a157506006600582015460ff16600781111561259e57634e487b7160e01b600052602160045260246000fd5b14155b6125f55760405162461bcd60e51b81526020600482015260316024820152600080516020614309833981519152604482015270686f2070686570206b686163682068757960781b60648201526084016105c3565b61263b8633600688888080601f0160208091040260200160405190810160405280939291908181526020018383808284376000920191909152506064925061334d915050565b5050600160005550505050565b600084815260056020526040902080548591906126775760405162461bcd60e51b81526004016105c390613ee4565b60018101546001600160a01b031633146126a35760405162461bcd60e51b81526004016105c390613e5b565b600260005414156126c65760405162461bcd60e51b81526004016105c390613fa8565b600260009081558681526005602052604090206004600582015460ff16600781111561270257634e487b7160e01b600052602160045260246000fd5b146127675760405162461bcd60e51b815260206004820152602f60248201527f434f4d3a20446f6e2068616e67206368756120686f616e207468616e6820646560448201526e20636f2074686520747261206c616960881b60648201526084016105c3565b6003546001600160a01b03166127d85760405162461bcd60e51b815260206004820152603060248201527f434f4d3a20446961206368692057494d2063686f20766965632074726120686160448201526f1b99c818da1d5848191d5bd8c819185d60821b60648201526084016105c3565b6001600160a01b03861661283d5760405162461bcd60e51b815260206004820152602660248201527f434f4d3a2044696120636869206b686f207472612068616e67206b686f6e6720604482015265686f70206c6560d01b60648201526084016105c3565b60005b6003820154811015612a0357600082600301828154811061287157634e487b7160e01b600052603260045260246000fd5b906000526020600020906004020160405180608001604052908160008201805461289a90614218565b80601f01602080910402602001604051908101604052809291908181526020018280546128c690614218565b80156129135780601f106128e857610100808354040283529160200191612913565b820191906000526020600020905b8154815290600101906020018083116128f657829003601f168201915b50505091835250506001820154602082015260028201546040820152600382015460609091019060ff16600481111561295c57634e487b7160e01b600052602160045260246000fd5b600481111561297b57634e487b7160e01b600052602160045260246000fd5b905250600354815160208301516040516312d2f4d960e11b81529394506001600160a01b03909216926325a5e9b2926129bd928d929091908f90600401613c0b565b600060405180830381600087803b1580156129d757600080fd5b505af11580156129eb573d6000803e3d6000fd5b505050505080806129fb90614253565b915050612840565b5060058101805460ff1916600790811790915542908201556004810154605a90600090606490612a349084906141c9565b612a3e91906141a9565b90508015612ad757600183015460405163088cbd9f60e11b8152600481018b90526001600160a01b039182166024820152604481018390527f0000000000000000000000000000000000000000000000000000000000000000909116906311197b3e90606401600060405180830381600087803b158015612abe57600080fd5b505af1158015612ad2573d6000803e3d6000fd5b505050505b336001600160a01b0316897f4f533528ae53070b62e1048a5f0ccfb2bc89f73e252f9bd9f431b3226e649a2b8a8a8a604051612b1593929190613bdd565b60405180910390a360058301546040518a916000805160206142c983398151915291612b469160ff16904290613d86565b60405180910390a25050600160005550505050505050565b33612b67611c5b565b6001600160a01b031614612b8d5760405162461bcd60e51b81526004016105c390613eaf565b60026000541415612bb05760405162461bcd60e51b81526004016105c390613fa8565b60026000556001600160a01b038116612c0a5760405162461bcd60e51b815260206004820152601c60248201527b434f4d3a204e67756f69206e68616e206b686f6e6720686f70206c6560201b60448201526064016105c3565b478015612cb6576000826001600160a01b03168260405160006040518083038185875af1925050503d8060008114612c5e576040519150601f19603f3d011682016040523d82523d6000602084013e612c63565b606091505b5050905080612cb45760405162461bcd60e51b815260206004820152601f60248201527f434f4d3a20527574207469656e206b68616e206361702074686174206261690060448201526064016105c3565b505b50506001600055565b60408051610120810182526000808252602082018190529181018290526060808201526080810182905260a0810182905260c0810182905260e08101829052610100810191909152600082815260056020526040902054612d325760405162461bcd60e51b81526004016105c390613ee4565b60008281526005602090815260408083208151610120810183528154815260018201546001600160a01b039081168286015260028301541681840152600382018054845181870281018701909552808552919592946060870194939192919084015b82821015612ebb5783829060005260206000209060040201604051806080016040529081600082018054612dc790614218565b80601f0160208091040260200160405190810160405280929190818152602001828054612df390614218565b8015612e405780601f10612e1557610100808354040283529160200191612e40565b820191906000526020600020905b815481529060010190602001808311612e2357829003601f168201915b50505091835250506001820154602082015260028201546040820152600382015460609091019060ff166004811115612e8957634e487b7160e01b600052602160045260246000fd5b6004811115612ea857634e487b7160e01b600052602160045260246000fd5b8152505081526020019060010190612d94565b5050509082525060048201546020820152600582015460409091019060ff166007811115612ef957634e487b7160e01b600052602160045260246000fd5b6007811115612f1857634e487b7160e01b600052602160045260246000fd5b8152600682015460208201526007820154604082015260089091015460ff16151560609091015292915050565b33612f4e611c5b565b6001600160a01b031614612f745760405162461bcd60e51b81526004016105c390613eaf565b6001600160a01b038116612fd95760405162461bcd60e51b815260206004820152602660248201527f4f776e61626c653a206e6577206f776e657220697320746865207a65726f206160448201526564647265737360d01b60648201526084016105c3565b6001546040516001600160a01b038084169216906000805160206142e983398151915290600090a3600180546001600160a01b0319166001600160a01b0392909216919091179055565b3361302c611c5b565b6001600160a01b0316146130525760405162461bcd60e51b81526004016105c390613eaf565b6001600160a01b0381166130a85760405162461bcd60e51b815260206004820152601d60248201527f434f4d3a20446961206368692057494d206b686f6e6720686f70206c6500000060448201526064016105c3565b600380546001600160a01b0319166001600160a01b0383169081179091556040517f9d00bdb4c1bf918df98c2197d7890603abf58babbc46d1a0442c1d92855fa12990600090a250565b6000818152600560205260409020546060906131205760405162461bcd60e51b81526004016105c390613ee4565b600082815260056020908152604080832060030180548251818502810185019093528083529193909284015b82821015613273578382906000526020600020906004020160405180608001604052908160008201805461317f90614218565b80601f01602080910402602001604051908101604052809291908181526020018280546131ab90614218565b80156131f85780601f106131cd576101008083540402835291602001916131f8565b820191906000526020600020905b8154815290600101906020018083116131db57829003601f168201915b50505091835250506001820154602082015260028201546040820152600382015460609091019060ff16600481111561324157634e487b7160e01b600052602160045260246000fd5b600481111561326057634e487b7160e01b600052602160045260246000fd5b815250508152602001906001019061314c565b505050509050919050565b33613287611c5b565b6001600160a01b0316146132ad5760405162461bcd60e51b81526004016105c390613eaf565b6001600160a01b0381166133035760405162461bcd60e51b815260206004820152601d60248201527f434f4d3a20446961206368692053494d206b686f6e6720686f70206c6500000060448201526064016105c3565b600280546001600160a01b0319166001600160a01b0383169081179091556040517fb875684c9dfb17eb2f1c703cb1df8211b9cdee7ccde9c141ba5a4395d71a1a0490600090a250565b6000858152600560205260409020600881015460ff16156133d15760405162461bcd60e51b815260206004820152603860248201527f434f4d3a204b686f6e6720746865206875792f686f616e207469656e2c207469604482015277656e2064612063687579656e2063686f20636f6e6720747960401b60648201526084016105c3565b60058101805485919060ff1916600183600781111561340057634e487b7160e01b600052602160045260246000fd5b021790555042600782015560008215801590613420575060008260040154115b1561352257606483836004015461343791906141c9565b61344191906141a9565b905080156135225760018201546040516000916001600160a01b03169083908381818185875af1925050503d8060008114613498576040519150601f19603f3d011682016040523d82523d6000602084013e61349d565b606091505b50509050806135205760405162461bcd60e51b815260206004820152604360248201527f434f4d3a20486f616e207469656e2063686f206b68616368207468617420626160448201527f69206b68692068757920646f6e2c20766965632068757920626920686f616e2060648201526274616360e81b608482015260a4016105c3565b505b856001600160a01b0316877feba1817ccb06d5f92c1e7d42559efe15538ea2a2fe0b5a7d05fc83766d39ec4c87878560405161356093929190613d56565b60405180910390a3600582015460405188916000805160206142c9833981519152916135919160ff16904290613d86565b60405180910390a250505050505050565b8280546135ae90614218565b90600052602060002090601f0160209004810192826135d05760008555613616565b82601f106135e957805160ff1916838001178555613616565b82800160010185558215613616579182015b828111156136165782518255916020019190600101906135fb565b50613622929150613626565b5090565b5b808211156136225760008155600101613627565b8051613646816142b0565b919050565b8051801515811461364657600080fd5b60008083601f84011261366c578182fd5b5081356001600160401b03811115613682578182fd5b60208301915083602082850101111561369a57600080fd5b9250929050565b600082601f8301126136b1578081fd5b81516001600160401b03808211156136cb576136cb61429a565b604051601f8301601f19908116603f011681019082821181831017156136f3576136f361429a565b8160405283815286602085880101111561370b578485fd5b61371c8460208301602089016141e8565b9695505050505050565b600060208284031215613737578081fd5b8135613742816142b0565b9392505050565b6000806040838503121561375b578081fd5b8235613766816142b0565b946020939093013593505050565b600080600060408486031215613788578081fd5b83356001600160401b038082111561379e578283fd5b818601915086601f8301126137b1578283fd5b8135818111156137bf578384fd5b8760208260051b85010111156137d3578384fd5b602092830195509350508401356137e9816142b0565b809150509250925092565b600060208284031215613805578081fd5b6137428261364b565b60006020828403121561381f578081fd5b5051919050565b600060208284031215613837578081fd5b81516001600160401b038082111561384d578283fd5b9083019060e08286031215613860578283fd5b613868614169565b6138718361363b565b8152602083015182811115613884578485fd5b613890878286016136a1565b6020830152506040830151828111156138a7578485fd5b6138b3878286016136a1565b6040830152506138c56060840161363b565b60608201526138d66080840161364b565b60808201526138e760a0840161364b565b60a08201526138f860c0840161363b565b60c082015295945050505050565b600060208284031215613917578081fd5b5035919050565b60008060008060608587031215613933578081fd5b843593506020850135613945816142b0565b925060408501356001600160401b0381111561395f578182fd5b61396b8782880161365b565b95989497509550505050565b60008060408385031215613989578182fd5b825191506139996020840161364b565b90509250929050565b6000806000604084860312156139b6578283fd5b8335925060208401356001600160401b038111156139d2578283fd5b6139de8682870161365b565b9497909650939450505050565b6000806000606084860312156139ff578081fd5b83359250602084013591506040840135600581106137e9578182fd5b6001600160a01b03169052565b600081518084526020808501808196508360051b81019150828601855b85811015613aa5578284038952815160808151818752613a6782880182613aff565b915050868201518787015260408083015181880152506060808301519250613a9181880184613ab2565b509986019994505090840190600101613a45565b5091979650505050505050565b60058110613ac257613ac2614284565b9052565b60088110613ac257613ac2614284565b81835281816020850137506000828201602090810191909152601f909101601f19169091010190565b60008151808452613b178160208601602086016141e8565b601f01601f19169290920160200192915050565b8054600090600181811c9080831680613b4557607f831692505b6020808410821415613b6557634e487b7160e01b86526022600452602486fd5b83885260208801828015613b805760018114613b9157613bbc565b60ff19871682528282019750613bbc565b60008981526020902060005b87811015613bb657815484820152908601908401613b9d565b83019850505b5050505050505092915050565b6001600160a01b0391909116815260200190565b6001600160a01b0384168152604060208201819052600090613c029083018486613ad6565b95945050505050565b6001600160a01b0385168152608060208201819052600090613c2f90830186613aff565b6040830194909452506060015292915050565b6001600160a01b0385168152608060208201819052600090613c2f90830186613b2b565b60006020808301818452808551808352604092508286019150828160051b870101848801865b83811015613ced57603f19898403018552815160808151818652613cb282870182613aff565b915050888201518986015287820151888601526060808301519250613cd981870184613ab2565b509588019593505090860190600101613c8c565b509098975050505050505050565b6020808252825182820181905260009190848201906040850190845b81811015613d3357835183529284019291840191600101613d17565b50909695505050505050565b9182526001600160a01b0316602082015260400190565b613d608185613ac6565b606060208201526000613d766060830185613aff565b9050826040830152949350505050565b60408101613d948285613ac6565b8260208301529392505050565b604081526000613db5604083018587613ad6565b905060018060a01b0383166020830152949350505050565b6020808252601e908201527f434f4d3a20446961206368692053494d20636875612064756f63206461740000604082015260600190565b60208082526037908201527f434f4d3a204e67756f6920676f69206b686f6e672070686169207175616e206c60408201527679206375612068616e672063756120646f6e2068616e6760481b606082015260800190565b60208082526034908201527f434f4d3a204e67756f6920676f69206b686f6e672070686169206c61206b686160408201527363682068616e672063756120646f6e2068616e6760601b606082015260800190565b6020808252818101527f4f776e61626c653a2063616c6c6572206973206e6f7420746865206f776e6572604082015260600190565b6020808252601b908201527a434f4d3a20446f6e2068616e67206b686f6e6720746f6e2074616960281b604082015260600190565b60208082526028908201527f434f4d3a20446f6e2068616e67206b686f6e6720636f206375612068616e6720604082015267323ab7b19033b0b760c11b606082015260800190565b60208082526027908201527f434f4d3a204e67756f6920676f69207468696575207661692074726f2051554160408201526609cbe98b2be86960cb1b606082015260800190565b6020808252601f908201527f5265656e7472616e637947756172643a207265656e7472616e742063616c6c00604082015260600190565b602081528151602082015260006020830151613ffe6040840182613a1b565b5060408301516140116060840182613a1b565b50606083015161012080608085015261402e610140850183613a28565b9150608085015160a085015260a085015161404c60c0860182613ac6565b5060c085015160e085015260e08501516101008181870152808701519150506140788286018215159052565b5090949350505050565b8881526001600160a01b038881166020830152871660408201526060810186905261010081016140b56080830187613ac6565b8460a08301528360c083015282151560e08301529998505050505050505050565b8381526060602082015260006140ef6060830185613b2b565b90506140fe6040830184613ab2565b949350505050565b6000808335601e1984360301811261411c578283fd5b8301803591506001600160401b03821115614135578283fd5b60200191503681900382131561369a57600080fd5b60008235603e1983360301811261415f578182fd5b9190910192915050565b60405160e081016001600160401b038111828210171561418b5761418b61429a565b60405290565b600082198211156141a4576141a461426e565b500190565b6000826141c457634e487b7160e01b81526012600452602481fd5b500490565b60008160001904831182151516156141e3576141e361426e565b500290565b60005b838110156142035781810151838201526020016141eb565b83811115614212576000848401525b50505050565b600181811c9082168061422c57607f821691505b6020821081141561424d57634e487b7160e01b600052602260045260246000fd5b50919050565b60006000198214156142675761426761426e565b5060010190565b634e487b7160e01b600052601160045260246000fd5b634e487b7160e01b600052602160045260246000fd5b634e487b7160e01b600052604160045260246000fd5b6001600160a01b03811681146142c557600080fd5b5056fe9d22dd44fa6012f7b18f8831bd91c9e7a12938bc6994e23b1f0b419251f1258a8be0079c531659141344cd1fd0a4f28419497f9722a3daafe3b4186f6b6457e0434f4d3a205472616e67207468616920646f6e2068616e67206b686f6e672063a264697066735822122055d87b965196498babcf816020013489e1bb44a6bf90042c870a33770ecdde8a64736f6c63430008040033",
  "immutableReferences": {
    "1998": [
      {
        "length": 32,
        "start": 1156
      },
      {
        "length": 32,
        "start": 3556
      },
      {
        "length": 32,
        "start": 3725
      },
      {
        "length": 32,
        "start": 5166
      },
      {
        "length": 32,
        "start": 5335
      },
      {
        "length": 32,
        "start": 6507
      },
      {
        "length": 32,
        "start": 6676
      },
      {
        "length": 32,
        "start": 8453
      },
      {
        "length": 32,
        "start": 8622
      }
    ],
    "2001": [
      {
        "length": 32,
        "start": 538
      },
      {
        "length": 32,
        "start": 1748
      },
      {
        "length": 32,
        "start": 3368
      },
      {
        "length": 32,
        "start": 4978
      },
      {
        "length": 32,
        "start": 6319
      },
      {
        "length": 32,
        "start": 8265
      }
    ],
    "2004": [
      {
        "length": 32,
        "start": 791
      },
      {
        "length": 32,
        "start": 2254
      }
    ],
    "2013": [
      {
        "length": 32,
        "start": 654
      },
      {
        "length": 32,
        "start": 7738
      },
      {
        "length": 32,
        "start": 7986
      },
      {
        "length": 32,
        "start": 10872
      }
    ]
  },
  "source": "// SPDX-License-Identifier: MIT\r\npragma solidity ^0.8.4;\r\n\r\nimport \"@openzeppelin/contracts/security/ReentrancyGuard.sol\";\r\nimport \"@openzeppelin/contracts/access/Ownable.sol\";\r\nimport \"./Interfaces.sol\";      // Import file Interfaces.sol tp trung\r\n// KHNG CN: import \"./ItemsManagement.sol\";\r\n\r\n// Hp ng Qun l n hng Khch hng\r\ncontract CustomerOrderManagement is ReentrancyGuard, Ownable {\r\n    // S dng cc interface t Interfaces.sol\r\n    IRoleManagementInterface public immutable roleManagement;\r\n    // THAY I:\r\n    IItemsManagementCoreInterface public immutable itemsManagementCore;\r\n    IItemsPricingAndListingInterface public immutable itemsPricingAndListing;\r\n\r\n    IStoreInventoryManagementInterface public storeInventoryManagement;\r\n    IWarehouseInventoryManagementInterface public warehouseInventoryManagement;\r\n    ICompanyTreasuryManagerInterface public immutable companyTreasuryManager;\r\n\r\n    uint256 public nextOrderId;\r\n\r\n    enum OrderStatus { Placed, ProcessingByStore, AllItemsReadyForDelivery, DeliveryConfirmedByStore, Completed, CancelledByStore, CancelledByCustomer, ReturnedByCustomer }\r\n    enum OrderItemStatus { PendingStoreProcessing, StoreStockAvailable, StoreNeedsRestock, ReadyForDelivery, DeliveredToCustomer }\r\n\r\n    struct OrderItem {\r\n        string itemId;\r\n        uint256 quantity;\r\n        uint256 unitPrice;\r\n        OrderItemStatus status;\r\n    }\r\n\r\n    struct Order {\r\n        uint256 orderId;\r\n        address customerAddress;\r\n        address storeAddress;\r\n        OrderItem[] items;\r\n        uint256 totalAmountPaid;\r\n        OrderStatus status;\r\n        uint256 creationTimestamp;\r\n        uint256 lastUpdateTimestamp;\r\n        bool fundsReleasedToCompany;\r\n    }\r\n\r\n    struct OrderItemInput {\r\n        string itemId;\r\n        uint256 quantity;\r\n    }\r\n\r\n    mapping(uint256 => Order) public orders;\r\n    mapping(address => uint256[]) public customerOrderIds;\r\n    mapping(address => uint256[]) public storeAssignedOrderIds;\r\n\r\n    // --- EVENTS ---\r\n    event OrderPlaced(uint256 indexed orderId, address indexed customer, address indexed storeAddress, uint256 totalAmount);\r\n    event OrderItemStatusUpdatedByStore(uint256 indexed orderId, uint256 itemIndexInOrder, string itemId, OrderItemStatus newItemStatus, address indexed byStoreManager);\r\n    event OrderReadyForDelivery(uint256 indexed orderId, address indexed storeAddress, address indexed byStoreManager);\r\n    event OrderDeliveryConfirmedByStore(uint256 indexed orderId, address indexed storeAddress, address indexed byStoreManager);\r\n    event OrderCompletedByCustomer(uint256 indexed orderId, address indexed customer);\r\n    event FundsReleasedToCompanyTreasury(uint256 indexed orderId, uint256 amount, address indexed treasuryAddress);\r\n    event OrderOverallStatusUpdated(uint256 indexed orderId, OrderStatus newStatus, uint256 timestamp);\r\n    event OrderCancelled(uint256 indexed orderId, address indexed canceller, OrderStatus newStatus, string reason, uint256 amountRefunded);\r\n    event OrderReturnProcessed(uint256 indexed orderId, address indexed customer, address returnToWarehouse, string reason);\r\n    event StoreInventoryManagementAddressSet(address indexed simAddress);\r\n    event WarehouseInventoryManagementAddressSet(address indexed wimAddress);\r\n\r\n    constructor(\r\n        address _roleManagementAddress,\r\n        // THAY I:\r\n        address _itemsManagementCoreAddress,\r\n        address _itemsPricingAndListingAddress,\r\n        address _companyTreasuryManagerAddress\r\n    ) Ownable() {\r\n        require(_roleManagementAddress != address(0), \"COM: Dia chi RM khong hop le\");\r\n        roleManagement = IRoleManagementInterface(_roleManagementAddress);\r\n\r\n        // THAY I:\r\n        require(_itemsManagementCoreAddress != address(0), \"COM: Dia chi ItemsMCore khong hop le\");\r\n        itemsManagementCore = IItemsManagementCoreInterface(_itemsManagementCoreAddress);\r\n        require(_itemsPricingAndListingAddress != address(0), \"COM: Dia chi ItemsPL khong hop le\");\r\n        itemsPricingAndListing = IItemsPricingAndListingInterface(_itemsPricingAndListingAddress);\r\n\r\n        require(_companyTreasuryManagerAddress != address(0), \"COM: Dia chi CTM khong hop le\");\r\n        companyTreasuryManager = ICompanyTreasuryManagerInterface(_companyTreasuryManagerAddress);\r\n\r\n        nextOrderId = 1;\r\n    }\r\n\r\n    function setStoreInventoryManagementAddress(address _simAddress) external onlyOwner {\r\n        require(_simAddress != address(0), \"COM: Dia chi SIM khong hop le\");\r\n        storeInventoryManagement = IStoreInventoryManagementInterface(_simAddress);\r\n        emit StoreInventoryManagementAddressSet(_simAddress);\r\n    }\r\n\r\n    function setWarehouseInventoryManagementAddress(address _wimAddress) external onlyOwner {\r\n        require(_wimAddress != address(0), \"COM: Dia chi WIM khong hop le\");\r\n        warehouseInventoryManagement = IWarehouseInventoryManagementInterface(_wimAddress);\r\n        emit WarehouseInventoryManagementAddressSet(_wimAddress);\r\n    }\r\n\r\n    modifier onlyOrderCustomer(uint256 _orderId) {\r\n        Order storage currentOrder = orders[_orderId];\r\n        require(currentOrder.orderId != 0, \"COM: Don hang khong ton tai\");\r\n        require(currentOrder.customerAddress == msg.sender, \"COM: Nguoi goi khong phai la khach hang cua don hang\");\r\n        _;\r\n    }\r\n\r\n    modifier onlyStoreManagerForOrder(uint256 _orderId) {\r\n        Order storage currentOrder = orders[_orderId];\r\n        require(currentOrder.orderId != 0, \"COM: Don hang khong ton tai\");\r\n        address storeAddr = currentOrder.storeAddress;\r\n        require(storeAddr != address(0), \"COM: Don hang khong co cua hang duoc gan\");\r\n\r\n        // THAY I:\r\n        PhysicalLocationInfo memory storeInfo = itemsManagementCore.getStoreInfo(storeAddr);\r\n        require(storeInfo.manager == msg.sender, \"COM: Nguoi goi khong phai quan ly cua hang cua don hang\");\r\n\r\n        bytes32 smRole = roleManagement.STORE_MANAGER_ROLE();\r\n        require(roleManagement.hasRole(smRole, msg.sender), \"COM: Nguoi goi thieu vai tro QUAN_LY_CH\");\r\n        _;\r\n    }\r\n\r\n    function placeOrder(\r\n        OrderItemInput[] calldata _orderItemsInput,\r\n        address _storeAddress\r\n    ) external payable nonReentrant {\r\n        require(address(storeInventoryManagement) != address(0), \"COM: Dia chi SIM chua duoc dat\");\r\n        require(_storeAddress != address(0), \"COM: Dia chi cua hang khong hop le\");\r\n        require(_orderItemsInput.length > 0, \"COM: Don hang phai co it nhat mot mat hang\");\r\n\r\n        // THAY I:\r\n        PhysicalLocationInfo memory storeInfo = itemsManagementCore.getStoreInfo(_storeAddress);\r\n        require(storeInfo.exists, \"COM: Cua hang khong ton tai\");\r\n\r\n        uint256 currentOrderId = nextOrderId++;\r\n        Order storage newOrder = orders[currentOrderId];\r\n        newOrder.orderId = currentOrderId;\r\n        newOrder.customerAddress = msg.sender;\r\n        newOrder.storeAddress = _storeAddress;\r\n        newOrder.status = OrderStatus.Placed;\r\n        newOrder.creationTimestamp = block.timestamp;\r\n        newOrder.lastUpdateTimestamp = block.timestamp;\r\n\r\n        uint256 calculatedTotalAmount = 0;\r\n        for (uint i = 0; i < _orderItemsInput.length; i++) {\r\n            OrderItemInput calldata itemInput = _orderItemsInput[i];\r\n            require(itemInput.quantity > 0, \"COM: So luong mat hang phai la so duong\");\r\n\r\n            // THAY I:\r\n            (uint256 retailPrice, bool priceExists) = itemsPricingAndListing.getItemRetailPriceAtStore(itemInput.itemId, _storeAddress);\r\n            require(priceExists && retailPrice > 0, \"COM: Gia mat hang khong hop le tai cua hang\");\r\n\r\n            newOrder.items.push(OrderItem({\r\n                itemId: itemInput.itemId,\r\n                quantity: itemInput.quantity,\r\n                unitPrice: retailPrice,\r\n                status: OrderItemStatus.PendingStoreProcessing\r\n            }));\r\n            calculatedTotalAmount += retailPrice * itemInput.quantity;\r\n        }\r\n\r\n        require(msg.value == calculatedTotalAmount, \"COM: So tien thanh toan khong chinh xac\");\r\n        newOrder.totalAmountPaid = calculatedTotalAmount;\r\n\r\n        customerOrderIds[msg.sender].push(currentOrderId);\r\n        storeAssignedOrderIds[_storeAddress].push(currentOrderId);\r\n\r\n        emit OrderPlaced(currentOrderId, msg.sender, _storeAddress, calculatedTotalAmount);\r\n        emit OrderOverallStatusUpdated(currentOrderId, newOrder.status, block.timestamp);\r\n    }\r\n\r\n    function storeUpdateOrderItemStatus(uint256 _orderId, uint256 _itemIndex, OrderItemStatus _newStatus)\r\n        external\r\n        onlyStoreManagerForOrder(_orderId)\r\n        nonReentrant\r\n    {\r\n        Order storage currentOrder = orders[_orderId];\r\n        require(currentOrder.status == OrderStatus.Placed || currentOrder.status == OrderStatus.ProcessingByStore,\r\n                \"COM: Trang thai don hang khong cho phep cua hang cap nhat chi tiet\");\r\n        require(_itemIndex < currentOrder.items.length, \"COM: Chi muc mat hang khong hop le\");\r\n        OrderItem storage item = currentOrder.items[_itemIndex];\r\n        require(\r\n            _newStatus == OrderItemStatus.StoreStockAvailable ||\r\n            _newStatus == OrderItemStatus.StoreNeedsRestock ||\r\n            _newStatus == OrderItemStatus.ReadyForDelivery,\r\n            \"COM: Trang thai cap nhat cho mat hang khong hop le\"\r\n        );\r\n        item.status = _newStatus;\r\n        currentOrder.lastUpdateTimestamp = block.timestamp;\r\n        emit OrderItemStatusUpdatedByStore(_orderId, _itemIndex, item.itemId, _newStatus, msg.sender);\r\n        if (currentOrder.status == OrderStatus.Placed) {\r\n            currentOrder.status = OrderStatus.ProcessingByStore;\r\n            emit OrderOverallStatusUpdated(_orderId, currentOrder.status, block.timestamp);\r\n        }\r\n    }\r\n\r\n    function storeConfirmAllItemsReadyForDelivery(uint256 _orderId)\r\n        external\r\n        onlyStoreManagerForOrder(_orderId)\r\n        nonReentrant\r\n    {\r\n        Order storage currentOrder = orders[_orderId];\r\n        require(currentOrder.status == OrderStatus.ProcessingByStore, \"COM: Don hang chua o trang thai dang xu ly boi cua hang\");\r\n        for (uint i = 0; i < currentOrder.items.length; i++) {\r\n            require(currentOrder.items[i].status == OrderItemStatus.ReadyForDelivery, \"COM: Chua du tat ca mat hang trong don san sang de giao\");\r\n        }\r\n        currentOrder.status = OrderStatus.AllItemsReadyForDelivery;\r\n        currentOrder.lastUpdateTimestamp = block.timestamp;\r\n        emit OrderReadyForDelivery(_orderId, currentOrder.storeAddress, msg.sender);\r\n        emit OrderOverallStatusUpdated(_orderId, currentOrder.status, block.timestamp);\r\n    }\r\n\r\n    function storeConfirmDeliveryToCustomer(uint256 _orderId)\r\n        external\r\n        onlyStoreManagerForOrder(_orderId)\r\n        nonReentrant\r\n    {\r\n        Order storage currentOrder = orders[_orderId];\r\n        require(currentOrder.status == OrderStatus.AllItemsReadyForDelivery, \"COM: Don hang chua san sang de giao\");\r\n        require(address(storeInventoryManagement) != address(0), \"COM: Dia chi SIM chua duoc dat\");\r\n        for (uint i = 0; i < currentOrder.items.length; i++) {\r\n            OrderItem storage item = currentOrder.items[i];\r\n            require(item.status == OrderItemStatus.ReadyForDelivery, \"COM: Mot mat hang trong don chua san sang de giao\");\r\n            storeInventoryManagement.deductStockForCustomerSale(\r\n                currentOrder.storeAddress,\r\n                item.itemId,\r\n                item.quantity,\r\n                _orderId\r\n            );\r\n            item.status = OrderItemStatus.DeliveredToCustomer;\r\n        }\r\n        currentOrder.status = OrderStatus.DeliveryConfirmedByStore;\r\n        currentOrder.lastUpdateTimestamp = block.timestamp;\r\n        emit OrderDeliveryConfirmedByStore(_orderId, currentOrder.storeAddress, msg.sender);\r\n        emit OrderOverallStatusUpdated(_orderId, currentOrder.status, block.timestamp);\r\n    }\r\n\r\n    function customerConfirmReceipt(uint256 _orderId)\r\n        external\r\n        onlyOrderCustomer(_orderId)\r\n        nonReentrant\r\n    {\r\n        Order storage currentOrder = orders[_orderId];\r\n        require(currentOrder.status == OrderStatus.DeliveryConfirmedByStore, \"COM: Cua hang chua xac nhan giao hang\");\r\n        require(!currentOrder.fundsReleasedToCompany, \"COM: Tien da duoc giai ngan cho cong ty\");\r\n        currentOrder.status = OrderStatus.Completed;\r\n        currentOrder.lastUpdateTimestamp = block.timestamp;\r\n        currentOrder.fundsReleasedToCompany = true;\r\n        (bool success, ) = payable(address(companyTreasuryManager)).call{value: currentOrder.totalAmountPaid}(\"\");\r\n        require(success, \"COM: Giai ngan tien cho ngan quy cong ty that bai\");\r\n        emit OrderCompletedByCustomer(_orderId, msg.sender);\r\n        emit FundsReleasedToCompanyTreasury(_orderId, currentOrder.totalAmountPaid, address(companyTreasuryManager));\r\n        emit OrderOverallStatusUpdated(_orderId, currentOrder.status, block.timestamp);\r\n    }\r\n\r\n    function _internalCancelOrderAndRefundToCustomer(\r\n        uint256 _orderId,\r\n        address _canceller,\r\n        OrderStatus _newStatus,\r\n        string memory _reason,\r\n        uint256 _refundPercentage\r\n    ) internal {\r\n        Order storage currentOrder = orders[_orderId];\r\n        require(!currentOrder.fundsReleasedToCompany, \"COM: Khong the huy/hoan tien, tien da chuyen cho cong ty\");\r\n        currentOrder.status = _newStatus;\r\n        currentOrder.lastUpdateTimestamp = block.timestamp;\r\n        uint256 amountToRefund = 0;\r\n        if (_refundPercentage > 0 && currentOrder.totalAmountPaid > 0) {\r\n            amountToRefund = (currentOrder.totalAmountPaid * _refundPercentage) / 100;\r\n            if (amountToRefund > 0) {\r\n                (bool success, ) = payable(currentOrder.customerAddress).call{value: amountToRefund}(\"\");\r\n                require(success, \"COM: Hoan tien cho khach that bai khi huy don, viec huy bi hoan tac\");\r\n            }\r\n        }\r\n        emit OrderCancelled(_orderId, _canceller, _newStatus, _reason, amountToRefund);\r\n        emit OrderOverallStatusUpdated(_orderId, currentOrder.status, block.timestamp);\r\n    }\r\n\r\n    function cancelOrderByStore(uint256 _orderId, string calldata _reason)\r\n        external\r\n        onlyStoreManagerForOrder(_orderId)\r\n        nonReentrant\r\n    {\r\n        Order storage currentOrder = orders[_orderId];\r\n        require(currentOrder.status == OrderStatus.Placed || currentOrder.status == OrderStatus.ProcessingByStore,\r\n                \"COM: Trang thai don hang khong cho phep cua hang huy\");\r\n        _internalCancelOrderAndRefundToCustomer(_orderId, msg.sender, OrderStatus.CancelledByStore, _reason, 100);\r\n    }\r\n\r\n    function customerCancelOrderBeforeDelivery(uint256 _orderId, string calldata _reason)\r\n        external\r\n        onlyOrderCustomer(_orderId)\r\n        nonReentrant\r\n    {\r\n        Order storage currentOrder = orders[_orderId];\r\n        require(currentOrder.status < OrderStatus.DeliveryConfirmedByStore &&\r\n                currentOrder.status != OrderStatus.CancelledByStore &&\r\n                currentOrder.status != OrderStatus.CancelledByCustomer,\r\n                \"COM: Trang thai don hang khong cho phep khach huy\");\r\n        _internalCancelOrderAndRefundToCustomer(_orderId, msg.sender, OrderStatus.CancelledByCustomer, _reason, 100);\r\n    }\r\n\r\n    function customerReturnOrderAfterReceipt(uint256 _orderId, address _returnToWarehouseAddress, string calldata _reason)\r\n        external\r\n        onlyOrderCustomer(_orderId)\r\n        nonReentrant\r\n    {\r\n        Order storage currentOrder = orders[_orderId];\r\n        require(currentOrder.status == OrderStatus.Completed, \"COM: Don hang chua hoan thanh de co the tra lai\");\r\n        require(address(warehouseInventoryManagement) != address(0), \"COM: Dia chi WIM cho viec tra hang chua duoc dat\");\r\n        require(_returnToWarehouseAddress != address(0), \"COM: Dia chi kho tra hang khong hop le\");\r\n\r\n        for (uint i = 0; i < currentOrder.items.length; i++) {\r\n            OrderItem memory item = currentOrder.items[i];\r\n            warehouseInventoryManagement.recordReturnedStockByCustomer(\r\n                _returnToWarehouseAddress,\r\n                item.itemId,\r\n                item.quantity,\r\n                _orderId\r\n            );\r\n        }\r\n        currentOrder.status = OrderStatus.ReturnedByCustomer;\r\n        currentOrder.lastUpdateTimestamp = block.timestamp;\r\n        uint256 refundPercentage = 90;\r\n        uint256 amountToRefundFromTreasury = (currentOrder.totalAmountPaid * refundPercentage) / 100;\r\n        if (amountToRefundFromTreasury > 0) {\r\n            companyTreasuryManager.refundCustomerOrderFromTreasury(\r\n                _orderId,\r\n                payable(currentOrder.customerAddress),\r\n                amountToRefundFromTreasury\r\n            );\r\n        }\r\n        emit OrderReturnProcessed(_orderId, msg.sender, _returnToWarehouseAddress, _reason);\r\n        emit OrderOverallStatusUpdated(_orderId, currentOrder.status, block.timestamp);\r\n    }\r\n\r\n    function getOrderDetails(uint256 _orderId) external view returns (Order memory) {\r\n        require(orders[_orderId].orderId != 0, \"COM: Don hang khong ton tai\");\r\n        return orders[_orderId];\r\n    }\r\n\r\n    function getOrderItems(uint256 _orderId) external view returns (OrderItem[] memory) {\r\n        require(orders[_orderId].orderId != 0, \"COM: Don hang khong ton tai\");\r\n        return orders[_orderId].items;\r\n    }\r\n\r\n    function getCustomerOrders(address _customer) external view returns (uint256[] memory) {\r\n        return customerOrderIds[_customer];\r\n    }\r\n\r\n    function getStoreAssignedOrders(address _store) external view returns (uint256[] memory) {\r\n        return storeAssignedOrderIds[_store];\r\n    }\r\n\r\n    function emergencyWithdrawEther(address payable _to) external onlyOwner nonReentrant {\r\n        require(_to != address(0), \"COM: Nguoi nhan khong hop le\");\r\n        uint256 balance = address(this).balance;\r\n        if (balance > 0) {\r\n            (bool success, ) = _to.call{value: balance}(\"\");\r\n            require(success, \"COM: Rut tien khan cap that bai\");\r\n        }\r\n    }\r\n}",
  "sourcePath": "D:\\nhi\\Logtech\\New tech in Log\\dapp2\\SC\\contracts\\CustomerOrder.sol",
  "compiler": {
    "name": "solc",
    "version": "0.8.4+commit.c7e474f2.Emscripten.clang"
  },
  "schemaVersion": "3.4.16",
  "updatedAt": "2025-06-03T02:07:25.459Z",
  "networkType": "ethereum",
  "devdoc": {
    "kind": "dev",
    "methods": {
      "owner()": {
        "details": "Returns the address of the current owner."
      },
      "renounceOwnership()": {
        "details": "Leaves the contract without owner. It will not be possible to call `onlyOwner` functions anymore. Can only be called by the current owner. NOTE: Renouncing ownership will leave the contract without an owner, thereby removing any functionality that is only available to the owner."
      },
      "transferOwnership(address)": {
        "details": "Transfers ownership of the contract to a new account (`newOwner`). Can only be called by the current owner."
      }
    },
    "version": 1
  },
  "userdoc": {
    "kind": "user",
    "methods": {},
    "version": 1
  }
}