{
  "contractName": "CustomerOrderManagement",
  "abi": [
    {
      "inputs": [
        {
          "internalType": "address",
          "name": "_roleManagementAddress",
          "type": "address"
        },
        {
          "internalType": "address",
          "name": "_itemsManagementAddress",
          "type": "address"
        },
        {
          "internalType": "address",
          "name": "_companyTreasury",
          "type": "address"
        }
      ],
      "stateMutability": "nonpayable",
      "type": "constructor"
    },
    {
      "anonymous": false,
      "inputs": [
        {
          "indexed": true,
          "internalType": "uint256",
          "name": "orderId",
          "type": "uint256"
        },
        {
          "indexed": false,
          "internalType": "uint256",
          "name": "amount",
          "type": "uint256"
        },
        {
          "indexed": true,
          "internalType": "address",
          "name": "treasury",
          "type": "address"
        }
      ],
      "name": "FundsReleasedToCompany",
      "type": "event"
    },
    {
      "anonymous": false,
      "inputs": [
        {
          "indexed": true,
          "internalType": "uint256",
          "name": "orderId",
          "type": "uint256"
        },
        {
          "indexed": true,
          "internalType": "address",
          "name": "canceller",
          "type": "address"
        },
        {
          "indexed": false,
          "internalType": "enum CustomerOrderManagement.OrderStatus",
          "name": "newStatus",
          "type": "uint8"
        },
        {
          "indexed": false,
          "internalType": "string",
          "name": "reason",
          "type": "string"
        }
      ],
      "name": "OrderCancelled",
      "type": "event"
    },
    {
      "anonymous": false,
      "inputs": [
        {
          "indexed": true,
          "internalType": "uint256",
          "name": "orderId",
          "type": "uint256"
        },
        {
          "indexed": true,
          "internalType": "address",
          "name": "customer",
          "type": "address"
        }
      ],
      "name": "OrderCompletedByCustomer",
      "type": "event"
    },
    {
      "anonymous": false,
      "inputs": [
        {
          "indexed": true,
          "internalType": "uint256",
          "name": "orderId",
          "type": "uint256"
        },
        {
          "indexed": true,
          "internalType": "address",
          "name": "storeAddress",
          "type": "address"
        },
        {
          "indexed": true,
          "internalType": "address",
          "name": "storeManager",
          "type": "address"
        }
      ],
      "name": "OrderDeliveryConfirmedByStore",
      "type": "event"
    },
    {
      "anonymous": false,
      "inputs": [
        {
          "indexed": true,
          "internalType": "uint256",
          "name": "orderId",
          "type": "uint256"
        },
        {
          "indexed": false,
          "internalType": "uint256",
          "name": "itemIndex",
          "type": "uint256"
        },
        {
          "indexed": false,
          "internalType": "string",
          "name": "itemId",
          "type": "string"
        },
        {
          "indexed": false,
          "internalType": "enum CustomerOrderManagement.OrderItemStatus",
          "name": "newItemStatus",
          "type": "uint8"
        },
        {
          "indexed": true,
          "internalType": "address",
          "name": "storeManager",
          "type": "address"
        }
      ],
      "name": "OrderItemStatusUpdatedByStore",
      "type": "event"
    },
    {
      "anonymous": false,
      "inputs": [
        {
          "indexed": true,
          "internalType": "uint256",
          "name": "orderId",
          "type": "uint256"
        },
        {
          "indexed": false,
          "internalType": "enum CustomerOrderManagement.OrderStatus",
          "name": "newStatus",
          "type": "uint8"
        },
        {
          "indexed": false,
          "internalType": "uint256",
          "name": "timestamp",
          "type": "uint256"
        }
      ],
      "name": "OrderOverallStatusUpdated",
      "type": "event"
    },
    {
      "anonymous": false,
      "inputs": [
        {
          "indexed": true,
          "internalType": "uint256",
          "name": "orderId",
          "type": "uint256"
        },
        {
          "indexed": true,
          "internalType": "address",
          "name": "customer",
          "type": "address"
        },
        {
          "indexed": true,
          "internalType": "address",
          "name": "storeAddress",
          "type": "address"
        },
        {
          "indexed": false,
          "internalType": "uint256",
          "name": "totalAmount",
          "type": "uint256"
        }
      ],
      "name": "OrderPlaced",
      "type": "event"
    },
    {
      "anonymous": false,
      "inputs": [
        {
          "indexed": true,
          "internalType": "uint256",
          "name": "orderId",
          "type": "uint256"
        },
        {
          "indexed": true,
          "internalType": "address",
          "name": "storeAddress",
          "type": "address"
        },
        {
          "indexed": true,
          "internalType": "address",
          "name": "storeManager",
          "type": "address"
        }
      ],
      "name": "OrderReadyForDelivery",
      "type": "event"
    },
    {
      "anonymous": false,
      "inputs": [
        {
          "indexed": true,
          "internalType": "uint256",
          "name": "orderId",
          "type": "uint256"
        },
        {
          "indexed": true,
          "internalType": "address",
          "name": "customer",
          "type": "address"
        },
        {
          "indexed": false,
          "internalType": "address",
          "name": "returnToWarehouse",
          "type": "address"
        },
        {
          "indexed": false,
          "internalType": "string",
          "name": "reason",
          "type": "string"
        }
      ],
      "name": "OrderReturnedByCustomerNotified",
      "type": "event"
    },
    {
      "anonymous": false,
      "inputs": [
        {
          "indexed": true,
          "internalType": "address",
          "name": "previousOwner",
          "type": "address"
        },
        {
          "indexed": true,
          "internalType": "address",
          "name": "newOwner",
          "type": "address"
        }
      ],
      "name": "OwnershipTransferred",
      "type": "event"
    },
    {
      "anonymous": false,
      "inputs": [
        {
          "indexed": true,
          "internalType": "address",
          "name": "simAddress",
          "type": "address"
        }
      ],
      "name": "StoreInventoryManagementAddressSet",
      "type": "event"
    },
    {
      "anonymous": false,
      "inputs": [
        {
          "indexed": true,
          "internalType": "address",
          "name": "wimAddress",
          "type": "address"
        }
      ],
      "name": "WarehouseInventoryManagementAddressSet",
      "type": "event"
    },
    {
      "inputs": [],
      "name": "companyTreasuryAddress",
      "outputs": [
        {
          "internalType": "address",
          "name": "",
          "type": "address"
        }
      ],
      "stateMutability": "view",
      "type": "function"
    },
    {
      "inputs": [
        {
          "internalType": "address",
          "name": "",
          "type": "address"
        },
        {
          "internalType": "uint256",
          "name": "",
          "type": "uint256"
        }
      ],
      "name": "customerOrderIds",
      "outputs": [
        {
          "internalType": "uint256",
          "name": "",
          "type": "uint256"
        }
      ],
      "stateMutability": "view",
      "type": "function"
    },
    {
      "inputs": [],
      "name": "itemsManagement",
      "outputs": [
        {
          "internalType": "contract IItemsManagementInterface",
          "name": "",
          "type": "address"
        }
      ],
      "stateMutability": "view",
      "type": "function"
    },
    {
      "inputs": [],
      "name": "nextOrderId",
      "outputs": [
        {
          "internalType": "uint256",
          "name": "",
          "type": "uint256"
        }
      ],
      "stateMutability": "view",
      "type": "function"
    },
    {
      "inputs": [
        {
          "internalType": "uint256",
          "name": "",
          "type": "uint256"
        }
      ],
      "name": "orders",
      "outputs": [
        {
          "internalType": "uint256",
          "name": "orderId",
          "type": "uint256"
        },
        {
          "internalType": "address",
          "name": "customerAddress",
          "type": "address"
        },
        {
          "internalType": "address",
          "name": "storeAddress",
          "type": "address"
        },
        {
          "internalType": "uint256",
          "name": "totalAmountPaid",
          "type": "uint256"
        },
        {
          "internalType": "enum CustomerOrderManagement.OrderStatus",
          "name": "status",
          "type": "uint8"
        },
        {
          "internalType": "uint256",
          "name": "creationTimestamp",
          "type": "uint256"
        },
        {
          "internalType": "uint256",
          "name": "lastUpdateTimestamp",
          "type": "uint256"
        },
        {
          "internalType": "bool",
          "name": "fundsReleasedToCompany",
          "type": "bool"
        }
      ],
      "stateMutability": "view",
      "type": "function"
    },
    {
      "inputs": [],
      "name": "owner",
      "outputs": [
        {
          "internalType": "address",
          "name": "",
          "type": "address"
        }
      ],
      "stateMutability": "view",
      "type": "function"
    },
    {
      "inputs": [],
      "name": "renounceOwnership",
      "outputs": [],
      "stateMutability": "nonpayable",
      "type": "function"
    },
    {
      "inputs": [],
      "name": "roleManagement",
      "outputs": [
        {
          "internalType": "contract IRoleManagementInterface",
          "name": "",
          "type": "address"
        }
      ],
      "stateMutability": "view",
      "type": "function"
    },
    {
      "inputs": [
        {
          "internalType": "address",
          "name": "",
          "type": "address"
        },
        {
          "internalType": "uint256",
          "name": "",
          "type": "uint256"
        }
      ],
      "name": "storeAssignedOrderIds",
      "outputs": [
        {
          "internalType": "uint256",
          "name": "",
          "type": "uint256"
        }
      ],
      "stateMutability": "view",
      "type": "function"
    },
    {
      "inputs": [],
      "name": "storeInventoryManagement",
      "outputs": [
        {
          "internalType": "contract IStoreInventoryManagementInterface",
          "name": "",
          "type": "address"
        }
      ],
      "stateMutability": "view",
      "type": "function"
    },
    {
      "inputs": [
        {
          "internalType": "address",
          "name": "newOwner",
          "type": "address"
        }
      ],
      "name": "transferOwnership",
      "outputs": [],
      "stateMutability": "nonpayable",
      "type": "function"
    },
    {
      "inputs": [],
      "name": "warehouseInventoryManagement",
      "outputs": [
        {
          "internalType": "contract IWarehouseInventoryManagementInterface",
          "name": "",
          "type": "address"
        }
      ],
      "stateMutability": "view",
      "type": "function"
    },
    {
      "inputs": [
        {
          "internalType": "address",
          "name": "_simAddress",
          "type": "address"
        }
      ],
      "name": "setStoreInventoryManagementAddress",
      "outputs": [],
      "stateMutability": "nonpayable",
      "type": "function"
    },
    {
      "inputs": [
        {
          "internalType": "address",
          "name": "_wimAddress",
          "type": "address"
        }
      ],
      "name": "setWarehouseInventoryManagementAddress",
      "outputs": [],
      "stateMutability": "nonpayable",
      "type": "function"
    },
    {
      "inputs": [
        {
          "components": [
            {
              "internalType": "string",
              "name": "itemId",
              "type": "string"
            },
            {
              "internalType": "uint256",
              "name": "quantity",
              "type": "uint256"
            }
          ],
          "internalType": "struct CustomerOrderManagement.OrderItemInput[]",
          "name": "_orderItemsInput",
          "type": "tuple[]"
        },
        {
          "internalType": "address",
          "name": "_storeAddress",
          "type": "address"
        }
      ],
      "name": "placeOrder",
      "outputs": [],
      "stateMutability": "payable",
      "type": "function"
    },
    {
      "inputs": [
        {
          "internalType": "uint256",
          "name": "_orderId",
          "type": "uint256"
        },
        {
          "internalType": "uint256",
          "name": "_itemIndex",
          "type": "uint256"
        },
        {
          "internalType": "enum CustomerOrderManagement.OrderItemStatus",
          "name": "_newStatus",
          "type": "uint8"
        }
      ],
      "name": "storeUpdateOrderItemStatus",
      "outputs": [],
      "stateMutability": "nonpayable",
      "type": "function"
    },
    {
      "inputs": [
        {
          "internalType": "uint256",
          "name": "_orderId",
          "type": "uint256"
        }
      ],
      "name": "storeConfirmAllItemsReadyForDelivery",
      "outputs": [],
      "stateMutability": "nonpayable",
      "type": "function"
    },
    {
      "inputs": [
        {
          "internalType": "uint256",
          "name": "_orderId",
          "type": "uint256"
        }
      ],
      "name": "storeConfirmDeliveryToCustomer",
      "outputs": [],
      "stateMutability": "nonpayable",
      "type": "function"
    },
    {
      "inputs": [
        {
          "internalType": "uint256",
          "name": "_orderId",
          "type": "uint256"
        }
      ],
      "name": "customerConfirmReceipt",
      "outputs": [],
      "stateMutability": "nonpayable",
      "type": "function"
    },
    {
      "inputs": [
        {
          "internalType": "uint256",
          "name": "_orderId",
          "type": "uint256"
        },
        {
          "internalType": "string",
          "name": "_reason",
          "type": "string"
        }
      ],
      "name": "cancelOrderByStore",
      "outputs": [],
      "stateMutability": "nonpayable",
      "type": "function"
    },
    {
      "inputs": [
        {
          "internalType": "uint256",
          "name": "_orderId",
          "type": "uint256"
        },
        {
          "internalType": "string",
          "name": "_reason",
          "type": "string"
        }
      ],
      "name": "customerCancelOrderBeforeDelivery",
      "outputs": [],
      "stateMutability": "nonpayable",
      "type": "function"
    },
    {
      "inputs": [
        {
          "internalType": "uint256",
          "name": "_orderId",
          "type": "uint256"
        },
        {
          "internalType": "address",
          "name": "_returnToWarehouseAddress",
          "type": "address"
        },
        {
          "internalType": "string",
          "name": "_reason",
          "type": "string"
        }
      ],
      "name": "customerReturnOrderAfterReceipt",
      "outputs": [],
      "stateMutability": "nonpayable",
      "type": "function"
    },
    {
      "inputs": [
        {
          "internalType": "uint256",
          "name": "_orderId",
          "type": "uint256"
        }
      ],
      "name": "getOrderDetails",
      "outputs": [
        {
          "components": [
            {
              "internalType": "uint256",
              "name": "orderId",
              "type": "uint256"
            },
            {
              "internalType": "address",
              "name": "customerAddress",
              "type": "address"
            },
            {
              "internalType": "address",
              "name": "storeAddress",
              "type": "address"
            },
            {
              "components": [
                {
                  "internalType": "string",
                  "name": "itemId",
                  "type": "string"
                },
                {
                  "internalType": "uint256",
                  "name": "quantity",
                  "type": "uint256"
                },
                {
                  "internalType": "uint256",
                  "name": "unitPrice",
                  "type": "uint256"
                },
                {
                  "internalType": "enum CustomerOrderManagement.OrderItemStatus",
                  "name": "status",
                  "type": "uint8"
                }
              ],
              "internalType": "struct CustomerOrderManagement.OrderItem[]",
              "name": "items",
              "type": "tuple[]"
            },
            {
              "internalType": "uint256",
              "name": "totalAmountPaid",
              "type": "uint256"
            },
            {
              "internalType": "enum CustomerOrderManagement.OrderStatus",
              "name": "status",
              "type": "uint8"
            },
            {
              "internalType": "uint256",
              "name": "creationTimestamp",
              "type": "uint256"
            },
            {
              "internalType": "uint256",
              "name": "lastUpdateTimestamp",
              "type": "uint256"
            },
            {
              "internalType": "bool",
              "name": "fundsReleasedToCompany",
              "type": "bool"
            }
          ],
          "internalType": "struct CustomerOrderManagement.Order",
          "name": "",
          "type": "tuple"
        }
      ],
      "stateMutability": "view",
      "type": "function"
    },
    {
      "inputs": [
        {
          "internalType": "uint256",
          "name": "_orderId",
          "type": "uint256"
        }
      ],
      "name": "getOrderItems",
      "outputs": [
        {
          "components": [
            {
              "internalType": "string",
              "name": "itemId",
              "type": "string"
            },
            {
              "internalType": "uint256",
              "name": "quantity",
              "type": "uint256"
            },
            {
              "internalType": "uint256",
              "name": "unitPrice",
              "type": "uint256"
            },
            {
              "internalType": "enum CustomerOrderManagement.OrderItemStatus",
              "name": "status",
              "type": "uint8"
            }
          ],
          "internalType": "struct CustomerOrderManagement.OrderItem[]",
          "name": "",
          "type": "tuple[]"
        }
      ],
      "stateMutability": "view",
      "type": "function"
    },
    {
      "inputs": [
        {
          "internalType": "address",
          "name": "_customer",
          "type": "address"
        }
      ],
      "name": "getCustomerOrders",
      "outputs": [
        {
          "internalType": "uint256[]",
          "name": "",
          "type": "uint256[]"
        }
      ],
      "stateMutability": "view",
      "type": "function"
    },
    {
      "inputs": [
        {
          "internalType": "address",
          "name": "_store",
          "type": "address"
        }
      ],
      "name": "getStoreAssignedOrders",
      "outputs": [
        {
          "internalType": "uint256[]",
          "name": "",
          "type": "uint256[]"
        }
      ],
      "stateMutability": "view",
      "type": "function"
    },
    {
      "inputs": [
        {
          "internalType": "address payable",
          "name": "_to",
          "type": "address"
        }
      ],
      "name": "emergencyWithdraw",
      "outputs": [],
      "stateMutability": "nonpayable",
      "type": "function"
    }
  ],
  "bytecode": "0x60e06040523480156200001157600080fd5b5060405162004557380380620045578339810160408190526200003491620001e3565b6001600081815581546001600160a01b031916339081179092556040518291907f8be0079c531659141344cd1fd0a4f28419497f9722a3daafe3b4186f6b6457e0908290a3506001600160a01b038316620000d65760405162461bcd60e51b815260206004820152601c60248201527f434f4d3a204469612063686920524d206b686f6e6720686f70206c650000000060448201526064015b60405180910390fd5b6001600160a01b0382166200012e5760405162461bcd60e51b815260206004820181905260248201527f434f4d3a2044696120636869204974656d734d206b686f6e6720686f70206c656044820152606401620000cd565b6001600160a01b038116620001995760405162461bcd60e51b815260206004820152602a60248201527f434f4d3a2044696120636869206e67616e2071757920636f6e67207479206b686044820152696f6e6720686f70206c6560b01b6064820152608401620000cd565b6001600160601b0319606093841b811660805291831b821660a05290911b1660c05260016004556200022c565b80516001600160a01b0381168114620001de57600080fd5b919050565b600080600060608486031215620001f8578283fd5b6200020384620001c6565b92506200021360208501620001c6565b91506200022360408501620001c6565b90509250925092565b60805160601c60a05160601c60c05160601c614274620002e36000396000818161031901528181611e2601528181611f1e015281816127930152612a56015260008181610485015281816106610152818161080b01528181610c6f0152818161123c01528181611742015261203f01526000818161043101528181610d2b01528181610dd4015281816112f8015281816113a1015281816117fe015281816118a7015281816120fb01526121a401526142746000f3fe60806040526004361061013c5760003560e01c80630aa1be39146101415780630abd47631461015657806314693b751461018c57806322f974d2146101ba5780632a58b330146101e757806338a3b2d8146101fd5780635d942d421461021d578063675b37241461023d57806368137aeb1461025d5780636ff1c9bc1461027d578063715018a61461029d5780638da5cb5b146102b25780638f5b18f1146102c757806390e31261146102e75780639426d55514610307578063a85c38ef1461033b578063b34b29a3146103bf578063b39399af146103df578063b630afc9146103ff578063b977ba181461041f578063c10940ad14610453578063c19aacdd14610473578063ec7dd7bb146104a7578063f2fde38b146104d4578063f4ddd27a146104f4578063fb13e2eb14610514578063feedc7d314610541575b600080fd5b61015461014f3660046136ef565b610561565b005b34801561016257600080fd5b50600254610176906001600160a01b031681565b6040516101839190613b33565b60405180910390f35b34801561019857600080fd5b506101ac6101a73660046136c4565b610b53565b604051908152602001610183565b3480156101c657600080fd5b506101da6101d53660046136a1565b610b84565b6040516101839190613c65565b3480156101f357600080fd5b506101ac60045481565b34801561020957600080fd5b50610154610218366004613955565b610bf0565b34801561022957600080fd5b506101da6102383660046136a1565b611153565b34801561024957600080fd5b50610154610258366004613870565b6111bd565b34801561026957600080fd5b5061015461027836600461390c565b6116c3565b34801561028957600080fd5b506101546102983660046136a1565b611a86565b3480156102a957600080fd5b50610154611be7565b3480156102be57600080fd5b50610176611c4e565b3480156102d357600080fd5b506101ac6102e23660046136c4565b611c5d565b3480156102f357600080fd5b50610154610302366004613870565b611c79565b34801561031357600080fd5b506101767f000000000000000000000000000000000000000000000000000000000000000081565b34801561034757600080fd5b506103ab610356366004613870565b60056020819052600091825260409091208054600182015460028301546004840154948401546006850154600786015460089096015494966001600160a01b0394851696939094169460ff9283169391921688565b604051610183989796959493929190613fa0565b3480156103cb57600080fd5b50600354610176906001600160a01b031681565b3480156103eb57600080fd5b506101546103fa366004613870565b611fc0565b34801561040b57600080fd5b5061015461041a36600461390c565b612458565b34801561042b57600080fd5b506101767f000000000000000000000000000000000000000000000000000000000000000081565b34801561045f57600080fd5b5061015461046e366004613888565b6125f6565b34801561047f57600080fd5b506101767f000000000000000000000000000000000000000000000000000000000000000081565b3480156104b357600080fd5b506104c76104c2366004613870565b612b3b565b6040516101839190613efd565b3480156104e057600080fd5b506101546104ef3660046136a1565b612dc1565b34801561050057600080fd5b5061015461050f3660046136a1565b612e9f565b34801561052057600080fd5b5061053461052f366004613870565b612f6e565b6040516101839190613bd0565b34801561054d57600080fd5b5061015461055c3660046136a1565b6130fa565b6002600054141561058d5760405162461bcd60e51b815260040161058490613ec6565b60405180910390fd5b60026000819055546001600160a01b03166105ea5760405162461bcd60e51b815260206004820152601e60248201527f434f4d3a20446961206368692053494d20636875612064756f632064617400006044820152606401610584565b8161064a5760405162461bcd60e51b815260206004820152602a60248201527f434f4d3a20446f6e2068616e67207068616920636f206974206e686174206d6f60448201526974206d61742068616e6760b01b6064820152608401610584565b60405163329a587360e01b81526001600160a01b037f0000000000000000000000000000000000000000000000000000000000000000169063329a587390610696908490600401613b33565b60006040518083038186803b1580156106ae57600080fd5b505afa1580156106c2573d6000803e3d6000fd5b505050506040513d6000823e601f3d908101601f191682016040526106ea91908101906137a1565b5060048054600091826106fc83614169565b9091555060008181526005602081905260408220838155600181018054336001600160a01b0319918216179091556002820180549091166001600160a01b038816179055908101805460ff1916905542600682018190556007820155919250805b85811015610a30573687878381811061078657634e487b7160e01b600052603260045260246000fd5b90506020028101906107989190614060565b905060008160200135116107fe5760405162461bcd60e51b815260206004820152602760248201527f434f4d3a20536f206c756f6e67206d61742068616e672070686169206c6120736044820152666f2064756f6e6760c81b6064820152608401610584565b6000806001600160a01b037f0000000000000000000000000000000000000000000000000000000000000000166375a05d1261083a858061401c565b8b6040518463ffffffff1660e01b815260040161085993929190613d03565b604080518083038186803b15801561087057600080fd5b505afa158015610884573d6000803e3d6000fd5b505050506040513d601f19601f820116820180604052508101906108a891906138e1565b915091508080156108b95750600082115b6109195760405162461bcd60e51b815260206004820152602b60248201527f434f4d3a20476961206d61742068616e67206b686f6e6720686f70206c65207460448201526a6169206375612068616e6760a81b6064820152608401610584565b6040805160808101909152600387019080610934868061401c565b8080601f0160208091040260200160405190810160405280939291908181526020018383808284376000920182905250938552505050602087810135818401526040830187905260609092018190528354600181018555938152819020825180519394600402909101926109ab928492019061351d565b50602082015181600101556040820151816002015560608201518160030160006101000a81548160ff021916908360048111156109f857634e487b7160e01b600052602160045260246000fd5b0217905550610a0e9150506020840135836140df565b610a1890866140a7565b94505050508080610a2890614169565b91505061075d565b50803414610a905760405162461bcd60e51b815260206004820152602760248201527f434f4d3a20536f207469656e207468616e6820746f616e206b686f6e67206368604482015266696e682078616360c81b6064820152608401610584565b60048201819055336000818152600660209081526040808320805460018082018355918552838520018890556001600160a01b0389168085526007845282852080549283018155855293839020018790555184815291929186917faf03488da094bc08f76858b3b2a0c36a13217c95790c77139137fc6e062ba9cd910160405180910390a4600582015460405184916000805160206141df83398151915291610b3e9160ff16904290613ce8565b60405180910390a25050600160005550505050565b60066020528160005260406000208181548110610b6f57600080fd5b90600052602060002001600091509150505481565b6001600160a01b038116600090815260066020908152604091829020805483518184028101840190945280845260609392830182828015610be457602002820191906000526020600020905b815481526020019060010190808311610bd0575b50505050509050919050565b6000838152600560205260409020548390610c1d5760405162461bcd60e51b815260040161058490613e02565b6000818152600560205260409020600201546001600160a01b031680610c555760405162461bcd60e51b815260040161058490613e37565b60405163329a587360e01b81526000906001600160a01b037f0000000000000000000000000000000000000000000000000000000000000000169063329a587390610ca4908590600401613b33565b60006040518083038186803b158015610cbc57600080fd5b505afa158015610cd0573d6000803e3d6000fd5b505050506040513d6000823e601f3d908101601f19168201604052610cf891908101906137a1565b60608101519091506001600160a01b03163314610d275760405162461bcd60e51b815260040161058490613d2f565b60007f00000000000000000000000000000000000000000000000000000000000000006001600160a01b0316631f1077986040518163ffffffff1660e01b815260040160206040518083038186803b158015610d8257600080fd5b505afa158015610d96573d6000803e3d6000fd5b505050506040513d601f19601f82011682018060405250810190610dba9190613789565b604051632474521560e21b81529091506001600160a01b037f000000000000000000000000000000000000000000000000000000000000000016906391d1485490610e0b9084903390600401613ca9565b60206040518083038186803b158015610e2357600080fd5b505afa158015610e37573d6000803e3d6000fd5b505050506040513d601f19601f82011682018060405250810190610e5b919061376f565b610e775760405162461bcd60e51b815260040161058490613e7f565b60026000541415610e9a5760405162461bcd60e51b815260040161058490613ec6565b6002600090815587815260056020526040812090600582015460ff166007811115610ed557634e487b7160e01b600052602160045260246000fd5b1480610f0757506001600582015460ff166007811115610f0557634e487b7160e01b600052602160045260246000fd5b145b610f5a5760405162461bcd60e51b8152602060048201526030602482015260008051602061421f83398151915260448201526f1a1bc81c1a195c0818d85c081b9a185d60821b6064820152608401610584565b60038101548710610fb85760405162461bcd60e51b815260206004820152602260248201527f434f4d3a20436869206d7563206d61742068616e67206b686f6e6720686f70206044820152616c6560f01b6064820152608401610584565b6000816003018881548110610fdd57634e487b7160e01b600052603260045260246000fd5b600091825260209091206004909102019050600187600481111561101157634e487b7160e01b600052602160045260246000fd5b148061103c5750600287600481111561103a57634e487b7160e01b600052602160045260246000fd5b145b806110665750600387600481111561106457634e487b7160e01b600052602160045260246000fd5b145b6110c05760405162461bcd60e51b815260206004820152602560248201527f434f4d3a205472616e67207468616920636170206e686174206b686f6e6720686044820152646f70206c6560d81b6064820152608401610584565b60038101805488919060ff191660018360048111156110ef57634e487b7160e01b600052602160045260246000fd5b021790555042600783015560405133908a907fff0d8a7be28e6f36b6ff784bad0dc3841124462e87f7a201e4961d76481d68b790611132908c9086908d90613ff4565b60405180910390a3611143896131c9565b5050600160005550505050505050565b6001600160a01b038116600090815260076020908152604091829020805483518184028101840190945280845260609392830182828015610be45760200282019190600052602060002090815481526020019060010190808311610bd05750505050509050919050565b60008181526005602052604090205481906111ea5760405162461bcd60e51b815260040161058490613e02565b6000818152600560205260409020600201546001600160a01b0316806112225760405162461bcd60e51b815260040161058490613e37565b60405163329a587360e01b81526000906001600160a01b037f0000000000000000000000000000000000000000000000000000000000000000169063329a587390611271908590600401613b33565b60006040518083038186803b15801561128957600080fd5b505afa15801561129d573d6000803e3d6000fd5b505050506040513d6000823e601f3d908101601f191682016040526112c591908101906137a1565b60608101519091506001600160a01b031633146112f45760405162461bcd60e51b815260040161058490613d2f565b60007f00000000000000000000000000000000000000000000000000000000000000006001600160a01b0316631f1077986040518163ffffffff1660e01b815260040160206040518083038186803b15801561134f57600080fd5b505afa158015611363573d6000803e3d6000fd5b505050506040513d601f19601f820116820180604052508101906113879190613789565b604051632474521560e21b81529091506001600160a01b037f000000000000000000000000000000000000000000000000000000000000000016906391d14854906113d89084903390600401613ca9565b60206040518083038186803b1580156113f057600080fd5b505afa158015611404573d6000803e3d6000fd5b505050506040513d601f19601f82011682018060405250810190611428919061376f565b6114445760405162461bcd60e51b815260040161058490613e7f565b600260005414156114675760405162461bcd60e51b815260040161058490613ec6565b6002600081815586815260056020526040902090600582015460ff1660078111156114a257634e487b7160e01b600052602160045260246000fd5b146114fb5760405162461bcd60e51b815260206004820152602360248201527f434f4d3a20446f6e2068616e6720636875612073616e2073616e67206465206760448201526269616f60e81b6064820152608401610584565b60005b600382015481101561164857600082600301828154811061152f57634e487b7160e01b600052603260045260246000fd5b60009182526020909120600490910201905060038082015460ff16600481111561156957634e487b7160e01b600052602160045260246000fd5b146115b65760405162461bcd60e51b815260206004820152601f60248201527f434f4d3a204d6f74206d61742068616e6720636875612073616e2073616e67006044820152606401610584565b60028054908401546001830154604051631ec3e04f60e21b81526001600160a01b0393841693637b0f813c936115f6939116918691908e90600401613bac565b600060405180830381600087803b15801561161057600080fd5b505af1158015611624573d6000803e3d6000fd5b50505050600301805460ff191660041790558061164081614169565b9150506114fe565b5060058101805460ff19166003179055426007820155600281015460405133916001600160a01b03169088907faed449934768d32ac20f87fd0f552e69568e1eb815079272a728db1ff656911590600090a4600581015460405187916000805160206141df83398151915291610b3e9160ff16904290613ce8565b60008381526005602052604090205483906116f05760405162461bcd60e51b815260040161058490613e02565b6000818152600560205260409020600201546001600160a01b0316806117285760405162461bcd60e51b815260040161058490613e37565b60405163329a587360e01b81526000906001600160a01b037f0000000000000000000000000000000000000000000000000000000000000000169063329a587390611777908590600401613b33565b60006040518083038186803b15801561178f57600080fd5b505afa1580156117a3573d6000803e3d6000fd5b505050506040513d6000823e601f3d908101601f191682016040526117cb91908101906137a1565b60608101519091506001600160a01b031633146117fa5760405162461bcd60e51b815260040161058490613d2f565b60007f00000000000000000000000000000000000000000000000000000000000000006001600160a01b0316631f1077986040518163ffffffff1660e01b815260040160206040518083038186803b15801561185557600080fd5b505afa158015611869573d6000803e3d6000fd5b505050506040513d601f19601f8201168201806040525081019061188d9190613789565b604051632474521560e21b81529091506001600160a01b037f000000000000000000000000000000000000000000000000000000000000000016906391d14854906118de9084903390600401613ca9565b60206040518083038186803b1580156118f657600080fd5b505afa15801561190a573d6000803e3d6000fd5b505050506040513d601f19601f8201168201806040525081019061192e919061376f565b61194a5760405162461bcd60e51b815260040161058490613e7f565b6002600054141561196d5760405162461bcd60e51b815260040161058490613ec6565b6002600090815587815260056020526040812090600582015460ff1660078111156119a857634e487b7160e01b600052602160045260246000fd5b14806119da57506001600582015460ff1660078111156119d857634e487b7160e01b600052602160045260246000fd5b145b611a315760405162461bcd60e51b8152602060048201526034602482015260008051602061421f833981519152604482015273686f2070686570206375612068616e672068757960601b6064820152608401610584565b611a77883360058a8a8080601f016020809104026020016040519081016040528093929190818152602001838380828437600092019190915250606492506132dd915050565b50506001600055505050505050565b33611a8f611c4e565b6001600160a01b031614611ab55760405162461bcd60e51b815260040161058490613dcd565b60026000541415611ad85760405162461bcd60e51b815260040161058490613ec6565b60026000556001600160a01b038116611b325760405162461bcd60e51b815260206004820152601c60248201527b434f4d3a204e67756f69206e68616e206b686f6e6720686f70206c6560201b6044820152606401610584565b478015611bde576000826001600160a01b03168260405160006040518083038185875af1925050503d8060008114611b86576040519150601f19603f3d011682016040523d82523d6000602084013e611b8b565b606091505b5050905080611bdc5760405162461bcd60e51b815260206004820152601f60248201527f434f4d3a20527574207469656e206b68616e20636170207468617420626169006044820152606401610584565b505b50506001600055565b33611bf0611c4e565b6001600160a01b031614611c165760405162461bcd60e51b815260040161058490613dcd565b6001546040516000916001600160a01b0316906000805160206141ff833981519152908390a3600180546001600160a01b0319169055565b6001546001600160a01b031690565b60076020528160005260406000208181548110610b6f57600080fd5b6000818152600560205260409020548190611ca65760405162461bcd60e51b815260040161058490613e02565b6000818152600560205260409020600101546001600160a01b03163314611cdf5760405162461bcd60e51b815260040161058490613d86565b60026000541415611d025760405162461bcd60e51b815260040161058490613ec6565b600260009081558281526005602052604090206003600582015460ff166007811115611d3e57634e487b7160e01b600052602160045260246000fd5b14611d995760405162461bcd60e51b815260206004820152602560248201527f434f4d3a204375612068616e67206368756120786163206e68616e206769616f6044820152642068616e6760d81b6064820152608401610584565b600881015460ff1615611dec5760405162461bcd60e51b815260206004820152601b60248201527a21a7a69d102a34b2b710323090323ab7b19033b4b0b4903733b0b760291b6044820152606401610584565b600581018054600460ff19918216811790925542600784015560088301805490911660011790558101546040516000916001600160a01b037f000000000000000000000000000000000000000000000000000000000000000016918381818185875af1925050503d8060008114611e7f576040519150601f19603f3d011682016040523d82523d6000602084013e611e84565b606091505b5050905080611eef5760405162461bcd60e51b815260206004820152603160248201527f434f4d3a2047696169206e67616e207469656e2063686f206e67616e2071757960448201527020636f6e6720747920746861742062616960781b6064820152608401610584565b604051339085907f66335ab67b17f1df563c368ec1e30a3f6cd36401015614bed9bd38a592d7ed6690600090a37f00000000000000000000000000000000000000000000000000000000000000006001600160a01b0316847f804da23065bad8ffadbaab9fae42155f5dea042e69e414f18113eddb76e9d7268460040154604051611f7c91815260200190565b60405180910390a3600582015460405185916000805160206141df83398151915291611fad9160ff16904290613ce8565b60405180910390a2505060016000555050565b6000818152600560205260409020548190611fed5760405162461bcd60e51b815260040161058490613e02565b6000818152600560205260409020600201546001600160a01b0316806120255760405162461bcd60e51b815260040161058490613e37565b60405163329a587360e01b81526000906001600160a01b037f0000000000000000000000000000000000000000000000000000000000000000169063329a587390612074908590600401613b33565b60006040518083038186803b15801561208c57600080fd5b505afa1580156120a0573d6000803e3d6000fd5b505050506040513d6000823e601f3d908101601f191682016040526120c891908101906137a1565b60608101519091506001600160a01b031633146120f75760405162461bcd60e51b815260040161058490613d2f565b60007f00000000000000000000000000000000000000000000000000000000000000006001600160a01b0316631f1077986040518163ffffffff1660e01b815260040160206040518083038186803b15801561215257600080fd5b505afa158015612166573d6000803e3d6000fd5b505050506040513d601f19601f8201168201806040525081019061218a9190613789565b604051632474521560e21b81529091506001600160a01b037f000000000000000000000000000000000000000000000000000000000000000016906391d14854906121db9084903390600401613ca9565b60206040518083038186803b1580156121f357600080fd5b505afa158015612207573d6000803e3d6000fd5b505050506040513d601f19601f8201168201806040525081019061222b919061376f565b6122475760405162461bcd60e51b815260040161058490613e7f565b6002600054141561226a5760405162461bcd60e51b815260040161058490613ec6565b600260009081558581526005602052604090206001600582015460ff1660078111156122a657634e487b7160e01b600052602160045260246000fd5b146123065760405162461bcd60e51b815260206004820152602a60248201527f434f4d3a20446f6e2068616e672063687561206f207472616e6720746861692060448201526964616e67207875206c7960b01b6064820152608401610584565b60005b60038201548110156123dc57600382600301828154811061233a57634e487b7160e01b600052603260045260246000fd5b600091825260209091206004918202016003015460ff169081111561236f57634e487b7160e01b600052602160045260246000fd5b146123ca5760405162461bcd60e51b815260206004820152602560248201527f434f4d3a204368756120647520746174206361206d61742068616e672073616e6044820152642073616e6760d81b6064820152608401610584565b806123d481614169565b915050612309565b5060058101805460ff1916600290811790915542600783015581015460405133916001600160a01b03169088907f1dab13ec0792bd2da6773f87d2a4551f4432a7489644b53bd828762f9e0a2b1890600090a4600581015460405187916000805160206141df83398151915291610b3e9160ff16904290613ce8565b60008381526005602052604090205483906124855760405162461bcd60e51b815260040161058490613e02565b6000818152600560205260409020600101546001600160a01b031633146124be5760405162461bcd60e51b815260040161058490613d86565b600260005414156124e15760405162461bcd60e51b815260040161058490613ec6565b600260009081558481526005602052604090206003600582015460ff16600781111561251d57634e487b7160e01b600052602160045260246000fd5b108015612550575060058082015460ff16600781111561254d57634e487b7160e01b600052602160045260246000fd5b14155b6125a45760405162461bcd60e51b8152602060048201526031602482015260008051602061421f833981519152604482015270686f2070686570206b686163682068757960781b6064820152608401610584565b6125ea8533600687878080601f016020809104026020016040519081016040528093929190818152602001838380828437600092019190915250606492506132dd915050565b50506001600055505050565b60008481526005602052604090205484906126235760405162461bcd60e51b815260040161058490613e02565b6000818152600560205260409020600101546001600160a01b0316331461265c5760405162461bcd60e51b815260040161058490613d86565b6002600054141561267f5760405162461bcd60e51b815260040161058490613ec6565b600260009081558581526005602052604090206004600582015460ff1660078111156126bb57634e487b7160e01b600052602160045260246000fd5b146127205760405162461bcd60e51b815260206004820152602f60248201527f434f4d3a20446f6e2068616e67206368756120686f616e207468616e6820646560448201526e20636f2074686520747261206c616960881b6064820152608401610584565b6003546001600160a01b03166127915760405162461bcd60e51b815260206004820152603060248201527f434f4d3a20446961206368692057494d2063686f20766965632074726120686160448201526f1b99c818da1d5848191d5bd8c819185d60821b6064820152608401610584565b7f00000000000000000000000000000000000000000000000000000000000000006001600160a01b031661281b5760405162461bcd60e51b815260206004820152602b60248201527f434f4d3a20446961206368692043544d20636875612064756f6320646174206460448201526a32903437b0b7103a34b2b760a91b6064820152608401610584565b60005b60038201548110156129e157600082600301828154811061284f57634e487b7160e01b600052603260045260246000fd5b90600052602060002090600402016040518060800160405290816000820180546128789061412e565b80601f01602080910402602001604051908101604052809291908181526020018280546128a49061412e565b80156128f15780601f106128c6576101008083540402835291602001916128f1565b820191906000526020600020905b8154815290600101906020018083116128d457829003601f168201915b50505091835250506001820154602082015260028201546040820152600382015460609091019060ff16600481111561293a57634e487b7160e01b600052602160045260246000fd5b600481111561295957634e487b7160e01b600052602160045260246000fd5b905250600354815160208301516040516312d2f4d960e11b81529394506001600160a01b03909216926325a5e9b29261299b928c929091908e90600401613b75565b600060405180830381600087803b1580156129b557600080fd5b505af11580156129c9573d6000803e3d6000fd5b505050505080806129d990614169565b91505061281e565b5060058101805460ff1916600790811790915542908201556004810154605a90600090606490612a129084906140df565b612a1c91906140bf565b90508015612ab557600183015460405163088cbd9f60e11b8152600481018a90526001600160a01b039182166024820152604481018390527f0000000000000000000000000000000000000000000000000000000000000000909116906311197b3e90606401600060405180830381600087803b158015612a9c57600080fd5b505af1158015612ab0573d6000803e3d6000fd5b505050505b336001600160a01b0316887ff29fc26b7850cfd97c54533ef7f7423647732af5754324b78eea5aa8d8bfed14898989604051612af393929190613b47565b60405180910390a3600583015460405189916000805160206141df83398151915291612b249160ff16904290613ce8565b60405180910390a250506001600055505050505050565b60408051610120810182526000808252602082018190529181018290526060808201526080810182905260a0810182905260c0810182905260e08101829052610100810191909152600082815260056020526040902054612bae5760405162461bcd60e51b815260040161058490613e02565b60008281526005602090815260408083208151610120810183528154815260018201546001600160a01b039081168286015260028301541681840152600382018054845181870281018701909552808552919592946060870194939192919084015b82821015612d375783829060005260206000209060040201604051806080016040529081600082018054612c439061412e565b80601f0160208091040260200160405190810160405280929190818152602001828054612c6f9061412e565b8015612cbc5780601f10612c9157610100808354040283529160200191612cbc565b820191906000526020600020905b815481529060010190602001808311612c9f57829003601f168201915b50505091835250506001820154602082015260028201546040820152600382015460609091019060ff166004811115612d0557634e487b7160e01b600052602160045260246000fd5b6004811115612d2457634e487b7160e01b600052602160045260246000fd5b8152505081526020019060010190612c10565b5050509082525060048201546020820152600582015460409091019060ff166007811115612d7557634e487b7160e01b600052602160045260246000fd5b6007811115612d9457634e487b7160e01b600052602160045260246000fd5b8152600682015460208201526007820154604082015260089091015460ff16151560609091015292915050565b33612dca611c4e565b6001600160a01b031614612df05760405162461bcd60e51b815260040161058490613dcd565b6001600160a01b038116612e555760405162461bcd60e51b815260206004820152602660248201527f4f776e61626c653a206e6577206f776e657220697320746865207a65726f206160448201526564647265737360d01b6064820152608401610584565b6001546040516001600160a01b038084169216906000805160206141ff83398151915290600090a3600180546001600160a01b0319166001600160a01b0392909216919091179055565b33612ea8611c4e565b6001600160a01b031614612ece5760405162461bcd60e51b815260040161058490613dcd565b6001600160a01b038116612f245760405162461bcd60e51b815260206004820152601d60248201527f434f4d3a20446961206368692057494d206b686f6e6720686f70206c650000006044820152606401610584565b600380546001600160a01b0319166001600160a01b0383169081179091556040517f9d00bdb4c1bf918df98c2197d7890603abf58babbc46d1a0442c1d92855fa12990600090a250565b600081815260056020526040902054606090612f9c5760405162461bcd60e51b815260040161058490613e02565b600082815260056020908152604080832060030180548251818502810185019093528083529193909284015b828210156130ef5783829060005260206000209060040201604051806080016040529081600082018054612ffb9061412e565b80601f01602080910402602001604051908101604052809291908181526020018280546130279061412e565b80156130745780601f1061304957610100808354040283529160200191613074565b820191906000526020600020905b81548152906001019060200180831161305757829003601f168201915b50505091835250506001820154602082015260028201546040820152600382015460609091019060ff1660048111156130bd57634e487b7160e01b600052602160045260246000fd5b60048111156130dc57634e487b7160e01b600052602160045260246000fd5b8152505081526020019060010190612fc8565b505050509050919050565b33613103611c4e565b6001600160a01b0316146131295760405162461bcd60e51b815260040161058490613dcd565b6001600160a01b03811661317f5760405162461bcd60e51b815260206004820152601d60248201527f434f4d3a20446961206368692053494d206b686f6e6720686f70206c650000006044820152606401610584565b600280546001600160a01b0319166001600160a01b0383169081179091556040517fb875684c9dfb17eb2f1c703cb1df8211b9cdee7ccde9c141ba5a4395d71a1a0490600090a250565b600081815260056020526040812090600582015460ff1660078111156131ff57634e487b7160e01b600052602160045260246000fd5b14156132d9576000805b600383015481101561328f57600083600301828154811061323a57634e487b7160e01b600052603260045260246000fd5b600091825260209091206004918202016003015460ff169081111561326f57634e487b7160e01b600052602160045260246000fd5b1461327d576001915061328f565b8061328781614169565b915050613209565b5080156132d75760058201805460ff19166001908117909155426007840181905560405185926000805160206141df833981519152926132ce92613ce8565b60405180910390a25b505b5050565b6000858152600560205260409020600881015460ff161561335f5760405162461bcd60e51b815260206004820152603660248201527f434f4d3a204b686f6e6720746865206875792f686f616e207469656e2c207469604482015275656e206461207468756f6320766520636f6e6720747960501b6064820152608401610584565b60058101805485919060ff1916600183600781111561338e57634e487b7160e01b600052602160045260246000fd5b021790555042600782015581158015906133ac575060008160040154115b156134a057600060648383600401546133c591906140df565b6133cf91906140bf565b9050801561349e5760018201546040516000916001600160a01b03169083908381818185875af1925050503d8060008114613426576040519150601f19603f3d011682016040523d82523d6000602084013e61342b565b606091505b505090508061349c5760405162461bcd60e51b815260206004820152603760248201527f434f4d3a20486f616e207469656e2063686f206b686163682074686174206261604482015276692c20766965632068757920626920686f616e2074616360481b6064820152608401610584565b505b505b846001600160a01b0316867f1958f12ed107aac0b5b73f30f757c1e943eefa50888cbbf84e3eab2038b447c886866040516134dc929190613cc0565b60405180910390a3600581015460405187916000805160206141df8339815191529161350d9160ff16904290613ce8565b60405180910390a2505050505050565b8280546135299061412e565b90600052602060002090601f01602090048101928261354b5760008555613591565b82601f1061356457805160ff1916838001178555613591565b82800160010185558215613591579182015b82811115613591578251825591602001919060010190613576565b5061359d9291506135a1565b5090565b5b8082111561359d57600081556001016135a2565b80516135c1816141c6565b919050565b805180151581146135c157600080fd5b60008083601f8401126135e7578182fd5b5081356001600160401b038111156135fd578182fd5b60208301915083602082850101111561361557600080fd5b9250929050565b600082601f83011261362c578081fd5b81516001600160401b0380821115613646576136466141b0565b604051601f8301601f19908116603f0116810190828211818310171561366e5761366e6141b0565b81604052838152866020858801011115613686578485fd5b6136978460208301602089016140fe565b9695505050505050565b6000602082840312156136b2578081fd5b81356136bd816141c6565b9392505050565b600080604083850312156136d6578081fd5b82356136e1816141c6565b946020939093013593505050565b600080600060408486031215613703578081fd5b83356001600160401b0380821115613719578283fd5b818601915086601f83011261372c578283fd5b81358181111561373a578384fd5b8760208260051b850101111561374e578384fd5b60209283019550935050840135613764816141c6565b809150509250925092565b600060208284031215613780578081fd5b6136bd826135c6565b60006020828403121561379a578081fd5b5051919050565b6000602082840312156137b2578081fd5b81516001600160401b03808211156137c8578283fd5b9083019060c082860312156137db578283fd5b6137e361407f565b6137ec836135b6565b81526020830151828111156137ff578485fd5b61380b8782860161361c565b602083015250604083015182811115613822578485fd5b61382e8782860161361c565b604083015250613840606084016135b6565b6060820152613851608084016135c6565b608082015261386260a084016135b6565b60a082015295945050505050565b600060208284031215613881578081fd5b5035919050565b6000806000806060858703121561389d578081fd5b8435935060208501356138af816141c6565b925060408501356001600160401b038111156138c9578182fd5b6138d5878288016135d6565b95989497509550505050565b600080604083850312156138f3578182fd5b82519150613903602084016135c6565b90509250929050565b600080600060408486031215613920578283fd5b8335925060208401356001600160401b0381111561393c578283fd5b613948868287016135d6565b9497909650939450505050565b600080600060608486031215613969578081fd5b8335925060208401359150604084013560058110613764578182fd5b6001600160a01b03169052565b600081518084526020808501808196508360051b81019150828601855b85811015613a0f5782840389528151608081518187526139d182880182613a69565b9150508682015187870152604080830151818801525060608083015192506139fb81880184613a1c565b5099860199945050908401906001016139af565b5091979650505050505050565b60058110613a2c57613a2c61419a565b9052565b60088110613a2c57613a2c61419a565b81835281816020850137506000828201602090810191909152601f909101601f19169091010190565b60008151808452613a818160208601602086016140fe565b601f01601f19169290920160200192915050565b8054600090600181811c9080831680613aaf57607f831692505b6020808410821415613acf57634e487b7160e01b86526022600452602486fd5b83885260208801828015613aea5760018114613afb57613b26565b60ff19871682528282019750613b26565b60008981526020902060005b87811015613b2057815484820152908601908401613b07565b83019850505b5050505050505092915050565b6001600160a01b0391909116815260200190565b6001600160a01b0384168152604060208201819052600090613b6c9083018486613a40565b95945050505050565b6001600160a01b0385168152608060208201819052600090613b9990830186613a69565b6040830194909452506060015292915050565b6001600160a01b0385168152608060208201819052600090613b9990830186613a95565b60006020808301818452808551808352604092508286019150828160051b870101848801865b83811015613c5757603f19898403018552815160808151818652613c1c82870182613a69565b915050888201518986015287820151888601526060808301519250613c4381870184613a1c565b509588019593505090860190600101613bf6565b509098975050505050505050565b6020808252825182820181905260009190848201906040850190845b81811015613c9d57835183529284019291840191600101613c81565b50909695505050505050565b9182526001600160a01b0316602082015260400190565b613cca8184613a30565b604060208201526000613ce06040830184613a69565b949350505050565b60408101613cf68285613a30565b8260208301529392505050565b604081526000613d17604083018587613a40565b905060018060a01b0383166020830152949350505050565b60208082526037908201527f434f4d3a204e67756f6920676f69206b686f6e672070686169207175616e206c60408201527679206375612068616e672063756120646f6e2068616e6760481b606082015260800190565b60208082526027908201527f434f4d3a204e67756f6920676f69206b686f6e672070686169206c61206b686160408201526663682068616e6760c81b606082015260800190565b6020808252818101527f4f776e61626c653a2063616c6c6572206973206e6f7420746865206f776e6572604082015260600190565b6020808252601b908201527a434f4d3a20446f6e2068616e67206b686f6e6720746f6e2074616960281b604082015260600190565b60208082526028908201527f434f4d3a20446f6e2068616e67206b686f6e6720636f206375612068616e6720604082015267323ab7b19033b0b760c11b606082015260800190565b60208082526027908201527f434f4d3a204e67756f6920676f69207468696575207661692074726f2051554160408201526609cbe98b2be86960cb1b606082015260800190565b6020808252601f908201527f5265656e7472616e637947756172643a207265656e7472616e742063616c6c00604082015260600190565b602081528151602082015260006020830151613f1c6040840182613985565b506040830151613f2f6060840182613985565b506060830151610120806080850152613f4c610140850183613992565b9150608085015160a085015260a0850151613f6a60c0860182613a30565b5060c085015160e085015260e0850151610100818187015280870151915050613f968286018215159052565b5090949350505050565b8881526001600160a01b03888116602083015287166040820152606081018690526101008101613fd36080830187613a30565b8460a08301528360c083015282151560e08301529998505050505050505050565b83815260606020820152600061400d6060830185613a95565b9050613ce06040830184613a1c565b6000808335601e19843603018112614032578283fd5b8301803591506001600160401b0382111561404b578283fd5b60200191503681900382131561361557600080fd5b60008235603e19833603018112614075578182fd5b9190910192915050565b60405160c081016001600160401b03811182821017156140a1576140a16141b0565b60405290565b600082198211156140ba576140ba614184565b500190565b6000826140da57634e487b7160e01b81526012600452602481fd5b500490565b60008160001904831182151516156140f9576140f9614184565b500290565b60005b83811015614119578181015183820152602001614101565b83811115614128576000848401525b50505050565b600181811c9082168061414257607f821691505b6020821081141561416357634e487b7160e01b600052602260045260246000fd5b50919050565b600060001982141561417d5761417d614184565b5060010190565b634e487b7160e01b600052601160045260246000fd5b634e487b7160e01b600052602160045260246000fd5b634e487b7160e01b600052604160045260246000fd5b6001600160a01b03811681146141db57600080fd5b5056fe9d22dd44fa6012f7b18f8831bd91c9e7a12938bc6994e23b1f0b419251f1258a8be0079c531659141344cd1fd0a4f28419497f9722a3daafe3b4186f6b6457e0434f4d3a205472616e67207468616920646f6e2068616e67206b686f6e672063a26469706673582212202238c4cd61dd9d1f2c0573e15c3527abc4ffa495883495cdb00c70f9bff1f2f464736f6c63430008040033",
  "immutableReferences": {
    "887": [
      {
        "length": 32,
        "start": 1073
      },
      {
        "length": 32,
        "start": 3371
      },
      {
        "length": 32,
        "start": 3540
      },
      {
        "length": 32,
        "start": 4856
      },
      {
        "length": 32,
        "start": 5025
      },
      {
        "length": 32,
        "start": 6142
      },
      {
        "length": 32,
        "start": 6311
      },
      {
        "length": 32,
        "start": 8443
      },
      {
        "length": 32,
        "start": 8612
      }
    ],
    "890": [
      {
        "length": 32,
        "start": 1157
      },
      {
        "length": 32,
        "start": 1633
      },
      {
        "length": 32,
        "start": 2059
      },
      {
        "length": 32,
        "start": 3183
      },
      {
        "length": 32,
        "start": 4668
      },
      {
        "length": 32,
        "start": 5954
      },
      {
        "length": 32,
        "start": 8255
      }
    ],
    "898": [
      {
        "length": 32,
        "start": 793
      },
      {
        "length": 32,
        "start": 7718
      },
      {
        "length": 32,
        "start": 7966
      },
      {
        "length": 32,
        "start": 10131
      },
      {
        "length": 32,
        "start": 10838
      }
    ]
  },
  "source": "// SPDX-License-Identifier: MIT\r\npragma solidity ^0.8.4;\r\n\r\nimport \"@openzeppelin/contracts/security/ReentrancyGuard.sol\";\r\nimport \"@openzeppelin/contracts/access/Ownable.sol\";\r\n\r\n// Khai bo trc cu trc t ItemsManagement\r\ncontract ItemsManagement {\r\n    struct PhysicalLocationInfo { address locationId; string name; string locationType; address manager; bool exists; address designatedSourceWarehouseAddress;}\r\n}\r\n\r\n// Interface cho RoleManagement\r\ninterface IRoleManagementInterface {\r\n    function STORE_MANAGER_ROLE() external view returns (bytes32);\r\n    // function WAREHOUSE_MANAGER_ROLE() external view returns (bytes32); // Not directly used by COM anymore\r\n    function DEFAULT_ADMIN_ROLE() external view returns (bytes32); // For setXyzAddress if Ownable is not used for that\r\n    function hasRole(bytes32 role, address account) external view returns (bool);\r\n}\r\n\r\n// Interface cho ItemsManagement\r\ninterface IItemsManagementInterface {\r\n    function getStoreInfo(address storeAddress) external view returns (ItemsManagement.PhysicalLocationInfo memory);\r\n    function getItemRetailPriceAtStore(string calldata itemId, address storeAddress) external view returns (uint256 price, bool priceExists);\r\n}\r\n\r\n// Interface cho StoreInventoryManagement\r\ninterface IStoreInventoryManagementInterface {\r\n    function getStoreStockLevel(address storeAddress, string calldata itemId) external view returns (uint256);\r\n    function deductStockForCustomerSale(address storeAddress, string calldata itemId, uint256 quantity, uint256 customerOrderId) external;\r\n}\r\n\r\n// Interface cho WarehouseInventoryManagement (cho vic tr hng)\r\ninterface IWarehouseInventoryManagementInterface {\r\n    function recordReturnedStockByCustomer(\r\n        address returnToWarehouseAddress,\r\n        string calldata itemId,\r\n        uint256 quantity,\r\n        uint256 customerOrderId\r\n    ) external;\r\n}\r\n\r\n// MI: Interface cho CompanyTreasuryManager  gi hm hon tin\r\ninterface ICompanyTreasuryManagerInterface {\r\n    function refundCustomerOrderFromTreasury(uint256 orderId, address payable customerAddress, uint256 amountToRefund) external;\r\n}\r\n\r\n// Hp ng Qun l n hng Khch hng\r\ncontract CustomerOrderManagement is ReentrancyGuard, Ownable {\r\n    IRoleManagementInterface public immutable roleManagement;\r\n    IItemsManagementInterface public immutable itemsManagement;\r\n    IStoreInventoryManagementInterface public storeInventoryManagement; // Main inventory interaction\r\n    IWarehouseInventoryManagementInterface public warehouseInventoryManagement; // For returns\r\n    \r\n    address public immutable companyTreasuryAddress; // a ch ca CompanyTreasuryManager\r\n\r\n    uint256 public nextOrderId;     // ID cho n hng tip theo\r\n\r\n    // Trng thi n hng ca khch\r\n    enum OrderStatus {\r\n        Placed,                     // 0: Khch t, thanh ton c COM gi\r\n        ProcessingByStore,          // 1: Ca hng ang kim tra tn kho / khi to b sung hng\r\n        AllItemsReadyForDelivery,   // 2: Tt c mt hng  sn sng ti ca hng cho n ny ( b trng thi partiellement)\r\n        DeliveryConfirmedByStore,   // 3: Ca hng xc nhn  giao hng / khch  ly\r\n        Completed,                  // 4: Khch xc nhn nhn hng, tin c gii ngn cho Ngn qu\r\n        CancelledByStore,           // 5: Ca hng hy\r\n        CancelledByCustomer,        // 6: Khch hy trc khi giao hng\r\n        ReturnedByCustomer          // 7: Khch tr hng sau khi nhn\r\n    }\r\n\r\n    // Trng thi ca tng mt hng trong n, do ca hng qun l\r\n    enum OrderItemStatus { \r\n        PendingStoreProcessing,     // Ban u\r\n        StoreStockAvailable,        // Ca hng c hng\r\n        StoreNeedsRestock,          // Ca hng cn t thm (trng thi ty chn)\r\n        ReadyForDelivery,           // Mt hng  c ca hng x l v sn sng\r\n        DeliveredToCustomer         // Mt hng c xc nhn l mt phn ca ln giao cui cng\r\n    }\r\n\r\n    // Mt hng trong n (n gin ha, tp trung vo nhng g khch thy)\r\n    struct OrderItem {\r\n        string itemId;          // ID mt hng\r\n        uint256 quantity;       // S lng\r\n        uint256 unitPrice;      // Gi bn l ti ca hng ti thi im t hng\r\n        OrderItemStatus status; // Trng thi mt hng\r\n    }\r\n\r\n    // Cu trc n hng\r\n    struct Order {\r\n        uint256 orderId;            // ID n hng\r\n        address customerAddress;    // a ch khch hng\r\n        address storeAddress;       // Ca hng khch  chn\r\n        OrderItem[] items;          // Danh sch mt hng\r\n        uint256 totalAmountPaid;    // S tin khch  tr cho hp ng ny\r\n        OrderStatus status;         // Trng thi n hng\r\n        uint256 creationTimestamp;  // Thi im to\r\n        uint256 lastUpdateTimestamp;// Thi im cp nht cui\r\n        bool fundsReleasedToCompany;// Tin  gii ngn cho cng ty cha?\r\n    }\r\n\r\n    // D liu u vo t khch hng (n gin ha: ch itemId v quantity)\r\n    struct OrderItemInput {\r\n        string itemId;\r\n        uint256 quantity;\r\n    }\r\n\r\n    mapping(uint256 => Order) public orders; // orderId => Chi tit n hng\r\n    mapping(address => uint256[]) public customerOrderIds; // customerAddress => Danh sch ID n hng ca khch\r\n    mapping(address => uint256[]) public storeAssignedOrderIds; // storeAddress => Danh sch ID n hng c giao cho ca hng\r\n\r\n    // S kin\r\n    event OrderPlaced(uint256 indexed orderId, address indexed customer, address indexed storeAddress, uint256 totalAmount); // n hng c t\r\n    event OrderItemStatusUpdatedByStore(uint256 indexed orderId, uint256 itemIndex, string itemId, OrderItemStatus newItemStatus, address indexed storeManager); // Trng thi mt hng c ca hng cp nht\r\n    event OrderReadyForDelivery(uint256 indexed orderId, address indexed storeAddress, address indexed storeManager); // n hng sn sng  giao\r\n    event OrderDeliveryConfirmedByStore(uint256 indexed orderId, address indexed storeAddress, address indexed storeManager); // Ca hng xc nhn giao hng\r\n    event OrderCompletedByCustomer(uint256 indexed orderId, address indexed customer); // Khch hng hon thnh n hng\r\n    event FundsReleasedToCompany(uint256 indexed orderId, uint256 amount, address indexed treasury); // Tin c gii ngn cho cng ty\r\n    event OrderOverallStatusUpdated(uint256 indexed orderId, OrderStatus newStatus, uint256 timestamp); // Trng thi tng th n hng c cp nht\r\n    event OrderCancelled(uint256 indexed orderId, address indexed canceller, OrderStatus newStatus, string reason); // n hng b hy\r\n    event OrderReturnedByCustomerNotified(uint256 indexed orderId, address indexed customer, address returnToWarehouse, string reason); // Thng bo khch tr hng\r\n    // event FundsRefundedToCustomer(uint256 indexed orderId, address indexed customer, uint256 amount); // S kin ny s do CTM pht ra l CustomerRefundProcessedFromTreasury\r\n    \r\n    // Admin events\r\n    event StoreInventoryManagementAddressSet(address indexed simAddress); // a ch SIM c t\r\n    event WarehouseInventoryManagementAddressSet(address indexed wimAddress); // a ch WIM c t (cho tr hng)\r\n\r\n    constructor(\r\n        address _roleManagementAddress,\r\n        address _itemsManagementAddress,\r\n        address _companyTreasury // y l a ch ca CompanyTreasuryManager\r\n    ) Ownable() { // Pass msg.sender to Ownable\r\n        require(_roleManagementAddress != address(0), \"COM: Dia chi RM khong hop le\");\r\n        require(_itemsManagementAddress != address(0), \"COM: Dia chi ItemsM khong hop le\");\r\n        require(_companyTreasury != address(0), \"COM: Dia chi ngan quy cong ty khong hop le\");\r\n\r\n        roleManagement = IRoleManagementInterface(_roleManagementAddress);\r\n        itemsManagement = IItemsManagementInterface(_itemsManagementAddress);\r\n        companyTreasuryAddress = _companyTreasury; // Lu a ch ca CTM\r\n        nextOrderId = 1;\r\n    }\r\n\r\n    // --- SETTERS (Owner/Admin only) ---\r\n    function setStoreInventoryManagementAddress(address _simAddress) external onlyOwner {\r\n        require(_simAddress != address(0), \"COM: Dia chi SIM khong hop le\");\r\n        storeInventoryManagement = IStoreInventoryManagementInterface(_simAddress);\r\n        emit StoreInventoryManagementAddressSet(_simAddress);\r\n    }\r\n    function setWarehouseInventoryManagementAddress(address _wimAddress) external onlyOwner {\r\n        require(_wimAddress != address(0), \"COM: Dia chi WIM khong hop le\");\r\n        warehouseInventoryManagement = IWarehouseInventoryManagementInterface(_wimAddress);\r\n        emit WarehouseInventoryManagementAddressSet(_wimAddress);\r\n    }\r\n\r\n    // --- MODIFIERS ---\r\n    modifier onlyOrderCustomer(uint256 _orderId) {\r\n        require(orders[_orderId].orderId != 0, \"COM: Don hang khong ton tai\");\r\n        require(orders[_orderId].customerAddress == msg.sender, \"COM: Nguoi goi khong phai la khach hang\");\r\n        _;\r\n    }\r\n\r\n    modifier onlyStoreManagerForOrder(uint256 _orderId) {\r\n        require(orders[_orderId].orderId != 0, \"COM: Don hang khong ton tai\");\r\n        address storeAddr = orders[_orderId].storeAddress;\r\n        require(storeAddr != address(0), \"COM: Don hang khong co cua hang duoc gan\");\r\n        ItemsManagement.PhysicalLocationInfo memory storeInfo = itemsManagement.getStoreInfo(storeAddr);\r\n        require(storeInfo.manager == msg.sender, \"COM: Nguoi goi khong phai quan ly cua hang cua don hang\");\r\n        bytes32 smRole = roleManagement.STORE_MANAGER_ROLE();\r\n        require(roleManagement.hasRole(smRole, msg.sender), \"COM: Nguoi goi thieu vai tro QUAN_LY_CH\");\r\n        _;\r\n    }\r\n\r\n    // --- CORE ORDER FUNCTIONS ---\r\n    function placeOrder(\r\n        OrderItemInput[] calldata _orderItemsInput,\r\n        address _storeAddress\r\n    ) external payable nonReentrant {\r\n        require(address(storeInventoryManagement) != address(0), \"COM: Dia chi SIM chua duoc dat\");\r\n        require(_orderItemsInput.length > 0, \"COM: Don hang phai co it nhat mot mat hang\");\r\n        itemsManagement.getStoreInfo(_storeAddress); // Kim tra ca hng hp l\r\n\r\n        uint256 currentOrderId = nextOrderId++;\r\n        Order storage newOrder = orders[currentOrderId];\r\n        newOrder.orderId = currentOrderId;\r\n        newOrder.customerAddress = msg.sender;\r\n        newOrder.storeAddress = _storeAddress;\r\n        newOrder.status = OrderStatus.Placed;\r\n        newOrder.creationTimestamp = block.timestamp;\r\n        newOrder.lastUpdateTimestamp = block.timestamp;\r\n\r\n        uint256 calculatedTotalAmount = 0;\r\n        for (uint i = 0; i < _orderItemsInput.length; i++) {\r\n            OrderItemInput calldata itemInput = _orderItemsInput[i];\r\n            require(itemInput.quantity > 0, \"COM: So luong mat hang phai la so duong\");\r\n            (uint256 retailPrice, bool priceExists) = itemsManagement.getItemRetailPriceAtStore(itemInput.itemId, _storeAddress);\r\n            require(priceExists && retailPrice > 0, \"COM: Gia mat hang khong hop le tai cua hang\");\r\n\r\n            newOrder.items.push(OrderItem({\r\n                itemId: itemInput.itemId,\r\n                quantity: itemInput.quantity,\r\n                unitPrice: retailPrice,\r\n                status: OrderItemStatus.PendingStoreProcessing\r\n            }));\r\n            calculatedTotalAmount += retailPrice * itemInput.quantity;\r\n        }\r\n\r\n        require(msg.value == calculatedTotalAmount, \"COM: So tien thanh toan khong chinh xac\");\r\n        newOrder.totalAmountPaid = calculatedTotalAmount;\r\n\r\n        customerOrderIds[msg.sender].push(currentOrderId);\r\n        storeAssignedOrderIds[_storeAddress].push(currentOrderId);\r\n\r\n        emit OrderPlaced(currentOrderId, msg.sender, _storeAddress, calculatedTotalAmount);\r\n        emit OrderOverallStatusUpdated(currentOrderId, newOrder.status, block.timestamp);\r\n    }\r\n\r\n    function storeUpdateOrderItemStatus(uint256 _orderId, uint256 _itemIndex, OrderItemStatus _newStatus)\r\n        external onlyStoreManagerForOrder(_orderId) nonReentrant {\r\n        Order storage currentOrder = orders[_orderId];\r\n        require(currentOrder.status == OrderStatus.Placed || currentOrder.status == OrderStatus.ProcessingByStore,\r\n                \"COM: Trang thai don hang khong cho phep cap nhat\");\r\n        require(_itemIndex < currentOrder.items.length, \"COM: Chi muc mat hang khong hop le\");\r\n        OrderItem storage item = currentOrder.items[_itemIndex];\r\n        require(_newStatus == OrderItemStatus.StoreStockAvailable || _newStatus == OrderItemStatus.StoreNeedsRestock || _newStatus == OrderItemStatus.ReadyForDelivery, \r\n                \"COM: Trang thai cap nhat khong hop le\");\r\n        \r\n        item.status = _newStatus;\r\n        currentOrder.lastUpdateTimestamp = block.timestamp;\r\n        emit OrderItemStatusUpdatedByStore(_orderId, _itemIndex, item.itemId, _newStatus, msg.sender);\r\n        _updateOverallOrderStatusAfterStoreAction(_orderId);\r\n    }\r\n    \r\n    function storeConfirmAllItemsReadyForDelivery(uint256 _orderId)\r\n        external onlyStoreManagerForOrder(_orderId) nonReentrant {\r\n        Order storage currentOrder = orders[_orderId];\r\n        require(currentOrder.status == OrderStatus.ProcessingByStore, \"COM: Don hang chua o trang thai dang xu ly\");\r\n        for (uint i = 0; i < currentOrder.items.length; i++) {\r\n            require(currentOrder.items[i].status == OrderItemStatus.ReadyForDelivery, \"COM: Chua du tat ca mat hang san sang\");\r\n        }\r\n        currentOrder.status = OrderStatus.AllItemsReadyForDelivery;\r\n        currentOrder.lastUpdateTimestamp = block.timestamp;\r\n        emit OrderReadyForDelivery(_orderId, currentOrder.storeAddress, msg.sender);\r\n        emit OrderOverallStatusUpdated(_orderId, currentOrder.status, block.timestamp);\r\n    }\r\n\r\n    function storeConfirmDeliveryToCustomer(uint256 _orderId)\r\n        external onlyStoreManagerForOrder(_orderId) nonReentrant {\r\n        Order storage currentOrder = orders[_orderId];\r\n        require(currentOrder.status == OrderStatus.AllItemsReadyForDelivery, \"COM: Don hang chua san sang de giao\");\r\n        for (uint i = 0; i < currentOrder.items.length; i++) {\r\n            OrderItem storage item = currentOrder.items[i];\r\n            require(item.status == OrderItemStatus.ReadyForDelivery, \"COM: Mot mat hang chua san sang\");\r\n            storeInventoryManagement.deductStockForCustomerSale(currentOrder.storeAddress, item.itemId, item.quantity, _orderId);\r\n            item.status = OrderItemStatus.DeliveredToCustomer;\r\n        }\r\n        currentOrder.status = OrderStatus.DeliveryConfirmedByStore;\r\n        currentOrder.lastUpdateTimestamp = block.timestamp;\r\n        emit OrderDeliveryConfirmedByStore(_orderId, currentOrder.storeAddress, msg.sender);\r\n        emit OrderOverallStatusUpdated(_orderId, currentOrder.status, block.timestamp);\r\n    }\r\n    \r\n    function customerConfirmReceipt(uint256 _orderId)\r\n        external onlyOrderCustomer(_orderId) nonReentrant {\r\n        Order storage currentOrder = orders[_orderId];\r\n        require(currentOrder.status == OrderStatus.DeliveryConfirmedByStore, \"COM: Cua hang chua xac nhan giao hang\");\r\n        require(!currentOrder.fundsReleasedToCompany, \"COM: Tien da duoc giai ngan\");\r\n\r\n        currentOrder.status = OrderStatus.Completed;\r\n        currentOrder.lastUpdateTimestamp = block.timestamp;\r\n        currentOrder.fundsReleasedToCompany = true;\r\n\r\n        (bool success, ) = payable(companyTreasuryAddress).call{value: currentOrder.totalAmountPaid}(\"\");\r\n        require(success, \"COM: Giai ngan tien cho ngan quy cong ty that bai\");\r\n\r\n        emit OrderCompletedByCustomer(_orderId, msg.sender);\r\n        emit FundsReleasedToCompany(_orderId, currentOrder.totalAmountPaid, companyTreasuryAddress);\r\n        emit OrderOverallStatusUpdated(_orderId, currentOrder.status, block.timestamp);\r\n    }\r\n\r\n    // --- CANCELLATION AND RETURN FUNCTIONS ---\r\n    function cancelOrderByStore(uint256 _orderId, string calldata _reason)\r\n        external onlyStoreManagerForOrder(_orderId) nonReentrant {\r\n        Order storage currentOrder = orders[_orderId];\r\n        require(currentOrder.status == OrderStatus.Placed || currentOrder.status == OrderStatus.ProcessingByStore,\r\n                \"COM: Trang thai don hang khong cho phep cua hang huy\");\r\n        _internalCancelOrderAndRefund(_orderId, msg.sender, OrderStatus.CancelledByStore, _reason, 100);\r\n    }\r\n\r\n    function customerCancelOrderBeforeDelivery(uint256 _orderId, string calldata _reason)\r\n        external onlyOrderCustomer(_orderId) nonReentrant {\r\n        Order storage currentOrder = orders[_orderId];\r\n        require(currentOrder.status < OrderStatus.DeliveryConfirmedByStore && currentOrder.status != OrderStatus.CancelledByStore,\r\n                \"COM: Trang thai don hang khong cho phep khach huy\");\r\n        _internalCancelOrderAndRefund(_orderId, msg.sender, OrderStatus.CancelledByCustomer, _reason, 100);\r\n    }\r\n\r\n    //  cp nht: Hon 90% t Ngn qu khi tr hng\r\n    function customerReturnOrderAfterReceipt(uint256 _orderId, address _returnToWarehouseAddress, string calldata _reason)\r\n        external\r\n        onlyOrderCustomer(_orderId)\r\n        nonReentrant\r\n    {\r\n        Order storage currentOrder = orders[_orderId];\r\n        require(currentOrder.status == OrderStatus.Completed, \"COM: Don hang chua hoan thanh de co the tra lai\");\r\n        require(address(warehouseInventoryManagement) != address(0), \"COM: Dia chi WIM cho viec tra hang chua duoc dat\");\r\n        require(companyTreasuryAddress != address(0), \"COM: Dia chi CTM chua duoc dat de hoan tien\"); // Thm kim tra\r\n        \r\n        // 1. Ghi nhn hng tr v cho Warehouse Inventory\r\n        for (uint i = 0; i < currentOrder.items.length; i++) {\r\n            OrderItem memory item = currentOrder.items[i];\r\n            warehouseInventoryManagement.recordReturnedStockByCustomer(\r\n                _returnToWarehouseAddress, item.itemId, item.quantity, _orderId\r\n            );\r\n        }\r\n\r\n        // 2. Cp nht trng thi n hng\r\n        currentOrder.status = OrderStatus.ReturnedByCustomer;\r\n        currentOrder.lastUpdateTimestamp = block.timestamp;\r\n        // currentOrder.fundsReleasedToCompany L TRUE  y\r\n\r\n        // 3. Tnh ton v yu cu hon tin 90% t CompanyTreasuryManager\r\n        uint256 refundPercentage = 90; // C nh 90%\r\n        uint256 amountToRefund = (currentOrder.totalAmountPaid * refundPercentage) / 100;\r\n\r\n        if (amountToRefund > 0) {\r\n            // Gi CTM  thc hin hon tin.\r\n            ICompanyTreasuryManagerInterface(companyTreasuryAddress).refundCustomerOrderFromTreasury(\r\n                _orderId, \r\n                payable(currentOrder.customerAddress), \r\n                amountToRefund\r\n            );\r\n            // CTM s emit s kin CustomerRefundProcessedFromTreasury.\r\n        }\r\n        \r\n        emit OrderReturnedByCustomerNotified(_orderId, msg.sender, _returnToWarehouseAddress, _reason);\r\n        emit OrderOverallStatusUpdated(_orderId, currentOrder.status, block.timestamp);\r\n    }\r\n\r\n    // --- INTERNAL HELPER FUNCTIONS ---\r\n    function _internalCancelOrderAndRefund(\r\n        uint256 _orderId,\r\n        address _canceller,\r\n        OrderStatus _newStatus,\r\n        string memory _reason,\r\n        uint256 _refundPercentage\r\n    ) internal {\r\n        Order storage currentOrder = orders[_orderId];\r\n        require(!currentOrder.fundsReleasedToCompany, \"COM: Khong the huy/hoan tien, tien da thuoc ve cong ty\");\r\n\r\n        currentOrder.status = _newStatus;\r\n        currentOrder.lastUpdateTimestamp = block.timestamp;\r\n\r\n        if (_refundPercentage > 0 && currentOrder.totalAmountPaid > 0) {\r\n            uint256 refundAmount = (currentOrder.totalAmountPaid * _refundPercentage) / 100;\r\n            if (refundAmount > 0) {\r\n                (bool success, ) = payable(currentOrder.customerAddress).call{value: refundAmount}(\"\");\r\n                require(success, \"COM: Hoan tien cho khach that bai, viec huy bi hoan tac\");\r\n                // Khng emit FundsRefundedToCustomer  y na nu mun CTM qun l s kin ny thng nht\r\n                // Nu hy trc khi tin vo CTM, th COM t hon v c th t emit s kin ring.\r\n                //  nht qun, c th b event FundsRefundedToCustomer v ch da vo event ca CTM\r\n            }\r\n        }\r\n        emit OrderCancelled(_orderId, _canceller, _newStatus, _reason);\r\n        emit OrderOverallStatusUpdated(_orderId, currentOrder.status, block.timestamp);\r\n    }\r\n\r\n    function _updateOverallOrderStatusAfterStoreAction(uint256 _orderId) internal {\r\n        Order storage currentOrder = orders[_orderId];\r\n        if (currentOrder.status == OrderStatus.Placed) {\r\n             bool anyItemTouchedByStore = false;\r\n             for(uint i=0; i < currentOrder.items.length; i++){\r\n                 if(currentOrder.items[i].status != OrderItemStatus.PendingStoreProcessing){\r\n                     anyItemTouchedByStore = true;\r\n                     break;\r\n                 }\r\n             }\r\n             if(anyItemTouchedByStore){\r\n                currentOrder.status = OrderStatus.ProcessingByStore;\r\n                currentOrder.lastUpdateTimestamp = block.timestamp;\r\n                emit OrderOverallStatusUpdated(_orderId, currentOrder.status, block.timestamp);\r\n             }\r\n        }\r\n    }\r\n\r\n    function isOrderInFinalState(OrderStatus _status) internal pure returns (bool) {\r\n        return _status >= OrderStatus.Completed;\r\n    }\r\n\r\n    // --- VIEW FUNCTIONS ---\r\n    function getOrderDetails(uint256 _orderId) external view returns (Order memory) {\r\n        require(orders[_orderId].orderId != 0, \"COM: Don hang khong ton tai\");\r\n        return orders[_orderId];\r\n    }\r\n    function getOrderItems(uint256 _orderId) external view returns (OrderItem[] memory) {\r\n        require(orders[_orderId].orderId != 0, \"COM: Don hang khong ton tai\");\r\n        return orders[_orderId].items;\r\n    }\r\n    function getCustomerOrders(address _customer) external view returns (uint256[] memory) { return customerOrderIds[_customer]; }\r\n    function getStoreAssignedOrders(address _store) external view returns (uint256[] memory) { return storeAssignedOrderIds[_store]; }\r\n    \r\n    // --- EMERGENCY/ADMIN FUNCTIONS ---\r\n    function emergencyWithdraw(address payable _to) external onlyOwner nonReentrant { //  sa  nhn _to\r\n        require(_to != address(0), \"COM: Nguoi nhan khong hop le\");\r\n        uint256 balance = address(this).balance;\r\n        if (balance > 0) {\r\n             // Quyt nh chuyn cho _to (do owner ch nh) hay c nh v companyTreasuryAddress\r\n            (bool success, ) = _to.call{value: balance}(\"\");\r\n            // (bool success, ) = payable(companyTreasuryAddress).call{value: balance}(\"\"); // Hoc lun chuyn v ngn qu\r\n            require(success, \"COM: Rut tien khan cap that bai\");\r\n        }\r\n    }\r\n}\r\n\r\n",
  "sourcePath": "D:\\nhi\\Logtech\\New tech in Log\\dapp2\\SC\\contracts\\CustomerOrder.sol",
  "compiler": {
    "name": "solc",
    "version": "0.8.4+commit.c7e474f2.Emscripten.clang"
  },
  "schemaVersion": "3.4.16",
  "updatedAt": "2025-06-02T04:18:16.120Z",
  "devdoc": {
    "kind": "dev",
    "methods": {
      "owner()": {
        "details": "Returns the address of the current owner."
      },
      "renounceOwnership()": {
        "details": "Leaves the contract without owner. It will not be possible to call `onlyOwner` functions anymore. Can only be called by the current owner. NOTE: Renouncing ownership will leave the contract without an owner, thereby removing any functionality that is only available to the owner."
      },
      "transferOwnership(address)": {
        "details": "Transfers ownership of the contract to a new account (`newOwner`). Can only be called by the current owner."
      }
    },
    "version": 1
  },
  "userdoc": {
    "kind": "user",
    "methods": {},
    "version": 1
  }
}