{
  "contractName": "CustomerOrderManagement",
  "abi": [
    {
      "inputs": [
        {
          "internalType": "address",
          "name": "_roleManagementAddress",
          "type": "address"
        },
        {
          "internalType": "address",
          "name": "_itemsManagementAddress",
          "type": "address"
        },
        {
          "internalType": "address",
          "name": "_companyTreasuryManagerAddress",
          "type": "address"
        }
      ],
      "stateMutability": "nonpayable",
      "type": "constructor"
    },
    {
      "anonymous": false,
      "inputs": [
        {
          "indexed": true,
          "internalType": "uint256",
          "name": "orderId",
          "type": "uint256"
        },
        {
          "indexed": false,
          "internalType": "uint256",
          "name": "amount",
          "type": "uint256"
        },
        {
          "indexed": true,
          "internalType": "address",
          "name": "treasuryAddress",
          "type": "address"
        }
      ],
      "name": "FundsReleasedToCompanyTreasury",
      "type": "event"
    },
    {
      "anonymous": false,
      "inputs": [
        {
          "indexed": true,
          "internalType": "uint256",
          "name": "orderId",
          "type": "uint256"
        },
        {
          "indexed": true,
          "internalType": "address",
          "name": "canceller",
          "type": "address"
        },
        {
          "indexed": false,
          "internalType": "enum CustomerOrderManagement.OrderStatus",
          "name": "newStatus",
          "type": "uint8"
        },
        {
          "indexed": false,
          "internalType": "string",
          "name": "reason",
          "type": "string"
        },
        {
          "indexed": false,
          "internalType": "uint256",
          "name": "amountRefunded",
          "type": "uint256"
        }
      ],
      "name": "OrderCancelled",
      "type": "event"
    },
    {
      "anonymous": false,
      "inputs": [
        {
          "indexed": true,
          "internalType": "uint256",
          "name": "orderId",
          "type": "uint256"
        },
        {
          "indexed": true,
          "internalType": "address",
          "name": "customer",
          "type": "address"
        }
      ],
      "name": "OrderCompletedByCustomer",
      "type": "event"
    },
    {
      "anonymous": false,
      "inputs": [
        {
          "indexed": true,
          "internalType": "uint256",
          "name": "orderId",
          "type": "uint256"
        },
        {
          "indexed": true,
          "internalType": "address",
          "name": "storeAddress",
          "type": "address"
        },
        {
          "indexed": true,
          "internalType": "address",
          "name": "byStoreManager",
          "type": "address"
        }
      ],
      "name": "OrderDeliveryConfirmedByStore",
      "type": "event"
    },
    {
      "anonymous": false,
      "inputs": [
        {
          "indexed": true,
          "internalType": "uint256",
          "name": "orderId",
          "type": "uint256"
        },
        {
          "indexed": false,
          "internalType": "uint256",
          "name": "itemIndexInOrder",
          "type": "uint256"
        },
        {
          "indexed": false,
          "internalType": "string",
          "name": "itemId",
          "type": "string"
        },
        {
          "indexed": false,
          "internalType": "enum CustomerOrderManagement.OrderItemStatus",
          "name": "newItemStatus",
          "type": "uint8"
        },
        {
          "indexed": true,
          "internalType": "address",
          "name": "byStoreManager",
          "type": "address"
        }
      ],
      "name": "OrderItemStatusUpdatedByStore",
      "type": "event"
    },
    {
      "anonymous": false,
      "inputs": [
        {
          "indexed": true,
          "internalType": "uint256",
          "name": "orderId",
          "type": "uint256"
        },
        {
          "indexed": false,
          "internalType": "enum CustomerOrderManagement.OrderStatus",
          "name": "newStatus",
          "type": "uint8"
        },
        {
          "indexed": false,
          "internalType": "uint256",
          "name": "timestamp",
          "type": "uint256"
        }
      ],
      "name": "OrderOverallStatusUpdated",
      "type": "event"
    },
    {
      "anonymous": false,
      "inputs": [
        {
          "indexed": true,
          "internalType": "uint256",
          "name": "orderId",
          "type": "uint256"
        },
        {
          "indexed": true,
          "internalType": "address",
          "name": "customer",
          "type": "address"
        },
        {
          "indexed": true,
          "internalType": "address",
          "name": "storeAddress",
          "type": "address"
        },
        {
          "indexed": false,
          "internalType": "uint256",
          "name": "totalAmount",
          "type": "uint256"
        }
      ],
      "name": "OrderPlaced",
      "type": "event"
    },
    {
      "anonymous": false,
      "inputs": [
        {
          "indexed": true,
          "internalType": "uint256",
          "name": "orderId",
          "type": "uint256"
        },
        {
          "indexed": true,
          "internalType": "address",
          "name": "storeAddress",
          "type": "address"
        },
        {
          "indexed": true,
          "internalType": "address",
          "name": "byStoreManager",
          "type": "address"
        }
      ],
      "name": "OrderReadyForDelivery",
      "type": "event"
    },
    {
      "anonymous": false,
      "inputs": [
        {
          "indexed": true,
          "internalType": "uint256",
          "name": "orderId",
          "type": "uint256"
        },
        {
          "indexed": true,
          "internalType": "address",
          "name": "customer",
          "type": "address"
        },
        {
          "indexed": false,
          "internalType": "address",
          "name": "returnToWarehouse",
          "type": "address"
        },
        {
          "indexed": false,
          "internalType": "string",
          "name": "reason",
          "type": "string"
        }
      ],
      "name": "OrderReturnProcessed",
      "type": "event"
    },
    {
      "anonymous": false,
      "inputs": [
        {
          "indexed": true,
          "internalType": "address",
          "name": "previousOwner",
          "type": "address"
        },
        {
          "indexed": true,
          "internalType": "address",
          "name": "newOwner",
          "type": "address"
        }
      ],
      "name": "OwnershipTransferred",
      "type": "event"
    },
    {
      "anonymous": false,
      "inputs": [
        {
          "indexed": true,
          "internalType": "address",
          "name": "simAddress",
          "type": "address"
        }
      ],
      "name": "StoreInventoryManagementAddressSet",
      "type": "event"
    },
    {
      "anonymous": false,
      "inputs": [
        {
          "indexed": true,
          "internalType": "address",
          "name": "wimAddress",
          "type": "address"
        }
      ],
      "name": "WarehouseInventoryManagementAddressSet",
      "type": "event"
    },
    {
      "inputs": [],
      "name": "companyTreasuryManager",
      "outputs": [
        {
          "internalType": "contract ICompanyTreasuryManagerInterface",
          "name": "",
          "type": "address"
        }
      ],
      "stateMutability": "view",
      "type": "function"
    },
    {
      "inputs": [
        {
          "internalType": "address",
          "name": "",
          "type": "address"
        },
        {
          "internalType": "uint256",
          "name": "",
          "type": "uint256"
        }
      ],
      "name": "customerOrderIds",
      "outputs": [
        {
          "internalType": "uint256",
          "name": "",
          "type": "uint256"
        }
      ],
      "stateMutability": "view",
      "type": "function"
    },
    {
      "inputs": [],
      "name": "itemsManagement",
      "outputs": [
        {
          "internalType": "contract IItemsManagementInterface",
          "name": "",
          "type": "address"
        }
      ],
      "stateMutability": "view",
      "type": "function"
    },
    {
      "inputs": [],
      "name": "nextOrderId",
      "outputs": [
        {
          "internalType": "uint256",
          "name": "",
          "type": "uint256"
        }
      ],
      "stateMutability": "view",
      "type": "function"
    },
    {
      "inputs": [
        {
          "internalType": "uint256",
          "name": "",
          "type": "uint256"
        }
      ],
      "name": "orders",
      "outputs": [
        {
          "internalType": "uint256",
          "name": "orderId",
          "type": "uint256"
        },
        {
          "internalType": "address",
          "name": "customerAddress",
          "type": "address"
        },
        {
          "internalType": "address",
          "name": "storeAddress",
          "type": "address"
        },
        {
          "internalType": "uint256",
          "name": "totalAmountPaid",
          "type": "uint256"
        },
        {
          "internalType": "enum CustomerOrderManagement.OrderStatus",
          "name": "status",
          "type": "uint8"
        },
        {
          "internalType": "uint256",
          "name": "creationTimestamp",
          "type": "uint256"
        },
        {
          "internalType": "uint256",
          "name": "lastUpdateTimestamp",
          "type": "uint256"
        },
        {
          "internalType": "bool",
          "name": "fundsReleasedToCompany",
          "type": "bool"
        }
      ],
      "stateMutability": "view",
      "type": "function"
    },
    {
      "inputs": [],
      "name": "owner",
      "outputs": [
        {
          "internalType": "address",
          "name": "",
          "type": "address"
        }
      ],
      "stateMutability": "view",
      "type": "function"
    },
    {
      "inputs": [],
      "name": "renounceOwnership",
      "outputs": [],
      "stateMutability": "nonpayable",
      "type": "function"
    },
    {
      "inputs": [],
      "name": "roleManagement",
      "outputs": [
        {
          "internalType": "contract IRoleManagementInterface",
          "name": "",
          "type": "address"
        }
      ],
      "stateMutability": "view",
      "type": "function"
    },
    {
      "inputs": [
        {
          "internalType": "address",
          "name": "",
          "type": "address"
        },
        {
          "internalType": "uint256",
          "name": "",
          "type": "uint256"
        }
      ],
      "name": "storeAssignedOrderIds",
      "outputs": [
        {
          "internalType": "uint256",
          "name": "",
          "type": "uint256"
        }
      ],
      "stateMutability": "view",
      "type": "function"
    },
    {
      "inputs": [],
      "name": "storeInventoryManagement",
      "outputs": [
        {
          "internalType": "contract IStoreInventoryManagementInterface",
          "name": "",
          "type": "address"
        }
      ],
      "stateMutability": "view",
      "type": "function"
    },
    {
      "inputs": [
        {
          "internalType": "address",
          "name": "newOwner",
          "type": "address"
        }
      ],
      "name": "transferOwnership",
      "outputs": [],
      "stateMutability": "nonpayable",
      "type": "function"
    },
    {
      "inputs": [],
      "name": "warehouseInventoryManagement",
      "outputs": [
        {
          "internalType": "contract IWarehouseInventoryManagementInterface",
          "name": "",
          "type": "address"
        }
      ],
      "stateMutability": "view",
      "type": "function"
    },
    {
      "inputs": [
        {
          "internalType": "address",
          "name": "_simAddress",
          "type": "address"
        }
      ],
      "name": "setStoreInventoryManagementAddress",
      "outputs": [],
      "stateMutability": "nonpayable",
      "type": "function"
    },
    {
      "inputs": [
        {
          "internalType": "address",
          "name": "_wimAddress",
          "type": "address"
        }
      ],
      "name": "setWarehouseInventoryManagementAddress",
      "outputs": [],
      "stateMutability": "nonpayable",
      "type": "function"
    },
    {
      "inputs": [
        {
          "components": [
            {
              "internalType": "string",
              "name": "itemId",
              "type": "string"
            },
            {
              "internalType": "uint256",
              "name": "quantity",
              "type": "uint256"
            }
          ],
          "internalType": "struct CustomerOrderManagement.OrderItemInput[]",
          "name": "_orderItemsInput",
          "type": "tuple[]"
        },
        {
          "internalType": "address",
          "name": "_storeAddress",
          "type": "address"
        }
      ],
      "name": "placeOrder",
      "outputs": [],
      "stateMutability": "payable",
      "type": "function"
    },
    {
      "inputs": [
        {
          "internalType": "uint256",
          "name": "_orderId",
          "type": "uint256"
        },
        {
          "internalType": "uint256",
          "name": "_itemIndex",
          "type": "uint256"
        },
        {
          "internalType": "enum CustomerOrderManagement.OrderItemStatus",
          "name": "_newStatus",
          "type": "uint8"
        }
      ],
      "name": "storeUpdateOrderItemStatus",
      "outputs": [],
      "stateMutability": "nonpayable",
      "type": "function"
    },
    {
      "inputs": [
        {
          "internalType": "uint256",
          "name": "_orderId",
          "type": "uint256"
        }
      ],
      "name": "storeConfirmAllItemsReadyForDelivery",
      "outputs": [],
      "stateMutability": "nonpayable",
      "type": "function"
    },
    {
      "inputs": [
        {
          "internalType": "uint256",
          "name": "_orderId",
          "type": "uint256"
        }
      ],
      "name": "storeConfirmDeliveryToCustomer",
      "outputs": [],
      "stateMutability": "nonpayable",
      "type": "function"
    },
    {
      "inputs": [
        {
          "internalType": "uint256",
          "name": "_orderId",
          "type": "uint256"
        }
      ],
      "name": "customerConfirmReceipt",
      "outputs": [],
      "stateMutability": "nonpayable",
      "type": "function"
    },
    {
      "inputs": [
        {
          "internalType": "uint256",
          "name": "_orderId",
          "type": "uint256"
        },
        {
          "internalType": "string",
          "name": "_reason",
          "type": "string"
        }
      ],
      "name": "cancelOrderByStore",
      "outputs": [],
      "stateMutability": "nonpayable",
      "type": "function"
    },
    {
      "inputs": [
        {
          "internalType": "uint256",
          "name": "_orderId",
          "type": "uint256"
        },
        {
          "internalType": "string",
          "name": "_reason",
          "type": "string"
        }
      ],
      "name": "customerCancelOrderBeforeDelivery",
      "outputs": [],
      "stateMutability": "nonpayable",
      "type": "function"
    },
    {
      "inputs": [
        {
          "internalType": "uint256",
          "name": "_orderId",
          "type": "uint256"
        },
        {
          "internalType": "address",
          "name": "_returnToWarehouseAddress",
          "type": "address"
        },
        {
          "internalType": "string",
          "name": "_reason",
          "type": "string"
        }
      ],
      "name": "customerReturnOrderAfterReceipt",
      "outputs": [],
      "stateMutability": "nonpayable",
      "type": "function"
    },
    {
      "inputs": [
        {
          "internalType": "uint256",
          "name": "_orderId",
          "type": "uint256"
        }
      ],
      "name": "getOrderDetails",
      "outputs": [
        {
          "components": [
            {
              "internalType": "uint256",
              "name": "orderId",
              "type": "uint256"
            },
            {
              "internalType": "address",
              "name": "customerAddress",
              "type": "address"
            },
            {
              "internalType": "address",
              "name": "storeAddress",
              "type": "address"
            },
            {
              "components": [
                {
                  "internalType": "string",
                  "name": "itemId",
                  "type": "string"
                },
                {
                  "internalType": "uint256",
                  "name": "quantity",
                  "type": "uint256"
                },
                {
                  "internalType": "uint256",
                  "name": "unitPrice",
                  "type": "uint256"
                },
                {
                  "internalType": "enum CustomerOrderManagement.OrderItemStatus",
                  "name": "status",
                  "type": "uint8"
                }
              ],
              "internalType": "struct CustomerOrderManagement.OrderItem[]",
              "name": "items",
              "type": "tuple[]"
            },
            {
              "internalType": "uint256",
              "name": "totalAmountPaid",
              "type": "uint256"
            },
            {
              "internalType": "enum CustomerOrderManagement.OrderStatus",
              "name": "status",
              "type": "uint8"
            },
            {
              "internalType": "uint256",
              "name": "creationTimestamp",
              "type": "uint256"
            },
            {
              "internalType": "uint256",
              "name": "lastUpdateTimestamp",
              "type": "uint256"
            },
            {
              "internalType": "bool",
              "name": "fundsReleasedToCompany",
              "type": "bool"
            }
          ],
          "internalType": "struct CustomerOrderManagement.Order",
          "name": "",
          "type": "tuple"
        }
      ],
      "stateMutability": "view",
      "type": "function"
    },
    {
      "inputs": [
        {
          "internalType": "uint256",
          "name": "_orderId",
          "type": "uint256"
        }
      ],
      "name": "getOrderItems",
      "outputs": [
        {
          "components": [
            {
              "internalType": "string",
              "name": "itemId",
              "type": "string"
            },
            {
              "internalType": "uint256",
              "name": "quantity",
              "type": "uint256"
            },
            {
              "internalType": "uint256",
              "name": "unitPrice",
              "type": "uint256"
            },
            {
              "internalType": "enum CustomerOrderManagement.OrderItemStatus",
              "name": "status",
              "type": "uint8"
            }
          ],
          "internalType": "struct CustomerOrderManagement.OrderItem[]",
          "name": "",
          "type": "tuple[]"
        }
      ],
      "stateMutability": "view",
      "type": "function"
    },
    {
      "inputs": [
        {
          "internalType": "address",
          "name": "_customer",
          "type": "address"
        }
      ],
      "name": "getCustomerOrders",
      "outputs": [
        {
          "internalType": "uint256[]",
          "name": "",
          "type": "uint256[]"
        }
      ],
      "stateMutability": "view",
      "type": "function"
    },
    {
      "inputs": [
        {
          "internalType": "address",
          "name": "_store",
          "type": "address"
        }
      ],
      "name": "getStoreAssignedOrders",
      "outputs": [
        {
          "internalType": "uint256[]",
          "name": "",
          "type": "uint256[]"
        }
      ],
      "stateMutability": "view",
      "type": "function"
    },
    {
      "inputs": [
        {
          "internalType": "address payable",
          "name": "_to",
          "type": "address"
        }
      ],
      "name": "emergencyWithdrawEther",
      "outputs": [],
      "stateMutability": "nonpayable",
      "type": "function"
    }
  ],
  "bytecode": "0x60e06040523480156200001157600080fd5b5060405162004678380380620046788339810160408190526200003491620001e4565b6001600081815581546001600160a01b031916339081179092556040518291907f8be0079c531659141344cd1fd0a4f28419497f9722a3daafe3b4186f6b6457e0908290a3506001600160a01b038316620000d65760405162461bcd60e51b815260206004820152601c60248201527f434f4d3a204469612063686920524d206b686f6e6720686f70206c650000000060448201526064015b60405180910390fd5b6001600160601b0319606084901b166080526001600160a01b038216620001405760405162461bcd60e51b815260206004820181905260248201527f434f4d3a2044696120636869204974656d734d206b686f6e6720686f70206c656044820152606401620000cd565b6001600160601b0319606083901b1660a0526001600160a01b038116620001aa5760405162461bcd60e51b815260206004820152601d60248201527f434f4d3a20446961206368692043544d206b686f6e6720686f70206c650000006044820152606401620000cd565b60601b6001600160601b03191660c052505060016004556200022d565b80516001600160a01b0381168114620001df57600080fd5b919050565b600080600060608486031215620001f9578283fd5b6200020484620001c7565b92506200021460208501620001c7565b91506200022460408501620001c7565b90509250925092565b60805160601c60a05160601c60c05160601c61439b620002dd600039600081816102b601528181611eeb01528181611fe30152612b460152600081816104d50152818161073d0152818161093001528181610d92015281816113ed01528181611959015261210201526000818161048101528181610e4501528181610ef3015281816114a00152818161154e01528181611a0c01528181611aba015281816121b50152612263015261439b6000f3fe60806040526004361061019c5760003560e01c806390e31261116100ec578063c19aacdd1161008a578063f2fde38b11610064578063f2fde38b14610544578063f4ddd27a14610564578063fb13e2eb14610584578063feedc7d3146105b157600080fd5b8063c19aacdd146104c3578063deeb2b9c146104f7578063ec7dd7bb1461051757600080fd5b8063b39399af116100c6578063b39399af1461042f578063b630afc91461044f578063b977ba181461046f578063c10940ad146104a357600080fd5b806390e312611461036b578063a85c38ef1461038b578063b34b29a31461040f57600080fd5b80635d942d421161015957806368137aeb1161013357806368137aeb146102f8578063715018a6146103185780638da5cb5b1461032d5780638f5b18f11461034b57600080fd5b80635d942d42146102845780635f677881146102a4578063675b3724146102d857600080fd5b80630aa1be39146101a15780630abd4763146101b657806314693b75146101f357806322f974d2146102215780632a58b3301461024e57806338a3b2d814610264575b600080fd5b6101b46101af366004613848565b6105d1565b005b3480156101c257600080fd5b506002546101d6906001600160a01b031681565b6040516001600160a01b0390911681526020015b60405180910390f35b3480156101ff57600080fd5b5061021361020e36600461381d565b610c79565b6040519081526020016101ea565b34801561022d57600080fd5b5061024161023c3660046137fa565b610caa565b6040516101ea9190613db2565b34801561025a57600080fd5b5061021360045481565b34801561027057600080fd5b506101b461027f366004613ac3565b610d16565b34801561029057600080fd5b5061024161029f3660046137fa565b611307565b3480156102b057600080fd5b506101d67f000000000000000000000000000000000000000000000000000000000000000081565b3480156102e457600080fd5b506101b46102f33660046139dc565b611371565b34801561030457600080fd5b506101b4610313366004613a79565b6118dd565b34801561032457600080fd5b506101b4611ca7565b34801561033957600080fd5b506001546001600160a01b03166101d6565b34801561035757600080fd5b5061021361036636600461381d565b611d1b565b34801561037757600080fd5b506101b46103863660046139dc565b611d37565b34801561039757600080fd5b506103fb6103a63660046139dc565b60056020819052600091825260409091208054600182015460028301546004840154948401546006850154600786015460089096015494966001600160a01b0394851696939094169460ff9283169391921688565b6040516101ea9897969594939291906140fd565b34801561041b57600080fd5b506003546101d6906001600160a01b031681565b34801561043b57600080fd5b506101b461044a3660046139dc565b612086565b34801561045b57600080fd5b506101b461046a366004613a79565b61253d565b34801561047b57600080fd5b506101d67f000000000000000000000000000000000000000000000000000000000000000081565b3480156104af57600080fd5b506101b46104be3660046139f4565b612716565b3480156104cf57600080fd5b506101d67f000000000000000000000000000000000000000000000000000000000000000081565b34801561050357600080fd5b506101b46105123660046137fa565b612c2c565b34801561052357600080fd5b506105376105323660046139dc565b612d89565b6040516101ea9190614050565b34801561055057600080fd5b506101b461055f3660046137fa565b61300f565b34801561057057600080fd5b506101b461057f3660046137fa565b6130fa565b34801561059057600080fd5b506105a461059f3660046139dc565b6131c4565b6040516101ea9190613d1d565b3480156105bd57600080fd5b506101b46105cc3660046137fa565b613350565b600260005414156105fd5760405162461bcd60e51b81526004016105f490614019565b60405180910390fd5b60026000819055546001600160a01b031661065a5760405162461bcd60e51b815260206004820152601e60248201527f434f4d3a20446961206368692053494d20636875612064756f6320646174000060448201526064016105f4565b6001600160a01b0381166106bb5760405162461bcd60e51b815260206004820152602260248201527f434f4d3a2044696120636869206375612068616e67206b686f6e6720686f70206044820152616c6560f01b60648201526084016105f4565b8161071b5760405162461bcd60e51b815260206004820152602a60248201527f434f4d3a20446f6e2068616e67207068616920636f206974206e686174206d6f60448201526974206d61742068616e6760b01b60648201526084016105f4565b60405163329a587360e01b81526001600160a01b0382811660048301526000917f00000000000000000000000000000000000000000000000000000000000000009091169063329a58739060240160006040518083038186803b15801561078157600080fd5b505afa158015610795573d6000803e3d6000fd5b505050506040513d6000823e601f3d908101601f191682016040526107bd91908101906138fb565b905080608001516108105760405162461bcd60e51b815260206004820152601b60248201527f434f4d3a204375612068616e67206b686f6e6720746f6e20746169000000000060448201526064016105f4565b6004805460009182610821836142d0565b9091555060008181526005602081905260408220838155600181018054336001600160a01b0319918216179091556002820180549091166001600160a01b038916179055908101805460ff1916905542600682018190556007820155919250805b86811015610b5557368888838181106108ab57634e487b7160e01b600052603260045260246000fd5b90506020028101906108bd91906141c6565b905060008160200135116109235760405162461bcd60e51b815260206004820152602760248201527f434f4d3a20536f206c756f6e67206d61742068616e672070686169206c6120736044820152666f2064756f6e6760c81b60648201526084016105f4565b6000806001600160a01b037f0000000000000000000000000000000000000000000000000000000000000000166375a05d1261095f8580614181565b8c6040518463ffffffff1660e01b815260040161097e93929190613e41565b604080518083038186803b15801561099557600080fd5b505afa1580156109a9573d6000803e3d6000fd5b505050506040513d601f19601f820116820180604052508101906109cd9190613a4e565b915091508080156109de5750600082115b610a3e5760405162461bcd60e51b815260206004820152602b60248201527f434f4d3a20476961206d61742068616e67206b686f6e6720686f70206c65207460448201526a6169206375612068616e6760a81b60648201526084016105f4565b6040805160808101909152600387019080610a598680614181565b8080601f016020809104026020016040519081016040528093929190818152602001838380828437600092018290525093855250505060208781013581840152604083018790526060909201819052835460018101855593815281902082518051939460040290910192610ad09284920190613674565b50602082015181600101556040820151816002015560608201518160030160006101000a81548160ff02191690836004811115610b1d57634e487b7160e01b600052602160045260246000fd5b0217905550610b33915050602084013583614246565b610b3d908661420e565b94505050508080610b4d906142d0565b915050610882565b50803414610bb55760405162461bcd60e51b815260206004820152602760248201527f434f4d3a20536f207469656e207468616e6820746f616e206b686f6e67206368604482015266696e682078616360c81b60648201526084016105f4565b60048201819055336000818152600660209081526040808320805460018082018355918552838520018890556001600160a01b038a168085526007845282852080549283018155855293839020018790555184815291929186917faf03488da094bc08f76858b3b2a0c36a13217c95790c77139137fc6e062ba9cd910160405180910390a46005820154604051849160008051602061434683398151915291610c639160ff16904290613e26565b60405180910390a2505060016000555050505050565b60066020528160005260406000208181548110610c9557600080fd5b90600052602060002001600091509150505481565b6001600160a01b038116600090815260066020908152604091829020805483518184028101840190945280845260609392830182828015610d0a57602002820191906000526020600020905b815481526020019060010190808311610cf6575b50505050509050919050565b60008381526005602052604090208054849190610d455760405162461bcd60e51b81526004016105f490613f53565b60028101546001600160a01b031680610d705760405162461bcd60e51b81526004016105f490613f8a565b60405163329a587360e01b81526001600160a01b0382811660048301526000917f00000000000000000000000000000000000000000000000000000000000000009091169063329a58739060240160006040518083038186803b158015610dd657600080fd5b505afa158015610dea573d6000803e3d6000fd5b505050506040513d6000823e601f3d908101601f19168201604052610e1291908101906138fb565b60608101519091506001600160a01b03163314610e415760405162461bcd60e51b81526004016105f490613e6d565b60007f00000000000000000000000000000000000000000000000000000000000000006001600160a01b0316631f1077986040518163ffffffff1660e01b815260040160206040518083038186803b158015610e9c57600080fd5b505afa158015610eb0573d6000803e3d6000fd5b505050506040513d601f19601f82011682018060405250810190610ed491906138e3565b604051632474521560e21b8152600481018290523360248201529091507f00000000000000000000000000000000000000000000000000000000000000006001600160a01b0316906391d148549060440160206040518083038186803b158015610f3d57600080fd5b505afa158015610f51573d6000803e3d6000fd5b505050506040513d601f19601f82011682018060405250810190610f7591906138c9565b610f915760405162461bcd60e51b81526004016105f490613fd2565b60026000541415610fb45760405162461bcd60e51b81526004016105f490614019565b6002600090815588815260056020526040812090600582015460ff166007811115610fef57634e487b7160e01b600052602160045260246000fd5b148061102157506001600582015460ff16600781111561101f57634e487b7160e01b600052602160045260246000fd5b145b61109e5760405162461bcd60e51b815260206004820152604260248201527f434f4d3a205472616e67207468616920646f6e2068616e67206b686f6e67206360448201527f686f2070686570206375612068616e6720636170206e68617420636869207469606482015261195d60f21b608482015260a4016105f4565b600381015488106110fc5760405162461bcd60e51b815260206004820152602260248201527f434f4d3a20436869206d7563206d61742068616e67206b686f6e6720686f70206044820152616c6560f01b60648201526084016105f4565b600081600301898154811061112157634e487b7160e01b600052603260045260246000fd5b600091825260209091206004909102019050600188600481111561115557634e487b7160e01b600052602160045260246000fd5b14806111805750600288600481111561117e57634e487b7160e01b600052602160045260246000fd5b145b806111aa575060038860048111156111a857634e487b7160e01b600052602160045260246000fd5b145b6112115760405162461bcd60e51b815260206004820152603260248201527f434f4d3a205472616e67207468616920636170206e6861742063686f206d61746044820152712068616e67206b686f6e6720686f70206c6560701b60648201526084016105f4565b60038101805489919060ff1916600183600481111561124057634e487b7160e01b600052602160045260246000fd5b021790555042600783015560405133908b907fff0d8a7be28e6f36b6ff784bad0dc3841124462e87f7a201e4961d76481d68b790611283908d9086908e90614151565b60405180910390a36000600583015460ff1660078111156112b457634e487b7160e01b600052602160045260246000fd5b14156112f65760058201805460ff191660019081179091556040518b91600080516020614346833981519152916112ed91904290613e26565b60405180910390a25b505060016000555050505050505050565b6001600160a01b038116600090815260076020908152604091829020805483518184028101840190945280845260609392830182828015610d0a5760200282019190600052602060002090815481526020019060010190808311610cf65750505050509050919050565b600081815260056020526040902080548291906113a05760405162461bcd60e51b81526004016105f490613f53565b60028101546001600160a01b0316806113cb5760405162461bcd60e51b81526004016105f490613f8a565b60405163329a587360e01b81526001600160a01b0382811660048301526000917f00000000000000000000000000000000000000000000000000000000000000009091169063329a58739060240160006040518083038186803b15801561143157600080fd5b505afa158015611445573d6000803e3d6000fd5b505050506040513d6000823e601f3d908101601f1916820160405261146d91908101906138fb565b60608101519091506001600160a01b0316331461149c5760405162461bcd60e51b81526004016105f490613e6d565b60007f00000000000000000000000000000000000000000000000000000000000000006001600160a01b0316631f1077986040518163ffffffff1660e01b815260040160206040518083038186803b1580156114f757600080fd5b505afa15801561150b573d6000803e3d6000fd5b505050506040513d601f19601f8201168201806040525081019061152f91906138e3565b604051632474521560e21b8152600481018290523360248201529091507f00000000000000000000000000000000000000000000000000000000000000006001600160a01b0316906391d148549060440160206040518083038186803b15801561159857600080fd5b505afa1580156115ac573d6000803e3d6000fd5b505050506040513d601f19601f820116820180604052508101906115d091906138c9565b6115ec5760405162461bcd60e51b81526004016105f490613fd2565b6002600054141561160f5760405162461bcd60e51b81526004016105f490614019565b6002600081815587815260056020526040902090600582015460ff16600781111561164a57634e487b7160e01b600052602160045260246000fd5b146116a35760405162461bcd60e51b815260206004820152602360248201527f434f4d3a20446f6e2068616e6720636875612073616e2073616e67206465206760448201526269616f60e81b60648201526084016105f4565b6002546001600160a01b03166116fb5760405162461bcd60e51b815260206004820152601e60248201527f434f4d3a20446961206368692053494d20636875612064756f6320646174000060448201526064016105f4565b60005b600382015481101561186257600082600301828154811061172f57634e487b7160e01b600052603260045260246000fd5b60009182526020909120600490910201905060038082015460ff16600481111561176957634e487b7160e01b600052602160045260246000fd5b146117d05760405162461bcd60e51b815260206004820152603160248201527f434f4d3a204d6f74206d61742068616e672074726f6e6720646f6e20636875616044820152702073616e2073616e67206465206769616f60781b60648201526084016105f4565b60028054908401546001830154604051631ec3e04f60e21b81526001600160a01b0393841693637b0f813c93611810939116918691908f90600401613cf9565b600060405180830381600087803b15801561182a57600080fd5b505af115801561183e573d6000803e3d6000fd5b50505050600301805460ff191660041790558061185a816142d0565b9150506116fe565b5060058101805460ff19166003179055426007820155600281015460405133916001600160a01b03169089907faed449934768d32ac20f87fd0f552e69568e1eb815079272a728db1ff656911590600090a46005810154604051889160008051602061434683398151915291610c639160ff16904290613e26565b6000838152600560205260409020805484919061190c5760405162461bcd60e51b81526004016105f490613f53565b60028101546001600160a01b0316806119375760405162461bcd60e51b81526004016105f490613f8a565b60405163329a587360e01b81526001600160a01b0382811660048301526000917f00000000000000000000000000000000000000000000000000000000000000009091169063329a58739060240160006040518083038186803b15801561199d57600080fd5b505afa1580156119b1573d6000803e3d6000fd5b505050506040513d6000823e601f3d908101601f191682016040526119d991908101906138fb565b60608101519091506001600160a01b03163314611a085760405162461bcd60e51b81526004016105f490613e6d565b60007f00000000000000000000000000000000000000000000000000000000000000006001600160a01b0316631f1077986040518163ffffffff1660e01b815260040160206040518083038186803b158015611a6357600080fd5b505afa158015611a77573d6000803e3d6000fd5b505050506040513d601f19601f82011682018060405250810190611a9b91906138e3565b604051632474521560e21b8152600481018290523360248201529091507f00000000000000000000000000000000000000000000000000000000000000006001600160a01b0316906391d148549060440160206040518083038186803b158015611b0457600080fd5b505afa158015611b18573d6000803e3d6000fd5b505050506040513d601f19601f82011682018060405250810190611b3c91906138c9565b611b585760405162461bcd60e51b81526004016105f490613fd2565b60026000541415611b7b5760405162461bcd60e51b81526004016105f490614019565b6002600090815588815260056020526040812090600582015460ff166007811115611bb657634e487b7160e01b600052602160045260246000fd5b1480611be857506001600582015460ff166007811115611be657634e487b7160e01b600052602160045260246000fd5b145b611c515760405162461bcd60e51b815260206004820152603460248201527f434f4d3a205472616e67207468616920646f6e2068616e67206b686f6e672063604482015273686f2070686570206375612068616e672068757960601b60648201526084016105f4565b611c97893360058b8b8080601f0160208091040260200160405190810160405280939291908181526020018383808284376000920191909152506064925061341a915050565b5050600160005550505050505050565b6001546001600160a01b03163314611cd15760405162461bcd60e51b81526004016105f490613f1e565b6001546040516000916001600160a01b0316907f8be0079c531659141344cd1fd0a4f28419497f9722a3daafe3b4186f6b6457e0908390a3600180546001600160a01b0319169055565b60076020528160005260406000208181548110610c9557600080fd5b60008181526005602052604090208054829190611d665760405162461bcd60e51b81526004016105f490613f53565b60018101546001600160a01b03163314611d925760405162461bcd60e51b81526004016105f490613eca565b60026000541415611db55760405162461bcd60e51b81526004016105f490614019565b600260009081558381526005602052604090206003600582015460ff166007811115611df157634e487b7160e01b600052602160045260246000fd5b14611e4c5760405162461bcd60e51b815260206004820152602560248201527f434f4d3a204375612068616e67206368756120786163206e68616e206769616f6044820152642068616e6760d81b60648201526084016105f4565b600881015460ff1615611eb15760405162461bcd60e51b815260206004820152602760248201527f434f4d3a205469656e2064612064756f632067696169206e67616e2063686f20604482015266636f6e6720747960c81b60648201526084016105f4565b600581018054600460ff19918216811790925542600784015560088301805490911660011790558101546040516000916001600160a01b037f000000000000000000000000000000000000000000000000000000000000000016918381818185875af1925050503d8060008114611f44576040519150601f19603f3d011682016040523d82523d6000602084013e611f49565b606091505b5050905080611fb45760405162461bcd60e51b815260206004820152603160248201527f434f4d3a2047696169206e67616e207469656e2063686f206e67616e2071757960448201527020636f6e6720747920746861742062616960781b60648201526084016105f4565b604051339086907f66335ab67b17f1df563c368ec1e30a3f6cd36401015614bed9bd38a592d7ed6690600090a37f00000000000000000000000000000000000000000000000000000000000000006001600160a01b0316857f7e027c4d2bafa92ff9f3966ab71f6c3557ade1773984f57ad7c36bd97657b3d9846004015460405161204191815260200190565b60405180910390a360058201546040518691600080516020614346833981519152916120729160ff16904290613e26565b60405180910390a250506001600055505050565b600081815260056020526040902080548291906120b55760405162461bcd60e51b81526004016105f490613f53565b60028101546001600160a01b0316806120e05760405162461bcd60e51b81526004016105f490613f8a565b60405163329a587360e01b81526001600160a01b0382811660048301526000917f00000000000000000000000000000000000000000000000000000000000000009091169063329a58739060240160006040518083038186803b15801561214657600080fd5b505afa15801561215a573d6000803e3d6000fd5b505050506040513d6000823e601f3d908101601f1916820160405261218291908101906138fb565b60608101519091506001600160a01b031633146121b15760405162461bcd60e51b81526004016105f490613e6d565b60007f00000000000000000000000000000000000000000000000000000000000000006001600160a01b0316631f1077986040518163ffffffff1660e01b815260040160206040518083038186803b15801561220c57600080fd5b505afa158015612220573d6000803e3d6000fd5b505050506040513d601f19601f8201168201806040525081019061224491906138e3565b604051632474521560e21b8152600481018290523360248201529091507f00000000000000000000000000000000000000000000000000000000000000006001600160a01b0316906391d148549060440160206040518083038186803b1580156122ad57600080fd5b505afa1580156122c1573d6000803e3d6000fd5b505050506040513d601f19601f820116820180604052508101906122e591906138c9565b6123015760405162461bcd60e51b81526004016105f490613fd2565b600260005414156123245760405162461bcd60e51b81526004016105f490614019565b600260009081558681526005602052604090206001600582015460ff16600781111561236057634e487b7160e01b600052602160045260246000fd5b146123d35760405162461bcd60e51b815260206004820152603760248201527f434f4d3a20446f6e2068616e672063687561206f207472616e6720746861692060448201527f64616e67207875206c7920626f69206375612068616e6700000000000000000060648201526084016105f4565b60005b60038201548110156124c157600382600301828154811061240757634e487b7160e01b600052603260045260246000fd5b600091825260209091206004918202016003015460ff169081111561243c57634e487b7160e01b600052602160045260246000fd5b146124af5760405162461bcd60e51b815260206004820152603760248201527f434f4d3a204368756120647520746174206361206d61742068616e672074726f60448201527f6e6720646f6e2073616e2073616e67206465206769616f00000000000000000060648201526084016105f4565b806124b9816142d0565b9150506123d6565b5060058101805460ff1916600290811790915542600783015581015460405133916001600160a01b03169089907f1dab13ec0792bd2da6773f87d2a4551f4432a7489644b53bd828762f9e0a2b1890600090a46005810154604051889160008051602061434683398151915291610c639160ff16904290613e26565b6000838152600560205260409020805484919061256c5760405162461bcd60e51b81526004016105f490613f53565b60018101546001600160a01b031633146125985760405162461bcd60e51b81526004016105f490613eca565b600260005414156125bb5760405162461bcd60e51b81526004016105f490614019565b600260009081558581526005602052604090206003600582015460ff1660078111156125f757634e487b7160e01b600052602160045260246000fd5b10801561262a575060058082015460ff16600781111561262757634e487b7160e01b600052602160045260246000fd5b14155b801561265d57506006600582015460ff16600781111561265a57634e487b7160e01b600052602160045260246000fd5b14155b6126c35760405162461bcd60e51b815260206004820152603160248201527f434f4d3a205472616e67207468616920646f6e2068616e67206b686f6e672063604482015270686f2070686570206b686163682068757960781b60648201526084016105f4565b6127098633600688888080601f0160208091040260200160405190810160405280939291908181526020018383808284376000920191909152506064925061341a915050565b5050600160005550505050565b600084815260056020526040902080548591906127455760405162461bcd60e51b81526004016105f490613f53565b60018101546001600160a01b031633146127715760405162461bcd60e51b81526004016105f490613eca565b600260005414156127945760405162461bcd60e51b81526004016105f490614019565b600260009081558681526005602052604090206004600582015460ff1660078111156127d057634e487b7160e01b600052602160045260246000fd5b146128355760405162461bcd60e51b815260206004820152602f60248201527f434f4d3a20446f6e2068616e67206368756120686f616e207468616e6820646560448201526e20636f2074686520747261206c616960881b60648201526084016105f4565b6003546001600160a01b03166128a65760405162461bcd60e51b815260206004820152603060248201527f434f4d3a20446961206368692057494d2063686f20766965632074726120686160448201526f1b99c818da1d5848191d5bd8c819185d60821b60648201526084016105f4565b6001600160a01b03861661290b5760405162461bcd60e51b815260206004820152602660248201527f434f4d3a2044696120636869206b686f207472612068616e67206b686f6e6720604482015265686f70206c6560d01b60648201526084016105f4565b60005b6003820154811015612ad157600082600301828154811061293f57634e487b7160e01b600052603260045260246000fd5b906000526020600020906004020160405180608001604052908160008201805461296890614295565b80601f016020809104026020016040519081016040528092919081815260200182805461299490614295565b80156129e15780601f106129b6576101008083540402835291602001916129e1565b820191906000526020600020905b8154815290600101906020018083116129c457829003601f168201915b50505091835250506001820154602082015260028201546040820152600382015460609091019060ff166004811115612a2a57634e487b7160e01b600052602160045260246000fd5b6004811115612a4957634e487b7160e01b600052602160045260246000fd5b905250600354815160208301516040516312d2f4d960e11b81529394506001600160a01b03909216926325a5e9b292612a8b928d929091908f90600401613cc2565b600060405180830381600087803b158015612aa557600080fd5b505af1158015612ab9573d6000803e3d6000fd5b50505050508080612ac9906142d0565b91505061290e565b5060058101805460ff1916600790811790915542908201556004810154605a90600090606490612b02908490614246565b612b0c9190614226565b90508015612ba557600183015460405163088cbd9f60e11b8152600481018b90526001600160a01b039182166024820152604481018390527f0000000000000000000000000000000000000000000000000000000000000000909116906311197b3e90606401600060405180830381600087803b158015612b8c57600080fd5b505af1158015612ba0573d6000803e3d6000fd5b505050505b336001600160a01b0316897f4f533528ae53070b62e1048a5f0ccfb2bc89f73e252f9bd9f431b3226e649a2b8a8a8a604051612be393929190613c94565b60405180910390a360058301546040518a9160008051602061434683398151915291612c149160ff16904290613e26565b60405180910390a25050600160005550505050505050565b6001546001600160a01b03163314612c565760405162461bcd60e51b81526004016105f490613f1e565b60026000541415612c795760405162461bcd60e51b81526004016105f490614019565b60026000556001600160a01b038116612cd45760405162461bcd60e51b815260206004820152601c60248201527f434f4d3a204e67756f69206e68616e206b686f6e6720686f70206c650000000060448201526064016105f4565b478015612d80576000826001600160a01b03168260405160006040518083038185875af1925050503d8060008114612d28576040519150601f19603f3d011682016040523d82523d6000602084013e612d2d565b606091505b5050905080612d7e5760405162461bcd60e51b815260206004820152601f60248201527f434f4d3a20527574207469656e206b68616e206361702074686174206261690060448201526064016105f4565b505b50506001600055565b60408051610120810182526000808252602082018190529181018290526060808201526080810182905260a0810182905260c0810182905260e08101829052610100810191909152600082815260056020526040902054612dfc5760405162461bcd60e51b81526004016105f490613f53565b60008281526005602090815260408083208151610120810183528154815260018201546001600160a01b039081168286015260028301541681840152600382018054845181870281018701909552808552919592946060870194939192919084015b82821015612f855783829060005260206000209060040201604051806080016040529081600082018054612e9190614295565b80601f0160208091040260200160405190810160405280929190818152602001828054612ebd90614295565b8015612f0a5780601f10612edf57610100808354040283529160200191612f0a565b820191906000526020600020905b815481529060010190602001808311612eed57829003601f168201915b50505091835250506001820154602082015260028201546040820152600382015460609091019060ff166004811115612f5357634e487b7160e01b600052602160045260246000fd5b6004811115612f7257634e487b7160e01b600052602160045260246000fd5b8152505081526020019060010190612e5e565b5050509082525060048201546020820152600582015460409091019060ff166007811115612fc357634e487b7160e01b600052602160045260246000fd5b6007811115612fe257634e487b7160e01b600052602160045260246000fd5b8152600682015460208201526007820154604082015260089091015460ff16151560609091015292915050565b6001546001600160a01b031633146130395760405162461bcd60e51b81526004016105f490613f1e565b6001600160a01b03811661309e5760405162461bcd60e51b815260206004820152602660248201527f4f776e61626c653a206e6577206f776e657220697320746865207a65726f206160448201526564647265737360d01b60648201526084016105f4565b6001546040516001600160a01b038084169216907f8be0079c531659141344cd1fd0a4f28419497f9722a3daafe3b4186f6b6457e090600090a3600180546001600160a01b0319166001600160a01b0392909216919091179055565b6001546001600160a01b031633146131245760405162461bcd60e51b81526004016105f490613f1e565b6001600160a01b03811661317a5760405162461bcd60e51b815260206004820152601d60248201527f434f4d3a20446961206368692057494d206b686f6e6720686f70206c6500000060448201526064016105f4565b600380546001600160a01b0319166001600160a01b0383169081179091556040517f9d00bdb4c1bf918df98c2197d7890603abf58babbc46d1a0442c1d92855fa12990600090a250565b6000818152600560205260409020546060906131f25760405162461bcd60e51b81526004016105f490613f53565b600082815260056020908152604080832060030180548251818502810185019093528083529193909284015b82821015613345578382906000526020600020906004020160405180608001604052908160008201805461325190614295565b80601f016020809104026020016040519081016040528092919081815260200182805461327d90614295565b80156132ca5780601f1061329f576101008083540402835291602001916132ca565b820191906000526020600020905b8154815290600101906020018083116132ad57829003601f168201915b50505091835250506001820154602082015260028201546040820152600382015460609091019060ff16600481111561331357634e487b7160e01b600052602160045260246000fd5b600481111561333257634e487b7160e01b600052602160045260246000fd5b815250508152602001906001019061321e565b505050509050919050565b6001546001600160a01b0316331461337a5760405162461bcd60e51b81526004016105f490613f1e565b6001600160a01b0381166133d05760405162461bcd60e51b815260206004820152601d60248201527f434f4d3a20446961206368692053494d206b686f6e6720686f70206c6500000060448201526064016105f4565b600280546001600160a01b0319166001600160a01b0383169081179091556040517fb875684c9dfb17eb2f1c703cb1df8211b9cdee7ccde9c141ba5a4395d71a1a0490600090a250565b6000858152600560205260409020600881015460ff16156134a35760405162461bcd60e51b815260206004820152603860248201527f434f4d3a204b686f6e6720746865206875792f686f616e207469656e2c20746960448201527f656e2064612063687579656e2063686f20636f6e67207479000000000000000060648201526084016105f4565b60058101805485919060ff191660018360078111156134d257634e487b7160e01b600052602160045260246000fd5b0217905550426007820155600082158015906134f2575060008260040154115b156135f45760648383600401546135099190614246565b6135139190614226565b905080156135f45760018201546040516000916001600160a01b03169083908381818185875af1925050503d806000811461356a576040519150601f19603f3d011682016040523d82523d6000602084013e61356f565b606091505b50509050806135f25760405162461bcd60e51b815260206004820152604360248201527f434f4d3a20486f616e207469656e2063686f206b68616368207468617420626160448201527f69206b68692068757920646f6e2c20766965632068757920626920686f616e2060648201526274616360e81b608482015260a4016105f4565b505b856001600160a01b0316877feba1817ccb06d5f92c1e7d42559efe15538ea2a2fe0b5a7d05fc83766d39ec4c87878560405161363293929190613df6565b60405180910390a360058201546040518891600080516020614346833981519152916136639160ff16904290613e26565b60405180910390a250505050505050565b82805461368090614295565b90600052602060002090601f0160209004810192826136a257600085556136e8565b82601f106136bb57805160ff19168380011785556136e8565b828001600101855582156136e8579182015b828111156136e85782518255916020019190600101906136cd565b506136f49291506136f8565b5090565b5b808211156136f457600081556001016136f9565b80516137188161432d565b919050565b8051801515811461371857600080fd5b60008083601f84011261373e578182fd5b50813567ffffffffffffffff811115613755578182fd5b60208301915083602082850101111561376d57600080fd5b9250929050565b600082601f830112613784578081fd5b815167ffffffffffffffff8082111561379f5761379f614317565b604051601f8301601f19908116603f011681019082821181831017156137c7576137c7614317565b816040528381528660208588010111156137df578485fd5b6137f0846020830160208901614265565b9695505050505050565b60006020828403121561380b578081fd5b81356138168161432d565b9392505050565b6000806040838503121561382f578081fd5b823561383a8161432d565b946020939093013593505050565b60008060006040848603121561385c578081fd5b833567ffffffffffffffff80821115613873578283fd5b818601915086601f830112613886578283fd5b813581811115613894578384fd5b8760208260051b85010111156138a8578384fd5b602092830195509350508401356138be8161432d565b809150509250925092565b6000602082840312156138da578081fd5b6138168261371d565b6000602082840312156138f4578081fd5b5051919050565b60006020828403121561390c578081fd5b815167ffffffffffffffff80821115613923578283fd5b9083019060e08286031215613936578283fd5b61393e6141e5565b6139478361370d565b815260208301518281111561395a578485fd5b61396687828601613774565b60208301525060408301518281111561397d578485fd5b61398987828601613774565b60408301525061399b6060840161370d565b60608201526139ac6080840161371d565b60808201526139bd60a0840161371d565b60a08201526139ce60c0840161370d565b60c082015295945050505050565b6000602082840312156139ed578081fd5b5035919050565b60008060008060608587031215613a09578081fd5b843593506020850135613a1b8161432d565b9250604085013567ffffffffffffffff811115613a36578182fd5b613a428782880161372d565b95989497509550505050565b60008060408385031215613a60578182fd5b82519150613a706020840161371d565b90509250929050565b600080600060408486031215613a8d578283fd5b83359250602084013567ffffffffffffffff811115613aaa578283fd5b613ab68682870161372d565b9497909650939450505050565b600080600060608486031215613ad7578081fd5b83359250602084013591506040840135600581106138be578182fd5b600081518084526020808501808196508360051b81019150828601855b85811015613b70578284038952815160808151818752613b3282880182613bca565b915050868201518787015260408083015181880152506060808301519250613b5c81880184613b7d565b509986019994505090840190600101613b10565b5091979650505050505050565b60058110613b8d57613b8d614301565b9052565b60088110613b8d57613b8d614301565b81835281816020850137506000828201602090810191909152601f909101601f19169091010190565b60008151808452613be2816020860160208601614265565b601f01601f19169290920160200192915050565b8054600090600181811c9080831680613c1057607f831692505b6020808410821415613c3057634e487b7160e01b86526022600452602486fd5b83885260208801828015613c4b5760018114613c5c57613c87565b60ff19871682528282019750613c87565b60008981526020902060005b87811015613c8157815484820152908601908401613c68565b83019850505b5050505050505092915050565b6001600160a01b0384168152604060208201819052600090613cb99083018486613ba1565b95945050505050565b6001600160a01b0385168152608060208201819052600090613ce690830186613bca565b6040830194909452506060015292915050565b6001600160a01b0385168152608060208201819052600090613ce690830186613bf6565b60006020808301818452808551808352604092508286019150828160051b870101848801865b83811015613da457603f19898403018552815160808151818652613d6982870182613bca565b915050888201518986015287820151888601526060808301519250613d9081870184613b7d565b509588019593505090860190600101613d43565b509098975050505050505050565b6020808252825182820181905260009190848201906040850190845b81811015613dea57835183529284019291840191600101613dce565b50909695505050505050565b613e008185613b91565b606060208201526000613e166060830185613bca565b9050826040830152949350505050565b60408101613e348285613b91565b8260208301529392505050565b604081526000613e55604083018587613ba1565b905060018060a01b0383166020830152949350505050565b60208082526037908201527f434f4d3a204e67756f6920676f69206b686f6e672070686169207175616e206c60408201527f79206375612068616e672063756120646f6e2068616e67000000000000000000606082015260800190565b60208082526034908201527f434f4d3a204e67756f6920676f69206b686f6e672070686169206c61206b686160408201527363682068616e672063756120646f6e2068616e6760601b606082015260800190565b6020808252818101527f4f776e61626c653a2063616c6c6572206973206e6f7420746865206f776e6572604082015260600190565b6020808252601b908201527f434f4d3a20446f6e2068616e67206b686f6e6720746f6e207461690000000000604082015260600190565b60208082526028908201527f434f4d3a20446f6e2068616e67206b686f6e6720636f206375612068616e6720604082015267323ab7b19033b0b760c11b606082015260800190565b60208082526027908201527f434f4d3a204e67756f6920676f69207468696575207661692074726f2051554160408201526609cbe98b2be86960cb1b606082015260800190565b6020808252601f908201527f5265656e7472616e637947756172643a207265656e7472616e742063616c6c00604082015260600190565b60208152815160208201526000602083015161407760408401826001600160a01b03169052565b5060408301516001600160a01b03811660608401525060608301516101208060808501526140a9610140850183613af3565b9150608085015160a085015260a08501516140c760c0860182613b91565b5060c085015160e085015260e08501516101008181870152808701519150506140f38286018215159052565b5090949350505050565b8881526001600160a01b038881166020830152871660408201526060810186905261010081016141306080830187613b91565b8460a08301528360c083015282151560e08301529998505050505050505050565b83815260606020820152600061416a6060830185613bf6565b90506141796040830184613b7d565b949350505050565b6000808335601e19843603018112614197578283fd5b83018035915067ffffffffffffffff8211156141b1578283fd5b60200191503681900382131561376d57600080fd5b60008235603e198336030181126141db578182fd5b9190910192915050565b60405160e0810167ffffffffffffffff8111828210171561420857614208614317565b60405290565b60008219821115614221576142216142eb565b500190565b60008261424157634e487b7160e01b81526012600452602481fd5b500490565b6000816000190483118215151615614260576142606142eb565b500290565b60005b83811015614280578181015183820152602001614268565b8381111561428f576000848401525b50505050565b600181811c908216806142a957607f821691505b602082108114156142ca57634e487b7160e01b600052602260045260246000fd5b50919050565b60006000198214156142e4576142e46142eb565b5060010190565b634e487b7160e01b600052601160045260246000fd5b634e487b7160e01b600052602160045260246000fd5b634e487b7160e01b600052604160045260246000fd5b6001600160a01b038116811461434257600080fd5b5056fe9d22dd44fa6012f7b18f8831bd91c9e7a12938bc6994e23b1f0b419251f1258aa2646970667358221220f8908800150e67b4535f0e8046923ff750426d46f6c5286ad71a9a06558a33c064736f6c63430008040033",
  "immutableReferences": {
    "2000": [
      {
        "length": 32,
        "start": 1153
      },
      {
        "length": 32,
        "start": 3653
      },
      {
        "length": 32,
        "start": 3827
      },
      {
        "length": 32,
        "start": 5280
      },
      {
        "length": 32,
        "start": 5454
      },
      {
        "length": 32,
        "start": 6668
      },
      {
        "length": 32,
        "start": 6842
      },
      {
        "length": 32,
        "start": 8629
      },
      {
        "length": 32,
        "start": 8803
      }
    ],
    "2003": [
      {
        "length": 32,
        "start": 1237
      },
      {
        "length": 32,
        "start": 1853
      },
      {
        "length": 32,
        "start": 2352
      },
      {
        "length": 32,
        "start": 3474
      },
      {
        "length": 32,
        "start": 5101
      },
      {
        "length": 32,
        "start": 6489
      },
      {
        "length": 32,
        "start": 8450
      }
    ],
    "2012": [
      {
        "length": 32,
        "start": 694
      },
      {
        "length": 32,
        "start": 7915
      },
      {
        "length": 32,
        "start": 8163
      },
      {
        "length": 32,
        "start": 11078
      }
    ]
  },
  "source": "// SPDX-License-Identifier: MIT\r\npragma solidity ^0.8.4;\r\n\r\nimport \"@openzeppelin/contracts/security/ReentrancyGuard.sol\";\r\nimport \"@openzeppelin/contracts/access/Ownable.sol\";\r\nimport \"./Interfaces.sol\";      // Import file Interfaces.sol tp trung\r\nimport \"./ItemsManagement.sol\"; // Import ItemsManagement  trnh bin dch lin kt contract\r\n\r\n// Hp ng Qun l n hng Khch hng\r\ncontract CustomerOrderManagement is ReentrancyGuard, Ownable {\r\n    // S dng cc interface t Interfaces.sol\r\n    IRoleManagementInterface public immutable roleManagement;\r\n    IItemsManagementInterface public immutable itemsManagement;\r\n    IStoreInventoryManagementInterface public storeInventoryManagement; // S c set sau\r\n    IWarehouseInventoryManagementInterface public warehouseInventoryManagement; // S c set sau (cho vic tr hng)\r\n    ICompanyTreasuryManagerInterface public immutable companyTreasuryManager; // t l immutable nu a ch CTM khng i\r\n\r\n    uint256 public nextOrderId; // ID cho n hng tip theo\r\n\r\n    // Trng thi n hng ca khch\r\n    enum OrderStatus {\r\n        Placed,                     // 0: Khch t, thanh ton c COM gi\r\n        ProcessingByStore,          // 1: Ca hng ang x l (kim tra tn kho, yu cu b sung)\r\n        AllItemsReadyForDelivery,   // 2: Tt c mt hng  sn sng ti ca hng\r\n        DeliveryConfirmedByStore,   // 3: Ca hng xc nhn  giao/khch  ly (tn kho  tr)\r\n        Completed,                  // 4: Khch xc nhn nhn hng, tin c gii ngn cho Ngn qu Cng ty\r\n        CancelledByStore,           // 5: Ca hng hy (trc khi giao)\r\n        CancelledByCustomer,        // 6: Khch hy (trc khi giao)\r\n        ReturnedByCustomer          // 7: Khch tr hng (sau khi  hon thnh v nhn)\r\n    }\r\n\r\n    // Trng thi ca tng mt hng trong n, do ca hng qun l\r\n    enum OrderItemStatus {\r\n        PendingStoreProcessing,     // 0: Ch ca hng x l\r\n        StoreStockAvailable,        // 1: Ca hng c sn hng ny\r\n        StoreNeedsRestock,          // 2: Ca hng cn nhp thm hng ny (ty chn,  theo di)\r\n        ReadyForDelivery,           // 3: Mt hng ny  c ca hng chun b v sn sng giao\r\n        DeliveredToCustomer         // 4: Mt hng ny  c giao (l mt phn ca trng thi DeliveryConfirmedByStore tng th)\r\n    }\r\n\r\n    // Mt hng trong n\r\n    struct OrderItem {\r\n        string itemId;\r\n        uint256 quantity;\r\n        uint256 unitPrice;      // Gi ti thi im t hng\r\n        OrderItemStatus status; // Trng thi mt hng do ca hng cp nht\r\n    }\r\n\r\n    // Cu trc n hng\r\n    struct Order {\r\n        uint256 orderId;\r\n        address customerAddress;\r\n        address storeAddress;       // Ca hng khch  chn\r\n        OrderItem[] items;\r\n        uint256 totalAmountPaid;    // S tin khch  tr cho hp ng ny\r\n        OrderStatus status;\r\n        uint256 creationTimestamp;\r\n        uint256 lastUpdateTimestamp;\r\n        bool fundsReleasedToCompany;// Tin  gii ngn cho cng ty (CTM) cha?\r\n    }\r\n\r\n    // D liu u vo t khch hng\r\n    struct OrderItemInput {\r\n        string itemId;\r\n        uint256 quantity;\r\n    }\r\n\r\n    mapping(uint256 => Order) public orders;\r\n    mapping(address => uint256[]) public customerOrderIds;      // customerAddress => array of orderIds\r\n    mapping(address => uint256[]) public storeAssignedOrderIds; // storeAddress => array of orderIds\r\n\r\n    // --- EVENTS ---\r\n    event OrderPlaced(uint256 indexed orderId, address indexed customer, address indexed storeAddress, uint256 totalAmount);\r\n    event OrderItemStatusUpdatedByStore(uint256 indexed orderId, uint256 itemIndexInOrder, string itemId, OrderItemStatus newItemStatus, address indexed byStoreManager);\r\n    event OrderReadyForDelivery(uint256 indexed orderId, address indexed storeAddress, address indexed byStoreManager);\r\n    event OrderDeliveryConfirmedByStore(uint256 indexed orderId, address indexed storeAddress, address indexed byStoreManager);\r\n    event OrderCompletedByCustomer(uint256 indexed orderId, address indexed customer);\r\n    event FundsReleasedToCompanyTreasury(uint256 indexed orderId, uint256 amount, address indexed treasuryAddress);\r\n    event OrderOverallStatusUpdated(uint256 indexed orderId, OrderStatus newStatus, uint256 timestamp);\r\n    event OrderCancelled(uint256 indexed orderId, address indexed canceller, OrderStatus newStatus, string reason, uint256 amountRefunded);\r\n    event OrderReturnProcessed(uint256 indexed orderId, address indexed customer, address returnToWarehouse, string reason);\r\n    // S kin hon tin (FundsRefundedToCustomer) s do CTM pht ra khi gi refundCustomerOrderFromTreasury\r\n\r\n    // Admin/Owner events\r\n    event StoreInventoryManagementAddressSet(address indexed simAddress);\r\n    event WarehouseInventoryManagementAddressSet(address indexed wimAddress);\r\n\r\n\r\n    // --- CONSTRUCTOR ---\r\n    constructor(\r\n        address _roleManagementAddress,\r\n        address _itemsManagementAddress,\r\n        address _companyTreasuryManagerAddress // a ch ca CompanyTreasuryManager\r\n    ) Ownable() {\r\n        require(_roleManagementAddress != address(0), \"COM: Dia chi RM khong hop le\");\r\n        roleManagement = IRoleManagementInterface(_roleManagementAddress);\r\n\r\n        require(_itemsManagementAddress != address(0), \"COM: Dia chi ItemsM khong hop le\");\r\n        itemsManagement = IItemsManagementInterface(_itemsManagementAddress);\r\n\r\n        require(_companyTreasuryManagerAddress != address(0), \"COM: Dia chi CTM khong hop le\");\r\n        companyTreasuryManager = ICompanyTreasuryManagerInterface(_companyTreasuryManagerAddress);\r\n\r\n        nextOrderId = 1;\r\n    }\r\n\r\n    // --- SETTERS (Owner only) ---\r\n    function setStoreInventoryManagementAddress(address _simAddress) external onlyOwner {\r\n        require(_simAddress != address(0), \"COM: Dia chi SIM khong hop le\");\r\n        storeInventoryManagement = IStoreInventoryManagementInterface(_simAddress);\r\n        emit StoreInventoryManagementAddressSet(_simAddress);\r\n    }\r\n\r\n    function setWarehouseInventoryManagementAddress(address _wimAddress) external onlyOwner {\r\n        require(_wimAddress != address(0), \"COM: Dia chi WIM khong hop le\");\r\n        warehouseInventoryManagement = IWarehouseInventoryManagementInterface(_wimAddress);\r\n        emit WarehouseInventoryManagementAddressSet(_wimAddress);\r\n    }\r\n\r\n    // --- MODIFIERS ---\r\n    modifier onlyOrderCustomer(uint256 _orderId) {\r\n        Order storage currentOrder = orders[_orderId];\r\n        require(currentOrder.orderId != 0, \"COM: Don hang khong ton tai\");\r\n        require(currentOrder.customerAddress == msg.sender, \"COM: Nguoi goi khong phai la khach hang cua don hang\");\r\n        _;\r\n    }\r\n\r\n    modifier onlyStoreManagerForOrder(uint256 _orderId) {\r\n        Order storage currentOrder = orders[_orderId];\r\n        require(currentOrder.orderId != 0, \"COM: Don hang khong ton tai\");\r\n        address storeAddr = currentOrder.storeAddress;\r\n        require(storeAddr != address(0), \"COM: Don hang khong co cua hang duoc gan\");\r\n\r\n        // S dng PhysicalLocationInfo t Interfaces.sol (forward-declared)\r\n        PhysicalLocationInfo memory storeInfo = itemsManagement.getStoreInfo(storeAddr);\r\n        require(storeInfo.manager == msg.sender, \"COM: Nguoi goi khong phai quan ly cua hang cua don hang\");\r\n\r\n        bytes32 smRole = roleManagement.STORE_MANAGER_ROLE();\r\n        require(roleManagement.hasRole(smRole, msg.sender), \"COM: Nguoi goi thieu vai tro QUAN_LY_CH\");\r\n        _;\r\n    }\r\n\r\n    // --- CORE ORDER FUNCTIONS ---\r\n    function placeOrder(\r\n        OrderItemInput[] calldata _orderItemsInput,\r\n        address _storeAddress\r\n    ) external payable nonReentrant {\r\n        require(address(storeInventoryManagement) != address(0), \"COM: Dia chi SIM chua duoc dat\");\r\n        require(_storeAddress != address(0), \"COM: Dia chi cua hang khong hop le\");\r\n        require(_orderItemsInput.length > 0, \"COM: Don hang phai co it nhat mot mat hang\");\r\n\r\n        // Kim tra ca hng hp l (gi getStoreInfo  m bo n tn ti v l ca hng)\r\n        PhysicalLocationInfo memory storeInfo = itemsManagement.getStoreInfo(_storeAddress);\r\n        require(storeInfo.exists, \"COM: Cua hang khong ton tai\"); // getStoreInfo s revert nu khng phi ca hng\r\n\r\n        uint256 currentOrderId = nextOrderId++;\r\n        Order storage newOrder = orders[currentOrderId];\r\n        newOrder.orderId = currentOrderId;\r\n        newOrder.customerAddress = msg.sender;\r\n        newOrder.storeAddress = _storeAddress;\r\n        newOrder.status = OrderStatus.Placed; // Trng thi ban u\r\n        newOrder.creationTimestamp = block.timestamp;\r\n        newOrder.lastUpdateTimestamp = block.timestamp;\r\n\r\n        uint256 calculatedTotalAmount = 0;\r\n        for (uint i = 0; i < _orderItemsInput.length; i++) {\r\n            OrderItemInput calldata itemInput = _orderItemsInput[i];\r\n            require(itemInput.quantity > 0, \"COM: So luong mat hang phai la so duong\");\r\n\r\n            (uint256 retailPrice, bool priceExists) = itemsManagement.getItemRetailPriceAtStore(itemInput.itemId, _storeAddress);\r\n            require(priceExists && retailPrice > 0, \"COM: Gia mat hang khong hop le tai cua hang\");\r\n\r\n            newOrder.items.push(OrderItem({\r\n                itemId: itemInput.itemId,\r\n                quantity: itemInput.quantity,\r\n                unitPrice: retailPrice,\r\n                status: OrderItemStatus.PendingStoreProcessing // Trng thi ban u ca mt hng\r\n            }));\r\n            calculatedTotalAmount += retailPrice * itemInput.quantity;\r\n        }\r\n\r\n        require(msg.value == calculatedTotalAmount, \"COM: So tien thanh toan khong chinh xac\");\r\n        newOrder.totalAmountPaid = calculatedTotalAmount; // Tin c gi bi COM\r\n\r\n        customerOrderIds[msg.sender].push(currentOrderId);\r\n        storeAssignedOrderIds[_storeAddress].push(currentOrderId);\r\n\r\n        emit OrderPlaced(currentOrderId, msg.sender, _storeAddress, calculatedTotalAmount);\r\n        emit OrderOverallStatusUpdated(currentOrderId, newOrder.status, block.timestamp);\r\n    }\r\n\r\n    function storeUpdateOrderItemStatus(uint256 _orderId, uint256 _itemIndex, OrderItemStatus _newStatus)\r\n        external\r\n        onlyStoreManagerForOrder(_orderId)\r\n        nonReentrant\r\n    {\r\n        Order storage currentOrder = orders[_orderId];\r\n        require(currentOrder.status == OrderStatus.Placed || currentOrder.status == OrderStatus.ProcessingByStore,\r\n                \"COM: Trang thai don hang khong cho phep cua hang cap nhat chi tiet\");\r\n        require(_itemIndex < currentOrder.items.length, \"COM: Chi muc mat hang khong hop le\");\r\n\r\n        OrderItem storage item = currentOrder.items[_itemIndex];\r\n        // Ch cho php cp nht sang cc trng thi hp l do ca hng qun l\r\n        require(\r\n            _newStatus == OrderItemStatus.StoreStockAvailable ||\r\n            _newStatus == OrderItemStatus.StoreNeedsRestock ||\r\n            _newStatus == OrderItemStatus.ReadyForDelivery,\r\n            \"COM: Trang thai cap nhat cho mat hang khong hop le\"\r\n        );\r\n\r\n        item.status = _newStatus;\r\n        currentOrder.lastUpdateTimestamp = block.timestamp;\r\n        emit OrderItemStatusUpdatedByStore(_orderId, _itemIndex, item.itemId, _newStatus, msg.sender);\r\n\r\n        // T ng chuyn trng thi n hng sang ProcessingByStore nu y l cp nht u tin\r\n        if (currentOrder.status == OrderStatus.Placed) {\r\n            currentOrder.status = OrderStatus.ProcessingByStore;\r\n            emit OrderOverallStatusUpdated(_orderId, currentOrder.status, block.timestamp);\r\n        }\r\n    }\r\n\r\n    function storeConfirmAllItemsReadyForDelivery(uint256 _orderId)\r\n        external\r\n        onlyStoreManagerForOrder(_orderId)\r\n        nonReentrant\r\n    {\r\n        Order storage currentOrder = orders[_orderId];\r\n        require(currentOrder.status == OrderStatus.ProcessingByStore, \"COM: Don hang chua o trang thai dang xu ly boi cua hang\");\r\n\r\n        for (uint i = 0; i < currentOrder.items.length; i++) {\r\n            require(currentOrder.items[i].status == OrderItemStatus.ReadyForDelivery, \"COM: Chua du tat ca mat hang trong don san sang de giao\");\r\n        }\r\n\r\n        currentOrder.status = OrderStatus.AllItemsReadyForDelivery;\r\n        currentOrder.lastUpdateTimestamp = block.timestamp;\r\n        emit OrderReadyForDelivery(_orderId, currentOrder.storeAddress, msg.sender);\r\n        emit OrderOverallStatusUpdated(_orderId, currentOrder.status, block.timestamp);\r\n    }\r\n\r\n    function storeConfirmDeliveryToCustomer(uint256 _orderId)\r\n        external\r\n        onlyStoreManagerForOrder(_orderId)\r\n        nonReentrant\r\n    {\r\n        Order storage currentOrder = orders[_orderId];\r\n        require(currentOrder.status == OrderStatus.AllItemsReadyForDelivery, \"COM: Don hang chua san sang de giao\");\r\n        require(address(storeInventoryManagement) != address(0), \"COM: Dia chi SIM chua duoc dat\");\r\n\r\n        for (uint i = 0; i < currentOrder.items.length; i++) {\r\n            OrderItem storage item = currentOrder.items[i];\r\n            // Ch tr tn kho nu mt hng thc s sn sng\r\n            require(item.status == OrderItemStatus.ReadyForDelivery, \"COM: Mot mat hang trong don chua san sang de giao\");\r\n            storeInventoryManagement.deductStockForCustomerSale(\r\n                currentOrder.storeAddress,\r\n                item.itemId,\r\n                item.quantity,\r\n                _orderId\r\n            );\r\n            item.status = OrderItemStatus.DeliveredToCustomer; // Cp nht trng thi mt hng\r\n        }\r\n\r\n        currentOrder.status = OrderStatus.DeliveryConfirmedByStore;\r\n        currentOrder.lastUpdateTimestamp = block.timestamp;\r\n        emit OrderDeliveryConfirmedByStore(_orderId, currentOrder.storeAddress, msg.sender);\r\n        emit OrderOverallStatusUpdated(_orderId, currentOrder.status, block.timestamp);\r\n    }\r\n\r\n    function customerConfirmReceipt(uint256 _orderId)\r\n        external\r\n        onlyOrderCustomer(_orderId)\r\n        nonReentrant\r\n    {\r\n        Order storage currentOrder = orders[_orderId];\r\n        require(currentOrder.status == OrderStatus.DeliveryConfirmedByStore, \"COM: Cua hang chua xac nhan giao hang\");\r\n        require(!currentOrder.fundsReleasedToCompany, \"COM: Tien da duoc giai ngan cho cong ty\");\r\n\r\n        currentOrder.status = OrderStatus.Completed;\r\n        currentOrder.lastUpdateTimestamp = block.timestamp;\r\n        currentOrder.fundsReleasedToCompany = true; // nh du tin  c x l\r\n\r\n        // Chuyn tin t COM sang CompanyTreasuryManager\r\n        (bool success, ) = payable(address(companyTreasuryManager)).call{value: currentOrder.totalAmountPaid}(\"\");\r\n        require(success, \"COM: Giai ngan tien cho ngan quy cong ty that bai\");\r\n\r\n        emit OrderCompletedByCustomer(_orderId, msg.sender);\r\n        emit FundsReleasedToCompanyTreasury(_orderId, currentOrder.totalAmountPaid, address(companyTreasuryManager));\r\n        emit OrderOverallStatusUpdated(_orderId, currentOrder.status, block.timestamp);\r\n    }\r\n\r\n\r\n    // --- CANCELLATION AND RETURN FUNCTIONS ---\r\n\r\n    function _internalCancelOrderAndRefundToCustomer(\r\n        uint256 _orderId,\r\n        address _canceller,\r\n        OrderStatus _newStatus,\r\n        string memory _reason,\r\n        uint256 _refundPercentage // 0-100\r\n    ) internal {\r\n        Order storage currentOrder = orders[_orderId];\r\n        require(!currentOrder.fundsReleasedToCompany, \"COM: Khong the huy/hoan tien, tien da chuyen cho cong ty\");\r\n\r\n        currentOrder.status = _newStatus;\r\n        currentOrder.lastUpdateTimestamp = block.timestamp;\r\n\r\n        uint256 amountToRefund = 0;\r\n        if (_refundPercentage > 0 && currentOrder.totalAmountPaid > 0) {\r\n            amountToRefund = (currentOrder.totalAmountPaid * _refundPercentage) / 100;\r\n            if (amountToRefund > 0) {\r\n                // Hon tin t COM (ni ang gi tin)\r\n                (bool success, ) = payable(currentOrder.customerAddress).call{value: amountToRefund}(\"\");\r\n                // Nu tht bi, revert  m bo tnh nht qun.\r\n                // Trong thc t, c th cn c ch x l li tinh vi hn.\r\n                require(success, \"COM: Hoan tien cho khach that bai khi huy don, viec huy bi hoan tac\");\r\n            }\r\n        }\r\n        emit OrderCancelled(_orderId, _canceller, _newStatus, _reason, amountToRefund);\r\n        emit OrderOverallStatusUpdated(_orderId, currentOrder.status, block.timestamp);\r\n    }\r\n\r\n    function cancelOrderByStore(uint256 _orderId, string calldata _reason)\r\n        external\r\n        onlyStoreManagerForOrder(_orderId)\r\n        nonReentrant\r\n    {\r\n        Order storage currentOrder = orders[_orderId];\r\n        // Ca hng ch c th hy nu n hng ang ch x l hoc ang x l\r\n        require(currentOrder.status == OrderStatus.Placed || currentOrder.status == OrderStatus.ProcessingByStore,\r\n                \"COM: Trang thai don hang khong cho phep cua hang huy\");\r\n        _internalCancelOrderAndRefundToCustomer(_orderId, msg.sender, OrderStatus.CancelledByStore, _reason, 100); // Hon 100%\r\n    }\r\n\r\n    function customerCancelOrderBeforeDelivery(uint256 _orderId, string calldata _reason)\r\n        external\r\n        onlyOrderCustomer(_orderId)\r\n        nonReentrant\r\n    {\r\n        Order storage currentOrder = orders[_orderId];\r\n        // Khch hng c th hy nu n hng cha c ca hng xc nhn  giao\r\n        require(currentOrder.status < OrderStatus.DeliveryConfirmedByStore &&\r\n                currentOrder.status != OrderStatus.CancelledByStore && // Khng hy n  b ca hng hy\r\n                currentOrder.status != OrderStatus.CancelledByCustomer, // Khng hy n  t hy\r\n                \"COM: Trang thai don hang khong cho phep khach huy\");\r\n        _internalCancelOrderAndRefundToCustomer(_orderId, msg.sender, OrderStatus.CancelledByCustomer, _reason, 100); // Hon 100%\r\n    }\r\n\r\n    // Khch hng tr hng SAU KHI  nhn v n hng  HON THNH\r\n    function customerReturnOrderAfterReceipt(uint256 _orderId, address _returnToWarehouseAddress, string calldata _reason)\r\n        external\r\n        onlyOrderCustomer(_orderId)\r\n        nonReentrant\r\n    {\r\n        Order storage currentOrder = orders[_orderId];\r\n        require(currentOrder.status == OrderStatus.Completed, \"COM: Don hang chua hoan thanh de co the tra lai\");\r\n        require(address(warehouseInventoryManagement) != address(0), \"COM: Dia chi WIM cho viec tra hang chua duoc dat\");\r\n        require(_returnToWarehouseAddress != address(0), \"COM: Dia chi kho tra hang khong hop le\");\r\n\r\n\r\n        // 1. Thng bo cho WIM ghi nhn hng tr v\r\n        for (uint i = 0; i < currentOrder.items.length; i++) {\r\n            OrderItem memory item = currentOrder.items[i];\r\n            warehouseInventoryManagement.recordReturnedStockByCustomer(\r\n                _returnToWarehouseAddress,\r\n                item.itemId,\r\n                item.quantity,\r\n                _orderId\r\n            );\r\n        }\r\n\r\n        // 2. Cp nht trng thi n hng\r\n        currentOrder.status = OrderStatus.ReturnedByCustomer;\r\n        currentOrder.lastUpdateTimestamp = block.timestamp;\r\n        // currentOrder.fundsReleasedToCompany L TRUE  y v n hng  Completed trc \r\n\r\n        // 3. Yu cu CTM hon tin 90% cho khch t ngn qu cng ty\r\n        uint256 refundPercentage = 90; // V d: hon 90%\r\n        uint256 amountToRefundFromTreasury = (currentOrder.totalAmountPaid * refundPercentage) / 100;\r\n\r\n        if (amountToRefundFromTreasury > 0) {\r\n            companyTreasuryManager.refundCustomerOrderFromTreasury(\r\n                _orderId,\r\n                payable(currentOrder.customerAddress),\r\n                amountToRefundFromTreasury\r\n            );\r\n            // CTM s emit s kin CustomerRefundProcessedFromTreasury\r\n        }\r\n\r\n        emit OrderReturnProcessed(_orderId, msg.sender, _returnToWarehouseAddress, _reason);\r\n        emit OrderOverallStatusUpdated(_orderId, currentOrder.status, block.timestamp);\r\n    }\r\n\r\n\r\n    // --- VIEW FUNCTIONS ---\r\n    function getOrderDetails(uint256 _orderId) external view returns (Order memory) {\r\n        require(orders[_orderId].orderId != 0, \"COM: Don hang khong ton tai\");\r\n        return orders[_orderId];\r\n    }\r\n\r\n    function getOrderItems(uint256 _orderId) external view returns (OrderItem[] memory) {\r\n        require(orders[_orderId].orderId != 0, \"COM: Don hang khong ton tai\");\r\n        return orders[_orderId].items;\r\n    }\r\n\r\n    function getCustomerOrders(address _customer) external view returns (uint256[] memory) {\r\n        return customerOrderIds[_customer];\r\n    }\r\n\r\n    function getStoreAssignedOrders(address _store) external view returns (uint256[] memory) {\r\n        return storeAssignedOrderIds[_store];\r\n    }\r\n\r\n    // --- EMERGENCY/ADMIN FUNCTIONS ---\r\n    // Rt ton b Ether ang b kt trong contract ny v cho Owner (ch trong trng hp khn cp)\r\n    function emergencyWithdrawEther(address payable _to) external onlyOwner nonReentrant {\r\n        require(_to != address(0), \"COM: Nguoi nhan khong hop le\");\r\n        uint256 balance = address(this).balance;\r\n        if (balance > 0) {\r\n            (bool success, ) = _to.call{value: balance}(\"\");\r\n            require(success, \"COM: Rut tien khan cap that bai\");\r\n        }\r\n    }\r\n}",
  "sourcePath": "D:\\nhi\\Logtech\\New tech in Log\\dapp2\\SC\\contracts\\CustomerOrder.sol",
  "compiler": {
    "name": "solc",
    "version": "0.8.4+commit.c7e474f2.Emscripten.clang"
  },
  "schemaVersion": "3.4.16",
  "updatedAt": "2025-06-02T14:06:15.330Z",
  "devdoc": {
    "kind": "dev",
    "methods": {
      "owner()": {
        "details": "Returns the address of the current owner."
      },
      "renounceOwnership()": {
        "details": "Leaves the contract without owner. It will not be possible to call `onlyOwner` functions anymore. Can only be called by the current owner. NOTE: Renouncing ownership will leave the contract without an owner, thereby removing any functionality that is only available to the owner."
      },
      "transferOwnership(address)": {
        "details": "Transfers ownership of the contract to a new account (`newOwner`). Can only be called by the current owner."
      }
    },
    "version": 1
  },
  "userdoc": {
    "kind": "user",
    "methods": {},
    "version": 1
  }
}