{
  "contractName": "CustomerOrderManagement",
  "abi": [
    {
      "inputs": [
        {
          "internalType": "address",
          "name": "_roleManagementAddress",
          "type": "address"
        },
        {
          "internalType": "address",
          "name": "_itemsManagementAddress",
          "type": "address"
        },
        {
          "internalType": "address",
          "name": "_companyTreasury",
          "type": "address"
        }
      ],
      "stateMutability": "nonpayable",
      "type": "constructor"
    },
    {
      "anonymous": false,
      "inputs": [
        {
          "indexed": true,
          "internalType": "uint256",
          "name": "orderId",
          "type": "uint256"
        },
        {
          "indexed": false,
          "internalType": "uint256",
          "name": "amount",
          "type": "uint256"
        },
        {
          "indexed": true,
          "internalType": "address",
          "name": "treasury",
          "type": "address"
        }
      ],
      "name": "FundsReleasedToCompany",
      "type": "event"
    },
    {
      "anonymous": false,
      "inputs": [
        {
          "indexed": true,
          "internalType": "uint256",
          "name": "orderId",
          "type": "uint256"
        },
        {
          "indexed": true,
          "internalType": "address",
          "name": "canceller",
          "type": "address"
        },
        {
          "indexed": false,
          "internalType": "enum CustomerOrderManagement.OrderStatus",
          "name": "newStatus",
          "type": "uint8"
        },
        {
          "indexed": false,
          "internalType": "string",
          "name": "reason",
          "type": "string"
        }
      ],
      "name": "OrderCancelled",
      "type": "event"
    },
    {
      "anonymous": false,
      "inputs": [
        {
          "indexed": true,
          "internalType": "uint256",
          "name": "orderId",
          "type": "uint256"
        },
        {
          "indexed": true,
          "internalType": "address",
          "name": "customer",
          "type": "address"
        }
      ],
      "name": "OrderCompletedByCustomer",
      "type": "event"
    },
    {
      "anonymous": false,
      "inputs": [
        {
          "indexed": true,
          "internalType": "uint256",
          "name": "orderId",
          "type": "uint256"
        },
        {
          "indexed": true,
          "internalType": "address",
          "name": "storeAddress",
          "type": "address"
        },
        {
          "indexed": true,
          "internalType": "address",
          "name": "storeManager",
          "type": "address"
        }
      ],
      "name": "OrderDeliveryConfirmedByStore",
      "type": "event"
    },
    {
      "anonymous": false,
      "inputs": [
        {
          "indexed": true,
          "internalType": "uint256",
          "name": "orderId",
          "type": "uint256"
        },
        {
          "indexed": false,
          "internalType": "uint256",
          "name": "itemIndex",
          "type": "uint256"
        },
        {
          "indexed": false,
          "internalType": "string",
          "name": "itemId",
          "type": "string"
        },
        {
          "indexed": false,
          "internalType": "enum CustomerOrderManagement.OrderItemStatus",
          "name": "newItemStatus",
          "type": "uint8"
        },
        {
          "indexed": true,
          "internalType": "address",
          "name": "storeManager",
          "type": "address"
        }
      ],
      "name": "OrderItemStatusUpdatedByStore",
      "type": "event"
    },
    {
      "anonymous": false,
      "inputs": [
        {
          "indexed": true,
          "internalType": "uint256",
          "name": "orderId",
          "type": "uint256"
        },
        {
          "indexed": false,
          "internalType": "enum CustomerOrderManagement.OrderStatus",
          "name": "newStatus",
          "type": "uint8"
        },
        {
          "indexed": false,
          "internalType": "uint256",
          "name": "timestamp",
          "type": "uint256"
        }
      ],
      "name": "OrderOverallStatusUpdated",
      "type": "event"
    },
    {
      "anonymous": false,
      "inputs": [
        {
          "indexed": true,
          "internalType": "uint256",
          "name": "orderId",
          "type": "uint256"
        },
        {
          "indexed": true,
          "internalType": "address",
          "name": "customer",
          "type": "address"
        },
        {
          "indexed": true,
          "internalType": "address",
          "name": "storeAddress",
          "type": "address"
        },
        {
          "indexed": false,
          "internalType": "uint256",
          "name": "totalAmount",
          "type": "uint256"
        }
      ],
      "name": "OrderPlaced",
      "type": "event"
    },
    {
      "anonymous": false,
      "inputs": [
        {
          "indexed": true,
          "internalType": "uint256",
          "name": "orderId",
          "type": "uint256"
        },
        {
          "indexed": true,
          "internalType": "address",
          "name": "storeAddress",
          "type": "address"
        },
        {
          "indexed": true,
          "internalType": "address",
          "name": "storeManager",
          "type": "address"
        }
      ],
      "name": "OrderReadyForDelivery",
      "type": "event"
    },
    {
      "anonymous": false,
      "inputs": [
        {
          "indexed": true,
          "internalType": "uint256",
          "name": "orderId",
          "type": "uint256"
        },
        {
          "indexed": true,
          "internalType": "address",
          "name": "customer",
          "type": "address"
        },
        {
          "indexed": false,
          "internalType": "address",
          "name": "returnToWarehouse",
          "type": "address"
        },
        {
          "indexed": false,
          "internalType": "string",
          "name": "reason",
          "type": "string"
        }
      ],
      "name": "OrderReturnedByCustomerNotified",
      "type": "event"
    },
    {
      "anonymous": false,
      "inputs": [
        {
          "indexed": true,
          "internalType": "address",
          "name": "previousOwner",
          "type": "address"
        },
        {
          "indexed": true,
          "internalType": "address",
          "name": "newOwner",
          "type": "address"
        }
      ],
      "name": "OwnershipTransferred",
      "type": "event"
    },
    {
      "anonymous": false,
      "inputs": [
        {
          "indexed": true,
          "internalType": "address",
          "name": "simAddress",
          "type": "address"
        }
      ],
      "name": "StoreInventoryManagementAddressSet",
      "type": "event"
    },
    {
      "anonymous": false,
      "inputs": [
        {
          "indexed": true,
          "internalType": "address",
          "name": "wimAddress",
          "type": "address"
        }
      ],
      "name": "WarehouseInventoryManagementAddressSet",
      "type": "event"
    },
    {
      "inputs": [],
      "name": "companyTreasuryAddress",
      "outputs": [
        {
          "internalType": "address",
          "name": "",
          "type": "address"
        }
      ],
      "stateMutability": "view",
      "type": "function",
      "constant": true
    },
    {
      "inputs": [
        {
          "internalType": "address",
          "name": "",
          "type": "address"
        },
        {
          "internalType": "uint256",
          "name": "",
          "type": "uint256"
        }
      ],
      "name": "customerOrderIds",
      "outputs": [
        {
          "internalType": "uint256",
          "name": "",
          "type": "uint256"
        }
      ],
      "stateMutability": "view",
      "type": "function",
      "constant": true
    },
    {
      "inputs": [],
      "name": "itemsManagement",
      "outputs": [
        {
          "internalType": "contract IItemsManagement",
          "name": "",
          "type": "address"
        }
      ],
      "stateMutability": "view",
      "type": "function",
      "constant": true
    },
    {
      "inputs": [],
      "name": "nextOrderId",
      "outputs": [
        {
          "internalType": "uint256",
          "name": "",
          "type": "uint256"
        }
      ],
      "stateMutability": "view",
      "type": "function",
      "constant": true
    },
    {
      "inputs": [
        {
          "internalType": "uint256",
          "name": "",
          "type": "uint256"
        }
      ],
      "name": "orders",
      "outputs": [
        {
          "internalType": "uint256",
          "name": "orderId",
          "type": "uint256"
        },
        {
          "internalType": "address",
          "name": "customerAddress",
          "type": "address"
        },
        {
          "internalType": "address",
          "name": "storeAddress",
          "type": "address"
        },
        {
          "internalType": "uint256",
          "name": "totalAmountPaid",
          "type": "uint256"
        },
        {
          "internalType": "enum CustomerOrderManagement.OrderStatus",
          "name": "status",
          "type": "uint8"
        },
        {
          "internalType": "uint256",
          "name": "creationTimestamp",
          "type": "uint256"
        },
        {
          "internalType": "uint256",
          "name": "lastUpdateTimestamp",
          "type": "uint256"
        },
        {
          "internalType": "bool",
          "name": "fundsReleasedToCompany",
          "type": "bool"
        }
      ],
      "stateMutability": "view",
      "type": "function",
      "constant": true
    },
    {
      "inputs": [],
      "name": "owner",
      "outputs": [
        {
          "internalType": "address",
          "name": "",
          "type": "address"
        }
      ],
      "stateMutability": "view",
      "type": "function",
      "constant": true
    },
    {
      "inputs": [],
      "name": "renounceOwnership",
      "outputs": [],
      "stateMutability": "nonpayable",
      "type": "function"
    },
    {
      "inputs": [],
      "name": "roleManagement",
      "outputs": [
        {
          "internalType": "contract IRoleManagement",
          "name": "",
          "type": "address"
        }
      ],
      "stateMutability": "view",
      "type": "function",
      "constant": true
    },
    {
      "inputs": [
        {
          "internalType": "address",
          "name": "",
          "type": "address"
        },
        {
          "internalType": "uint256",
          "name": "",
          "type": "uint256"
        }
      ],
      "name": "storeAssignedOrderIds",
      "outputs": [
        {
          "internalType": "uint256",
          "name": "",
          "type": "uint256"
        }
      ],
      "stateMutability": "view",
      "type": "function",
      "constant": true
    },
    {
      "inputs": [],
      "name": "storeInventoryManagement",
      "outputs": [
        {
          "internalType": "contract IStoreInventoryManagement",
          "name": "",
          "type": "address"
        }
      ],
      "stateMutability": "view",
      "type": "function",
      "constant": true
    },
    {
      "inputs": [
        {
          "internalType": "address",
          "name": "newOwner",
          "type": "address"
        }
      ],
      "name": "transferOwnership",
      "outputs": [],
      "stateMutability": "nonpayable",
      "type": "function"
    },
    {
      "inputs": [],
      "name": "warehouseInventoryManagement",
      "outputs": [
        {
          "internalType": "contract IWarehouseInventoryManagement",
          "name": "",
          "type": "address"
        }
      ],
      "stateMutability": "view",
      "type": "function",
      "constant": true
    },
    {
      "inputs": [
        {
          "internalType": "address",
          "name": "_simAddress",
          "type": "address"
        }
      ],
      "name": "setStoreInventoryManagementAddress",
      "outputs": [],
      "stateMutability": "nonpayable",
      "type": "function"
    },
    {
      "inputs": [
        {
          "internalType": "address",
          "name": "_wimAddress",
          "type": "address"
        }
      ],
      "name": "setWarehouseInventoryManagementAddress",
      "outputs": [],
      "stateMutability": "nonpayable",
      "type": "function"
    },
    {
      "inputs": [
        {
          "components": [
            {
              "internalType": "string",
              "name": "itemId",
              "type": "string"
            },
            {
              "internalType": "uint256",
              "name": "quantity",
              "type": "uint256"
            }
          ],
          "internalType": "struct CustomerOrderManagement.OrderItemInput[]",
          "name": "_orderItemsInput",
          "type": "tuple[]"
        },
        {
          "internalType": "address",
          "name": "_storeAddress",
          "type": "address"
        }
      ],
      "name": "placeOrder",
      "outputs": [],
      "stateMutability": "payable",
      "type": "function",
      "payable": true
    },
    {
      "inputs": [
        {
          "internalType": "uint256",
          "name": "_orderId",
          "type": "uint256"
        },
        {
          "internalType": "uint256",
          "name": "_itemIndex",
          "type": "uint256"
        },
        {
          "internalType": "enum CustomerOrderManagement.OrderItemStatus",
          "name": "_newStatus",
          "type": "uint8"
        }
      ],
      "name": "storeUpdateOrderItemStatus",
      "outputs": [],
      "stateMutability": "nonpayable",
      "type": "function"
    },
    {
      "inputs": [
        {
          "internalType": "uint256",
          "name": "_orderId",
          "type": "uint256"
        }
      ],
      "name": "storeConfirmAllItemsReadyForDelivery",
      "outputs": [],
      "stateMutability": "nonpayable",
      "type": "function"
    },
    {
      "inputs": [
        {
          "internalType": "uint256",
          "name": "_orderId",
          "type": "uint256"
        }
      ],
      "name": "storeConfirmDeliveryToCustomer",
      "outputs": [],
      "stateMutability": "nonpayable",
      "type": "function"
    },
    {
      "inputs": [
        {
          "internalType": "uint256",
          "name": "_orderId",
          "type": "uint256"
        }
      ],
      "name": "customerConfirmReceipt",
      "outputs": [],
      "stateMutability": "nonpayable",
      "type": "function"
    },
    {
      "inputs": [
        {
          "internalType": "uint256",
          "name": "_orderId",
          "type": "uint256"
        },
        {
          "internalType": "string",
          "name": "_reason",
          "type": "string"
        }
      ],
      "name": "cancelOrderByStore",
      "outputs": [],
      "stateMutability": "nonpayable",
      "type": "function"
    },
    {
      "inputs": [
        {
          "internalType": "uint256",
          "name": "_orderId",
          "type": "uint256"
        },
        {
          "internalType": "string",
          "name": "_reason",
          "type": "string"
        }
      ],
      "name": "customerCancelOrderBeforeDelivery",
      "outputs": [],
      "stateMutability": "nonpayable",
      "type": "function"
    },
    {
      "inputs": [
        {
          "internalType": "uint256",
          "name": "_orderId",
          "type": "uint256"
        },
        {
          "internalType": "address",
          "name": "_returnToWarehouseAddress",
          "type": "address"
        },
        {
          "internalType": "string",
          "name": "_reason",
          "type": "string"
        }
      ],
      "name": "customerReturnOrderAfterReceipt",
      "outputs": [],
      "stateMutability": "nonpayable",
      "type": "function"
    },
    {
      "inputs": [
        {
          "internalType": "uint256",
          "name": "_orderId",
          "type": "uint256"
        }
      ],
      "name": "getOrderDetails",
      "outputs": [
        {
          "components": [
            {
              "internalType": "uint256",
              "name": "orderId",
              "type": "uint256"
            },
            {
              "internalType": "address",
              "name": "customerAddress",
              "type": "address"
            },
            {
              "internalType": "address",
              "name": "storeAddress",
              "type": "address"
            },
            {
              "components": [
                {
                  "internalType": "string",
                  "name": "itemId",
                  "type": "string"
                },
                {
                  "internalType": "uint256",
                  "name": "quantity",
                  "type": "uint256"
                },
                {
                  "internalType": "uint256",
                  "name": "unitPrice",
                  "type": "uint256"
                },
                {
                  "internalType": "enum CustomerOrderManagement.OrderItemStatus",
                  "name": "status",
                  "type": "uint8"
                }
              ],
              "internalType": "struct CustomerOrderManagement.OrderItem[]",
              "name": "items",
              "type": "tuple[]"
            },
            {
              "internalType": "uint256",
              "name": "totalAmountPaid",
              "type": "uint256"
            },
            {
              "internalType": "enum CustomerOrderManagement.OrderStatus",
              "name": "status",
              "type": "uint8"
            },
            {
              "internalType": "uint256",
              "name": "creationTimestamp",
              "type": "uint256"
            },
            {
              "internalType": "uint256",
              "name": "lastUpdateTimestamp",
              "type": "uint256"
            },
            {
              "internalType": "bool",
              "name": "fundsReleasedToCompany",
              "type": "bool"
            }
          ],
          "internalType": "struct CustomerOrderManagement.Order",
          "name": "",
          "type": "tuple"
        }
      ],
      "stateMutability": "view",
      "type": "function",
      "constant": true
    },
    {
      "inputs": [
        {
          "internalType": "uint256",
          "name": "_orderId",
          "type": "uint256"
        }
      ],
      "name": "getOrderItems",
      "outputs": [
        {
          "components": [
            {
              "internalType": "string",
              "name": "itemId",
              "type": "string"
            },
            {
              "internalType": "uint256",
              "name": "quantity",
              "type": "uint256"
            },
            {
              "internalType": "uint256",
              "name": "unitPrice",
              "type": "uint256"
            },
            {
              "internalType": "enum CustomerOrderManagement.OrderItemStatus",
              "name": "status",
              "type": "uint8"
            }
          ],
          "internalType": "struct CustomerOrderManagement.OrderItem[]",
          "name": "",
          "type": "tuple[]"
        }
      ],
      "stateMutability": "view",
      "type": "function",
      "constant": true
    },
    {
      "inputs": [
        {
          "internalType": "address",
          "name": "_customer",
          "type": "address"
        }
      ],
      "name": "getCustomerOrders",
      "outputs": [
        {
          "internalType": "uint256[]",
          "name": "",
          "type": "uint256[]"
        }
      ],
      "stateMutability": "view",
      "type": "function",
      "constant": true
    },
    {
      "inputs": [
        {
          "internalType": "address",
          "name": "_store",
          "type": "address"
        }
      ],
      "name": "getStoreAssignedOrders",
      "outputs": [
        {
          "internalType": "uint256[]",
          "name": "",
          "type": "uint256[]"
        }
      ],
      "stateMutability": "view",
      "type": "function",
      "constant": true
    },
    {
      "inputs": [
        {
          "internalType": "address payable",
          "name": "_to",
          "type": "address"
        }
      ],
      "name": "emergencyWithdraw",
      "outputs": [],
      "stateMutability": "nonpayable",
      "type": "function"
    }
  ],
  "bytecode": "0x60e06040523480156200001157600080fd5b506040516200487b3803806200487b833981016040819052620000349162000165565b600160009081556200004562000144565b600180546001600160a01b0319166001600160a01b038316908117909155604051919250906000907f8be0079c531659141344cd1fd0a4f28419497f9722a3daafe3b4186f6b6457e0908290a3506001600160a01b038316620000c55760405162461bcd60e51b8152600401620000bc906200022d565b60405180910390fd5b6001600160a01b038216620000ee5760405162461bcd60e51b8152600401620000bc90620001f8565b6001600160a01b038116620001175760405162461bcd60e51b8152600401620000bc90620001ae565b6001600160601b0319606093841b811660805291831b821660a05290911b1660c052600160045562000264565b3390565b80516001600160a01b03811681146200016057600080fd5b919050565b6000806000606084860312156200017a578283fd5b620001858462000148565b9250620001956020850162000148565b9150620001a56040850162000148565b90509250925092565b6020808252602a908201527f434f4d3a2044696120636869206e67616e2071757920636f6e67207479206b686040820152696f6e6720686f70206c6560b01b606082015260800190565b6020808252818101527f434f4d3a2044696120636869204974656d734d206b686f6e6720686f70206c65604082015260600190565b6020808252601c908201527f434f4d3a204469612063686920524d206b686f6e6720686f70206c6500000000604082015260600190565b60805160601c60a05160601c60c05160601c6145606200031b60003960008181611af701528181611bb301528181611c67015281816123ac01526126150152600081816105990152818161070301528181610b1501528181611032015281816114de01528181611d6c015261271c015260008181610bd101528181610c7a015281816110ee015281816111970152818161159a0152818161164301528181611e2801528181611ed1015261227e01526145606000f3fe6080604052600436106101ac5760003560e01c806390e31261116100ec578063c10940ad1161008a578063f2fde38b11610064578063f2fde38b1461047f578063f4ddd27a1461049f578063fb13e2eb146104bf578063feedc7d3146104ec576101ac565b8063c10940ad1461041d578063c19aacdd1461043d578063ec7dd7bb14610452576101ac565b8063b34b29a3116100c6578063b34b29a3146103b3578063b39399af146103c8578063b630afc9146103e8578063b977ba1814610408576101ac565b806390e312611461034a5780639426d5551461036a578063a85c38ef1461037f576101ac565b80635d942d42116101595780636ff1c9bc116101335780636ff1c9bc146102e0578063715018a6146103005780638da5cb5b146103155780638f5b18f11461032a576101ac565b80635d942d4214610280578063675b3724146102a057806368137aeb146102c0576101ac565b806322f974d21161018a57806322f974d21461021e5780632a58b3301461024b57806338a3b2d814610260576101ac565b80630aa1be39146101b15780630abd4763146101c657806314693b75146101f1575b600080fd5b6101c46101bf36600461321f565b61050c565b005b3480156101d257600080fd5b506101db6109e3565b6040516101e89190613671565b60405180910390f35b3480156101fd57600080fd5b5061021161020c3660046131f4565b6109f2565b6040516101e891906142b5565b34801561022a57600080fd5b5061023e6102393660046131d1565b610a23565b6040516101e8919061379b565b34801561025757600080fd5b50610211610a90565b34801561026c57600080fd5b506101c461027b36600461348a565b610a96565b34801561028c57600080fd5b5061023e61029b3660046131d1565b610f49565b3480156102ac57600080fd5b506101c46102bb3660046133a3565b610fb3565b3480156102cc57600080fd5b506101c46102db366004613440565b61145f565b3480156102ec57600080fd5b506101c46102fb3660046131d1565b6117e7565b34801561030c57600080fd5b506101c4611902565b34801561032157600080fd5b506101db61198b565b34801561033657600080fd5b506102116103453660046131f4565b61199a565b34801561035657600080fd5b506101c46103653660046133a3565b6119b6565b34801561037657600080fd5b506101db611c65565b34801561038b57600080fd5b5061039f61039a3660046133a3565b611c89565b6040516101e89897969594939291906142dd565b3480156103bf57600080fd5b506101db611cde565b3480156103d457600080fd5b506101c46103e33660046133a3565b611ced565b3480156103f457600080fd5b506101c4610403366004613440565b612116565b34801561041457600080fd5b506101db61227c565b34801561042957600080fd5b506101c46104383660046133bb565b6122a0565b34801561044957600080fd5b506101db61271a565b34801561045e57600080fd5b5061047261046d3660046133a3565b61273e565b6040516101e89190614213565b34801561048b57600080fd5b506101c461049a3660046131d1565b612984565b3480156104ab57600080fd5b506101c46104ba3660046131d1565b612a45565b3480156104cb57600080fd5b506104df6104da3660046133a3565b612af4565b6040516101e89190613708565b3480156104f857600080fd5b506101c46105073660046131d1565b612c80565b600260005414156105385760405162461bcd60e51b815260040161052f9061417f565b60405180910390fd5b60026000819055546001600160a01b03166105655760405162461bcd60e51b815260040161052f906139da565b816105825760405162461bcd60e51b815260040161052f90613b31565b60405163329a587360e01b81526001600160a01b037f0000000000000000000000000000000000000000000000000000000000000000169063329a5873906105ce908490600401613671565b60006040518083038186803b1580156105e657600080fd5b505afa1580156105fa573d6000803e3d6000fd5b505050506040513d6000823e601f3d908101601f1916820160405261062291908101906132d1565b506004805460009182610634836144b5565b9091555060008181526005602081905260408220838155600181018054336001600160a01b0319918216179091556002820180549091166001600160a01b038816179055908101805460ff1916905542600682018190556007820155919250805b858110156108e457368787838181106106be57634e487b7160e01b600052603260045260246000fd5b90506020028101906106d0919061439e565b905060008160200135116106f65760405162461bcd60e51b815260040161052f9061404c565b6000806001600160a01b037f0000000000000000000000000000000000000000000000000000000000000000166375a05d126107328580614359565b8b6040518463ffffffff1660e01b815260040161075193929190613831565b604080518083038186803b15801561076857600080fd5b505afa15801561077c573d6000803e3d6000fd5b505050506040513d601f19601f820116820180604052508101906107a09190613415565b915091508080156107b15750600082115b6107cd5760405162461bcd60e51b815260040161052f906138e9565b60408051608081019091526003870190806107e88680614359565b8080601f01602080910402602001604051908101604052809392919081815260200183838082843760009201829052509385525050506020878101358184015260408301879052606090920181905283546001810185559381528190208251805193946004029091019261085f928492019061301f565b50602082015181600101556040820151816002015560608201518160030160006101000a81548160ff021916908360048111156108ac57634e487b7160e01b600052602160045260246000fd5b02179055506108c291505060208401358361442b565b6108cc90866143f3565b945050505080806108dc906144b5565b915050610695565b508034146109045760405162461bcd60e51b815260040161052f90613a11565b60048201819055336000818152600660209081526040808320805460018181018355918552838520018890556001600160a01b0389168085526007845282852080549283018155855292909320909201869055905190919085907faf03488da094bc08f76858b3b2a0c36a13217c95790c77139137fc6e062ba9cd9061098b9086906142b5565b60405180910390a4600582015460405184917f9d22dd44fa6012f7b18f8831bd91c9e7a12938bc6994e23b1f0b419251f1258a916109ce9160ff16904290613816565b60405180910390a25050600160005550505050565b6002546001600160a01b031681565b60066020528160005260406000208181548110610a0e57600080fd5b90600052602060002001600091509150505481565b6001600160a01b038116600090815260066020908152604091829020805483518184028101840190945280845260609392830182828015610a8357602002820191906000526020600020905b815481526020019060010190808311610a6f575b505050505090505b919050565b60045481565b6000838152600560205260409020548390610ac35760405162461bcd60e51b815260040161052f90613ebd565b6000818152600560205260409020600201546001600160a01b031680610afb5760405162461bcd60e51b815260040161052f906140f0565b60405163329a587360e01b81526000906001600160a01b037f0000000000000000000000000000000000000000000000000000000000000000169063329a587390610b4a908590600401613671565b60006040518083038186803b158015610b6257600080fd5b505afa158015610b76573d6000803e3d6000fd5b505050506040513d6000823e601f3d908101601f19168201604052610b9e91908101906132d1565b60608101519091506001600160a01b03163314610bcd5760405162461bcd60e51b815260040161052f90613bbd565b60007f00000000000000000000000000000000000000000000000000000000000000006001600160a01b0316631f1077986040518163ffffffff1660e01b815260040160206040518083038186803b158015610c2857600080fd5b505afa158015610c3c573d6000803e3d6000fd5b505050506040513d601f19601f82011682018060405250810190610c6091906132b9565b604051632474521560e21b81529091506001600160a01b037f000000000000000000000000000000000000000000000000000000000000000016906391d1485490610cb190849033906004016137df565b60206040518083038186803b158015610cc957600080fd5b505afa158015610cdd573d6000803e3d6000fd5b505050506040513d601f19601f82011682018060405250810190610d01919061329f565b610d1d5760405162461bcd60e51b815260040161052f90614138565b60026000541415610d405760405162461bcd60e51b815260040161052f9061417f565b6002600090815587815260056020526040812090600582015460ff166007811115610d7b57634e487b7160e01b600052602160045260246000fd5b1480610dad57506001600582015460ff166007811115610dab57634e487b7160e01b600052602160045260246000fd5b145b610dc95760405162461bcd60e51b815260040161052f90613fb8565b60038101548710610dec5760405162461bcd60e51b815260040161052f90613b7b565b6000816003018881548110610e1157634e487b7160e01b600052603260045260246000fd5b6000918252602090912060049091020190506001876004811115610e4557634e487b7160e01b600052602160045260246000fd5b1480610e7057506002876004811115610e6e57634e487b7160e01b600052602160045260246000fd5b145b80610e9a57506003876004811115610e9857634e487b7160e01b600052602160045260246000fd5b145b610eb65760405162461bcd60e51b815260040161052f9061385e565b60038101805488919060ff19166001836004811115610ee557634e487b7160e01b600052602160045260246000fd5b021790555042600783015560405133908a907fff0d8a7be28e6f36b6ff784bad0dc3841124462e87f7a201e4961d76481d68b790610f28908c9086908d90614331565b60405180910390a3610f3989612d2f565b5050600160005550505050505050565b6001600160a01b038116600090815260076020908152604091829020805483518184028101840190945280845260609392830182828015610a835760200282019190600052602060002090815481526020019060010190808311610a6f5750505050509050919050565b6000818152600560205260409020548190610fe05760405162461bcd60e51b815260040161052f90613ebd565b6000818152600560205260409020600201546001600160a01b0316806110185760405162461bcd60e51b815260040161052f906140f0565b60405163329a587360e01b81526000906001600160a01b037f0000000000000000000000000000000000000000000000000000000000000000169063329a587390611067908590600401613671565b60006040518083038186803b15801561107f57600080fd5b505afa158015611093573d6000803e3d6000fd5b505050506040513d6000823e601f3d908101601f191682016040526110bb91908101906132d1565b60608101519091506001600160a01b031633146110ea5760405162461bcd60e51b815260040161052f90613bbd565b60007f00000000000000000000000000000000000000000000000000000000000000006001600160a01b0316631f1077986040518163ffffffff1660e01b815260040160206040518083038186803b15801561114557600080fd5b505afa158015611159573d6000803e3d6000fd5b505050506040513d601f19601f8201168201806040525081019061117d91906132b9565b604051632474521560e21b81529091506001600160a01b037f000000000000000000000000000000000000000000000000000000000000000016906391d14854906111ce90849033906004016137df565b60206040518083038186803b1580156111e657600080fd5b505afa1580156111fa573d6000803e3d6000fd5b505050506040513d601f19601f8201168201806040525081019061121e919061329f565b61123a5760405162461bcd60e51b815260040161052f90614138565b6002600054141561125d5760405162461bcd60e51b815260040161052f9061417f565b6002600081815586815260056020526040902090600582015460ff16600781111561129857634e487b7160e01b600052602160045260246000fd5b146112b55760405162461bcd60e51b815260040161052f90613ef4565b60005b60038201548110156113d25760008260030182815481106112e957634e487b7160e01b600052603260045260246000fd5b60009182526020909120600490910201905060038082015460ff16600481111561132357634e487b7160e01b600052602160045260246000fd5b146113405760405162461bcd60e51b815260040161052f90613946565b60028054908401546001830154604051631ec3e04f60e21b81526001600160a01b0393841693637b0f813c93611380939116918691908e906004016136e6565b600060405180830381600087803b15801561139a57600080fd5b505af11580156113ae573d6000803e3d6000fd5b50505050600301805460ff19166004179055806113ca816144b5565b9150506112b8565b5060058101805460ff19166003179055426007820155600281015460405133916001600160a01b03169088907faed449934768d32ac20f87fd0f552e69568e1eb815079272a728db1ff656911590600090a4600581015460405187917f9d22dd44fa6012f7b18f8831bd91c9e7a12938bc6994e23b1f0b419251f1258a916109ce9160ff16904290613816565b600083815260056020526040902054839061148c5760405162461bcd60e51b815260040161052f90613ebd565b6000818152600560205260409020600201546001600160a01b0316806114c45760405162461bcd60e51b815260040161052f906140f0565b60405163329a587360e01b81526000906001600160a01b037f0000000000000000000000000000000000000000000000000000000000000000169063329a587390611513908590600401613671565b60006040518083038186803b15801561152b57600080fd5b505afa15801561153f573d6000803e3d6000fd5b505050506040513d6000823e601f3d908101601f1916820160405261156791908101906132d1565b60608101519091506001600160a01b031633146115965760405162461bcd60e51b815260040161052f90613bbd565b60007f00000000000000000000000000000000000000000000000000000000000000006001600160a01b0316631f1077986040518163ffffffff1660e01b815260040160206040518083038186803b1580156115f157600080fd5b505afa158015611605573d6000803e3d6000fd5b505050506040513d601f19601f8201168201806040525081019061162991906132b9565b604051632474521560e21b81529091506001600160a01b037f000000000000000000000000000000000000000000000000000000000000000016906391d148549061167a90849033906004016137df565b60206040518083038186803b15801561169257600080fd5b505afa1580156116a6573d6000803e3d6000fd5b505050506040513d601f19601f820116820180604052508101906116ca919061329f565b6116e65760405162461bcd60e51b815260040161052f90614138565b600260005414156117095760405162461bcd60e51b815260040161052f9061417f565b6002600090815587815260056020526040812090600582015460ff16600781111561174457634e487b7160e01b600052602160045260246000fd5b148061177657506001600582015460ff16600781111561177457634e487b7160e01b600052602160045260246000fd5b145b6117925760405162461bcd60e51b815260040161052f9061397d565b6117d8883360058a8a8080601f01602080910402602001604051908101604052809392919081815260200183838082843760009201919091525060649250612e5a915050565b50506001600055505050505050565b6117ef61301b565b6001600160a01b031661180061198b565b6001600160a01b0316146118265760405162461bcd60e51b815260040161052f90613dce565b600260005414156118495760405162461bcd60e51b815260040161052f9061417f565b60026000556001600160a01b0381166118745760405162461bcd60e51b815260040161052f90613c1a565b4780156118f9576000826001600160a01b0316826040516118949061366e565b60006040518083038185875af1925050503d80600081146118d1576040519150601f19603f3d011682016040523d82523d6000602084013e6118d6565b606091505b50509050806118f75760405162461bcd60e51b815260040161052f90614015565b505b50506001600055565b61190a61301b565b6001600160a01b031661191b61198b565b6001600160a01b0316146119415760405162461bcd60e51b815260040161052f90613dce565b6001546040516000916001600160a01b0316907f8be0079c531659141344cd1fd0a4f28419497f9722a3daafe3b4186f6b6457e0908390a3600180546001600160a01b0319169055565b6001546001600160a01b031690565b60076020528160005260406000208181548110610a0e57600080fd5b60008181526005602052604090205481906119e35760405162461bcd60e51b815260040161052f90613ebd565b6000818152600560205260409020600101546001600160a01b03163314611a1c5760405162461bcd60e51b815260040161052f90613d87565b60026000541415611a3f5760405162461bcd60e51b815260040161052f9061417f565b600260009081558281526005602052604090206003600582015460ff166007811115611a7b57634e487b7160e01b600052602160045260246000fd5b14611a985760405162461bcd60e51b815260040161052f90613ab5565b600881015460ff1615611abd5760405162461bcd60e51b815260040161052f90613d50565b600581018054600460ff19918216811790925542600784015560088301805490911660011790558101546040516000916001600160a01b037f00000000000000000000000000000000000000000000000000000000000000001691611b219061366e565b60006040518083038185875af1925050503d8060008114611b5e576040519150601f19603f3d011682016040523d82523d6000602084013e611b63565b606091505b5050905080611b845760405162461bcd60e51b815260040161052f90614093565b604051339085907f66335ab67b17f1df563c368ec1e30a3f6cd36401015614bed9bd38a592d7ed6690600090a37f00000000000000000000000000000000000000000000000000000000000000006001600160a01b0316847f804da23065bad8ffadbaab9fae42155f5dea042e69e414f18113eddb76e9d7268460040154604051611c0f91906142b5565b60405180910390a3600582015460405185917f9d22dd44fa6012f7b18f8831bd91c9e7a12938bc6994e23b1f0b419251f1258a91611c529160ff16904290613816565b60405180910390a2505060016000555050565b7f000000000000000000000000000000000000000000000000000000000000000081565b60056020819052600091825260409091208054600182015460028301546004840154948401546006850154600786015460089096015494966001600160a01b0394851696939094169460ff9283169391921688565b6003546001600160a01b031681565b6000818152600560205260409020548190611d1a5760405162461bcd60e51b815260040161052f90613ebd565b6000818152600560205260409020600201546001600160a01b031680611d525760405162461bcd60e51b815260040161052f906140f0565b60405163329a587360e01b81526000906001600160a01b037f0000000000000000000000000000000000000000000000000000000000000000169063329a587390611da1908590600401613671565b60006040518083038186803b158015611db957600080fd5b505afa158015611dcd573d6000803e3d6000fd5b505050506040513d6000823e601f3d908101601f19168201604052611df591908101906132d1565b60608101519091506001600160a01b03163314611e245760405162461bcd60e51b815260040161052f90613bbd565b60007f00000000000000000000000000000000000000000000000000000000000000006001600160a01b0316631f1077986040518163ffffffff1660e01b815260040160206040518083038186803b158015611e7f57600080fd5b505afa158015611e93573d6000803e3d6000fd5b505050506040513d601f19601f82011682018060405250810190611eb791906132b9565b604051632474521560e21b81529091506001600160a01b037f000000000000000000000000000000000000000000000000000000000000000016906391d1485490611f0890849033906004016137df565b60206040518083038186803b158015611f2057600080fd5b505afa158015611f34573d6000803e3d6000fd5b505050506040513d601f19601f82011682018060405250810190611f58919061329f565b611f745760405162461bcd60e51b815260040161052f90614138565b60026000541415611f975760405162461bcd60e51b815260040161052f9061417f565b600260009081558581526005602052604090206001600582015460ff166007811115611fd357634e487b7160e01b600052602160045260246000fd5b14611ff05760405162461bcd60e51b815260040161052f90613f6e565b60005b600382015481101561208857600382600301828154811061202457634e487b7160e01b600052603260045260246000fd5b600091825260209091206004918202016003015460ff169081111561205957634e487b7160e01b600052602160045260246000fd5b146120765760405162461bcd60e51b815260040161052f90613c51565b80612080816144b5565b915050611ff3565b5060058101805460ff1916600290811790915542600783015581015460405133916001600160a01b03169088907f1dab13ec0792bd2da6773f87d2a4551f4432a7489644b53bd828762f9e0a2b1890600090a4600581015460405187917f9d22dd44fa6012f7b18f8831bd91c9e7a12938bc6994e23b1f0b419251f1258a916109ce9160ff16904290613816565b60008381526005602052604090205483906121435760405162461bcd60e51b815260040161052f90613ebd565b6000818152600560205260409020600101546001600160a01b0316331461217c5760405162461bcd60e51b815260040161052f90613d87565b6002600054141561219f5760405162461bcd60e51b815260040161052f9061417f565b600260009081558481526005602052604090206003600582015460ff1660078111156121db57634e487b7160e01b600052602160045260246000fd5b10801561220e575060058082015460ff16600781111561220b57634e487b7160e01b600052602160045260246000fd5b14155b61222a5760405162461bcd60e51b815260040161052f90613e60565b6122708533600687878080601f01602080910402602001604051908101604052809392919081815260200183838082843760009201919091525060649250612e5a915050565b50506001600055505050565b7f000000000000000000000000000000000000000000000000000000000000000081565b60008481526005602052604090205484906122cd5760405162461bcd60e51b815260040161052f90613ebd565b6000818152600560205260409020600101546001600160a01b031633146123065760405162461bcd60e51b815260040161052f90613d87565b600260005414156123295760405162461bcd60e51b815260040161052f9061417f565b600260009081558581526005602052604090206004600582015460ff16600781111561236557634e487b7160e01b600052602160045260246000fd5b146123825760405162461bcd60e51b815260040161052f906141b6565b6003546001600160a01b03166123aa5760405162461bcd60e51b815260040161052f90613e03565b7f00000000000000000000000000000000000000000000000000000000000000006001600160a01b03166123f05760405162461bcd60e51b815260040161052f90613cf3565b60005b60038201548110156125b657600082600301828154811061242457634e487b7160e01b600052603260045260246000fd5b906000526020600020906004020160405180608001604052908160008201805461244d9061447a565b80601f01602080910402602001604051908101604052809291908181526020018280546124799061447a565b80156124c65780601f1061249b576101008083540402835291602001916124c6565b820191906000526020600020905b8154815290600101906020018083116124a957829003601f168201915b50505091835250506001820154602082015260028201546040820152600382015460609091019060ff16600481111561250f57634e487b7160e01b600052602160045260246000fd5b600481111561252e57634e487b7160e01b600052602160045260246000fd5b905250600354815160208301516040516312d2f4d960e11b81529394506001600160a01b03909216926325a5e9b292612570928c929091908e906004016136b1565b600060405180830381600087803b15801561258a57600080fd5b505af115801561259e573d6000803e3d6000fd5b505050505080806125ae906144b5565b9150506123f3565b5060058101805460ff1916600790811790915542908201556004810154605a906000906064906125e790849061442b565b6125f1919061440b565b9050801561268257600183015460405163088cbd9f60e11b81526001600160a01b037f00000000000000000000000000000000000000000000000000000000000000008116926311197b3e9261264f928d92169086906004016142be565b600060405180830381600087803b15801561266957600080fd5b505af115801561267d573d6000803e3d6000fd5b505050505b336001600160a01b0316887ff29fc26b7850cfd97c54533ef7f7423647732af5754324b78eea5aa8d8bfed148989896040516126c093929190613685565b60405180910390a3600583015460405189917f9d22dd44fa6012f7b18f8831bd91c9e7a12938bc6994e23b1f0b419251f1258a916127039160ff16904290613816565b60405180910390a250506001600055505050505050565b7f000000000000000000000000000000000000000000000000000000000000000081565b6127466130a3565b6000828152600560205260409020546127715760405162461bcd60e51b815260040161052f90613ebd565b60008281526005602090815260408083208151610120810183528154815260018201546001600160a01b039081168286015260028301541681840152600382018054845181870281018701909552808552919592946060870194939192919084015b828210156128fa57838290600052602060002090600402016040518060800160405290816000820180546128069061447a565b80601f01602080910402602001604051908101604052809291908181526020018280546128329061447a565b801561287f5780601f106128545761010080835404028352916020019161287f565b820191906000526020600020905b81548152906001019060200180831161286257829003601f168201915b50505091835250506001820154602082015260028201546040820152600382015460609091019060ff1660048111156128c857634e487b7160e01b600052602160045260246000fd5b60048111156128e757634e487b7160e01b600052602160045260246000fd5b81525050815260200190600101906127d3565b5050509082525060048201546020820152600582015460409091019060ff16600781111561293857634e487b7160e01b600052602160045260246000fd5b600781111561295757634e487b7160e01b600052602160045260246000fd5b8152600682015460208201526007820154604082015260089091015460ff16151560609091015292915050565b61298c61301b565b6001600160a01b031661299d61198b565b6001600160a01b0316146129c35760405162461bcd60e51b815260040161052f90613dce565b6001600160a01b0381166129e95760405162461bcd60e51b815260040161052f906138a3565b6001546040516001600160a01b038084169216907f8be0079c531659141344cd1fd0a4f28419497f9722a3daafe3b4186f6b6457e090600090a3600180546001600160a01b0319166001600160a01b0392909216919091179055565b612a4d61301b565b6001600160a01b0316612a5e61198b565b6001600160a01b031614612a845760405162461bcd60e51b815260040161052f90613dce565b6001600160a01b038116612aaa5760405162461bcd60e51b815260040161052f90613afa565b600380546001600160a01b0319166001600160a01b0383169081179091556040517f9d00bdb4c1bf918df98c2197d7890603abf58babbc46d1a0442c1d92855fa12990600090a250565b600081815260056020526040902054606090612b225760405162461bcd60e51b815260040161052f90613ebd565b600082815260056020908152604080832060030180548251818502810185019093528083529193909284015b82821015612c755783829060005260206000209060040201604051806080016040529081600082018054612b819061447a565b80601f0160208091040260200160405190810160405280929190818152602001828054612bad9061447a565b8015612bfa5780601f10612bcf57610100808354040283529160200191612bfa565b820191906000526020600020905b815481529060010190602001808311612bdd57829003601f168201915b50505091835250506001820154602082015260028201546040820152600382015460609091019060ff166004811115612c4357634e487b7160e01b600052602160045260246000fd5b6004811115612c6257634e487b7160e01b600052602160045260246000fd5b8152505081526020019060010190612b4e565b505050509050919050565b612c8861301b565b6001600160a01b0316612c9961198b565b6001600160a01b031614612cbf5760405162461bcd60e51b815260040161052f90613dce565b6001600160a01b038116612ce55760405162461bcd60e51b815260040161052f90613f37565b600280546001600160a01b0319166001600160a01b0383169081179091556040517fb875684c9dfb17eb2f1c703cb1df8211b9cdee7ccde9c141ba5a4395d71a1a0490600090a250565b600081815260056020526040812090600582015460ff166007811115612d6557634e487b7160e01b600052602160045260246000fd5b1415612e56576000805b6003830154811015612df5576000836003018281548110612da057634e487b7160e01b600052603260045260246000fd5b600091825260209091206004918202016003015460ff1690811115612dd557634e487b7160e01b600052602160045260246000fd5b14612de35760019150612df5565b80612ded816144b5565b915050612d6f565b508015612e545760058201805460ff191660011790819055426007840181905560405185927f9d22dd44fa6012f7b18f8831bd91c9e7a12938bc6994e23b1f0b419251f1258a92612e4b9260ff90921691613816565b60405180910390a25b505b5050565b6000858152600560205260409020600881015460ff1615612e8d5760405162461bcd60e51b815260040161052f90613a58565b60058101805485919060ff19166001836007811115612ebc57634e487b7160e01b600052602160045260246000fd5b02179055504260078201558115801590612eda575060008160040154115b15612f8c5760006064838360040154612ef3919061442b565b612efd919061440b565b90508015612f8a5760018201546040516000916001600160a01b0316908390612f259061366e565b60006040518083038185875af1925050503d8060008114612f62576040519150601f19603f3d011682016040523d82523d6000602084013e612f67565b606091505b5050905080612f885760405162461bcd60e51b815260040161052f90613c96565b505b505b846001600160a01b0316867f1958f12ed107aac0b5b73f30f757c1e943eefa50888cbbf84e3eab2038b447c88686604051612fc89291906137f6565b60405180910390a3600581015460405187917f9d22dd44fa6012f7b18f8831bd91c9e7a12938bc6994e23b1f0b419251f1258a9161300b9160ff16904290613816565b60405180910390a2505050505050565b3390565b82805461302b9061447a565b90600052602060002090601f01602090048101928261304d5760008555613093565b82601f1061306657805160ff1916838001178555613093565b82800160010185558215613093579182015b82811115613093578251825591602001919060010190613078565b5061309f9291506130f0565b5090565b6040805161012081018252600080825260208201819052918101829052606080820152608081018290529060a0820190815260200160008152602001600081526020016000151581525090565b5b8082111561309f57600081556001016130f1565b8051610a8b81614512565b80518015158114610a8b57600080fd5b60008083601f840112613131578182fd5b50813567ffffffffffffffff811115613148578182fd5b60208301915083602082850101111561316057600080fd5b9250929050565b600082601f830112613177578081fd5b815167ffffffffffffffff811115613191576131916144fc565b6131a4601f8201601f19166020016143bd565b8181528460208386010111156131b8578283fd5b6131c982602083016020870161444a565b949350505050565b6000602082840312156131e2578081fd5b81356131ed81614512565b9392505050565b60008060408385031215613206578081fd5b823561321181614512565b946020939093013593505050565b600080600060408486031215613233578081fd5b833567ffffffffffffffff8082111561324a578283fd5b818601915086601f83011261325d578283fd5b81358181111561326b578384fd5b876020808302850101111561327e578384fd5b6020928301955093505084013561329481614512565b809150509250925092565b6000602082840312156132b0578081fd5b6131ed82613110565b6000602082840312156132ca578081fd5b5051919050565b6000602082840312156132e2578081fd5b815167ffffffffffffffff808211156132f9578283fd5b9083019060c0828603121561330c578283fd5b61331660c06143bd565b61331f83613105565b8152602083015182811115613332578485fd5b61333e87828601613167565b602083015250604083015182811115613355578485fd5b61336187828601613167565b60408301525061337360608401613105565b606082015261338460808401613110565b608082015261339560a08401613105565b60a082015295945050505050565b6000602082840312156133b4578081fd5b5035919050565b600080600080606085870312156133d0578081fd5b8435935060208501356133e281614512565b9250604085013567ffffffffffffffff8111156133fd578182fd5b61340987828801613120565b95989497509550505050565b60008060408385031215613427578182fd5b8251915061343760208401613110565b90509250929050565b600080600060408486031215613454578283fd5b83359250602084013567ffffffffffffffff811115613471578283fd5b61347d86828701613120565b9497909650939450505050565b60008060006060848603121561349e578081fd5b8335925060208401359150604084013560058110613294578182fd5b6001600160a01b03169052565b6000815180845260208085019450848183028601828601855b85811015613540578383038952815160808151818652613502828701826135a1565b91505086820151878601526040808301518187015250606080830151925061352c81870184613553565b5099860199935050908401906001016134e0565b5090979650505050505050565b15159052565b60058110613563576135636144e6565b9052565b60088110613563576135636144e6565b60008284528282602086013780602084860101526020601f19601f85011685010190509392505050565b600081518084526135b981602086016020860161444a565b601f01601f19169290920160200192915050565b8054600090600281046001808316806135e757607f831692505b602080841082141561360757634e487b7160e01b86526022600452602486fd5b61361184896142b5565b828015613625576001811461363657613661565b60ff19871682528282019750613661565b61363f896143e7565b60005b8781101561365b57815484820152908601908401613642565b83019850505b5050505050505092915050565b90565b6001600160a01b0391909116815260200190565b60006001600160a01b0385168252604060208301526136a8604083018486613577565b95945050505050565b60006001600160a01b0386168252608060208301526136d360808301866135a1565b6040830194909452506060015292915050565b60006001600160a01b0386168252608060208301526136d360808301866135cd565b60208082528251828201819052600091906040908185019080840286018301878501865b8381101561378d57603f19898403018552815160808151818652613752828701826135a1565b91505088820151898601528782015188860152606080830151925061377981870184613553565b50958801959350509086019060010161372c565b509098975050505050505050565b6020808252825182820181905260009190848201906040850190845b818110156137d3578351835292840192918401916001016137b7565b50909695505050505050565b9182526001600160a01b0316602082015260400190565b60006138028285613567565b604060208301526131c960408301846135a1565b604081016138248285613567565b8260208301529392505050565b600060408252613845604083018587613577565b90506001600160a01b0383166020830152949350505050565b60208082526025908201527f434f4d3a205472616e67207468616920636170206e686174206b686f6e6720686040820152646f70206c6560d81b606082015260800190565b60208082526026908201527f4f776e61626c653a206e6577206f776e657220697320746865207a65726f206160408201526564647265737360d01b606082015260800190565b6020808252602b908201527f434f4d3a20476961206d61742068616e67206b686f6e6720686f70206c65207460408201527f6169206375612068616e67000000000000000000000000000000000000000000606082015260800190565b6020808252601f908201527f434f4d3a204d6f74206d61742068616e6720636875612073616e2073616e6700604082015260600190565b60208082526034908201527f434f4d3a205472616e67207468616920646f6e2068616e67206b686f6e67206360408201527f686f2070686570206375612068616e6720687579000000000000000000000000606082015260800190565b6020808252601e908201527f434f4d3a20446961206368692053494d20636875612064756f63206461740000604082015260600190565b60208082526027908201527f434f4d3a20536f207469656e207468616e6820746f616e206b686f6e67206368604082015266696e682078616360c81b606082015260800190565b60208082526036908201527f434f4d3a204b686f6e6720746865206875792f686f616e207469656e2c20746960408201527f656e206461207468756f6320766520636f6e6720747900000000000000000000606082015260800190565b60208082526025908201527f434f4d3a204375612068616e67206368756120786163206e68616e206769616f6040820152642068616e6760d81b606082015260800190565b6020808252601d908201527f434f4d3a20446961206368692057494d206b686f6e6720686f70206c65000000604082015260600190565b6020808252602a908201527f434f4d3a20446f6e2068616e67207068616920636f206974206e686174206d6f60408201526974206d61742068616e6760b01b606082015260800190565b60208082526022908201527f434f4d3a20436869206d7563206d61742068616e67206b686f6e6720686f70206040820152616c6560f01b606082015260800190565b60208082526037908201527f434f4d3a204e67756f6920676f69206b686f6e672070686169207175616e206c60408201527f79206375612068616e672063756120646f6e2068616e67000000000000000000606082015260800190565b6020808252601c908201527f434f4d3a204e67756f69206e68616e206b686f6e6720686f70206c6500000000604082015260600190565b60208082526025908201527f434f4d3a204368756120647520746174206361206d61742068616e672073616e6040820152642073616e6760d81b606082015260800190565b60208082526037908201527f434f4d3a20486f616e207469656e2063686f206b68616368207468617420626160408201527f692c20766965632068757920626920686f616e20746163000000000000000000606082015260800190565b6020808252602b908201527f434f4d3a20446961206368692043544d20636875612064756f6320646174206460408201527f6520686f616e207469656e000000000000000000000000000000000000000000606082015260800190565b6020808252601b908201527f434f4d3a205469656e2064612064756f632067696169206e67616e0000000000604082015260600190565b60208082526027908201527f434f4d3a204e67756f6920676f69206b686f6e672070686169206c61206b686160408201526663682068616e6760c81b606082015260800190565b6020808252818101527f4f776e61626c653a2063616c6c6572206973206e6f7420746865206f776e6572604082015260600190565b60208082526030908201527f434f4d3a20446961206368692057494d2063686f20766965632074726120686160408201527f6e6720636875612064756f632064617400000000000000000000000000000000606082015260800190565b60208082526031908201527f434f4d3a205472616e67207468616920646f6e2068616e67206b686f6e67206360408201527f686f2070686570206b6861636820687579000000000000000000000000000000606082015260800190565b6020808252601b908201527f434f4d3a20446f6e2068616e67206b686f6e6720746f6e207461690000000000604082015260600190565b60208082526023908201527f434f4d3a20446f6e2068616e6720636875612073616e2073616e67206465206760408201526269616f60e81b606082015260800190565b6020808252601d908201527f434f4d3a20446961206368692053494d206b686f6e6720686f70206c65000000604082015260600190565b6020808252602a908201527f434f4d3a20446f6e2068616e672063687561206f207472616e6720746861692060408201526964616e67207875206c7960b01b606082015260800190565b60208082526030908201527f434f4d3a205472616e67207468616920646f6e2068616e67206b686f6e67206360408201527f686f207068657020636170206e68617400000000000000000000000000000000606082015260800190565b6020808252601f908201527f434f4d3a20527574207469656e206b68616e2063617020746861742062616900604082015260600190565b60208082526027908201527f434f4d3a20536f206c756f6e67206d61742068616e672070686169206c6120736040820152666f2064756f6e6760c81b606082015260800190565b60208082526031908201527f434f4d3a2047696169206e67616e207469656e2063686f206e67616e2071757960408201527f20636f6e67207479207468617420626169000000000000000000000000000000606082015260800190565b60208082526028908201527f434f4d3a20446f6e2068616e67206b686f6e6720636f206375612068616e6720604082015267323ab7b19033b0b760c11b606082015260800190565b60208082526027908201527f434f4d3a204e67756f6920676f69207468696575207661692074726f2051554160408201526609cbe98b2be86960cb1b606082015260800190565b6020808252601f908201527f5265656e7472616e637947756172643a207265656e7472616e742063616c6c00604082015260600190565b6020808252602f908201527f434f4d3a20446f6e2068616e67206368756120686f616e207468616e6820646560408201527f20636f2074686520747261206c61690000000000000000000000000000000000606082015260800190565b60006020825282516020830152602083015161423260408401826134ba565b50604083015161424560608401826134ba565b5060608301516101208060808501526142626101408501836134c7565b9150608085015160a085015260a085015161428060c0860182613567565b5060c085015160e085015260e08501516101008181870152808701519150506142ab8286018261354d565b5090949350505050565b90815260200190565b9283526001600160a01b03919091166020830152604082015260600190565b8881526001600160a01b038881166020830152871660408201526060810186905261010081016143106080830187613567565b8460a08301528360c083015282151560e08301529998505050505050505050565b60008482526060602083015261434a60608301856135cd565b90506131c96040830184613553565b6000808335601e1984360301811261436f578283fd5b83018035915067ffffffffffffffff821115614389578283fd5b60200191503681900382131561316057600080fd5b60008235603e198336030181126143b3578182fd5b9190910192915050565b60405181810167ffffffffffffffff811182821017156143df576143df6144fc565b604052919050565b60009081526020902090565b60008219821115614406576144066144d0565b500190565b60008261442657634e487b7160e01b81526012600452602481fd5b500490565b6000816000190483118215151615614445576144456144d0565b500290565b60005b8381101561446557818101518382015260200161444d565b83811115614474576000848401525b50505050565b60028104600182168061448e57607f821691505b602082108114156144af57634e487b7160e01b600052602260045260246000fd5b50919050565b60006000198214156144c9576144c96144d0565b5060010190565b634e487b7160e01b600052601160045260246000fd5b634e487b7160e01b600052602160045260246000fd5b634e487b7160e01b600052604160045260246000fd5b6001600160a01b038116811461452757600080fd5b5056fea2646970667358221220b7a916937e32fc67917fbbd59121e3355251eaee9d11ea4b8959b736813365a464736f6c63430008000033",
  "immutableReferences": {
    "887": [
      {
        "length": 32,
        "start": 3025
      },
      {
        "length": 32,
        "start": 3194
      },
      {
        "length": 32,
        "start": 4334
      },
      {
        "length": 32,
        "start": 4503
      },
      {
        "length": 32,
        "start": 5530
      },
      {
        "length": 32,
        "start": 5699
      },
      {
        "length": 32,
        "start": 7720
      },
      {
        "length": 32,
        "start": 7889
      },
      {
        "length": 32,
        "start": 8830
      }
    ],
    "890": [
      {
        "length": 32,
        "start": 1433
      },
      {
        "length": 32,
        "start": 1795
      },
      {
        "length": 32,
        "start": 2837
      },
      {
        "length": 32,
        "start": 4146
      },
      {
        "length": 32,
        "start": 5342
      },
      {
        "length": 32,
        "start": 7532
      },
      {
        "length": 32,
        "start": 10012
      }
    ],
    "898": [
      {
        "length": 32,
        "start": 6903
      },
      {
        "length": 32,
        "start": 7091
      },
      {
        "length": 32,
        "start": 7271
      },
      {
        "length": 32,
        "start": 9132
      },
      {
        "length": 32,
        "start": 9749
      }
    ]
  },
  "source": "// SPDX-License-Identifier: MIT\r\npragma solidity ^0.8.0;\r\n\r\nimport \"@openzeppelin/contracts/security/ReentrancyGuard.sol\";\r\nimport \"@openzeppelin/contracts/access/Ownable.sol\";\r\n\r\n// Khai bo trc cu trc t ItemsManagement\r\ncontract ItemsManagement {\r\n    struct PhysicalLocationInfo { address locationId; string name; string locationType; address manager; bool exists; address designatedSourceWarehouseAddress;}\r\n}\r\n\r\n// Interface cho RoleManagement\r\ninterface IRoleManagement {\r\n    function STORE_MANAGER_ROLE() external view returns (bytes32);\r\n    // function WAREHOUSE_MANAGER_ROLE() external view returns (bytes32); // Not directly used by COM anymore\r\n    function DEFAULT_ADMIN_ROLE() external view returns (bytes32); // For setXyzAddress if Ownable is not used for that\r\n    function hasRole(bytes32 role, address account) external view returns (bool);\r\n}\r\n\r\n// Interface cho ItemsManagement\r\ninterface IItemsManagement {\r\n    function getStoreInfo(address storeAddress) external view returns (ItemsManagement.PhysicalLocationInfo memory);\r\n    function getItemRetailPriceAtStore(string calldata itemId, address storeAddress) external view returns (uint256 price, bool priceExists);\r\n}\r\n\r\n// Interface cho StoreInventoryManagement\r\ninterface IStoreInventoryManagement {\r\n    function getStoreStockLevel(address storeAddress, string calldata itemId) external view returns (uint256);\r\n    function deductStockForCustomerSale(address storeAddress, string calldata itemId, uint256 quantity, uint256 customerOrderId) external;\r\n}\r\n\r\n// Interface cho WarehouseInventoryManagement (cho vic tr hng)\r\ninterface IWarehouseInventoryManagement {\r\n    function recordReturnedStockByCustomer(\r\n        address returnToWarehouseAddress,\r\n        string calldata itemId,\r\n        uint256 quantity,\r\n        uint256 customerOrderId\r\n    ) external;\r\n}\r\n\r\n// MI: Interface cho CompanyTreasuryManager  gi hm hon tin\r\ninterface ICompanyTreasuryManager {\r\n    function refundCustomerOrderFromTreasury(uint256 orderId, address payable customerAddress, uint256 amountToRefund) external;\r\n}\r\n\r\n// Hp ng Qun l n hng Khch hng\r\ncontract CustomerOrderManagement is ReentrancyGuard, Ownable {\r\n    IRoleManagement public immutable roleManagement;\r\n    IItemsManagement public immutable itemsManagement;\r\n    IStoreInventoryManagement public storeInventoryManagement; // Main inventory interaction\r\n    IWarehouseInventoryManagement public warehouseInventoryManagement; // For returns\r\n    \r\n    address public immutable companyTreasuryAddress; // a ch ca CompanyTreasuryManager\r\n\r\n    uint256 public nextOrderId;     // ID cho n hng tip theo\r\n\r\n    // Trng thi n hng ca khch\r\n    enum OrderStatus {\r\n        Placed,                     // 0: Khch t, thanh ton c COM gi\r\n        ProcessingByStore,          // 1: Ca hng ang kim tra tn kho / khi to b sung hng\r\n        AllItemsReadyForDelivery,   // 2: Tt c mt hng  sn sng ti ca hng cho n ny ( b trng thi partiellement)\r\n        DeliveryConfirmedByStore,   // 3: Ca hng xc nhn  giao hng / khch  ly\r\n        Completed,                  // 4: Khch xc nhn nhn hng, tin c gii ngn cho Ngn qu\r\n        CancelledByStore,           // 5: Ca hng hy\r\n        CancelledByCustomer,        // 6: Khch hy trc khi giao hng\r\n        ReturnedByCustomer          // 7: Khch tr hng sau khi nhn\r\n    }\r\n\r\n    // Trng thi ca tng mt hng trong n, do ca hng qun l\r\n    enum OrderItemStatus { \r\n        PendingStoreProcessing,     // Ban u\r\n        StoreStockAvailable,        // Ca hng c hng\r\n        StoreNeedsRestock,          // Ca hng cn t thm (trng thi ty chn)\r\n        ReadyForDelivery,           // Mt hng  c ca hng x l v sn sng\r\n        DeliveredToCustomer         // Mt hng c xc nhn l mt phn ca ln giao cui cng\r\n    }\r\n\r\n    // Mt hng trong n (n gin ha, tp trung vo nhng g khch thy)\r\n    struct OrderItem {\r\n        string itemId;          // ID mt hng\r\n        uint256 quantity;       // S lng\r\n        uint256 unitPrice;      // Gi bn l ti ca hng ti thi im t hng\r\n        OrderItemStatus status; // Trng thi mt hng\r\n    }\r\n\r\n    // Cu trc n hng\r\n    struct Order {\r\n        uint256 orderId;            // ID n hng\r\n        address customerAddress;    // a ch khch hng\r\n        address storeAddress;       // Ca hng khch  chn\r\n        OrderItem[] items;          // Danh sch mt hng\r\n        uint256 totalAmountPaid;    // S tin khch  tr cho hp ng ny\r\n        OrderStatus status;         // Trng thi n hng\r\n        uint256 creationTimestamp;  // Thi im to\r\n        uint256 lastUpdateTimestamp;// Thi im cp nht cui\r\n        bool fundsReleasedToCompany;// Tin  gii ngn cho cng ty cha?\r\n    }\r\n\r\n    // D liu u vo t khch hng (n gin ha: ch itemId v quantity)\r\n    struct OrderItemInput {\r\n        string itemId;\r\n        uint256 quantity;\r\n    }\r\n\r\n    mapping(uint256 => Order) public orders; // orderId => Chi tit n hng\r\n    mapping(address => uint256[]) public customerOrderIds; // customerAddress => Danh sch ID n hng ca khch\r\n    mapping(address => uint256[]) public storeAssignedOrderIds; // storeAddress => Danh sch ID n hng c giao cho ca hng\r\n\r\n    // S kin\r\n    event OrderPlaced(uint256 indexed orderId, address indexed customer, address indexed storeAddress, uint256 totalAmount); // n hng c t\r\n    event OrderItemStatusUpdatedByStore(uint256 indexed orderId, uint256 itemIndex, string itemId, OrderItemStatus newItemStatus, address indexed storeManager); // Trng thi mt hng c ca hng cp nht\r\n    event OrderReadyForDelivery(uint256 indexed orderId, address indexed storeAddress, address indexed storeManager); // n hng sn sng  giao\r\n    event OrderDeliveryConfirmedByStore(uint256 indexed orderId, address indexed storeAddress, address indexed storeManager); // Ca hng xc nhn giao hng\r\n    event OrderCompletedByCustomer(uint256 indexed orderId, address indexed customer); // Khch hng hon thnh n hng\r\n    event FundsReleasedToCompany(uint256 indexed orderId, uint256 amount, address indexed treasury); // Tin c gii ngn cho cng ty\r\n    event OrderOverallStatusUpdated(uint256 indexed orderId, OrderStatus newStatus, uint256 timestamp); // Trng thi tng th n hng c cp nht\r\n    event OrderCancelled(uint256 indexed orderId, address indexed canceller, OrderStatus newStatus, string reason); // n hng b hy\r\n    event OrderReturnedByCustomerNotified(uint256 indexed orderId, address indexed customer, address returnToWarehouse, string reason); // Thng bo khch tr hng\r\n    // event FundsRefundedToCustomer(uint256 indexed orderId, address indexed customer, uint256 amount); // S kin ny s do CTM pht ra l CustomerRefundProcessedFromTreasury\r\n    \r\n    // Admin events\r\n    event StoreInventoryManagementAddressSet(address indexed simAddress); // a ch SIM c t\r\n    event WarehouseInventoryManagementAddressSet(address indexed wimAddress); // a ch WIM c t (cho tr hng)\r\n\r\n    constructor(\r\n        address _roleManagementAddress,\r\n        address _itemsManagementAddress,\r\n        address _companyTreasury // y l a ch ca CompanyTreasuryManager\r\n    ) Ownable() { // Pass msg.sender to Ownable\r\n        require(_roleManagementAddress != address(0), \"COM: Dia chi RM khong hop le\");\r\n        require(_itemsManagementAddress != address(0), \"COM: Dia chi ItemsM khong hop le\");\r\n        require(_companyTreasury != address(0), \"COM: Dia chi ngan quy cong ty khong hop le\");\r\n\r\n        roleManagement = IRoleManagement(_roleManagementAddress);\r\n        itemsManagement = IItemsManagement(_itemsManagementAddress);\r\n        companyTreasuryAddress = _companyTreasury; // Lu a ch ca CTM\r\n        nextOrderId = 1;\r\n    }\r\n\r\n    // --- SETTERS (Owner/Admin only) ---\r\n    function setStoreInventoryManagementAddress(address _simAddress) external onlyOwner {\r\n        require(_simAddress != address(0), \"COM: Dia chi SIM khong hop le\");\r\n        storeInventoryManagement = IStoreInventoryManagement(_simAddress);\r\n        emit StoreInventoryManagementAddressSet(_simAddress);\r\n    }\r\n    function setWarehouseInventoryManagementAddress(address _wimAddress) external onlyOwner {\r\n        require(_wimAddress != address(0), \"COM: Dia chi WIM khong hop le\");\r\n        warehouseInventoryManagement = IWarehouseInventoryManagement(_wimAddress);\r\n        emit WarehouseInventoryManagementAddressSet(_wimAddress);\r\n    }\r\n\r\n    // --- MODIFIERS ---\r\n    modifier onlyOrderCustomer(uint256 _orderId) {\r\n        require(orders[_orderId].orderId != 0, \"COM: Don hang khong ton tai\");\r\n        require(orders[_orderId].customerAddress == msg.sender, \"COM: Nguoi goi khong phai la khach hang\");\r\n        _;\r\n    }\r\n\r\n    modifier onlyStoreManagerForOrder(uint256 _orderId) {\r\n        require(orders[_orderId].orderId != 0, \"COM: Don hang khong ton tai\");\r\n        address storeAddr = orders[_orderId].storeAddress;\r\n        require(storeAddr != address(0), \"COM: Don hang khong co cua hang duoc gan\");\r\n        ItemsManagement.PhysicalLocationInfo memory storeInfo = itemsManagement.getStoreInfo(storeAddr);\r\n        require(storeInfo.manager == msg.sender, \"COM: Nguoi goi khong phai quan ly cua hang cua don hang\");\r\n        bytes32 smRole = roleManagement.STORE_MANAGER_ROLE();\r\n        require(roleManagement.hasRole(smRole, msg.sender), \"COM: Nguoi goi thieu vai tro QUAN_LY_CH\");\r\n        _;\r\n    }\r\n\r\n    // --- CORE ORDER FUNCTIONS ---\r\n    function placeOrder(\r\n        OrderItemInput[] calldata _orderItemsInput,\r\n        address _storeAddress\r\n    ) external payable nonReentrant {\r\n        require(address(storeInventoryManagement) != address(0), \"COM: Dia chi SIM chua duoc dat\");\r\n        require(_orderItemsInput.length > 0, \"COM: Don hang phai co it nhat mot mat hang\");\r\n        itemsManagement.getStoreInfo(_storeAddress); // Kim tra ca hng hp l\r\n\r\n        uint256 currentOrderId = nextOrderId++;\r\n        Order storage newOrder = orders[currentOrderId];\r\n        newOrder.orderId = currentOrderId;\r\n        newOrder.customerAddress = msg.sender;\r\n        newOrder.storeAddress = _storeAddress;\r\n        newOrder.status = OrderStatus.Placed;\r\n        newOrder.creationTimestamp = block.timestamp;\r\n        newOrder.lastUpdateTimestamp = block.timestamp;\r\n\r\n        uint256 calculatedTotalAmount = 0;\r\n        for (uint i = 0; i < _orderItemsInput.length; i++) {\r\n            OrderItemInput calldata itemInput = _orderItemsInput[i];\r\n            require(itemInput.quantity > 0, \"COM: So luong mat hang phai la so duong\");\r\n            (uint256 retailPrice, bool priceExists) = itemsManagement.getItemRetailPriceAtStore(itemInput.itemId, _storeAddress);\r\n            require(priceExists && retailPrice > 0, \"COM: Gia mat hang khong hop le tai cua hang\");\r\n\r\n            newOrder.items.push(OrderItem({\r\n                itemId: itemInput.itemId,\r\n                quantity: itemInput.quantity,\r\n                unitPrice: retailPrice,\r\n                status: OrderItemStatus.PendingStoreProcessing\r\n            }));\r\n            calculatedTotalAmount += retailPrice * itemInput.quantity;\r\n        }\r\n\r\n        require(msg.value == calculatedTotalAmount, \"COM: So tien thanh toan khong chinh xac\");\r\n        newOrder.totalAmountPaid = calculatedTotalAmount;\r\n\r\n        customerOrderIds[msg.sender].push(currentOrderId);\r\n        storeAssignedOrderIds[_storeAddress].push(currentOrderId);\r\n\r\n        emit OrderPlaced(currentOrderId, msg.sender, _storeAddress, calculatedTotalAmount);\r\n        emit OrderOverallStatusUpdated(currentOrderId, newOrder.status, block.timestamp);\r\n    }\r\n\r\n    function storeUpdateOrderItemStatus(uint256 _orderId, uint256 _itemIndex, OrderItemStatus _newStatus)\r\n        external onlyStoreManagerForOrder(_orderId) nonReentrant {\r\n        Order storage currentOrder = orders[_orderId];\r\n        require(currentOrder.status == OrderStatus.Placed || currentOrder.status == OrderStatus.ProcessingByStore,\r\n                \"COM: Trang thai don hang khong cho phep cap nhat\");\r\n        require(_itemIndex < currentOrder.items.length, \"COM: Chi muc mat hang khong hop le\");\r\n        OrderItem storage item = currentOrder.items[_itemIndex];\r\n        require(_newStatus == OrderItemStatus.StoreStockAvailable || _newStatus == OrderItemStatus.StoreNeedsRestock || _newStatus == OrderItemStatus.ReadyForDelivery, \r\n                \"COM: Trang thai cap nhat khong hop le\");\r\n        \r\n        item.status = _newStatus;\r\n        currentOrder.lastUpdateTimestamp = block.timestamp;\r\n        emit OrderItemStatusUpdatedByStore(_orderId, _itemIndex, item.itemId, _newStatus, msg.sender);\r\n        _updateOverallOrderStatusAfterStoreAction(_orderId);\r\n    }\r\n    \r\n    function storeConfirmAllItemsReadyForDelivery(uint256 _orderId)\r\n        external onlyStoreManagerForOrder(_orderId) nonReentrant {\r\n        Order storage currentOrder = orders[_orderId];\r\n        require(currentOrder.status == OrderStatus.ProcessingByStore, \"COM: Don hang chua o trang thai dang xu ly\");\r\n        for (uint i = 0; i < currentOrder.items.length; i++) {\r\n            require(currentOrder.items[i].status == OrderItemStatus.ReadyForDelivery, \"COM: Chua du tat ca mat hang san sang\");\r\n        }\r\n        currentOrder.status = OrderStatus.AllItemsReadyForDelivery;\r\n        currentOrder.lastUpdateTimestamp = block.timestamp;\r\n        emit OrderReadyForDelivery(_orderId, currentOrder.storeAddress, msg.sender);\r\n        emit OrderOverallStatusUpdated(_orderId, currentOrder.status, block.timestamp);\r\n    }\r\n\r\n    function storeConfirmDeliveryToCustomer(uint256 _orderId)\r\n        external onlyStoreManagerForOrder(_orderId) nonReentrant {\r\n        Order storage currentOrder = orders[_orderId];\r\n        require(currentOrder.status == OrderStatus.AllItemsReadyForDelivery, \"COM: Don hang chua san sang de giao\");\r\n        for (uint i = 0; i < currentOrder.items.length; i++) {\r\n            OrderItem storage item = currentOrder.items[i];\r\n            require(item.status == OrderItemStatus.ReadyForDelivery, \"COM: Mot mat hang chua san sang\");\r\n            storeInventoryManagement.deductStockForCustomerSale(currentOrder.storeAddress, item.itemId, item.quantity, _orderId);\r\n            item.status = OrderItemStatus.DeliveredToCustomer;\r\n        }\r\n        currentOrder.status = OrderStatus.DeliveryConfirmedByStore;\r\n        currentOrder.lastUpdateTimestamp = block.timestamp;\r\n        emit OrderDeliveryConfirmedByStore(_orderId, currentOrder.storeAddress, msg.sender);\r\n        emit OrderOverallStatusUpdated(_orderId, currentOrder.status, block.timestamp);\r\n    }\r\n    \r\n    function customerConfirmReceipt(uint256 _orderId)\r\n        external onlyOrderCustomer(_orderId) nonReentrant {\r\n        Order storage currentOrder = orders[_orderId];\r\n        require(currentOrder.status == OrderStatus.DeliveryConfirmedByStore, \"COM: Cua hang chua xac nhan giao hang\");\r\n        require(!currentOrder.fundsReleasedToCompany, \"COM: Tien da duoc giai ngan\");\r\n\r\n        currentOrder.status = OrderStatus.Completed;\r\n        currentOrder.lastUpdateTimestamp = block.timestamp;\r\n        currentOrder.fundsReleasedToCompany = true;\r\n\r\n        (bool success, ) = payable(companyTreasuryAddress).call{value: currentOrder.totalAmountPaid}(\"\");\r\n        require(success, \"COM: Giai ngan tien cho ngan quy cong ty that bai\");\r\n\r\n        emit OrderCompletedByCustomer(_orderId, msg.sender);\r\n        emit FundsReleasedToCompany(_orderId, currentOrder.totalAmountPaid, companyTreasuryAddress);\r\n        emit OrderOverallStatusUpdated(_orderId, currentOrder.status, block.timestamp);\r\n    }\r\n\r\n    // --- CANCELLATION AND RETURN FUNCTIONS ---\r\n    function cancelOrderByStore(uint256 _orderId, string calldata _reason)\r\n        external onlyStoreManagerForOrder(_orderId) nonReentrant {\r\n        Order storage currentOrder = orders[_orderId];\r\n        require(currentOrder.status == OrderStatus.Placed || currentOrder.status == OrderStatus.ProcessingByStore,\r\n                \"COM: Trang thai don hang khong cho phep cua hang huy\");\r\n        _internalCancelOrderAndRefund(_orderId, msg.sender, OrderStatus.CancelledByStore, _reason, 100);\r\n    }\r\n\r\n    function customerCancelOrderBeforeDelivery(uint256 _orderId, string calldata _reason)\r\n        external onlyOrderCustomer(_orderId) nonReentrant {\r\n        Order storage currentOrder = orders[_orderId];\r\n        require(currentOrder.status < OrderStatus.DeliveryConfirmedByStore && currentOrder.status != OrderStatus.CancelledByStore,\r\n                \"COM: Trang thai don hang khong cho phep khach huy\");\r\n        _internalCancelOrderAndRefund(_orderId, msg.sender, OrderStatus.CancelledByCustomer, _reason, 100);\r\n    }\r\n\r\n    //  cp nht: Hon 90% t Ngn qu khi tr hng\r\n    function customerReturnOrderAfterReceipt(uint256 _orderId, address _returnToWarehouseAddress, string calldata _reason)\r\n        external\r\n        onlyOrderCustomer(_orderId)\r\n        nonReentrant\r\n    {\r\n        Order storage currentOrder = orders[_orderId];\r\n        require(currentOrder.status == OrderStatus.Completed, \"COM: Don hang chua hoan thanh de co the tra lai\");\r\n        require(address(warehouseInventoryManagement) != address(0), \"COM: Dia chi WIM cho viec tra hang chua duoc dat\");\r\n        require(companyTreasuryAddress != address(0), \"COM: Dia chi CTM chua duoc dat de hoan tien\"); // Thm kim tra\r\n        \r\n        // 1. Ghi nhn hng tr v cho Warehouse Inventory\r\n        for (uint i = 0; i < currentOrder.items.length; i++) {\r\n            OrderItem memory item = currentOrder.items[i];\r\n            warehouseInventoryManagement.recordReturnedStockByCustomer(\r\n                _returnToWarehouseAddress, item.itemId, item.quantity, _orderId\r\n            );\r\n        }\r\n\r\n        // 2. Cp nht trng thi n hng\r\n        currentOrder.status = OrderStatus.ReturnedByCustomer;\r\n        currentOrder.lastUpdateTimestamp = block.timestamp;\r\n        // currentOrder.fundsReleasedToCompany L TRUE  y\r\n\r\n        // 3. Tnh ton v yu cu hon tin 90% t CompanyTreasuryManager\r\n        uint256 refundPercentage = 90; // C nh 90%\r\n        uint256 amountToRefund = (currentOrder.totalAmountPaid * refundPercentage) / 100;\r\n\r\n        if (amountToRefund > 0) {\r\n            // Gi CTM  thc hin hon tin.\r\n            ICompanyTreasuryManager(companyTreasuryAddress).refundCustomerOrderFromTreasury(\r\n                _orderId, \r\n                payable(currentOrder.customerAddress), \r\n                amountToRefund\r\n            );\r\n            // CTM s emit s kin CustomerRefundProcessedFromTreasury.\r\n        }\r\n        \r\n        emit OrderReturnedByCustomerNotified(_orderId, msg.sender, _returnToWarehouseAddress, _reason);\r\n        emit OrderOverallStatusUpdated(_orderId, currentOrder.status, block.timestamp);\r\n    }\r\n\r\n    // --- INTERNAL HELPER FUNCTIONS ---\r\n    function _internalCancelOrderAndRefund(\r\n        uint256 _orderId,\r\n        address _canceller,\r\n        OrderStatus _newStatus,\r\n        string memory _reason,\r\n        uint256 _refundPercentage\r\n    ) internal {\r\n        Order storage currentOrder = orders[_orderId];\r\n        require(!currentOrder.fundsReleasedToCompany, \"COM: Khong the huy/hoan tien, tien da thuoc ve cong ty\");\r\n\r\n        currentOrder.status = _newStatus;\r\n        currentOrder.lastUpdateTimestamp = block.timestamp;\r\n\r\n        if (_refundPercentage > 0 && currentOrder.totalAmountPaid > 0) {\r\n            uint256 refundAmount = (currentOrder.totalAmountPaid * _refundPercentage) / 100;\r\n            if (refundAmount > 0) {\r\n                (bool success, ) = payable(currentOrder.customerAddress).call{value: refundAmount}(\"\");\r\n                require(success, \"COM: Hoan tien cho khach that bai, viec huy bi hoan tac\");\r\n                // Khng emit FundsRefundedToCustomer  y na nu mun CTM qun l s kin ny thng nht\r\n                // Nu hy trc khi tin vo CTM, th COM t hon v c th t emit s kin ring.\r\n                //  nht qun, c th b event FundsRefundedToCustomer v ch da vo event ca CTM\r\n            }\r\n        }\r\n        emit OrderCancelled(_orderId, _canceller, _newStatus, _reason);\r\n        emit OrderOverallStatusUpdated(_orderId, currentOrder.status, block.timestamp);\r\n    }\r\n\r\n    function _updateOverallOrderStatusAfterStoreAction(uint256 _orderId) internal {\r\n        Order storage currentOrder = orders[_orderId];\r\n        if (currentOrder.status == OrderStatus.Placed) {\r\n             bool anyItemTouchedByStore = false;\r\n             for(uint i=0; i < currentOrder.items.length; i++){\r\n                 if(currentOrder.items[i].status != OrderItemStatus.PendingStoreProcessing){\r\n                     anyItemTouchedByStore = true;\r\n                     break;\r\n                 }\r\n             }\r\n             if(anyItemTouchedByStore){\r\n                currentOrder.status = OrderStatus.ProcessingByStore;\r\n                currentOrder.lastUpdateTimestamp = block.timestamp;\r\n                emit OrderOverallStatusUpdated(_orderId, currentOrder.status, block.timestamp);\r\n             }\r\n        }\r\n    }\r\n\r\n    function isOrderInFinalState(OrderStatus _status) internal pure returns (bool) {\r\n        return _status >= OrderStatus.Completed;\r\n    }\r\n\r\n    // --- VIEW FUNCTIONS ---\r\n    function getOrderDetails(uint256 _orderId) external view returns (Order memory) {\r\n        require(orders[_orderId].orderId != 0, \"COM: Don hang khong ton tai\");\r\n        return orders[_orderId];\r\n    }\r\n    function getOrderItems(uint256 _orderId) external view returns (OrderItem[] memory) {\r\n        require(orders[_orderId].orderId != 0, \"COM: Don hang khong ton tai\");\r\n        return orders[_orderId].items;\r\n    }\r\n    function getCustomerOrders(address _customer) external view returns (uint256[] memory) { return customerOrderIds[_customer]; }\r\n    function getStoreAssignedOrders(address _store) external view returns (uint256[] memory) { return storeAssignedOrderIds[_store]; }\r\n    \r\n    // --- EMERGENCY/ADMIN FUNCTIONS ---\r\n    function emergencyWithdraw(address payable _to) external onlyOwner nonReentrant { //  sa  nhn _to\r\n        require(_to != address(0), \"COM: Nguoi nhan khong hop le\");\r\n        uint256 balance = address(this).balance;\r\n        if (balance > 0) {\r\n             // Quyt nh chuyn cho _to (do owner ch nh) hay c nh v companyTreasuryAddress\r\n            (bool success, ) = _to.call{value: balance}(\"\");\r\n            // (bool success, ) = payable(companyTreasuryAddress).call{value: balance}(\"\"); // Hoc lun chuyn v ngn qu\r\n            require(success, \"COM: Rut tien khan cap that bai\");\r\n        }\r\n    }\r\n}\r\n\r\n",
  "sourcePath": "D:\\nhi\\Logtech\\New tech in Log\\dapp2\\SC\\contracts\\CustomerOrder.sol",
  "compiler": {
    "name": "solc",
    "version": "0.8.0+commit.c7dfd78e.Emscripten.clang"
  },
  "schemaVersion": "3.4.16",
  "updatedAt": "2025-06-01T18:42:33.992Z",
  "networkType": "ethereum",
  "devdoc": {
    "kind": "dev",
    "methods": {
      "owner()": {
        "details": "Returns the address of the current owner."
      },
      "renounceOwnership()": {
        "details": "Leaves the contract without owner. It will not be possible to call `onlyOwner` functions anymore. Can only be called by the current owner. NOTE: Renouncing ownership will leave the contract without an owner, thereby removing any functionality that is only available to the owner."
      },
      "transferOwnership(address)": {
        "details": "Transfers ownership of the contract to a new account (`newOwner`). Can only be called by the current owner."
      }
    },
    "version": 1
  },
  "userdoc": {
    "kind": "user",
    "methods": {},
    "version": 1
  }
}