{
  "contractName": "CustomerOrderManagement",
  "abi": [
    {
      "inputs": [
        {
          "internalType": "address",
          "name": "_roleManagementAddress",
          "type": "address"
        },
        {
          "internalType": "address",
          "name": "_itemsManagementAddress",
          "type": "address"
        },
        {
          "internalType": "address",
          "name": "_companyTreasuryManagerAddress",
          "type": "address"
        }
      ],
      "stateMutability": "nonpayable",
      "type": "constructor"
    },
    {
      "anonymous": false,
      "inputs": [
        {
          "indexed": true,
          "internalType": "uint256",
          "name": "orderId",
          "type": "uint256"
        },
        {
          "indexed": false,
          "internalType": "uint256",
          "name": "amount",
          "type": "uint256"
        },
        {
          "indexed": true,
          "internalType": "address",
          "name": "treasuryAddress",
          "type": "address"
        }
      ],
      "name": "FundsReleasedToCompanyTreasury",
      "type": "event"
    },
    {
      "anonymous": false,
      "inputs": [
        {
          "indexed": true,
          "internalType": "uint256",
          "name": "orderId",
          "type": "uint256"
        },
        {
          "indexed": true,
          "internalType": "address",
          "name": "canceller",
          "type": "address"
        },
        {
          "indexed": false,
          "internalType": "enum CustomerOrderManagement.OrderStatus",
          "name": "newStatus",
          "type": "uint8"
        },
        {
          "indexed": false,
          "internalType": "string",
          "name": "reason",
          "type": "string"
        },
        {
          "indexed": false,
          "internalType": "uint256",
          "name": "amountRefunded",
          "type": "uint256"
        }
      ],
      "name": "OrderCancelled",
      "type": "event"
    },
    {
      "anonymous": false,
      "inputs": [
        {
          "indexed": true,
          "internalType": "uint256",
          "name": "orderId",
          "type": "uint256"
        },
        {
          "indexed": true,
          "internalType": "address",
          "name": "customer",
          "type": "address"
        }
      ],
      "name": "OrderCompletedByCustomer",
      "type": "event"
    },
    {
      "anonymous": false,
      "inputs": [
        {
          "indexed": true,
          "internalType": "uint256",
          "name": "orderId",
          "type": "uint256"
        },
        {
          "indexed": true,
          "internalType": "address",
          "name": "storeAddress",
          "type": "address"
        },
        {
          "indexed": true,
          "internalType": "address",
          "name": "byStoreManager",
          "type": "address"
        }
      ],
      "name": "OrderDeliveryConfirmedByStore",
      "type": "event"
    },
    {
      "anonymous": false,
      "inputs": [
        {
          "indexed": true,
          "internalType": "uint256",
          "name": "orderId",
          "type": "uint256"
        },
        {
          "indexed": false,
          "internalType": "uint256",
          "name": "itemIndexInOrder",
          "type": "uint256"
        },
        {
          "indexed": false,
          "internalType": "string",
          "name": "itemId",
          "type": "string"
        },
        {
          "indexed": false,
          "internalType": "enum CustomerOrderManagement.OrderItemStatus",
          "name": "newItemStatus",
          "type": "uint8"
        },
        {
          "indexed": true,
          "internalType": "address",
          "name": "byStoreManager",
          "type": "address"
        }
      ],
      "name": "OrderItemStatusUpdatedByStore",
      "type": "event"
    },
    {
      "anonymous": false,
      "inputs": [
        {
          "indexed": true,
          "internalType": "uint256",
          "name": "orderId",
          "type": "uint256"
        },
        {
          "indexed": false,
          "internalType": "enum CustomerOrderManagement.OrderStatus",
          "name": "newStatus",
          "type": "uint8"
        },
        {
          "indexed": false,
          "internalType": "uint256",
          "name": "timestamp",
          "type": "uint256"
        }
      ],
      "name": "OrderOverallStatusUpdated",
      "type": "event"
    },
    {
      "anonymous": false,
      "inputs": [
        {
          "indexed": true,
          "internalType": "uint256",
          "name": "orderId",
          "type": "uint256"
        },
        {
          "indexed": true,
          "internalType": "address",
          "name": "customer",
          "type": "address"
        },
        {
          "indexed": true,
          "internalType": "address",
          "name": "storeAddress",
          "type": "address"
        },
        {
          "indexed": false,
          "internalType": "uint256",
          "name": "totalAmount",
          "type": "uint256"
        }
      ],
      "name": "OrderPlaced",
      "type": "event"
    },
    {
      "anonymous": false,
      "inputs": [
        {
          "indexed": true,
          "internalType": "uint256",
          "name": "orderId",
          "type": "uint256"
        },
        {
          "indexed": true,
          "internalType": "address",
          "name": "storeAddress",
          "type": "address"
        },
        {
          "indexed": true,
          "internalType": "address",
          "name": "byStoreManager",
          "type": "address"
        }
      ],
      "name": "OrderReadyForDelivery",
      "type": "event"
    },
    {
      "anonymous": false,
      "inputs": [
        {
          "indexed": true,
          "internalType": "uint256",
          "name": "orderId",
          "type": "uint256"
        },
        {
          "indexed": true,
          "internalType": "address",
          "name": "customer",
          "type": "address"
        },
        {
          "indexed": false,
          "internalType": "address",
          "name": "returnToWarehouse",
          "type": "address"
        },
        {
          "indexed": false,
          "internalType": "string",
          "name": "reason",
          "type": "string"
        }
      ],
      "name": "OrderReturnProcessed",
      "type": "event"
    },
    {
      "anonymous": false,
      "inputs": [
        {
          "indexed": true,
          "internalType": "address",
          "name": "previousOwner",
          "type": "address"
        },
        {
          "indexed": true,
          "internalType": "address",
          "name": "newOwner",
          "type": "address"
        }
      ],
      "name": "OwnershipTransferred",
      "type": "event"
    },
    {
      "anonymous": false,
      "inputs": [
        {
          "indexed": true,
          "internalType": "address",
          "name": "simAddress",
          "type": "address"
        }
      ],
      "name": "StoreInventoryManagementAddressSet",
      "type": "event"
    },
    {
      "anonymous": false,
      "inputs": [
        {
          "indexed": true,
          "internalType": "address",
          "name": "wimAddress",
          "type": "address"
        }
      ],
      "name": "WarehouseInventoryManagementAddressSet",
      "type": "event"
    },
    {
      "inputs": [],
      "name": "companyTreasuryManager",
      "outputs": [
        {
          "internalType": "contract ICompanyTreasuryManagerInterface",
          "name": "",
          "type": "address"
        }
      ],
      "stateMutability": "view",
      "type": "function"
    },
    {
      "inputs": [
        {
          "internalType": "address",
          "name": "",
          "type": "address"
        },
        {
          "internalType": "uint256",
          "name": "",
          "type": "uint256"
        }
      ],
      "name": "customerOrderIds",
      "outputs": [
        {
          "internalType": "uint256",
          "name": "",
          "type": "uint256"
        }
      ],
      "stateMutability": "view",
      "type": "function"
    },
    {
      "inputs": [],
      "name": "itemsManagement",
      "outputs": [
        {
          "internalType": "contract IItemsManagementInterface",
          "name": "",
          "type": "address"
        }
      ],
      "stateMutability": "view",
      "type": "function"
    },
    {
      "inputs": [],
      "name": "nextOrderId",
      "outputs": [
        {
          "internalType": "uint256",
          "name": "",
          "type": "uint256"
        }
      ],
      "stateMutability": "view",
      "type": "function"
    },
    {
      "inputs": [
        {
          "internalType": "uint256",
          "name": "",
          "type": "uint256"
        }
      ],
      "name": "orders",
      "outputs": [
        {
          "internalType": "uint256",
          "name": "orderId",
          "type": "uint256"
        },
        {
          "internalType": "address",
          "name": "customerAddress",
          "type": "address"
        },
        {
          "internalType": "address",
          "name": "storeAddress",
          "type": "address"
        },
        {
          "internalType": "uint256",
          "name": "totalAmountPaid",
          "type": "uint256"
        },
        {
          "internalType": "enum CustomerOrderManagement.OrderStatus",
          "name": "status",
          "type": "uint8"
        },
        {
          "internalType": "uint256",
          "name": "creationTimestamp",
          "type": "uint256"
        },
        {
          "internalType": "uint256",
          "name": "lastUpdateTimestamp",
          "type": "uint256"
        },
        {
          "internalType": "bool",
          "name": "fundsReleasedToCompany",
          "type": "bool"
        }
      ],
      "stateMutability": "view",
      "type": "function"
    },
    {
      "inputs": [],
      "name": "owner",
      "outputs": [
        {
          "internalType": "address",
          "name": "",
          "type": "address"
        }
      ],
      "stateMutability": "view",
      "type": "function"
    },
    {
      "inputs": [],
      "name": "renounceOwnership",
      "outputs": [],
      "stateMutability": "nonpayable",
      "type": "function"
    },
    {
      "inputs": [],
      "name": "roleManagement",
      "outputs": [
        {
          "internalType": "contract IRoleManagementInterface",
          "name": "",
          "type": "address"
        }
      ],
      "stateMutability": "view",
      "type": "function"
    },
    {
      "inputs": [
        {
          "internalType": "address",
          "name": "",
          "type": "address"
        },
        {
          "internalType": "uint256",
          "name": "",
          "type": "uint256"
        }
      ],
      "name": "storeAssignedOrderIds",
      "outputs": [
        {
          "internalType": "uint256",
          "name": "",
          "type": "uint256"
        }
      ],
      "stateMutability": "view",
      "type": "function"
    },
    {
      "inputs": [],
      "name": "storeInventoryManagement",
      "outputs": [
        {
          "internalType": "contract IStoreInventoryManagementInterface",
          "name": "",
          "type": "address"
        }
      ],
      "stateMutability": "view",
      "type": "function"
    },
    {
      "inputs": [
        {
          "internalType": "address",
          "name": "newOwner",
          "type": "address"
        }
      ],
      "name": "transferOwnership",
      "outputs": [],
      "stateMutability": "nonpayable",
      "type": "function"
    },
    {
      "inputs": [],
      "name": "warehouseInventoryManagement",
      "outputs": [
        {
          "internalType": "contract IWarehouseInventoryManagementInterface",
          "name": "",
          "type": "address"
        }
      ],
      "stateMutability": "view",
      "type": "function"
    },
    {
      "inputs": [
        {
          "internalType": "address",
          "name": "_simAddress",
          "type": "address"
        }
      ],
      "name": "setStoreInventoryManagementAddress",
      "outputs": [],
      "stateMutability": "nonpayable",
      "type": "function"
    },
    {
      "inputs": [
        {
          "internalType": "address",
          "name": "_wimAddress",
          "type": "address"
        }
      ],
      "name": "setWarehouseInventoryManagementAddress",
      "outputs": [],
      "stateMutability": "nonpayable",
      "type": "function"
    },
    {
      "inputs": [
        {
          "components": [
            {
              "internalType": "string",
              "name": "itemId",
              "type": "string"
            },
            {
              "internalType": "uint256",
              "name": "quantity",
              "type": "uint256"
            }
          ],
          "internalType": "struct CustomerOrderManagement.OrderItemInput[]",
          "name": "_orderItemsInput",
          "type": "tuple[]"
        },
        {
          "internalType": "address",
          "name": "_storeAddress",
          "type": "address"
        }
      ],
      "name": "placeOrder",
      "outputs": [],
      "stateMutability": "payable",
      "type": "function"
    },
    {
      "inputs": [
        {
          "internalType": "uint256",
          "name": "_orderId",
          "type": "uint256"
        },
        {
          "internalType": "uint256",
          "name": "_itemIndex",
          "type": "uint256"
        },
        {
          "internalType": "enum CustomerOrderManagement.OrderItemStatus",
          "name": "_newStatus",
          "type": "uint8"
        }
      ],
      "name": "storeUpdateOrderItemStatus",
      "outputs": [],
      "stateMutability": "nonpayable",
      "type": "function"
    },
    {
      "inputs": [
        {
          "internalType": "uint256",
          "name": "_orderId",
          "type": "uint256"
        }
      ],
      "name": "storeConfirmAllItemsReadyForDelivery",
      "outputs": [],
      "stateMutability": "nonpayable",
      "type": "function"
    },
    {
      "inputs": [
        {
          "internalType": "uint256",
          "name": "_orderId",
          "type": "uint256"
        }
      ],
      "name": "storeConfirmDeliveryToCustomer",
      "outputs": [],
      "stateMutability": "nonpayable",
      "type": "function"
    },
    {
      "inputs": [
        {
          "internalType": "uint256",
          "name": "_orderId",
          "type": "uint256"
        }
      ],
      "name": "customerConfirmReceipt",
      "outputs": [],
      "stateMutability": "nonpayable",
      "type": "function"
    },
    {
      "inputs": [
        {
          "internalType": "uint256",
          "name": "_orderId",
          "type": "uint256"
        },
        {
          "internalType": "string",
          "name": "_reason",
          "type": "string"
        }
      ],
      "name": "cancelOrderByStore",
      "outputs": [],
      "stateMutability": "nonpayable",
      "type": "function"
    },
    {
      "inputs": [
        {
          "internalType": "uint256",
          "name": "_orderId",
          "type": "uint256"
        },
        {
          "internalType": "string",
          "name": "_reason",
          "type": "string"
        }
      ],
      "name": "customerCancelOrderBeforeDelivery",
      "outputs": [],
      "stateMutability": "nonpayable",
      "type": "function"
    },
    {
      "inputs": [
        {
          "internalType": "uint256",
          "name": "_orderId",
          "type": "uint256"
        },
        {
          "internalType": "address",
          "name": "_returnToWarehouseAddress",
          "type": "address"
        },
        {
          "internalType": "string",
          "name": "_reason",
          "type": "string"
        }
      ],
      "name": "customerReturnOrderAfterReceipt",
      "outputs": [],
      "stateMutability": "nonpayable",
      "type": "function"
    },
    {
      "inputs": [
        {
          "internalType": "uint256",
          "name": "_orderId",
          "type": "uint256"
        }
      ],
      "name": "getOrderDetails",
      "outputs": [
        {
          "components": [
            {
              "internalType": "uint256",
              "name": "orderId",
              "type": "uint256"
            },
            {
              "internalType": "address",
              "name": "customerAddress",
              "type": "address"
            },
            {
              "internalType": "address",
              "name": "storeAddress",
              "type": "address"
            },
            {
              "components": [
                {
                  "internalType": "string",
                  "name": "itemId",
                  "type": "string"
                },
                {
                  "internalType": "uint256",
                  "name": "quantity",
                  "type": "uint256"
                },
                {
                  "internalType": "uint256",
                  "name": "unitPrice",
                  "type": "uint256"
                },
                {
                  "internalType": "enum CustomerOrderManagement.OrderItemStatus",
                  "name": "status",
                  "type": "uint8"
                }
              ],
              "internalType": "struct CustomerOrderManagement.OrderItem[]",
              "name": "items",
              "type": "tuple[]"
            },
            {
              "internalType": "uint256",
              "name": "totalAmountPaid",
              "type": "uint256"
            },
            {
              "internalType": "enum CustomerOrderManagement.OrderStatus",
              "name": "status",
              "type": "uint8"
            },
            {
              "internalType": "uint256",
              "name": "creationTimestamp",
              "type": "uint256"
            },
            {
              "internalType": "uint256",
              "name": "lastUpdateTimestamp",
              "type": "uint256"
            },
            {
              "internalType": "bool",
              "name": "fundsReleasedToCompany",
              "type": "bool"
            }
          ],
          "internalType": "struct CustomerOrderManagement.Order",
          "name": "",
          "type": "tuple"
        }
      ],
      "stateMutability": "view",
      "type": "function"
    },
    {
      "inputs": [
        {
          "internalType": "uint256",
          "name": "_orderId",
          "type": "uint256"
        }
      ],
      "name": "getOrderItems",
      "outputs": [
        {
          "components": [
            {
              "internalType": "string",
              "name": "itemId",
              "type": "string"
            },
            {
              "internalType": "uint256",
              "name": "quantity",
              "type": "uint256"
            },
            {
              "internalType": "uint256",
              "name": "unitPrice",
              "type": "uint256"
            },
            {
              "internalType": "enum CustomerOrderManagement.OrderItemStatus",
              "name": "status",
              "type": "uint8"
            }
          ],
          "internalType": "struct CustomerOrderManagement.OrderItem[]",
          "name": "",
          "type": "tuple[]"
        }
      ],
      "stateMutability": "view",
      "type": "function"
    },
    {
      "inputs": [
        {
          "internalType": "address",
          "name": "_customer",
          "type": "address"
        }
      ],
      "name": "getCustomerOrders",
      "outputs": [
        {
          "internalType": "uint256[]",
          "name": "",
          "type": "uint256[]"
        }
      ],
      "stateMutability": "view",
      "type": "function"
    },
    {
      "inputs": [
        {
          "internalType": "address",
          "name": "_store",
          "type": "address"
        }
      ],
      "name": "getStoreAssignedOrders",
      "outputs": [
        {
          "internalType": "uint256[]",
          "name": "",
          "type": "uint256[]"
        }
      ],
      "stateMutability": "view",
      "type": "function"
    },
    {
      "inputs": [
        {
          "internalType": "address payable",
          "name": "_to",
          "type": "address"
        }
      ],
      "name": "emergencyWithdrawEther",
      "outputs": [],
      "stateMutability": "nonpayable",
      "type": "function"
    }
  ],
  "bytecode": "0x60e06040523480156200001157600080fd5b5060405162005014380380620050148339810160408190526200003491620001e4565b6001600081815581546001600160a01b031916339081179092556040518291907f8be0079c531659141344cd1fd0a4f28419497f9722a3daafe3b4186f6b6457e0908290a3506001600160a01b038316620000d65760405162461bcd60e51b815260206004820152601c60248201527f434f4d3a204469612063686920524d206b686f6e6720686f70206c650000000060448201526064015b60405180910390fd5b6001600160601b0319606084901b166080526001600160a01b038216620001405760405162461bcd60e51b815260206004820181905260248201527f434f4d3a2044696120636869204974656d734d206b686f6e6720686f70206c656044820152606401620000cd565b6001600160601b0319606083901b1660a0526001600160a01b038116620001aa5760405162461bcd60e51b815260206004820152601d60248201527f434f4d3a20446961206368692043544d206b686f6e6720686f70206c650000006044820152606401620000cd565b60601b6001600160601b03191660c052505060016004556200022d565b80516001600160a01b0381168114620001df57600080fd5b919050565b600080600060608486031215620001f9578283fd5b6200020484620001c7565b92506200021460208501620001c7565b91506200022460408501620001c7565b90509250925092565b60805160601c60a05160601c60c05160601c614d37620002dd600039600081816102c6015281816125250152818161262901526134c30152600081816104e5015281816107a7015281816109bd01528181610eca015281816116af01528181611da301526127cb01526000818161049101528181610fd301528181611081015281816117b80152818161186601528181611eac01528181611f5a015281816128d401526129820152614d376000f3fe6080604052600436106101ac5760003560e01c806390e31261116100ec578063c19aacdd1161008a578063f2fde38b11610064578063f2fde38b14610554578063f4ddd27a14610574578063fb13e2eb14610594578063feedc7d3146105c157600080fd5b8063c19aacdd146104d3578063deeb2b9c14610507578063ec7dd7bb1461052757600080fd5b8063b39399af116100c6578063b39399af1461043f578063b630afc91461045f578063b977ba181461047f578063c10940ad146104b357600080fd5b806390e312611461037b578063a85c38ef1461039b578063b34b29a31461041f57600080fd5b80635d942d421161015957806368137aeb1161013357806368137aeb14610308578063715018a6146103285780638da5cb5b1461033d5780638f5b18f11461035b57600080fd5b80635d942d42146102945780635f677881146102b4578063675b3724146102e857600080fd5b806322f974d21161018a57806322f974d2146102315780632a58b3301461025e57806338a3b2d81461027457600080fd5b80630aa1be39146101b15780630abd4763146101c657806314693b7514610203575b600080fd5b6101c46101bf366004614391565b6105e1565b005b3480156101d257600080fd5b506002546101e6906001600160a01b031681565b6040516001600160a01b0390911681526020015b60405180910390f35b34801561020f57600080fd5b5061022361021e366004614366565b610d40565b6040519081526020016101fa565b34801561023d57600080fd5b5061025161024c366004614343565b610d71565b6040516101fa9190614914565b34801561026a57600080fd5b5061022360045481565b34801561028057600080fd5b506101c461028f36600461460c565b610ddd565b3480156102a057600080fd5b506102516102af366004614343565b611558565b3480156102c057600080fd5b506101e67f000000000000000000000000000000000000000000000000000000000000000081565b3480156102f457600080fd5b506101c4610303366004614525565b6115c2565b34801561031457600080fd5b506101c46103233660046145c2565b611cb6565b34801561033457600080fd5b506101c46121c0565b34801561034957600080fd5b506001546001600160a01b03166101e6565b34801561036757600080fd5b50610223610376366004614366565b612271565b34801561038757600080fd5b506101c4610396366004614525565b61228d565b3480156103a757600080fd5b5061040b6103b6366004614525565b60056020819052600091825260409091208054600182015460028301546004840154948401546006850154600786015460089096015494966001600160a01b0394851696939094169460ff9283169391921688565b6040516101fa989796959493929190614a7d565b34801561042b57600080fd5b506003546101e6906001600160a01b031681565b34801561044b57600080fd5b506101c461045a366004614525565b6126de565b34801561046b57600080fd5b506101c461047a3660046145c2565b612cde565b34801561048b57600080fd5b506101e67f000000000000000000000000000000000000000000000000000000000000000081565b3480156104bf57600080fd5b506101c46104ce36600461453d565b612f79565b3480156104df57600080fd5b506101e67f000000000000000000000000000000000000000000000000000000000000000081565b34801561051357600080fd5b506101c4610522366004614343565b6135bb565b34801561053357600080fd5b50610547610542366004614525565b613778565b6040516101fa91906149d0565b34801561056057600080fd5b506101c461056f366004614343565b613a2e565b34801561058057600080fd5b506101c461058f366004614343565b613b6d565b3480156105a057600080fd5b506105b46105af366004614525565b613c74565b6040516101fa9190614861565b3480156105cd57600080fd5b506101c46105dc366004614343565b613e30565b600260005414156106395760405162461bcd60e51b815260206004820152601f60248201527f5265656e7472616e637947756172643a207265656e7472616e742063616c6c0060448201526064015b60405180910390fd5b60026000819055546001600160a01b03166106965760405162461bcd60e51b815260206004820152601e60248201527f434f4d3a20446961206368692053494d20636875612064756f632064617400006044820152606401610630565b6001600160a01b0381166107125760405162461bcd60e51b815260206004820152602260248201527f434f4d3a2044696120636869206375612068616e67206b686f6e6720686f702060448201527f6c650000000000000000000000000000000000000000000000000000000000006064820152608401610630565b816107855760405162461bcd60e51b815260206004820152602a60248201527f434f4d3a20446f6e2068616e67207068616920636f206974206e686174206d6f60448201527f74206d61742068616e67000000000000000000000000000000000000000000006064820152608401610630565b60405163329a587360e01b81526001600160a01b0382811660048301526000917f00000000000000000000000000000000000000000000000000000000000000009091169063329a58739060240160006040518083038186803b1580156107eb57600080fd5b505afa1580156107ff573d6000803e3d6000fd5b505050506040513d6000823e601f3d908101601f191682016040526108279190810190614444565b9050806080015161087a5760405162461bcd60e51b815260206004820152601b60248201527f434f4d3a204375612068616e67206b686f6e6720746f6e2074616900000000006044820152606401610630565b600480546000918261088b83614c8c565b90915550600081815260056020819052604082208381556001810180543373ffffffffffffffffffffffffffffffffffffffff19918216179091556002820180549091166001600160a01b038916179055908101805460ff1916905542600682018190556007820155919250805b86811015610bf4573688888381811061092257634e487b7160e01b600052603260045260246000fd5b90506020028101906109349190614b64565b905060008160200135116109b05760405162461bcd60e51b815260206004820152602760248201527f434f4d3a20536f206c756f6e67206d61742068616e672070686169206c61207360448201527f6f2064756f6e67000000000000000000000000000000000000000000000000006064820152608401610630565b6000806001600160a01b037f0000000000000000000000000000000000000000000000000000000000000000166375a05d126109ec8580614b01565b8c6040518463ffffffff1660e01b8152600401610a0b939291906149a3565b604080518083038186803b158015610a2257600080fd5b505afa158015610a36573d6000803e3d6000fd5b505050506040513d601f19601f82011682018060405250810190610a5a9190614597565b91509150808015610a6b5750600082115b610add5760405162461bcd60e51b815260206004820152602b60248201527f434f4d3a20476961206d61742068616e67206b686f6e6720686f70206c65207460448201527f6169206375612068616e670000000000000000000000000000000000000000006064820152608401610630565b6040805160808101909152600387019080610af88680614b01565b8080601f016020809104026020016040519081016040528093929190818152602001838380828437600092018290525093855250505060208781013581840152604083018790526060909201819052835460018101855593815281902082518051939460040290910192610b6f92849201906141bd565b50602082015181600101556040820151816002015560608201518160030160006101000a81548160ff02191690836004811115610bbc57634e487b7160e01b600052602160045260246000fd5b0217905550610bd2915050602084013583614c02565b610bdc9086614bca565b94505050508080610bec90614c8c565b9150506108f9565b50803414610c6a5760405162461bcd60e51b815260206004820152602760248201527f434f4d3a20536f207469656e207468616e6820746f616e206b686f6e6720636860448201527f696e6820786163000000000000000000000000000000000000000000000000006064820152608401610630565b60048201819055336000818152600660209081526040808320805460018082018355918552838520018890556001600160a01b038a168085526007845282852080549283018155855293839020018790555184815291929186917faf03488da094bc08f76858b3b2a0c36a13217c95790c77139137fc6e062ba9cd910160405180910390a4600582015460405184917f9d22dd44fa6012f7b18f8831bd91c9e7a12938bc6994e23b1f0b419251f1258a91610d2a9160ff16904290614988565b60405180910390a2505060016000555050505050565b60066020528160005260406000208181548110610d5c57600080fd5b90600052602060002001600091509150505481565b6001600160a01b038116600090815260066020908152604091829020805483518184028101840190945280845260609392830182828015610dd157602002820191906000526020600020905b815481526020019060010190808311610dbd575b50505050509050919050565b60008381526005602052604090208054849190610e3c5760405162461bcd60e51b815260206004820152601b60248201527f434f4d3a20446f6e2068616e67206b686f6e6720746f6e2074616900000000006044820152606401610630565b60028101546001600160a01b031680610ea85760405162461bcd60e51b815260206004820152602860248201527f434f4d3a20446f6e2068616e67206b686f6e6720636f206375612068616e6720604482015267323ab7b19033b0b760c11b6064820152608401610630565b60405163329a587360e01b81526001600160a01b0382811660048301526000917f00000000000000000000000000000000000000000000000000000000000000009091169063329a58739060240160006040518083038186803b158015610f0e57600080fd5b505afa158015610f22573d6000803e3d6000fd5b505050506040513d6000823e601f3d908101601f19168201604052610f4a9190810190614444565b60608101519091506001600160a01b03163314610fcf5760405162461bcd60e51b815260206004820152603760248201527f434f4d3a204e67756f6920676f69206b686f6e672070686169207175616e206c60448201527f79206375612068616e672063756120646f6e2068616e670000000000000000006064820152608401610630565b60007f00000000000000000000000000000000000000000000000000000000000000006001600160a01b0316631f1077986040518163ffffffff1660e01b815260040160206040518083038186803b15801561102a57600080fd5b505afa15801561103e573d6000803e3d6000fd5b505050506040513d601f19601f82011682018060405250810190611062919061442c565b604051632474521560e21b8152600481018290523360248201529091507f00000000000000000000000000000000000000000000000000000000000000006001600160a01b0316906391d148549060440160206040518083038186803b1580156110cb57600080fd5b505afa1580156110df573d6000803e3d6000fd5b505050506040513d601f19601f820116820180604052508101906111039190614412565b61115f5760405162461bcd60e51b815260206004820152602760248201527f434f4d3a204e67756f6920676f69207468696575207661692074726f2051554160448201526609cbe98b2be86960cb1b6064820152608401610630565b600260005414156111b25760405162461bcd60e51b815260206004820152601f60248201527f5265656e7472616e637947756172643a207265656e7472616e742063616c6c006044820152606401610630565b6002600090815588815260056020526040812090600582015460ff1660078111156111ed57634e487b7160e01b600052602160045260246000fd5b148061121f57506001600582015460ff16600781111561121d57634e487b7160e01b600052602160045260246000fd5b145b6112b75760405162461bcd60e51b815260206004820152604260248201527f434f4d3a205472616e67207468616920646f6e2068616e67206b686f6e67206360448201527f686f2070686570206375612068616e6720636170206e6861742063686920746960648201527f6574000000000000000000000000000000000000000000000000000000000000608482015260a401610630565b600381015488106113305760405162461bcd60e51b815260206004820152602260248201527f434f4d3a20436869206d7563206d61742068616e67206b686f6e6720686f702060448201527f6c650000000000000000000000000000000000000000000000000000000000006064820152608401610630565b600081600301898154811061135557634e487b7160e01b600052603260045260246000fd5b600091825260209091206004909102019050600188600481111561138957634e487b7160e01b600052602160045260246000fd5b14806113b4575060028860048111156113b257634e487b7160e01b600052602160045260246000fd5b145b806113de575060038860048111156113dc57634e487b7160e01b600052602160045260246000fd5b145b6114505760405162461bcd60e51b815260206004820152603260248201527f434f4d3a205472616e67207468616920636170206e6861742063686f206d617460448201527f2068616e67206b686f6e6720686f70206c6500000000000000000000000000006064820152608401610630565b60038101805489919060ff1916600183600481111561147f57634e487b7160e01b600052602160045260246000fd5b021790555042600783015560405133908b907fff0d8a7be28e6f36b6ff784bad0dc3841124462e87f7a201e4961d76481d68b7906114c2908d9086908e90614ad1565b60405180910390a36000600583015460ff1660078111156114f357634e487b7160e01b600052602160045260246000fd5b14156115475760058201805460ff191660019081179091556040518b917f9d22dd44fa6012f7b18f8831bd91c9e7a12938bc6994e23b1f0b419251f1258a9161153e91904290614988565b60405180910390a25b505060016000555050505050505050565b6001600160a01b038116600090815260076020908152604091829020805483518184028101840190945280845260609392830182828015610dd15760200282019190600052602060002090815481526020019060010190808311610dbd5750505050509050919050565b600081815260056020526040902080548291906116215760405162461bcd60e51b815260206004820152601b60248201527f434f4d3a20446f6e2068616e67206b686f6e6720746f6e2074616900000000006044820152606401610630565b60028101546001600160a01b03168061168d5760405162461bcd60e51b815260206004820152602860248201527f434f4d3a20446f6e2068616e67206b686f6e6720636f206375612068616e6720604482015267323ab7b19033b0b760c11b6064820152608401610630565b60405163329a587360e01b81526001600160a01b0382811660048301526000917f00000000000000000000000000000000000000000000000000000000000000009091169063329a58739060240160006040518083038186803b1580156116f357600080fd5b505afa158015611707573d6000803e3d6000fd5b505050506040513d6000823e601f3d908101601f1916820160405261172f9190810190614444565b60608101519091506001600160a01b031633146117b45760405162461bcd60e51b815260206004820152603760248201527f434f4d3a204e67756f6920676f69206b686f6e672070686169207175616e206c60448201527f79206375612068616e672063756120646f6e2068616e670000000000000000006064820152608401610630565b60007f00000000000000000000000000000000000000000000000000000000000000006001600160a01b0316631f1077986040518163ffffffff1660e01b815260040160206040518083038186803b15801561180f57600080fd5b505afa158015611823573d6000803e3d6000fd5b505050506040513d601f19601f82011682018060405250810190611847919061442c565b604051632474521560e21b8152600481018290523360248201529091507f00000000000000000000000000000000000000000000000000000000000000006001600160a01b0316906391d148549060440160206040518083038186803b1580156118b057600080fd5b505afa1580156118c4573d6000803e3d6000fd5b505050506040513d601f19601f820116820180604052508101906118e89190614412565b6119445760405162461bcd60e51b815260206004820152602760248201527f434f4d3a204e67756f6920676f69207468696575207661692074726f2051554160448201526609cbe98b2be86960cb1b6064820152608401610630565b600260005414156119975760405162461bcd60e51b815260206004820152601f60248201527f5265656e7472616e637947756172643a207265656e7472616e742063616c6c006044820152606401610630565b6002600081815587815260056020526040902090600582015460ff1660078111156119d257634e487b7160e01b600052602160045260246000fd5b14611a455760405162461bcd60e51b815260206004820152602360248201527f434f4d3a20446f6e2068616e6720636875612073616e2073616e67206465206760448201527f69616f00000000000000000000000000000000000000000000000000000000006064820152608401610630565b6002546001600160a01b0316611a9d5760405162461bcd60e51b815260206004820152601e60248201527f434f4d3a20446961206368692053494d20636875612064756f632064617400006044820152606401610630565b60005b6003820154811015611c29576000826003018281548110611ad157634e487b7160e01b600052603260045260246000fd5b60009182526020909120600490910201905060038082015460ff166004811115611b0b57634e487b7160e01b600052602160045260246000fd5b14611b7e5760405162461bcd60e51b815260206004820152603160248201527f434f4d3a204d6f74206d61742068616e672074726f6e6720646f6e206368756160448201527f2073616e2073616e67206465206769616f0000000000000000000000000000006064820152608401610630565b600280549084015460018301546040517f7b0f813c0000000000000000000000000000000000000000000000000000000081526001600160a01b0393841693637b0f813c93611bd7939116918691908f9060040161483f565b600060405180830381600087803b158015611bf157600080fd5b505af1158015611c05573d6000803e3d6000fd5b50505050600301805460ff1916600417905580611c2181614c8c565b915050611aa0565b5060058101805460ff19166003179055426007820155600281015460405133916001600160a01b03169089907faed449934768d32ac20f87fd0f552e69568e1eb815079272a728db1ff656911590600090a4600581015460405188917f9d22dd44fa6012f7b18f8831bd91c9e7a12938bc6994e23b1f0b419251f1258a91610d2a9160ff16904290614988565b60008381526005602052604090208054849190611d155760405162461bcd60e51b815260206004820152601b60248201527f434f4d3a20446f6e2068616e67206b686f6e6720746f6e2074616900000000006044820152606401610630565b60028101546001600160a01b031680611d815760405162461bcd60e51b815260206004820152602860248201527f434f4d3a20446f6e2068616e67206b686f6e6720636f206375612068616e6720604482015267323ab7b19033b0b760c11b6064820152608401610630565b60405163329a587360e01b81526001600160a01b0382811660048301526000917f00000000000000000000000000000000000000000000000000000000000000009091169063329a58739060240160006040518083038186803b158015611de757600080fd5b505afa158015611dfb573d6000803e3d6000fd5b505050506040513d6000823e601f3d908101601f19168201604052611e239190810190614444565b60608101519091506001600160a01b03163314611ea85760405162461bcd60e51b815260206004820152603760248201527f434f4d3a204e67756f6920676f69206b686f6e672070686169207175616e206c60448201527f79206375612068616e672063756120646f6e2068616e670000000000000000006064820152608401610630565b60007f00000000000000000000000000000000000000000000000000000000000000006001600160a01b0316631f1077986040518163ffffffff1660e01b815260040160206040518083038186803b158015611f0357600080fd5b505afa158015611f17573d6000803e3d6000fd5b505050506040513d601f19601f82011682018060405250810190611f3b919061442c565b604051632474521560e21b8152600481018290523360248201529091507f00000000000000000000000000000000000000000000000000000000000000006001600160a01b0316906391d148549060440160206040518083038186803b158015611fa457600080fd5b505afa158015611fb8573d6000803e3d6000fd5b505050506040513d601f19601f82011682018060405250810190611fdc9190614412565b6120385760405162461bcd60e51b815260206004820152602760248201527f434f4d3a204e67756f6920676f69207468696575207661692074726f2051554160448201526609cbe98b2be86960cb1b6064820152608401610630565b6002600054141561208b5760405162461bcd60e51b815260206004820152601f60248201527f5265656e7472616e637947756172643a207265656e7472616e742063616c6c006044820152606401610630565b6002600090815588815260056020526040812090600582015460ff1660078111156120c657634e487b7160e01b600052602160045260246000fd5b14806120f857506001600582015460ff1660078111156120f657634e487b7160e01b600052602160045260246000fd5b145b61216a5760405162461bcd60e51b815260206004820152603460248201527f434f4d3a205472616e67207468616920646f6e2068616e67206b686f6e67206360448201527f686f2070686570206375612068616e67206875790000000000000000000000006064820152608401610630565b6121b0893360058b8b8080601f01602080910402602001604051908101604052809392919081815260200183838082843760009201919091525060649250613f37915050565b5050600160005550505050505050565b6001546001600160a01b0316331461221a5760405162461bcd60e51b815260206004820181905260248201527f4f776e61626c653a2063616c6c6572206973206e6f7420746865206f776e65726044820152606401610630565b6001546040516000916001600160a01b0316907f8be0079c531659141344cd1fd0a4f28419497f9722a3daafe3b4186f6b6457e0908390a36001805473ffffffffffffffffffffffffffffffffffffffff19169055565b60076020528160005260406000208181548110610d5c57600080fd5b600081815260056020526040902080548291906122ec5760405162461bcd60e51b815260206004820152601b60248201527f434f4d3a20446f6e2068616e67206b686f6e6720746f6e2074616900000000006044820152606401610630565b60018101546001600160a01b0316331461236e5760405162461bcd60e51b815260206004820152603460248201527f434f4d3a204e67756f6920676f69206b686f6e672070686169206c61206b686160448201527f63682068616e672063756120646f6e2068616e670000000000000000000000006064820152608401610630565b600260005414156123c15760405162461bcd60e51b815260206004820152601f60248201527f5265656e7472616e637947756172643a207265656e7472616e742063616c6c006044820152606401610630565b600260009081558381526005602052604090206003600582015460ff1660078111156123fd57634e487b7160e01b600052602160045260246000fd5b146124705760405162461bcd60e51b815260206004820152602560248201527f434f4d3a204375612068616e67206368756120786163206e68616e206769616f60448201527f2068616e670000000000000000000000000000000000000000000000000000006064820152608401610630565b600881015460ff16156124eb5760405162461bcd60e51b815260206004820152602760248201527f434f4d3a205469656e2064612064756f632067696169206e67616e2063686f2060448201527f636f6e67207479000000000000000000000000000000000000000000000000006064820152608401610630565b600581018054600460ff19918216811790925542600784015560088301805490911660011790558101546040516000916001600160a01b037f000000000000000000000000000000000000000000000000000000000000000016918381818185875af1925050503d806000811461257e576040519150601f19603f3d011682016040523d82523d6000602084013e612583565b606091505b50509050806125fa5760405162461bcd60e51b815260206004820152603160248201527f434f4d3a2047696169206e67616e207469656e2063686f206e67616e2071757960448201527f20636f6e672074792074686174206261690000000000000000000000000000006064820152608401610630565b604051339086907f66335ab67b17f1df563c368ec1e30a3f6cd36401015614bed9bd38a592d7ed6690600090a37f00000000000000000000000000000000000000000000000000000000000000006001600160a01b0316857f7e027c4d2bafa92ff9f3966ab71f6c3557ade1773984f57ad7c36bd97657b3d9846004015460405161268791815260200190565b60405180910390a3600582015460405186917f9d22dd44fa6012f7b18f8831bd91c9e7a12938bc6994e23b1f0b419251f1258a916126ca9160ff16904290614988565b60405180910390a250506001600055505050565b6000818152600560205260409020805482919061273d5760405162461bcd60e51b815260206004820152601b60248201527f434f4d3a20446f6e2068616e67206b686f6e6720746f6e2074616900000000006044820152606401610630565b60028101546001600160a01b0316806127a95760405162461bcd60e51b815260206004820152602860248201527f434f4d3a20446f6e2068616e67206b686f6e6720636f206375612068616e6720604482015267323ab7b19033b0b760c11b6064820152608401610630565b60405163329a587360e01b81526001600160a01b0382811660048301526000917f00000000000000000000000000000000000000000000000000000000000000009091169063329a58739060240160006040518083038186803b15801561280f57600080fd5b505afa158015612823573d6000803e3d6000fd5b505050506040513d6000823e601f3d908101601f1916820160405261284b9190810190614444565b60608101519091506001600160a01b031633146128d05760405162461bcd60e51b815260206004820152603760248201527f434f4d3a204e67756f6920676f69206b686f6e672070686169207175616e206c60448201527f79206375612068616e672063756120646f6e2068616e670000000000000000006064820152608401610630565b60007f00000000000000000000000000000000000000000000000000000000000000006001600160a01b0316631f1077986040518163ffffffff1660e01b815260040160206040518083038186803b15801561292b57600080fd5b505afa15801561293f573d6000803e3d6000fd5b505050506040513d601f19601f82011682018060405250810190612963919061442c565b604051632474521560e21b8152600481018290523360248201529091507f00000000000000000000000000000000000000000000000000000000000000006001600160a01b0316906391d148549060440160206040518083038186803b1580156129cc57600080fd5b505afa1580156129e0573d6000803e3d6000fd5b505050506040513d601f19601f82011682018060405250810190612a049190614412565b612a605760405162461bcd60e51b815260206004820152602760248201527f434f4d3a204e67756f6920676f69207468696575207661692074726f2051554160448201526609cbe98b2be86960cb1b6064820152608401610630565b60026000541415612ab35760405162461bcd60e51b815260206004820152601f60248201527f5265656e7472616e637947756172643a207265656e7472616e742063616c6c006044820152606401610630565b600260009081558681526005602052604090206001600582015460ff166007811115612aef57634e487b7160e01b600052602160045260246000fd5b14612b625760405162461bcd60e51b815260206004820152603760248201527f434f4d3a20446f6e2068616e672063687561206f207472616e6720746861692060448201527f64616e67207875206c7920626f69206375612068616e670000000000000000006064820152608401610630565b60005b6003820154811015612c50576003826003018281548110612b9657634e487b7160e01b600052603260045260246000fd5b600091825260209091206004918202016003015460ff1690811115612bcb57634e487b7160e01b600052602160045260246000fd5b14612c3e5760405162461bcd60e51b815260206004820152603760248201527f434f4d3a204368756120647520746174206361206d61742068616e672074726f60448201527f6e6720646f6e2073616e2073616e67206465206769616f0000000000000000006064820152608401610630565b80612c4881614c8c565b915050612b65565b5060058101805460ff1916600290811790915542600783015581015460405133916001600160a01b03169089907f1dab13ec0792bd2da6773f87d2a4551f4432a7489644b53bd828762f9e0a2b1890600090a4600581015460405188917f9d22dd44fa6012f7b18f8831bd91c9e7a12938bc6994e23b1f0b419251f1258a91610d2a9160ff16904290614988565b60008381526005602052604090208054849190612d3d5760405162461bcd60e51b815260206004820152601b60248201527f434f4d3a20446f6e2068616e67206b686f6e6720746f6e2074616900000000006044820152606401610630565b60018101546001600160a01b03163314612dbf5760405162461bcd60e51b815260206004820152603460248201527f434f4d3a204e67756f6920676f69206b686f6e672070686169206c61206b686160448201527f63682068616e672063756120646f6e2068616e670000000000000000000000006064820152608401610630565b60026000541415612e125760405162461bcd60e51b815260206004820152601f60248201527f5265656e7472616e637947756172643a207265656e7472616e742063616c6c006044820152606401610630565b600260009081558581526005602052604090206003600582015460ff166007811115612e4e57634e487b7160e01b600052602160045260246000fd5b108015612e81575060058082015460ff166007811115612e7e57634e487b7160e01b600052602160045260246000fd5b14155b8015612eb457506006600582015460ff166007811115612eb157634e487b7160e01b600052602160045260246000fd5b14155b612f265760405162461bcd60e51b815260206004820152603160248201527f434f4d3a205472616e67207468616920646f6e2068616e67206b686f6e67206360448201527f686f2070686570206b68616368206875790000000000000000000000000000006064820152608401610630565b612f6c8633600688888080601f01602080910402602001604051908101604052809392919081815260200183838082843760009201919091525060649250613f37915050565b5050600160005550505050565b60008481526005602052604090208054859190612fd85760405162461bcd60e51b815260206004820152601b60248201527f434f4d3a20446f6e2068616e67206b686f6e6720746f6e2074616900000000006044820152606401610630565b60018101546001600160a01b0316331461305a5760405162461bcd60e51b815260206004820152603460248201527f434f4d3a204e67756f6920676f69206b686f6e672070686169206c61206b686160448201527f63682068616e672063756120646f6e2068616e670000000000000000000000006064820152608401610630565b600260005414156130ad5760405162461bcd60e51b815260206004820152601f60248201527f5265656e7472616e637947756172643a207265656e7472616e742063616c6c006044820152606401610630565b600260009081558681526005602052604090206004600582015460ff1660078111156130e957634e487b7160e01b600052602160045260246000fd5b1461315c5760405162461bcd60e51b815260206004820152602f60248201527f434f4d3a20446f6e2068616e67206368756120686f616e207468616e6820646560448201527f20636f2074686520747261206c616900000000000000000000000000000000006064820152608401610630565b6003546001600160a01b03166131da5760405162461bcd60e51b815260206004820152603060248201527f434f4d3a20446961206368692057494d2063686f20766965632074726120686160448201527f6e6720636875612064756f6320646174000000000000000000000000000000006064820152608401610630565b6001600160a01b0386166132565760405162461bcd60e51b815260206004820152602660248201527f434f4d3a2044696120636869206b686f207472612068616e67206b686f6e672060448201527f686f70206c6500000000000000000000000000000000000000000000000000006064820152608401610630565b60005b600382015481101561343557600082600301828154811061328a57634e487b7160e01b600052603260045260246000fd5b90600052602060002090600402016040518060800160405290816000820180546132b390614c51565b80601f01602080910402602001604051908101604052809291908181526020018280546132df90614c51565b801561332c5780601f106133015761010080835404028352916020019161332c565b820191906000526020600020905b81548152906001019060200180831161330f57829003601f168201915b50505091835250506001820154602082015260028201546040820152600382015460609091019060ff16600481111561337557634e487b7160e01b600052602160045260246000fd5b600481111561339457634e487b7160e01b600052602160045260246000fd5b905250600354815160208301516040517f25a5e9b20000000000000000000000000000000000000000000000000000000081529394506001600160a01b03909216926325a5e9b2926133ef928d929091908f9060040161480a565b600060405180830381600087803b15801561340957600080fd5b505af115801561341d573d6000803e3d6000fd5b5050505050808061342d90614c8c565b915050613259565b5060058101805460ff1916600790811790915542908201556004810154605a90600090606490613466908490614c02565b6134709190614be2565b905080156135225760018301546040517f11197b3e000000000000000000000000000000000000000000000000000000008152600481018b90526001600160a01b039182166024820152604481018390527f0000000000000000000000000000000000000000000000000000000000000000909116906311197b3e90606401600060405180830381600087803b15801561350957600080fd5b505af115801561351d573d6000803e3d6000fd5b505050505b336001600160a01b0316897f4f533528ae53070b62e1048a5f0ccfb2bc89f73e252f9bd9f431b3226e649a2b8a8a8a604051613560939291906147de565b60405180910390a360058301546040518a917f9d22dd44fa6012f7b18f8831bd91c9e7a12938bc6994e23b1f0b419251f1258a916135a39160ff16904290614988565b60405180910390a25050600160005550505050505050565b6001546001600160a01b031633146136155760405162461bcd60e51b815260206004820181905260248201527f4f776e61626c653a2063616c6c6572206973206e6f7420746865206f776e65726044820152606401610630565b600260005414156136685760405162461bcd60e51b815260206004820152601f60248201527f5265656e7472616e637947756172643a207265656e7472616e742063616c6c006044820152606401610630565b60026000556001600160a01b0381166136c35760405162461bcd60e51b815260206004820152601c60248201527f434f4d3a204e67756f69206e68616e206b686f6e6720686f70206c65000000006044820152606401610630565b47801561376f576000826001600160a01b03168260405160006040518083038185875af1925050503d8060008114613717576040519150601f19603f3d011682016040523d82523d6000602084013e61371c565b606091505b505090508061376d5760405162461bcd60e51b815260206004820152601f60248201527f434f4d3a20527574207469656e206b68616e20636170207468617420626169006044820152606401610630565b505b50506001600055565b60408051610120810182526000808252602082018190529181018290526060808201526080810182905260a0810182905260c0810182905260e0810182905261010081019190915260008281526005602052604090205461381b5760405162461bcd60e51b815260206004820152601b60248201527f434f4d3a20446f6e2068616e67206b686f6e6720746f6e2074616900000000006044820152606401610630565b60008281526005602090815260408083208151610120810183528154815260018201546001600160a01b039081168286015260028301541681840152600382018054845181870281018701909552808552919592946060870194939192919084015b828210156139a457838290600052602060002090600402016040518060800160405290816000820180546138b090614c51565b80601f01602080910402602001604051908101604052809291908181526020018280546138dc90614c51565b80156139295780601f106138fe57610100808354040283529160200191613929565b820191906000526020600020905b81548152906001019060200180831161390c57829003601f168201915b50505091835250506001820154602082015260028201546040820152600382015460609091019060ff16600481111561397257634e487b7160e01b600052602160045260246000fd5b600481111561399157634e487b7160e01b600052602160045260246000fd5b815250508152602001906001019061387d565b5050509082525060048201546020820152600582015460409091019060ff1660078111156139e257634e487b7160e01b600052602160045260246000fd5b6007811115613a0157634e487b7160e01b600052602160045260246000fd5b8152600682015460208201526007820154604082015260089091015460ff16151560609091015292915050565b6001546001600160a01b03163314613a885760405162461bcd60e51b815260206004820181905260248201527f4f776e61626c653a2063616c6c6572206973206e6f7420746865206f776e65726044820152606401610630565b6001600160a01b038116613b045760405162461bcd60e51b815260206004820152602660248201527f4f776e61626c653a206e6577206f776e657220697320746865207a65726f206160448201527f64647265737300000000000000000000000000000000000000000000000000006064820152608401610630565b6001546040516001600160a01b038084169216907f8be0079c531659141344cd1fd0a4f28419497f9722a3daafe3b4186f6b6457e090600090a36001805473ffffffffffffffffffffffffffffffffffffffff19166001600160a01b0392909216919091179055565b6001546001600160a01b03163314613bc75760405162461bcd60e51b815260206004820181905260248201527f4f776e61626c653a2063616c6c6572206973206e6f7420746865206f776e65726044820152606401610630565b6001600160a01b038116613c1d5760405162461bcd60e51b815260206004820152601d60248201527f434f4d3a20446961206368692057494d206b686f6e6720686f70206c650000006044820152606401610630565b6003805473ffffffffffffffffffffffffffffffffffffffff19166001600160a01b0383169081179091556040517f9d00bdb4c1bf918df98c2197d7890603abf58babbc46d1a0442c1d92855fa12990600090a250565b600081815260056020526040902054606090613cd25760405162461bcd60e51b815260206004820152601b60248201527f434f4d3a20446f6e2068616e67206b686f6e6720746f6e2074616900000000006044820152606401610630565b600082815260056020908152604080832060030180548251818502810185019093528083529193909284015b82821015613e255783829060005260206000209060040201604051806080016040529081600082018054613d3190614c51565b80601f0160208091040260200160405190810160405280929190818152602001828054613d5d90614c51565b8015613daa5780601f10613d7f57610100808354040283529160200191613daa565b820191906000526020600020905b815481529060010190602001808311613d8d57829003601f168201915b50505091835250506001820154602082015260028201546040820152600382015460609091019060ff166004811115613df357634e487b7160e01b600052602160045260246000fd5b6004811115613e1257634e487b7160e01b600052602160045260246000fd5b8152505081526020019060010190613cfe565b505050509050919050565b6001546001600160a01b03163314613e8a5760405162461bcd60e51b815260206004820181905260248201527f4f776e61626c653a2063616c6c6572206973206e6f7420746865206f776e65726044820152606401610630565b6001600160a01b038116613ee05760405162461bcd60e51b815260206004820152601d60248201527f434f4d3a20446961206368692053494d206b686f6e6720686f70206c650000006044820152606401610630565b6002805473ffffffffffffffffffffffffffffffffffffffff19166001600160a01b0383169081179091556040517fb875684c9dfb17eb2f1c703cb1df8211b9cdee7ccde9c141ba5a4395d71a1a0490600090a250565b6000858152600560205260409020600881015460ff1615613fc05760405162461bcd60e51b815260206004820152603860248201527f434f4d3a204b686f6e6720746865206875792f686f616e207469656e2c20746960448201527f656e2064612063687579656e2063686f20636f6e6720747900000000000000006064820152608401610630565b60058101805485919060ff19166001836007811115613fef57634e487b7160e01b600052602160045260246000fd5b02179055504260078201556000821580159061400f575060008260040154115b1561412b5760648383600401546140269190614c02565b6140309190614be2565b9050801561412b5760018201546040516000916001600160a01b03169083908381818185875af1925050503d8060008114614087576040519150601f19603f3d011682016040523d82523d6000602084013e61408c565b606091505b50509050806141295760405162461bcd60e51b815260206004820152604360248201527f434f4d3a20486f616e207469656e2063686f206b68616368207468617420626160448201527f69206b68692068757920646f6e2c20766965632068757920626920686f616e2060648201527f7461630000000000000000000000000000000000000000000000000000000000608482015260a401610630565b505b856001600160a01b0316877feba1817ccb06d5f92c1e7d42559efe15538ea2a2fe0b5a7d05fc83766d39ec4c87878560405161416993929190614958565b60405180910390a3600582015460405188917f9d22dd44fa6012f7b18f8831bd91c9e7a12938bc6994e23b1f0b419251f1258a916141ac9160ff16904290614988565b60405180910390a250505050505050565b8280546141c990614c51565b90600052602060002090601f0160209004810192826141eb5760008555614231565b82601f1061420457805160ff1916838001178555614231565b82800160010185558215614231579182015b82811115614231578251825591602001919060010190614216565b5061423d929150614241565b5090565b5b8082111561423d5760008155600101614242565b805161426181614ce9565b919050565b8051801515811461426157600080fd5b60008083601f840112614287578182fd5b50813567ffffffffffffffff81111561429e578182fd5b6020830191508360208285010111156142b657600080fd5b9250929050565b600082601f8301126142cd578081fd5b815167ffffffffffffffff808211156142e8576142e8614cd3565b604051601f8301601f19908116603f0116810190828211818310171561431057614310614cd3565b81604052838152866020858801011115614328578485fd5b614339846020830160208901614c21565b9695505050505050565b600060208284031215614354578081fd5b813561435f81614ce9565b9392505050565b60008060408385031215614378578081fd5b823561438381614ce9565b946020939093013593505050565b6000806000604084860312156143a5578081fd5b833567ffffffffffffffff808211156143bc578283fd5b818601915086601f8301126143cf578283fd5b8135818111156143dd578384fd5b8760208260051b85010111156143f1578384fd5b6020928301955093505084013561440781614ce9565b809150509250925092565b600060208284031215614423578081fd5b61435f82614266565b60006020828403121561443d578081fd5b5051919050565b600060208284031215614455578081fd5b815167ffffffffffffffff8082111561446c578283fd5b9083019060e0828603121561447f578283fd5b614487614ba1565b61449083614256565b81526020830151828111156144a3578485fd5b6144af878286016142bd565b6020830152506040830151828111156144c6578485fd5b6144d2878286016142bd565b6040830152506144e460608401614256565b60608201526144f560808401614266565b608082015261450660a08401614266565b60a082015261451760c08401614256565b60c082015295945050505050565b600060208284031215614536578081fd5b5035919050565b60008060008060608587031215614552578081fd5b84359350602085013561456481614ce9565b9250604085013567ffffffffffffffff81111561457f578182fd5b61458b87828801614276565b95989497509550505050565b600080604083850312156145a9578182fd5b825191506145b960208401614266565b90509250929050565b6000806000604084860312156145d6578283fd5b83359250602084013567ffffffffffffffff8111156145f3578283fd5b6145ff86828701614276565b9497909650939450505050565b600080600060608486031215614620578081fd5b8335925060208401359150604084013560058110614407578182fd5b600081518084526020808501808196508360051b81019150828601855b858110156146b957828403895281516080815181875261467b82880182614714565b9150508682015187870152604080830151818801525060608083015192506146a5818801846146c6565b509986019994505090840190600101614659565b5091979650505050505050565b600581106146d6576146d6614cbd565b9052565b600881106146d6576146d6614cbd565b8183528181602085013750600080602083850101526020601f19601f840116840101905092915050565b6000815180845261472c816020860160208601614c21565b601f01601f19169290920160200192915050565b8054600090600181811c908083168061475a57607f831692505b602080841082141561477a57634e487b7160e01b86526022600452602486fd5b8388526020880182801561479557600181146147a6576147d1565b60ff198716825282820197506147d1565b60008981526020902060005b878110156147cb578154848201529086019084016147b2565b83019850505b5050505050505092915050565b6001600160a01b03841681526040602082015260006148016040830184866146ea565b95945050505050565b6001600160a01b038516815260806020820152600061482c6080830186614714565b6040830194909452506060015292915050565b6001600160a01b038516815260806020820152600061482c6080830186614740565b60006020808301818452808551808352604092508286019150828160051b870101848801865b83811015614906577fffffffffffffffffffffffffffffffffffffffffffffffffffffffffffffffc08984030185528151608081518186526148cb82870182614714565b9150508882015189860152878201518886015260608083015192506148f2818701846146c6565b509588019593505090860190600101614887565b509098975050505050505050565b6020808252825182820181905260009190848201906040850190845b8181101561494c57835183529284019291840191600101614930565b50909695505050505050565b61496281856146da565b6060602082015260006149786060830185614714565b9050826040830152949350505050565b6040810161499682856146da565b8260208301529392505050565b6040815260006149b76040830185876146ea565b90506001600160a01b0383166020830152949350505050565b6020815281516020820152600060208301516149f760408401826001600160a01b03169052565b5060408301516001600160a01b0381166060840152506060830151610120806080850152614a2961014085018361463c565b9150608085015160a085015260a0850151614a4760c08601826146da565b5060c085015160e085015260e0850151610100818187015280870151915050614a738286018215159052565b5090949350505050565b8881526001600160a01b03888116602083015287166040820152606081018690526101008101614ab060808301876146da565b8460a08301528360c083015282151560e08301529998505050505050505050565b838152606060208201526000614aea6060830185614740565b9050614af960408301846146c6565b949350505050565b60008083357fffffffffffffffffffffffffffffffffffffffffffffffffffffffffffffffe1843603018112614b35578283fd5b83018035915067ffffffffffffffff821115614b4f578283fd5b6020019150368190038213156142b657600080fd5b600082357fffffffffffffffffffffffffffffffffffffffffffffffffffffffffffffffc1833603018112614b97578182fd5b9190910192915050565b60405160e0810167ffffffffffffffff81118282101715614bc457614bc4614cd3565b60405290565b60008219821115614bdd57614bdd614ca7565b500190565b600082614bfd57634e487b7160e01b81526012600452602481fd5b500490565b6000816000190483118215151615614c1c57614c1c614ca7565b500290565b60005b83811015614c3c578181015183820152602001614c24565b83811115614c4b576000848401525b50505050565b600181811c90821680614c6557607f821691505b60208210811415614c8657634e487b7160e01b600052602260045260246000fd5b50919050565b6000600019821415614ca057614ca0614ca7565b5060010190565b634e487b7160e01b600052601160045260246000fd5b634e487b7160e01b600052602160045260246000fd5b634e487b7160e01b600052604160045260246000fd5b6001600160a01b0381168114614cfe57600080fd5b5056fea2646970667358221220c366e0126bd85de5b253ec1020ba081c8a11489a6134794111a4c9615ce8899764736f6c63430008040033",
  "immutableReferences": {
    "2000": [
      {
        "length": 32,
        "start": 1169
      },
      {
        "length": 32,
        "start": 4051
      },
      {
        "length": 32,
        "start": 4225
      },
      {
        "length": 32,
        "start": 6072
      },
      {
        "length": 32,
        "start": 6246
      },
      {
        "length": 32,
        "start": 7852
      },
      {
        "length": 32,
        "start": 8026
      },
      {
        "length": 32,
        "start": 10452
      },
      {
        "length": 32,
        "start": 10626
      }
    ],
    "2003": [
      {
        "length": 32,
        "start": 1253
      },
      {
        "length": 32,
        "start": 1959
      },
      {
        "length": 32,
        "start": 2493
      },
      {
        "length": 32,
        "start": 3786
      },
      {
        "length": 32,
        "start": 5807
      },
      {
        "length": 32,
        "start": 7587
      },
      {
        "length": 32,
        "start": 10187
      }
    ],
    "2012": [
      {
        "length": 32,
        "start": 710
      },
      {
        "length": 32,
        "start": 9509
      },
      {
        "length": 32,
        "start": 9769
      },
      {
        "length": 32,
        "start": 13507
      }
    ]
  },
  "source": "// SPDX-License-Identifier: MIT\r\npragma solidity ^0.8.4;\r\n\r\nimport \"@openzeppelin/contracts/security/ReentrancyGuard.sol\";\r\nimport \"@openzeppelin/contracts/access/Ownable.sol\";\r\nimport \"./Interfaces.sol\";      // Import file Interfaces.sol tp trung\r\nimport \"./ItemsManagement.sol\"; // Import ItemsManagement  trnh bin dch lin kt contract\r\n\r\n// Hp ng Qun l n hng Khch hng\r\ncontract CustomerOrderManagement is ReentrancyGuard, Ownable {\r\n    // S dng cc interface t Interfaces.sol\r\n    IRoleManagementInterface public immutable roleManagement;\r\n    IItemsManagementInterface public immutable itemsManagement;\r\n    IStoreInventoryManagementInterface public storeInventoryManagement; // S c set sau\r\n    IWarehouseInventoryManagementInterface public warehouseInventoryManagement; // S c set sau (cho vic tr hng)\r\n    ICompanyTreasuryManagerInterface public immutable companyTreasuryManager; // t l immutable nu a ch CTM khng i\r\n\r\n    uint256 public nextOrderId; // ID cho n hng tip theo\r\n\r\n    // Trng thi n hng ca khch\r\n    enum OrderStatus {\r\n        Placed,                     // 0: Khch t, thanh ton c COM gi\r\n        ProcessingByStore,          // 1: Ca hng ang x l (kim tra tn kho, yu cu b sung)\r\n        AllItemsReadyForDelivery,   // 2: Tt c mt hng  sn sng ti ca hng\r\n        DeliveryConfirmedByStore,   // 3: Ca hng xc nhn  giao/khch  ly (tn kho  tr)\r\n        Completed,                  // 4: Khch xc nhn nhn hng, tin c gii ngn cho Ngn qu Cng ty\r\n        CancelledByStore,           // 5: Ca hng hy (trc khi giao)\r\n        CancelledByCustomer,        // 6: Khch hy (trc khi giao)\r\n        ReturnedByCustomer          // 7: Khch tr hng (sau khi  hon thnh v nhn)\r\n    }\r\n\r\n    // Trng thi ca tng mt hng trong n, do ca hng qun l\r\n    enum OrderItemStatus {\r\n        PendingStoreProcessing,     // 0: Ch ca hng x l\r\n        StoreStockAvailable,        // 1: Ca hng c sn hng ny\r\n        StoreNeedsRestock,          // 2: Ca hng cn nhp thm hng ny (ty chn,  theo di)\r\n        ReadyForDelivery,           // 3: Mt hng ny  c ca hng chun b v sn sng giao\r\n        DeliveredToCustomer         // 4: Mt hng ny  c giao (l mt phn ca trng thi DeliveryConfirmedByStore tng th)\r\n    }\r\n\r\n    // Mt hng trong n\r\n    struct OrderItem {\r\n        string itemId;\r\n        uint256 quantity;\r\n        uint256 unitPrice;      // Gi ti thi im t hng\r\n        OrderItemStatus status; // Trng thi mt hng do ca hng cp nht\r\n    }\r\n\r\n    // Cu trc n hng\r\n    struct Order {\r\n        uint256 orderId;\r\n        address customerAddress;\r\n        address storeAddress;       // Ca hng khch  chn\r\n        OrderItem[] items;\r\n        uint256 totalAmountPaid;    // S tin khch  tr cho hp ng ny\r\n        OrderStatus status;\r\n        uint256 creationTimestamp;\r\n        uint256 lastUpdateTimestamp;\r\n        bool fundsReleasedToCompany;// Tin  gii ngn cho cng ty (CTM) cha?\r\n    }\r\n\r\n    // D liu u vo t khch hng\r\n    struct OrderItemInput {\r\n        string itemId;\r\n        uint256 quantity;\r\n    }\r\n\r\n    mapping(uint256 => Order) public orders;\r\n    mapping(address => uint256[]) public customerOrderIds;      // customerAddress => array of orderIds\r\n    mapping(address => uint256[]) public storeAssignedOrderIds; // storeAddress => array of orderIds\r\n\r\n    // --- EVENTS ---\r\n    event OrderPlaced(uint256 indexed orderId, address indexed customer, address indexed storeAddress, uint256 totalAmount);\r\n    event OrderItemStatusUpdatedByStore(uint256 indexed orderId, uint256 itemIndexInOrder, string itemId, OrderItemStatus newItemStatus, address indexed byStoreManager);\r\n    event OrderReadyForDelivery(uint256 indexed orderId, address indexed storeAddress, address indexed byStoreManager);\r\n    event OrderDeliveryConfirmedByStore(uint256 indexed orderId, address indexed storeAddress, address indexed byStoreManager);\r\n    event OrderCompletedByCustomer(uint256 indexed orderId, address indexed customer);\r\n    event FundsReleasedToCompanyTreasury(uint256 indexed orderId, uint256 amount, address indexed treasuryAddress);\r\n    event OrderOverallStatusUpdated(uint256 indexed orderId, OrderStatus newStatus, uint256 timestamp);\r\n    event OrderCancelled(uint256 indexed orderId, address indexed canceller, OrderStatus newStatus, string reason, uint256 amountRefunded);\r\n    event OrderReturnProcessed(uint256 indexed orderId, address indexed customer, address returnToWarehouse, string reason);\r\n    // S kin hon tin (FundsRefundedToCustomer) s do CTM pht ra khi gi refundCustomerOrderFromTreasury\r\n\r\n    // Admin/Owner events\r\n    event StoreInventoryManagementAddressSet(address indexed simAddress);\r\n    event WarehouseInventoryManagementAddressSet(address indexed wimAddress);\r\n\r\n\r\n    // --- CONSTRUCTOR ---\r\n    constructor(\r\n        address _roleManagementAddress,\r\n        address _itemsManagementAddress,\r\n        address _companyTreasuryManagerAddress // a ch ca CompanyTreasuryManager\r\n    ) Ownable() {\r\n        require(_roleManagementAddress != address(0), \"COM: Dia chi RM khong hop le\");\r\n        roleManagement = IRoleManagementInterface(_roleManagementAddress);\r\n\r\n        require(_itemsManagementAddress != address(0), \"COM: Dia chi ItemsM khong hop le\");\r\n        itemsManagement = IItemsManagementInterface(_itemsManagementAddress);\r\n\r\n        require(_companyTreasuryManagerAddress != address(0), \"COM: Dia chi CTM khong hop le\");\r\n        companyTreasuryManager = ICompanyTreasuryManagerInterface(_companyTreasuryManagerAddress);\r\n\r\n        nextOrderId = 1;\r\n    }\r\n\r\n    // --- SETTERS (Owner only) ---\r\n    function setStoreInventoryManagementAddress(address _simAddress) external onlyOwner {\r\n        require(_simAddress != address(0), \"COM: Dia chi SIM khong hop le\");\r\n        storeInventoryManagement = IStoreInventoryManagementInterface(_simAddress);\r\n        emit StoreInventoryManagementAddressSet(_simAddress);\r\n    }\r\n\r\n    function setWarehouseInventoryManagementAddress(address _wimAddress) external onlyOwner {\r\n        require(_wimAddress != address(0), \"COM: Dia chi WIM khong hop le\");\r\n        warehouseInventoryManagement = IWarehouseInventoryManagementInterface(_wimAddress);\r\n        emit WarehouseInventoryManagementAddressSet(_wimAddress);\r\n    }\r\n\r\n    // --- MODIFIERS ---\r\n    modifier onlyOrderCustomer(uint256 _orderId) {\r\n        Order storage currentOrder = orders[_orderId];\r\n        require(currentOrder.orderId != 0, \"COM: Don hang khong ton tai\");\r\n        require(currentOrder.customerAddress == msg.sender, \"COM: Nguoi goi khong phai la khach hang cua don hang\");\r\n        _;\r\n    }\r\n\r\n    modifier onlyStoreManagerForOrder(uint256 _orderId) {\r\n        Order storage currentOrder = orders[_orderId];\r\n        require(currentOrder.orderId != 0, \"COM: Don hang khong ton tai\");\r\n        address storeAddr = currentOrder.storeAddress;\r\n        require(storeAddr != address(0), \"COM: Don hang khong co cua hang duoc gan\");\r\n\r\n        // S dng PhysicalLocationInfo t Interfaces.sol (forward-declared)\r\n        PhysicalLocationInfo memory storeInfo = itemsManagement.getStoreInfo(storeAddr);\r\n        require(storeInfo.manager == msg.sender, \"COM: Nguoi goi khong phai quan ly cua hang cua don hang\");\r\n\r\n        bytes32 smRole = roleManagement.STORE_MANAGER_ROLE();\r\n        require(roleManagement.hasRole(smRole, msg.sender), \"COM: Nguoi goi thieu vai tro QUAN_LY_CH\");\r\n        _;\r\n    }\r\n\r\n    // --- CORE ORDER FUNCTIONS ---\r\n    function placeOrder(\r\n        OrderItemInput[] calldata _orderItemsInput,\r\n        address _storeAddress\r\n    ) external payable nonReentrant {\r\n        require(address(storeInventoryManagement) != address(0), \"COM: Dia chi SIM chua duoc dat\");\r\n        require(_storeAddress != address(0), \"COM: Dia chi cua hang khong hop le\");\r\n        require(_orderItemsInput.length > 0, \"COM: Don hang phai co it nhat mot mat hang\");\r\n\r\n        // Kim tra ca hng hp l (gi getStoreInfo  m bo n tn ti v l ca hng)\r\n        PhysicalLocationInfo memory storeInfo = itemsManagement.getStoreInfo(_storeAddress);\r\n        require(storeInfo.exists, \"COM: Cua hang khong ton tai\"); // getStoreInfo s revert nu khng phi ca hng\r\n\r\n        uint256 currentOrderId = nextOrderId++;\r\n        Order storage newOrder = orders[currentOrderId];\r\n        newOrder.orderId = currentOrderId;\r\n        newOrder.customerAddress = msg.sender;\r\n        newOrder.storeAddress = _storeAddress;\r\n        newOrder.status = OrderStatus.Placed; // Trng thi ban u\r\n        newOrder.creationTimestamp = block.timestamp;\r\n        newOrder.lastUpdateTimestamp = block.timestamp;\r\n\r\n        uint256 calculatedTotalAmount = 0;\r\n        for (uint i = 0; i < _orderItemsInput.length; i++) {\r\n            OrderItemInput calldata itemInput = _orderItemsInput[i];\r\n            require(itemInput.quantity > 0, \"COM: So luong mat hang phai la so duong\");\r\n\r\n            (uint256 retailPrice, bool priceExists) = itemsManagement.getItemRetailPriceAtStore(itemInput.itemId, _storeAddress);\r\n            require(priceExists && retailPrice > 0, \"COM: Gia mat hang khong hop le tai cua hang\");\r\n\r\n            newOrder.items.push(OrderItem({\r\n                itemId: itemInput.itemId,\r\n                quantity: itemInput.quantity,\r\n                unitPrice: retailPrice,\r\n                status: OrderItemStatus.PendingStoreProcessing // Trng thi ban u ca mt hng\r\n            }));\r\n            calculatedTotalAmount += retailPrice * itemInput.quantity;\r\n        }\r\n\r\n        require(msg.value == calculatedTotalAmount, \"COM: So tien thanh toan khong chinh xac\");\r\n        newOrder.totalAmountPaid = calculatedTotalAmount; // Tin c gi bi COM\r\n\r\n        customerOrderIds[msg.sender].push(currentOrderId);\r\n        storeAssignedOrderIds[_storeAddress].push(currentOrderId);\r\n\r\n        emit OrderPlaced(currentOrderId, msg.sender, _storeAddress, calculatedTotalAmount);\r\n        emit OrderOverallStatusUpdated(currentOrderId, newOrder.status, block.timestamp);\r\n    }\r\n\r\n    function storeUpdateOrderItemStatus(uint256 _orderId, uint256 _itemIndex, OrderItemStatus _newStatus)\r\n        external\r\n        onlyStoreManagerForOrder(_orderId)\r\n        nonReentrant\r\n    {\r\n        Order storage currentOrder = orders[_orderId];\r\n        require(currentOrder.status == OrderStatus.Placed || currentOrder.status == OrderStatus.ProcessingByStore,\r\n                \"COM: Trang thai don hang khong cho phep cua hang cap nhat chi tiet\");\r\n        require(_itemIndex < currentOrder.items.length, \"COM: Chi muc mat hang khong hop le\");\r\n\r\n        OrderItem storage item = currentOrder.items[_itemIndex];\r\n        // Ch cho php cp nht sang cc trng thi hp l do ca hng qun l\r\n        require(\r\n            _newStatus == OrderItemStatus.StoreStockAvailable ||\r\n            _newStatus == OrderItemStatus.StoreNeedsRestock ||\r\n            _newStatus == OrderItemStatus.ReadyForDelivery,\r\n            \"COM: Trang thai cap nhat cho mat hang khong hop le\"\r\n        );\r\n\r\n        item.status = _newStatus;\r\n        currentOrder.lastUpdateTimestamp = block.timestamp;\r\n        emit OrderItemStatusUpdatedByStore(_orderId, _itemIndex, item.itemId, _newStatus, msg.sender);\r\n\r\n        // T ng chuyn trng thi n hng sang ProcessingByStore nu y l cp nht u tin\r\n        if (currentOrder.status == OrderStatus.Placed) {\r\n            currentOrder.status = OrderStatus.ProcessingByStore;\r\n            emit OrderOverallStatusUpdated(_orderId, currentOrder.status, block.timestamp);\r\n        }\r\n    }\r\n\r\n    function storeConfirmAllItemsReadyForDelivery(uint256 _orderId)\r\n        external\r\n        onlyStoreManagerForOrder(_orderId)\r\n        nonReentrant\r\n    {\r\n        Order storage currentOrder = orders[_orderId];\r\n        require(currentOrder.status == OrderStatus.ProcessingByStore, \"COM: Don hang chua o trang thai dang xu ly boi cua hang\");\r\n\r\n        for (uint i = 0; i < currentOrder.items.length; i++) {\r\n            require(currentOrder.items[i].status == OrderItemStatus.ReadyForDelivery, \"COM: Chua du tat ca mat hang trong don san sang de giao\");\r\n        }\r\n\r\n        currentOrder.status = OrderStatus.AllItemsReadyForDelivery;\r\n        currentOrder.lastUpdateTimestamp = block.timestamp;\r\n        emit OrderReadyForDelivery(_orderId, currentOrder.storeAddress, msg.sender);\r\n        emit OrderOverallStatusUpdated(_orderId, currentOrder.status, block.timestamp);\r\n    }\r\n\r\n    function storeConfirmDeliveryToCustomer(uint256 _orderId)\r\n        external\r\n        onlyStoreManagerForOrder(_orderId)\r\n        nonReentrant\r\n    {\r\n        Order storage currentOrder = orders[_orderId];\r\n        require(currentOrder.status == OrderStatus.AllItemsReadyForDelivery, \"COM: Don hang chua san sang de giao\");\r\n        require(address(storeInventoryManagement) != address(0), \"COM: Dia chi SIM chua duoc dat\");\r\n\r\n        for (uint i = 0; i < currentOrder.items.length; i++) {\r\n            OrderItem storage item = currentOrder.items[i];\r\n            // Ch tr tn kho nu mt hng thc s sn sng\r\n            require(item.status == OrderItemStatus.ReadyForDelivery, \"COM: Mot mat hang trong don chua san sang de giao\");\r\n            storeInventoryManagement.deductStockForCustomerSale(\r\n                currentOrder.storeAddress,\r\n                item.itemId,\r\n                item.quantity,\r\n                _orderId\r\n            );\r\n            item.status = OrderItemStatus.DeliveredToCustomer; // Cp nht trng thi mt hng\r\n        }\r\n\r\n        currentOrder.status = OrderStatus.DeliveryConfirmedByStore;\r\n        currentOrder.lastUpdateTimestamp = block.timestamp;\r\n        emit OrderDeliveryConfirmedByStore(_orderId, currentOrder.storeAddress, msg.sender);\r\n        emit OrderOverallStatusUpdated(_orderId, currentOrder.status, block.timestamp);\r\n    }\r\n\r\n    function customerConfirmReceipt(uint256 _orderId)\r\n        external\r\n        onlyOrderCustomer(_orderId)\r\n        nonReentrant\r\n    {\r\n        Order storage currentOrder = orders[_orderId];\r\n        require(currentOrder.status == OrderStatus.DeliveryConfirmedByStore, \"COM: Cua hang chua xac nhan giao hang\");\r\n        require(!currentOrder.fundsReleasedToCompany, \"COM: Tien da duoc giai ngan cho cong ty\");\r\n\r\n        currentOrder.status = OrderStatus.Completed;\r\n        currentOrder.lastUpdateTimestamp = block.timestamp;\r\n        currentOrder.fundsReleasedToCompany = true; // nh du tin  c x l\r\n\r\n        // Chuyn tin t COM sang CompanyTreasuryManager\r\n        (bool success, ) = payable(address(companyTreasuryManager)).call{value: currentOrder.totalAmountPaid}(\"\");\r\n        require(success, \"COM: Giai ngan tien cho ngan quy cong ty that bai\");\r\n\r\n        emit OrderCompletedByCustomer(_orderId, msg.sender);\r\n        emit FundsReleasedToCompanyTreasury(_orderId, currentOrder.totalAmountPaid, address(companyTreasuryManager));\r\n        emit OrderOverallStatusUpdated(_orderId, currentOrder.status, block.timestamp);\r\n    }\r\n\r\n\r\n    // --- CANCELLATION AND RETURN FUNCTIONS ---\r\n\r\n    function _internalCancelOrderAndRefundToCustomer(\r\n        uint256 _orderId,\r\n        address _canceller,\r\n        OrderStatus _newStatus,\r\n        string memory _reason,\r\n        uint256 _refundPercentage // 0-100\r\n    ) internal {\r\n        Order storage currentOrder = orders[_orderId];\r\n        require(!currentOrder.fundsReleasedToCompany, \"COM: Khong the huy/hoan tien, tien da chuyen cho cong ty\");\r\n\r\n        currentOrder.status = _newStatus;\r\n        currentOrder.lastUpdateTimestamp = block.timestamp;\r\n\r\n        uint256 amountToRefund = 0;\r\n        if (_refundPercentage > 0 && currentOrder.totalAmountPaid > 0) {\r\n            amountToRefund = (currentOrder.totalAmountPaid * _refundPercentage) / 100;\r\n            if (amountToRefund > 0) {\r\n                // Hon tin t COM (ni ang gi tin)\r\n                (bool success, ) = payable(currentOrder.customerAddress).call{value: amountToRefund}(\"\");\r\n                // Nu tht bi, revert  m bo tnh nht qun.\r\n                // Trong thc t, c th cn c ch x l li tinh vi hn.\r\n                require(success, \"COM: Hoan tien cho khach that bai khi huy don, viec huy bi hoan tac\");\r\n            }\r\n        }\r\n        emit OrderCancelled(_orderId, _canceller, _newStatus, _reason, amountToRefund);\r\n        emit OrderOverallStatusUpdated(_orderId, currentOrder.status, block.timestamp);\r\n    }\r\n\r\n    function cancelOrderByStore(uint256 _orderId, string calldata _reason)\r\n        external\r\n        onlyStoreManagerForOrder(_orderId)\r\n        nonReentrant\r\n    {\r\n        Order storage currentOrder = orders[_orderId];\r\n        // Ca hng ch c th hy nu n hng ang ch x l hoc ang x l\r\n        require(currentOrder.status == OrderStatus.Placed || currentOrder.status == OrderStatus.ProcessingByStore,\r\n                \"COM: Trang thai don hang khong cho phep cua hang huy\");\r\n        _internalCancelOrderAndRefundToCustomer(_orderId, msg.sender, OrderStatus.CancelledByStore, _reason, 100); // Hon 100%\r\n    }\r\n\r\n    function customerCancelOrderBeforeDelivery(uint256 _orderId, string calldata _reason)\r\n        external\r\n        onlyOrderCustomer(_orderId)\r\n        nonReentrant\r\n    {\r\n        Order storage currentOrder = orders[_orderId];\r\n        // Khch hng c th hy nu n hng cha c ca hng xc nhn  giao\r\n        require(currentOrder.status < OrderStatus.DeliveryConfirmedByStore &&\r\n                currentOrder.status != OrderStatus.CancelledByStore && // Khng hy n  b ca hng hy\r\n                currentOrder.status != OrderStatus.CancelledByCustomer, // Khng hy n  t hy\r\n                \"COM: Trang thai don hang khong cho phep khach huy\");\r\n        _internalCancelOrderAndRefundToCustomer(_orderId, msg.sender, OrderStatus.CancelledByCustomer, _reason, 100); // Hon 100%\r\n    }\r\n\r\n    // Khch hng tr hng SAU KHI  nhn v n hng  HON THNH\r\n    function customerReturnOrderAfterReceipt(uint256 _orderId, address _returnToWarehouseAddress, string calldata _reason)\r\n        external\r\n        onlyOrderCustomer(_orderId)\r\n        nonReentrant\r\n    {\r\n        Order storage currentOrder = orders[_orderId];\r\n        require(currentOrder.status == OrderStatus.Completed, \"COM: Don hang chua hoan thanh de co the tra lai\");\r\n        require(address(warehouseInventoryManagement) != address(0), \"COM: Dia chi WIM cho viec tra hang chua duoc dat\");\r\n        require(_returnToWarehouseAddress != address(0), \"COM: Dia chi kho tra hang khong hop le\");\r\n\r\n\r\n        // 1. Thng bo cho WIM ghi nhn hng tr v\r\n        for (uint i = 0; i < currentOrder.items.length; i++) {\r\n            OrderItem memory item = currentOrder.items[i];\r\n            warehouseInventoryManagement.recordReturnedStockByCustomer(\r\n                _returnToWarehouseAddress,\r\n                item.itemId,\r\n                item.quantity,\r\n                _orderId\r\n            );\r\n        }\r\n\r\n        // 2. Cp nht trng thi n hng\r\n        currentOrder.status = OrderStatus.ReturnedByCustomer;\r\n        currentOrder.lastUpdateTimestamp = block.timestamp;\r\n        // currentOrder.fundsReleasedToCompany L TRUE  y v n hng  Completed trc \r\n\r\n        // 3. Yu cu CTM hon tin 90% cho khch t ngn qu cng ty\r\n        uint256 refundPercentage = 90; // V d: hon 90%\r\n        uint256 amountToRefundFromTreasury = (currentOrder.totalAmountPaid * refundPercentage) / 100;\r\n\r\n        if (amountToRefundFromTreasury > 0) {\r\n            companyTreasuryManager.refundCustomerOrderFromTreasury(\r\n                _orderId,\r\n                payable(currentOrder.customerAddress),\r\n                amountToRefundFromTreasury\r\n            );\r\n            // CTM s emit s kin CustomerRefundProcessedFromTreasury\r\n        }\r\n\r\n        emit OrderReturnProcessed(_orderId, msg.sender, _returnToWarehouseAddress, _reason);\r\n        emit OrderOverallStatusUpdated(_orderId, currentOrder.status, block.timestamp);\r\n    }\r\n\r\n\r\n    // --- VIEW FUNCTIONS ---\r\n    function getOrderDetails(uint256 _orderId) external view returns (Order memory) {\r\n        require(orders[_orderId].orderId != 0, \"COM: Don hang khong ton tai\");\r\n        return orders[_orderId];\r\n    }\r\n\r\n    function getOrderItems(uint256 _orderId) external view returns (OrderItem[] memory) {\r\n        require(orders[_orderId].orderId != 0, \"COM: Don hang khong ton tai\");\r\n        return orders[_orderId].items;\r\n    }\r\n\r\n    function getCustomerOrders(address _customer) external view returns (uint256[] memory) {\r\n        return customerOrderIds[_customer];\r\n    }\r\n\r\n    function getStoreAssignedOrders(address _store) external view returns (uint256[] memory) {\r\n        return storeAssignedOrderIds[_store];\r\n    }\r\n\r\n    // --- EMERGENCY/ADMIN FUNCTIONS ---\r\n    // Rt ton b Ether ang b kt trong contract ny v cho Owner (ch trong trng hp khn cp)\r\n    function emergencyWithdrawEther(address payable _to) external onlyOwner nonReentrant {\r\n        require(_to != address(0), \"COM: Nguoi nhan khong hop le\");\r\n        uint256 balance = address(this).balance;\r\n        if (balance > 0) {\r\n            (bool success, ) = _to.call{value: balance}(\"\");\r\n            require(success, \"COM: Rut tien khan cap that bai\");\r\n        }\r\n    }\r\n}",
  "sourcePath": "D:\\nhi\\Logtech\\New tech in Log\\dapp2\\SC\\contracts\\CustomerOrder.sol",
  "compiler": {
    "name": "solc",
    "version": "0.8.4+commit.c7e474f2.Emscripten.clang"
  },
  "schemaVersion": "3.4.16",
  "updatedAt": "2025-06-02T14:38:40.259Z",
  "devdoc": {
    "kind": "dev",
    "methods": {
      "owner()": {
        "details": "Returns the address of the current owner."
      },
      "renounceOwnership()": {
        "details": "Leaves the contract without owner. It will not be possible to call `onlyOwner` functions anymore. Can only be called by the current owner. NOTE: Renouncing ownership will leave the contract without an owner, thereby removing any functionality that is only available to the owner."
      },
      "transferOwnership(address)": {
        "details": "Transfers ownership of the contract to a new account (`newOwner`). Can only be called by the current owner."
      }
    },
    "version": 1
  },
  "userdoc": {
    "kind": "user",
    "methods": {},
    "version": 1
  }
}