{
  "contractName": "ItemsManagementCore",
  "abi": [
    {
      "inputs": [
        {
          "internalType": "address",
          "name": "_roleManagementExternalAddress",
          "type": "address"
        }
      ],
      "stateMutability": "nonpayable",
      "type": "constructor"
    },
    {
      "anonymous": false,
      "inputs": [
        {
          "indexed": true,
          "internalType": "string",
          "name": "itemId",
          "type": "string"
        },
        {
          "indexed": false,
          "internalType": "uint256",
          "name": "referencePriceCeiling",
          "type": "uint256"
        },
        {
          "indexed": true,
          "internalType": "address",
          "name": "finalApprover",
          "type": "address"
        }
      ],
      "name": "ItemApprovedByBoard",
      "type": "event"
    },
    {
      "anonymous": false,
      "inputs": [
        {
          "indexed": true,
          "internalType": "string",
          "name": "itemId",
          "type": "string"
        },
        {
          "indexed": false,
          "internalType": "string",
          "name": "name",
          "type": "string"
        },
        {
          "indexed": true,
          "internalType": "address",
          "name": "proposer",
          "type": "address"
        }
      ],
      "name": "ItemProposed",
      "type": "event"
    },
    {
      "anonymous": false,
      "inputs": [
        {
          "indexed": true,
          "internalType": "address",
          "name": "locationId",
          "type": "address"
        },
        {
          "indexed": true,
          "internalType": "address",
          "name": "finalApprover",
          "type": "address"
        }
      ],
      "name": "PhysicalLocationApprovedByBoard",
      "type": "event"
    },
    {
      "anonymous": false,
      "inputs": [
        {
          "indexed": true,
          "internalType": "address",
          "name": "locationId",
          "type": "address"
        },
        {
          "indexed": false,
          "internalType": "address",
          "name": "newManager",
          "type": "address"
        },
        {
          "indexed": true,
          "internalType": "address",
          "name": "byDirector",
          "type": "address"
        }
      ],
      "name": "PhysicalLocationManagerAssigned",
      "type": "event"
    },
    {
      "anonymous": false,
      "inputs": [
        {
          "indexed": true,
          "internalType": "address",
          "name": "locationId",
          "type": "address"
        },
        {
          "indexed": false,
          "internalType": "string",
          "name": "name",
          "type": "string"
        },
        {
          "indexed": false,
          "internalType": "string",
          "name": "locationType",
          "type": "string"
        },
        {
          "indexed": true,
          "internalType": "address",
          "name": "proposer",
          "type": "address"
        }
      ],
      "name": "PhysicalLocationProposed",
      "type": "event"
    },
    {
      "anonymous": false,
      "inputs": [
        {
          "indexed": true,
          "internalType": "bytes32",
          "name": "role",
          "type": "bytes32"
        },
        {
          "indexed": true,
          "internalType": "bytes32",
          "name": "previousAdminRole",
          "type": "bytes32"
        },
        {
          "indexed": true,
          "internalType": "bytes32",
          "name": "newAdminRole",
          "type": "bytes32"
        }
      ],
      "name": "RoleAdminChanged",
      "type": "event"
    },
    {
      "anonymous": false,
      "inputs": [
        {
          "indexed": true,
          "internalType": "bytes32",
          "name": "role",
          "type": "bytes32"
        },
        {
          "indexed": true,
          "internalType": "address",
          "name": "account",
          "type": "address"
        },
        {
          "indexed": true,
          "internalType": "address",
          "name": "sender",
          "type": "address"
        }
      ],
      "name": "RoleGranted",
      "type": "event"
    },
    {
      "anonymous": false,
      "inputs": [
        {
          "indexed": true,
          "internalType": "bytes32",
          "name": "role",
          "type": "bytes32"
        },
        {
          "indexed": true,
          "internalType": "address",
          "name": "account",
          "type": "address"
        },
        {
          "indexed": true,
          "internalType": "address",
          "name": "sender",
          "type": "address"
        }
      ],
      "name": "RoleRevoked",
      "type": "event"
    },
    {
      "anonymous": false,
      "inputs": [
        {
          "indexed": true,
          "internalType": "address",
          "name": "storeAddress",
          "type": "address"
        },
        {
          "indexed": true,
          "internalType": "address",
          "name": "designatedWarehouse",
          "type": "address"
        },
        {
          "indexed": true,
          "internalType": "address",
          "name": "byStoreDirector",
          "type": "address"
        }
      ],
      "name": "StoreDesignatedSourceWarehouseSet",
      "type": "event"
    },
    {
      "anonymous": false,
      "inputs": [
        {
          "indexed": true,
          "internalType": "address",
          "name": "supplierId",
          "type": "address"
        },
        {
          "indexed": true,
          "internalType": "address",
          "name": "finalApprover",
          "type": "address"
        }
      ],
      "name": "SupplierApprovedByBoard",
      "type": "event"
    },
    {
      "anonymous": false,
      "inputs": [
        {
          "indexed": true,
          "internalType": "address",
          "name": "supplierId",
          "type": "address"
        },
        {
          "indexed": false,
          "internalType": "string",
          "name": "name",
          "type": "string"
        },
        {
          "indexed": true,
          "internalType": "address",
          "name": "proposer",
          "type": "address"
        }
      ],
      "name": "SupplierProposed",
      "type": "event"
    },
    {
      "inputs": [],
      "name": "DEFAULT_ADMIN_ROLE",
      "outputs": [
        {
          "internalType": "bytes32",
          "name": "",
          "type": "bytes32"
        }
      ],
      "stateMutability": "view",
      "type": "function",
      "constant": true
    },
    {
      "inputs": [
        {
          "internalType": "bytes32",
          "name": "role",
          "type": "bytes32"
        }
      ],
      "name": "getRoleAdmin",
      "outputs": [
        {
          "internalType": "bytes32",
          "name": "",
          "type": "bytes32"
        }
      ],
      "stateMutability": "view",
      "type": "function",
      "constant": true
    },
    {
      "inputs": [
        {
          "internalType": "bytes32",
          "name": "role",
          "type": "bytes32"
        },
        {
          "internalType": "address",
          "name": "account",
          "type": "address"
        }
      ],
      "name": "grantRole",
      "outputs": [],
      "stateMutability": "nonpayable",
      "type": "function"
    },
    {
      "inputs": [
        {
          "internalType": "bytes32",
          "name": "role",
          "type": "bytes32"
        },
        {
          "internalType": "address",
          "name": "account",
          "type": "address"
        }
      ],
      "name": "hasRole",
      "outputs": [
        {
          "internalType": "bool",
          "name": "",
          "type": "bool"
        }
      ],
      "stateMutability": "view",
      "type": "function",
      "constant": true
    },
    {
      "inputs": [
        {
          "internalType": "uint256",
          "name": "",
          "type": "uint256"
        }
      ],
      "name": "itemIds",
      "outputs": [
        {
          "internalType": "string",
          "name": "",
          "type": "string"
        }
      ],
      "stateMutability": "view",
      "type": "function",
      "constant": true
    },
    {
      "inputs": [
        {
          "internalType": "string",
          "name": "",
          "type": "string"
        }
      ],
      "name": "items",
      "outputs": [
        {
          "internalType": "string",
          "name": "itemId",
          "type": "string"
        },
        {
          "internalType": "string",
          "name": "name",
          "type": "string"
        },
        {
          "internalType": "string",
          "name": "description",
          "type": "string"
        },
        {
          "internalType": "string",
          "name": "category",
          "type": "string"
        },
        {
          "internalType": "bool",
          "name": "exists",
          "type": "bool"
        },
        {
          "internalType": "bool",
          "name": "isApprovedByBoard",
          "type": "bool"
        },
        {
          "internalType": "address",
          "name": "proposer",
          "type": "address"
        },
        {
          "internalType": "uint256",
          "name": "referencePriceCeiling",
          "type": "uint256"
        }
      ],
      "stateMutability": "view",
      "type": "function",
      "constant": true
    },
    {
      "inputs": [
        {
          "internalType": "uint256",
          "name": "",
          "type": "uint256"
        }
      ],
      "name": "locationAddresses",
      "outputs": [
        {
          "internalType": "address",
          "name": "",
          "type": "address"
        }
      ],
      "stateMutability": "view",
      "type": "function",
      "constant": true
    },
    {
      "inputs": [
        {
          "internalType": "address",
          "name": "",
          "type": "address"
        }
      ],
      "name": "physicalLocations",
      "outputs": [
        {
          "internalType": "address",
          "name": "locationId",
          "type": "address"
        },
        {
          "internalType": "string",
          "name": "name",
          "type": "string"
        },
        {
          "internalType": "string",
          "name": "locationType",
          "type": "string"
        },
        {
          "internalType": "address",
          "name": "manager",
          "type": "address"
        },
        {
          "internalType": "bool",
          "name": "exists",
          "type": "bool"
        },
        {
          "internalType": "bool",
          "name": "isApprovedByBoard",
          "type": "bool"
        },
        {
          "internalType": "address",
          "name": "designatedSourceWarehouseAddress",
          "type": "address"
        }
      ],
      "stateMutability": "view",
      "type": "function",
      "constant": true
    },
    {
      "inputs": [
        {
          "internalType": "bytes32",
          "name": "role",
          "type": "bytes32"
        },
        {
          "internalType": "address",
          "name": "account",
          "type": "address"
        }
      ],
      "name": "renounceRole",
      "outputs": [],
      "stateMutability": "nonpayable",
      "type": "function"
    },
    {
      "inputs": [
        {
          "internalType": "bytes32",
          "name": "role",
          "type": "bytes32"
        },
        {
          "internalType": "address",
          "name": "account",
          "type": "address"
        }
      ],
      "name": "revokeRole",
      "outputs": [],
      "stateMutability": "nonpayable",
      "type": "function"
    },
    {
      "inputs": [],
      "name": "roleManagementExternal",
      "outputs": [
        {
          "internalType": "contract IRoleManagement",
          "name": "",
          "type": "address"
        }
      ],
      "stateMutability": "view",
      "type": "function",
      "constant": true
    },
    {
      "inputs": [
        {
          "internalType": "uint256",
          "name": "",
          "type": "uint256"
        }
      ],
      "name": "supplierAddresses",
      "outputs": [
        {
          "internalType": "address",
          "name": "",
          "type": "address"
        }
      ],
      "stateMutability": "view",
      "type": "function",
      "constant": true
    },
    {
      "inputs": [
        {
          "internalType": "address",
          "name": "",
          "type": "address"
        }
      ],
      "name": "suppliers",
      "outputs": [
        {
          "internalType": "address",
          "name": "supplierId",
          "type": "address"
        },
        {
          "internalType": "string",
          "name": "name",
          "type": "string"
        },
        {
          "internalType": "bool",
          "name": "isApprovedByBoard",
          "type": "bool"
        },
        {
          "internalType": "bool",
          "name": "exists",
          "type": "bool"
        }
      ],
      "stateMutability": "view",
      "type": "function",
      "constant": true
    },
    {
      "inputs": [
        {
          "internalType": "bytes4",
          "name": "interfaceId",
          "type": "bytes4"
        }
      ],
      "name": "supportsInterface",
      "outputs": [
        {
          "internalType": "bool",
          "name": "",
          "type": "bool"
        }
      ],
      "stateMutability": "view",
      "type": "function",
      "constant": true
    },
    {
      "inputs": [
        {
          "internalType": "string",
          "name": "_itemId",
          "type": "string"
        },
        {
          "internalType": "string",
          "name": "_name",
          "type": "string"
        },
        {
          "internalType": "string",
          "name": "_description",
          "type": "string"
        },
        {
          "internalType": "string",
          "name": "_category",
          "type": "string"
        }
      ],
      "name": "proposeNewItem",
      "outputs": [],
      "stateMutability": "nonpayable",
      "type": "function"
    },
    {
      "inputs": [
        {
          "internalType": "string",
          "name": "_itemId",
          "type": "string"
        },
        {
          "internalType": "uint256",
          "name": "_referencePriceCeiling",
          "type": "uint256"
        },
        {
          "internalType": "address[]",
          "name": "_approvers",
          "type": "address[]"
        }
      ],
      "name": "approveProposedItem",
      "outputs": [],
      "stateMutability": "nonpayable",
      "type": "function"
    },
    {
      "inputs": [
        {
          "internalType": "address",
          "name": "_locationId",
          "type": "address"
        },
        {
          "internalType": "string",
          "name": "_name",
          "type": "string"
        },
        {
          "internalType": "string",
          "name": "_locationType",
          "type": "string"
        }
      ],
      "name": "proposeNewPhysicalLocation",
      "outputs": [],
      "stateMutability": "nonpayable",
      "type": "function"
    },
    {
      "inputs": [
        {
          "internalType": "address",
          "name": "_locationId",
          "type": "address"
        },
        {
          "internalType": "address[]",
          "name": "_approvers",
          "type": "address[]"
        }
      ],
      "name": "approveProposedPhysicalLocation",
      "outputs": [],
      "stateMutability": "nonpayable",
      "type": "function"
    },
    {
      "inputs": [
        {
          "internalType": "address",
          "name": "_locationId",
          "type": "address"
        },
        {
          "internalType": "address",
          "name": "_managerId",
          "type": "address"
        }
      ],
      "name": "assignManagerToLocation",
      "outputs": [],
      "stateMutability": "nonpayable",
      "type": "function"
    },
    {
      "inputs": [
        {
          "internalType": "address",
          "name": "_storeAddress",
          "type": "address"
        },
        {
          "internalType": "address",
          "name": "_warehouseAddress",
          "type": "address"
        }
      ],
      "name": "setDesignatedSourceWarehouseForStore",
      "outputs": [],
      "stateMutability": "nonpayable",
      "type": "function"
    },
    {
      "inputs": [
        {
          "internalType": "address",
          "name": "_supplierId",
          "type": "address"
        },
        {
          "internalType": "string",
          "name": "_name",
          "type": "string"
        }
      ],
      "name": "proposeNewSupplier",
      "outputs": [],
      "stateMutability": "nonpayable",
      "type": "function"
    },
    {
      "inputs": [
        {
          "internalType": "address",
          "name": "_supplierId",
          "type": "address"
        },
        {
          "internalType": "address[]",
          "name": "_approvers",
          "type": "address[]"
        }
      ],
      "name": "approveProposedSupplier",
      "outputs": [],
      "stateMutability": "nonpayable",
      "type": "function"
    },
    {
      "inputs": [
        {
          "internalType": "string",
          "name": "_itemId",
          "type": "string"
        }
      ],
      "name": "getItemInfo",
      "outputs": [
        {
          "components": [
            {
              "internalType": "string",
              "name": "itemId",
              "type": "string"
            },
            {
              "internalType": "string",
              "name": "name",
              "type": "string"
            },
            {
              "internalType": "string",
              "name": "description",
              "type": "string"
            },
            {
              "internalType": "string",
              "name": "category",
              "type": "string"
            },
            {
              "internalType": "bool",
              "name": "exists",
              "type": "bool"
            },
            {
              "internalType": "bool",
              "name": "isApprovedByBoard",
              "type": "bool"
            },
            {
              "internalType": "address",
              "name": "proposer",
              "type": "address"
            },
            {
              "internalType": "uint256",
              "name": "referencePriceCeiling",
              "type": "uint256"
            }
          ],
          "internalType": "struct ItemInfo",
          "name": "",
          "type": "tuple"
        }
      ],
      "stateMutability": "view",
      "type": "function",
      "constant": true
    },
    {
      "inputs": [
        {
          "internalType": "address",
          "name": "_locationId",
          "type": "address"
        }
      ],
      "name": "getPhysicalLocationInfo",
      "outputs": [
        {
          "components": [
            {
              "internalType": "address",
              "name": "locationId",
              "type": "address"
            },
            {
              "internalType": "string",
              "name": "name",
              "type": "string"
            },
            {
              "internalType": "string",
              "name": "locationType",
              "type": "string"
            },
            {
              "internalType": "address",
              "name": "manager",
              "type": "address"
            },
            {
              "internalType": "bool",
              "name": "exists",
              "type": "bool"
            },
            {
              "internalType": "bool",
              "name": "isApprovedByBoard",
              "type": "bool"
            },
            {
              "internalType": "address",
              "name": "designatedSourceWarehouseAddress",
              "type": "address"
            }
          ],
          "internalType": "struct PhysicalLocationInfo",
          "name": "",
          "type": "tuple"
        }
      ],
      "stateMutability": "view",
      "type": "function",
      "constant": true
    },
    {
      "inputs": [
        {
          "internalType": "address",
          "name": "_storeAddress",
          "type": "address"
        }
      ],
      "name": "getStoreInfo",
      "outputs": [
        {
          "components": [
            {
              "internalType": "address",
              "name": "locationId",
              "type": "address"
            },
            {
              "internalType": "string",
              "name": "name",
              "type": "string"
            },
            {
              "internalType": "string",
              "name": "locationType",
              "type": "string"
            },
            {
              "internalType": "address",
              "name": "manager",
              "type": "address"
            },
            {
              "internalType": "bool",
              "name": "exists",
              "type": "bool"
            },
            {
              "internalType": "bool",
              "name": "isApprovedByBoard",
              "type": "bool"
            },
            {
              "internalType": "address",
              "name": "designatedSourceWarehouseAddress",
              "type": "address"
            }
          ],
          "internalType": "struct PhysicalLocationInfo",
          "name": "",
          "type": "tuple"
        }
      ],
      "stateMutability": "view",
      "type": "function",
      "constant": true
    },
    {
      "inputs": [
        {
          "internalType": "address",
          "name": "_warehouseAddress",
          "type": "address"
        }
      ],
      "name": "getWarehouseInfo",
      "outputs": [
        {
          "components": [
            {
              "internalType": "address",
              "name": "locationId",
              "type": "address"
            },
            {
              "internalType": "string",
              "name": "name",
              "type": "string"
            },
            {
              "internalType": "string",
              "name": "locationType",
              "type": "string"
            },
            {
              "internalType": "address",
              "name": "manager",
              "type": "address"
            },
            {
              "internalType": "bool",
              "name": "exists",
              "type": "bool"
            },
            {
              "internalType": "bool",
              "name": "isApprovedByBoard",
              "type": "bool"
            },
            {
              "internalType": "address",
              "name": "designatedSourceWarehouseAddress",
              "type": "address"
            }
          ],
          "internalType": "struct PhysicalLocationInfo",
          "name": "",
          "type": "tuple"
        }
      ],
      "stateMutability": "view",
      "type": "function",
      "constant": true
    },
    {
      "inputs": [
        {
          "internalType": "address",
          "name": "_supplierId",
          "type": "address"
        }
      ],
      "name": "getSupplierInfo",
      "outputs": [
        {
          "components": [
            {
              "internalType": "address",
              "name": "supplierId",
              "type": "address"
            },
            {
              "internalType": "string",
              "name": "name",
              "type": "string"
            },
            {
              "internalType": "bool",
              "name": "isApprovedByBoard",
              "type": "bool"
            },
            {
              "internalType": "bool",
              "name": "exists",
              "type": "bool"
            }
          ],
          "internalType": "struct SupplierInfo",
          "name": "",
          "type": "tuple"
        }
      ],
      "stateMutability": "view",
      "type": "function",
      "constant": true
    },
    {
      "inputs": [],
      "name": "getAllItemIds",
      "outputs": [
        {
          "internalType": "string[]",
          "name": "",
          "type": "string[]"
        }
      ],
      "stateMutability": "view",
      "type": "function",
      "constant": true
    },
    {
      "inputs": [],
      "name": "getAllLocationAddresses",
      "outputs": [
        {
          "internalType": "address[]",
          "name": "",
          "type": "address[]"
        }
      ],
      "stateMutability": "view",
      "type": "function",
      "constant": true
    },
    {
      "inputs": [],
      "name": "getAllSupplierAddresses",
      "outputs": [
        {
          "internalType": "address[]",
          "name": "",
          "type": "address[]"
        }
      ],
      "stateMutability": "view",
      "type": "function",
      "constant": true
    }
  ],
  "bytecode": "0x60806040523480156200001157600080fd5b506040516200522638038062005226833981016040819052620000349162000180565b6001600160a01b038116620000a15760405162461bcd60e51b815260206004820152602960248201527f4974656d734d436f72653a204469612063686920524d204e676f6169206b686f6044820152686e6720686f70206c6560b81b606482015260840160405180910390fd5b600180546001600160a01b0319166001600160a01b038316179055620000c9600033620000d0565b50620001b0565b620000dc8282620000e0565b5050565b6000828152602081815260408083206001600160a01b038516845290915290205460ff16620000dc576000828152602081815260408083206001600160a01b03851684529091529020805460ff191660011790556200013c3390565b6001600160a01b0316816001600160a01b0316837f2f8788117e7eff1d82e926ec794901d17c78024a50270940304540a733656f0d60405160405180910390a45050565b60006020828403121562000192578081fd5b81516001600160a01b0381168114620001a9578182fd5b9392505050565b61506680620001c06000396000f3fe608060405234801561001057600080fd5b506004361061016a5760003560e01c806301ffc9a71461016f57806316dc15fe14610197578063248a9ca3146101ba5780632f2ff15d146101db578063329a5873146101f05780633315bd2a1461021057806336568abe146102365780633868c1ab146102495780634909b29b1461025c57806359435f041461028357806364534c4f146102a357806368f11f99146102b65780637160572b146102d6578063729dfe40146102e95780637643d731146102fe5780638a6067901461031e5780638f0474971461033157806391d148541461034457806399c4381d14610357578063a217fddf1461036c578063a336501214610374578063b3dc00fe14610387578063b4bf3c50146103a7578063c7bbd67e146103ba578063c87d25dd146103c2578063cc15744c146103d5578063d4711a0e146103e8578063d547741f146103fb578063e6a219431461040e578063e8b0201214610421575b600080fd5b61018261017d366004614685565b610434565b60405190151581526020015b60405180910390f35b6101aa6101a53660046144b7565b61046b565b60405161018e9493929190614a8a565b6101cd6101c8366004614633565b61052c565b60405190815260200161018e565b6101ee6101e9366004614663565b610541565b005b6102036101fe3660046144b7565b610563565b60405161018e9190614e2d565b61022361021e3660046144b7565b6107c5565b60405161018e9796959493929190614ac6565b6101ee610244366004614663565b610932565b6101ee610257366004614596565b6109b0565b61026f61026a36600461480f565b610e9d565b60405161018e989796959493929190614c4a565b6102966102913660046144b7565b61111b565b60405161018e9190614ebe565b6101ee6102b1366004614503565b611225565b6102c96102c43660046146ad565b6114be565b60405161018e9190614d6a565b6102036102e43660046144b7565b6117cc565b6102f1611a1e565b60405161018e9190614b71565b61031161030c366004614633565b611af7565b60405161018e9190614a76565b61031161032c366004614633565b611b21565b6101ee61033f3660046146ec565b611b31565b610182610352366004614663565b611fc9565b61035f611ff2565b60405161018e9190614b24565b6101cd600081565b6102036103823660046144b7565b612054565b61039a610395366004614633565b612200565b60405161018e9190614c37565b6101ee6103b5366004614503565b6122ac565b61035f612560565b6101ee6103d03660046144d1565b6125c0565b6101ee6103e3366004614553565b612b62565b6101ee6103f63660046147aa565b61301e565b6101ee610409366004614663565b61334b565b600154610311906001600160a01b031681565b6101ee61042f3660046144d1565b613368565b60006001600160e01b03198216637965db0b60e01b148061046557506301ffc9a760e01b6001600160e01b03198316145b92915050565b600460205260009081526040902080546001820180546001600160a01b03909216929161049790614f8e565b80601f01602080910402602001604051908101604052809291908181526020018280546104c390614f8e565b80156105105780601f106104e557610100808354040283529160200191610510565b820191906000526020600020905b8154815290600101906020018083116104f357829003601f168201915b5050506002909301549192505060ff8082169161010090041684565b60009081526020819052604090206001015490565b61054a8261052c565b61055481336139c0565b61055e8383613a24565b505050565b61056b6142c9565b6001600160a01b038083166000908152600360209081526040808320815160e08101909252805490941681526001840180549394919391928401916105af90614f8e565b80601f01602080910402602001604051908101604052809291908181526020018280546105db90614f8e565b80156106285780601f106105fd57610100808354040283529160200191610628565b820191906000526020600020905b81548152906001019060200180831161060b57829003601f168201915b5050505050815260200160028201805461064190614f8e565b80601f016020809104026020016040519081016040528092919081815260200182805461066d90614f8e565b80156106ba5780601f1061068f576101008083540402835291602001916106ba565b820191906000526020600020905b81548152906001019060200180831161069d57829003601f168201915b505050918352505060038201546001600160a01b03808216602084015260ff600160a01b8304811615156040850152600160a81b9092049091161515606083015260049092015490911660809182015281015190915080156107695750604051602001610726906149f6565b604051602081830303815290604052805190602001208160400151604051602001610751919061492a565b60405160208183030381529060405280519060200120145b6104655760405162461bcd60e51b815260206004820152602260248201527f4974656d734d436f72653a204b686f6e672070686169206c61206375612068616044820152616e6760f01b60648201526084015b60405180910390fd5b600360205260009081526040902080546001820180546001600160a01b0390921692916107f190614f8e565b80601f016020809104026020016040519081016040528092919081815260200182805461081d90614f8e565b801561086a5780601f1061083f5761010080835404028352916020019161086a565b820191906000526020600020905b81548152906001019060200180831161084d57829003601f168201915b50505050509080600201805461087f90614f8e565b80601f01602080910402602001604051908101604052809291908181526020018280546108ab90614f8e565b80156108f85780601f106108cd576101008083540402835291602001916108f8565b820191906000526020600020905b8154815290600101906020018083116108db57829003601f168201915b505050600384015460049094015492936001600160a01b038082169460ff600160a01b840481169550600160a81b90930490921692501687565b6001600160a01b03811633146109a25760405162461bcd60e51b815260206004820152602f60248201527f416363657373436f6e74726f6c3a2063616e206f6e6c792072656e6f756e636560448201526e103937b632b9903337b91039b2b63360891b60648201526084016107bc565b6109ac8282613aa8565b5050565b600154604080516305b11d3760e01b815290516001600160a01b03909216916391d148549183916305b11d3791600480820192602092909190829003018186803b1580156109fd57600080fd5b505afa158015610a11573d6000803e3d6000fd5b505050506040513d601f19601f82011682018060405250810190610a35919061464b565b336040518363ffffffff1660e01b8152600401610a53929190614bd2565b60206040518083038186803b158015610a6b57600080fd5b505afa158015610a7f573d6000803e3d6000fd5b505050506040513d601f19601f82011682018060405250810190610aa39190614613565b610abf5760405162461bcd60e51b81526004016107bc90614ccb565b6001600160a01b03851660009081526003602081905260409091200154600160a01b900460ff1615610b3e5760405162461bcd60e51b815260206004820152602260248201527f4974656d734d436f72653a20494420646961206469656d20646120746f6e2074604482015261616960f01b60648201526084016107bc565b6001600160a01b038516610ba65760405162461bcd60e51b815260206004820152602960248201527f4974656d734d436f72653a204469612063686920646961206469656d206b686f6044820152686e6720686f70206c6560b81b60648201526084016107bc565b60008282604051602001610bbb92919061491a565b604051602081830303815290604052805190602001209050604051602001610be2906149f6565b60405160208183030381529060405280519060200120811480610c285750604051602001610c0f906149e1565b6040516020818303038152906040528051906020012081145b610c715760405162461bcd60e51b81526020600482015260266024820152600080516020615011833981519152604482015265686f70206c6560d01b60648201526084016107bc565b6040518060e00160405280876001600160a01b0316815260200186868080601f016020809104026020016040519081016040528093929190818152602001838380828437600092019190915250505090825250604080516020601f87018190048102820181019092528581529181019190869086908190840183828082843760009201829052509385525050506020808301829052600160408085018290526060850184905260809094018390526001600160a01b038b811684526003835293909220845181546001600160a01b0319169416939093178355838101518051610d61938501929190910190614306565b5060408201518051610d7d916002840191602090910190614306565b506060820151600382018054608085015160a08601511515600160a81b0260ff60a81b19911515600160a01b026001600160a81b03199093166001600160a01b0395861617929092171617905560c09092015160049091018054919092166001600160a01b031991909116179055610df486613b0d565b610e4457600680546001810182556000919091527ff652222313e28459528d920b65115c16c04f3efc82aaedc97be59f3f377c0d3f0180546001600160a01b0319166001600160a01b0388161790555b336001600160a01b0316866001600160a01b03167f8ceaee252275277f7f06dcee470dc04ac7d5211d5c55802df06f3f64bda2025a87878787604051610e8d9493929190614c05565b60405180910390a3505050505050565b8051602081830181018051600282529282019190930120915280548190610ec390614f8e565b80601f0160208091040260200160405190810160405280929190818152602001828054610eef90614f8e565b8015610f3c5780601f10610f1157610100808354040283529160200191610f3c565b820191906000526020600020905b815481529060010190602001808311610f1f57829003601f168201915b505050505090806001018054610f5190614f8e565b80601f0160208091040260200160405190810160405280929190818152602001828054610f7d90614f8e565b8015610fca5780601f10610f9f57610100808354040283529160200191610fca565b820191906000526020600020905b815481529060010190602001808311610fad57829003601f168201915b505050505090806002018054610fdf90614f8e565b80601f016020809104026020016040519081016040528092919081815260200182805461100b90614f8e565b80156110585780601f1061102d57610100808354040283529160200191611058565b820191906000526020600020905b81548152906001019060200180831161103b57829003601f168201915b50505050509080600301805461106d90614f8e565b80601f016020809104026020016040519081016040528092919081815260200182805461109990614f8e565b80156110e65780601f106110bb576101008083540402835291602001916110e6565b820191906000526020600020905b8154815290600101906020018083116110c957829003601f168201915b505050506004830154600590930154919260ff8082169361010083049091169250620100009091046001600160a01b03169088565b60408051608080820183526000808352606060208085018290528486018390529084018290526001600160a01b0386811683526004825291859020855193840190955284549091168252600184018054939492939184019161117c90614f8e565b80601f01602080910402602001604051908101604052809291908181526020018280546111a890614f8e565b80156111f55780601f106111ca576101008083540402835291602001916111f5565b820191906000526020600020905b8154815290600101906020018083116111d857829003601f168201915b50505091835250506002919091015460ff8082161515602084015261010090910416151560409091015292915050565b600154604080516305b11d3760e01b815290516001600160a01b03909216916391d148549183916305b11d3791600480820192602092909190829003018186803b15801561127257600080fd5b505afa158015611286573d6000803e3d6000fd5b505050506040513d601f19601f820116820180604052508101906112aa919061464b565b336040518363ffffffff1660e01b81526004016112c8929190614bd2565b60206040518083038186803b1580156112e057600080fd5b505afa1580156112f4573d6000803e3d6000fd5b505050506040513d601f19601f820116820180604052508101906113189190614613565b6113345760405162461bcd60e51b81526004016107bc90614ccb565b6001600160a01b03831660009081526004602052604090206002810154610100900460ff166113b85760405162461bcd60e51b815260206004820152602a60248201527f4974656d734d436f72653a204e4343206b686f6e6720746f6e20746169206465604482015269081c1a1948191d5e595d60b21b60648201526084016107bc565b600281015460ff161561141b5760405162461bcd60e51b815260206004820152602560248201527f4974656d734d436f72653a204e43432064612064756f632070686520647579656044820152647420726f6960d81b60648201526084016107bc565b611457838380806020026020016040519081016040528093929190818152602001838360200280828437600092019190915250613b8592505050565b6114735760405162461bcd60e51b81526004016107bc90614d1a565b60028101805460ff1916600117905560405133906001600160a01b038616907f195b79488d6b5260c5f4f4b0ab9f40b95cdd5e71279d52b1f96ff831270b161290600090a350505050565b6115136040518061010001604052806060815260200160608152602001606081526020016060815260200160001515815260200160001515815260200160006001600160a01b03168152602001600081525090565b6002838360405161152592919061491a565b90815260200160405180910390206040518061010001604052908160008201805461154f90614f8e565b80601f016020809104026020016040519081016040528092919081815260200182805461157b90614f8e565b80156115c85780601f1061159d576101008083540402835291602001916115c8565b820191906000526020600020905b8154815290600101906020018083116115ab57829003601f168201915b505050505081526020016001820180546115e190614f8e565b80601f016020809104026020016040519081016040528092919081815260200182805461160d90614f8e565b801561165a5780601f1061162f5761010080835404028352916020019161165a565b820191906000526020600020905b81548152906001019060200180831161163d57829003601f168201915b5050505050815260200160028201805461167390614f8e565b80601f016020809104026020016040519081016040528092919081815260200182805461169f90614f8e565b80156116ec5780601f106116c1576101008083540402835291602001916116ec565b820191906000526020600020905b8154815290600101906020018083116116cf57829003601f168201915b5050505050815260200160038201805461170590614f8e565b80601f016020809104026020016040519081016040528092919081815260200182805461173190614f8e565b801561177e5780601f106117535761010080835404028352916020019161177e565b820191906000526020600020905b81548152906001019060200180831161176157829003601f168201915b5050509183525050600482015460ff80821615156020840152610100820416151560408301526201000090046001600160a01b03166060820152600590910154608090910152905092915050565b6117d46142c9565b6001600160a01b038083166000908152600360209081526040808320815160e081019092528054909416815260018401805493949193919284019161181890614f8e565b80601f016020809104026020016040519081016040528092919081815260200182805461184490614f8e565b80156118915780601f1061186657610100808354040283529160200191611891565b820191906000526020600020905b81548152906001019060200180831161187457829003601f168201915b505050505081526020016002820180546118aa90614f8e565b80601f01602080910402602001604051908101604052809291908181526020018280546118d690614f8e565b80156119235780601f106118f857610100808354040283529160200191611923565b820191906000526020600020905b81548152906001019060200180831161190657829003601f168201915b505050918352505060038201546001600160a01b03808216602084015260ff600160a01b8304811615156040850152600160a81b9092049091161515606083015260049092015490911660809182015281015190915080156119d2575060405160200161198f906149e1565b6040516020818303038152906040528051906020012081604001516040516020016119ba919061492a565b60405160208183030381529060405280519060200120145b6104655760405162461bcd60e51b815260206004820152601d60248201527f4974656d734d436f72653a204b686f6e672070686169206c61206b686f00000060448201526064016107bc565b60606005805480602002602001604051908101604052809291908181526020016000905b82821015611aee578382906000526020600020018054611a6190614f8e565b80601f0160208091040260200160405190810160405280929190818152602001828054611a8d90614f8e565b8015611ada5780601f10611aaf57610100808354040283529160200191611ada565b820191906000526020600020905b815481529060010190602001808311611abd57829003601f168201915b505050505081526020019060010190611a42565b50505050905090565b60078181548110611b0757600080fd5b6000918252602090912001546001600160a01b0316905081565b60068181548110611b0757600080fd5b600154604080516305b11d3760e01b815290516001600160a01b03909216916391d148549183916305b11d3791600480820192602092909190829003018186803b158015611b7e57600080fd5b505afa158015611b92573d6000803e3d6000fd5b505050506040513d601f19601f82011682018060405250810190611bb6919061464b565b336040518363ffffffff1660e01b8152600401611bd4929190614bd2565b60206040518083038186803b158015611bec57600080fd5b505afa158015611c00573d6000803e3d6000fd5b505050506040513d601f19601f82011682018060405250810190611c249190614613565b611c405760405162461bcd60e51b81526004016107bc90614ccb565b60028888604051611c5292919061491a565b9081526040519081900360200190206004015460ff1615611cc05760405162461bcd60e51b815260206004820152602260248201527f4974656d734d436f72653a204944206d61742068616e6720646120746f6e2074604482015261616960f01b60648201526084016107bc565b86611d1d5760405162461bcd60e51b815260206004820152602760248201527f4974656d734d436f72653a204944206d61742068616e67206b686f6e672064756044820152666f6320726f6e6760c81b60648201526084016107bc565b60405180610100016040528089898080601f016020809104026020016040519081016040528093929190818152602001838380828437600092019190915250505090825250604080516020601f8a0181900481028201810190925288815291810191908990899081908401838280828437600092019190915250505090825250604080516020601f880181900481028201810190925286815291810191908790879081908401838280828437600092019190915250505090825250604080516020601f860181900481028201810190925284815291810191908590859081908401838280828437600092018290525093855250506001602084015250604080830182905233606084015260809092015251600290611e3e908b908b9061491a565b90815260200160405180910390206000820151816000019080519060200190611e68929190614306565b506020828101518051611e819260018501920190614306565b5060408201518051611e9d916002840191602090910190614306565b5060608201518051611eb9916003840191602090910190614306565b50608082015160048201805460a085015160c08601516001600160a01b0316620100000262010000600160b01b03199115156101000261ff00199515159590951661ffff1990931692909217939093179290921691909117905560e090910151600590910155611f298888613fbe565b611f6c5760058054600181018255600091909152611f6a907f036b6384b5eca791c62761152d0c79bb0604c104a5fb6f4eb0703f3154bb3db001898961438a565b505b6040513390611f7e908a908a9061491a565b60405180910390207f3ebb6331b48c504ca4922a2d92220f830467ca090a4b9fcbe10e1a6f3e97f5898888604051611fb7929190614be9565b60405180910390a35050505050505050565b6000918252602082815260408084206001600160a01b0393909316845291905290205460ff1690565b6060600680548060200260200160405190810160405280929190818152602001828054801561204a57602002820191906000526020600020905b81546001600160a01b0316815260019091019060200180831161202c575b5050505050905090565b61205c6142c9565b6001600160a01b03808316600090815260036020908152604091829020825160e08101909352805490931682526001830180549293929184019161209f90614f8e565b80601f01602080910402602001604051908101604052809291908181526020018280546120cb90614f8e565b80156121185780601f106120ed57610100808354040283529160200191612118565b820191906000526020600020905b8154815290600101906020018083116120fb57829003601f168201915b5050505050815260200160028201805461213190614f8e565b80601f016020809104026020016040519081016040528092919081815260200182805461215d90614f8e565b80156121aa5780601f1061217f576101008083540402835291602001916121aa565b820191906000526020600020905b81548152906001019060200180831161218d57829003601f168201915b505050918352505060038201546001600160a01b03808216602084015260ff600160a01b8304811615156040850152600160a81b9092049091161515606083015260049092015490911660809091015292915050565b6005818154811061221057600080fd5b90600052602060002001600091509050805461222b90614f8e565b80601f016020809104026020016040519081016040528092919081815260200182805461225790614f8e565b80156122a45780601f10612279576101008083540402835291602001916122a4565b820191906000526020600020905b81548152906001019060200180831161228757829003601f168201915b505050505081565b600154604080516305b11d3760e01b815290516001600160a01b03909216916391d148549183916305b11d3791600480820192602092909190829003018186803b1580156122f957600080fd5b505afa15801561230d573d6000803e3d6000fd5b505050506040513d601f19601f82011682018060405250810190612331919061464b565b336040518363ffffffff1660e01b815260040161234f929190614bd2565b60206040518083038186803b15801561236757600080fd5b505afa15801561237b573d6000803e3d6000fd5b505050506040513d601f19601f8201168201806040525081019061239f9190614613565b6123bb5760405162461bcd60e51b81526004016107bc90614ccb565b6001600160a01b038316600090815260036020819052604090912090810154600160a01b900460ff166124485760405162461bcd60e51b815260206004820152602f60248201527f4974656d734d436f72653a20446961206469656d206b686f6e6720746f6e207460448201526e185a481919481c1a1948191d5e595d608a1b60648201526084016107bc565b6003810154600160a81b900460ff16156124b75760405162461bcd60e51b815260206004820152602a60248201527f4974656d734d436f72653a20446961206469656d2064612064756f632070686560448201526920647579657420726f6960b01b60648201526084016107bc565b6124f3838380806020026020016040519081016040528093929190818152602001838360200280828437600092019190915250613b8592505050565b61250f5760405162461bcd60e51b81526004016107bc90614d1a565b60038101805460ff60a81b1916600160a81b17905560405133906001600160a01b038616907f1fc7308c894d3036b33349c4b3d7d4b43c3927ac1286bc97a98c3c388fa97c7b90600090a350505050565b6060600780548060200260200160405190810160405280929190818152602001828054801561204a576020028201919060005260206000209081546001600160a01b0316815260019091019060200180831161202c575050505050905090565b600154604080516315c37cb960e31b815290516000926001600160a01b03169163ae1be5c8916004808301926020929190829003018186803b15801561260557600080fd5b505afa158015612619573d6000803e3d6000fd5b505050506040513d601f19601f8201168201806040525081019061263d919061464b565b600154604051632474521560e21b81529192506001600160a01b0316906391d14854906126709084903390600401614bd2565b60206040518083038186803b15801561268857600080fd5b505afa15801561269c573d6000803e3d6000fd5b505050506040513d601f19601f820116820180604052508101906126c09190614613565b61272f5760405162461bcd60e51b815260206004820152603a60248201527f4974656d734d436f72653a204e67756f6920676f69207468696575207661692060448201527974726f204749414d5f444f435f43482028524d204e676f61692960301b60648201526084016107bc565b6001600160a01b038316600090815260036020819052604090912090810154600160a01b900460ff16801561276f57506003810154600160a81b900460ff165b80156127c75750604051602001612785906149f6565b60405160208183030381529060405280519060200120816002016040516020016127af9190614946565b60405160208183030381529060405280519060200120145b61285a5760405162461bcd60e51b815260206004820152605860248201527f4974656d734d436f72653a204375612068616e67206b686f6e6720746f6e207460448201527f61692c20636875612064756f6320424448207068652064757965742c20686f6160648201527763206b686f6e672070686169206c61206375612068616e6760401b608482015260a4016107bc565b6001600160a01b03831615612b0d576001600160a01b038084166000908152600360209081526040808320815160e08101909252805490941681526001840180549394919391928401916128ad90614f8e565b80601f01602080910402602001604051908101604052809291908181526020018280546128d990614f8e565b80156129265780601f106128fb57610100808354040283529160200191612926565b820191906000526020600020905b81548152906001019060200180831161290957829003601f168201915b5050505050815260200160028201805461293f90614f8e565b80601f016020809104026020016040519081016040528092919081815260200182805461296b90614f8e565b80156129b85780601f1061298d576101008083540402835291602001916129b8565b820191906000526020600020905b81548152906001019060200180831161299b57829003601f168201915b505050918352505060038201546001600160a01b03808216602084015260ff600160a01b8304811615156040850152600160a81b909204909116151560608301526004909201549091166080918201528101519091508015612a1b57508060a001515b8015612a745750604051602001612a31906149e1565b604051602081830303815290604052805190602001208160400151604051602001612a5c919061492a565b60405160208183030381529060405280519060200120145b612b0b5760405162461bcd60e51b815260206004820152605c60248201527f4974656d734d436f72653a204b686f206e67756f6e206368692064696e68206b60448201527f686f6e6720686f70206c652c20636875612064756f632042444820706865206460648201527b757965742c20686f6163206b686f6e672070686169206c61206b686f60201b608482015260a4016107bc565b505b6004810180546001600160a01b0319166001600160a01b0385811691821790925560405133928716907fdcc10de64617efb0774a78e440bcf4b7061baac845df589d7e28abcc07498e2c90600090a450505050565b600154604080516305b11d3760e01b815290516001600160a01b03909216916391d148549183916305b11d3791600480820192602092909190829003018186803b158015612baf57600080fd5b505afa158015612bc3573d6000803e3d6000fd5b505050506040513d601f19601f82011682018060405250810190612be7919061464b565b336040518363ffffffff1660e01b8152600401612c05929190614bd2565b60206040518083038186803b158015612c1d57600080fd5b505afa158015612c31573d6000803e3d6000fd5b505050506040513d601f19601f82011682018060405250810190612c559190614613565b612c715760405162461bcd60e51b81526004016107bc90614ccb565b6001600160a01b038316600090815260046020526040902060020154610100900460ff1615612ce25760405162461bcd60e51b815260206004820152601d60248201527f4974656d734d436f72653a204944204e434320646120746f6e2074616900000060448201526064016107bc565b6001600160a01b038316612d445760405162461bcd60e51b8152602060048201526024808201527f4974656d734d436f72653a2044696120636869204e4343206b686f6e6720686f60448201526370206c6560e01b60648201526084016107bc565b600154604080516328a5423f60e21b815290516001600160a01b03909216916391d1485491839163a29508fc91600480820192602092909190829003018186803b158015612d9157600080fd5b505afa158015612da5573d6000803e3d6000fd5b505050506040513d601f19601f82011682018060405250810190612dc9919061464b565b856040518363ffffffff1660e01b8152600401612de7929190614bd2565b60206040518083038186803b158015612dff57600080fd5b505afa158015612e13573d6000803e3d6000fd5b505050506040513d601f19601f82011682018060405250810190612e379190614613565b612e9b5760405162461bcd60e51b815260206004820152602f60248201527f4974656d734d436f72653a204e4343206465207875617420746869657520766160448201526e692074726f204e434320747520524d60881b60648201526084016107bc565b6040518060800160405280846001600160a01b0316815260200183838080601f01602080910402602001604051908101604052809392919081815260200183838082843760009201829052509385525050506020808301829052600160409384018190526001600160a01b0388811684526004835293909220845181546001600160a01b0319169416939093178355838101518051612f41938501929190910190614306565b5060408201516002909101805460609093015115156101000261ff00199215159290921661ffff1990931692909217179055612f7c83614072565b612fcc57600780546001810182556000919091527fa66cc928b5edb82af9bd49922954155ab7b0942694bea4ce44661d9a8736c6880180546001600160a01b0319166001600160a01b0385161790555b336001600160a01b0316836001600160a01b03167fa360b642759fd1aef60fe12df288f0d8167355cc51b3062855ee99bd40738ccc8484604051613011929190614be9565b60405180910390a3505050565b600154604080516305b11d3760e01b815290516001600160a01b03909216916391d148549183916305b11d3791600480820192602092909190829003018186803b15801561306b57600080fd5b505afa15801561307f573d6000803e3d6000fd5b505050506040513d601f19601f820116820180604052508101906130a3919061464b565b336040518363ffffffff1660e01b81526004016130c1929190614bd2565b60206040518083038186803b1580156130d957600080fd5b505afa1580156130ed573d6000803e3d6000fd5b505050506040513d601f19601f820116820180604052508101906131119190614613565b61312d5760405162461bcd60e51b81526004016107bc90614ccb565b60006002868660405161314192919061491a565b908152604051908190036020019020600481015490915060ff166131bf5760405162461bcd60e51b815260206004820152602f60248201527f4974656d734d436f72653a204d61742068616e67206b686f6e6720746f6e207460448201526e185a481919481c1a1948191d5e595d608a1b60648201526084016107bc565b6004810154610100900460ff161561322c5760405162461bcd60e51b815260206004820152602a60248201527f4974656d734d436f72653a204d61742068616e672064612064756f632070686560448201526920647579657420726f6960b01b60648201526084016107bc565b600084116132925760405162461bcd60e51b815260206004820152602d60248201527f4974656d734d436f72653a20476961207472616e207468616d206b68616f207060448201526c0686169206c6f6e20686f6e203609c1b60648201526084016107bc565b6132ce838380806020026020016040519081016040528093929190818152602001838360200280828437600092019190915250613b8592505050565b6132ea5760405162461bcd60e51b81526004016107bc90614d1a565b60048101805461ff001916610100179055600581018490556040513390613314908890889061491a565b604051908190038120868252907f6fc42e6328d70476ac11e3bb6c632c610f1751d06b79b7edc25e912cdff2720990602001610e8d565b6133548261052c565b61335e81336139c0565b61055e8383613aa8565b6001600160a01b038216600090815260036020819052604090912090810154600160a01b900460ff1680156133a857506003810154600160a81b900460ff165b61341a5760405162461bcd60e51b815260206004820152603e60248201527f4974656d734d436f72653a20446961206469656d206368756120746f6e20746160448201527f6920686f616320636875612064756f632042444820706865206475796574000060648201526084016107bc565b60038101546001600160a01b0316156134805760405162461bcd60e51b815260206004820152602260248201527f4974656d734d436f72653a20446961206469656d20646120636f207175616e206044820152616c7960f01b60648201526084016107bc565b6040516000908190613494906020016149f6565b60405160208183030381529060405280519060200120836002016040516020016134be9190614946565b60405160208183030381529060405280519060200120141561366457600160009054906101000a90046001600160a01b03166001600160a01b0316631f1077986040518163ffffffff1660e01b815260040160206040518083038186803b15801561352857600080fd5b505afa15801561353c573d6000803e3d6000fd5b505050506040513d601f19601f82011682018060405250810190613560919061464b565b600154604080516315c37cb960e31b815290519294506001600160a01b03909116916391d1485491839163ae1be5c891600480820192602092909190829003018186803b1580156135b057600080fd5b505afa1580156135c4573d6000803e3d6000fd5b505050506040513d601f19601f820116820180604052508101906135e8919061464b565b336040518363ffffffff1660e01b8152600401613606929190614bd2565b60206040518083038186803b15801561361e57600080fd5b505afa158015613632573d6000803e3d6000fd5b505050506040513d601f19601f820116820180604052508101906136569190614613565b1561365f575060015b6137e5565b604051602001613673906149e1565b604051602081830303815290604052805190602001208360020160405160200161369d9190614946565b60405160208183030381529060405280519060200120141561378f57600160009054906101000a90046001600160a01b03166001600160a01b0316636250e0566040518163ffffffff1660e01b815260040160206040518083038186803b15801561370757600080fd5b505afa15801561371b573d6000803e3d6000fd5b505050506040513d601f19601f8201168201806040525081019061373f919061464b565b6001546040805163ad4ed49760e01b815290519294506001600160a01b03909116916391d1485491839163ad4ed49791600480820192602092909190829003018186803b1580156135b057600080fd5b60405162461bcd60e51b815260206004820152603760248201526000805160206150118339815191526044820152767861632064696e682064652067616e207175616e206c7960481b60648201526084016107bc565b806138675760405162461bcd60e51b815260206004820152604660248201527f4974656d734d436f72653a204e67756f6920676f69206b686f6e6720636f207160448201527f7579656e2067616e207175616e206c792063686f206c6f616920646961206469606482015265656d206e617960d01b608482015260a4016107bc565b600154604051632474521560e21b81526001600160a01b03909116906391d14854906138999085908890600401614bd2565b60206040518083038186803b1580156138b157600080fd5b505afa1580156138c5573d6000803e3d6000fd5b505050506040513d601f19601f820116820180604052508101906138e99190614613565b61395a5760405162461bcd60e51b815260206004820152603c60248201527f4974656d734d436f72653a204e67756f692064756f632067616e206c616d207160448201527b075616e206c79207468696575207661692074726f2070687520686f760241b60648201526084016107bc565b6003830180546001600160a01b0319166001600160a01b038681169190911790915560405133918716907fe1afc28d5cfbf961ed132b592d03e1026a060113945054c2c5ed4c90629022be906139b1908890614a76565b60405180910390a35050505050565b6139ca8282611fc9565b6109ac576139e2816001600160a01b031660146140e1565b6139ed8360206140e1565b6040516020016139fe929190614a07565b60408051601f198184030181529082905262461bcd60e51b82526107bc91600401614c37565b613a2e8282611fc9565b6109ac576000828152602081815260408083206001600160a01b03851684529091529020805460ff19166001179055613a643390565b6001600160a01b0316816001600160a01b0316837f2f8788117e7eff1d82e926ec794901d17c78024a50270940304540a733656f0d60405160405180910390a45050565b613ab28282611fc9565b156109ac576000828152602081815260408083206001600160a01b0385168085529252808320805460ff1916905551339285917ff6391f5c32d9c69d2a47ea670b442974b53935d1edc7fd64eb21e047a839171b9190a45050565b6000805b600654811015613b7c57826001600160a01b031660068281548110613b4657634e487b7160e01b600052603260045260246000fd5b6000918252602090912001546001600160a01b03161415613b6a5750600192915050565b80613b7481614fc9565b915050613b11565b50600092915050565b6000815160001415613b9957506000919050565b60008083516001600160401b03811115613bc357634e487b7160e01b600052604160045260246000fd5b604051908082528060200260200182016040528015613bec578160200160208202803683370190505b5090506000805b8551811015613faf576000868281518110613c1e57634e487b7160e01b600052603260045260246000fd5b60200260200101519050336001600160a01b0316816001600160a01b03161415613ca35760405162461bcd60e51b815260206004820152603060248201527f4974656d734d436f72653a204e67756f692064652078756174206b686f6e672060448201526f1d1a19481d1d481c1a1948191d5e595d60821b60648201526084016107bc565b600154604080516305b11d3760e01b815290516001600160a01b03909216916391d148549183916305b11d3791600480820192602092909190829003018186803b158015613cf057600080fd5b505afa158015613d04573d6000803e3d6000fd5b505050506040513d601f19601f82011682018060405250810190613d28919061464b565b836040518363ffffffff1660e01b8152600401613d46929190614bd2565b60206040518083038186803b158015613d5e57600080fd5b505afa158015613d72573d6000803e3d6000fd5b505050506040513d601f19601f82011682018060405250810190613d969190614613565b613e005760405162461bcd60e51b815260206004820152603560248201527f4974656d734d436f72653a204e67756f6920706865206475796574206b686f6e6044820152740ce40e0d0c2d240e8d0c2dcd040ecd2cadc4084889605b1b60648201526084016107bc565b6000805b84811015613e6857826001600160a01b0316868281518110613e3657634e487b7160e01b600052603260045260246000fd5b60200260200101516001600160a01b03161415613e565760019150613e68565b80613e6081614fc9565b915050613e04565b508015613ec85760405162461bcd60e51b815260206004820152602860248201527f4974656d734d436f72653a204e67756f69207068652064757965742062692074604482015267072756e67206c61760c41b60648201526084016107bc565b60015460405163e3fcbac160e01b81526001600160a01b039091169063e3fcbac190613ef8908590600401614a76565b60206040518083038186803b158015613f1057600080fd5b505afa158015613f24573d6000803e3d6000fd5b505050506040513d601f19601f82011682018060405250810190613f48919061464b565b613f529087614f10565b955081858581518110613f7557634e487b7160e01b600052603260045260246000fd5b6001600160a01b039092166020928302919091019091015283613f9781614fc9565b94505050508080613fa790614fc9565b915050613bf3565b50506113889091119392505050565b6000805b600554811015614068578383604051602001613fdf92919061491a565b604051602081830303815290604052805190602001206005828154811061401657634e487b7160e01b600052603260045260246000fd5b906000526020600020016040516020016140309190614946565b604051602081830303815290604052805190602001201415614056576001915050610465565b8061406081614fc9565b915050613fc2565b5060009392505050565b6000805b600754811015613b7c57826001600160a01b0316600782815481106140ab57634e487b7160e01b600052603260045260246000fd5b6000918252602090912001546001600160a01b031614156140cf5750600192915050565b806140d981614fc9565b915050614076565b606060006140f0836002614f28565b6140fb906002614f10565b6001600160401b0381111561412057634e487b7160e01b600052604160045260246000fd5b6040519080825280601f01601f19166020018201604052801561414a576020820181803683370190505b509050600360fc1b8160008151811061417357634e487b7160e01b600052603260045260246000fd5b60200101906001600160f81b031916908160001a905350600f60fb1b816001815181106141b057634e487b7160e01b600052603260045260246000fd5b60200101906001600160f81b031916908160001a90535060006141d4846002614f28565b6141df906001614f10565b90505b6001811115614273576f181899199a1a9b1b9c1cb0b131b232b360811b85600f166010811061422157634e487b7160e01b600052603260045260246000fd5b1a60f81b82828151811061424557634e487b7160e01b600052603260045260246000fd5b60200101906001600160f81b031916908160001a90535060049490941c9361426c81614f77565b90506141e2565b5083156142c25760405162461bcd60e51b815260206004820181905260248201527f537472696e67733a20686578206c656e67746820696e73756666696369656e7460448201526064016107bc565b9392505050565b6040805160e08101825260008082526060602083018190529282018390529181018290526080810182905260a0810182905260c081019190915290565b82805461431290614f8e565b90600052602060002090601f016020900481019282614334576000855561437a565b82601f1061434d57805160ff191683800117855561437a565b8280016001018555821561437a579182015b8281111561437a57825182559160200191906001019061435f565b506143869291506143fe565b5090565b82805461439690614f8e565b90600052602060002090601f0160209004810192826143b8576000855561437a565b82601f106143d15782800160ff1982351617855561437a565b8280016001018555821561437a579182015b8281111561437a5782358255916020019190600101906143e3565b5b8082111561438657600081556001016143ff565b80356001600160a01b038116811461442a57600080fd5b919050565b60008083601f840112614440578081fd5b5081356001600160401b03811115614456578182fd5b6020830191508360208260051b850101111561447157600080fd5b9250929050565b60008083601f840112614489578182fd5b5081356001600160401b0381111561449f578182fd5b60208301915083602082850101111561447157600080fd5b6000602082840312156144c8578081fd5b6142c282614413565b600080604083850312156144e3578081fd5b6144ec83614413565b91506144fa60208401614413565b90509250929050565b600080600060408486031215614517578081fd5b61452084614413565b925060208401356001600160401b0381111561453a578182fd5b6145468682870161442f565b9497909650939450505050565b600080600060408486031215614567578283fd5b61457084614413565b925060208401356001600160401b0381111561458a578283fd5b61454686828701614478565b6000806000806000606086880312156145ad578081fd5b6145b686614413565b945060208601356001600160401b03808211156145d1578283fd5b6145dd89838a01614478565b909650945060408801359150808211156145f5578283fd5b5061460288828901614478565b969995985093965092949392505050565b600060208284031215614624578081fd5b815180151581146142c2578182fd5b600060208284031215614644578081fd5b5035919050565b60006020828403121561465c578081fd5b5051919050565b60008060408385031215614675578182fd5b823591506144fa60208401614413565b600060208284031215614696578081fd5b81356001600160e01b0319811681146142c2578182fd5b600080602083850312156146bf578182fd5b82356001600160401b038111156146d4578283fd5b6146e085828601614478565b90969095509350505050565b6000806000806000806000806080898b031215614707578283fd5b88356001600160401b038082111561471d578485fd5b6147298c838d01614478565b909a50985060208b0135915080821115614741578485fd5b61474d8c838d01614478565b909850965060408b0135915080821115614765578485fd5b6147718c838d01614478565b909650945060608b0135915080821115614789578384fd5b506147968b828c01614478565b999c989b5096995094979396929594505050565b6000806000806000606086880312156147c1578283fd5b85356001600160401b03808211156147d7578485fd5b6147e389838a01614478565b9097509550602088013594506040880135915080821115614802578283fd5b506146028882890161442f565b600060208284031215614820578081fd5b81356001600160401b0380821115614836578283fd5b818401915084601f830112614849578283fd5b81358181111561485b5761485b614ffa565b604051601f8201601f19908116603f0116810190838211818310171561488357614883614ffa565b8160405282815287602084870101111561489b578586fd5b826020860160208301379182016020019490945295945050505050565b6001600160a01b03169052565b81835281816020850137506000828201602090810191909152601f909101601f19169091010190565b60008151808452614906816020860160208601614f47565b601f01601f19169290920160200192915050565b8183823760009101908152919050565b6000825161493c818460208701614f47565b9190910192915050565b600080835482600182811c91508083168061496257607f831692505b602080841082141561498257634e487b7160e01b87526022600452602487fd5b81801561499657600181146149a7576149d3565b60ff198616895284890196506149d3565b60008a815260209020885b868110156149cb5781548b8201529085019083016149b2565b505084890196505b509498975050505050505050565b6857415245484f55534560b81b815260090190565b6453544f524560d81b815260050190565b76020b1b1b2b9b9a1b7b73a3937b61d1030b1b1b7bab73a1604d1b815260008351614a39816017850160208801614f47565b7001034b99036b4b9b9b4b733903937b6329607d1b6017918401918201528351614a6a816028840160208801614f47565b01602801949350505050565b6001600160a01b0391909116815260200190565b6001600160a01b0385168152608060208201819052600090614aae908301866148ee565b93151560408301525090151560609091015292915050565b600060018060a01b03808a16835260e06020840152614ae860e084018a6148ee565b8381036040850152614afa818a6148ee565b97821660608501525094151560808301525091151560a083015290911660c0909101529392505050565b6020808252825182820181905260009190848201906040850190845b81811015614b655783516001600160a01b031683529284019291840191600101614b40565b50909695505050505050565b6000602080830181845280855180835260408601915060408160051b8701019250838701855b82811015614bc557603f19888603018452614bb38583516148ee565b94509285019290850190600101614b97565b5092979650505050505050565b9182526001600160a01b0316602082015260400190565b602081526000614bfd6020830184866148c5565b949350505050565b604081526000614c196040830186886148c5565b8281036020840152614c2c8185876148c5565b979650505050505050565b6020815260006142c260208301846148ee565b6000610100808352614c5e8184018c6148ee565b90508281036020840152614c72818b6148ee565b90508281036040840152614c86818a6148ee565b90508281036060840152614c9a81896148ee565b9615156080840152505092151560a08401526001600160a01b039190911660c083015260e090910152949350505050565b6020808252602f908201527f4974656d734d436f72653a204e67756f6920676f69206b686f6e67207068616960408201526e040a8d0c2dcd040ecd2cadc4084889608b1b606082015260800190565b60208082526030908201527f4974656d734d436f72653a204b686f6e67206475207479206c6520636f20706860408201526f185b88109112081c1a1948191d5e595d60821b606082015260800190565b6020815260008251610100806020850152614d896101208501836148ee565b91506020850151601f1980868503016040870152614da784836148ee565b93506040870151915080868503016060870152614dc484836148ee565b9350606087015191508086850301608087015250614de283826148ee565b9250506080850151614df860a086018215159052565b5060a085015180151560c08601525060c0850151614e1960e08601826148b8565b5060e0949094015192909301919091525090565b60208152600060018060a01b03808451166020840152602084015160e06040850152614e5d6101008501826148ee565b90506040850151601f19858303016060860152614e7a82826148ee565b9150508160608601511660808501526080850151151560a085015260a08501519150614eaa60c085018315159052565b60c08501519150614bfd60e08501836148b8565b602080825282516001600160a01b03168282015282015160806040830152600090614eec60a08401826148ee565b90506040840151151560608401526060840151151560808401528091505092915050565b60008219821115614f2357614f23614fe4565b500190565b6000816000190483118215151615614f4257614f42614fe4565b500290565b60005b83811015614f62578181015183820152602001614f4a565b83811115614f71576000848401525b50505050565b600081614f8657614f86614fe4565b506000190190565b600181811c90821680614fa257607f821691505b60208210811415614fc357634e487b7160e01b600052602260045260246000fd5b50919050565b6000600019821415614fdd57614fdd614fe4565b5060010190565b634e487b7160e01b600052601160045260246000fd5b634e487b7160e01b600052604160045260246000fdfe4974656d734d436f72653a204c6f616920646961206469656d206b686f6e6720a2646970667358221220e08edd2ba37227c901e71ac362da4c21380b86767d5980595120b440ebf280cf64736f6c63430008040033",
  "immutableReferences": {},
  "source": "// SPDX-License-Identifier: MIT\r\npragma solidity ^0.8.4;\r\n\r\nimport \"@openzeppelin/contracts/access/AccessControl.sol\";\r\nimport \"./Interfaces.sol\"; // Import file Interfaces.sol tp trung\r\n\r\ncontract ItemsManagementCore is AccessControl{\r\n    IRoleManagement public roleManagementExternal;\r\n\r\n    // --- STRUCT DEFINITIONS ---\r\n    // ItemInfo, PhysicalLocationInfo, SupplierInfo c nh ngha trong Interfaces.sol\r\n    // v c contract ny s dng/trin khai.\r\n\r\n    // --- MAPPINGS ---\r\n    mapping(string => ItemInfo) public items;\r\n    mapping(address => PhysicalLocationInfo) public physicalLocations;\r\n    mapping(address => SupplierInfo) public suppliers;\r\n\r\n    // --- ARRAYS FOR ITERATION ---\r\n    string[] public itemIds;\r\n    address[] public locationAddresses;\r\n    address[] public supplierAddresses;\r\n\r\n    // --- EVENTS (ch nhng event lin quan n core entities) ---\r\n    event ItemProposed(string indexed itemId, string name, address indexed proposer);\r\n    event ItemApprovedByBoard(string indexed itemId, uint256 referencePriceCeiling, address indexed finalApprover);\r\n    event PhysicalLocationProposed(address indexed locationId, string name, string locationType, address indexed proposer);\r\n    event PhysicalLocationApprovedByBoard(address indexed locationId, address indexed finalApprover);\r\n    event SupplierProposed(address indexed supplierId, string name, address indexed proposer);\r\n    event SupplierApprovedByBoard(address indexed supplierId, address indexed finalApprover);\r\n    event PhysicalLocationManagerAssigned(address indexed locationId, address newManager, address indexed byDirector);\r\n    event StoreDesignatedSourceWarehouseSet(address indexed storeAddress, address indexed designatedWarehouse, address indexed byStoreDirector);\r\n\r\n    constructor(address _roleManagementExternalAddress) {\r\n        require(_roleManagementExternalAddress != address(0), \"ItemsMCore: Dia chi RM Ngoai khong hop le\");\r\n        roleManagementExternal = IRoleManagement(_roleManagementExternalAddress);\r\n        _setupRole(DEFAULT_ADMIN_ROLE, msg.sender);\r\n    }\r\n\r\n    modifier onlyBoardMember() {\r\n        require(roleManagementExternal.hasRole(roleManagementExternal.BOARD_ROLE(), msg.sender), \"ItemsMCore: Nguoi goi khong phai Thanh vien BDH\");\r\n        _;\r\n    }\r\n\r\n    modifier onlyStoreDirector() {\r\n        bytes32 sdRole = roleManagementExternal.STORE_DIRECTOR_ROLE();\r\n        require(roleManagementExternal.hasRole(sdRole, msg.sender), \"ItemsMCore: Nguoi goi thieu vai tro GIAM_DOC_CH (RM Ngoai)\");\r\n        _;\r\n    }\r\n\r\n    modifier onlyWarehouseDirector() { // Thm modifier ny nu cha c\r\n        bytes32 wdRole = roleManagementExternal.WAREHOUSE_DIRECTOR_ROLE();\r\n        require(roleManagementExternal.hasRole(wdRole, msg.sender), \"ItemsMCore: Nguoi goi thieu vai tro GIAM_DOC_KHO (RM Ngoai)\");\r\n        _;\r\n    }\r\n\r\n    function _getBoardApproval(address[] memory _approvers) internal view returns (bool) {\r\n        if (_approvers.length == 0) return false;\r\n        uint256 totalApprovalShares = 0;\r\n        address[] memory processedApprovers = new address[](_approvers.length);\r\n        uint processedCount = 0;\r\n\r\n        for (uint i = 0; i < _approvers.length; i++) {\r\n            address approver = _approvers[i];\r\n            require(approver != msg.sender, \"ItemsMCore: Nguoi de xuat khong the tu phe duyet\");\r\n            require(roleManagementExternal.hasRole(roleManagementExternal.BOARD_ROLE(), approver), \"ItemsMCore: Nguoi phe duyet khong phai thanh vien BDH\");\r\n\r\n            bool alreadyProcessed = false;\r\n            for (uint j = 0; j < processedCount; j++) {\r\n                if (processedApprovers[j] == approver) {\r\n                    alreadyProcessed = true;\r\n                    break;\r\n                }\r\n            }\r\n            require(!alreadyProcessed, \"ItemsMCore: Nguoi phe duyet bi trung lap\");\r\n            totalApprovalShares += roleManagementExternal.getSharesPercentage(approver);\r\n            processedApprovers[processedCount] = approver;\r\n            processedCount++;\r\n        }\r\n        return totalApprovalShares > 5000; // 5000 means > 50.00%\r\n    }\r\n\r\n    function _itemExistsInArray(string calldata _itemId) internal view returns (bool) {\r\n        for (uint i = 0; i < itemIds.length; i++) {\r\n            if (keccak256(abi.encodePacked(itemIds[i])) == keccak256(abi.encodePacked(_itemId))) return true;\r\n        }\r\n        return false;\r\n    }\r\n    function _locationExistsInArray(address _locationId) internal view returns (bool) {\r\n        for (uint i = 0; i < locationAddresses.length; i++) {\r\n            if (locationAddresses[i] == _locationId) return true;\r\n        }\r\n        return false;\r\n    }\r\n     function _supplierExistsInArray(address _supplierId) internal view returns (bool) {\r\n        for (uint i = 0; i < supplierAddresses.length; i++) {\r\n            if (supplierAddresses[i] == _supplierId) return true;\r\n        }\r\n        return false;\r\n    }\r\n\r\n    // --- QUN L MT HNG BI BAN IU HNH ---\r\n    function proposeNewItem(string calldata _itemId, string calldata _name, string calldata _description, string calldata _category) external onlyBoardMember {\r\n        require(!items[_itemId].exists, \"ItemsMCore: ID mat hang da ton tai\");\r\n        require(bytes(_itemId).length > 0, \"ItemsMCore: ID mat hang khong duoc rong\");\r\n\r\n        items[_itemId] = ItemInfo({\r\n            itemId: _itemId,\r\n            name: _name,\r\n            description: _description,\r\n            category: _category,\r\n            exists: true,\r\n            isApprovedByBoard: false,\r\n            proposer: msg.sender,\r\n            referencePriceCeiling: 0\r\n        });\r\n        if (!_itemExistsInArray(_itemId)) {\r\n            itemIds.push(_itemId);\r\n        }\r\n        emit ItemProposed(_itemId, _name, msg.sender);\r\n    }\r\n\r\n    function approveProposedItem(string calldata _itemId, uint256 _referencePriceCeiling, address[] calldata _approvers) external onlyBoardMember {\r\n        ItemInfo storage item = items[_itemId];\r\n        require(item.exists, \"ItemsMCore: Mat hang khong ton tai de phe duyet\");\r\n        require(!item.isApprovedByBoard, \"ItemsMCore: Mat hang da duoc phe duyet roi\");\r\n        require(_referencePriceCeiling > 0, \"ItemsMCore: Gia tran tham khao phai lon hon 0\");\r\n        require(_getBoardApproval(_approvers), \"ItemsMCore: Khong du ty le co phan BDH phe duyet\");\r\n\r\n        item.isApprovedByBoard = true;\r\n        item.referencePriceCeiling = _referencePriceCeiling;\r\n        emit ItemApprovedByBoard(_itemId, _referencePriceCeiling, msg.sender);\r\n    }\r\n\r\n    // --- QUN L A IM BI BAN IU HNH ---\r\n    function proposeNewPhysicalLocation(address _locationId, string calldata _name, string calldata _locationType) external onlyBoardMember {\r\n        require(!physicalLocations[_locationId].exists, \"ItemsMCore: ID dia diem da ton tai\");\r\n        require(_locationId != address(0), \"ItemsMCore: Dia chi dia diem khong hop le\");\r\n        bytes32 typeHash = keccak256(abi.encodePacked(_locationType));\r\n        require(typeHash == keccak256(abi.encodePacked(\"STORE\")) || typeHash == keccak256(abi.encodePacked(\"WAREHOUSE\")), \"ItemsMCore: Loai dia diem khong hop le\");\r\n\r\n        physicalLocations[_locationId] = PhysicalLocationInfo({\r\n            locationId: _locationId,\r\n            name: _name,\r\n            locationType: _locationType,\r\n            manager: address(0),\r\n            exists: true,\r\n            isApprovedByBoard: false,\r\n            designatedSourceWarehouseAddress: address(0)\r\n        });\r\n        if (!_locationExistsInArray(_locationId)) {\r\n            locationAddresses.push(_locationId);\r\n        }\r\n        emit PhysicalLocationProposed(_locationId, _name, _locationType, msg.sender);\r\n    }\r\n\r\n    function approveProposedPhysicalLocation(address _locationId, address[] calldata _approvers) external onlyBoardMember {\r\n        PhysicalLocationInfo storage loc = physicalLocations[_locationId];\r\n        require(loc.exists, \"ItemsMCore: Dia diem khong ton tai de phe duyet\");\r\n        require(!loc.isApprovedByBoard, \"ItemsMCore: Dia diem da duoc phe duyet roi\");\r\n        require(_getBoardApproval(_approvers), \"ItemsMCore: Khong du ty le co phan BDH phe duyet\");\r\n\r\n        loc.isApprovedByBoard = true;\r\n        emit PhysicalLocationApprovedByBoard(_locationId, msg.sender);\r\n    }\r\n\r\n    function assignManagerToLocation(address _locationId, address _managerId) external {\r\n        PhysicalLocationInfo storage loc = physicalLocations[_locationId];\r\n        require(loc.exists && loc.isApprovedByBoard, \"ItemsMCore: Dia diem chua ton tai hoac chua duoc BDH phe duyet\");\r\n        require(loc.manager == address(0), \"ItemsMCore: Dia diem da co quan ly\");\r\n\r\n        bytes32 expectedManagerRole;\r\n        bool callerIsAuthorized = false;\r\n\r\n        if (keccak256(abi.encodePacked(loc.locationType)) == keccak256(abi.encodePacked(\"STORE\"))) {\r\n            expectedManagerRole = roleManagementExternal.STORE_MANAGER_ROLE();\r\n            if (roleManagementExternal.hasRole(roleManagementExternal.STORE_DIRECTOR_ROLE(), msg.sender)) {\r\n                callerIsAuthorized = true;\r\n            }\r\n        } else if (keccak256(abi.encodePacked(loc.locationType)) == keccak256(abi.encodePacked(\"WAREHOUSE\"))) {\r\n            expectedManagerRole = roleManagementExternal.WAREHOUSE_MANAGER_ROLE();\r\n            if (roleManagementExternal.hasRole(roleManagementExternal.WAREHOUSE_DIRECTOR_ROLE(), msg.sender)) {\r\n                callerIsAuthorized = true;\r\n            }\r\n        } else {\r\n            revert(\"ItemsMCore: Loai dia diem khong xac dinh de gan quan ly\");\r\n        }\r\n        require(callerIsAuthorized, \"ItemsMCore: Nguoi goi khong co quyen gan quan ly cho loai dia diem nay\");\r\n        require(roleManagementExternal.hasRole(expectedManagerRole, _managerId), \"ItemsMCore: Nguoi duoc gan lam quan ly thieu vai tro phu hop\");\r\n        loc.manager = _managerId;\r\n        emit PhysicalLocationManagerAssigned(_locationId, _managerId, msg.sender);\r\n    }\r\n\r\n    function setDesignatedSourceWarehouseForStore(address _storeAddress, address _warehouseAddress) external onlyStoreDirector {\r\n        PhysicalLocationInfo storage storeInfo = physicalLocations[_storeAddress];\r\n        require(storeInfo.exists && storeInfo.isApprovedByBoard && keccak256(abi.encodePacked(storeInfo.locationType)) == keccak256(abi.encodePacked(\"STORE\")), \"ItemsMCore: Cua hang khong ton tai, chua duoc BDH phe duyet, hoac khong phai la cua hang\");\r\n        if (_warehouseAddress != address(0)) {\r\n            PhysicalLocationInfo memory warehouseInfo = physicalLocations[_warehouseAddress];\r\n            require(warehouseInfo.exists && warehouseInfo.isApprovedByBoard && keccak256(abi.encodePacked(warehouseInfo.locationType)) == keccak256(abi.encodePacked(\"WAREHOUSE\")), \"ItemsMCore: Kho nguon chi dinh khong hop le, chua duoc BDH phe duyet, hoac khong phai la kho\");\r\n        }\r\n        storeInfo.designatedSourceWarehouseAddress = _warehouseAddress;\r\n        emit StoreDesignatedSourceWarehouseSet(_storeAddress, _warehouseAddress, msg.sender);\r\n    }\r\n\r\n    // --- QUN L NH CUNG CP BI BAN IU HNH ---\r\n    function proposeNewSupplier(address _supplierId, string calldata _name) external onlyBoardMember {\r\n        require(!suppliers[_supplierId].exists, \"ItemsMCore: ID NCC da ton tai\");\r\n        require(_supplierId != address(0), \"ItemsMCore: Dia chi NCC khong hop le\");\r\n        require(roleManagementExternal.hasRole(roleManagementExternal.SUPPLIER_ROLE(), _supplierId), \"ItemsMCore: NCC de xuat thieu vai tro NCC tu RM\");\r\n\r\n        suppliers[_supplierId] = SupplierInfo({\r\n            supplierId: _supplierId,\r\n            name: _name,\r\n            isApprovedByBoard: false,\r\n            exists: true\r\n        });\r\n        if(!_supplierExistsInArray(_supplierId)){\r\n             supplierAddresses.push(_supplierId);\r\n        }\r\n        emit SupplierProposed(_supplierId, _name, msg.sender);\r\n    }\r\n\r\n    function approveProposedSupplier(address _supplierId, address[] calldata _approvers) external onlyBoardMember {\r\n        SupplierInfo storage sup = suppliers[_supplierId];\r\n        require(sup.exists, \"ItemsMCore: NCC khong ton tai de phe duyet\");\r\n        require(!sup.isApprovedByBoard, \"ItemsMCore: NCC da duoc phe duyet roi\");\r\n        require(_getBoardApproval(_approvers), \"ItemsMCore: Khong du ty le co phan BDH phe duyet\");\r\n        sup.isApprovedByBoard = true;\r\n        emit SupplierApprovedByBoard(_supplierId, msg.sender);\r\n    }\r\n\r\n    // --- VIEW FUNCTIONS (implementing IItemsManagementCoreInterface) ---\r\n    function getItemInfo(string calldata _itemId) external view returns (ItemInfo memory) {\r\n        return items[_itemId];\r\n    }\r\n    function getPhysicalLocationInfo(address _locationId) external view returns (PhysicalLocationInfo memory) {\r\n        return physicalLocations[_locationId];\r\n    }\r\n    function getStoreInfo(address _storeAddress) external view returns (PhysicalLocationInfo memory) {\r\n        PhysicalLocationInfo memory loc = physicalLocations[_storeAddress];\r\n        require(loc.exists && keccak256(abi.encodePacked(loc.locationType)) == keccak256(abi.encodePacked(\"STORE\")), \"ItemsMCore: Khong phai la cua hang\");\r\n        return loc;\r\n    }\r\n    function getWarehouseInfo(address _warehouseAddress) external view returns (PhysicalLocationInfo memory) {\r\n        PhysicalLocationInfo memory loc = physicalLocations[_warehouseAddress];\r\n        require(loc.exists && keccak256(abi.encodePacked(loc.locationType)) == keccak256(abi.encodePacked(\"WAREHOUSE\")), \"ItemsMCore: Khong phai la kho\");\r\n        return loc;\r\n    }\r\n    function getSupplierInfo(address _supplierId) external view returns (SupplierInfo memory) {\r\n        return suppliers[_supplierId];\r\n    }\r\n    function getAllItemIds() external view returns (string[] memory) { return itemIds; }\r\n    function getAllLocationAddresses() external view returns (address[] memory) { return locationAddresses; }\r\n    function getAllSupplierAddresses() external view returns (address[] memory) { return supplierAddresses; }\r\n}",
  "sourcePath": "D:\\nhi\\Logtech\\New tech in Log\\dapp2\\SC\\contracts\\ItemsManagementCore.sol",
  "compiler": {
    "name": "solc",
    "version": "0.8.4+commit.c7e474f2.Emscripten.clang"
  },
  "schemaVersion": "3.4.16",
  "updatedAt": "2025-06-03T05:39:59.309Z",
  "networkType": "ethereum",
  "devdoc": {
    "kind": "dev",
    "methods": {
      "getRoleAdmin(bytes32)": {
        "details": "Returns the admin role that controls `role`. See {grantRole} and {revokeRole}. To change a role's admin, use {_setRoleAdmin}."
      },
      "grantRole(bytes32,address)": {
        "details": "Grants `role` to `account`. If `account` had not been already granted `role`, emits a {RoleGranted} event. Requirements: - the caller must have ``role``'s admin role."
      },
      "hasRole(bytes32,address)": {
        "details": "Returns `true` if `account` has been granted `role`."
      },
      "renounceRole(bytes32,address)": {
        "details": "Revokes `role` from the calling account. Roles are often managed via {grantRole} and {revokeRole}: this function's purpose is to provide a mechanism for accounts to lose their privileges if they are compromised (such as when a trusted device is misplaced). If the calling account had been granted `role`, emits a {RoleRevoked} event. Requirements: - the caller must be `account`."
      },
      "revokeRole(bytes32,address)": {
        "details": "Revokes `role` from `account`. If `account` had been granted `role`, emits a {RoleRevoked} event. Requirements: - the caller must have ``role``'s admin role."
      },
      "supportsInterface(bytes4)": {
        "details": "See {IERC165-supportsInterface}."
      }
    },
    "version": 1
  },
  "userdoc": {
    "kind": "user",
    "methods": {},
    "version": 1
  }
}