{
  "contractName": "ItemsPricingAndListing",
  "abi": [
    {
      "inputs": [
        {
          "internalType": "address",
          "name": "_roleManagementExternalAddress",
          "type": "address"
        },
        {
          "internalType": "address",
          "name": "_itemsManagementCoreAddress",
          "type": "address"
        }
      ],
      "stateMutability": "nonpayable",
      "type": "constructor"
    },
    {
      "anonymous": false,
      "inputs": [
        {
          "indexed": true,
          "internalType": "address",
          "name": "storeAddress",
          "type": "address"
        },
        {
          "indexed": true,
          "internalType": "string",
          "name": "itemId",
          "type": "string"
        },
        {
          "indexed": false,
          "internalType": "uint256",
          "name": "price",
          "type": "uint256"
        },
        {
          "indexed": true,
          "internalType": "address",
          "name": "byStoreDirector",
          "type": "address"
        }
      ],
      "name": "RetailPriceSet",
      "type": "event"
    },
    {
      "anonymous": false,
      "inputs": [
        {
          "indexed": true,
          "internalType": "bytes32",
          "name": "role",
          "type": "bytes32"
        },
        {
          "indexed": true,
          "internalType": "bytes32",
          "name": "previousAdminRole",
          "type": "bytes32"
        },
        {
          "indexed": true,
          "internalType": "bytes32",
          "name": "newAdminRole",
          "type": "bytes32"
        }
      ],
      "name": "RoleAdminChanged",
      "type": "event"
    },
    {
      "anonymous": false,
      "inputs": [
        {
          "indexed": true,
          "internalType": "bytes32",
          "name": "role",
          "type": "bytes32"
        },
        {
          "indexed": true,
          "internalType": "address",
          "name": "account",
          "type": "address"
        },
        {
          "indexed": true,
          "internalType": "address",
          "name": "sender",
          "type": "address"
        }
      ],
      "name": "RoleGranted",
      "type": "event"
    },
    {
      "anonymous": false,
      "inputs": [
        {
          "indexed": true,
          "internalType": "bytes32",
          "name": "role",
          "type": "bytes32"
        },
        {
          "indexed": true,
          "internalType": "address",
          "name": "account",
          "type": "address"
        },
        {
          "indexed": true,
          "internalType": "address",
          "name": "sender",
          "type": "address"
        }
      ],
      "name": "RoleRevoked",
      "type": "event"
    },
    {
      "anonymous": false,
      "inputs": [
        {
          "indexed": true,
          "internalType": "address",
          "name": "supplierAddress",
          "type": "address"
        },
        {
          "indexed": true,
          "internalType": "string",
          "name": "itemId",
          "type": "string"
        },
        {
          "indexed": false,
          "internalType": "uint256",
          "name": "price",
          "type": "uint256"
        },
        {
          "indexed": false,
          "internalType": "bool",
          "name": "autoApproved",
          "type": "bool"
        }
      ],
      "name": "SupplierItemListed",
      "type": "event"
    },
    {
      "anonymous": false,
      "inputs": [
        {
          "indexed": true,
          "internalType": "address",
          "name": "supplierAddress",
          "type": "address"
        },
        {
          "indexed": true,
          "internalType": "string",
          "name": "itemId",
          "type": "string"
        },
        {
          "indexed": true,
          "internalType": "address",
          "name": "approver",
          "type": "address"
        }
      ],
      "name": "SupplierItemManuallyApprovedByBoard",
      "type": "event"
    },
    {
      "inputs": [],
      "name": "DEFAULT_ADMIN_ROLE",
      "outputs": [
        {
          "internalType": "bytes32",
          "name": "",
          "type": "bytes32"
        }
      ],
      "stateMutability": "view",
      "type": "function",
      "constant": true
    },
    {
      "inputs": [
        {
          "internalType": "bytes32",
          "name": "role",
          "type": "bytes32"
        }
      ],
      "name": "getRoleAdmin",
      "outputs": [
        {
          "internalType": "bytes32",
          "name": "",
          "type": "bytes32"
        }
      ],
      "stateMutability": "view",
      "type": "function",
      "constant": true
    },
    {
      "inputs": [
        {
          "internalType": "bytes32",
          "name": "role",
          "type": "bytes32"
        },
        {
          "internalType": "address",
          "name": "account",
          "type": "address"
        }
      ],
      "name": "grantRole",
      "outputs": [],
      "stateMutability": "nonpayable",
      "type": "function"
    },
    {
      "inputs": [
        {
          "internalType": "bytes32",
          "name": "role",
          "type": "bytes32"
        },
        {
          "internalType": "address",
          "name": "account",
          "type": "address"
        }
      ],
      "name": "hasRole",
      "outputs": [
        {
          "internalType": "bool",
          "name": "",
          "type": "bool"
        }
      ],
      "stateMutability": "view",
      "type": "function",
      "constant": true
    },
    {
      "inputs": [],
      "name": "itemsManagementCore",
      "outputs": [
        {
          "internalType": "contract IItemsManagementCoreInterface",
          "name": "",
          "type": "address"
        }
      ],
      "stateMutability": "view",
      "type": "function",
      "constant": true
    },
    {
      "inputs": [
        {
          "internalType": "bytes32",
          "name": "role",
          "type": "bytes32"
        },
        {
          "internalType": "address",
          "name": "account",
          "type": "address"
        }
      ],
      "name": "renounceRole",
      "outputs": [],
      "stateMutability": "nonpayable",
      "type": "function"
    },
    {
      "inputs": [
        {
          "internalType": "bytes32",
          "name": "role",
          "type": "bytes32"
        },
        {
          "internalType": "address",
          "name": "account",
          "type": "address"
        }
      ],
      "name": "revokeRole",
      "outputs": [],
      "stateMutability": "nonpayable",
      "type": "function"
    },
    {
      "inputs": [],
      "name": "roleManagementExternal",
      "outputs": [
        {
          "internalType": "contract IRoleManagement",
          "name": "",
          "type": "address"
        }
      ],
      "stateMutability": "view",
      "type": "function",
      "constant": true
    },
    {
      "inputs": [
        {
          "internalType": "address",
          "name": "",
          "type": "address"
        },
        {
          "internalType": "string",
          "name": "",
          "type": "string"
        }
      ],
      "name": "storeItemRetailPrices",
      "outputs": [
        {
          "internalType": "uint256",
          "name": "",
          "type": "uint256"
        }
      ],
      "stateMutability": "view",
      "type": "function",
      "constant": true
    },
    {
      "inputs": [
        {
          "internalType": "address",
          "name": "",
          "type": "address"
        },
        {
          "internalType": "string",
          "name": "",
          "type": "string"
        }
      ],
      "name": "supplierItemListings",
      "outputs": [
        {
          "internalType": "string",
          "name": "itemId",
          "type": "string"
        },
        {
          "internalType": "address",
          "name": "supplierAddress",
          "type": "address"
        },
        {
          "internalType": "uint256",
          "name": "price",
          "type": "uint256"
        },
        {
          "internalType": "bool",
          "name": "isApprovedByBoard",
          "type": "bool"
        },
        {
          "internalType": "bool",
          "name": "exists",
          "type": "bool"
        }
      ],
      "stateMutability": "view",
      "type": "function",
      "constant": true
    },
    {
      "inputs": [
        {
          "internalType": "bytes4",
          "name": "interfaceId",
          "type": "bytes4"
        }
      ],
      "name": "supportsInterface",
      "outputs": [
        {
          "internalType": "bool",
          "name": "",
          "type": "bool"
        }
      ],
      "stateMutability": "view",
      "type": "function",
      "constant": true
    },
    {
      "inputs": [
        {
          "internalType": "string",
          "name": "_itemId",
          "type": "string"
        },
        {
          "internalType": "uint256",
          "name": "_price",
          "type": "uint256"
        }
      ],
      "name": "listSupplierItem",
      "outputs": [],
      "stateMutability": "nonpayable",
      "type": "function"
    },
    {
      "inputs": [
        {
          "internalType": "address",
          "name": "_supplierAddress",
          "type": "address"
        },
        {
          "internalType": "string",
          "name": "_itemId",
          "type": "string"
        },
        {
          "internalType": "address[]",
          "name": "_approvers",
          "type": "address[]"
        }
      ],
      "name": "approveSupplierItemManuallyByBoard",
      "outputs": [],
      "stateMutability": "nonpayable",
      "type": "function"
    },
    {
      "inputs": [
        {
          "internalType": "address",
          "name": "_storeAddress",
          "type": "address"
        },
        {
          "internalType": "string",
          "name": "_itemId",
          "type": "string"
        },
        {
          "internalType": "uint256",
          "name": "_price",
          "type": "uint256"
        }
      ],
      "name": "setStoreItemRetailPrice",
      "outputs": [],
      "stateMutability": "nonpayable",
      "type": "function"
    },
    {
      "inputs": [
        {
          "internalType": "address",
          "name": "_supplierAddress",
          "type": "address"
        },
        {
          "internalType": "string",
          "name": "_itemId",
          "type": "string"
        }
      ],
      "name": "getSupplierItemDetails",
      "outputs": [
        {
          "components": [
            {
              "internalType": "string",
              "name": "itemId",
              "type": "string"
            },
            {
              "internalType": "address",
              "name": "supplierAddress",
              "type": "address"
            },
            {
              "internalType": "uint256",
              "name": "price",
              "type": "uint256"
            },
            {
              "internalType": "bool",
              "name": "isApprovedByBoard",
              "type": "bool"
            },
            {
              "internalType": "bool",
              "name": "exists",
              "type": "bool"
            }
          ],
          "internalType": "struct SupplierItemListing",
          "name": "",
          "type": "tuple"
        }
      ],
      "stateMutability": "view",
      "type": "function",
      "constant": true
    },
    {
      "inputs": [
        {
          "internalType": "string",
          "name": "_itemId",
          "type": "string"
        },
        {
          "internalType": "address",
          "name": "_storeAddress",
          "type": "address"
        }
      ],
      "name": "getItemRetailPriceAtStore",
      "outputs": [
        {
          "internalType": "uint256",
          "name": "price",
          "type": "uint256"
        },
        {
          "internalType": "bool",
          "name": "priceExists",
          "type": "bool"
        }
      ],
      "stateMutability": "view",
      "type": "function",
      "constant": true
    }
  ],
  "bytecode": "0x60806040523480156200001157600080fd5b5060405162002a1938038062002a1983398101604081905262000034916200021d565b6001600160a01b0382166200009f5760405162461bcd60e51b815260206004820152602660248201527f4974656d73504c3a204469612063686920524d204e676f6169206b686f6e6720604482015265686f70206c6560d01b60648201526084015b60405180910390fd5b600180546001600160a01b0319166001600160a01b03848116919091179091558116620001205760405162461bcd60e51b815260206004820152602860248201527f4974656d73504c3a2044696120636869204974656d734d436f7265206b686f6e6044820152676720686f70206c6560c01b606482015260840162000096565b600280546001600160a01b0319166001600160a01b0383161790556200014860003362000150565b505062000254565b6200015c828262000160565b5050565b6000828152602081815260408083206001600160a01b038516845290915290205460ff166200015c576000828152602081815260408083206001600160a01b03851684529091529020805460ff19166001179055620001bc3390565b6001600160a01b0316816001600160a01b0316837f2f8788117e7eff1d82e926ec794901d17c78024a50270940304540a733656f0d60405160405180910390a45050565b80516001600160a01b03811681146200021857600080fd5b919050565b6000806040838503121562000230578182fd5b6200023b8362000200565b91506200024b6020840162000200565b90509250929050565b6127b580620002646000396000f3fe608060405234801561001057600080fd5b50600436106100d05760003560e01c806301ffc9a7146100d557806303bde86a146100fd57806307bf8c5c146101125780631d1922451461015c578063248a9ca31461018057806325254964146101935780632eb3292f146101a65780632f2ff15d146101c657806336568abe146101d957806375a05d12146101ec57806391d1485414610214578063a217fddf14610227578063adeb5c241461022f578063d547741f14610242578063e6a2194314610255578063f063e02914610268575b600080fd5b6100e86100e3366004612069565b610288565b60405190151581526020015b60405180910390f35b61011061010b366004611e67565b6102bf565b005b61014e610120366004611f69565b6004602090815260009283526040909220815180830184018051928152908401929093019190912091525481565b6040519081526020016100f4565b61016f61016a366004611f69565b610755565b6040516100f4959493929190612507565b61014e61018e36600461200a565b610839565b6101106101a13660046120e5565b61084e565b6002546101b9906001600160a01b031681565b6040516100f4919061249a565b6101106101d436600461203a565b610e0f565b6101106101e736600461203a565b610e31565b6101ff6101fa366004612091565b610eaf565b604080519283529015156020830152016100f4565b6100e861022236600461203a565b610ef8565b61014e600081565b61011061023d366004611f10565b610f21565b61011061025036600461203a565b611400565b6001546101b9906001600160a01b031681565b61027b610276366004611e15565b61141d565b6040516100f49190612549565b60006001600160e01b03198216637965db0b60e01b14806102b957506301ffc9a760e01b6001600160e01b03198316145b92915050565b600154604080516305b11d3760e01b815290516001600160a01b03909216916391d148549183916305b11d3791600480820192602092909190829003018186803b15801561030c57600080fd5b505afa158015610320573d6000803e3d6000fd5b505050506040513d601f19601f820116820180604052508101906103449190612022565b336040518363ffffffff1660e01b81526004016103629291906124ae565b60206040518083038186803b15801561037a57600080fd5b505afa15801561038e573d6000803e3d6000fd5b505050506040513d601f19601f820116820180604052508101906103b29190611ff0565b6104185760405162461bcd60e51b815260206004820152602c60248201527f4974656d73504c3a204e67756f6920676f69206b686f6e67207068616920546860448201526b0c2dcd040ecd2cadc408488960a31b60648201526084015b60405180910390fd5b600254604051631650d7c160e21b81526000916001600160a01b0316906359435f049061044990899060040161249a565b60006040518083038186803b15801561046157600080fd5b505afa158015610475573d6000803e3d6000fd5b505050506040513d6000823e601f3d908101601f1916820160405261049d9190810190612320565b9050806060015180156104b1575080604001515b61051d5760405162461bcd60e51b815260206004820152603760248201527f4974656d73504c3a204e4343206b686f6e6720746f6e2074616920686f61632060448201527618da1d5848191d5bd8c8109112081c1a1948191d5e595d604a1b606482015260840161040f565b6001600160a01b038616600090815260036020526040808220905161054590889088906123ff565b908152604051908190036020019020600381015490915060ff610100909104166105c65760405162461bcd60e51b815260206004820152602c60248201527f4974656d73504c3a204d61742068616e6720637561204e43432063687561206460448201526b1d5bd8c81b9a595b481e595d60a21b606482015260840161040f565b600381015460ff16156106375760405162461bcd60e51b815260206004820152603360248201527f4974656d73504c3a204d61742068616e67206e617920637561204e43432064616044820152722064756f632070686520647579657420726f6960681b606482015260840161040f565b61067384848080602002602001604051908101604052809392919081815260200183836020028082843760009201919091525061156192505050565b6106f05760405162461bcd60e51b815260206004820152604260248201527f4974656d73504c3a204b686f6e67206475207479206c6520636f207068616e2060448201527f424448207068652064757965742063686f206d61742068616e67204e4343206e606482015261617960f01b608482015260a40161040f565b60038101805460ff19166001179055604051339061071190889088906123ff565b604051908190038120906001600160a01b038a16907fffa7559584da41d8b3dc66ebfe805a6c2e3e8f3f94ec948a1ddfa57edea2d19590600090a450505050505050565b6003602090815260009283526040909220815180830184018051928152908401929093019190912091528054819061078c906126c5565b80601f01602080910402602001604051908101604052809291908181526020018280546107b8906126c5565b80156108055780601f106107da57610100808354040283529160200191610805565b820191906000526020600020905b8154815290600101906020018083116107e857829003601f168201915b505050506001830154600284015460039094015492936001600160a01b039091169290915060ff8082169161010090041685565b60009081526020819052604090206001015490565b600154604080516328a5423f60e21b815290516001600160a01b03909216916391d1485491839163a29508fc91600480820192602092909190829003018186803b15801561089b57600080fd5b505afa1580156108af573d6000803e3d6000fd5b505050506040513d601f19601f820116820180604052508101906108d39190612022565b336040518363ffffffff1660e01b81526004016108f19291906124ae565b60206040518083038186803b15801561090957600080fd5b505afa15801561091d573d6000803e3d6000fd5b505050506040513d601f19601f820116820180604052508101906109419190611ff0565b6109a25760405162461bcd60e51b815260206004820152602c60248201527f4974656d73504c3a204e67756f6920676f69206b686f6e672070686169204e4360448201526b432028524d204e676f61692960a01b606482015260840161040f565b600254604051631650d7c160e21b81526000916001600160a01b0316906359435f04906109d390339060040161249a565b60006040518083038186803b1580156109eb57600080fd5b505afa1580156109ff573d6000803e3d6000fd5b505050506040513d6000823e601f3d908101601f19168201604052610a279190810190612320565b905080606001518015610a3b575080604001515b610a9d5760405162461bcd60e51b815260206004820152602d60248201527f4974656d73504c3a204e434320636875612064756f632064616e67206b79206860448201526c1bd858c81c1a1948191d5e595d609a1b606482015260840161040f565b6002546040516368f11f9960e01b81526000916001600160a01b0316906368f11f9990610ad090889088906004016124c5565b60006040518083038186803b158015610ae857600080fd5b505afa158015610afc573d6000803e3d6000fd5b505050506040513d6000823e601f3d908101601f19168201604052610b24919081019061212e565b905080608001518015610b3857508060a001515b610ba35760405162461bcd60e51b8152602060048201526042602482015260008051602061276083398151915260448201527f686f616320636875612064756f632042444820706865206475796574206368756064820152616e6760f01b608482015260a40161040f565b33600090815260036020526040908190209051610bc390879087906123ff565b9081526040519081900360200190206003015460ff6101009091041615610c3f5760405162461bcd60e51b815260206004820152602a60248201527f4974656d73504c3a204d61742068616e6720637561204e43432064612064756f60448201526918c81b9a595b481e595d60b21b606482015260840161040f565b60008311610c8f5760405162461bcd60e51b815260206004820152601d60248201527f4974656d73504c3a204769612070686169206c6120736f2064756f6e67000000604482015260640161040f565b6000808260e00151118015610ca857508160e001518411155b6040805160c06020601f8a01819004028201810190925260a0810188815292935091829189908990819085018382808284376000920182905250938552505033602080850182905260408086018b90528715156060870152600160809096019590955290835260039052508190209051610d2590899089906123ff565b90815260200160405180910390206000820151816000019080519060200190610d4f929190611cc6565b5060208201516001820180546001600160a01b0319166001600160a01b03909216919091179055604080830151600283015560608301516003909201805460809094015161ffff1990941692151561ff001916929092176101009315159390930292909217905551610dc490879087906123ff565b6040805191829003822086835283151560208401529133917f87f1628ba253ef694374dcd44b8153c87ea09ac3bb7731c1214208b0c822817e910160405180910390a3505050505050565b610e1882610839565b610e228133611991565b610e2c83836119f5565b505050565b6001600160a01b0381163314610ea15760405162461bcd60e51b815260206004820152602f60248201527f416363657373436f6e74726f6c3a2063616e206f6e6c792072656e6f756e636560448201526e103937b632b9903337b91039b2b63360891b606482015260840161040f565b610eab8282611a79565b5050565b6001600160a01b0381166000908152600460205260408082209051829190610eda90879087906123ff565b90815260405190819003602001902054915050801515935093915050565b6000918252602082815260408084206001600160a01b0393909316845291905290205460ff1690565b600154604080516315c37cb960e31b815290516000926001600160a01b03169163ae1be5c8916004808301926020929190829003018186803b158015610f6657600080fd5b505afa158015610f7a573d6000803e3d6000fd5b505050506040513d601f19601f82011682018060405250810190610f9e9190612022565b600154604051632474521560e21b81529192506001600160a01b0316906391d1485490610fd190849033906004016124ae565b60206040518083038186803b158015610fe957600080fd5b505afa158015610ffd573d6000803e3d6000fd5b505050506040513d601f19601f820116820180604052508101906110219190611ff0565b61108d5760405162461bcd60e51b815260206004820152603760248201527f4974656d73504c3a204e67756f6920676f69207468696575207661692074726f604482015276204749414d5f444f435f43482028524d204e676f61692960481b606482015260840161040f565b6002546040516368f11f9960e01b81526000916001600160a01b0316906368f11f99906110c090889088906004016124c5565b60006040518083038186803b1580156110d857600080fd5b505afa1580156110ec573d6000803e3d6000fd5b505050506040513d6000823e601f3d908101601f19168201604052611114919081019061212e565b90508060800151801561112857508060a001515b6111875760405162461bcd60e51b815260206004820152603c602482015260008051602061276083398151915260448201527b1a1bd858c818da1d5848191d5bd8c8109112081c1a1948191d5e595d60221b606482015260840161040f565b60025460405163329a587360e01b81526000916001600160a01b03169063329a5873906111b8908a9060040161249a565b60006040518083038186803b1580156111d057600080fd5b505afa1580156111e4573d6000803e3d6000fd5b505050506040513d6000823e601f3d908101601f1916820160405261120c9190810190612240565b90508060800151801561122057508060a001515b801561127e57506040516453544f524560d81b6020820152602501604051602081830303815290604052805190602001208160400151604051602001611266919061240f565b60405160208183030381529060405280519060200120145b61130e5760405162461bcd60e51b815260206004820152605560248201527f4974656d73504c3a204375612068616e67206b686f6e6720746f6e207461692c60448201527f20636875612064756f6320424448207068652064757965742c20686f6163206b606482015274686f6e672070686169206c61206375612068616e6760581b608482015260a40161040f565b6000841161135e5760405162461bcd60e51b815260206004820181905260248201527f4974656d73504c3a20476961206c652070686169206c6120736f2064756f6e67604482015260640161040f565b6001600160a01b03871660009081526004602052604090819020905185919061138a90899089906123ff565b9081526040519081900360200181209190915533906113ac90889088906123ff565b6040518091039020886001600160a01b03167fbe696f12a96a6f8f4b21e86fe3146518f966e15fc92406bdf63f6b85e0b5377f876040516113ef91815260200190565b60405180910390a450505050505050565b61140982610839565b6114138133611991565b610e2c8383611a79565b6040805160a0810182526060808252600060208301819052928201839052810182905260808101919091526001600160a01b03841660009081526003602052604090819020905161147190859085906123ff565b90815260200160405180910390206040518060a001604052908160008201805461149a906126c5565b80601f01602080910402602001604051908101604052809291908181526020018280546114c6906126c5565b80156115135780601f106114e857610100808354040283529160200191611513565b820191906000526020600020905b8154815290600101906020018083116114f657829003601f168201915b505050918352505060018201546001600160a01b031660208201526002820154604082015260039091015460ff80821615156060840152610100909104161515608090910152949350505050565b600081516000141561157557506000919050565b60008083516001600160401b0381111561159f57634e487b7160e01b600052604160045260246000fd5b6040519080825280602002602001820160405280156115c8578160200160208202803683370190505b5090506000805b85518110156119825760008682815181106115fa57634e487b7160e01b600052603260045260246000fd5b60200260200101519050336001600160a01b0316816001600160a01b0316141561167c5760405162461bcd60e51b815260206004820152602d60248201527f4974656d73504c3a204e67756f692064652078756174206b686f6e672074686560448201526c081d1d481c1a1948191d5e595d609a1b606482015260840161040f565b600154604080516305b11d3760e01b815290516001600160a01b03909216916391d148549183916305b11d3791600480820192602092909190829003018186803b1580156116c957600080fd5b505afa1580156116dd573d6000803e3d6000fd5b505050506040513d601f19601f820116820180604052508101906117019190612022565b836040518363ffffffff1660e01b815260040161171f9291906124ae565b60206040518083038186803b15801561173757600080fd5b505afa15801561174b573d6000803e3d6000fd5b505050506040513d601f19601f8201168201806040525081019061176f9190611ff0565b6117d65760405162461bcd60e51b815260206004820152603260248201527f4974656d73504c3a204e67756f6920706865206475796574206b686f6e6720706044820152710d0c2d240e8d0c2dcd040ecd2cadc408488960731b606482015260840161040f565b6000805b8481101561183e57826001600160a01b031686828151811061180c57634e487b7160e01b600052603260045260246000fd5b60200260200101516001600160a01b0316141561182c576001915061183e565b8061183681612700565b9150506117da565b50801561189b5760405162461bcd60e51b815260206004820152602560248201527f4974656d73504c3a204e67756f6920706865206475796574206269207472756e604482015264067206c61760dc1b606482015260840161040f565b60015460405163e3fcbac160e01b81526001600160a01b039091169063e3fcbac1906118cb90859060040161249a565b60206040518083038186803b1580156118e357600080fd5b505afa1580156118f7573d6000803e3d6000fd5b505050506040513d601f19601f8201168201806040525081019061191b9190612022565b6119259087612647565b95508185858151811061194857634e487b7160e01b600052603260045260246000fd5b6001600160a01b03909216602092830291909101909101528361196a81612700565b9450505050808061197a90612700565b9150506115cf565b50506113889091119392505050565b61199b8282610ef8565b610eab576119b3816001600160a01b03166014611ade565b6119be836020611ade565b6040516020016119cf92919061242b565b60408051601f198184030181529082905262461bcd60e51b825261040f916004016124f4565b6119ff8282610ef8565b610eab576000828152602081815260408083206001600160a01b03851684529091529020805460ff19166001179055611a353390565b6001600160a01b0316816001600160a01b0316837f2f8788117e7eff1d82e926ec794901d17c78024a50270940304540a733656f0d60405160405180910390a45050565b611a838282610ef8565b15610eab576000828152602081815260408083206001600160a01b0385168085529252808320805460ff1916905551339285917ff6391f5c32d9c69d2a47ea670b442974b53935d1edc7fd64eb21e047a839171b9190a45050565b60606000611aed83600261265f565b611af8906002612647565b6001600160401b03811115611b1d57634e487b7160e01b600052604160045260246000fd5b6040519080825280601f01601f191660200182016040528015611b47576020820181803683370190505b509050600360fc1b81600081518110611b7057634e487b7160e01b600052603260045260246000fd5b60200101906001600160f81b031916908160001a905350600f60fb1b81600181518110611bad57634e487b7160e01b600052603260045260246000fd5b60200101906001600160f81b031916908160001a9053506000611bd184600261265f565b611bdc906001612647565b90505b6001811115611c70576f181899199a1a9b1b9c1cb0b131b232b360811b85600f1660108110611c1e57634e487b7160e01b600052603260045260246000fd5b1a60f81b828281518110611c4257634e487b7160e01b600052603260045260246000fd5b60200101906001600160f81b031916908160001a90535060049490941c93611c69816126ae565b9050611bdf565b508315611cbf5760405162461bcd60e51b815260206004820181905260248201527f537472696e67733a20686578206c656e67746820696e73756666696369656e74604482015260640161040f565b9392505050565b828054611cd2906126c5565b90600052602060002090601f016020900481019282611cf45760008555611d3a565b82601f10611d0d57805160ff1916838001178555611d3a565b82800160010185558215611d3a579182015b82811115611d3a578251825591602001919060010190611d1f565b50611d46929150611d4a565b5090565b5b80821115611d465760008155600101611d4b565b8051611d6a81612747565b919050565b80518015158114611d6a57600080fd5b60008083601f840112611d90578182fd5b5081356001600160401b03811115611da6578182fd5b602083019150836020828501011115611dbe57600080fd5b9250929050565b600082601f830112611dd5578081fd5b8151611de8611de382612620565b6125f0565b818152846020838601011115611dfc578283fd5b611e0d82602083016020870161267e565b949350505050565b600080600060408486031215611e29578283fd5b8335611e3481612747565b925060208401356001600160401b03811115611e4e578283fd5b611e5a86828701611d7f565b9497909650939450505050565b600080600080600060608688031215611e7e578081fd5b8535611e8981612747565b945060208601356001600160401b0380821115611ea4578283fd5b611eb089838a01611d7f565b90965094506040880135915080821115611ec8578283fd5b818801915088601f830112611edb578283fd5b813581811115611ee9578384fd5b8960208260051b8501011115611efd578384fd5b9699959850939650602001949392505050565b60008060008060608587031215611f25578384fd5b8435611f3081612747565b935060208501356001600160401b03811115611f4a578384fd5b611f5687828801611d7f565b9598909750949560400135949350505050565b60008060408385031215611f7b578182fd5b8235611f8681612747565b915060208301356001600160401b03811115611fa0578182fd5b8301601f81018513611fb0578182fd5b8035611fbe611de382612620565b818152866020838501011115611fd2578384fd5b81602084016020830137908101602001929092525090939092509050565b600060208284031215612001578081fd5b611cbf82611d6f565b60006020828403121561201b578081fd5b5035919050565b600060208284031215612033578081fd5b5051919050565b6000806040838503121561204c578182fd5b82359150602083013561205e81612747565b809150509250929050565b60006020828403121561207a578081fd5b81356001600160e01b031981168114611cbf578182fd5b6000806000604084860312156120a5578081fd5b83356001600160401b038111156120ba578182fd5b6120c686828701611d7f565b90945092505060208401356120da81612747565b809150509250925092565b6000806000604084860312156120f9578081fd5b83356001600160401b0381111561210e578182fd5b61211a86828701611d7f565b909790965060209590950135949350505050565b60006020828403121561213f578081fd5b81516001600160401b0380821115612155578283fd5b908301906101008286031215612169578283fd5b6121716125a5565b82518281111561217f578485fd5b61218b87828601611dc5565b82525060208301518281111561219f578485fd5b6121ab87828601611dc5565b6020830152506040830151828111156121c2578485fd5b6121ce87828601611dc5565b6040830152506060830151828111156121e5578485fd5b6121f187828601611dc5565b60608301525061220360808401611d6f565b608082015261221460a08401611d6f565b60a082015261222560c08401611d5f565b60c082015260e083015160e082015280935050505092915050565b600060208284031215612251578081fd5b81516001600160401b0380821115612267578283fd5b9083019060e0828603121561227a578283fd5b6122826125ce565b61228b83611d5f565b815260208301518281111561229e578485fd5b6122aa87828601611dc5565b6020830152506040830151828111156122c1578485fd5b6122cd87828601611dc5565b6040830152506122df60608401611d5f565b60608201526122f060808401611d6f565b608082015261230160a08401611d6f565b60a082015261231260c08401611d5f565b60c082015295945050505050565b600060208284031215612331578081fd5b81516001600160401b0380821115612347578283fd5b908301906080828603121561235a578283fd5b60405160808101818110838211171561237557612375612731565b604052825161238381612747565b8152602083015182811115612396578485fd5b6123a287828601611dc5565b6020830152506123b460408401611d6f565b60408201526123c560608401611d6f565b606082015295945050505050565b600081518084526123eb81602086016020860161267e565b601f01601f19169290920160200192915050565b8183823760009101908152919050565b6000825161242181846020870161267e565b9190910192915050565b76020b1b1b2b9b9a1b7b73a3937b61d1030b1b1b7bab73a1604d1b81526000835161245d81601785016020880161267e565b7001034b99036b4b9b9b4b733903937b6329607d1b601791840191820152835161248e81602884016020880161267e565b01602801949350505050565b6001600160a01b0391909116815260200190565b9182526001600160a01b0316602082015260400190565b60208152816020820152818360408301376000818301604090810191909152601f909201601f19160101919050565b602081526000611cbf60208301846123d3565b60a08152600061251a60a08301886123d3565b6001600160a01b0396909616602083015250604081019390935290151560608301521515608090910152919050565b602081526000825160a0602084015261256560c08401826123d3565b905060018060a01b036020850151166040840152604084015160608401526060840151151560808401526080840151151560a08401528091505092915050565b60405161010081016001600160401b03811182821017156125c8576125c8612731565b60405290565b60405160e081016001600160401b03811182821017156125c8576125c8612731565b604051601f8201601f191681016001600160401b038111828210171561261857612618612731565b604052919050565b60006001600160401b0382111561263957612639612731565b50601f01601f191660200190565b6000821982111561265a5761265a61271b565b500190565b60008160001904831182151516156126795761267961271b565b500290565b60005b83811015612699578181015183820152602001612681565b838111156126a8576000848401525b50505050565b6000816126bd576126bd61271b565b506000190190565b600181811c908216806126d957607f821691505b602082108114156126fa57634e487b7160e01b600052602260045260246000fd5b50919050565b60006000198214156127145761271461271b565b5060010190565b634e487b7160e01b600052601160045260246000fd5b634e487b7160e01b600052604160045260246000fd5b6001600160a01b038116811461275c57600080fd5b5056fe4974656d73504c3a204d61742068616e67206b686f6e6720746f6e2074616920a2646970667358221220b797732a1d7f92174428afbf52706206f442f412edaf2f9cc2178b1f7aa074dd64736f6c63430008040033",
  "immutableReferences": {},
  "source": "// SPDX-License-Identifier: MIT\r\npragma solidity ^0.8.4;\r\n\r\nimport \"@openzeppelin/contracts/access/AccessControl.sol\";\r\nimport \"./Interfaces.sol\"; // Import file Interfaces.sol tp trung\r\n\r\ncontract ItemsPricingAndListing is AccessControl {\r\n    IRoleManagement public roleManagementExternal;\r\n    IItemsManagementCoreInterface public itemsManagementCore; //  tham chiu n ItemsManagementCore\r\n\r\n    // --- STRUCT DEFINITIONS ---\r\n    // SupplierItemListing c nh ngha trong Interfaces.sol\r\n\r\n    // --- MAPPINGS ---\r\n    mapping(address => mapping(string => SupplierItemListing)) public supplierItemListings;\r\n    mapping(address => mapping(string => uint256)) public storeItemRetailPrices;\r\n\r\n    // --- EVENTS (ch nhng event lin quan n pricing/listing) ---\r\n    event SupplierItemListed(address indexed supplierAddress, string indexed itemId, uint256 price, bool autoApproved);\r\n    event SupplierItemManuallyApprovedByBoard(address indexed supplierAddress, string indexed itemId, address indexed approver);\r\n    event RetailPriceSet(address indexed storeAddress, string indexed itemId, uint256 price, address indexed byStoreDirector);\r\n\r\n    constructor(address _roleManagementExternalAddress, address _itemsManagementCoreAddress) {\r\n        require(_roleManagementExternalAddress != address(0), \"ItemsPL: Dia chi RM Ngoai khong hop le\");\r\n        roleManagementExternal = IRoleManagement(_roleManagementExternalAddress);\r\n        require(_itemsManagementCoreAddress != address(0), \"ItemsPL: Dia chi ItemsMCore khong hop le\");\r\n        itemsManagementCore = IItemsManagementCoreInterface(_itemsManagementCoreAddress);\r\n        _setupRole(DEFAULT_ADMIN_ROLE, msg.sender);\r\n    }\r\n\r\n    modifier onlyBoardMember() {\r\n        require(roleManagementExternal.hasRole(roleManagementExternal.BOARD_ROLE(), msg.sender), \"ItemsPL: Nguoi goi khong phai Thanh vien BDH\");\r\n        _;\r\n    }\r\n\r\n    modifier onlySupplier() {\r\n        require(roleManagementExternal.hasRole(roleManagementExternal.SUPPLIER_ROLE(), msg.sender), \"ItemsPL: Nguoi goi khong phai NCC (RM Ngoai)\");\r\n        // Kim tra NCC tn ti v c duyt trong ItemsManagementCore\r\n        SupplierInfo memory supInfo = itemsManagementCore.getSupplierInfo(msg.sender);\r\n        require(supInfo.exists && supInfo.isApprovedByBoard, \"ItemsPL: NCC chua duoc dang ky hoac phe duyet\");\r\n        _;\r\n    }\r\n\r\n    modifier onlyStoreDirector() {\r\n        bytes32 sdRole = roleManagementExternal.STORE_DIRECTOR_ROLE();\r\n        require(roleManagementExternal.hasRole(sdRole, msg.sender), \"ItemsPL: Nguoi goi thieu vai tro GIAM_DOC_CH (RM Ngoai)\");\r\n        _;\r\n    }\r\n    \r\n    // _getBoardApproval c th c gi li  y hoc ItemsManagementCore c th cung cp 1 hm public nu cn\r\n    function _getBoardApproval(address[] memory _approvers) internal view returns (bool) {\r\n        if (_approvers.length == 0) return false;\r\n        uint256 totalApprovalShares = 0;\r\n        address[] memory processedApprovers = new address[](_approvers.length);\r\n        uint processedCount = 0;\r\n\r\n        for (uint i = 0; i < _approvers.length; i++) {\r\n            address approver = _approvers[i];\r\n            require(approver != msg.sender, \"ItemsPL: Nguoi de xuat khong the tu phe duyet\");\r\n            require(roleManagementExternal.hasRole(roleManagementExternal.BOARD_ROLE(), approver), \"ItemsPL: Nguoi phe duyet khong phai thanh vien BDH\");\r\n\r\n            bool alreadyProcessed = false;\r\n            for (uint j = 0; j < processedCount; j++) {\r\n                if (processedApprovers[j] == approver) {\r\n                    alreadyProcessed = true;\r\n                    break;\r\n                }\r\n            }\r\n            require(!alreadyProcessed, \"ItemsPL: Nguoi phe duyet bi trung lap\");\r\n            totalApprovalShares += roleManagementExternal.getSharesPercentage(approver);\r\n            processedApprovers[processedCount] = approver;\r\n            processedCount++;\r\n        }\r\n        return totalApprovalShares > 5000; // 5000 means > 50.00%\r\n    }\r\n\r\n\r\n    // --- NIM YT V PH DUYT MT HNG CA NH CUNG CP ---\r\n    function listSupplierItem(string calldata _itemId, uint256 _price) external onlySupplier {\r\n        ItemInfo memory itemInfo = itemsManagementCore.getItemInfo(_itemId); // Gi n ItemsManagementCore\r\n        require(itemInfo.exists && itemInfo.isApprovedByBoard, \"ItemsPL: Mat hang khong ton tai hoac chua duoc BDH phe duyet chung\");\r\n        require(!supplierItemListings[msg.sender][_itemId].exists, \"ItemsPL: Mat hang cua NCC da duoc niem yet\");\r\n        require(_price > 0, \"ItemsPL: Gia phai la so duong\");\r\n\r\n        bool autoApproved = (itemInfo.referencePriceCeiling > 0 && _price <= itemInfo.referencePriceCeiling);\r\n\r\n        supplierItemListings[msg.sender][_itemId] = SupplierItemListing({\r\n            itemId: _itemId,\r\n            supplierAddress: msg.sender,\r\n            price: _price,\r\n            isApprovedByBoard: autoApproved,\r\n            exists: true\r\n        });\r\n        emit SupplierItemListed(msg.sender, _itemId, _price, autoApproved);\r\n    }\r\n\r\n    function approveSupplierItemManuallyByBoard(address _supplierAddress, string calldata _itemId, address[] calldata _approvers) external onlyBoardMember {\r\n        SupplierInfo memory supInfo = itemsManagementCore.getSupplierInfo(_supplierAddress); // Gi n ItemsManagementCore\r\n        require(supInfo.exists && supInfo.isApprovedByBoard, \"ItemsPL: NCC khong ton tai hoac chua duoc BDH phe duyet\");\r\n        \r\n        SupplierItemListing storage listing = supplierItemListings[_supplierAddress][_itemId];\r\n        require(listing.exists, \"ItemsPL: Mat hang cua NCC chua duoc niem yet\");\r\n        require(!listing.isApprovedByBoard, \"ItemsPL: Mat hang nay cua NCC da duoc phe duyet roi\");\r\n        require(_getBoardApproval(_approvers), \"ItemsPL: Khong du ty le co phan BDH phe duyet cho mat hang NCC nay\");\r\n\r\n        listing.isApprovedByBoard = true;\r\n        emit SupplierItemManuallyApprovedByBoard(_supplierAddress, _itemId, msg.sender);\r\n    }\r\n\r\n    // --- THIT LP GI BN L TI CA HNG ---\r\n    function setStoreItemRetailPrice(address _storeAddress, string calldata _itemId, uint256 _price) external onlyStoreDirector {\r\n        ItemInfo memory itemInfo = itemsManagementCore.getItemInfo(_itemId); // Gi n ItemsManagementCore\r\n        require(itemInfo.exists && itemInfo.isApprovedByBoard, \"ItemsPL: Mat hang khong ton tai hoac chua duoc BDH phe duyet\");\r\n        \r\n        PhysicalLocationInfo memory storeInfo = itemsManagementCore.getStoreInfo(_storeAddress); // Gi n ItemsManagementCore\r\n        require(storeInfo.exists && storeInfo.isApprovedByBoard && keccak256(abi.encodePacked(storeInfo.locationType)) == keccak256(abi.encodePacked(\"STORE\")), \"ItemsPL: Cua hang khong ton tai, chua duoc BDH phe duyet, hoac khong phai la cua hang\");\r\n        require(_price > 0, \"ItemsPL: Gia le phai la so duong\");\r\n\r\n        storeItemRetailPrices[_storeAddress][_itemId] = _price;\r\n        emit RetailPriceSet(_storeAddress, _itemId, _price, msg.sender);\r\n    }\r\n\r\n    // --- VIEW FUNCTIONS (implementing IItemsPricingAndListingInterface) ---\r\n    function getSupplierItemDetails(address _supplierAddress, string calldata _itemId) external view returns (SupplierItemListing memory) {\r\n        return supplierItemListings[_supplierAddress][_itemId];\r\n    }\r\n\r\n    function getItemRetailPriceAtStore(string calldata _itemId, address _storeAddress) external view returns (uint256 price, bool priceExists) {\r\n        price = storeItemRetailPrices[_storeAddress][_itemId];\r\n        return (price, price > 0);\r\n    }\r\n}",
  "sourcePath": "D:\\nhi\\Logtech\\New tech in Log\\dapp2\\SC\\contracts\\ItemsPricingandListing.sol",
  "compiler": {
    "name": "solc",
    "version": "0.8.4+commit.c7e474f2.Emscripten.clang"
  },
  "schemaVersion": "3.4.16",
  "updatedAt": "2025-06-03T05:39:59.339Z",
  "networkType": "ethereum",
  "devdoc": {
    "kind": "dev",
    "methods": {
      "getRoleAdmin(bytes32)": {
        "details": "Returns the admin role that controls `role`. See {grantRole} and {revokeRole}. To change a role's admin, use {_setRoleAdmin}."
      },
      "grantRole(bytes32,address)": {
        "details": "Grants `role` to `account`. If `account` had not been already granted `role`, emits a {RoleGranted} event. Requirements: - the caller must have ``role``'s admin role."
      },
      "hasRole(bytes32,address)": {
        "details": "Returns `true` if `account` has been granted `role`."
      },
      "renounceRole(bytes32,address)": {
        "details": "Revokes `role` from the calling account. Roles are often managed via {grantRole} and {revokeRole}: this function's purpose is to provide a mechanism for accounts to lose their privileges if they are compromised (such as when a trusted device is misplaced). If the calling account had been granted `role`, emits a {RoleRevoked} event. Requirements: - the caller must be `account`."
      },
      "revokeRole(bytes32,address)": {
        "details": "Revokes `role` from `account`. If `account` had been granted `role`, emits a {RoleRevoked} event. Requirements: - the caller must have ``role``'s admin role."
      },
      "supportsInterface(bytes4)": {
        "details": "See {IERC165-supportsInterface}."
      }
    },
    "version": 1
  },
  "userdoc": {
    "kind": "user",
    "methods": {},
    "version": 1
  }
}