{
  "contractName": "ItemsManagement",
  "abi": [
    {
      "inputs": [
        {
          "internalType": "address",
          "name": "_roleManagementExternalAddress",
          "type": "address"
        }
      ],
      "stateMutability": "nonpayable",
      "type": "constructor"
    },
    {
      "inputs": [
        {
          "internalType": "string",
          "name": "entityType",
          "type": "string"
        },
        {
          "internalType": "string",
          "name": "entityId",
          "type": "string"
        }
      ],
      "name": "AlreadyExists",
      "type": "error"
    },
    {
      "inputs": [
        {
          "internalType": "string",
          "name": "entityType",
          "type": "string"
        },
        {
          "internalType": "address",
          "name": "entityAddr",
          "type": "address"
        }
      ],
      "name": "AlreadyExistsAddress",
      "type": "error"
    },
    {
      "inputs": [
        {
          "internalType": "string",
          "name": "reason",
          "type": "string"
        }
      ],
      "name": "ApprovalFailed",
      "type": "error"
    },
    {
      "inputs": [
        {
          "internalType": "address",
          "name": "caller",
          "type": "address"
        },
        {
          "internalType": "bytes32",
          "name": "requiredRole",
          "type": "bytes32"
        }
      ],
      "name": "CallerNotAuthorized",
      "type": "error"
    },
    {
      "inputs": [
        {
          "internalType": "address",
          "name": "proposer",
          "type": "address"
        }
      ],
      "name": "CannotSelfApprove",
      "type": "error"
    },
    {
      "inputs": [
        {
          "internalType": "address",
          "name": "approver",
          "type": "address"
        }
      ],
      "name": "DuplicateApprover",
      "type": "error"
    },
    {
      "inputs": [
        {
          "internalType": "address",
          "name": "addr",
          "type": "address"
        }
      ],
      "name": "InvalidAddress",
      "type": "error"
    },
    {
      "inputs": [
        {
          "internalType": "string",
          "name": "providedType",
          "type": "string"
        }
      ],
      "name": "InvalidLocationType",
      "type": "error"
    },
    {
      "inputs": [
        {
          "internalType": "address",
          "name": "warehouseAddress",
          "type": "address"
        }
      ],
      "name": "InvalidSourceWarehouse",
      "type": "error"
    },
    {
      "inputs": [
        {
          "internalType": "string",
          "name": "action",
          "type": "string"
        }
      ],
      "name": "InvalidStateForAction",
      "type": "error"
    },
    {
      "inputs": [
        {
          "internalType": "address",
          "name": "locationId",
          "type": "address"
        },
        {
          "internalType": "address",
          "name": "currentManager",
          "type": "address"
        }
      ],
      "name": "ManagerAlreadyAssigned",
      "type": "error"
    },
    {
      "inputs": [
        {
          "internalType": "address",
          "name": "candidateManager",
          "type": "address"
        },
        {
          "internalType": "bytes32",
          "name": "expectedRole",
          "type": "bytes32"
        }
      ],
      "name": "ManagerRoleMissing",
      "type": "error"
    },
    {
      "inputs": [
        {
          "internalType": "string",
          "name": "entityType",
          "type": "string"
        },
        {
          "internalType": "string",
          "name": "entityId",
          "type": "string"
        }
      ],
      "name": "NotApproved",
      "type": "error"
    },
    {
      "inputs": [
        {
          "internalType": "string",
          "name": "entityType",
          "type": "string"
        },
        {
          "internalType": "address",
          "name": "entityAddr",
          "type": "address"
        }
      ],
      "name": "NotApprovedAddress",
      "type": "error"
    },
    {
      "inputs": [
        {
          "internalType": "string",
          "name": "entityType",
          "type": "string"
        },
        {
          "internalType": "string",
          "name": "entityId",
          "type": "string"
        }
      ],
      "name": "NotFound",
      "type": "error"
    },
    {
      "inputs": [
        {
          "internalType": "string",
          "name": "entityType",
          "type": "string"
        },
        {
          "internalType": "address",
          "name": "entityAddr",
          "type": "address"
        }
      ],
      "name": "NotFoundAddress",
      "type": "error"
    },
    {
      "inputs": [
        {
          "internalType": "string",
          "name": "fieldName",
          "type": "string"
        }
      ],
      "name": "StringTooShort",
      "type": "error"
    },
    {
      "inputs": [
        {
          "internalType": "address",
          "name": "supplierAddress",
          "type": "address"
        }
      ],
      "name": "SupplierMissingRole",
      "type": "error"
    },
    {
      "inputs": [
        {
          "internalType": "string",
          "name": "fieldName",
          "type": "string"
        }
      ],
      "name": "ValueMustBePositive",
      "type": "error"
    },
    {
      "anonymous": false,
      "inputs": [
        {
          "indexed": true,
          "internalType": "string",
          "name": "itemId",
          "type": "string"
        },
        {
          "indexed": false,
          "internalType": "uint256",
          "name": "referencePriceCeiling",
          "type": "uint256"
        },
        {
          "indexed": true,
          "internalType": "address",
          "name": "finalApprover",
          "type": "address"
        }
      ],
      "name": "ItemApprovedByBoard",
      "type": "event"
    },
    {
      "anonymous": false,
      "inputs": [
        {
          "indexed": true,
          "internalType": "string",
          "name": "itemId",
          "type": "string"
        },
        {
          "indexed": false,
          "internalType": "string",
          "name": "name",
          "type": "string"
        },
        {
          "indexed": true,
          "internalType": "address",
          "name": "proposer",
          "type": "address"
        }
      ],
      "name": "ItemProposed",
      "type": "event"
    },
    {
      "anonymous": false,
      "inputs": [
        {
          "indexed": true,
          "internalType": "address",
          "name": "locationId",
          "type": "address"
        },
        {
          "indexed": true,
          "internalType": "address",
          "name": "finalApprover",
          "type": "address"
        }
      ],
      "name": "PhysicalLocationApprovedByBoard",
      "type": "event"
    },
    {
      "anonymous": false,
      "inputs": [
        {
          "indexed": true,
          "internalType": "address",
          "name": "locationId",
          "type": "address"
        },
        {
          "indexed": false,
          "internalType": "address",
          "name": "newManager",
          "type": "address"
        },
        {
          "indexed": true,
          "internalType": "address",
          "name": "byDirector",
          "type": "address"
        }
      ],
      "name": "PhysicalLocationManagerAssigned",
      "type": "event"
    },
    {
      "anonymous": false,
      "inputs": [
        {
          "indexed": true,
          "internalType": "address",
          "name": "locationId",
          "type": "address"
        },
        {
          "indexed": false,
          "internalType": "string",
          "name": "name",
          "type": "string"
        },
        {
          "indexed": false,
          "internalType": "string",
          "name": "locationType",
          "type": "string"
        },
        {
          "indexed": true,
          "internalType": "address",
          "name": "proposer",
          "type": "address"
        }
      ],
      "name": "PhysicalLocationProposed",
      "type": "event"
    },
    {
      "anonymous": false,
      "inputs": [
        {
          "indexed": true,
          "internalType": "address",
          "name": "storeAddress",
          "type": "address"
        },
        {
          "indexed": true,
          "internalType": "string",
          "name": "itemId",
          "type": "string"
        },
        {
          "indexed": false,
          "internalType": "uint256",
          "name": "price",
          "type": "uint256"
        },
        {
          "indexed": true,
          "internalType": "address",
          "name": "byStoreDirector",
          "type": "address"
        }
      ],
      "name": "RetailPriceSet",
      "type": "event"
    },
    {
      "anonymous": false,
      "inputs": [
        {
          "indexed": true,
          "internalType": "bytes32",
          "name": "role",
          "type": "bytes32"
        },
        {
          "indexed": true,
          "internalType": "bytes32",
          "name": "previousAdminRole",
          "type": "bytes32"
        },
        {
          "indexed": true,
          "internalType": "bytes32",
          "name": "newAdminRole",
          "type": "bytes32"
        }
      ],
      "name": "RoleAdminChanged",
      "type": "event"
    },
    {
      "anonymous": false,
      "inputs": [
        {
          "indexed": true,
          "internalType": "bytes32",
          "name": "role",
          "type": "bytes32"
        },
        {
          "indexed": true,
          "internalType": "address",
          "name": "account",
          "type": "address"
        },
        {
          "indexed": true,
          "internalType": "address",
          "name": "sender",
          "type": "address"
        }
      ],
      "name": "RoleGranted",
      "type": "event"
    },
    {
      "anonymous": false,
      "inputs": [
        {
          "indexed": true,
          "internalType": "bytes32",
          "name": "role",
          "type": "bytes32"
        },
        {
          "indexed": true,
          "internalType": "address",
          "name": "account",
          "type": "address"
        },
        {
          "indexed": true,
          "internalType": "address",
          "name": "sender",
          "type": "address"
        }
      ],
      "name": "RoleRevoked",
      "type": "event"
    },
    {
      "anonymous": false,
      "inputs": [
        {
          "indexed": true,
          "internalType": "address",
          "name": "storeAddress",
          "type": "address"
        },
        {
          "indexed": true,
          "internalType": "address",
          "name": "designatedWarehouse",
          "type": "address"
        },
        {
          "indexed": true,
          "internalType": "address",
          "name": "byStoreDirector",
          "type": "address"
        }
      ],
      "name": "StoreDesignatedSourceWarehouseSet",
      "type": "event"
    },
    {
      "anonymous": false,
      "inputs": [
        {
          "indexed": true,
          "internalType": "address",
          "name": "supplierId",
          "type": "address"
        },
        {
          "indexed": true,
          "internalType": "address",
          "name": "finalApprover",
          "type": "address"
        }
      ],
      "name": "SupplierApprovedByBoard",
      "type": "event"
    },
    {
      "anonymous": false,
      "inputs": [
        {
          "indexed": true,
          "internalType": "address",
          "name": "supplierAddress",
          "type": "address"
        },
        {
          "indexed": true,
          "internalType": "string",
          "name": "itemId",
          "type": "string"
        },
        {
          "indexed": false,
          "internalType": "uint256",
          "name": "price",
          "type": "uint256"
        },
        {
          "indexed": false,
          "internalType": "bool",
          "name": "autoApproved",
          "type": "bool"
        }
      ],
      "name": "SupplierItemListed",
      "type": "event"
    },
    {
      "anonymous": false,
      "inputs": [
        {
          "indexed": true,
          "internalType": "address",
          "name": "supplierAddress",
          "type": "address"
        },
        {
          "indexed": true,
          "internalType": "string",
          "name": "itemId",
          "type": "string"
        },
        {
          "indexed": true,
          "internalType": "address",
          "name": "approver",
          "type": "address"
        }
      ],
      "name": "SupplierItemManuallyApprovedByBoard",
      "type": "event"
    },
    {
      "anonymous": false,
      "inputs": [
        {
          "indexed": true,
          "internalType": "address",
          "name": "supplierId",
          "type": "address"
        },
        {
          "indexed": false,
          "internalType": "string",
          "name": "name",
          "type": "string"
        },
        {
          "indexed": true,
          "internalType": "address",
          "name": "proposer",
          "type": "address"
        }
      ],
      "name": "SupplierProposed",
      "type": "event"
    },
    {
      "inputs": [],
      "name": "DEFAULT_ADMIN_ROLE",
      "outputs": [
        {
          "internalType": "bytes32",
          "name": "",
          "type": "bytes32"
        }
      ],
      "stateMutability": "view",
      "type": "function"
    },
    {
      "inputs": [
        {
          "internalType": "bytes32",
          "name": "role",
          "type": "bytes32"
        }
      ],
      "name": "getRoleAdmin",
      "outputs": [
        {
          "internalType": "bytes32",
          "name": "",
          "type": "bytes32"
        }
      ],
      "stateMutability": "view",
      "type": "function"
    },
    {
      "inputs": [
        {
          "internalType": "bytes32",
          "name": "role",
          "type": "bytes32"
        },
        {
          "internalType": "address",
          "name": "account",
          "type": "address"
        }
      ],
      "name": "grantRole",
      "outputs": [],
      "stateMutability": "nonpayable",
      "type": "function"
    },
    {
      "inputs": [
        {
          "internalType": "bytes32",
          "name": "role",
          "type": "bytes32"
        },
        {
          "internalType": "address",
          "name": "account",
          "type": "address"
        }
      ],
      "name": "hasRole",
      "outputs": [
        {
          "internalType": "bool",
          "name": "",
          "type": "bool"
        }
      ],
      "stateMutability": "view",
      "type": "function"
    },
    {
      "inputs": [
        {
          "internalType": "uint256",
          "name": "",
          "type": "uint256"
        }
      ],
      "name": "itemIds",
      "outputs": [
        {
          "internalType": "string",
          "name": "",
          "type": "string"
        }
      ],
      "stateMutability": "view",
      "type": "function"
    },
    {
      "inputs": [
        {
          "internalType": "string",
          "name": "",
          "type": "string"
        }
      ],
      "name": "items",
      "outputs": [
        {
          "internalType": "string",
          "name": "itemId",
          "type": "string"
        },
        {
          "internalType": "string",
          "name": "name",
          "type": "string"
        },
        {
          "internalType": "string",
          "name": "description",
          "type": "string"
        },
        {
          "internalType": "string",
          "name": "category",
          "type": "string"
        },
        {
          "internalType": "bool",
          "name": "exists",
          "type": "bool"
        },
        {
          "internalType": "bool",
          "name": "isApprovedByBoard",
          "type": "bool"
        },
        {
          "internalType": "address",
          "name": "proposer",
          "type": "address"
        },
        {
          "internalType": "uint256",
          "name": "referencePriceCeiling",
          "type": "uint256"
        }
      ],
      "stateMutability": "view",
      "type": "function"
    },
    {
      "inputs": [
        {
          "internalType": "uint256",
          "name": "",
          "type": "uint256"
        }
      ],
      "name": "locationAddresses",
      "outputs": [
        {
          "internalType": "address",
          "name": "",
          "type": "address"
        }
      ],
      "stateMutability": "view",
      "type": "function"
    },
    {
      "inputs": [
        {
          "internalType": "address",
          "name": "",
          "type": "address"
        }
      ],
      "name": "physicalLocations",
      "outputs": [
        {
          "internalType": "address",
          "name": "locationId",
          "type": "address"
        },
        {
          "internalType": "string",
          "name": "name",
          "type": "string"
        },
        {
          "internalType": "string",
          "name": "locationType",
          "type": "string"
        },
        {
          "internalType": "address",
          "name": "manager",
          "type": "address"
        },
        {
          "internalType": "bool",
          "name": "exists",
          "type": "bool"
        },
        {
          "internalType": "bool",
          "name": "isApprovedByBoard",
          "type": "bool"
        },
        {
          "internalType": "address",
          "name": "designatedSourceWarehouseAddress",
          "type": "address"
        }
      ],
      "stateMutability": "view",
      "type": "function"
    },
    {
      "inputs": [
        {
          "internalType": "bytes32",
          "name": "role",
          "type": "bytes32"
        },
        {
          "internalType": "address",
          "name": "account",
          "type": "address"
        }
      ],
      "name": "renounceRole",
      "outputs": [],
      "stateMutability": "nonpayable",
      "type": "function"
    },
    {
      "inputs": [
        {
          "internalType": "bytes32",
          "name": "role",
          "type": "bytes32"
        },
        {
          "internalType": "address",
          "name": "account",
          "type": "address"
        }
      ],
      "name": "revokeRole",
      "outputs": [],
      "stateMutability": "nonpayable",
      "type": "function"
    },
    {
      "inputs": [],
      "name": "roleManagementExternal",
      "outputs": [
        {
          "internalType": "contract IRoleManagement",
          "name": "",
          "type": "address"
        }
      ],
      "stateMutability": "view",
      "type": "function"
    },
    {
      "inputs": [
        {
          "internalType": "address",
          "name": "",
          "type": "address"
        },
        {
          "internalType": "string",
          "name": "",
          "type": "string"
        }
      ],
      "name": "storeItemRetailPrices",
      "outputs": [
        {
          "internalType": "uint256",
          "name": "",
          "type": "uint256"
        }
      ],
      "stateMutability": "view",
      "type": "function"
    },
    {
      "inputs": [
        {
          "internalType": "uint256",
          "name": "",
          "type": "uint256"
        }
      ],
      "name": "supplierAddresses",
      "outputs": [
        {
          "internalType": "address",
          "name": "",
          "type": "address"
        }
      ],
      "stateMutability": "view",
      "type": "function"
    },
    {
      "inputs": [
        {
          "internalType": "address",
          "name": "",
          "type": "address"
        },
        {
          "internalType": "string",
          "name": "",
          "type": "string"
        }
      ],
      "name": "supplierItemListings",
      "outputs": [
        {
          "internalType": "string",
          "name": "itemId",
          "type": "string"
        },
        {
          "internalType": "address",
          "name": "supplierAddress",
          "type": "address"
        },
        {
          "internalType": "uint256",
          "name": "price",
          "type": "uint256"
        },
        {
          "internalType": "bool",
          "name": "isApprovedByBoard",
          "type": "bool"
        },
        {
          "internalType": "bool",
          "name": "exists",
          "type": "bool"
        }
      ],
      "stateMutability": "view",
      "type": "function"
    },
    {
      "inputs": [
        {
          "internalType": "address",
          "name": "",
          "type": "address"
        }
      ],
      "name": "suppliers",
      "outputs": [
        {
          "internalType": "address",
          "name": "supplierId",
          "type": "address"
        },
        {
          "internalType": "string",
          "name": "name",
          "type": "string"
        },
        {
          "internalType": "bool",
          "name": "isApprovedByBoard",
          "type": "bool"
        },
        {
          "internalType": "bool",
          "name": "exists",
          "type": "bool"
        }
      ],
      "stateMutability": "view",
      "type": "function"
    },
    {
      "inputs": [
        {
          "internalType": "bytes4",
          "name": "interfaceId",
          "type": "bytes4"
        }
      ],
      "name": "supportsInterface",
      "outputs": [
        {
          "internalType": "bool",
          "name": "",
          "type": "bool"
        }
      ],
      "stateMutability": "view",
      "type": "function"
    },
    {
      "inputs": [
        {
          "internalType": "string",
          "name": "_itemId",
          "type": "string"
        },
        {
          "internalType": "string",
          "name": "_name",
          "type": "string"
        },
        {
          "internalType": "string",
          "name": "_description",
          "type": "string"
        },
        {
          "internalType": "string",
          "name": "_category",
          "type": "string"
        }
      ],
      "name": "proposeNewItem",
      "outputs": [],
      "stateMutability": "nonpayable",
      "type": "function"
    },
    {
      "inputs": [
        {
          "internalType": "string",
          "name": "_itemId",
          "type": "string"
        },
        {
          "internalType": "uint256",
          "name": "_referencePriceCeiling",
          "type": "uint256"
        },
        {
          "internalType": "address[]",
          "name": "_approvers",
          "type": "address[]"
        }
      ],
      "name": "approveProposedItem",
      "outputs": [],
      "stateMutability": "nonpayable",
      "type": "function"
    },
    {
      "inputs": [
        {
          "internalType": "address",
          "name": "_locationId",
          "type": "address"
        },
        {
          "internalType": "string",
          "name": "_name",
          "type": "string"
        },
        {
          "internalType": "string",
          "name": "_locationType",
          "type": "string"
        }
      ],
      "name": "proposeNewPhysicalLocation",
      "outputs": [],
      "stateMutability": "nonpayable",
      "type": "function"
    },
    {
      "inputs": [
        {
          "internalType": "address",
          "name": "_locationId",
          "type": "address"
        },
        {
          "internalType": "address[]",
          "name": "_approvers",
          "type": "address[]"
        }
      ],
      "name": "approveProposedPhysicalLocation",
      "outputs": [],
      "stateMutability": "nonpayable",
      "type": "function"
    },
    {
      "inputs": [
        {
          "internalType": "address",
          "name": "_locationId",
          "type": "address"
        },
        {
          "internalType": "address",
          "name": "_managerId",
          "type": "address"
        }
      ],
      "name": "assignManagerToLocation",
      "outputs": [],
      "stateMutability": "nonpayable",
      "type": "function"
    },
    {
      "inputs": [
        {
          "internalType": "address",
          "name": "_storeAddress",
          "type": "address"
        },
        {
          "internalType": "address",
          "name": "_warehouseAddress",
          "type": "address"
        }
      ],
      "name": "setDesignatedSourceWarehouseForStore",
      "outputs": [],
      "stateMutability": "nonpayable",
      "type": "function"
    },
    {
      "inputs": [
        {
          "internalType": "address",
          "name": "_supplierId",
          "type": "address"
        },
        {
          "internalType": "string",
          "name": "_name",
          "type": "string"
        }
      ],
      "name": "proposeNewSupplier",
      "outputs": [],
      "stateMutability": "nonpayable",
      "type": "function"
    },
    {
      "inputs": [
        {
          "internalType": "address",
          "name": "_supplierId",
          "type": "address"
        },
        {
          "internalType": "address[]",
          "name": "_approvers",
          "type": "address[]"
        }
      ],
      "name": "approveProposedSupplier",
      "outputs": [],
      "stateMutability": "nonpayable",
      "type": "function"
    },
    {
      "inputs": [
        {
          "internalType": "string",
          "name": "_itemId",
          "type": "string"
        },
        {
          "internalType": "uint256",
          "name": "_price",
          "type": "uint256"
        }
      ],
      "name": "listSupplierItem",
      "outputs": [],
      "stateMutability": "nonpayable",
      "type": "function"
    },
    {
      "inputs": [
        {
          "internalType": "address",
          "name": "_supplierAddress",
          "type": "address"
        },
        {
          "internalType": "string",
          "name": "_itemId",
          "type": "string"
        },
        {
          "internalType": "address[]",
          "name": "_approvers",
          "type": "address[]"
        }
      ],
      "name": "approveSupplierItemManuallyByBoard",
      "outputs": [],
      "stateMutability": "nonpayable",
      "type": "function"
    },
    {
      "inputs": [
        {
          "internalType": "address",
          "name": "_storeAddress",
          "type": "address"
        },
        {
          "internalType": "string",
          "name": "_itemId",
          "type": "string"
        },
        {
          "internalType": "uint256",
          "name": "_price",
          "type": "uint256"
        }
      ],
      "name": "setStoreItemRetailPrice",
      "outputs": [],
      "stateMutability": "nonpayable",
      "type": "function"
    },
    {
      "inputs": [
        {
          "internalType": "string",
          "name": "_itemId",
          "type": "string"
        }
      ],
      "name": "getItemInfo",
      "outputs": [
        {
          "components": [
            {
              "internalType": "string",
              "name": "itemId",
              "type": "string"
            },
            {
              "internalType": "string",
              "name": "name",
              "type": "string"
            },
            {
              "internalType": "string",
              "name": "description",
              "type": "string"
            },
            {
              "internalType": "string",
              "name": "category",
              "type": "string"
            },
            {
              "internalType": "bool",
              "name": "exists",
              "type": "bool"
            },
            {
              "internalType": "bool",
              "name": "isApprovedByBoard",
              "type": "bool"
            },
            {
              "internalType": "address",
              "name": "proposer",
              "type": "address"
            },
            {
              "internalType": "uint256",
              "name": "referencePriceCeiling",
              "type": "uint256"
            }
          ],
          "internalType": "struct ItemsManagement.ItemInfo",
          "name": "",
          "type": "tuple"
        }
      ],
      "stateMutability": "view",
      "type": "function"
    },
    {
      "inputs": [
        {
          "internalType": "address",
          "name": "_locationId",
          "type": "address"
        }
      ],
      "name": "getPhysicalLocationInfo",
      "outputs": [
        {
          "components": [
            {
              "internalType": "address",
              "name": "locationId",
              "type": "address"
            },
            {
              "internalType": "string",
              "name": "name",
              "type": "string"
            },
            {
              "internalType": "string",
              "name": "locationType",
              "type": "string"
            },
            {
              "internalType": "address",
              "name": "manager",
              "type": "address"
            },
            {
              "internalType": "bool",
              "name": "exists",
              "type": "bool"
            },
            {
              "internalType": "bool",
              "name": "isApprovedByBoard",
              "type": "bool"
            },
            {
              "internalType": "address",
              "name": "designatedSourceWarehouseAddress",
              "type": "address"
            }
          ],
          "internalType": "struct PhysicalLocationInfo",
          "name": "",
          "type": "tuple"
        }
      ],
      "stateMutability": "view",
      "type": "function"
    },
    {
      "inputs": [
        {
          "internalType": "address",
          "name": "_storeAddress",
          "type": "address"
        }
      ],
      "name": "getStoreInfo",
      "outputs": [
        {
          "components": [
            {
              "internalType": "address",
              "name": "locationId",
              "type": "address"
            },
            {
              "internalType": "string",
              "name": "name",
              "type": "string"
            },
            {
              "internalType": "string",
              "name": "locationType",
              "type": "string"
            },
            {
              "internalType": "address",
              "name": "manager",
              "type": "address"
            },
            {
              "internalType": "bool",
              "name": "exists",
              "type": "bool"
            },
            {
              "internalType": "bool",
              "name": "isApprovedByBoard",
              "type": "bool"
            },
            {
              "internalType": "address",
              "name": "designatedSourceWarehouseAddress",
              "type": "address"
            }
          ],
          "internalType": "struct PhysicalLocationInfo",
          "name": "",
          "type": "tuple"
        }
      ],
      "stateMutability": "view",
      "type": "function"
    },
    {
      "inputs": [
        {
          "internalType": "address",
          "name": "_warehouseAddress",
          "type": "address"
        }
      ],
      "name": "getWarehouseInfo",
      "outputs": [
        {
          "components": [
            {
              "internalType": "address",
              "name": "locationId",
              "type": "address"
            },
            {
              "internalType": "string",
              "name": "name",
              "type": "string"
            },
            {
              "internalType": "string",
              "name": "locationType",
              "type": "string"
            },
            {
              "internalType": "address",
              "name": "manager",
              "type": "address"
            },
            {
              "internalType": "bool",
              "name": "exists",
              "type": "bool"
            },
            {
              "internalType": "bool",
              "name": "isApprovedByBoard",
              "type": "bool"
            },
            {
              "internalType": "address",
              "name": "designatedSourceWarehouseAddress",
              "type": "address"
            }
          ],
          "internalType": "struct PhysicalLocationInfo",
          "name": "",
          "type": "tuple"
        }
      ],
      "stateMutability": "view",
      "type": "function"
    },
    {
      "inputs": [
        {
          "internalType": "address",
          "name": "_supplierId",
          "type": "address"
        }
      ],
      "name": "getSupplierInfo",
      "outputs": [
        {
          "components": [
            {
              "internalType": "address",
              "name": "supplierId",
              "type": "address"
            },
            {
              "internalType": "string",
              "name": "name",
              "type": "string"
            },
            {
              "internalType": "bool",
              "name": "isApprovedByBoard",
              "type": "bool"
            },
            {
              "internalType": "bool",
              "name": "exists",
              "type": "bool"
            }
          ],
          "internalType": "struct SupplierInfo",
          "name": "",
          "type": "tuple"
        }
      ],
      "stateMutability": "view",
      "type": "function"
    },
    {
      "inputs": [
        {
          "internalType": "address",
          "name": "_supplierAddress",
          "type": "address"
        },
        {
          "internalType": "string",
          "name": "_itemId",
          "type": "string"
        }
      ],
      "name": "getSupplierItemDetails",
      "outputs": [
        {
          "components": [
            {
              "internalType": "string",
              "name": "itemId",
              "type": "string"
            },
            {
              "internalType": "address",
              "name": "supplierAddress",
              "type": "address"
            },
            {
              "internalType": "uint256",
              "name": "price",
              "type": "uint256"
            },
            {
              "internalType": "bool",
              "name": "isApprovedByBoard",
              "type": "bool"
            },
            {
              "internalType": "bool",
              "name": "exists",
              "type": "bool"
            }
          ],
          "internalType": "struct SupplierItemListing",
          "name": "",
          "type": "tuple"
        }
      ],
      "stateMutability": "view",
      "type": "function"
    },
    {
      "inputs": [
        {
          "internalType": "string",
          "name": "_itemId",
          "type": "string"
        },
        {
          "internalType": "address",
          "name": "_storeAddress",
          "type": "address"
        }
      ],
      "name": "getItemRetailPriceAtStore",
      "outputs": [
        {
          "internalType": "uint256",
          "name": "price",
          "type": "uint256"
        },
        {
          "internalType": "bool",
          "name": "priceExists",
          "type": "bool"
        }
      ],
      "stateMutability": "view",
      "type": "function"
    },
    {
      "inputs": [],
      "name": "getAllItemIds",
      "outputs": [
        {
          "internalType": "string[]",
          "name": "",
          "type": "string[]"
        }
      ],
      "stateMutability": "view",
      "type": "function"
    },
    {
      "inputs": [],
      "name": "getAllLocationAddresses",
      "outputs": [
        {
          "internalType": "address[]",
          "name": "",
          "type": "address[]"
        }
      ],
      "stateMutability": "view",
      "type": "function"
    },
    {
      "inputs": [],
      "name": "getAllSupplierAddresses",
      "outputs": [
        {
          "internalType": "address[]",
          "name": "",
          "type": "address[]"
        }
      ],
      "stateMutability": "view",
      "type": "function"
    }
  ],
  "bytecode": "0x60806040523480156200001157600080fd5b50604051620064443803806200644483398101604081905262000034916200014a565b6001600160a01b0381166200006b57604051634726455360e11b81526001600160a01b038216600482015260240160405180910390fd5b600180546001600160a01b0319166001600160a01b038316179055620000936000336200009a565b506200017a565b620000a68282620000aa565b5050565b6000828152602081815260408083206001600160a01b038516845290915290205460ff16620000a6576000828152602081815260408083206001600160a01b03851684529091529020805460ff19166001179055620001063390565b6001600160a01b0316816001600160a01b0316837f2f8788117e7eff1d82e926ec794901d17c78024a50270940304540a733656f0d60405160405180910390a45050565b6000602082840312156200015c578081fd5b81516001600160a01b038116811462000173578182fd5b9392505050565b6162ba806200018a6000396000f3fe608060405234801561001057600080fd5b50600436106101b75760003560e01c806301ffc9a7146101bc57806303bde86a146101e457806307bf8c5c146101f957806316dc15fe146102435780631d19224514610266578063248a9ca31461028a578063252549641461029d5780632f2ff15d146102b0578063329a5873146102c35780633315bd2a146102e357806336568abe146103095780633868c1ab1461031c5780634909b29b1461032f57806359435f041461035657806364534c4f1461037657806368f11f99146103895780637160572b146103a9578063729dfe40146103bc57806375a05d12146103d15780637643d731146103f95780638a606790146104195780638f0474971461042c57806391d148541461043f57806399c4381d14610452578063a217fddf14610467578063a33650121461046f578063adeb5c2414610482578063b3dc00fe14610495578063b4bf3c50146104b5578063c7bbd67e146104c8578063c87d25dd146104d0578063cc15744c146104e3578063d4711a0e146104f6578063d547741f14610509578063e6a219431461051c578063e8b020121461052f578063f063e02914610542575b600080fd5b6101cf6101ca3660046156a6565b610562565b60405190151581526020015b60405180910390f35b6101f76101f23660046154a9565b610599565b005b6102356102073660046155e9565b6006602090815260009283526040909220815180830184018051928152908401929093019190912091525481565b6040519081526020016101db565b6102566102513660046153ca565b610982565b6040516101db9493929190615ae2565b6102796102743660046155e9565b610a43565b6040516101db959493929190615c9a565b610235610298366004615654565b610b27565b6101f76102ab36600461581c565b610b3c565b6101f76102be366004615684565b6111aa565b6102d66102d13660046153ca565b6111cc565b6040516101db9190616025565b6102f66102f13660046153ca565b61141a565b6040516101db9796959493929190615b1e565b6101f7610317366004615684565b611587565b6101f761032a366004615526565b611605565b61034261033d3660046158bd565b611a73565b6040516101db989796959493929190615cdc565b6103696103643660046153ca565b611cf1565b6040516101db91906160b6565b6101f7610384366004615416565b611dfb565b61039c6103973660046156ce565b612099565b6040516101db9190615f62565b6102d66103b73660046153ca565b6123a7565b6103c46125f9565b6040516101db9190615bc9565b6103e46103df36600461570d565b6126d2565b604080519283529015156020830152016101db565b61040c610407366004615654565b61271b565b6040516101db9190615ab5565b61040c610427366004615654565b612745565b6101f761043a36600461575e565b612755565b6101cf61044d366004615684565b612bbd565b61045a612be6565b6040516101db9190615b7c565b610235600081565b6102d661047d3660046153ca565b612c48565b6101f7610490366004615592565b612df4565b6104a86104a3366004615654565b6132c0565b6040516101db9190615c87565b6101f76104c3366004615416565b61336c565b61045a61362d565b6101f76104de3660046153e4565b61368d565b6101f76104f1366004615466565b613b43565b6101f7610504366004615865565b613f80565b6101f7610517366004615684565b61428d565b60015461040c906001600160a01b031681565b6101f761053d3660046153e4565b6142aa565b610555610550366004615466565b6147ae565b6040516101db9190616108565b60006001600160e01b03198216637965db0b60e01b148061059357506301ffc9a760e01b6001600160e01b03198316145b92915050565b600154604080516305b11d3760e01b815290516001600160a01b03909216916391d148549183916305b11d3791600480820192602092909190829003018186803b1580156105e657600080fd5b505afa1580156105fa573d6000803e3d6000fd5b505050506040513d601f19601f8201168201806040525081019061061e919061566c565b336040518363ffffffff1660e01b815260040161063c929190615c2a565b60206040518083038186803b15801561065457600080fd5b505afa158015610668573d6000803e3d6000fd5b505050506040513d601f19601f8201168201806040525081019061068c9190615634565b61073057600154604080516305b11d3760e01b8152905133926001600160a01b0316916305b11d37916004808301926020929190829003018186803b1580156106d457600080fd5b505afa1580156106e8573d6000803e3d6000fd5b505050506040513d601f19601f8201168201806040525081019061070c919061566c565b604051634c4bf2f560e01b8152600401610727929190615ac9565b60405180910390fd5b6001600160a01b038516600090815260046020526040902060020154610100900460ff16158061077c57506001600160a01b03851660009081526004602052604090206002015460ff16155b156107d8576040805163ab59d12f60e01b81526004810191909152601a60448201527914dd5c1c1b1a595c88199bdc881a5d195b48185c1c1c9bdd985b60321b60648201526001600160a01b0386166024820152608401610727565b6001600160a01b03851660009081526005602052604080822090516108009087908790615959565b908152604051908190036020019020600381015490915060ff61010090910416610841578484604051636f9d719560e01b8152600401610727929190615f0f565b600381015460ff161561089757604051630dfbda3760e21b815260206004820152601e60248201527f537570706c696572206974656d20616c726561647920617070726f76656400006044820152606401610727565b6108d38383808060200260200160405190810160405280939291908181526020018383602002808284376000920191909152506148f292505050565b61091e57604051637d1ed99560e01b815260206004820152602760248201526000805160206162658339815191526044820152666572206974656d60c81b6064820152608401610727565b60038101805460ff19166001179055604051339061093f9087908790615959565b604051908190038120906001600160a01b038916907fffa7559584da41d8b3dc66ebfe805a6c2e3e8f3f94ec948a1ddfa57edea2d19590600090a4505050505050565b600460205260009081526040902080546001820180546001600160a01b0390921692916109ae906161e2565b80601f01602080910402602001604051908101604052809291908181526020018280546109da906161e2565b8015610a275780601f106109fc57610100808354040283529160200191610a27565b820191906000526020600020905b815481529060010190602001808311610a0a57829003601f168201915b5050506002909301549192505060ff8082169161010090041684565b60056020908152600092835260409092208151808301840180519281529084019290930191909120915280548190610a7a906161e2565b80601f0160208091040260200160405190810160405280929190818152602001828054610aa6906161e2565b8015610af35780601f10610ac857610100808354040283529160200191610af3565b820191906000526020600020905b815481529060010190602001808311610ad657829003601f168201915b505050506001830154600284015460039094015492936001600160a01b039091169290915060ff8082169161010090041685565b60009081526020819052604090206001015490565b600154604080516328a5423f60e21b815290516001600160a01b03909216916391d1485491839163a29508fc91600480820192602092909190829003018186803b158015610b8957600080fd5b505afa158015610b9d573d6000803e3d6000fd5b505050506040513d601f19601f82011682018060405250810190610bc1919061566c565b336040518363ffffffff1660e01b8152600401610bdf929190615c2a565b60206040518083038186803b158015610bf757600080fd5b505afa158015610c0b573d6000803e3d6000fd5b505050506040513d601f19601f82011682018060405250810190610c2f9190615634565b610c7757600154604080516328a5423f60e21b8152905133926001600160a01b03169163a29508fc916004808301926020929190829003018186803b1580156106d457600080fd5b3360009081526004602052604090206002810154610100900460ff161580610ca45750600281015460ff16155b15610cc4573360405163ab59d12f60e01b81526004016107279190615e61565b600060028585604051610cd8929190615959565b908152602001604051809103902060405180610100016040529081600082018054610d02906161e2565b80601f0160208091040260200160405190810160405280929190818152602001828054610d2e906161e2565b8015610d7b5780601f10610d5057610100808354040283529160200191610d7b565b820191906000526020600020905b815481529060010190602001808311610d5e57829003601f168201915b50505050508152602001600182018054610d94906161e2565b80601f0160208091040260200160405190810160405280929190818152602001828054610dc0906161e2565b8015610e0d5780601f10610de257610100808354040283529160200191610e0d565b820191906000526020600020905b815481529060010190602001808311610df057829003601f168201915b50505050508152602001600282018054610e26906161e2565b80601f0160208091040260200160405190810160405280929190818152602001828054610e52906161e2565b8015610e9f5780601f10610e7457610100808354040283529160200191610e9f565b820191906000526020600020905b815481529060010190602001808311610e8257829003601f168201915b50505050508152602001600382018054610eb8906161e2565b80601f0160208091040260200160405190810160405280929190818152602001828054610ee4906161e2565b8015610f315780601f10610f0657610100808354040283529160200191610f31565b820191906000526020600020905b815481529060010190602001808311610f1457829003601f168201915b5050509183525050600482015460ff80821615156020840152610100820416151560408301526201000090046001600160a01b031660608201526005909101546080918201528101519091501580610f8b57508060a00151155b15610fad578484604051630507641f60e21b8152600401610727929190615d5d565b33600090815260056020526040908190209051610fcd9087908790615959565b9081526040519081900360200190206003015460ff610100909104161561100b5784846040516366534a6d60e01b8152600401610727929190615db7565b8261102957604051633483c78360e21b815260040161072790615d98565b6000808260e0015111801561104257508160e001518411155b6040805160c06020601f8a01819004028201810190925260a0810188815292935091829189908990819085018382808284376000920182905250938552505033602080850182905260408086018b905287151560608701526001608090960195909552908352600590525081902090516110bf9089908990615959565b908152602001604051809103902060008201518160000190805190602001906110e9929190615156565b5060208201516001820180546001600160a01b0319166001600160a01b03909216919091179055604080830151600283015560608301516003909201805460809094015161ffff1990941692151561ff00191692909217610100931515939093029290921790555161115e9087908790615959565b6040805191829003822086835283151560208401529133917f87f1628ba253ef694374dcd44b8153c87ea09ac3bb7731c1214208b0c822817e91015b60405180910390a3505050505050565b6111b382610b27565b6111bd8133614c86565b6111c78383614cea565b505050565b6111d46151da565b6001600160a01b038083166000908152600360209081526040808320815160e0810190925280549094168152600184018054939491939192840191611218906161e2565b80601f0160208091040260200160405190810160405280929190818152602001828054611244906161e2565b80156112915780601f1061126657610100808354040283529160200191611291565b820191906000526020600020905b81548152906001019060200180831161127457829003601f168201915b505050505081526020016002820180546112aa906161e2565b80601f01602080910402602001604051908101604052809291908181526020018280546112d6906161e2565b80156113235780601f106112f857610100808354040283529160200191611323565b820191906000526020600020905b81548152906001019060200180831161130657829003601f168201915b505050918352505060038201546001600160a01b03808216602084015260ff600160a01b8304811615156040850152600160a81b9092049091161515606083015260049092015490911660809182015281015190915015806113d3575060405160200161138f90615a35565b6040516020818303038152906040528051906020012081604001516040516020016113ba9190615969565b6040516020818303038152906040528051906020012014155b15610593576040805163247a80af60e21b81526004810191909152600560448201526453746f726560d81b60648201526001600160a01b0384166024820152608401610727565b600360205260009081526040902080546001820180546001600160a01b039092169291611446906161e2565b80601f0160208091040260200160405190810160405280929190818152602001828054611472906161e2565b80156114bf5780601f10611494576101008083540402835291602001916114bf565b820191906000526020600020905b8154815290600101906020018083116114a257829003601f168201915b5050505050908060020180546114d4906161e2565b80601f0160208091040260200160405190810160405280929190818152602001828054611500906161e2565b801561154d5780601f106115225761010080835404028352916020019161154d565b820191906000526020600020905b81548152906001019060200180831161153057829003601f168201915b505050600384015460049094015492936001600160a01b038082169460ff600160a01b840481169550600160a81b90930490921692501687565b6001600160a01b03811633146115f75760405162461bcd60e51b815260206004820152602f60248201527f416363657373436f6e74726f6c3a2063616e206f6e6c792072656e6f756e636560448201526e103937b632b9903337b91039b2b63360891b6064820152608401610727565b6116018282614d6e565b5050565b600154604080516305b11d3760e01b815290516001600160a01b03909216916391d148549183916305b11d3791600480820192602092909190829003018186803b15801561165257600080fd5b505afa158015611666573d6000803e3d6000fd5b505050506040513d601f19601f8201168201806040525081019061168a919061566c565b336040518363ffffffff1660e01b81526004016116a8929190615c2a565b60206040518083038186803b1580156116c057600080fd5b505afa1580156116d4573d6000803e3d6000fd5b505050506040513d601f19601f820116820180604052508101906116f89190615634565b61174057600154604080516305b11d3760e01b8152905133926001600160a01b0316916305b11d37916004808301926020929190829003018186803b1580156106d457600080fd5b6001600160a01b03851660009081526003602081905260409091200154600160a01b900460ff1615611787578460405163755a812960e11b81526004016107279190615e26565b6001600160a01b0385166117b05784604051634726455360e11b81526004016107279190615ab5565b600082826040516020016117c5929190615959565b6040516020818303038152906040528051906020012090506040516020016117ec90615a35565b604051602081830303815290604052805190602001208114158015611835575060405160200161181b90615a20565b604051602081830303815290604052805190602001208114155b156118575782826040516386a94d4b60e01b8152600401610727929190615c41565b6040518060e00160405280876001600160a01b0316815260200186868080601f016020809104026020016040519081016040528093929190818152602001838380828437600092019190915250505090825250604080516020601f87018190048102820181019092528581529181019190869086908190840183828082843760009201829052509385525050506020808301829052600160408085018290526060850184905260809094018390526001600160a01b038b811684526003835293909220845181546001600160a01b0319169416939093178355838101518051611947938501929190910190615156565b5060408201518051611963916002840191602090910190615156565b506060820151600382018054608085015160a08601511515600160a81b0260ff60a81b19911515600160a01b026001600160a81b03199093166001600160a01b0395861617929092171617905560c09092015160049091018054919092166001600160a01b0319919091161790556119da86614dd3565b611a2a57600880546001810182556000919091527ff3f7a9fe364faab93b216da50a3214154f22a0a2b415b23a84c8169e8b636ee30180546001600160a01b0319166001600160a01b0388161790555b336001600160a01b0316866001600160a01b03167f8ceaee252275277f7f06dcee470dc04ac7d5211d5c55802df06f3f64bda2025a8787878760405161119a9493929190615c55565b8051602081830181018051600282529282019190930120915280548190611a99906161e2565b80601f0160208091040260200160405190810160405280929190818152602001828054611ac5906161e2565b8015611b125780601f10611ae757610100808354040283529160200191611b12565b820191906000526020600020905b815481529060010190602001808311611af557829003601f168201915b505050505090806001018054611b27906161e2565b80601f0160208091040260200160405190810160405280929190818152602001828054611b53906161e2565b8015611ba05780601f10611b7557610100808354040283529160200191611ba0565b820191906000526020600020905b815481529060010190602001808311611b8357829003601f168201915b505050505090806002018054611bb5906161e2565b80601f0160208091040260200160405190810160405280929190818152602001828054611be1906161e2565b8015611c2e5780601f10611c0357610100808354040283529160200191611c2e565b820191906000526020600020905b815481529060010190602001808311611c1157829003601f168201915b505050505090806003018054611c43906161e2565b80601f0160208091040260200160405190810160405280929190818152602001828054611c6f906161e2565b8015611cbc5780601f10611c9157610100808354040283529160200191611cbc565b820191906000526020600020905b815481529060010190602001808311611c9f57829003601f168201915b505050506004830154600590930154919260ff8082169361010083049091169250620100009091046001600160a01b03169088565b60408051608080820183526000808352606060208085018290528486018390529084018290526001600160a01b03868116835260048252918590208551938401909552845490911682526001840180549394929391840191611d52906161e2565b80601f0160208091040260200160405190810160405280929190818152602001828054611d7e906161e2565b8015611dcb5780601f10611da057610100808354040283529160200191611dcb565b820191906000526020600020905b815481529060010190602001808311611dae57829003601f168201915b50505091835250506002919091015460ff8082161515602084015261010090910416151560409091015292915050565b600154604080516305b11d3760e01b815290516001600160a01b03909216916391d148549183916305b11d3791600480820192602092909190829003018186803b158015611e4857600080fd5b505afa158015611e5c573d6000803e3d6000fd5b505050506040513d601f19601f82011682018060405250810190611e80919061566c565b336040518363ffffffff1660e01b8152600401611e9e929190615c2a565b60206040518083038186803b158015611eb657600080fd5b505afa158015611eca573d6000803e3d6000fd5b505050506040513d601f19601f82011682018060405250810190611eee9190615634565b611f3657600154604080516305b11d3760e01b8152905133926001600160a01b0316916305b11d37916004808301926020929190829003018186803b1580156106d457600080fd5b6001600160a01b03831660009081526004602052604090206002810154610100900460ff16611f7a578360405163247a80af60e21b81526004016107279190615e61565b600281015460ff1615611fcc57604051630dfbda3760e21b815260206004820152601960248201527814dd5c1c1b1a595c88185b1c9958591e48185c1c1c9bdd9959603a1b6044820152606401610727565b6120088383808060200260200160405190810160405280939291908181526020018383602002808284376000920191909152506148f292505050565b61204e57604051637d1ed99560e01b8152602060048201526022602482015260008051602061626583398151915260448201526132b960f11b6064820152608401610727565b60028101805460ff1916600117905560405133906001600160a01b038616907f195b79488d6b5260c5f4f4b0ab9f40b95cdd5e71279d52b1f96ff831270b161290600090a350505050565b6120ee6040518061010001604052806060815260200160608152602001606081526020016060815260200160001515815260200160001515815260200160006001600160a01b03168152602001600081525090565b60028383604051612100929190615959565b90815260200160405180910390206040518061010001604052908160008201805461212a906161e2565b80601f0160208091040260200160405190810160405280929190818152602001828054612156906161e2565b80156121a35780601f10612178576101008083540402835291602001916121a3565b820191906000526020600020905b81548152906001019060200180831161218657829003601f168201915b505050505081526020016001820180546121bc906161e2565b80601f01602080910402602001604051908101604052809291908181526020018280546121e8906161e2565b80156122355780601f1061220a57610100808354040283529160200191612235565b820191906000526020600020905b81548152906001019060200180831161221857829003601f168201915b5050505050815260200160028201805461224e906161e2565b80601f016020809104026020016040519081016040528092919081815260200182805461227a906161e2565b80156122c75780601f1061229c576101008083540402835291602001916122c7565b820191906000526020600020905b8154815290600101906020018083116122aa57829003601f168201915b505050505081526020016003820180546122e0906161e2565b80601f016020809104026020016040519081016040528092919081815260200182805461230c906161e2565b80156123595780601f1061232e57610100808354040283529160200191612359565b820191906000526020600020905b81548152906001019060200180831161233c57829003601f168201915b5050509183525050600482015460ff80821615156020840152610100820416151560408301526201000090046001600160a01b03166060820152600590910154608090910152905092915050565b6123af6151da565b6001600160a01b038083166000908152600360209081526040808320815160e08101909252805490941681526001840180549394919391928401916123f3906161e2565b80601f016020809104026020016040519081016040528092919081815260200182805461241f906161e2565b801561246c5780601f106124415761010080835404028352916020019161246c565b820191906000526020600020905b81548152906001019060200180831161244f57829003601f168201915b50505050508152602001600282018054612485906161e2565b80601f01602080910402602001604051908101604052809291908181526020018280546124b1906161e2565b80156124fe5780601f106124d3576101008083540402835291602001916124fe565b820191906000526020600020905b8154815290600101906020018083116124e157829003601f168201915b505050918352505060038201546001600160a01b03808216602084015260ff600160a01b8304811615156040850152600160a81b9092049091161515606083015260049092015490911660809182015281015190915015806125ae575060405160200161256a90615a20565b6040516020818303038152906040528051906020012081604001516040516020016125959190615969565b6040516020818303038152906040528051906020012014155b15610593576040805163247a80af60e21b81526004810191909152600960448201526857617265686f75736560b81b60648201526001600160a01b0384166024820152608401610727565b60606007805480602002602001604051908101604052809291908181526020016000905b828210156126c957838290600052602060002001805461263c906161e2565b80601f0160208091040260200160405190810160405280929190818152602001828054612668906161e2565b80156126b55780601f1061268a576101008083540402835291602001916126b5565b820191906000526020600020905b81548152906001019060200180831161269857829003601f168201915b50505050508152602001906001019061261d565b50505050905090565b6001600160a01b03811660009081526006602052604080822090518291906126fd9087908790615959565b90815260405190819003602001902054915050801515935093915050565b6009818154811061272b57600080fd5b6000918252602090912001546001600160a01b0316905081565b6008818154811061272b57600080fd5b600154604080516305b11d3760e01b815290516001600160a01b03909216916391d148549183916305b11d3791600480820192602092909190829003018186803b1580156127a257600080fd5b505afa1580156127b6573d6000803e3d6000fd5b505050506040513d601f19601f820116820180604052508101906127da919061566c565b336040518363ffffffff1660e01b81526004016127f8929190615c2a565b60206040518083038186803b15801561281057600080fd5b505afa158015612824573d6000803e3d6000fd5b505050506040513d601f19601f820116820180604052508101906128489190615634565b61289057600154604080516305b11d3760e01b8152905133926001600160a01b0316916305b11d37916004808301926020929190829003018186803b1580156106d457600080fd5b600288886040516128a2929190615959565b9081526040519081900360200190206004015460ff16156128da5787876040516366534a6d60e01b8152600401610727929190615df7565b8661291157604051635e5a0ebd60e11b81526020600482015260066024820152651a5d195b525960d21b6044820152606401610727565b60405180610100016040528089898080601f016020809104026020016040519081016040528093929190818152602001838380828437600092019190915250505090825250604080516020601f8a0181900481028201810190925288815291810191908990899081908401838280828437600092019190915250505090825250604080516020601f880181900481028201810190925286815291810191908790879081908401838280828437600092019190915250505090825250604080516020601f860181900481028201810190925284815291810191908590859081908401838280828437600092018290525093855250506001602084015250604080830182905233606084015260809092015251600290612a32908b908b90615959565b90815260200160405180910390206000820151816000019080519060200190612a5c929190615156565b506020828101518051612a759260018501920190615156565b5060408201518051612a91916002840191602090910190615156565b5060608201518051612aad916003840191602090910190615156565b50608082015160048201805460a085015160c08601516001600160a01b0316620100000262010000600160b01b03199115156101000261ff00199515159590951661ffff1990931692909217939093179290921691909117905560e090910151600590910155612b1d8888614e4b565b612b605760078054600181018255600091909152612b5e907fa66cc928b5edb82af9bd49922954155ab7b0942694bea4ce44661d9a8736c688018989615217565b505b6040513390612b72908a908a90615959565b60405180910390207f3ebb6331b48c504ca4922a2d92220f830467ca090a4b9fcbe10e1a6f3e97f5898888604051612bab929190615c41565b60405180910390a35050505050505050565b6000918252602082815260408084206001600160a01b0393909316845291905290205460ff1690565b60606008805480602002602001604051908101604052809291908181526020018280548015612c3e57602002820191906000526020600020905b81546001600160a01b03168152600190910190602001808311612c20575b5050505050905090565b612c506151da565b6001600160a01b03808316600090815260036020908152604091829020825160e081019093528054909316825260018301805492939291840191612c93906161e2565b80601f0160208091040260200160405190810160405280929190818152602001828054612cbf906161e2565b8015612d0c5780601f10612ce157610100808354040283529160200191612d0c565b820191906000526020600020905b815481529060010190602001808311612cef57829003601f168201915b50505050508152602001600282018054612d25906161e2565b80601f0160208091040260200160405190810160405280929190818152602001828054612d51906161e2565b8015612d9e5780601f10612d7357610100808354040283529160200191612d9e565b820191906000526020600020905b815481529060010190602001808311612d8157829003601f168201915b505050918352505060038201546001600160a01b03808216602084015260ff600160a01b8304811615156040850152600160a81b9092049091161515606083015260049092015490911660809091015292915050565b600154604080516315c37cb960e31b815290516000926001600160a01b03169163ae1be5c8916004808301926020929190829003018186803b158015612e3957600080fd5b505afa158015612e4d573d6000803e3d6000fd5b505050506040513d601f19601f82011682018060405250810190612e71919061566c565b600154604051632474521560e21b81529192506001600160a01b0316906391d1485490612ea49084903390600401615c2a565b60206040518083038186803b158015612ebc57600080fd5b505afa158015612ed0573d6000803e3d6000fd5b505050506040513d601f19601f82011682018060405250810190612ef49190615634565b612f15573381604051634c4bf2f560e01b8152600401610727929190615ac9565b60028484604051612f27929190615959565b9081526040519081900360200190206004015460ff161580612f74575060028484604051612f56929190615959565b9081526040519081900360200190206004015460ff61010090910416155b15612f96578383604051630507641f60e21b8152600401610727929190615e94565b6001600160a01b038086166000908152600360209081526040808320815160e0810190925280549094168152600184018054939491939192840191612fda906161e2565b80601f0160208091040260200160405190810160405280929190818152602001828054613006906161e2565b80156130535780601f1061302857610100808354040283529160200191613053565b820191906000526020600020905b81548152906001019060200180831161303657829003601f168201915b5050505050815260200160028201805461306c906161e2565b80601f0160208091040260200160405190810160405280929190818152602001828054613098906161e2565b80156130e55780601f106130ba576101008083540402835291602001916130e5565b820191906000526020600020905b8154815290600101906020018083116130c857829003601f168201915b505050918352505060038201546001600160a01b03808216602084015260ff600160a01b8304811615156040850152600160a81b90920490911615156060830152600490920154909116608091820152810151909150158061314957508060a00151155b806131a2575060405160200161315e90615a35565b6040516020818303038152906040528051906020012081604001516040516020016131899190615969565b6040516020818303038152906040528051906020012014155b15613201576040805163ab59d12f60e01b81526004810191909152601e60448201527f53746f726520666f722072657461696c2070726963652073657474696e67000060648201526001600160a01b0387166024820152608401610727565b8261321f57604051633483c78360e21b815260040161072790615d98565b6001600160a01b03861660009081526006602052604090819020905184919061324b9088908890615959565b90815260405190819003602001812091909155339061326d9087908790615959565b6040518091039020876001600160a01b03167fbe696f12a96a6f8f4b21e86fe3146518f966e15fc92406bdf63f6b85e0b5377f866040516132b091815260200190565b60405180910390a4505050505050565b600781815481106132d057600080fd5b9060005260206000200160009150905080546132eb906161e2565b80601f0160208091040260200160405190810160405280929190818152602001828054613317906161e2565b80156133645780601f1061333957610100808354040283529160200191613364565b820191906000526020600020905b81548152906001019060200180831161334757829003601f168201915b505050505081565b600154604080516305b11d3760e01b815290516001600160a01b03909216916391d148549183916305b11d3791600480820192602092909190829003018186803b1580156133b957600080fd5b505afa1580156133cd573d6000803e3d6000fd5b505050506040513d601f19601f820116820180604052508101906133f1919061566c565b336040518363ffffffff1660e01b815260040161340f929190615c2a565b60206040518083038186803b15801561342757600080fd5b505afa15801561343b573d6000803e3d6000fd5b505050506040513d601f19601f8201168201806040525081019061345f9190615634565b6134a757600154604080516305b11d3760e01b8152905133926001600160a01b0316916305b11d37916004808301926020929190829003018186803b1580156106d457600080fd5b6001600160a01b038316600090815260036020819052604090912090810154600160a01b900460ff166134ef578360405163247a80af60e21b81526004016107279190615e26565b6003810154600160a81b900460ff161561354857604051630dfbda3760e21b8152602060048201526019602482015278131bd8d85d1a5bdb88185b1c9958591e48185c1c1c9bdd9959603a1b6044820152606401610727565b6135848383808060200260200160405190810160405280939291908181526020018383602002808284376000920191909152506148f292505050565b6135dc57604051637d1ed99560e01b815260206004820152602260248201527f426f61726420617070726f76616c206661696c656420666f72206c6f6361746960448201526137b760f11b6064820152608401610727565b60038101805460ff60a81b1916600160a81b17905560405133906001600160a01b038616907f1fc7308c894d3036b33349c4b3d7d4b43c3927ac1286bc97a98c3c388fa97c7b90600090a350505050565b60606009805480602002602001604051908101604052809291908181526020018280548015612c3e576020028201919060005260206000209081546001600160a01b03168152600190910190602001808311612c20575050505050905090565b600154604080516315c37cb960e31b815290516000926001600160a01b03169163ae1be5c8916004808301926020929190829003018186803b1580156136d257600080fd5b505afa1580156136e6573d6000803e3d6000fd5b505050506040513d601f19601f8201168201806040525081019061370a919061566c565b600154604051632474521560e21b81529192506001600160a01b0316906391d148549061373d9084903390600401615c2a565b60206040518083038186803b15801561375557600080fd5b505afa158015613769573d6000803e3d6000fd5b505050506040513d601f19601f8201168201806040525081019061378d9190615634565b6137ae573381604051634c4bf2f560e01b8152600401610727929190615ac9565b6001600160a01b038316600090815260036020819052604090912090810154600160a01b900460ff1615806137ef57506003810154600160a81b900460ff16155b80613847575060405160200161380490615a35565b604051602081830303815290604052805190602001208160020160405160200161382e9190615985565b6040516020818303038152906040528051906020012014155b156138b1576040805163ab59d12f60e01b81526004810191909152602260448201527f53746f726520666f722073657474696e6720736f757263652077617265686f75606482015261736560f01b60848201526001600160a01b038516602482015260a401610727565b6001600160a01b03831615613aee576001600160a01b038084166000908152600360209081526040808320815160e0810190925280549094168152600184018054939491939192840191613904906161e2565b80601f0160208091040260200160405190810160405280929190818152602001828054613930906161e2565b801561397d5780601f106139525761010080835404028352916020019161397d565b820191906000526020600020905b81548152906001019060200180831161396057829003601f168201915b50505050508152602001600282018054613996906161e2565b80601f01602080910402602001604051908101604052809291908181526020018280546139c2906161e2565b8015613a0f5780601f106139e457610100808354040283529160200191613a0f565b820191906000526020600020905b8154815290600101906020018083116139f257829003601f168201915b505050918352505060038201546001600160a01b03808216602084015260ff600160a01b8304811615156040850152600160a81b909204909116151560608301526004909201549091166080918201528101519091501580613a7357508060a00151155b80613acc5750604051602001613a8890615a20565b604051602081830303815290604052805190602001208160400151604051602001613ab39190615969565b6040516020818303038152906040528051906020012014155b15613aec57836040516319ae937360e11b81526004016107279190615ab5565b505b6004810180546001600160a01b0319166001600160a01b0385811691821790925560405133928716907fdcc10de64617efb0774a78e440bcf4b7061baac845df589d7e28abcc07498e2c90600090a450505050565b600154604080516305b11d3760e01b815290516001600160a01b03909216916391d148549183916305b11d3791600480820192602092909190829003018186803b158015613b9057600080fd5b505afa158015613ba4573d6000803e3d6000fd5b505050506040513d601f19601f82011682018060405250810190613bc8919061566c565b336040518363ffffffff1660e01b8152600401613be6929190615c2a565b60206040518083038186803b158015613bfe57600080fd5b505afa158015613c12573d6000803e3d6000fd5b505050506040513d601f19601f82011682018060405250810190613c369190615634565b613c7e57600154604080516305b11d3760e01b8152905133926001600160a01b0316916305b11d37916004808301926020929190829003018186803b1580156106d457600080fd5b6001600160a01b038316600090815260046020526040902060020154610100900460ff1615613cc2578260405163755a812960e11b81526004016107279190615e61565b6001600160a01b038316613ceb5782604051634726455360e11b81526004016107279190615ab5565b600154604080516328a5423f60e21b815290516001600160a01b03909216916391d1485491839163a29508fc91600480820192602092909190829003018186803b158015613d3857600080fd5b505afa158015613d4c573d6000803e3d6000fd5b505050506040513d601f19601f82011682018060405250810190613d70919061566c565b856040518363ffffffff1660e01b8152600401613d8e929190615c2a565b60206040518083038186803b158015613da657600080fd5b505afa158015613dba573d6000803e3d6000fd5b505050506040513d601f19601f82011682018060405250810190613dde9190615634565b613dfd578260405163b38fb45b60e01b81526004016107279190615ab5565b6040518060800160405280846001600160a01b0316815260200183838080601f01602080910402602001604051908101604052809392919081815260200183838082843760009201829052509385525050506020808301829052600160409384018190526001600160a01b0388811684526004835293909220845181546001600160a01b0319169416939093178355838101518051613ea3938501929190910190615156565b5060408201516002909101805460609093015115156101000261ff00199215159290921661ffff1990931692909217179055613ede83614eff565b613f2e57600980546001810182556000919091527f6e1540171b6c0c960b71a7020d9f60077f6af931a8bbf590da0223dacf75c7af0180546001600160a01b0319166001600160a01b0385161790555b336001600160a01b0316836001600160a01b03167fa360b642759fd1aef60fe12df288f0d8167355cc51b3062855ee99bd40738ccc8484604051613f73929190615c41565b60405180910390a3505050565b600154604080516305b11d3760e01b815290516001600160a01b03909216916391d148549183916305b11d3791600480820192602092909190829003018186803b158015613fcd57600080fd5b505afa158015613fe1573d6000803e3d6000fd5b505050506040513d601f19601f82011682018060405250810190614005919061566c565b336040518363ffffffff1660e01b8152600401614023929190615c2a565b60206040518083038186803b15801561403b57600080fd5b505afa15801561404f573d6000803e3d6000fd5b505050506040513d601f19601f820116820180604052508101906140739190615634565b6140bb57600154604080516305b11d3760e01b8152905133926001600160a01b0316916305b11d37916004808301926020929190829003018186803b1580156106d457600080fd5b6000600286866040516140cf929190615959565b908152604051908190036020019020600481015490915060ff1661410a578585604051636f9d719560e01b8152600401610727929190615df7565b6004810154610100900460ff161561415d57604051630dfbda3760e21b8152602060048201526015602482015274125d195b48185b1c9958591e48185c1c1c9bdd9959605a1b6044820152606401610727565b836141a357604051633483c78360e21b81526020600482015260156024820152747265666572656e636550726963654365696c696e6760581b6044820152606401610727565b6141df8383808060200260200160405190810160405280939291908181526020018383602002808284376000920191909152506148f292505050565b61422c57604051637d1ed99560e01b815260206004820152601e60248201527f426f61726420617070726f76616c206661696c656420666f72206974656d00006044820152606401610727565b60048101805461ff0019166101001790556005810184905560405133906142569088908890615959565b604051908190038120868252907f6fc42e6328d70476ac11e3bb6c632c610f1751d06b79b7edc25e912cdff272099060200161119a565b61429682610b27565b6142a08133614c86565b6111c78383614d6e565b6001600160a01b038216600090815260036020819052604090912090810154600160a01b900460ff166142f2578260405163247a80af60e21b81526004016107279190615edc565b6003810154600160a81b900460ff16614320578260405163ab59d12f60e01b81526004016107279190615edc565b60038101546001600160a01b03161561436557600381015460405163b3b682f360e01b81526001600160a01b0380861660048301529091166024820152604401610727565b6001600160a01b03821661438e5781604051634726455360e11b81526004016107279190615ab5565b60008060006040516020016143a290615a35565b60405160208183030381529060405280519060200120846002016040516020016143cc9190615985565b60405160208183030381529060405280519060200120149050801561450057600160009054906101000a90046001600160a01b03166001600160a01b0316631f1077986040518163ffffffff1660e01b815260040160206040518083038186803b15801561443957600080fd5b505afa15801561444d573d6000803e3d6000fd5b505050506040513d601f19601f82011682018060405250810190614471919061566c565b9250600160009054906101000a90046001600160a01b03166001600160a01b031663ae1be5c86040518163ffffffff1660e01b815260040160206040518083038186803b1580156144c157600080fd5b505afa1580156144d5573d6000803e3d6000fd5b505050506040513d601f19601f820116820180604052508101906144f9919061566c565b9150614611565b600160009054906101000a90046001600160a01b03166001600160a01b0316636250e0566040518163ffffffff1660e01b815260040160206040518083038186803b15801561454e57600080fd5b505afa158015614562573d6000803e3d6000fd5b505050506040513d601f19601f82011682018060405250810190614586919061566c565b9250600160009054906101000a90046001600160a01b03166001600160a01b031663ad4ed4976040518163ffffffff1660e01b815260040160206040518083038186803b1580156145d657600080fd5b505afa1580156145ea573d6000803e3d6000fd5b505050506040513d601f19601f8201168201806040525081019061460e919061566c565b91505b600154604051632474521560e21b81526001600160a01b03909116906391d14854906146439085903390600401615c2a565b60206040518083038186803b15801561465b57600080fd5b505afa15801561466f573d6000803e3d6000fd5b505050506040513d601f19601f820116820180604052508101906146939190615634565b6146b4573382604051634c4bf2f560e01b8152600401610727929190615ac9565b600154604051632474521560e21b81526001600160a01b03909116906391d14854906146e69086908990600401615c2a565b60206040518083038186803b1580156146fe57600080fd5b505afa158015614712573d6000803e3d6000fd5b505050506040513d601f19601f820116820180604052508101906147369190615634565b61475757848360405163f0e17da960e01b8152600401610727929190615ac9565b6003840180546001600160a01b0319166001600160a01b038781169190911790915560405133918816907fe1afc28d5cfbf961ed132b592d03e1026a060113945054c2c5ed4c90629022be9061119a908990615ab5565b6040805160a0810182526060808252600060208301819052928201839052810182905260808101919091526001600160a01b0384166000908152600560205260409081902090516148029085908590615959565b90815260200160405180910390206040518060a001604052908160008201805461482b906161e2565b80601f0160208091040260200160405190810160405280929190818152602001828054614857906161e2565b80156148a45780601f10614879576101008083540402835291602001916148a4565b820191906000526020600020905b81548152906001019060200180831161488757829003601f168201915b505050918352505060018201546001600160a01b031660208201526002820154604082015260039091015460ff80821615156060840152610100909104161515608090910152949350505050565b600081516000141561490657506000919050565b600080600084516001600160401b0381111561493257634e487b7160e01b600052604160045260246000fd5b60405190808252806020026020018201604052801561495b578160200160208202803683370190505b50905060005b8551811015614c6657600086828151811061498c57634e487b7160e01b600052603260045260246000fd5b60200260200101519050336001600160a01b0316816001600160a01b031614156149cb573360405163132d05df60e31b81526004016107279190615ab5565b600154604080516305b11d3760e01b815290516001600160a01b03909216916391d148549183916305b11d3791600480820192602092909190829003018186803b158015614a1857600080fd5b505afa158015614a2c573d6000803e3d6000fd5b505050506040513d601f19601f82011682018060405250810190614a50919061566c565b836040518363ffffffff1660e01b8152600401614a6e929190615c2a565b60206040518083038186803b158015614a8657600080fd5b505afa158015614a9a573d6000803e3d6000fd5b505050506040513d601f19601f82011682018060405250810190614abe9190615634565b614b0657600154604080516305b11d3760e01b8152905183926001600160a01b0316916305b11d37916004808301926020929190829003018186803b1580156106d457600080fd5b60005b84811015614b7f57816001600160a01b0316848281518110614b3b57634e487b7160e01b600052603260045260246000fd5b60200260200101516001600160a01b03161415614b6d5781604051638ef2e40760e01b81526004016107279190615ab5565b80614b778161621d565b915050614b09565b5060015460405163e3fcbac160e01b81526001600160a01b039091169063e3fcbac190614bb0908490600401615ab5565b60206040518083038186803b158015614bc857600080fd5b505afa158015614bdc573d6000803e3d6000fd5b505050506040513d601f19601f82011682018060405250810190614c00919061566c565b614c0a9086616164565b945080838581518110614c2d57634e487b7160e01b600052603260045260246000fd5b6001600160a01b039092166020928302919091019091015283614c4f8161621d565b945050508080614c5e9061621d565b915050614961565b506113888311614c7b57506000949350505050565b506001949350505050565b614c908282612bbd565b61160157614ca8816001600160a01b03166014614f6e565b614cb3836020614f6e565b604051602001614cc4929190615a46565b60408051601f198184030181529082905262461bcd60e51b825261072791600401615c87565b614cf48282612bbd565b611601576000828152602081815260408083206001600160a01b03851684529091529020805460ff19166001179055614d2a3390565b6001600160a01b0316816001600160a01b0316837f2f8788117e7eff1d82e926ec794901d17c78024a50270940304540a733656f0d60405160405180910390a45050565b614d788282612bbd565b15611601576000828152602081815260408083206001600160a01b0385168085529252808320805460ff1916905551339285917ff6391f5c32d9c69d2a47ea670b442974b53935d1edc7fd64eb21e047a839171b9190a45050565b6000805b600854811015614e4257826001600160a01b031660088281548110614e0c57634e487b7160e01b600052603260045260246000fd5b6000918252602090912001546001600160a01b03161415614e305750600192915050565b80614e3a8161621d565b915050614dd7565b50600092915050565b6000805b600754811015614ef5578383604051602001614e6c929190615959565b6040516020818303038152906040528051906020012060078281548110614ea357634e487b7160e01b600052603260045260246000fd5b90600052602060002001604051602001614ebd9190615985565b604051602081830303815290604052805190602001201415614ee3576001915050610593565b80614eed8161621d565b915050614e4f565b5060009392505050565b6000805b600954811015614e4257826001600160a01b031660098281548110614f3857634e487b7160e01b600052603260045260246000fd5b6000918252602090912001546001600160a01b03161415614f5c5750600192915050565b80614f668161621d565b915050614f03565b60606000614f7d83600261617c565b614f88906002616164565b6001600160401b03811115614fad57634e487b7160e01b600052604160045260246000fd5b6040519080825280601f01601f191660200182016040528015614fd7576020820181803683370190505b509050600360fc1b8160008151811061500057634e487b7160e01b600052603260045260246000fd5b60200101906001600160f81b031916908160001a905350600f60fb1b8160018151811061503d57634e487b7160e01b600052603260045260246000fd5b60200101906001600160f81b031916908160001a905350600061506184600261617c565b61506c906001616164565b90505b6001811115615100576f181899199a1a9b1b9c1cb0b131b232b360811b85600f16601081106150ae57634e487b7160e01b600052603260045260246000fd5b1a60f81b8282815181106150d257634e487b7160e01b600052603260045260246000fd5b60200101906001600160f81b031916908160001a90535060049490941c936150f9816161cb565b905061506f565b50831561514f5760405162461bcd60e51b815260206004820181905260248201527f537472696e67733a20686578206c656e67746820696e73756666696369656e746044820152606401610727565b9392505050565b828054615162906161e2565b90600052602060002090601f01602090048101928261518457600085556151ca565b82601f1061519d57805160ff19168380011785556151ca565b828001600101855582156151ca579182015b828111156151ca5782518255916020019190600101906151af565b506151d692915061528b565b5090565b6040805160e08101825260008082526060602083018190529282018390529181018290526080810182905260a0810182905260c081019190915290565b828054615223906161e2565b90600052602060002090601f01602090048101928261524557600085556151ca565b82601f1061525e5782800160ff198235161785556151ca565b828001600101855582156151ca579182015b828111156151ca578235825591602001919060010190615270565b5b808211156151d6576000815560010161528c565b80356001600160a01b03811681146152b757600080fd5b919050565b60008083601f8401126152cd578081fd5b5081356001600160401b038111156152e3578182fd5b6020830191508360208260051b85010111156152fe57600080fd5b9250929050565b60008083601f840112615316578182fd5b5081356001600160401b0381111561532c578182fd5b6020830191508360208285010111156152fe57600080fd5b600082601f830112615354578081fd5b81356001600160401b038082111561536e5761536e61624e565b604051601f8301601f19908116603f011681019082821181831017156153965761539661624e565b816040528381528660208588010111156153ae578485fd5b8360208701602083013792830160200193909352509392505050565b6000602082840312156153db578081fd5b61514f826152a0565b600080604083850312156153f6578081fd5b6153ff836152a0565b915061540d602084016152a0565b90509250929050565b60008060006040848603121561542a578081fd5b615433846152a0565b925060208401356001600160401b0381111561544d578182fd5b615459868287016152bc565b9497909650939450505050565b60008060006040848603121561547a578283fd5b615483846152a0565b925060208401356001600160401b0381111561549d578283fd5b61545986828701615305565b6000806000806000606086880312156154c0578081fd5b6154c9866152a0565b945060208601356001600160401b03808211156154e4578283fd5b6154f089838a01615305565b90965094506040880135915080821115615508578283fd5b50615515888289016152bc565b969995985093965092949392505050565b60008060008060006060868803121561553d578081fd5b615546866152a0565b945060208601356001600160401b0380821115615561578283fd5b61556d89838a01615305565b90965094506040880135915080821115615585578283fd5b5061551588828901615305565b600080600080606085870312156155a7578384fd5b6155b0856152a0565b935060208501356001600160401b038111156155ca578384fd5b6155d687828801615305565b9598909750949560400135949350505050565b600080604083850312156155fb578182fd5b615604836152a0565b915060208301356001600160401b0381111561561e578182fd5b61562a85828601615344565b9150509250929050565b600060208284031215615645578081fd5b8151801515811461514f578182fd5b600060208284031215615665578081fd5b5035919050565b60006020828403121561567d578081fd5b5051919050565b60008060408385031215615696578182fd5b8235915061540d602084016152a0565b6000602082840312156156b7578081fd5b81356001600160e01b03198116811461514f578182fd5b600080602083850312156156e0578182fd5b82356001600160401b038111156156f5578283fd5b61570185828601615305565b90969095509350505050565b600080600060408486031215615721578081fd5b83356001600160401b03811115615736578182fd5b61574286828701615305565b90945092506157559050602085016152a0565b90509250925092565b6000806000806000806000806080898b031215615779578586fd5b88356001600160401b038082111561578f578788fd5b61579b8c838d01615305565b909a50985060208b01359150808211156157b3578788fd5b6157bf8c838d01615305565b909850965060408b01359150808211156157d7578485fd5b6157e38c838d01615305565b909650945060608b01359150808211156157fb578384fd5b506158088b828c01615305565b999c989b5096995094979396929594505050565b600080600060408486031215615830578081fd5b83356001600160401b03811115615845578182fd5b61585186828701615305565b909790965060209590950135949350505050565b60008060008060006060868803121561587c578283fd5b85356001600160401b0380821115615892578485fd5b61589e89838a01615305565b9097509550602088013594506040880135915080821115615508578283fd5b6000602082840312156158ce578081fd5b81356001600160401b038111156158e3578182fd5b6158ef84828501615344565b949350505050565b6001600160a01b03169052565b81835281816020850137506000828201602090810191909152601f909101601f19169091010190565b6000815180845261594581602086016020860161619b565b601f01601f19169290920160200192915050565b8183823760009101908152919050565b6000825161597b81846020870161619b565b9190910192915050565b600080835482600182811c9150808316806159a157607f831692505b60208084108214156159c157634e487b7160e01b87526022600452602487fd5b8180156159d557600181146159e657615a12565b60ff19861689528489019650615a12565b60008a815260209020885b86811015615a0a5781548b8201529085019083016159f1565b505084890196505b509498975050505050505050565b6857415245484f55534560b81b815260090190565b6453544f524560d81b815260050190565b76020b1b1b2b9b9a1b7b73a3937b61d1030b1b1b7bab73a1604d1b815260008351615a7881601785016020880161619b565b7001034b99036b4b9b9b4b733903937b6329607d1b6017918401918201528351615aa981602884016020880161619b565b01602801949350505050565b6001600160a01b0391909116815260200190565b6001600160a01b03929092168252602082015260400190565b6001600160a01b0385168152608060208201819052600090615b069083018661592d565b93151560408301525090151560609091015292915050565b600060018060a01b03808a16835260e06020840152615b4060e084018a61592d565b8381036040850152615b52818a61592d565b97821660608501525094151560808301525091151560a083015290911660c0909101529392505050565b6020808252825182820181905260009190848201906040850190845b81811015615bbd5783516001600160a01b031683529284019291840191600101615b98565b50909695505050505050565b6000602080830181845280855180835260408601915060408160051b8701019250838701855b82811015615c1d57603f19888603018452615c0b85835161592d565b94509285019290850190600101615bef565b5092979650505050505050565b9182526001600160a01b0316602082015260400190565b6020815260006158ef602083018486615904565b604081526000615c69604083018688615904565b8281036020840152615c7c818587615904565b979650505050505050565b60208152600061514f602083018461592d565b60a081526000615cad60a083018861592d565b6001600160a01b0396909616602083015250604081019390935290151560608301521515608090910152919050565b6000610100808352615cf08184018c61592d565b90508281036020840152615d04818b61592d565b90508281036040840152615d18818a61592d565b90508281036060840152615d2c818961592d565b9615156080840152505092151560a08401526001600160a01b039190911660c083015260e090910152949350505050565b60408152601060408201526f4974656d20666f72206c697374696e6760801b60608201526080602082015260006158ef608083018486615904565b602080825260059082015264707269636560d81b604082015260600190565b604081526015604082015274537570706c696572206974656d206c697374696e6760581b60608201526080602082015260006158ef608083018486615904565b6040815260046040820152634974656d60e01b60608201526080602082015260006158ef608083018486615904565b60408082526010908201526f28343cb9b4b1b0b62637b1b0ba34b7b760811b60608201526001600160a01b0391909116602082015260800190565b60408082526008908201526729bab8383634b2b960c11b60608201526001600160a01b0391909116602082015260800190565b60408152601d60408201527f4974656d20666f722072657461696c2070726963652073657474696e6700000060608201526080602082015260006158ef608083018486615904565b6040808252600890820152672637b1b0ba34b7b760c11b60608201526001600160a01b0391909116602082015260800190565b60408152602260408201527f537570706c696572206974656d206c697374696e6720666f7220617070726f76606082015261185b60f21b608082015260a0602082015260006158ef60a083018486615904565b6020815260008251610100806020850152615f8161012085018361592d565b91506020850151601f1980868503016040870152615f9f848361592d565b93506040870151915080868503016060870152615fbc848361592d565b9350606087015191508086850301608087015250615fda838261592d565b9250506080850151615ff060a086018215159052565b5060a085015180151560c08601525060c085015161601160e08601826158f7565b5060e0949094015192909301919091525090565b60208152600060018060a01b03808451166020840152602084015160e0604085015261605561010085018261592d565b90506040850151601f19858303016060860152616072828261592d565b9150508160608601511660808501526080850151151560a085015260a085015191506160a260c085018315159052565b60c085015191506158ef60e08501836158f7565b602080825282516001600160a01b031682820152820151608060408301526000906160e460a084018261592d565b90506040840151151560608401526060840151151560808401528091505092915050565b602081526000825160a0602084015261612460c084018261592d565b905060018060a01b036020850151166040840152604084015160608401526060840151151560808401526080840151151560a08401528091505092915050565b6000821982111561617757616177616238565b500190565b600081600019048311821515161561619657616196616238565b500290565b60005b838110156161b657818101518382015260200161619e565b838111156161c5576000848401525b50505050565b6000816161da576161da616238565b506000190190565b600181811c908216806161f657607f821691505b6020821081141561621757634e487b7160e01b600052602260045260246000fd5b50919050565b600060001982141561623157616231616238565b5060010190565b634e487b7160e01b600052601160045260246000fd5b634e487b7160e01b600052604160045260246000fdfe426f61726420617070726f76616c206661696c656420666f7220737570706c69a26469706673582212206bf4e7c25eeb76bb619d6332fc8a4f6275f55f21c822eef23e5ac78307f26e2564736f6c63430008040033",
  "immutableReferences": {},
  "source": "// SPDX-License-Identifier: MIT\r\npragma solidity ^0.8.4; // m bo phin bn >= 0.8.4\r\n\r\nimport \"@openzeppelin/contracts/access/AccessControl.sol\";\r\nimport \"./Interfaces.sol\"; // Import file Interfaces.sol tp trung\r\n\r\n// --- CUSTOM ERROR DEFINITIONS ---\r\n// Li chung\r\nerror InvalidAddress(address addr);\r\nerror CallerNotAuthorized(address caller, bytes32 requiredRole);\r\nerror AlreadyExists(string entityType, string entityId);\r\nerror AlreadyExistsAddress(string entityType, address entityAddr);\r\nerror NotFound(string entityType, string entityId);\r\nerror NotFoundAddress(string entityType, address entityAddr);\r\nerror NotApproved(string entityType, string entityId);\r\nerror NotApprovedAddress(string entityType, address entityAddr);\r\nerror StringTooShort(string fieldName);\r\nerror ValueMustBePositive(string fieldName);\r\nerror ApprovalFailed(string reason);\r\nerror InvalidStateForAction(string action);\r\nerror CannotSelfApprove(address proposer);\r\nerror DuplicateApprover(address approver);\r\n\r\n// Li c th cho ItemsManagement\r\nerror InvalidLocationType(string providedType);\r\nerror ManagerAlreadyAssigned(address locationId, address currentManager);\r\nerror ManagerRoleMissing(address candidateManager, bytes32 expectedRole);\r\nerror NoDesignatedSourceWarehouse(address storeAddress);\r\nerror InvalidSourceWarehouse(address warehouseAddress);\r\nerror SupplierMissingRole(address supplierAddress);\r\n// error PriceTooHigh(uint256 price, uint256 ceiling); // C th khng cn nu ch auto-approve\r\n\r\ncontract ItemsManagement is AccessControl {\r\n    IRoleManagement public roleManagementExternal;\r\n\r\n    struct ItemInfo {\r\n        string itemId;\r\n        string name;\r\n        string description;\r\n        string category;\r\n        bool exists;\r\n        bool isApprovedByBoard;\r\n        address proposer;\r\n        uint256 referencePriceCeiling;\r\n    }\r\n\r\n    // --- MAPPINGS ---\r\n    mapping(string => ItemInfo) public items;\r\n    mapping(address => PhysicalLocationInfo) public physicalLocations;\r\n    mapping(address => SupplierInfo) public suppliers;\r\n    mapping(address => mapping(string => SupplierItemListing)) public supplierItemListings;\r\n    mapping(address => mapping(string => uint256)) public storeItemRetailPrices;\r\n\r\n    // --- ARRAYS FOR ITERATION ---\r\n    string[] public itemIds;\r\n    address[] public locationAddresses;\r\n    address[] public supplierAddresses;\r\n\r\n    // --- EVENTS ---\r\n    event ItemProposed(string indexed itemId, string name, address indexed proposer);\r\n    event ItemApprovedByBoard(string indexed itemId, uint256 referencePriceCeiling, address indexed finalApprover);\r\n    event PhysicalLocationProposed(address indexed locationId, string name, string locationType, address indexed proposer);\r\n    event PhysicalLocationApprovedByBoard(address indexed locationId, address indexed finalApprover);\r\n    event SupplierProposed(address indexed supplierId, string name, address indexed proposer);\r\n    event SupplierApprovedByBoard(address indexed supplierId, address indexed finalApprover);\r\n    event PhysicalLocationManagerAssigned(address indexed locationId, address newManager, address indexed byDirector);\r\n    event StoreDesignatedSourceWarehouseSet(address indexed storeAddress, address indexed designatedWarehouse, address indexed byStoreDirector);\r\n    event SupplierItemListed(address indexed supplierAddress, string indexed itemId, uint256 price, bool autoApproved);\r\n    event SupplierItemManuallyApprovedByBoard(address indexed supplierAddress, string indexed itemId, address indexed approver);\r\n    event RetailPriceSet(address indexed storeAddress, string indexed itemId, uint256 price, address indexed byStoreDirector);\r\n\r\n    // --- CONSTRUCTOR ---\r\n    constructor(address _roleManagementExternalAddress) {\r\n        if (_roleManagementExternalAddress == address(0)) {\r\n            revert InvalidAddress(_roleManagementExternalAddress);\r\n        }\r\n        roleManagementExternal = IRoleManagement(_roleManagementExternalAddress);\r\n        _setupRole(DEFAULT_ADMIN_ROLE, msg.sender);\r\n    }\r\n\r\n    // --- MODIFIERS ---\r\n    modifier onlyBoardMember() {\r\n        if (!roleManagementExternal.hasRole(roleManagementExternal.BOARD_ROLE(), msg.sender)) {\r\n            revert CallerNotAuthorized(msg.sender, roleManagementExternal.BOARD_ROLE());\r\n        }\r\n        _;\r\n    }\r\n\r\n    modifier onlySupplier() {\r\n        if (!roleManagementExternal.hasRole(roleManagementExternal.SUPPLIER_ROLE(), msg.sender)) {\r\n            revert CallerNotAuthorized(msg.sender, roleManagementExternal.SUPPLIER_ROLE());\r\n        }\r\n        SupplierInfo storage sup = suppliers[msg.sender];\r\n        if (!sup.exists || !sup.isApprovedByBoard) {\r\n            revert NotApprovedAddress(\"Supplier\", msg.sender);\r\n        }\r\n        _;\r\n    }\r\n\r\n    modifier onlyStoreDirector() {\r\n        bytes32 sdRole = roleManagementExternal.STORE_DIRECTOR_ROLE();\r\n        if (!roleManagementExternal.hasRole(sdRole, msg.sender)) {\r\n            revert CallerNotAuthorized(msg.sender, sdRole);\r\n        }\r\n        _;\r\n    }\r\n\r\n    modifier onlyWarehouseDirector() {\r\n        bytes32 wdRole = roleManagementExternal.WAREHOUSE_DIRECTOR_ROLE();\r\n        if (!roleManagementExternal.hasRole(wdRole, msg.sender)) {\r\n            revert CallerNotAuthorized(msg.sender, wdRole);\r\n        }\r\n        _;\r\n    }\r\n\r\n    // Modifier ny khng cn cn thit nu logic kim tra c a vo hm\r\n    // modifier onlyStoreManagerOfThisStore(address _storeAddress) { ... }\r\n\r\n\r\n    // --- INTERNAL FUNCTIONS ---\r\n    function _getBoardApproval(address[] memory _approvers) internal view returns (bool) {\r\n        if (_approvers.length == 0) return false;\r\n        uint256 totalApprovalShares = 0;\r\n        uint processedCount = 0;\r\n        // Kch thc mng processedApprovers phi bng _approvers.length\r\n        //  trnh out-of-bounds access nu tt c approvers u hp l.\r\n        address[] memory processedApprovers = new address[](_approvers.length);\r\n\r\n\r\n        for (uint i = 0; i < _approvers.length; i++) {\r\n            address approver = _approvers[i];\r\n\r\n            if (approver == msg.sender) {\r\n                revert CannotSelfApprove(msg.sender);\r\n            }\r\n            if (!roleManagementExternal.hasRole(roleManagementExternal.BOARD_ROLE(), approver)) {\r\n                revert CallerNotAuthorized(approver, roleManagementExternal.BOARD_ROLE());\r\n            }\r\n\r\n            for (uint j = 0; j < processedCount; j++) {\r\n                if (processedApprovers[j] == approver) {\r\n                    revert DuplicateApprover(approver);\r\n                }\r\n            }\r\n            \r\n            totalApprovalShares += roleManagementExternal.getSharesPercentage(approver);\r\n            processedApprovers[processedCount] = approver;\r\n            processedCount++;\r\n        }\r\n        if (totalApprovalShares <= 5000) { // 5000 means <= 50.00%\r\n            return false;\r\n        }\r\n        return true;\r\n    }\r\n\r\n    function _itemExistsInArray(string calldata _itemId) internal view returns (bool) {\r\n        for (uint i = 0; i < itemIds.length; i++) {\r\n            if (keccak256(abi.encodePacked(itemIds[i])) == keccak256(abi.encodePacked(_itemId))) return true;\r\n        }\r\n        return false;\r\n    }\r\n    function _locationExistsInArray(address _locationId) internal view returns (bool) {\r\n        for (uint i = 0; i < locationAddresses.length; i++) {\r\n            if (locationAddresses[i] == _locationId) return true;\r\n        }\r\n        return false;\r\n    }\r\n     function _supplierExistsInArray(address _supplierId) internal view returns (bool) {\r\n        for (uint i = 0; i < supplierAddresses.length; i++) {\r\n            if (supplierAddresses[i] == _supplierId) return true;\r\n        }\r\n        return false;\r\n    }\r\n\r\n    // --- ITEM MANAGEMENT BY BOARD ---\r\n    function proposeNewItem(string calldata _itemId, string calldata _name, string calldata _description, string calldata _category) external onlyBoardMember {\r\n        if (items[_itemId].exists) {\r\n            revert AlreadyExists(\"Item\", _itemId);\r\n        }\r\n        if (bytes(_itemId).length == 0) {\r\n            revert StringTooShort(\"itemId\");\r\n        }\r\n\r\n        items[_itemId] = ItemInfo({\r\n            itemId: _itemId, name: _name, description: _description, category: _category,\r\n            exists: true, isApprovedByBoard: false, proposer: msg.sender, referencePriceCeiling: 0\r\n        });\r\n        if (!_itemExistsInArray(_itemId)) { itemIds.push(_itemId); }\r\n        emit ItemProposed(_itemId, _name, msg.sender);\r\n    }\r\n\r\n    function approveProposedItem(string calldata _itemId, uint256 _referencePriceCeiling, address[] calldata _approvers) external onlyBoardMember {\r\n        ItemInfo storage item = items[_itemId];\r\n        if (!item.exists) { revert NotFound(\"Item\", _itemId); }\r\n        if (item.isApprovedByBoard) { revert InvalidStateForAction(\"Item already approved\"); }\r\n        if (_referencePriceCeiling == 0) { revert ValueMustBePositive(\"referencePriceCeiling\"); }\r\n        if (!_getBoardApproval(_approvers)) { revert ApprovalFailed(\"Board approval failed for item\"); }\r\n\r\n        item.isApprovedByBoard = true;\r\n        item.referencePriceCeiling = _referencePriceCeiling;\r\n        emit ItemApprovedByBoard(_itemId, _referencePriceCeiling, msg.sender);\r\n    }\r\n\r\n    // --- PHYSICAL LOCATION MANAGEMENT BY BOARD ---\r\n    function proposeNewPhysicalLocation(address _locationId, string calldata _name, string calldata _locationType) external onlyBoardMember {\r\n        if (physicalLocations[_locationId].exists) { revert AlreadyExistsAddress(\"PhysicalLocation\", _locationId); }\r\n        if (_locationId == address(0)) { revert InvalidAddress(_locationId); }\r\n        bytes32 typeHash = keccak256(abi.encodePacked(_locationType));\r\n        if (typeHash != keccak256(abi.encodePacked(\"STORE\")) && typeHash != keccak256(abi.encodePacked(\"WAREHOUSE\"))) {\r\n            revert InvalidLocationType(_locationType);\r\n        }\r\n\r\n        physicalLocations[_locationId] = PhysicalLocationInfo({\r\n            locationId: _locationId, name: _name, locationType: _locationType, manager: address(0),\r\n            exists: true, isApprovedByBoard: false, designatedSourceWarehouseAddress: address(0)\r\n        });\r\n        if (!_locationExistsInArray(_locationId)) { locationAddresses.push(_locationId); }\r\n        emit PhysicalLocationProposed(_locationId, _name, _locationType, msg.sender);\r\n    }\r\n\r\n    function approveProposedPhysicalLocation(address _locationId, address[] calldata _approvers) external onlyBoardMember {\r\n        PhysicalLocationInfo storage loc = physicalLocations[_locationId];\r\n        if (!loc.exists) { revert NotFoundAddress(\"PhysicalLocation\", _locationId); }\r\n        if (loc.isApprovedByBoard) { revert InvalidStateForAction(\"Location already approved\"); }\r\n        if (!_getBoardApproval(_approvers)) { revert ApprovalFailed(\"Board approval failed for location\"); }\r\n\r\n        loc.isApprovedByBoard = true;\r\n        emit PhysicalLocationApprovedByBoard(_locationId, msg.sender);\r\n    }\r\n\r\n    function assignManagerToLocation(address _locationId, address _managerId) external { // Logic for director role inside\r\n        PhysicalLocationInfo storage loc = physicalLocations[_locationId];\r\n        if (!loc.exists) { revert NotFoundAddress(\"Location\", _locationId); }\r\n        if (!loc.isApprovedByBoard) { revert NotApprovedAddress(\"Location\", _locationId); }\r\n        if (loc.manager != address(0)) { revert ManagerAlreadyAssigned(_locationId, loc.manager); }\r\n        if (_managerId == address(0)) { revert InvalidAddress(_managerId); }\r\n\r\n        bytes32 expectedManagerRole;\r\n        bytes32 requiredDirectorRole;\r\n        bool isStore = (keccak256(abi.encodePacked(loc.locationType)) == keccak256(abi.encodePacked(\"STORE\")));\r\n\r\n        if (isStore) {\r\n            expectedManagerRole = roleManagementExternal.STORE_MANAGER_ROLE();\r\n            requiredDirectorRole = roleManagementExternal.STORE_DIRECTOR_ROLE();\r\n        } else { // Must be WAREHOUSE\r\n            expectedManagerRole = roleManagementExternal.WAREHOUSE_MANAGER_ROLE();\r\n            requiredDirectorRole = roleManagementExternal.WAREHOUSE_DIRECTOR_ROLE();\r\n        }\r\n\r\n        if (!roleManagementExternal.hasRole(requiredDirectorRole, msg.sender)) {\r\n            revert CallerNotAuthorized(msg.sender, requiredDirectorRole);\r\n        }\r\n        if (!roleManagementExternal.hasRole(expectedManagerRole, _managerId)) {\r\n            revert ManagerRoleMissing(_managerId, expectedManagerRole);\r\n        }\r\n\r\n        loc.manager = _managerId;\r\n        emit PhysicalLocationManagerAssigned(_locationId, _managerId, msg.sender);\r\n    }\r\n\r\n    function setDesignatedSourceWarehouseForStore(address _storeAddress, address _warehouseAddress) external onlyStoreDirector {\r\n        PhysicalLocationInfo storage storeInfo = physicalLocations[_storeAddress];\r\n        if (!storeInfo.exists || !storeInfo.isApprovedByBoard || keccak256(abi.encodePacked(storeInfo.locationType)) != keccak256(abi.encodePacked(\"STORE\"))) {\r\n            revert NotApprovedAddress(\"Store for setting source warehouse\", _storeAddress);\r\n        }\r\n\r\n        if (_warehouseAddress != address(0)) {\r\n            PhysicalLocationInfo memory warehouseInfo = physicalLocations[_warehouseAddress];\r\n            if (!warehouseInfo.exists || !warehouseInfo.isApprovedByBoard || keccak256(abi.encodePacked(warehouseInfo.locationType)) != keccak256(abi.encodePacked(\"WAREHOUSE\"))) {\r\n                revert InvalidSourceWarehouse(_warehouseAddress);\r\n            }\r\n        }\r\n        storeInfo.designatedSourceWarehouseAddress = _warehouseAddress;\r\n        emit StoreDesignatedSourceWarehouseSet(_storeAddress, _warehouseAddress, msg.sender);\r\n    }\r\n\r\n    // --- SUPPLIER MANAGEMENT BY BOARD ---\r\n    function proposeNewSupplier(address _supplierId, string calldata _name) external onlyBoardMember {\r\n        if (suppliers[_supplierId].exists) { revert AlreadyExistsAddress(\"Supplier\", _supplierId); }\r\n        if (_supplierId == address(0)) { revert InvalidAddress(_supplierId); }\r\n        if (!roleManagementExternal.hasRole(roleManagementExternal.SUPPLIER_ROLE(), _supplierId)) {\r\n            revert SupplierMissingRole(_supplierId);\r\n        }\r\n\r\n        suppliers[_supplierId] = SupplierInfo({\r\n            supplierId: _supplierId, name: _name, isApprovedByBoard: false, exists: true\r\n        });\r\n        if (!_supplierExistsInArray(_supplierId)) { supplierAddresses.push(_supplierId); }\r\n        emit SupplierProposed(_supplierId, _name, msg.sender);\r\n    }\r\n\r\n    function approveProposedSupplier(address _supplierId, address[] calldata _approvers) external onlyBoardMember {\r\n        SupplierInfo storage sup = suppliers[_supplierId];\r\n        if (!sup.exists) { revert NotFoundAddress(\"Supplier\", _supplierId); }\r\n        if (sup.isApprovedByBoard) { revert InvalidStateForAction(\"Supplier already approved\"); }\r\n        if (!_getBoardApproval(_approvers)) { revert ApprovalFailed(\"Board approval failed for supplier\"); }\r\n\r\n        sup.isApprovedByBoard = true;\r\n        emit SupplierApprovedByBoard(_supplierId, msg.sender);\r\n    }\r\n\r\n    // --- SUPPLIER ITEM LISTING AND APPROVAL ---\r\n    function listSupplierItem(string calldata _itemId, uint256 _price) external onlySupplier {\r\n        ItemInfo memory itemInfo = items[_itemId];\r\n        if (!itemInfo.exists || !itemInfo.isApprovedByBoard) { revert NotApproved(\"Item for listing\", _itemId); }\r\n        if (supplierItemListings[msg.sender][_itemId].exists) { revert AlreadyExists(\"Supplier item listing\", _itemId); } // Consider supplier in ID\r\n        if (_price == 0) { revert ValueMustBePositive(\"price\"); }\r\n\r\n        bool autoApproved = (itemInfo.referencePriceCeiling > 0 && _price <= itemInfo.referencePriceCeiling);\r\n        supplierItemListings[msg.sender][_itemId] = SupplierItemListing({\r\n            itemId: _itemId, supplierAddress: msg.sender, price: _price,\r\n            isApprovedByBoard: autoApproved, exists: true\r\n        });\r\n        emit SupplierItemListed(msg.sender, _itemId, _price, autoApproved);\r\n    }\r\n\r\n    function approveSupplierItemManuallyByBoard(address _supplierAddress, string calldata _itemId, address[] calldata _approvers) external onlyBoardMember {\r\n        if (!suppliers[_supplierAddress].exists || !suppliers[_supplierAddress].isApprovedByBoard) {\r\n            revert NotApprovedAddress(\"Supplier for item approval\", _supplierAddress);\r\n        }\r\n        SupplierItemListing storage listing = supplierItemListings[_supplierAddress][_itemId];\r\n        if (!listing.exists) { revert NotFound(\"Supplier item listing for approval\", _itemId); } // Consider supplier in ID\r\n        if (listing.isApprovedByBoard) { revert InvalidStateForAction(\"Supplier item already approved\"); }\r\n        if (!_getBoardApproval(_approvers)) { revert ApprovalFailed(\"Board approval failed for supplier item\"); }\r\n\r\n        listing.isApprovedByBoard = true;\r\n        emit SupplierItemManuallyApprovedByBoard(_supplierAddress, _itemId, msg.sender);\r\n    }\r\n\r\n    // --- STORE ITEM RETAIL PRICE ---\r\n    function setStoreItemRetailPrice(address _storeAddress, string calldata _itemId, uint256 _price) external onlyStoreDirector {\r\n        if (!items[_itemId].exists || !items[_itemId].isApprovedByBoard) {\r\n            revert NotApproved(\"Item for retail price setting\", _itemId);\r\n        }\r\n        PhysicalLocationInfo memory storeInfo = physicalLocations[_storeAddress];\r\n        if (!storeInfo.exists || !storeInfo.isApprovedByBoard || keccak256(abi.encodePacked(storeInfo.locationType)) != keccak256(abi.encodePacked(\"STORE\"))) {\r\n            revert NotApprovedAddress(\"Store for retail price setting\", _storeAddress);\r\n        }\r\n        if (_price == 0) { revert ValueMustBePositive(\"price\"); }\r\n\r\n        storeItemRetailPrices[_storeAddress][_itemId] = _price;\r\n        emit RetailPriceSet(_storeAddress, _itemId, _price, msg.sender);\r\n    }\r\n\r\n    // --- VIEW FUNCTIONS ---\r\n    function getItemInfo(string calldata _itemId) external view returns (ItemInfo memory) {\r\n        return items[_itemId];\r\n    }\r\n    function getPhysicalLocationInfo(address _locationId) external view returns (PhysicalLocationInfo memory) {\r\n        return physicalLocations[_locationId];\r\n    }\r\n    function getStoreInfo(address _storeAddress) external view returns (PhysicalLocationInfo memory) {\r\n        PhysicalLocationInfo memory loc = physicalLocations[_storeAddress];\r\n        if (!loc.exists || keccak256(abi.encodePacked(loc.locationType)) != keccak256(abi.encodePacked(\"STORE\"))) {\r\n            revert NotFoundAddress(\"Store\", _storeAddress); // Or InvalidLocationType\r\n        }\r\n        return loc;\r\n    }\r\n    function getWarehouseInfo(address _warehouseAddress) external view returns (PhysicalLocationInfo memory) {\r\n        PhysicalLocationInfo memory loc = physicalLocations[_warehouseAddress];\r\n        if (!loc.exists || keccak256(abi.encodePacked(loc.locationType)) != keccak256(abi.encodePacked(\"WAREHOUSE\"))) {\r\n             revert NotFoundAddress(\"Warehouse\", _warehouseAddress); // Or InvalidLocationType\r\n        }\r\n        return loc;\r\n    }\r\n    function getSupplierInfo(address _supplierId) external view returns (SupplierInfo memory) {\r\n        return suppliers[_supplierId];\r\n    }\r\n    function getSupplierItemDetails(address _supplierAddress, string calldata _itemId) external view returns (SupplierItemListing memory) {\r\n        return supplierItemListings[_supplierAddress][_itemId];\r\n    }\r\n    function getItemRetailPriceAtStore(string calldata _itemId, address _storeAddress) external view returns (uint256 price, bool priceExists) {\r\n        price = storeItemRetailPrices[_storeAddress][_itemId];\r\n        return (price, price > 0); // Assuming price 0 means not set\r\n    }\r\n    function getAllItemIds() external view returns (string[] memory) { return itemIds; }\r\n    function getAllLocationAddresses() external view returns (address[] memory) { return locationAddresses; }\r\n    function getAllSupplierAddresses() external view returns (address[] memory) { return supplierAddresses; }\r\n}",
  "sourcePath": "D:\\nhi\\Logtech\\New tech in Log\\dapp2\\SC\\contracts\\ItemsManagement.sol",
  "compiler": {
    "name": "solc",
    "version": "0.8.4+commit.c7e474f2.Emscripten.clang"
  },
  "schemaVersion": "3.4.16",
  "updatedAt": "2025-06-02T14:39:38.591Z",
  "devdoc": {
    "kind": "dev",
    "methods": {
      "getRoleAdmin(bytes32)": {
        "details": "Returns the admin role that controls `role`. See {grantRole} and {revokeRole}. To change a role's admin, use {_setRoleAdmin}."
      },
      "grantRole(bytes32,address)": {
        "details": "Grants `role` to `account`. If `account` had not been already granted `role`, emits a {RoleGranted} event. Requirements: - the caller must have ``role``'s admin role."
      },
      "hasRole(bytes32,address)": {
        "details": "Returns `true` if `account` has been granted `role`."
      },
      "renounceRole(bytes32,address)": {
        "details": "Revokes `role` from the calling account. Roles are often managed via {grantRole} and {revokeRole}: this function's purpose is to provide a mechanism for accounts to lose their privileges if they are compromised (such as when a trusted device is misplaced). If the calling account had been granted `role`, emits a {RoleRevoked} event. Requirements: - the caller must be `account`."
      },
      "revokeRole(bytes32,address)": {
        "details": "Revokes `role` from `account`. If `account` had been granted `role`, emits a {RoleRevoked} event. Requirements: - the caller must have ``role``'s admin role."
      },
      "supportsInterface(bytes4)": {
        "details": "See {IERC165-supportsInterface}."
      }
    },
    "version": 1
  },
  "userdoc": {
    "kind": "user",
    "methods": {},
    "version": 1
  }
}