{
  "contractName": "ItemsManagement",
  "abi": [
    {
      "inputs": [
        {
          "internalType": "address",
          "name": "_roleManagementExternalAddress",
          "type": "address"
        }
      ],
      "stateMutability": "nonpayable",
      "type": "constructor"
    },
    {
      "anonymous": false,
      "inputs": [
        {
          "indexed": true,
          "internalType": "string",
          "name": "itemId",
          "type": "string"
        },
        {
          "indexed": false,
          "internalType": "uint256",
          "name": "referencePriceCeiling",
          "type": "uint256"
        },
        {
          "indexed": true,
          "internalType": "address",
          "name": "finalApprover",
          "type": "address"
        }
      ],
      "name": "ItemApprovedByBoard",
      "type": "event"
    },
    {
      "anonymous": false,
      "inputs": [
        {
          "indexed": true,
          "internalType": "string",
          "name": "itemId",
          "type": "string"
        },
        {
          "indexed": false,
          "internalType": "string",
          "name": "name",
          "type": "string"
        },
        {
          "indexed": true,
          "internalType": "address",
          "name": "proposer",
          "type": "address"
        }
      ],
      "name": "ItemProposed",
      "type": "event"
    },
    {
      "anonymous": false,
      "inputs": [
        {
          "indexed": true,
          "internalType": "address",
          "name": "locationId",
          "type": "address"
        },
        {
          "indexed": true,
          "internalType": "address",
          "name": "finalApprover",
          "type": "address"
        }
      ],
      "name": "PhysicalLocationApprovedByBoard",
      "type": "event"
    },
    {
      "anonymous": false,
      "inputs": [
        {
          "indexed": true,
          "internalType": "address",
          "name": "locationId",
          "type": "address"
        },
        {
          "indexed": false,
          "internalType": "address",
          "name": "newManager",
          "type": "address"
        },
        {
          "indexed": true,
          "internalType": "address",
          "name": "byDirector",
          "type": "address"
        }
      ],
      "name": "PhysicalLocationManagerAssigned",
      "type": "event"
    },
    {
      "anonymous": false,
      "inputs": [
        {
          "indexed": true,
          "internalType": "address",
          "name": "locationId",
          "type": "address"
        },
        {
          "indexed": false,
          "internalType": "string",
          "name": "name",
          "type": "string"
        },
        {
          "indexed": false,
          "internalType": "string",
          "name": "locationType",
          "type": "string"
        },
        {
          "indexed": true,
          "internalType": "address",
          "name": "proposer",
          "type": "address"
        }
      ],
      "name": "PhysicalLocationProposed",
      "type": "event"
    },
    {
      "anonymous": false,
      "inputs": [
        {
          "indexed": true,
          "internalType": "address",
          "name": "storeAddress",
          "type": "address"
        },
        {
          "indexed": true,
          "internalType": "string",
          "name": "itemId",
          "type": "string"
        },
        {
          "indexed": false,
          "internalType": "uint256",
          "name": "price",
          "type": "uint256"
        },
        {
          "indexed": true,
          "internalType": "address",
          "name": "byStoreDirector",
          "type": "address"
        }
      ],
      "name": "RetailPriceSet",
      "type": "event"
    },
    {
      "anonymous": false,
      "inputs": [
        {
          "indexed": true,
          "internalType": "bytes32",
          "name": "role",
          "type": "bytes32"
        },
        {
          "indexed": true,
          "internalType": "bytes32",
          "name": "previousAdminRole",
          "type": "bytes32"
        },
        {
          "indexed": true,
          "internalType": "bytes32",
          "name": "newAdminRole",
          "type": "bytes32"
        }
      ],
      "name": "RoleAdminChanged",
      "type": "event"
    },
    {
      "anonymous": false,
      "inputs": [
        {
          "indexed": true,
          "internalType": "bytes32",
          "name": "role",
          "type": "bytes32"
        },
        {
          "indexed": true,
          "internalType": "address",
          "name": "account",
          "type": "address"
        },
        {
          "indexed": true,
          "internalType": "address",
          "name": "sender",
          "type": "address"
        }
      ],
      "name": "RoleGranted",
      "type": "event"
    },
    {
      "anonymous": false,
      "inputs": [
        {
          "indexed": true,
          "internalType": "bytes32",
          "name": "role",
          "type": "bytes32"
        },
        {
          "indexed": true,
          "internalType": "address",
          "name": "account",
          "type": "address"
        },
        {
          "indexed": true,
          "internalType": "address",
          "name": "sender",
          "type": "address"
        }
      ],
      "name": "RoleRevoked",
      "type": "event"
    },
    {
      "anonymous": false,
      "inputs": [
        {
          "indexed": true,
          "internalType": "address",
          "name": "storeAddress",
          "type": "address"
        },
        {
          "indexed": true,
          "internalType": "address",
          "name": "designatedWarehouse",
          "type": "address"
        },
        {
          "indexed": true,
          "internalType": "address",
          "name": "byStoreDirector",
          "type": "address"
        }
      ],
      "name": "StoreDesignatedSourceWarehouseSet",
      "type": "event"
    },
    {
      "anonymous": false,
      "inputs": [
        {
          "indexed": true,
          "internalType": "address",
          "name": "supplierId",
          "type": "address"
        },
        {
          "indexed": true,
          "internalType": "address",
          "name": "finalApprover",
          "type": "address"
        }
      ],
      "name": "SupplierApprovedByBoard",
      "type": "event"
    },
    {
      "anonymous": false,
      "inputs": [
        {
          "indexed": true,
          "internalType": "address",
          "name": "supplierAddress",
          "type": "address"
        },
        {
          "indexed": true,
          "internalType": "string",
          "name": "itemId",
          "type": "string"
        },
        {
          "indexed": false,
          "internalType": "uint256",
          "name": "price",
          "type": "uint256"
        },
        {
          "indexed": false,
          "internalType": "bool",
          "name": "autoApproved",
          "type": "bool"
        }
      ],
      "name": "SupplierItemListed",
      "type": "event"
    },
    {
      "anonymous": false,
      "inputs": [
        {
          "indexed": true,
          "internalType": "address",
          "name": "supplierAddress",
          "type": "address"
        },
        {
          "indexed": true,
          "internalType": "string",
          "name": "itemId",
          "type": "string"
        },
        {
          "indexed": true,
          "internalType": "address",
          "name": "approver",
          "type": "address"
        }
      ],
      "name": "SupplierItemManuallyApprovedByBoard",
      "type": "event"
    },
    {
      "anonymous": false,
      "inputs": [
        {
          "indexed": true,
          "internalType": "address",
          "name": "supplierId",
          "type": "address"
        },
        {
          "indexed": false,
          "internalType": "string",
          "name": "name",
          "type": "string"
        },
        {
          "indexed": true,
          "internalType": "address",
          "name": "proposer",
          "type": "address"
        }
      ],
      "name": "SupplierProposed",
      "type": "event"
    },
    {
      "inputs": [],
      "name": "DEFAULT_ADMIN_ROLE",
      "outputs": [
        {
          "internalType": "bytes32",
          "name": "",
          "type": "bytes32"
        }
      ],
      "stateMutability": "view",
      "type": "function"
    },
    {
      "inputs": [
        {
          "internalType": "bytes32",
          "name": "role",
          "type": "bytes32"
        }
      ],
      "name": "getRoleAdmin",
      "outputs": [
        {
          "internalType": "bytes32",
          "name": "",
          "type": "bytes32"
        }
      ],
      "stateMutability": "view",
      "type": "function"
    },
    {
      "inputs": [
        {
          "internalType": "bytes32",
          "name": "role",
          "type": "bytes32"
        },
        {
          "internalType": "address",
          "name": "account",
          "type": "address"
        }
      ],
      "name": "grantRole",
      "outputs": [],
      "stateMutability": "nonpayable",
      "type": "function"
    },
    {
      "inputs": [
        {
          "internalType": "bytes32",
          "name": "role",
          "type": "bytes32"
        },
        {
          "internalType": "address",
          "name": "account",
          "type": "address"
        }
      ],
      "name": "hasRole",
      "outputs": [
        {
          "internalType": "bool",
          "name": "",
          "type": "bool"
        }
      ],
      "stateMutability": "view",
      "type": "function"
    },
    {
      "inputs": [
        {
          "internalType": "uint256",
          "name": "",
          "type": "uint256"
        }
      ],
      "name": "itemIds",
      "outputs": [
        {
          "internalType": "string",
          "name": "",
          "type": "string"
        }
      ],
      "stateMutability": "view",
      "type": "function"
    },
    {
      "inputs": [
        {
          "internalType": "string",
          "name": "",
          "type": "string"
        }
      ],
      "name": "items",
      "outputs": [
        {
          "internalType": "string",
          "name": "itemId",
          "type": "string"
        },
        {
          "internalType": "string",
          "name": "name",
          "type": "string"
        },
        {
          "internalType": "string",
          "name": "description",
          "type": "string"
        },
        {
          "internalType": "string",
          "name": "category",
          "type": "string"
        },
        {
          "internalType": "bool",
          "name": "exists",
          "type": "bool"
        },
        {
          "internalType": "bool",
          "name": "isApprovedByBoard",
          "type": "bool"
        },
        {
          "internalType": "address",
          "name": "proposer",
          "type": "address"
        },
        {
          "internalType": "uint256",
          "name": "referencePriceCeiling",
          "type": "uint256"
        }
      ],
      "stateMutability": "view",
      "type": "function"
    },
    {
      "inputs": [
        {
          "internalType": "uint256",
          "name": "",
          "type": "uint256"
        }
      ],
      "name": "locationAddresses",
      "outputs": [
        {
          "internalType": "address",
          "name": "",
          "type": "address"
        }
      ],
      "stateMutability": "view",
      "type": "function"
    },
    {
      "inputs": [
        {
          "internalType": "address",
          "name": "",
          "type": "address"
        }
      ],
      "name": "physicalLocations",
      "outputs": [
        {
          "internalType": "address",
          "name": "locationId",
          "type": "address"
        },
        {
          "internalType": "string",
          "name": "name",
          "type": "string"
        },
        {
          "internalType": "string",
          "name": "locationType",
          "type": "string"
        },
        {
          "internalType": "address",
          "name": "manager",
          "type": "address"
        },
        {
          "internalType": "bool",
          "name": "exists",
          "type": "bool"
        },
        {
          "internalType": "bool",
          "name": "isApprovedByBoard",
          "type": "bool"
        },
        {
          "internalType": "address",
          "name": "designatedSourceWarehouseAddress",
          "type": "address"
        }
      ],
      "stateMutability": "view",
      "type": "function"
    },
    {
      "inputs": [
        {
          "internalType": "bytes32",
          "name": "role",
          "type": "bytes32"
        },
        {
          "internalType": "address",
          "name": "account",
          "type": "address"
        }
      ],
      "name": "renounceRole",
      "outputs": [],
      "stateMutability": "nonpayable",
      "type": "function"
    },
    {
      "inputs": [
        {
          "internalType": "bytes32",
          "name": "role",
          "type": "bytes32"
        },
        {
          "internalType": "address",
          "name": "account",
          "type": "address"
        }
      ],
      "name": "revokeRole",
      "outputs": [],
      "stateMutability": "nonpayable",
      "type": "function"
    },
    {
      "inputs": [],
      "name": "roleManagementExternal",
      "outputs": [
        {
          "internalType": "contract IRoleManagement",
          "name": "",
          "type": "address"
        }
      ],
      "stateMutability": "view",
      "type": "function"
    },
    {
      "inputs": [
        {
          "internalType": "address",
          "name": "",
          "type": "address"
        },
        {
          "internalType": "string",
          "name": "",
          "type": "string"
        }
      ],
      "name": "storeItemRetailPrices",
      "outputs": [
        {
          "internalType": "uint256",
          "name": "",
          "type": "uint256"
        }
      ],
      "stateMutability": "view",
      "type": "function"
    },
    {
      "inputs": [
        {
          "internalType": "uint256",
          "name": "",
          "type": "uint256"
        }
      ],
      "name": "supplierAddresses",
      "outputs": [
        {
          "internalType": "address",
          "name": "",
          "type": "address"
        }
      ],
      "stateMutability": "view",
      "type": "function"
    },
    {
      "inputs": [
        {
          "internalType": "address",
          "name": "",
          "type": "address"
        },
        {
          "internalType": "string",
          "name": "",
          "type": "string"
        }
      ],
      "name": "supplierItemListings",
      "outputs": [
        {
          "internalType": "string",
          "name": "itemId",
          "type": "string"
        },
        {
          "internalType": "address",
          "name": "supplierAddress",
          "type": "address"
        },
        {
          "internalType": "uint256",
          "name": "price",
          "type": "uint256"
        },
        {
          "internalType": "bool",
          "name": "isApprovedByBoard",
          "type": "bool"
        },
        {
          "internalType": "bool",
          "name": "exists",
          "type": "bool"
        }
      ],
      "stateMutability": "view",
      "type": "function"
    },
    {
      "inputs": [
        {
          "internalType": "address",
          "name": "",
          "type": "address"
        }
      ],
      "name": "suppliers",
      "outputs": [
        {
          "internalType": "address",
          "name": "supplierId",
          "type": "address"
        },
        {
          "internalType": "string",
          "name": "name",
          "type": "string"
        },
        {
          "internalType": "bool",
          "name": "isApprovedByBoard",
          "type": "bool"
        },
        {
          "internalType": "bool",
          "name": "exists",
          "type": "bool"
        }
      ],
      "stateMutability": "view",
      "type": "function"
    },
    {
      "inputs": [
        {
          "internalType": "bytes4",
          "name": "interfaceId",
          "type": "bytes4"
        }
      ],
      "name": "supportsInterface",
      "outputs": [
        {
          "internalType": "bool",
          "name": "",
          "type": "bool"
        }
      ],
      "stateMutability": "view",
      "type": "function"
    },
    {
      "inputs": [
        {
          "internalType": "string",
          "name": "_itemId",
          "type": "string"
        },
        {
          "internalType": "string",
          "name": "_name",
          "type": "string"
        },
        {
          "internalType": "string",
          "name": "_description",
          "type": "string"
        },
        {
          "internalType": "string",
          "name": "_category",
          "type": "string"
        }
      ],
      "name": "proposeNewItem",
      "outputs": [],
      "stateMutability": "nonpayable",
      "type": "function"
    },
    {
      "inputs": [
        {
          "internalType": "string",
          "name": "_itemId",
          "type": "string"
        },
        {
          "internalType": "uint256",
          "name": "_referencePriceCeiling",
          "type": "uint256"
        },
        {
          "internalType": "address[]",
          "name": "_approvers",
          "type": "address[]"
        }
      ],
      "name": "approveProposedItem",
      "outputs": [],
      "stateMutability": "nonpayable",
      "type": "function"
    },
    {
      "inputs": [
        {
          "internalType": "address",
          "name": "_locationId",
          "type": "address"
        },
        {
          "internalType": "string",
          "name": "_name",
          "type": "string"
        },
        {
          "internalType": "string",
          "name": "_locationType",
          "type": "string"
        }
      ],
      "name": "proposeNewPhysicalLocation",
      "outputs": [],
      "stateMutability": "nonpayable",
      "type": "function"
    },
    {
      "inputs": [
        {
          "internalType": "address",
          "name": "_locationId",
          "type": "address"
        },
        {
          "internalType": "address[]",
          "name": "_approvers",
          "type": "address[]"
        }
      ],
      "name": "approveProposedPhysicalLocation",
      "outputs": [],
      "stateMutability": "nonpayable",
      "type": "function"
    },
    {
      "inputs": [
        {
          "internalType": "address",
          "name": "_locationId",
          "type": "address"
        },
        {
          "internalType": "address",
          "name": "_managerId",
          "type": "address"
        }
      ],
      "name": "assignManagerToLocation",
      "outputs": [],
      "stateMutability": "nonpayable",
      "type": "function"
    },
    {
      "inputs": [
        {
          "internalType": "address",
          "name": "_storeAddress",
          "type": "address"
        },
        {
          "internalType": "address",
          "name": "_warehouseAddress",
          "type": "address"
        }
      ],
      "name": "setDesignatedSourceWarehouseForStore",
      "outputs": [],
      "stateMutability": "nonpayable",
      "type": "function"
    },
    {
      "inputs": [
        {
          "internalType": "address",
          "name": "_supplierId",
          "type": "address"
        },
        {
          "internalType": "string",
          "name": "_name",
          "type": "string"
        }
      ],
      "name": "proposeNewSupplier",
      "outputs": [],
      "stateMutability": "nonpayable",
      "type": "function"
    },
    {
      "inputs": [
        {
          "internalType": "address",
          "name": "_supplierId",
          "type": "address"
        },
        {
          "internalType": "address[]",
          "name": "_approvers",
          "type": "address[]"
        }
      ],
      "name": "approveProposedSupplier",
      "outputs": [],
      "stateMutability": "nonpayable",
      "type": "function"
    },
    {
      "inputs": [
        {
          "internalType": "string",
          "name": "_itemId",
          "type": "string"
        },
        {
          "internalType": "uint256",
          "name": "_price",
          "type": "uint256"
        }
      ],
      "name": "listSupplierItem",
      "outputs": [],
      "stateMutability": "nonpayable",
      "type": "function"
    },
    {
      "inputs": [
        {
          "internalType": "address",
          "name": "_supplierAddress",
          "type": "address"
        },
        {
          "internalType": "string",
          "name": "_itemId",
          "type": "string"
        },
        {
          "internalType": "address[]",
          "name": "_approvers",
          "type": "address[]"
        }
      ],
      "name": "approveSupplierItemManuallyByBoard",
      "outputs": [],
      "stateMutability": "nonpayable",
      "type": "function"
    },
    {
      "inputs": [
        {
          "internalType": "address",
          "name": "_storeAddress",
          "type": "address"
        },
        {
          "internalType": "string",
          "name": "_itemId",
          "type": "string"
        },
        {
          "internalType": "uint256",
          "name": "_price",
          "type": "uint256"
        }
      ],
      "name": "setStoreItemRetailPrice",
      "outputs": [],
      "stateMutability": "nonpayable",
      "type": "function"
    },
    {
      "inputs": [
        {
          "internalType": "string",
          "name": "_itemId",
          "type": "string"
        }
      ],
      "name": "getItemInfo",
      "outputs": [
        {
          "components": [
            {
              "internalType": "string",
              "name": "itemId",
              "type": "string"
            },
            {
              "internalType": "string",
              "name": "name",
              "type": "string"
            },
            {
              "internalType": "string",
              "name": "description",
              "type": "string"
            },
            {
              "internalType": "string",
              "name": "category",
              "type": "string"
            },
            {
              "internalType": "bool",
              "name": "exists",
              "type": "bool"
            },
            {
              "internalType": "bool",
              "name": "isApprovedByBoard",
              "type": "bool"
            },
            {
              "internalType": "address",
              "name": "proposer",
              "type": "address"
            },
            {
              "internalType": "uint256",
              "name": "referencePriceCeiling",
              "type": "uint256"
            }
          ],
          "internalType": "struct ItemsManagement.ItemInfo",
          "name": "",
          "type": "tuple"
        }
      ],
      "stateMutability": "view",
      "type": "function"
    },
    {
      "inputs": [
        {
          "internalType": "address",
          "name": "_locationId",
          "type": "address"
        }
      ],
      "name": "getPhysicalLocationInfo",
      "outputs": [
        {
          "components": [
            {
              "internalType": "address",
              "name": "locationId",
              "type": "address"
            },
            {
              "internalType": "string",
              "name": "name",
              "type": "string"
            },
            {
              "internalType": "string",
              "name": "locationType",
              "type": "string"
            },
            {
              "internalType": "address",
              "name": "manager",
              "type": "address"
            },
            {
              "internalType": "bool",
              "name": "exists",
              "type": "bool"
            },
            {
              "internalType": "bool",
              "name": "isApprovedByBoard",
              "type": "bool"
            },
            {
              "internalType": "address",
              "name": "designatedSourceWarehouseAddress",
              "type": "address"
            }
          ],
          "internalType": "struct PhysicalLocationInfo",
          "name": "",
          "type": "tuple"
        }
      ],
      "stateMutability": "view",
      "type": "function"
    },
    {
      "inputs": [
        {
          "internalType": "address",
          "name": "_storeAddress",
          "type": "address"
        }
      ],
      "name": "getStoreInfo",
      "outputs": [
        {
          "components": [
            {
              "internalType": "address",
              "name": "locationId",
              "type": "address"
            },
            {
              "internalType": "string",
              "name": "name",
              "type": "string"
            },
            {
              "internalType": "string",
              "name": "locationType",
              "type": "string"
            },
            {
              "internalType": "address",
              "name": "manager",
              "type": "address"
            },
            {
              "internalType": "bool",
              "name": "exists",
              "type": "bool"
            },
            {
              "internalType": "bool",
              "name": "isApprovedByBoard",
              "type": "bool"
            },
            {
              "internalType": "address",
              "name": "designatedSourceWarehouseAddress",
              "type": "address"
            }
          ],
          "internalType": "struct PhysicalLocationInfo",
          "name": "",
          "type": "tuple"
        }
      ],
      "stateMutability": "view",
      "type": "function"
    },
    {
      "inputs": [
        {
          "internalType": "address",
          "name": "_warehouseAddress",
          "type": "address"
        }
      ],
      "name": "getWarehouseInfo",
      "outputs": [
        {
          "components": [
            {
              "internalType": "address",
              "name": "locationId",
              "type": "address"
            },
            {
              "internalType": "string",
              "name": "name",
              "type": "string"
            },
            {
              "internalType": "string",
              "name": "locationType",
              "type": "string"
            },
            {
              "internalType": "address",
              "name": "manager",
              "type": "address"
            },
            {
              "internalType": "bool",
              "name": "exists",
              "type": "bool"
            },
            {
              "internalType": "bool",
              "name": "isApprovedByBoard",
              "type": "bool"
            },
            {
              "internalType": "address",
              "name": "designatedSourceWarehouseAddress",
              "type": "address"
            }
          ],
          "internalType": "struct PhysicalLocationInfo",
          "name": "",
          "type": "tuple"
        }
      ],
      "stateMutability": "view",
      "type": "function"
    },
    {
      "inputs": [
        {
          "internalType": "address",
          "name": "_supplierId",
          "type": "address"
        }
      ],
      "name": "getSupplierInfo",
      "outputs": [
        {
          "components": [
            {
              "internalType": "address",
              "name": "supplierId",
              "type": "address"
            },
            {
              "internalType": "string",
              "name": "name",
              "type": "string"
            },
            {
              "internalType": "bool",
              "name": "isApprovedByBoard",
              "type": "bool"
            },
            {
              "internalType": "bool",
              "name": "exists",
              "type": "bool"
            }
          ],
          "internalType": "struct SupplierInfo",
          "name": "",
          "type": "tuple"
        }
      ],
      "stateMutability": "view",
      "type": "function"
    },
    {
      "inputs": [
        {
          "internalType": "address",
          "name": "_supplierAddress",
          "type": "address"
        },
        {
          "internalType": "string",
          "name": "_itemId",
          "type": "string"
        }
      ],
      "name": "getSupplierItemDetails",
      "outputs": [
        {
          "components": [
            {
              "internalType": "string",
              "name": "itemId",
              "type": "string"
            },
            {
              "internalType": "address",
              "name": "supplierAddress",
              "type": "address"
            },
            {
              "internalType": "uint256",
              "name": "price",
              "type": "uint256"
            },
            {
              "internalType": "bool",
              "name": "isApprovedByBoard",
              "type": "bool"
            },
            {
              "internalType": "bool",
              "name": "exists",
              "type": "bool"
            }
          ],
          "internalType": "struct SupplierItemListing",
          "name": "",
          "type": "tuple"
        }
      ],
      "stateMutability": "view",
      "type": "function"
    },
    {
      "inputs": [
        {
          "internalType": "string",
          "name": "_itemId",
          "type": "string"
        },
        {
          "internalType": "address",
          "name": "_storeAddress",
          "type": "address"
        }
      ],
      "name": "getItemRetailPriceAtStore",
      "outputs": [
        {
          "internalType": "uint256",
          "name": "price",
          "type": "uint256"
        },
        {
          "internalType": "bool",
          "name": "priceExists",
          "type": "bool"
        }
      ],
      "stateMutability": "view",
      "type": "function"
    },
    {
      "inputs": [],
      "name": "getAllItemIds",
      "outputs": [
        {
          "internalType": "string[]",
          "name": "",
          "type": "string[]"
        }
      ],
      "stateMutability": "view",
      "type": "function"
    },
    {
      "inputs": [],
      "name": "getAllLocationAddresses",
      "outputs": [
        {
          "internalType": "address[]",
          "name": "",
          "type": "address[]"
        }
      ],
      "stateMutability": "view",
      "type": "function"
    },
    {
      "inputs": [],
      "name": "getAllSupplierAddresses",
      "outputs": [
        {
          "internalType": "address[]",
          "name": "",
          "type": "address[]"
        }
      ],
      "stateMutability": "view",
      "type": "function"
    }
  ],
  "bytecode": "0x60806040523480156200001157600080fd5b5060405162006cfc38038062006cfc833981016040819052620000349162000437565b6001600160a01b0381166200009e5760405162461bcd60e51b815260206004820152602560248201527f4974656d734d3a204469612063686920524d204e676f6169206b686f6e6720686044820152646f70206c6560d81b60648201526084015b60405180910390fd5b600180546001600160a01b0319166001600160a01b038316179055620000c6600033620000cd565b50620005ae565b600082815260208190526040902060010154620000eb8133620000fc565b620000f783836200019b565b505050565b6000828152602081815260408083206001600160a01b038516845290915290205460ff16620001975762000146816001600160a01b031660146200023b60201b62004df71760201c565b6200015c83602062004df76200023b821b17811c565b6040516020016200016f92919062000460565b60408051601f198184030181529082905262461bcd60e51b82526200009591600401620004d9565b5050565b6000828152602081815260408083206001600160a01b038516845290915290205460ff1662000197576000828152602081815260408083206001600160a01b03851684529091529020805460ff19166001179055620001f73390565b6001600160a01b0316816001600160a01b0316837f2f8788117e7eff1d82e926ec794901d17c78024a50270940304540a733656f0d60405160405180910390a45050565b606060006200024c83600262000529565b620002599060026200050e565b6001600160401b038111156200027f57634e487b7160e01b600052604160045260246000fd5b6040519080825280601f01601f191660200182016040528015620002aa576020820181803683370190505b509050600360fc1b81600081518110620002d457634e487b7160e01b600052603260045260246000fd5b60200101906001600160f81b031916908160001a905350600f60fb1b816001815181106200031257634e487b7160e01b600052603260045260246000fd5b60200101906001600160f81b031916908160001a90535060006200033884600262000529565b620003459060016200050e565b90505b6001811115620003df576f181899199a1a9b1b9c1cb0b131b232b360811b85600f16601081106200038957634e487b7160e01b600052603260045260246000fd5b1a60f81b828281518110620003ae57634e487b7160e01b600052603260045260246000fd5b60200101906001600160f81b031916908160001a90535060049490941c93620003d7816200057e565b905062000348565b508315620004305760405162461bcd60e51b815260206004820181905260248201527f537472696e67733a20686578206c656e67746820696e73756666696369656e74604482015260640162000095565b9392505050565b60006020828403121562000449578081fd5b81516001600160a01b038116811462000430578182fd5b7f416363657373436f6e74726f6c3a206163636f756e74200000000000000000008152600083516200049a8160178501602088016200054b565b7001034b99036b4b9b9b4b733903937b6329607d1b6017918401918201528351620004cd8160288401602088016200054b565b01602801949350505050565b6020815260008251806020840152620004fa8160408501602087016200054b565b601f01601f19169190910160400192915050565b6000821982111562000524576200052462000598565b500190565b600081600019048311821515161562000546576200054662000598565b500290565b60005b83811015620005685781810151838201526020016200054e565b8381111562000578576000848401525b50505050565b60008162000590576200059062000598565b506000190190565b634e487b7160e01b600052601160045260246000fd5b61673e80620005be6000396000f3fe608060405234801561001057600080fd5b50600436106102275760003560e01c806375a05d1211610130578063b3dc00fe116100b8578063d4711a0e1161007c578063d4711a0e14610581578063d547741f14610594578063e6a21943146105a7578063e8b02012146105ba578063f063e029146105cd57600080fd5b8063b3dc00fe14610520578063b4bf3c5014610540578063c7bbd67e14610553578063c87d25dd1461055b578063cc15744c1461056e57600080fd5b806391d14854116100ff57806391d14854146104ca57806399c4381d146104dd578063a217fddf146104f2578063a3365012146104fa578063adeb5c241461050d57600080fd5b806375a05d12146104515780637643d731146104795780638a606790146104a45780638f047497146104b757600080fd5b80633315bd2a116101b357806359435f041161018257806359435f04146103d657806364534c4f146103f657806368f11f99146104095780637160572b14610429578063729dfe401461043c57600080fd5b80633315bd2a1461036357806336568abe146103895780633868c1ab1461039c5780634909b29b146103af57600080fd5b80631d192245116101fa5780631d192245146102d6578063248a9ca3146102fa578063252549641461031d5780632f2ff15d14610330578063329a58731461034357600080fd5b806301ffc9a71461022c57806303bde86a1461025457806307bf8c5c1461026957806316dc15fe146102b3575b600080fd5b61023f61023a366004615c50565b6105ed565b60405190151581526020015b60405180910390f35b610267610262366004615a53565b610624565b005b6102a5610277366004615b93565b6006602090815260009283526040909220815180830184018051928152908401929093019190912091525481565b60405190815260200161024b565b6102c66102c1366004615974565b610a2d565b60405161024b9493929190616032565b6102e96102e4366004615b93565b610aee565b60405161024b9594939291906161d3565b6102a5610308366004615bfe565b60009081526020819052604090206001015490565b61026761032b366004615dc6565b610bd2565b61026761033e366004615c2e565b611373565b610356610351366004615974565b61139e565b60405161024b91906164c2565b610376610371366004615974565b6115f5565b60405161024b979695949392919061606e565b610267610397366004615c2e565b611762565b6102676103aa366004615ad0565b6117e0565b6103c26103bd366004615e67565b611ce8565b60405161024b989796959493929190616215565b6103e96103e4366004615974565b611f66565b60405161024b919061655a565b6102676104043660046159c0565b612070565b61041c610417366004615c78565b612308565b60405161024b91906163fd565b610356610437366004615974565b612616565b610444612871565b60405161024b9190616119565b61046461045f366004615cb7565b61294a565b6040805192835290151560208301520161024b565b61048c610487366004615bfe565b612993565b6040516001600160a01b03909116815260200161024b565b61048c6104b2366004615bfe565b6129bd565b6102676104c5366004615d08565b6129cd565b61023f6104d8366004615c2e565b612e5d565b6104e5612e86565b60405161024b91906160cc565b6102a5600081565b610356610508366004615974565b612ee8565b61026761051b366004615b3c565b613094565b61053361052e366004615bfe565b61359d565b60405161024b91906161c0565b61026761054e3660046159c0565b613649565b6104e56138fc565b61026761056936600461598e565b61395c565b61026761057c366004615a10565b613e43565b61026761058f366004615e0f565b614306565b6102676105a2366004615c2e565b61462e565b60015461048c906001600160a01b031681565b6102676105c836600461598e565b614654565b6105e06105db366004615a10565b614cb3565b60405161024b91906165ac565b60006001600160e01b03198216637965db0b60e01b148061061e57506301ffc9a760e01b6001600160e01b03198316145b92915050565b600154604080516305b11d3760e01b815290516001600160a01b03909216916391d148549183916305b11d3791600480820192602092909190829003018186803b15801561067157600080fd5b505afa158015610685573d6000803e3d6000fd5b505050506040513d601f19601f820116820180604052508101906106a99190615c16565b6040516001600160e01b031960e084901b168152600481019190915233602482015260440160206040518083038186803b1580156106e657600080fd5b505afa1580156106fa573d6000803e3d6000fd5b505050506040513d601f19601f8201168201806040525081019061071e9190615bde565b6107435760405162461bcd60e51b815260040161073a906162ec565b60405180910390fd5b6001600160a01b038516600090815260046020526040902060020154610100900460ff16801561078e57506001600160a01b03851660009081526004602052604090206002015460ff165b6107f95760405162461bcd60e51b815260206004820152603660248201527f4974656d734d3a204e4343206b686f6e6720746f6e2074616920686f616320636044820152751a1d5848191d5bd8c8109112081c1a1948191d5e595d60521b606482015260840161073a565b6001600160a01b03851660009081526005602052604080822090516108219087908790615ef6565b908152604051908190036020019020600381015490915060ff610100909104166108a15760405162461bcd60e51b815260206004820152602b60248201527f4974656d734d3a204d61742068616e6720637561204e4343206368756120647560448201526a1bd8c81b9a595b481e595d60aa1b606482015260840161073a565b600381015460ff16156109115760405162461bcd60e51b815260206004820152603260248201527f4974656d734d3a204d61742068616e67206e617920637561204e43432064612060448201527164756f632070686520647579657420726f6960701b606482015260840161073a565b61094d838380806020026020016040519081016040528093929190818152602001838360200280828437600092019190915250614fdf92505050565b6109c95760405162461bcd60e51b815260206004820152604160248201527f4974656d734d3a204b686f6e67206475207479206c6520636f207068616e204260448201527f4448207068652064757965742063686f206d61742068616e67204e4343206e616064820152607960f81b608482015260a40161073a565b60038101805460ff1916600117905560405133906109ea9087908790615ef6565b604051908190038120906001600160a01b038916907fffa7559584da41d8b3dc66ebfe805a6c2e3e8f3f94ec948a1ddfa57edea2d19590600090a4505050505050565b600460205260009081526040902080546001820180546001600160a01b039092169291610a5990616686565b80601f0160208091040260200160405190810160405280929190818152602001828054610a8590616686565b8015610ad25780601f10610aa757610100808354040283529160200191610ad2565b820191906000526020600020905b815481529060010190602001808311610ab557829003601f168201915b5050506002909301549192505060ff8082169161010090041684565b60056020908152600092835260409092208151808301840180519281529084019290930191909120915280548190610b2590616686565b80601f0160208091040260200160405190810160405280929190818152602001828054610b5190616686565b8015610b9e5780601f10610b7357610100808354040283529160200191610b9e565b820191906000526020600020905b815481529060010190602001808311610b8157829003601f168201915b505050506001830154600284015460039094015492936001600160a01b039091169290915060ff8082169161010090041685565b600154604080516328a5423f60e21b815290516001600160a01b03909216916391d1485491839163a29508fc91600480820192602092909190829003018186803b158015610c1f57600080fd5b505afa158015610c33573d6000803e3d6000fd5b505050506040513d601f19601f82011682018060405250810190610c579190615c16565b6040516001600160e01b031960e084901b168152600481019190915233602482015260440160206040518083038186803b158015610c9457600080fd5b505afa158015610ca8573d6000803e3d6000fd5b505050506040513d601f19601f82011682018060405250810190610ccc9190615bde565b610d2c5760405162461bcd60e51b815260206004820152602b60248201527f4974656d734d3a204e67756f6920676f69206b686f6e672070686169204e434360448201526a2028524d204e676f61692960a81b606482015260840161073a565b33600090815260046020526040902060020154610100900460ff168015610d6557503360009081526004602052604090206002015460ff165b610dc65760405162461bcd60e51b815260206004820152602c60248201527f4974656d734d3a204e434320636875612064756f632064616e67206b7920686f60448201526b1858c81c1a1948191d5e595d60a21b606482015260840161073a565b600060028484604051610dda929190615ef6565b908152602001604051809103902060405180610100016040529081600082018054610e0490616686565b80601f0160208091040260200160405190810160405280929190818152602001828054610e3090616686565b8015610e7d5780601f10610e5257610100808354040283529160200191610e7d565b820191906000526020600020905b815481529060010190602001808311610e6057829003601f168201915b50505050508152602001600182018054610e9690616686565b80601f0160208091040260200160405190810160405280929190818152602001828054610ec290616686565b8015610f0f5780601f10610ee457610100808354040283529160200191610f0f565b820191906000526020600020905b815481529060010190602001808311610ef257829003601f168201915b50505050508152602001600282018054610f2890616686565b80601f0160208091040260200160405190810160405280929190818152602001828054610f5490616686565b8015610fa15780601f10610f7657610100808354040283529160200191610fa1565b820191906000526020600020905b815481529060010190602001808311610f8457829003601f168201915b50505050508152602001600382018054610fba90616686565b80601f0160208091040260200160405190810160405280929190818152602001828054610fe690616686565b80156110335780601f1061100857610100808354040283529160200191611033565b820191906000526020600020905b81548152906001019060200180831161101657829003601f168201915b5050509183525050600482015460ff80821615156020840152610100820416151560408301526201000090046001600160a01b03166060820152600590910154608091820152810151909150801561108c57508060a001515b6111085760405162461bcd60e51b815260206004820152604160248201527f4974656d734d3a204d61742068616e67206b686f6e6720746f6e20746169206860448201527f6f616320636875612064756f632042444820706865206475796574206368756e6064820152606760f81b608482015260a40161073a565b336000908152600560205260409081902090516111289086908690615ef6565b9081526040519081900360200190206003015460ff61010090910416156111a35760405162461bcd60e51b815260206004820152602960248201527f4974656d734d3a204d61742068616e6720637561204e43432064612064756f63604482015268081b9a595b481e595d60ba1b606482015260840161073a565b600082116111f35760405162461bcd60e51b815260206004820152601c60248201527f4974656d734d3a204769612070686169206c6120736f2064756f6e6700000000604482015260640161073a565b6000808260e0015111801561120c57508160e001518311155b6040805160c06020601f8901819004028201810190925260a0810187815292935091829188908890819085018382808284376000920182905250938552505033602080850182905260408086018a905287151560608701526001608090960195909552908352600590525081902090516112899088908890615ef6565b908152602001604051809103902060008201518160000190805190602001906112b3929190615700565b5060208201516001820180546001600160a01b0319166001600160a01b03909216919091179055604080830151600283015560608301516003909201805460809094015161ffff1990941692151561ff0019169290921761010093151593909302929092179055516113289086908690615ef6565b6040805191829003822085835283151560208401529133917f87f1628ba253ef694374dcd44b8153c87ea09ac3bb7731c1214208b0c822817e91015b60405180910390a35050505050565b60008281526020819052604090206001015461138f8133615418565b611399838361547c565b505050565b6113a6615784565b6001600160a01b038083166000908152600360209081526040808320815160e08101909252805490941681526001840180549394919391928401916113ea90616686565b80601f016020809104026020016040519081016040528092919081815260200182805461141690616686565b80156114635780601f1061143857610100808354040283529160200191611463565b820191906000526020600020905b81548152906001019060200180831161144657829003601f168201915b5050505050815260200160028201805461147c90616686565b80601f01602080910402602001604051908101604052809291908181526020018280546114a890616686565b80156114f55780601f106114ca576101008083540402835291602001916114f5565b820191906000526020600020905b8154815290600101906020018083116114d857829003601f168201915b505050918352505060038201546001600160a01b03808216602084015260ff600160a01b8304811615156040850152600160a81b9092049091161515606083015260049092015490911660809182015281015190915080156115a957506040516453544f524560d81b60208201526025016040516020818303038152906040528051906020012081604001516040516020016115919190615f06565b60405160208183030381529060405280519060200120145b61061e5760405162461bcd60e51b815260206004820152601e60248201527f4974656d734d3a204b686f6e672070686169206c61206375612068616e670000604482015260640161073a565b600360205260009081526040902080546001820180546001600160a01b03909216929161162190616686565b80601f016020809104026020016040519081016040528092919081815260200182805461164d90616686565b801561169a5780601f1061166f5761010080835404028352916020019161169a565b820191906000526020600020905b81548152906001019060200180831161167d57829003601f168201915b5050505050908060020180546116af90616686565b80601f01602080910402602001604051908101604052809291908181526020018280546116db90616686565b80156117285780601f106116fd57610100808354040283529160200191611728565b820191906000526020600020905b81548152906001019060200180831161170b57829003601f168201915b505050600384015460049094015492936001600160a01b038082169460ff600160a01b840481169550600160a81b90930490921692501687565b6001600160a01b03811633146117d25760405162461bcd60e51b815260206004820152602f60248201527f416363657373436f6e74726f6c3a2063616e206f6e6c792072656e6f756e636560448201526e103937b632b9903337b91039b2b63360891b606482015260840161073a565b6117dc8282615500565b5050565b600154604080516305b11d3760e01b815290516001600160a01b03909216916391d148549183916305b11d3791600480820192602092909190829003018186803b15801561182d57600080fd5b505afa158015611841573d6000803e3d6000fd5b505050506040513d601f19601f820116820180604052508101906118659190615c16565b6040516001600160e01b031960e084901b168152600481019190915233602482015260440160206040518083038186803b1580156118a257600080fd5b505afa1580156118b6573d6000803e3d6000fd5b505050506040513d601f19601f820116820180604052508101906118da9190615bde565b6118f65760405162461bcd60e51b815260040161073a906162ec565b6001600160a01b03851660009081526003602081905260409091200154600160a01b900460ff161561196a5760405162461bcd60e51b815260206004820152601e60248201527f4974656d734d3a20494420646961206469656d20646120746f6e207461690000604482015260640161073a565b6001600160a01b0385166119ce5760405162461bcd60e51b815260206004820152602560248201527f4974656d734d3a204469612063686920646961206469656d206b686f6e6720686044820152646f70206c6560d81b606482015260840161073a565b600082826040516020016119e3929190615ef6565b604051602081830303815290604052805190602001209050604051602001611a16906453544f524560d81b815260050190565b60405160208183030381529060405280519060200120811480611a6557506040516857415245484f55534560b81b60208201526029016040516020818303038152906040528051906020012081145b611abc5760405162461bcd60e51b815260206004820152602260248201527f4974656d734d3a204c6f616920646961206469656d206b686f6e6720686f70206044820152616c6560f01b606482015260840161073a565b6040518060e00160405280876001600160a01b0316815260200186868080601f016020809104026020016040519081016040528093929190818152602001838380828437600092019190915250505090825250604080516020601f87018190048102820181019092528581529181019190869086908190840183828082843760009201829052509385525050506020808301829052600160408085018290526060850184905260809094018390526001600160a01b038b811684526003835293909220845181546001600160a01b0319169416939093178355838101518051611bac938501929190910190615700565b5060408201518051611bc8916002840191602090910190615700565b506060820151600382018054608085015160a08601511515600160a81b0260ff60a81b19911515600160a01b026001600160a81b03199093166001600160a01b0395861617929092171617905560c09092015160049091018054919092166001600160a01b031991909116179055611c3f86615565565b611c8f57600880546001810182556000919091527ff3f7a9fe364faab93b216da50a3214154f22a0a2b415b23a84c8169e8b636ee30180546001600160a01b0319166001600160a01b0388161790555b336001600160a01b0316866001600160a01b03167f8ceaee252275277f7f06dcee470dc04ac7d5211d5c55802df06f3f64bda2025a87878787604051611cd8949392919061618e565b60405180910390a3505050505050565b8051602081830181018051600282529282019190930120915280548190611d0e90616686565b80601f0160208091040260200160405190810160405280929190818152602001828054611d3a90616686565b8015611d875780601f10611d5c57610100808354040283529160200191611d87565b820191906000526020600020905b815481529060010190602001808311611d6a57829003601f168201915b505050505090806001018054611d9c90616686565b80601f0160208091040260200160405190810160405280929190818152602001828054611dc890616686565b8015611e155780601f10611dea57610100808354040283529160200191611e15565b820191906000526020600020905b815481529060010190602001808311611df857829003601f168201915b505050505090806002018054611e2a90616686565b80601f0160208091040260200160405190810160405280929190818152602001828054611e5690616686565b8015611ea35780601f10611e7857610100808354040283529160200191611ea3565b820191906000526020600020905b815481529060010190602001808311611e8657829003601f168201915b505050505090806003018054611eb890616686565b80601f0160208091040260200160405190810160405280929190818152602001828054611ee490616686565b8015611f315780601f10611f0657610100808354040283529160200191611f31565b820191906000526020600020905b815481529060010190602001808311611f1457829003601f168201915b505050506004830154600590930154919260ff8082169361010083049091169250620100009091046001600160a01b03169088565b60408051608080820183526000808352606060208085018290528486018390529084018290526001600160a01b03868116835260048252918590208551938401909552845490911682526001840180549394929391840191611fc790616686565b80601f0160208091040260200160405190810160405280929190818152602001828054611ff390616686565b80156120405780601f1061201557610100808354040283529160200191612040565b820191906000526020600020905b81548152906001019060200180831161202357829003601f168201915b50505091835250506002919091015460ff8082161515602084015261010090910416151560409091015292915050565b600154604080516305b11d3760e01b815290516001600160a01b03909216916391d148549183916305b11d3791600480820192602092909190829003018186803b1580156120bd57600080fd5b505afa1580156120d1573d6000803e3d6000fd5b505050506040513d601f19601f820116820180604052508101906120f59190615c16565b6040516001600160e01b031960e084901b168152600481019190915233602482015260440160206040518083038186803b15801561213257600080fd5b505afa158015612146573d6000803e3d6000fd5b505050506040513d601f19601f8201168201806040525081019061216a9190615bde565b6121865760405162461bcd60e51b815260040161073a906162ec565b6001600160a01b03831660009081526004602052604090206002810154610100900460ff166122065760405162461bcd60e51b815260206004820152602660248201527f4974656d734d3a204e4343206b686f6e6720746f6e207461692064652070686560448201526508191d5e595d60d21b606482015260840161073a565b600281015460ff16156122655760405162461bcd60e51b815260206004820152602160248201527f4974656d734d3a204e43432064612064756f632070686520647579657420726f6044820152606960f81b606482015260840161073a565b6122a1838380806020026020016040519081016040528093929190818152602001838360200280828437600092019190915250614fdf92505050565b6122bd5760405162461bcd60e51b815260040161073a906163b1565b60028101805460ff1916600117905560405133906001600160a01b038616907f195b79488d6b5260c5f4f4b0ab9f40b95cdd5e71279d52b1f96ff831270b161290600090a350505050565b61235d6040518061010001604052806060815260200160608152602001606081526020016060815260200160001515815260200160001515815260200160006001600160a01b03168152602001600081525090565b6002838360405161236f929190615ef6565b90815260200160405180910390206040518061010001604052908160008201805461239990616686565b80601f01602080910402602001604051908101604052809291908181526020018280546123c590616686565b80156124125780601f106123e757610100808354040283529160200191612412565b820191906000526020600020905b8154815290600101906020018083116123f557829003601f168201915b5050505050815260200160018201805461242b90616686565b80601f016020809104026020016040519081016040528092919081815260200182805461245790616686565b80156124a45780601f10612479576101008083540402835291602001916124a4565b820191906000526020600020905b81548152906001019060200180831161248757829003601f168201915b505050505081526020016002820180546124bd90616686565b80601f01602080910402602001604051908101604052809291908181526020018280546124e990616686565b80156125365780601f1061250b57610100808354040283529160200191612536565b820191906000526020600020905b81548152906001019060200180831161251957829003601f168201915b5050505050815260200160038201805461254f90616686565b80601f016020809104026020016040519081016040528092919081815260200182805461257b90616686565b80156125c85780601f1061259d576101008083540402835291602001916125c8565b820191906000526020600020905b8154815290600101906020018083116125ab57829003601f168201915b5050509183525050600482015460ff80821615156020840152610100820416151560408301526201000090046001600160a01b03166060820152600590910154608090910152905092915050565b61261e615784565b6001600160a01b038083166000908152600360209081526040808320815160e081019092528054909416815260018401805493949193919284019161266290616686565b80601f016020809104026020016040519081016040528092919081815260200182805461268e90616686565b80156126db5780601f106126b0576101008083540402835291602001916126db565b820191906000526020600020905b8154815290600101906020018083116126be57829003601f168201915b505050505081526020016002820180546126f490616686565b80601f016020809104026020016040519081016040528092919081815260200182805461272090616686565b801561276d5780601f106127425761010080835404028352916020019161276d565b820191906000526020600020905b81548152906001019060200180831161275057829003601f168201915b505050918352505060038201546001600160a01b03808216602084015260ff600160a01b8304811615156040850152600160a81b90920490911615156060830152600490920154909116608091820152810151909150801561282557506040516857415245484f55534560b81b602082015260290160405160208183030381529060405280519060200120816040015160405160200161280d9190615f06565b60405160208183030381529060405280519060200120145b61061e5760405162461bcd60e51b815260206004820152601960248201527f4974656d734d3a204b686f6e672070686169206c61206b686f00000000000000604482015260640161073a565b60606007805480602002602001604051908101604052809291908181526020016000905b828210156129415783829060005260206000200180546128b490616686565b80601f01602080910402602001604051908101604052809291908181526020018280546128e090616686565b801561292d5780601f106129025761010080835404028352916020019161292d565b820191906000526020600020905b81548152906001019060200180831161291057829003601f168201915b505050505081526020019060010190612895565b50505050905090565b6001600160a01b03811660009081526006602052604080822090518291906129759087908790615ef6565b90815260405190819003602001902054915050801515935093915050565b600981815481106129a357600080fd5b6000918252602090912001546001600160a01b0316905081565b600881815481106129a357600080fd5b600154604080516305b11d3760e01b815290516001600160a01b03909216916391d148549183916305b11d3791600480820192602092909190829003018186803b158015612a1a57600080fd5b505afa158015612a2e573d6000803e3d6000fd5b505050506040513d601f19601f82011682018060405250810190612a529190615c16565b6040516001600160e01b031960e084901b168152600481019190915233602482015260440160206040518083038186803b158015612a8f57600080fd5b505afa158015612aa3573d6000803e3d6000fd5b505050506040513d601f19601f82011682018060405250810190612ac79190615bde565b612ae35760405162461bcd60e51b815260040161073a906162ec565b60028888604051612af5929190615ef6565b9081526040519081900360200190206004015460ff1615612b585760405162461bcd60e51b815260206004820152601e60248201527f4974656d734d3a204944206d61742068616e6720646120746f6e207461690000604482015260640161073a565b86612bb15760405162461bcd60e51b815260206004820152602360248201527f4974656d734d3a204944206d61742068616e67206b686f6e672064756f6320726044820152626f6e6760e81b606482015260840161073a565b60405180610100016040528089898080601f016020809104026020016040519081016040528093929190818152602001838380828437600092019190915250505090825250604080516020601f8a0181900481028201810190925288815291810191908990899081908401838280828437600092019190915250505090825250604080516020601f880181900481028201810190925286815291810191908790879081908401838280828437600092019190915250505090825250604080516020601f860181900481028201810190925284815291810191908590859081908401838280828437600092018290525093855250506001602084015250604080830182905233606084015260809092015251600290612cd2908b908b90615ef6565b90815260200160405180910390206000820151816000019080519060200190612cfc929190615700565b506020828101518051612d159260018501920190615700565b5060408201518051612d31916002840191602090910190615700565b5060608201518051612d4d916003840191602090910190615700565b50608082015160048201805460a085015160c08601516001600160a01b0316620100000262010000600160b01b03199115156101000261ff00199515159590951661ffff1990931692909217939093179290921691909117905560e090910151600590910155612dbd88886155dd565b612e005760078054600181018255600091909152612dfe907fa66cc928b5edb82af9bd49922954155ab7b0942694bea4ce44661d9a8736c6880189896157c1565b505b6040513390612e12908a908a90615ef6565b60405180910390207f3ebb6331b48c504ca4922a2d92220f830467ca090a4b9fcbe10e1a6f3e97f5898888604051612e4b92919061617a565b60405180910390a35050505050505050565b6000918252602082815260408084206001600160a01b0393909316845291905290205460ff1690565b60606008805480602002602001604051908101604052809291908181526020018280548015612ede57602002820191906000526020600020905b81546001600160a01b03168152600190910190602001808311612ec0575b5050505050905090565b612ef0615784565b6001600160a01b03808316600090815260036020908152604091829020825160e081019093528054909316825260018301805492939291840191612f3390616686565b80601f0160208091040260200160405190810160405280929190818152602001828054612f5f90616686565b8015612fac5780601f10612f8157610100808354040283529160200191612fac565b820191906000526020600020905b815481529060010190602001808311612f8f57829003601f168201915b50505050508152602001600282018054612fc590616686565b80601f0160208091040260200160405190810160405280929190818152602001828054612ff190616686565b801561303e5780601f106130135761010080835404028352916020019161303e565b820191906000526020600020905b81548152906001019060200180831161302157829003601f168201915b505050918352505060038201546001600160a01b03808216602084015260ff600160a01b8304811615156040850152600160a81b9092049091161515606083015260049092015490911660809091015292915050565b600154604080516315c37cb960e31b815290516000926001600160a01b03169163ae1be5c8916004808301926020929190829003018186803b1580156130d957600080fd5b505afa1580156130ed573d6000803e3d6000fd5b505050506040513d601f19601f820116820180604052508101906131119190615c16565b600154604051632474521560e21b8152600481018390523360248201529192506001600160a01b0316906391d148549060440160206040518083038186803b15801561315c57600080fd5b505afa158015613170573d6000803e3d6000fd5b505050506040513d601f19601f820116820180604052508101906131949190615bde565b6131b05760405162461bcd60e51b815260040161073a90616296565b600284846040516131c2929190615ef6565b9081526040519081900360200190206004015460ff16801561320e5750600284846040516131f1929190615ef6565b9081526040519081900360200190206004015460ff610100909104165b6132805760405162461bcd60e51b815260206004820152603b60248201527f4974656d734d3a204d61742068616e67206b686f6e6720746f6e20746169206860448201527f6f616320636875612064756f6320424448207068652064757965740000000000606482015260840161073a565b6001600160a01b038086166000908152600360209081526040808320815160e08101909252805490941681526001840180549394919391928401916132c490616686565b80601f01602080910402602001604051908101604052809291908181526020018280546132f090616686565b801561333d5780601f106133125761010080835404028352916020019161333d565b820191906000526020600020905b81548152906001019060200180831161332057829003601f168201915b5050505050815260200160028201805461335690616686565b80601f016020809104026020016040519081016040528092919081815260200182805461338290616686565b80156133cf5780601f106133a4576101008083540402835291602001916133cf565b820191906000526020600020905b8154815290600101906020018083116133b257829003601f168201915b505050918352505060038201546001600160a01b03808216602084015260ff600160a01b8304811615156040850152600160a81b90920490911615156060830152600490920154909116608091820152810151909150801561343257508060a001515b801561349057506040516453544f524560d81b60208201526025016040516020818303038152906040528051906020012081604001516040516020016134789190615f06565b60405160208183030381529060405280519060200120145b6134ac5760405162461bcd60e51b815260040161073a90616337565b600083116134fc5760405162461bcd60e51b815260206004820152601f60248201527f4974656d734d3a20476961206c652070686169206c6120736f2064756f6e6700604482015260640161073a565b6001600160a01b0386166000908152600660205260409081902090518491906135289088908890615ef6565b90815260405190819003602001812091909155339061354a9087908790615ef6565b6040518091039020876001600160a01b03167fbe696f12a96a6f8f4b21e86fe3146518f966e15fc92406bdf63f6b85e0b5377f8660405161358d91815260200190565b60405180910390a4505050505050565b600781815481106135ad57600080fd5b9060005260206000200160009150905080546135c890616686565b80601f01602080910402602001604051908101604052809291908181526020018280546135f490616686565b80156136415780601f1061361657610100808354040283529160200191613641565b820191906000526020600020905b81548152906001019060200180831161362457829003601f168201915b505050505081565b600154604080516305b11d3760e01b815290516001600160a01b03909216916391d148549183916305b11d3791600480820192602092909190829003018186803b15801561369657600080fd5b505afa1580156136aa573d6000803e3d6000fd5b505050506040513d601f19601f820116820180604052508101906136ce9190615c16565b6040516001600160e01b031960e084901b168152600481019190915233602482015260440160206040518083038186803b15801561370b57600080fd5b505afa15801561371f573d6000803e3d6000fd5b505050506040513d601f19601f820116820180604052508101906137439190615bde565b61375f5760405162461bcd60e51b815260040161073a906162ec565b6001600160a01b038316600090815260036020819052604090912090810154600160a01b900460ff166137e85760405162461bcd60e51b815260206004820152602b60248201527f4974656d734d3a20446961206469656d206b686f6e6720746f6e20746169206460448201526a19481c1a1948191d5e595d60aa1b606482015260840161073a565b6003810154600160a81b900460ff16156138535760405162461bcd60e51b815260206004820152602660248201527f4974656d734d3a20446961206469656d2064612064756f632070686520647579604482015265657420726f6960d01b606482015260840161073a565b61388f838380806020026020016040519081016040528093929190818152602001838360200280828437600092019190915250614fdf92505050565b6138ab5760405162461bcd60e51b815260040161073a906163b1565b60038101805460ff60a81b1916600160a81b17905560405133906001600160a01b038616907f1fc7308c894d3036b33349c4b3d7d4b43c3927ac1286bc97a98c3c388fa97c7b90600090a350505050565b60606009805480602002602001604051908101604052809291908181526020018280548015612ede576020028201919060005260206000209081546001600160a01b03168152600190910190602001808311612ec0575050505050905090565b600154604080516315c37cb960e31b815290516000926001600160a01b03169163ae1be5c8916004808301926020929190829003018186803b1580156139a157600080fd5b505afa1580156139b5573d6000803e3d6000fd5b505050506040513d601f19601f820116820180604052508101906139d99190615c16565b600154604051632474521560e21b8152600481018390523360248201529192506001600160a01b0316906391d148549060440160206040518083038186803b158015613a2457600080fd5b505afa158015613a38573d6000803e3d6000fd5b505050506040513d601f19601f82011682018060405250810190613a5c9190615bde565b613a785760405162461bcd60e51b815260040161073a90616296565b6001600160a01b038316600090815260036020819052604090912090810154600160a01b900460ff168015613ab857506003810154600160a81b900460ff165b8015613b1557506040516453544f524560d81b60208201526025016040516020818303038152906040528051906020012081600201604051602001613afd9190615f22565b60405160208183030381529060405280519060200120145b613b315760405162461bcd60e51b815260040161073a90616337565b6001600160a01b03831615613dee576001600160a01b038084166000908152600360209081526040808320815160e0810190925280549094168152600184018054939491939192840191613b8490616686565b80601f0160208091040260200160405190810160405280929190818152602001828054613bb090616686565b8015613bfd5780601f10613bd257610100808354040283529160200191613bfd565b820191906000526020600020905b815481529060010190602001808311613be057829003601f168201915b50505050508152602001600282018054613c1690616686565b80601f0160208091040260200160405190810160405280929190818152602001828054613c4290616686565b8015613c8f5780601f10613c6457610100808354040283529160200191613c8f565b820191906000526020600020905b815481529060010190602001808311613c7257829003601f168201915b505050918352505060038201546001600160a01b03808216602084015260ff600160a01b8304811615156040850152600160a81b909204909116151560608301526004909201549091166080918201528101519091508015613cf257508060a001515b8015613d5457506040516857415245484f55534560b81b6020820152602901604051602081830303815290604052805190602001208160400151604051602001613d3c9190615f06565b60405160208183030381529060405280519060200120145b613dec5760405162461bcd60e51b815260206004820152605860248201527f4974656d734d3a204b686f206e67756f6e206368692064696e68206b686f6e6760448201527f20686f70206c652c20636875612064756f63204244482070686520647579657460648201527f2c20686f6163206b686f6e672070686169206c61206b686f0000000000000000608482015260a40161073a565b505b6004810180546001600160a01b0319166001600160a01b0385811691821790925560405133928716907fdcc10de64617efb0774a78e440bcf4b7061baac845df589d7e28abcc07498e2c90600090a450505050565b600154604080516305b11d3760e01b815290516001600160a01b03909216916391d148549183916305b11d3791600480820192602092909190829003018186803b158015613e9057600080fd5b505afa158015613ea4573d6000803e3d6000fd5b505050506040513d601f19601f82011682018060405250810190613ec89190615c16565b6040516001600160e01b031960e084901b168152600481019190915233602482015260440160206040518083038186803b158015613f0557600080fd5b505afa158015613f19573d6000803e3d6000fd5b505050506040513d601f19601f82011682018060405250810190613f3d9190615bde565b613f595760405162461bcd60e51b815260040161073a906162ec565b6001600160a01b038316600090815260046020526040902060020154610100900460ff1615613fca5760405162461bcd60e51b815260206004820152601960248201527f4974656d734d3a204944204e434320646120746f6e2074616900000000000000604482015260640161073a565b6001600160a01b0383166140205760405162461bcd60e51b815260206004820181905260248201527f4974656d734d3a2044696120636869204e4343206b686f6e6720686f70206c65604482015260640161073a565b600154604080516328a5423f60e21b815290516001600160a01b03909216916391d1485491839163a29508fc91600480820192602092909190829003018186803b15801561406d57600080fd5b505afa158015614081573d6000803e3d6000fd5b505050506040513d601f19601f820116820180604052508101906140a59190615c16565b6040516001600160e01b031960e084901b16815260048101919091526001600160a01b038616602482015260440160206040518083038186803b1580156140eb57600080fd5b505afa1580156140ff573d6000803e3d6000fd5b505050506040513d601f19601f820116820180604052508101906141239190615bde565b6141835760405162461bcd60e51b815260206004820152602b60248201527f4974656d734d3a204e434320646520787561742074686965752076616920747260448201526a6f204e434320747520524d60a81b606482015260840161073a565b6040518060800160405280846001600160a01b0316815260200183838080601f01602080910402602001604051908101604052809392919081815260200183838082843760009201829052509385525050506020808301829052600160409384018190526001600160a01b0388811684526004835293909220845181546001600160a01b0319169416939093178355838101518051614229938501929190910190615700565b5060408201516002909101805460609093015115156101000261ff00199215159290921661ffff199093169290921717905561426483615691565b6142b457600980546001810182556000919091527f6e1540171b6c0c960b71a7020d9f60077f6af931a8bbf590da0223dacf75c7af0180546001600160a01b0319166001600160a01b0385161790555b336001600160a01b0316836001600160a01b03167fa360b642759fd1aef60fe12df288f0d8167355cc51b3062855ee99bd40738ccc84846040516142f992919061617a565b60405180910390a3505050565b600154604080516305b11d3760e01b815290516001600160a01b03909216916391d148549183916305b11d3791600480820192602092909190829003018186803b15801561435357600080fd5b505afa158015614367573d6000803e3d6000fd5b505050506040513d601f19601f8201168201806040525081019061438b9190615c16565b6040516001600160e01b031960e084901b168152600481019190915233602482015260440160206040518083038186803b1580156143c857600080fd5b505afa1580156143dc573d6000803e3d6000fd5b505050506040513d601f19601f820116820180604052508101906144009190615bde565b61441c5760405162461bcd60e51b815260040161073a906162ec565b600060028686604051614430929190615ef6565b908152604051908190036020019020600481015490915060ff166144aa5760405162461bcd60e51b815260206004820152602b60248201527f4974656d734d3a204d61742068616e67206b686f6e6720746f6e20746169206460448201526a19481c1a1948191d5e595d60aa1b606482015260840161073a565b6004810154610100900460ff16156145135760405162461bcd60e51b815260206004820152602660248201527f4974656d734d3a204d61742068616e672064612064756f632070686520647579604482015265657420726f6960d01b606482015260840161073a565b600084116145755760405162461bcd60e51b815260206004820152602960248201527f4974656d734d3a20476961207472616e207468616d206b68616f20706861692060448201526806c6f6e20686f6e20360bc1b606482015260840161073a565b6145b1838380806020026020016040519081016040528093929190818152602001838360200280828437600092019190915250614fdf92505050565b6145cd5760405162461bcd60e51b815260040161073a906163b1565b60048101805461ff0019166101001790556005810184905560405133906145f79088908890615ef6565b604051908190038120868252907f6fc42e6328d70476ac11e3bb6c632c610f1751d06b79b7edc25e912cdff2720990602001611cd8565b60008281526020819052604090206001015461464a8133615418565b6113998383615500565b6001600160a01b038216600090815260036020819052604090912090810154600160a01b900460ff16801561469457506003810154600160a81b900460ff165b6147065760405162461bcd60e51b815260206004820152603a60248201527f4974656d734d3a20446961206469656d206368756120746f6e2074616920686f60448201527f616320636875612064756f632042444820706865206475796574000000000000606482015260840161073a565b60038101546001600160a01b0316156147615760405162461bcd60e51b815260206004820152601e60248201527f4974656d734d3a20446961206469656d20646120636f207175616e206c790000604482015260640161073a565b6040516453544f524560d81b6020820152600090819060250160405160208183030381529060405280519060200120836002016040516020016147a49190615f22565b60405160208183030381529060405280519060200120141561495157600160009054906101000a90046001600160a01b03166001600160a01b0316631f1077986040518163ffffffff1660e01b815260040160206040518083038186803b15801561480e57600080fd5b505afa158015614822573d6000803e3d6000fd5b505050506040513d601f19601f820116820180604052508101906148469190615c16565b600154604080516315c37cb960e31b815290519294506001600160a01b03909116916391d1485491839163ae1be5c891600480820192602092909190829003018186803b15801561489657600080fd5b505afa1580156148aa573d6000803e3d6000fd5b505050506040513d601f19601f820116820180604052508101906148ce9190615c16565b6040516001600160e01b031960e084901b168152600481019190915233602482015260440160206040518083038186803b15801561490b57600080fd5b505afa15801561491f573d6000803e3d6000fd5b505050506040513d601f19601f820116820180604052508101906149439190615bde565b1561494c575060015b614ae9565b6040516857415245484f55534560b81b602082015260290160405160208183030381529060405280519060200120836002016040516020016149939190615f22565b604051602081830303815290604052805190602001201415614a8557600160009054906101000a90046001600160a01b03166001600160a01b0316636250e0566040518163ffffffff1660e01b815260040160206040518083038186803b1580156149fd57600080fd5b505afa158015614a11573d6000803e3d6000fd5b505050506040513d601f19601f82011682018060405250810190614a359190615c16565b6001546040805163ad4ed49760e01b815290519294506001600160a01b03909116916391d1485491839163ad4ed49791600480820192602092909190829003018186803b15801561489657600080fd5b60405162461bcd60e51b815260206004820152603360248201527f4974656d734d3a204c6f616920646961206469656d206b686f6e67207861632060448201527264696e682064652067616e207175616e206c7960681b606482015260840161073a565b80614b675760405162461bcd60e51b815260206004820152604260248201527f4974656d734d3a204e67756f6920676f69206b686f6e6720636f20717579656e60448201527f2067616e207175616e206c792063686f206c6f616920646961206469656d206e606482015261617960f01b608482015260a40161073a565b600154604051632474521560e21b8152600481018490526001600160a01b038681166024830152909116906391d148549060440160206040518083038186803b158015614bb357600080fd5b505afa158015614bc7573d6000803e3d6000fd5b505050506040513d601f19601f82011682018060405250810190614beb9190615bde565b614c5d5760405162461bcd60e51b815260206004820152603860248201527f4974656d734d3a204e67756f692064756f632067616e206c616d207175616e2060448201527f6c79207468696575207661692074726f2070687520686f700000000000000000606482015260840161073a565b6003830180546001600160a01b0319166001600160a01b0386811691821790925560405190815233918716907fe1afc28d5cfbf961ed132b592d03e1026a060113945054c2c5ed4c90629022be90602001611364565b6040805160a0810182526060808252600060208301819052928201839052810182905260808101919091526001600160a01b038416600090815260056020526040908190209051614d079085908590615ef6565b90815260200160405180910390206040518060a0016040529081600082018054614d3090616686565b80601f0160208091040260200160405190810160405280929190818152602001828054614d5c90616686565b8015614da95780601f10614d7e57610100808354040283529160200191614da9565b820191906000526020600020905b815481529060010190602001808311614d8c57829003601f168201915b505050918352505060018201546001600160a01b031660208201526002820154604082015260039091015460ff80821615156060840152610100909104161515608090910152949350505050565b60606000614e06836002616620565b614e11906002616608565b6001600160401b03811115614e3657634e487b7160e01b600052604160045260246000fd5b6040519080825280601f01601f191660200182016040528015614e60576020820181803683370190505b509050600360fc1b81600081518110614e8957634e487b7160e01b600052603260045260246000fd5b60200101906001600160f81b031916908160001a905350600f60fb1b81600181518110614ec657634e487b7160e01b600052603260045260246000fd5b60200101906001600160f81b031916908160001a9053506000614eea846002616620565b614ef5906001616608565b90505b6001811115614f89576f181899199a1a9b1b9c1cb0b131b232b360811b85600f1660108110614f3757634e487b7160e01b600052603260045260246000fd5b1a60f81b828281518110614f5b57634e487b7160e01b600052603260045260246000fd5b60200101906001600160f81b031916908160001a90535060049490941c93614f828161666f565b9050614ef8565b508315614fd85760405162461bcd60e51b815260206004820181905260248201527f537472696e67733a20686578206c656e67746820696e73756666696369656e74604482015260640161073a565b9392505050565b6000815160001415614ff357506000919050565b60008083516001600160401b0381111561501d57634e487b7160e01b600052604160045260246000fd5b604051908082528060200260200182016040528015615046578160200160208202803683370190505b5090506000805b855181101561540957600086828151811061507857634e487b7160e01b600052603260045260246000fd5b60200260200101519050336001600160a01b0316816001600160a01b031614156150f95760405162461bcd60e51b815260206004820152602c60248201527f4974656d734d3a204e67756f692064652078756174206b686f6e67207468652060448201526b1d1d481c1a1948191d5e595d60a21b606482015260840161073a565b600154604080516305b11d3760e01b815290516001600160a01b03909216916391d148549183916305b11d3791600480820192602092909190829003018186803b15801561514657600080fd5b505afa15801561515a573d6000803e3d6000fd5b505050506040513d601f19601f8201168201806040525081019061517e9190615c16565b6040516001600160e01b031960e084901b16815260048101919091526001600160a01b038416602482015260440160206040518083038186803b1580156151c457600080fd5b505afa1580156151d8573d6000803e3d6000fd5b505050506040513d601f19601f820116820180604052508101906151fc9190615bde565b6152625760405162461bcd60e51b815260206004820152603160248201527f4974656d734d3a204e67756f6920706865206475796574206b686f6e672070686044820152700c2d240e8d0c2dcd040ecd2cadc4084889607b1b606482015260840161073a565b6000805b848110156152ca57826001600160a01b031686828151811061529857634e487b7160e01b600052603260045260246000fd5b60200260200101516001600160a01b031614156152b857600191506152ca565b806152c2816166c1565b915050615266565b5080156153255760405162461bcd60e51b8152602060048201526024808201527f4974656d734d3a204e67756f6920706865206475796574206269207472756e676044820152630206c61760e41b606482015260840161073a565b60015460405163e3fcbac160e01b81526001600160a01b0384811660048301529091169063e3fcbac19060240160206040518083038186803b15801561536a57600080fd5b505afa15801561537e573d6000803e3d6000fd5b505050506040513d601f19601f820116820180604052508101906153a29190615c16565b6153ac9087616608565b9550818585815181106153cf57634e487b7160e01b600052603260045260246000fd5b6001600160a01b0390921660209283029190910190910152836153f1816166c1565b94505050508080615401906166c1565b91505061504d565b50506113889091119392505050565b6154228282612e5d565b6117dc5761543a816001600160a01b03166014614df7565b615445836020614df7565b604051602001615456929190615fbd565b60408051601f198184030181529082905262461bcd60e51b825261073a916004016161c0565b6154868282612e5d565b6117dc576000828152602081815260408083206001600160a01b03851684529091529020805460ff191660011790556154bc3390565b6001600160a01b0316816001600160a01b0316837f2f8788117e7eff1d82e926ec794901d17c78024a50270940304540a733656f0d60405160405180910390a45050565b61550a8282612e5d565b156117dc576000828152602081815260408083206001600160a01b0385168085529252808320805460ff1916905551339285917ff6391f5c32d9c69d2a47ea670b442974b53935d1edc7fd64eb21e047a839171b9190a45050565b6000805b6008548110156155d457826001600160a01b03166008828154811061559e57634e487b7160e01b600052603260045260246000fd5b6000918252602090912001546001600160a01b031614156155c25750600192915050565b806155cc816166c1565b915050615569565b50600092915050565b6000805b6007548110156156875783836040516020016155fe929190615ef6565b604051602081830303815290604052805190602001206007828154811061563557634e487b7160e01b600052603260045260246000fd5b9060005260206000200160405160200161564f9190615f22565b60405160208183030381529060405280519060200120141561567557600191505061061e565b8061567f816166c1565b9150506155e1565b5060009392505050565b6000805b6009548110156155d457826001600160a01b0316600982815481106156ca57634e487b7160e01b600052603260045260246000fd5b6000918252602090912001546001600160a01b031614156156ee5750600192915050565b806156f8816166c1565b915050615695565b82805461570c90616686565b90600052602060002090601f01602090048101928261572e5760008555615774565b82601f1061574757805160ff1916838001178555615774565b82800160010185558215615774579182015b82811115615774578251825591602001919060010190615759565b50615780929150615835565b5090565b6040805160e08101825260008082526060602083018190529282018390529181018290526080810182905260a0810182905260c081019190915290565b8280546157cd90616686565b90600052602060002090601f0160209004810192826157ef5760008555615774565b82601f106158085782800160ff19823516178555615774565b82800160010185558215615774579182015b8281111561577457823582559160200191906001019061581a565b5b808211156157805760008155600101615836565b80356001600160a01b038116811461586157600080fd5b919050565b60008083601f840112615877578081fd5b5081356001600160401b0381111561588d578182fd5b6020830191508360208260051b85010111156158a857600080fd5b9250929050565b60008083601f8401126158c0578182fd5b5081356001600160401b038111156158d6578182fd5b6020830191508360208285010111156158a857600080fd5b600082601f8301126158fe578081fd5b81356001600160401b0380821115615918576159186166f2565b604051601f8301601f19908116603f01168101908282118183101715615940576159406166f2565b81604052838152866020858801011115615958578485fd5b8360208701602083013792830160200193909352509392505050565b600060208284031215615985578081fd5b614fd88261584a565b600080604083850312156159a0578081fd5b6159a98361584a565b91506159b76020840161584a565b90509250929050565b6000806000604084860312156159d4578081fd5b6159dd8461584a565b925060208401356001600160401b038111156159f7578182fd5b615a0386828701615866565b9497909650939450505050565b600080600060408486031215615a24578283fd5b615a2d8461584a565b925060208401356001600160401b03811115615a47578283fd5b615a03868287016158af565b600080600080600060608688031215615a6a578081fd5b615a738661584a565b945060208601356001600160401b0380821115615a8e578283fd5b615a9a89838a016158af565b90965094506040880135915080821115615ab2578283fd5b50615abf88828901615866565b969995985093965092949392505050565b600080600080600060608688031215615ae7578081fd5b615af08661584a565b945060208601356001600160401b0380821115615b0b578283fd5b615b1789838a016158af565b90965094506040880135915080821115615b2f578283fd5b50615abf888289016158af565b60008060008060608587031215615b51578384fd5b615b5a8561584a565b935060208501356001600160401b03811115615b74578384fd5b615b80878288016158af565b9598909750949560400135949350505050565b60008060408385031215615ba5578182fd5b615bae8361584a565b915060208301356001600160401b03811115615bc8578182fd5b615bd4858286016158ee565b9150509250929050565b600060208284031215615bef578081fd5b81518015158114614fd8578182fd5b600060208284031215615c0f578081fd5b5035919050565b600060208284031215615c27578081fd5b5051919050565b60008060408385031215615c40578182fd5b823591506159b76020840161584a565b600060208284031215615c61578081fd5b81356001600160e01b031981168114614fd8578182fd5b60008060208385031215615c8a578182fd5b82356001600160401b03811115615c9f578283fd5b615cab858286016158af565b90969095509350505050565b600080600060408486031215615ccb578081fd5b83356001600160401b03811115615ce0578182fd5b615cec868287016158af565b9094509250615cff90506020850161584a565b90509250925092565b6000806000806000806000806080898b031215615d23578586fd5b88356001600160401b0380821115615d39578788fd5b615d458c838d016158af565b909a50985060208b0135915080821115615d5d578788fd5b615d698c838d016158af565b909850965060408b0135915080821115615d81578485fd5b615d8d8c838d016158af565b909650945060608b0135915080821115615da5578384fd5b50615db28b828c016158af565b999c989b5096995094979396929594505050565b600080600060408486031215615dda578081fd5b83356001600160401b03811115615def578182fd5b615dfb868287016158af565b909790965060209590950135949350505050565b600080600080600060608688031215615e26578283fd5b85356001600160401b0380821115615e3c578485fd5b615e4889838a016158af565b9097509550602088013594506040880135915080821115615ab2578283fd5b600060208284031215615e78578081fd5b81356001600160401b03811115615e8d578182fd5b615e99848285016158ee565b949350505050565b81835281816020850137506000828201602090810191909152601f909101601f19169091010190565b60008151808452615ee281602086016020860161663f565b601f01601f19169290920160200192915050565b8183823760009101908152919050565b60008251615f1881846020870161663f565b9190910192915050565b600080835482600182811c915080831680615f3e57607f831692505b6020808410821415615f5e57634e487b7160e01b87526022600452602487fd5b818015615f725760018114615f8357615faf565b60ff19861689528489019650615faf565b60008a815260209020885b86811015615fa75781548b820152908501908301615f8e565b505084890196505b509498975050505050505050565b7f416363657373436f6e74726f6c3a206163636f756e7420000000000000000000815260008351615ff581601785016020880161663f565b7001034b99036b4b9b9b4b733903937b6329607d1b601791840191820152835161602681602884016020880161663f565b01602801949350505050565b6001600160a01b038516815260806020820181905260009061605690830186615eca565b93151560408301525090151560609091015292915050565b600060018060a01b03808a16835260e0602084015261609060e084018a615eca565b83810360408501526160a2818a615eca565b97821660608501525094151560808301525091151560a083015290911660c0909101529392505050565b6020808252825182820181905260009190848201906040850190845b8181101561610d5783516001600160a01b0316835292840192918401916001016160e8565b50909695505050505050565b6000602080830181845280855180835260408601915060408160051b8701019250838701855b8281101561616d57603f1988860301845261615b858351615eca565b9450928501929085019060010161613f565b5092979650505050505050565b602081526000615e99602083018486615ea1565b6040815260006161a2604083018688615ea1565b82810360208401526161b5818587615ea1565b979650505050505050565b602081526000614fd86020830184615eca565b60a0815260006161e660a0830188615eca565b6001600160a01b0396909616602083015250604081019390935290151560608301521515608090910152919050565b60006101008083526162298184018c615eca565b9050828103602084015261623d818b615eca565b90508281036040840152616251818a615eca565b905082810360608401526162658189615eca565b9615156080840152505092151560a08401526001600160a01b039190911660c083015260e090910152949350505050565b60208082526036908201527f4974656d734d3a204e67756f6920676f69207468696575207661692074726f206040820152754749414d5f444f435f43482028524d204e676f61692960501b606082015260800190565b6020808252602b908201527f4974656d734d3a204e67756f6920676f69206b686f6e6720706861692054686160408201526a0dcd040ecd2cadc408488960ab1b606082015260800190565b60208082526054908201527f4974656d734d3a204375612068616e67206b686f6e6720746f6e207461692c2060408201527f636875612064756f6320424448207068652064757965742c20686f6163206b686060820152736f6e672070686169206c61206375612068616e6760601b608082015260a00190565b6020808252602c908201527f4974656d734d3a204b686f6e67206475207479206c6520636f207068616e204260408201526b1112081c1a1948191d5e595d60a21b606082015260800190565b602081526000825161010080602085015261641c610120850183615eca565b91506020850151601f198086850301604087015261643a8483615eca565b935060408701519150808685030160608701526164578483615eca565b93506060870151915080868503016080870152506164758382615eca565b925050608085015161648b60a086018215159052565b5060a085015180151560c08601525060c08501516001600160a01b03811660e08601525060e0949094015192909301919091525090565b60208152600060018060a01b03808451166020840152602084015160e060408501526164f2610100850182615eca565b90506040850151601f1985830301606086015261650f8282615eca565b9150508160608601511660808501526080850151151560a085015260a0850151915061653f60c085018315159052565b60c08501516001600160a01b03811660e08601529150615e99565b602080825282516001600160a01b0316828201528201516080604083015260009061658860a0840182615eca565b90506040840151151560608401526060840151151560808401528091505092915050565b602081526000825160a060208401526165c860c0840182615eca565b905060018060a01b036020850151166040840152604084015160608401526060840151151560808401526080840151151560a08401528091505092915050565b6000821982111561661b5761661b6166dc565b500190565b600081600019048311821515161561663a5761663a6166dc565b500290565b60005b8381101561665a578181015183820152602001616642565b83811115616669576000848401525b50505050565b60008161667e5761667e6166dc565b506000190190565b600181811c9082168061669a57607f821691505b602082108114156166bb57634e487b7160e01b600052602260045260246000fd5b50919050565b60006000198214156166d5576166d56166dc565b5060010190565b634e487b7160e01b600052601160045260246000fd5b634e487b7160e01b600052604160045260246000fdfea2646970667358221220f9ac5f4fef349c49dcb8c356878814fc248e3cd295b2a087933fd8c16093526664736f6c63430008040033",
  "immutableReferences": {},
  "source": "// SPDX-License-Identifier: MIT\r\npragma solidity ^0.8.4;\r\n\r\nimport \"@openzeppelin/contracts/access/AccessControl.sol\";\r\nimport \"./Interfaces.sol\"; // Import file Interfaces.sol tp trung\r\n\r\n// Contract ItemsManagement s nh ngha cc struct m Interfaces.sol  forward-declare\r\n// v cc contract khc s s dng thng qua Interfaces.sol.\r\ncontract ItemsManagement is AccessControl {\r\n    // S dng IRoleManagement t Interfaces.sol\r\n    IRoleManagement public roleManagementExternal;\r\n\r\n    // --- STRUCT DEFINITIONS ---\r\n    // y l ni nh ngha chi tit cc struct.\r\n    // Interfaces.sol  forward-declare chng, v cc contract khc s\r\n    // hiu cu trc ny khi chng import ItemsManagement.sol.\r\n\r\n    struct ItemInfo {\r\n        string itemId;\r\n        string name;\r\n        string description;\r\n        string category;\r\n        bool exists;\r\n        bool isApprovedByBoard;\r\n        address proposer; // Thnh vin BH  xut\r\n        uint256 referencePriceCeiling; // Gi trn tham kho do BH t\r\n    }\r\n\r\n    // --- MAPPINGS ---\r\n    mapping(string => ItemInfo) public items;\r\n    mapping(address => PhysicalLocationInfo) public physicalLocations;\r\n    mapping(address => SupplierInfo) public suppliers;\r\n    mapping(address => mapping(string => SupplierItemListing)) public supplierItemListings;\r\n    mapping(address => mapping(string => uint256)) public storeItemRetailPrices;\r\n\r\n    // --- ARRAYS FOR ITERATION (OPTIONAL, but good for discovery) ---\r\n    string[] public itemIds;\r\n    address[] public locationAddresses;\r\n    address[] public supplierAddresses;\r\n\r\n    // --- EVENTS ---\r\n    event ItemProposed(string indexed itemId, string name, address indexed proposer);\r\n    event ItemApprovedByBoard(string indexed itemId, uint256 referencePriceCeiling, address indexed finalApprover);\r\n    event PhysicalLocationProposed(address indexed locationId, string name, string locationType, address indexed proposer);\r\n    event PhysicalLocationApprovedByBoard(address indexed locationId, address indexed finalApprover);\r\n    event SupplierProposed(address indexed supplierId, string name, address indexed proposer);\r\n    event SupplierApprovedByBoard(address indexed supplierId, address indexed finalApprover);\r\n    event PhysicalLocationManagerAssigned(address indexed locationId, address newManager, address indexed byDirector);\r\n    event StoreDesignatedSourceWarehouseSet(address indexed storeAddress, address indexed designatedWarehouse, address indexed byStoreDirector);\r\n    event SupplierItemListed(address indexed supplierAddress, string indexed itemId, uint256 price, bool autoApproved);\r\n    event SupplierItemManuallyApprovedByBoard(address indexed supplierAddress, string indexed itemId, address indexed approver);\r\n    event RetailPriceSet(address indexed storeAddress, string indexed itemId, uint256 price, address indexed byStoreDirector);\r\n\r\n    // --- CONSTRUCTOR ---\r\n    constructor(address _roleManagementExternalAddress) {\r\n        require(_roleManagementExternalAddress != address(0), \"ItemsM: Dia chi RM Ngoai khong hop le\");\r\n        roleManagementExternal = IRoleManagement(_roleManagementExternalAddress);\r\n        grantRole(DEFAULT_ADMIN_ROLE, msg.sender); \r\n    }\r\n\r\n    // --- MODIFIERS ---\r\n    modifier onlyBoardMember() {\r\n        require(roleManagementExternal.hasRole(roleManagementExternal.BOARD_ROLE(), msg.sender), \"ItemsM: Nguoi goi khong phai Thanh vien BDH\");\r\n        _;\r\n    }\r\n\r\n    modifier onlySupplier() {\r\n        require(roleManagementExternal.hasRole(roleManagementExternal.SUPPLIER_ROLE(), msg.sender), \"ItemsM: Nguoi goi khong phai NCC (RM Ngoai)\");\r\n        require(suppliers[msg.sender].exists && suppliers[msg.sender].isApprovedByBoard, \"ItemsM: NCC chua duoc dang ky hoac phe duyet\");\r\n        _;\r\n    }\r\n\r\n    modifier onlyStoreDirector() {\r\n        bytes32 sdRole = roleManagementExternal.STORE_DIRECTOR_ROLE();\r\n        require(roleManagementExternal.hasRole(sdRole, msg.sender), \"ItemsM: Nguoi goi thieu vai tro GIAM_DOC_CH (RM Ngoai)\");\r\n        _;\r\n    }\r\n\r\n    modifier onlyWarehouseDirector() {\r\n        bytes32 wdRole = roleManagementExternal.WAREHOUSE_DIRECTOR_ROLE();\r\n        require(roleManagementExternal.hasRole(wdRole, msg.sender), \"ItemsM: Nguoi goi thieu vai tro GIAM_DOC_KHO (RM Ngoai)\");\r\n        _;\r\n    }\r\n\r\n    modifier onlyStoreManagerOfThisStore(address _storeAddress) {\r\n        PhysicalLocationInfo memory storeInfo = physicalLocations[_storeAddress];\r\n        require(storeInfo.exists && keccak256(abi.encodePacked(storeInfo.locationType)) == keccak256(abi.encodePacked(\"STORE\")), \"ItemsM: Khong phai cua hang hop le\");\r\n        require(storeInfo.manager == msg.sender, \"ItemsM: Nguoi goi khong phai quan ly cua hang nay\");\r\n        // Optional: Check if msg.sender also has STORE_MANAGER_ROLE from RoleManagement\r\n        // require(roleManagementExternal.hasRole(roleManagementExternal.STORE_MANAGER_ROLE(), msg.sender), \"ItemsM: Nguoi goi thieu vai tro QLCH\");\r\n        _;\r\n    }\r\n\r\n    // --- INTERNAL FUNCTIONS ---\r\n    function _getBoardApproval(address[] memory _approvers) internal view returns (bool) {\r\n        if (_approvers.length == 0) return false;\r\n        uint256 totalApprovalShares = 0;\r\n\r\n        address[] memory processedApprovers = new address[](_approvers.length);\r\n        uint processedCount = 0;\r\n\r\n        for (uint i = 0; i < _approvers.length; i++) {\r\n            address approver = _approvers[i];\r\n\r\n            require(approver != msg.sender, \"ItemsM: Nguoi de xuat khong the tu phe duyet\");\r\n            require(roleManagementExternal.hasRole(roleManagementExternal.BOARD_ROLE(), approver), \"ItemsM: Nguoi phe duyet khong phai thanh vien BDH\");\r\n\r\n            bool alreadyProcessed = false;\r\n            for (uint j = 0; j < processedCount; j++) {\r\n                if (processedApprovers[j] == approver) {\r\n                    alreadyProcessed = true;\r\n                    break;\r\n                }\r\n            }\r\n            require(!alreadyProcessed, \"ItemsM: Nguoi phe duyet bi trung lap\");\r\n\r\n            totalApprovalShares += roleManagementExternal.getSharesPercentage(approver);\r\n\r\n            processedApprovers[processedCount] = approver;\r\n            processedCount++;\r\n        }\r\n        return totalApprovalShares > 5000; // 5000 means > 50.00% (since percentage is x100)\r\n    }\r\n\r\n    function _itemExistsInArray(string calldata _itemId) internal view returns (bool) {\r\n        for (uint i = 0; i < itemIds.length; i++) {\r\n            if (keccak256(abi.encodePacked(itemIds[i])) == keccak256(abi.encodePacked(_itemId))) return true;\r\n        }\r\n        return false;\r\n    }\r\n    function _locationExistsInArray(address _locationId) internal view returns (bool) {\r\n        for (uint i = 0; i < locationAddresses.length; i++) {\r\n            if (locationAddresses[i] == _locationId) return true;\r\n        }\r\n        return false;\r\n    }\r\n     function _supplierExistsInArray(address _supplierId) internal view returns (bool) {\r\n        for (uint i = 0; i < supplierAddresses.length; i++) {\r\n            if (supplierAddresses[i] == _supplierId) return true;\r\n        }\r\n        return false;\r\n    }\r\n\r\n\r\n    // --- QUN L MT HNG BI BAN IU HNH ---\r\n    function proposeNewItem(string calldata _itemId, string calldata _name, string calldata _description, string calldata _category) external onlyBoardMember {\r\n        require(!items[_itemId].exists, \"ItemsM: ID mat hang da ton tai\");\r\n        require(bytes(_itemId).length > 0, \"ItemsM: ID mat hang khong duoc rong\");\r\n\r\n        items[_itemId] = ItemInfo({\r\n            itemId: _itemId,\r\n            name: _name,\r\n            description: _description,\r\n            category: _category,\r\n            exists: true,\r\n            isApprovedByBoard: false,\r\n            proposer: msg.sender,\r\n            referencePriceCeiling: 0\r\n        });\r\n\r\n        if (!_itemExistsInArray(_itemId)) {\r\n            itemIds.push(_itemId);\r\n        }\r\n        emit ItemProposed(_itemId, _name, msg.sender);\r\n    }\r\n\r\n    function approveProposedItem(string calldata _itemId, uint256 _referencePriceCeiling, address[] calldata _approvers) external onlyBoardMember {\r\n        ItemInfo storage item = items[_itemId];\r\n        require(item.exists, \"ItemsM: Mat hang khong ton tai de phe duyet\");\r\n        require(!item.isApprovedByBoard, \"ItemsM: Mat hang da duoc phe duyet roi\");\r\n        require(_referencePriceCeiling > 0, \"ItemsM: Gia tran tham khao phai lon hon 0\");\r\n        require(_getBoardApproval(_approvers), \"ItemsM: Khong du ty le co phan BDH phe duyet\");\r\n\r\n        item.isApprovedByBoard = true;\r\n        item.referencePriceCeiling = _referencePriceCeiling;\r\n        emit ItemApprovedByBoard(_itemId, _referencePriceCeiling, msg.sender);\r\n    }\r\n\r\n    // --- QUN L A IM BI BAN IU HNH ---\r\n    function proposeNewPhysicalLocation(address _locationId, string calldata _name, string calldata _locationType) external onlyBoardMember {\r\n        require(!physicalLocations[_locationId].exists, \"ItemsM: ID dia diem da ton tai\");\r\n        require(_locationId != address(0), \"ItemsM: Dia chi dia diem khong hop le\");\r\n        bytes32 typeHash = keccak256(abi.encodePacked(_locationType));\r\n        require(typeHash == keccak256(abi.encodePacked(\"STORE\")) || typeHash == keccak256(abi.encodePacked(\"WAREHOUSE\")), \"ItemsM: Loai dia diem khong hop le\");\r\n\r\n        physicalLocations[_locationId] = PhysicalLocationInfo({\r\n            locationId: _locationId,\r\n            name: _name,\r\n            locationType: _locationType,\r\n            manager: address(0), // Manager to be assigned later by relevant Director\r\n            exists: true,\r\n            isApprovedByBoard: false,\r\n            designatedSourceWarehouseAddress: address(0) // For stores, to be set later\r\n        });\r\n\r\n        if (!_locationExistsInArray(_locationId)) {\r\n            locationAddresses.push(_locationId);\r\n        }\r\n        emit PhysicalLocationProposed(_locationId, _name, _locationType, msg.sender);\r\n    }\r\n\r\n    function approveProposedPhysicalLocation(address _locationId, address[] calldata _approvers) external onlyBoardMember {\r\n        PhysicalLocationInfo storage loc = physicalLocations[_locationId];\r\n        require(loc.exists, \"ItemsM: Dia diem khong ton tai de phe duyet\");\r\n        require(!loc.isApprovedByBoard, \"ItemsM: Dia diem da duoc phe duyet roi\");\r\n        require(_getBoardApproval(_approvers), \"ItemsM: Khong du ty le co phan BDH phe duyet\");\r\n\r\n        loc.isApprovedByBoard = true;\r\n        emit PhysicalLocationApprovedByBoard(_locationId, msg.sender);\r\n    }\r\n\r\n    function assignManagerToLocation(address _locationId, address _managerId) external { // No specific role modifier here, logic inside\r\n        PhysicalLocationInfo storage loc = physicalLocations[_locationId];\r\n        require(loc.exists && loc.isApprovedByBoard, \"ItemsM: Dia diem chua ton tai hoac chua duoc BDH phe duyet\");\r\n        require(loc.manager == address(0), \"ItemsM: Dia diem da co quan ly\"); // Can only assign if no manager yet\r\n\r\n        bytes32 expectedManagerRole;\r\n        bool callerIsAuthorized = false;\r\n\r\n        if (keccak256(abi.encodePacked(loc.locationType)) == keccak256(abi.encodePacked(\"STORE\"))) {\r\n            expectedManagerRole = roleManagementExternal.STORE_MANAGER_ROLE();\r\n            // Only Store Director can assign Store Manager\r\n            if (roleManagementExternal.hasRole(roleManagementExternal.STORE_DIRECTOR_ROLE(), msg.sender)) {\r\n                callerIsAuthorized = true;\r\n            }\r\n        } else if (keccak256(abi.encodePacked(loc.locationType)) == keccak256(abi.encodePacked(\"WAREHOUSE\"))) {\r\n            expectedManagerRole = roleManagementExternal.WAREHOUSE_MANAGER_ROLE();\r\n            // Only Warehouse Director can assign Warehouse Manager\r\n            if (roleManagementExternal.hasRole(roleManagementExternal.WAREHOUSE_DIRECTOR_ROLE(), msg.sender)) {\r\n                callerIsAuthorized = true;\r\n            }\r\n        } else {\r\n            revert(\"ItemsM: Loai dia diem khong xac dinh de gan quan ly\");\r\n        }\r\n\r\n        require(callerIsAuthorized, \"ItemsM: Nguoi goi khong co quyen gan quan ly cho loai dia diem nay\");\r\n        require(roleManagementExternal.hasRole(expectedManagerRole, _managerId), \"ItemsM: Nguoi duoc gan lam quan ly thieu vai tro phu hop\");\r\n\r\n        loc.manager = _managerId;\r\n        emit PhysicalLocationManagerAssigned(_locationId, _managerId, msg.sender);\r\n    }\r\n\r\n    function setDesignatedSourceWarehouseForStore(address _storeAddress, address _warehouseAddress) external onlyStoreDirector {\r\n        PhysicalLocationInfo storage storeInfo = physicalLocations[_storeAddress];\r\n        require(storeInfo.exists && storeInfo.isApprovedByBoard && keccak256(abi.encodePacked(storeInfo.locationType)) == keccak256(abi.encodePacked(\"STORE\")), \"ItemsM: Cua hang khong ton tai, chua duoc BDH phe duyet, hoac khong phai la cua hang\");\r\n\r\n        if (_warehouseAddress != address(0)) { // Allow unsetting by passing address(0)\r\n            PhysicalLocationInfo memory warehouseInfo = physicalLocations[_warehouseAddress];\r\n            require(warehouseInfo.exists && warehouseInfo.isApprovedByBoard && keccak256(abi.encodePacked(warehouseInfo.locationType)) == keccak256(abi.encodePacked(\"WAREHOUSE\")), \"ItemsM: Kho nguon chi dinh khong hop le, chua duoc BDH phe duyet, hoac khong phai la kho\");\r\n        }\r\n\r\n        storeInfo.designatedSourceWarehouseAddress = _warehouseAddress;\r\n        emit StoreDesignatedSourceWarehouseSet(_storeAddress, _warehouseAddress, msg.sender);\r\n    }\r\n\r\n    // --- QUN L NH CUNG CP BI BAN IU HNH ---\r\n    function proposeNewSupplier(address _supplierId, string calldata _name) external onlyBoardMember {\r\n        require(!suppliers[_supplierId].exists, \"ItemsM: ID NCC da ton tai\");\r\n        require(_supplierId != address(0), \"ItemsM: Dia chi NCC khong hop le\");\r\n        // Supplier must already have SUPPLIER_ROLE from RoleManagement\r\n        require(roleManagementExternal.hasRole(roleManagementExternal.SUPPLIER_ROLE(), _supplierId), \"ItemsM: NCC de xuat thieu vai tro NCC tu RM\");\r\n\r\n\r\n        suppliers[_supplierId] = SupplierInfo({\r\n            supplierId: _supplierId,\r\n            name: _name,\r\n            isApprovedByBoard: false,\r\n            exists: true\r\n        });\r\n\r\n        if(!_supplierExistsInArray(_supplierId)){\r\n            supplierAddresses.push(_supplierId);\r\n        }\r\n        emit SupplierProposed(_supplierId, _name, msg.sender);\r\n    }\r\n\r\n    function approveProposedSupplier(address _supplierId, address[] calldata _approvers) external onlyBoardMember {\r\n        SupplierInfo storage sup = suppliers[_supplierId];\r\n        require(sup.exists, \"ItemsM: NCC khong ton tai de phe duyet\");\r\n        require(!sup.isApprovedByBoard, \"ItemsM: NCC da duoc phe duyet roi\");\r\n        require(_getBoardApproval(_approvers), \"ItemsM: Khong du ty le co phan BDH phe duyet\");\r\n\r\n        sup.isApprovedByBoard = true;\r\n        emit SupplierApprovedByBoard(_supplierId, msg.sender);\r\n    }\r\n\r\n    // --- NIM YT V PH DUYT MT HNG CA NH CUNG CP ---\r\n    function listSupplierItem(string calldata _itemId, uint256 _price) external onlySupplier {\r\n        ItemInfo memory itemInfo = items[_itemId];\r\n        require(itemInfo.exists && itemInfo.isApprovedByBoard, \"ItemsM: Mat hang khong ton tai hoac chua duoc BDH phe duyet chung\");\r\n        require(!supplierItemListings[msg.sender][_itemId].exists, \"ItemsM: Mat hang cua NCC da duoc niem yet\");\r\n        require(_price > 0, \"ItemsM: Gia phai la so duong\");\r\n\r\n        bool autoApproved = (itemInfo.referencePriceCeiling > 0 && _price <= itemInfo.referencePriceCeiling);\r\n\r\n        supplierItemListings[msg.sender][_itemId] = SupplierItemListing({\r\n            itemId: _itemId,\r\n            supplierAddress: msg.sender,\r\n            price: _price,\r\n            isApprovedByBoard: autoApproved,\r\n            exists: true\r\n        });\r\n        emit SupplierItemListed(msg.sender, _itemId, _price, autoApproved);\r\n    }\r\n\r\n    function approveSupplierItemManuallyByBoard(address _supplierAddress, string calldata _itemId, address[] calldata _approvers) external onlyBoardMember {\r\n        require(suppliers[_supplierAddress].exists && suppliers[_supplierAddress].isApprovedByBoard, \"ItemsM: NCC khong ton tai hoac chua duoc BDH phe duyet\");\r\n        SupplierItemListing storage listing = supplierItemListings[_supplierAddress][_itemId];\r\n        require(listing.exists, \"ItemsM: Mat hang cua NCC chua duoc niem yet\");\r\n        require(!listing.isApprovedByBoard, \"ItemsM: Mat hang nay cua NCC da duoc phe duyet roi\"); // Only if not auto-approved\r\n        require(_getBoardApproval(_approvers), \"ItemsM: Khong du ty le co phan BDH phe duyet cho mat hang NCC nay\");\r\n\r\n        listing.isApprovedByBoard = true;\r\n        emit SupplierItemManuallyApprovedByBoard(_supplierAddress, _itemId, msg.sender);\r\n    }\r\n\r\n    // --- THIT LP GI BN L TI CA HNG ---\r\n    function setStoreItemRetailPrice(address _storeAddress, string calldata _itemId, uint256 _price) external onlyStoreDirector {\r\n        require(items[_itemId].exists && items[_itemId].isApprovedByBoard, \"ItemsM: Mat hang khong ton tai hoac chua duoc BDH phe duyet\");\r\n        PhysicalLocationInfo memory storeInfo = physicalLocations[_storeAddress];\r\n        require(storeInfo.exists && storeInfo.isApprovedByBoard && keccak256(abi.encodePacked(storeInfo.locationType)) == keccak256(abi.encodePacked(\"STORE\")), \"ItemsM: Cua hang khong ton tai, chua duoc BDH phe duyet, hoac khong phai la cua hang\");\r\n        require(_price > 0, \"ItemsM: Gia le phai la so duong\");\r\n\r\n        storeItemRetailPrices[_storeAddress][_itemId] = _price;\r\n        emit RetailPriceSet(_storeAddress, _itemId, _price, msg.sender);\r\n    }\r\n\r\n    // --- VIEW FUNCTIONS ---\r\n    function getItemInfo(string calldata _itemId) external view returns (ItemInfo memory) {\r\n        return items[_itemId];\r\n    }\r\n\r\n    function getPhysicalLocationInfo(address _locationId) external view returns (PhysicalLocationInfo memory) {\r\n        return physicalLocations[_locationId];\r\n    }\r\n\r\n    function getStoreInfo(address _storeAddress) external view returns (PhysicalLocationInfo memory) {\r\n        PhysicalLocationInfo memory loc = physicalLocations[_storeAddress];\r\n        require(loc.exists && keccak256(abi.encodePacked(loc.locationType)) == keccak256(abi.encodePacked(\"STORE\")), \"ItemsM: Khong phai la cua hang\");\r\n        return loc;\r\n    }\r\n\r\n    function getWarehouseInfo(address _warehouseAddress) external view returns (PhysicalLocationInfo memory) {\r\n        PhysicalLocationInfo memory loc = physicalLocations[_warehouseAddress];\r\n        require(loc.exists && keccak256(abi.encodePacked(loc.locationType)) == keccak256(abi.encodePacked(\"WAREHOUSE\")), \"ItemsM: Khong phai la kho\");\r\n        return loc;\r\n    }\r\n\r\n    function getSupplierInfo(address _supplierId) external view returns (SupplierInfo memory) {\r\n        return suppliers[_supplierId];\r\n    }\r\n\r\n    function getSupplierItemDetails(address _supplierAddress, string calldata _itemId) external view returns (SupplierItemListing memory) {\r\n        return supplierItemListings[_supplierAddress][_itemId];\r\n    }\r\n\r\n    function getItemRetailPriceAtStore(string calldata _itemId, address _storeAddress) external view returns (uint256 price, bool priceExists) {\r\n        price = storeItemRetailPrices[_storeAddress][_itemId];\r\n        return (price, price > 0);\r\n    }\r\n\r\n    function getAllItemIds() external view returns (string[] memory) {\r\n        return itemIds;\r\n    }\r\n\r\n    function getAllLocationAddresses() external view returns (address[] memory) {\r\n        return locationAddresses;\r\n    }\r\n\r\n    function getAllSupplierAddresses() external view returns (address[] memory) {\r\n        return supplierAddresses;\r\n    }\r\n}",
  "sourcePath": "D:\\nhi\\Logtech\\New tech in Log\\dapp2\\SC\\contracts\\ItemsManagement.sol",
  "compiler": {
    "name": "solc",
    "version": "0.8.4+commit.c7e474f2.Emscripten.clang"
  },
  "schemaVersion": "3.4.16",
  "updatedAt": "2025-06-02T14:14:45.177Z",
  "devdoc": {
    "kind": "dev",
    "methods": {
      "getRoleAdmin(bytes32)": {
        "details": "Returns the admin role that controls `role`. See {grantRole} and {revokeRole}. To change a role's admin, use {_setRoleAdmin}."
      },
      "grantRole(bytes32,address)": {
        "details": "Grants `role` to `account`. If `account` had not been already granted `role`, emits a {RoleGranted} event. Requirements: - the caller must have ``role``'s admin role."
      },
      "hasRole(bytes32,address)": {
        "details": "Returns `true` if `account` has been granted `role`."
      },
      "renounceRole(bytes32,address)": {
        "details": "Revokes `role` from the calling account. Roles are often managed via {grantRole} and {revokeRole}: this function's purpose is to provide a mechanism for accounts to lose their privileges if they are compromised (such as when a trusted device is misplaced). If the calling account had been granted `role`, emits a {RoleRevoked} event. Requirements: - the caller must be `account`."
      },
      "revokeRole(bytes32,address)": {
        "details": "Revokes `role` from `account`. If `account` had been granted `role`, emits a {RoleRevoked} event. Requirements: - the caller must have ``role``'s admin role."
      },
      "supportsInterface(bytes4)": {
        "details": "See {IERC165-supportsInterface}."
      }
    },
    "version": 1
  },
  "userdoc": {
    "kind": "user",
    "methods": {},
    "version": 1
  }
}