{
  "contractName": "RoleManagement",
  "abi": [
    {
      "inputs": [],
      "stateMutability": "nonpayable",
      "type": "constructor"
    },
    {
      "anonymous": false,
      "inputs": [
        {
          "indexed": true,
          "internalType": "address",
          "name": "member",
          "type": "address"
        },
        {
          "indexed": false,
          "internalType": "uint256",
          "name": "shareCapitalContributed",
          "type": "uint256"
        }
      ],
      "name": "BoardMemberActivated",
      "type": "event"
    },
    {
      "anonymous": false,
      "inputs": [
        {
          "indexed": true,
          "internalType": "address",
          "name": "candidate",
          "type": "address"
        },
        {
          "indexed": false,
          "internalType": "uint256",
          "name": "shareCapitalProposed",
          "type": "uint256"
        }
      ],
      "name": "BoardMemberProposed",
      "type": "event"
    },
    {
      "anonymous": false,
      "inputs": [
        {
          "indexed": true,
          "internalType": "address",
          "name": "member",
          "type": "address"
        }
      ],
      "name": "BoardMemberRemoved",
      "type": "event"
    },
    {
      "anonymous": false,
      "inputs": [
        {
          "indexed": true,
          "internalType": "address",
          "name": "ctmAddress",
          "type": "address"
        }
      ],
      "name": "CompanyTreasuryManagerAddressSet",
      "type": "event"
    },
    {
      "anonymous": false,
      "inputs": [
        {
          "indexed": true,
          "internalType": "address",
          "name": "candidate",
          "type": "address"
        },
        {
          "indexed": false,
          "internalType": "uint256",
          "name": "shareCapitalProposed",
          "type": "uint256"
        }
      ],
      "name": "InitialBoardMemberProposedByAdmin",
      "type": "event"
    },
    {
      "anonymous": false,
      "inputs": [
        {
          "indexed": true,
          "internalType": "bytes32",
          "name": "role",
          "type": "bytes32"
        },
        {
          "indexed": true,
          "internalType": "bytes32",
          "name": "previousAdminRole",
          "type": "bytes32"
        },
        {
          "indexed": true,
          "internalType": "bytes32",
          "name": "newAdminRole",
          "type": "bytes32"
        }
      ],
      "name": "RoleAdminChanged",
      "type": "event"
    },
    {
      "anonymous": false,
      "inputs": [
        {
          "indexed": true,
          "internalType": "bytes32",
          "name": "role",
          "type": "bytes32"
        },
        {
          "indexed": true,
          "internalType": "address",
          "name": "account",
          "type": "address"
        },
        {
          "indexed": true,
          "internalType": "address",
          "name": "sender",
          "type": "address"
        }
      ],
      "name": "RoleGranted",
      "type": "event"
    },
    {
      "anonymous": false,
      "inputs": [
        {
          "indexed": true,
          "internalType": "bytes32",
          "name": "role",
          "type": "bytes32"
        },
        {
          "indexed": true,
          "internalType": "address",
          "name": "account",
          "type": "address"
        },
        {
          "indexed": true,
          "internalType": "address",
          "name": "sender",
          "type": "address"
        }
      ],
      "name": "RoleRevoked",
      "type": "event"
    },
    {
      "inputs": [],
      "name": "BOARD_ROLE",
      "outputs": [
        {
          "internalType": "bytes32",
          "name": "",
          "type": "bytes32"
        }
      ],
      "stateMutability": "view",
      "type": "function"
    },
    {
      "inputs": [],
      "name": "DEFAULT_ADMIN_ROLE",
      "outputs": [
        {
          "internalType": "bytes32",
          "name": "",
          "type": "bytes32"
        }
      ],
      "stateMutability": "view",
      "type": "function"
    },
    {
      "inputs": [],
      "name": "FINANCE_DIRECTOR_ROLE",
      "outputs": [
        {
          "internalType": "bytes32",
          "name": "",
          "type": "bytes32"
        }
      ],
      "stateMutability": "view",
      "type": "function"
    },
    {
      "inputs": [],
      "name": "MAX_INITIAL_MEMBERS",
      "outputs": [
        {
          "internalType": "uint8",
          "name": "",
          "type": "uint8"
        }
      ],
      "stateMutability": "view",
      "type": "function"
    },
    {
      "inputs": [],
      "name": "STORE_DIRECTOR_ROLE",
      "outputs": [
        {
          "internalType": "bytes32",
          "name": "",
          "type": "bytes32"
        }
      ],
      "stateMutability": "view",
      "type": "function"
    },
    {
      "inputs": [],
      "name": "STORE_MANAGER_ROLE",
      "outputs": [
        {
          "internalType": "bytes32",
          "name": "",
          "type": "bytes32"
        }
      ],
      "stateMutability": "view",
      "type": "function"
    },
    {
      "inputs": [],
      "name": "SUPPLIER_ROLE",
      "outputs": [
        {
          "internalType": "bytes32",
          "name": "",
          "type": "bytes32"
        }
      ],
      "stateMutability": "view",
      "type": "function"
    },
    {
      "inputs": [],
      "name": "WAREHOUSE_DIRECTOR_ROLE",
      "outputs": [
        {
          "internalType": "bytes32",
          "name": "",
          "type": "bytes32"
        }
      ],
      "stateMutability": "view",
      "type": "function"
    },
    {
      "inputs": [],
      "name": "WAREHOUSE_MANAGER_ROLE",
      "outputs": [
        {
          "internalType": "bytes32",
          "name": "",
          "type": "bytes32"
        }
      ],
      "stateMutability": "view",
      "type": "function"
    },
    {
      "inputs": [
        {
          "internalType": "uint256",
          "name": "",
          "type": "uint256"
        }
      ],
      "name": "boardAddresses",
      "outputs": [
        {
          "internalType": "address",
          "name": "",
          "type": "address"
        }
      ],
      "stateMutability": "view",
      "type": "function"
    },
    {
      "inputs": [
        {
          "internalType": "address",
          "name": "",
          "type": "address"
        }
      ],
      "name": "boardMembers",
      "outputs": [
        {
          "internalType": "uint256",
          "name": "shareCapitalProposed",
          "type": "uint256"
        },
        {
          "internalType": "uint256",
          "name": "shareCapitalContributed",
          "type": "uint256"
        },
        {
          "internalType": "enum RoleManagement.BoardMemberStatus",
          "name": "status",
          "type": "uint8"
        }
      ],
      "stateMutability": "view",
      "type": "function"
    },
    {
      "inputs": [],
      "name": "companyTreasuryManagerAddress",
      "outputs": [
        {
          "internalType": "address",
          "name": "",
          "type": "address"
        }
      ],
      "stateMutability": "view",
      "type": "function"
    },
    {
      "inputs": [
        {
          "internalType": "bytes32",
          "name": "role",
          "type": "bytes32"
        }
      ],
      "name": "getRoleAdmin",
      "outputs": [
        {
          "internalType": "bytes32",
          "name": "",
          "type": "bytes32"
        }
      ],
      "stateMutability": "view",
      "type": "function"
    },
    {
      "inputs": [
        {
          "internalType": "bytes32",
          "name": "role",
          "type": "bytes32"
        },
        {
          "internalType": "address",
          "name": "account",
          "type": "address"
        }
      ],
      "name": "grantRole",
      "outputs": [],
      "stateMutability": "nonpayable",
      "type": "function"
    },
    {
      "inputs": [
        {
          "internalType": "bytes32",
          "name": "role",
          "type": "bytes32"
        },
        {
          "internalType": "address",
          "name": "account",
          "type": "address"
        }
      ],
      "name": "hasRole",
      "outputs": [
        {
          "internalType": "bool",
          "name": "",
          "type": "bool"
        }
      ],
      "stateMutability": "view",
      "type": "function"
    },
    {
      "inputs": [],
      "name": "initialMembersAddedCount",
      "outputs": [
        {
          "internalType": "uint8",
          "name": "",
          "type": "uint8"
        }
      ],
      "stateMutability": "view",
      "type": "function"
    },
    {
      "inputs": [
        {
          "internalType": "bytes32",
          "name": "role",
          "type": "bytes32"
        },
        {
          "internalType": "address",
          "name": "account",
          "type": "address"
        }
      ],
      "name": "renounceRole",
      "outputs": [],
      "stateMutability": "nonpayable",
      "type": "function"
    },
    {
      "inputs": [
        {
          "internalType": "bytes32",
          "name": "role",
          "type": "bytes32"
        },
        {
          "internalType": "address",
          "name": "account",
          "type": "address"
        }
      ],
      "name": "revokeRole",
      "outputs": [],
      "stateMutability": "nonpayable",
      "type": "function"
    },
    {
      "inputs": [
        {
          "internalType": "bytes4",
          "name": "interfaceId",
          "type": "bytes4"
        }
      ],
      "name": "supportsInterface",
      "outputs": [
        {
          "internalType": "bool",
          "name": "",
          "type": "bool"
        }
      ],
      "stateMutability": "view",
      "type": "function"
    },
    {
      "inputs": [],
      "name": "totalCapital",
      "outputs": [
        {
          "internalType": "uint256",
          "name": "",
          "type": "uint256"
        }
      ],
      "stateMutability": "view",
      "type": "function"
    },
    {
      "inputs": [
        {
          "internalType": "address",
          "name": "_ctmAddress",
          "type": "address"
        }
      ],
      "name": "setCompanyTreasuryManagerAddress",
      "outputs": [],
      "stateMutability": "nonpayable",
      "type": "function"
    },
    {
      "inputs": [
        {
          "internalType": "address",
          "name": "account",
          "type": "address"
        }
      ],
      "name": "getSharesPercentage",
      "outputs": [
        {
          "internalType": "uint256",
          "name": "",
          "type": "uint256"
        }
      ],
      "stateMutability": "view",
      "type": "function"
    },
    {
      "inputs": [
        {
          "internalType": "address",
          "name": "_candidate",
          "type": "address"
        },
        {
          "internalType": "uint256",
          "name": "_shareCapitalProposed",
          "type": "uint256"
        }
      ],
      "name": "addInitialBoardMemberByAdmin",
      "outputs": [],
      "stateMutability": "nonpayable",
      "type": "function"
    },
    {
      "inputs": [
        {
          "internalType": "address",
          "name": "_candidate",
          "type": "address"
        },
        {
          "internalType": "uint256",
          "name": "_shareCapitalProposed",
          "type": "uint256"
        },
        {
          "internalType": "address[]",
          "name": "_approvers",
          "type": "address[]"
        }
      ],
      "name": "proposeBoardMember",
      "outputs": [],
      "stateMutability": "nonpayable",
      "type": "function"
    },
    {
      "inputs": [
        {
          "internalType": "address",
          "name": "_candidate",
          "type": "address"
        },
        {
          "internalType": "uint256",
          "name": "_contributedAmount",
          "type": "uint256"
        }
      ],
      "name": "activateBoardMemberByTreasury",
      "outputs": [],
      "stateMutability": "nonpayable",
      "type": "function"
    },
    {
      "inputs": [
        {
          "internalType": "address",
          "name": "_candidate",
          "type": "address"
        }
      ],
      "name": "getProposedShareCapital",
      "outputs": [
        {
          "internalType": "uint256",
          "name": "",
          "type": "uint256"
        }
      ],
      "stateMutability": "view",
      "type": "function"
    },
    {
      "inputs": [
        {
          "internalType": "address",
          "name": "_accountToRemove",
          "type": "address"
        },
        {
          "internalType": "address[]",
          "name": "_approvers",
          "type": "address[]"
        }
      ],
      "name": "removeBoardMember",
      "outputs": [],
      "stateMutability": "nonpayable",
      "type": "function"
    },
    {
      "inputs": [
        {
          "internalType": "bytes32",
          "name": "role",
          "type": "bytes32"
        },
        {
          "internalType": "address",
          "name": "account",
          "type": "address"
        },
        {
          "internalType": "address[]",
          "name": "approvers",
          "type": "address[]"
        }
      ],
      "name": "grantRoleByBoard",
      "outputs": [],
      "stateMutability": "nonpayable",
      "type": "function"
    },
    {
      "inputs": [
        {
          "internalType": "bytes32",
          "name": "role",
          "type": "bytes32"
        },
        {
          "internalType": "address",
          "name": "account",
          "type": "address"
        },
        {
          "internalType": "address[]",
          "name": "approvers",
          "type": "address[]"
        }
      ],
      "name": "revokeRoleByBoard",
      "outputs": [],
      "stateMutability": "nonpayable",
      "type": "function"
    },
    {
      "inputs": [
        {
          "internalType": "address",
          "name": "account",
          "type": "address"
        }
      ],
      "name": "grantWarehouseManager",
      "outputs": [],
      "stateMutability": "nonpayable",
      "type": "function"
    },
    {
      "inputs": [
        {
          "internalType": "address",
          "name": "account",
          "type": "address"
        }
      ],
      "name": "revokeWarehouseManager",
      "outputs": [],
      "stateMutability": "nonpayable",
      "type": "function"
    },
    {
      "inputs": [
        {
          "internalType": "address",
          "name": "account",
          "type": "address"
        }
      ],
      "name": "grantStoreManager",
      "outputs": [],
      "stateMutability": "nonpayable",
      "type": "function"
    },
    {
      "inputs": [
        {
          "internalType": "address",
          "name": "account",
          "type": "address"
        }
      ],
      "name": "revokeStoreManager",
      "outputs": [],
      "stateMutability": "nonpayable",
      "type": "function"
    },
    {
      "inputs": [],
      "name": "getBoardMembers",
      "outputs": [
        {
          "internalType": "address[]",
          "name": "",
          "type": "address[]"
        }
      ],
      "stateMutability": "view",
      "type": "function"
    },
    {
      "inputs": [
        {
          "internalType": "address",
          "name": "member",
          "type": "address"
        }
      ],
      "name": "getBoardMemberInfo",
      "outputs": [
        {
          "components": [
            {
              "internalType": "uint256",
              "name": "shareCapitalProposed",
              "type": "uint256"
            },
            {
              "internalType": "uint256",
              "name": "shareCapitalContributed",
              "type": "uint256"
            },
            {
              "internalType": "enum RoleManagement.BoardMemberStatus",
              "name": "status",
              "type": "uint8"
            }
          ],
          "internalType": "struct RoleManagement.BoardMember",
          "name": "",
          "type": "tuple"
        }
      ],
      "stateMutability": "view",
      "type": "function"
    },
    {
      "inputs": [],
      "name": "BOARD_ROLE_ID",
      "outputs": [
        {
          "internalType": "bytes32",
          "name": "",
          "type": "bytes32"
        }
      ],
      "stateMutability": "pure",
      "type": "function"
    },
    {
      "inputs": [],
      "name": "WAREHOUSE_DIRECTOR_ROLE_ID",
      "outputs": [
        {
          "internalType": "bytes32",
          "name": "",
          "type": "bytes32"
        }
      ],
      "stateMutability": "pure",
      "type": "function"
    },
    {
      "inputs": [],
      "name": "STORE_DIRECTOR_ROLE_ID",
      "outputs": [
        {
          "internalType": "bytes32",
          "name": "",
          "type": "bytes32"
        }
      ],
      "stateMutability": "pure",
      "type": "function"
    },
    {
      "inputs": [],
      "name": "FINANCE_DIRECTOR_ROLE_ID",
      "outputs": [
        {
          "internalType": "bytes32",
          "name": "",
          "type": "bytes32"
        }
      ],
      "stateMutability": "pure",
      "type": "function"
    },
    {
      "inputs": [],
      "name": "WAREHOUSE_MANAGER_ROLE_ID",
      "outputs": [
        {
          "internalType": "bytes32",
          "name": "",
          "type": "bytes32"
        }
      ],
      "stateMutability": "pure",
      "type": "function"
    },
    {
      "inputs": [],
      "name": "STORE_MANAGER_ROLE_ID",
      "outputs": [
        {
          "internalType": "bytes32",
          "name": "",
          "type": "bytes32"
        }
      ],
      "stateMutability": "pure",
      "type": "function"
    },
    {
      "inputs": [],
      "name": "SUPPLIER_ROLE_ID",
      "outputs": [
        {
          "internalType": "bytes32",
          "name": "",
          "type": "bytes32"
        }
      ],
      "stateMutability": "pure",
      "type": "function"
    },
    {
      "inputs": [],
      "name": "DEFAULT_ADMIN_ROLE_ID",
      "outputs": [
        {
          "internalType": "bytes32",
          "name": "",
          "type": "bytes32"
        }
      ],
      "stateMutability": "pure",
      "type": "function"
    }
  ],
  "bytecode": "0x60806040523480156200001157600080fd5b506200001f60003362000154565b33678ac7230489e8000081620000525760405162461bcd60e51b8152600401620000499062000594565b60405180910390fd5b6001600160a01b038216600081815260016020819052604082208481558082018590556002808201805460ff191682179055805492830181559092527f405787fa12a823e0f2b7631cc41b3ba8828b3321ca811111fa75cd3aa3bb5ace0180546001600160a01b031916909217909155620000ee7f0182a37f4cfe4a11c9cc13af6a96350bc084bedfd41df0928670dbabcfe3aea18462000164565b60038290556004805460ff60a01b1916600160a01b1790556040516001600160a01b038416907fed4124503cbccb17ea26c625be47636abac278557bbb45442c60820f6b9dda4a9062000143908590620005dd565b60405180910390a250505062000686565b62000160828262000195565b5050565b6200016f826200021f565b62000184816200017e62000234565b62000238565b62000190838362000195565b505050565b620001a18282620002bb565b62000160576000828152602081815260408083206001600160a01b03851684529091529020805460ff19166001179055620001db62000234565b6001600160a01b0316816001600160a01b0316837f2f8788117e7eff1d82e926ec794901d17c78024a50270940304540a733656f0d60405160405180910390a45050565b60009081526020819052604090206001015490565b3390565b620002448282620002bb565b62000160576200026a816001600160a01b03166014620002e460201b6200190b1760201c565b620002808360206200190b620002e4821b17811c565b60405160200162000293929190620004b1565b60408051601f198184030181529082905262461bcd60e51b825262000049916004016200052a565b6000918252602082815260408084206001600160a01b0393909316845291905290205460ff1690565b60606000620002f583600262000601565b62000302906002620005e6565b6001600160401b038111156200032857634e487b7160e01b600052604160045260246000fd5b6040519080825280601f01601f19166020018201604052801562000353576020820181803683370190505b509050600360fc1b816000815181106200037d57634e487b7160e01b600052603260045260246000fd5b60200101906001600160f81b031916908160001a905350600f60fb1b81600181518110620003bb57634e487b7160e01b600052603260045260246000fd5b60200101906001600160f81b031916908160001a9053506000620003e184600262000601565b620003ee906001620005e6565b90505b600181111562000488576f181899199a1a9b1b9c1cb0b131b232b360811b85600f16601081106200043257634e487b7160e01b600052603260045260246000fd5b1a60f81b8282815181106200045757634e487b7160e01b600052603260045260246000fd5b60200101906001600160f81b031916908160001a90535060049490941c93620004808162000656565b9050620003f1565b508315620004aa5760405162461bcd60e51b815260040162000049906200055f565b9392505050565b60007f416363657373436f6e74726f6c3a206163636f756e742000000000000000000082528351620004eb81601785016020880162000623565b7001034b99036b4b9b9b4b733903937b6329607d1b60179184019182015283516200051e81602884016020880162000623565b01602801949350505050565b60006020825282518060208401526200054b81604085016020870162000623565b601f01601f19169190910160400192915050565b6020808252818101527f537472696e67733a20686578206c656e67746820696e73756666696369656e74604082015260600190565b60208082526029908201527f524d3a2044696120636869206e67756f6920747269656e206b686169206b686f6040820152686e6720686f70206c6560b81b606082015260800190565b90815260200190565b60008219821115620005fc57620005fc62000670565b500190565b60008160001904831182151516156200061e576200061e62000670565b500290565b60005b838110156200064057818101518382015260200162000626565b8381111562000650576000848401525b50505050565b60008162000668576200066862000670565b506000190190565b634e487b7160e01b600052601160045260246000fd5b612c9d80620006966000396000f3fe608060405234801561001057600080fd5b50600436106101f95760003560e01c806301ffc9a7146101fe57806305936a741461022757806305b11d371461023c578063171bfd03146102515780631f10779814610266578063248a9ca31461026e57806326c527431461028157806327f0934f14610294578063294059ba1461029c5780632f2ff15d146102af57806336568abe146102c2578063383032ea146102d5578063385c6dc2146102dd5780633fb94983146102e55780634bbc8587146102f85780636250e0561461030057806366f1114f14610308578063735d94db14610328578063752a7c86146103485780637849a5d01461035b578063800ac75f1461036e578063821c3a141461038157806387116bb6146103895780638b94a8e214610391578063912410051461039957806391d14854146103ac5780639a8d3cde146103bf578063a217fddf146103c7578063a29508fc146103cf578063a64f6300146103d7578063ad4ed497146103df578063ae1be5c8146103e7578063b664c586146103ef578063be9d3db314610402578063bff1378514610415578063d547741f14610437578063ddf62a641461044a578063de131bec14610452578063e3fcbac11461045a578063edd4ea9a1461046d578063f2babe2814610482578063f83ea09f1461048a578063fc0dabb11461049d575b600080fd5b61021161020c366004611fd8565b6104b0565b60405161021e91906120f2565b60405180910390f35b61023a610235366004611e75565b6104dd565b005b610244610535565b60405161021e91906120fd565b610259610547565b60405161021e9190612a41565b61024461054c565b61024461027c366004611f57565b61055e565b61023a61028f366004611f9a565b610573565b610244610758565b61023a6102aa366004611e8f565b61076a565b61023a6102bd366004611f6f565b610b46565b61023a6102d0366004611f6f565b610b6f565b610244610bb5565b610259610bbb565b61023a6102f3366004611f03565b610bcb565b610244610e32565b610244610e44565b61031b610316366004611e75565b610e56565b60405161021e91906129f6565b61033b610336366004611f57565b610ee8565b60405161021e9190612091565b61023a610356366004611e75565b610f12565b61023a610369366004611f9a565b610f5e565b61023a61037c366004611e75565b61113d565b61033b611189565b610244611198565b6102446111aa565b61023a6103a7366004611e75565b6111bc565b6102116103ba366004611f6f565b611208565b610244611231565b610244611236565b61024461123b565b61024461124d565b61024461125f565b610244611271565b61023a6103fd366004611eda565b611283565b610244610410366004611e75565b611406565b610428610423366004611e75565b61150e565b60405161021e93929190612a1e565b61023a610445366004611f6f565b611531565b610244611550565b610244611562565b610244610468366004611e75565b611574565b610475611606565b60405161021e91906120a5565b610244611668565b61023a610498366004611eda565b61167a565b61023a6104ab366004611e75565b611874565b60006001600160e01b03198216637965db0b60e01b14806104d557506104d582611ac3565b90505b919050565b6104f5600080516020612c0883398151915233611208565b61051a5760405162461bcd60e51b8152600401610511906126c6565b60405180910390fd5b610532600080516020612ba883398151915282611531565b50565b600080516020612b8883398151915281565b600381565b600080516020612ba883398151915281565b60009081526020819052604090206001015490565b60023360009081526001602052604090206002015460ff1660038111156105aa57634e487b7160e01b600052602160045260246000fd5b1480156105ca57506105ca600080516020612b8883398151915233611208565b6105e65760405162461bcd60e51b8152600401610511906127dd565b600080516020612bc883398151915283148061060f5750600080516020612c0883398151915283145b806106275750600080516020612be883398151915283145b8061063f5750600080516020612c2883398151915283145b61065b5760405162461bcd60e51b81526004016105119061267b565b6001600160a01b0382166106815760405162461bcd60e51b8152600401610511906124c3565b60008151116106a25760405162461bcd60e51b81526004016105119061235a565b60005b815181101561071957336001600160a01b03168282815181106106d857634e487b7160e01b600052603260045260246000fd5b60200260200101516001600160a01b031614156107075760405162461bcd60e51b815260040161051190612301565b8061071181612b00565b9150506106a5565b50600061072582611adc565b905061138881116107485760405162461bcd60e51b8152600401610511906129bf565b6107528484611531565b50505050565b600080516020612b8883398151915290565b60023360009081526001602052604090206002015460ff1660038111156107a157634e487b7160e01b600052602160045260246000fd5b1480156107c157506107c1600080516020612b8883398151915233611208565b6107dd5760405162461bcd60e51b8152600401610511906127dd565b60026001600160a01b03831660009081526001602052604090206002015460ff16600381111561081d57634e487b7160e01b600052602160045260246000fd5b1461083a5760405162461bcd60e51b8152600401610511906124f7565b600081511161085b5760405162461bcd60e51b81526004016105119061248e565b60005b815181101561092b57336001600160a01b031682828151811061089157634e487b7160e01b600052603260045260246000fd5b60200260200101516001600160a01b031614156108c05760405162461bcd60e51b81526004016105119061216e565b826001600160a01b03168282815181106108ea57634e487b7160e01b600052603260045260246000fd5b60200260200101516001600160a01b031614156109195760405162461bcd60e51b8152600401610511906126fd565b8061092381612b00565b91505061085e565b50600061093782611adc565b9050611388811161095a5760405162461bcd60e51b81526004016105119061259e565b6001600160a01b0383166000908152600160208190526040822001546003805491929091610989908490612aa6565b909155506109a79050600080516020612b8883398151915284611531565b6001600160a01b0383166000908152600160205260408120600201805460ff191660031790555b600254811015610b0c57836001600160a01b031660028281548110610a0357634e487b7160e01b600052603260045260246000fd5b6000918252602090912001546001600160a01b03161415610afa5760028054610a2e90600190612aa6565b81548110610a4c57634e487b7160e01b600052603260045260246000fd5b600091825260209091200154600280546001600160a01b039092169183908110610a8657634e487b7160e01b600052603260045260246000fd5b9060005260206000200160006101000a8154816001600160a01b0302191690836001600160a01b031602179055506002805480610ad357634e487b7160e01b600052603160045260246000fd5b600082815260209020810160001990810180546001600160a01b0319169055019055610b0c565b80610b0481612b00565b9150506109ce565b506040516001600160a01b038416907f5059b541f12100245fc1e0afc5a897e4f2b2ac151e48752188c24421eeb9750b90600090a2505050565b610b4f8261055e565b610b6081610b5b611c11565b611c15565b610b6a8383611c79565b505050565b610b77611c11565b6001600160a01b0316816001600160a01b031614610ba75760405162461bcd60e51b815260040161051190612970565b610bb18282611cfe565b5050565b60035481565b600454600160a01b900460ff1681565b60023360009081526001602052604090206002015460ff166003811115610c0257634e487b7160e01b600052602160045260246000fd5b148015610c225750610c22600080516020612b8883398151915233611208565b610c3e5760405162461bcd60e51b8152600401610511906127dd565b6004546003600160a01b90910460ff161015610c6c5760405162461bcd60e51b815260040161051190612296565b6001600160a01b038316610c925760405162461bcd60e51b81526004016105119061263a565b6001600160a01b038316600090815260016020526040812090600282015460ff166003811115610cd257634e487b7160e01b600052602160045260246000fd5b14610cef5760405162461bcd60e51b815260040161051190612919565b60008311610d0f5760405162461bcd60e51b81526004016105119061244c565b6000825111610d305760405162461bcd60e51b815260040161051190612827565b60005b8251811015610da757336001600160a01b0316838281518110610d6657634e487b7160e01b600052603260045260246000fd5b60200260200101516001600160a01b03161415610d955760405162461bcd60e51b81526004016105119061287f565b80610d9f81612b00565b915050610d33565b506000610db383611adc565b90506113888111610dd65760405162461bcd60e51b81526004016105119061238b565b83825560028201805460ff191660011790556040516001600160a01b038616907f057b33cd829daf4c6abec68bb31f2afeeb2836f3ca471b6bb489889ce0f5541490610e239087906120fd565b60405180910390a25050505050565b600080516020612bc883398151915290565b600080516020612c4883398151915281565b610e5e611d81565b6001600160a01b03821660009081526001602081815260409283902083516060810185528154815292810154918301919091526002810154919290919083019060ff166003811115610ec057634e487b7160e01b600052602160045260246000fd5b6003811115610edf57634e487b7160e01b600052602160045260246000fd5b90525092915050565b60028181548110610ef857600080fd5b6000918252602090912001546001600160a01b0316905081565b610f2a600080516020612bc883398151915233611208565b610f465760405162461bcd60e51b8152600401610511906123c9565b610532600080516020612c4883398151915282610b46565b60023360009081526001602052604090206002015460ff166003811115610f9557634e487b7160e01b600052602160045260246000fd5b148015610fb55750610fb5600080516020612b8883398151915233611208565b610fd15760405162461bcd60e51b8152600401610511906127dd565b600080516020612bc8833981519152831480610ffa5750600080516020612c0883398151915283145b806110125750600080516020612be883398151915283145b8061102a5750600080516020612c2883398151915283145b6110465760405162461bcd60e51b81526004016105119061267b565b6001600160a01b03821661106c5760405162461bcd60e51b8152600401610511906124c3565b600081511161108d5760405162461bcd60e51b81526004016105119061235a565b60005b815181101561110457336001600160a01b03168282815181106110c357634e487b7160e01b600052603260045260246000fd5b60200260200101516001600160a01b031614156110f25760405162461bcd60e51b8152600401610511906121bb565b806110fc81612b00565b915050611090565b50600061111082611adc565b905061138881116111335760405162461bcd60e51b8152600401610511906129bf565b6107528484610b46565b611155600080516020612c0883398151915233611208565b6111715760405162461bcd60e51b8152600401610511906126c6565b610532600080516020612ba883398151915282610b46565b6004546001600160a01b031681565b600080516020612be883398151915290565b600080516020612be883398151915281565b6111d4600080516020612bc883398151915233611208565b6111f05760405162461bcd60e51b8152600401610511906123c9565b610532600080516020612c4883398151915282611531565b6000918252602082815260408084206001600160a01b0393909316845291905290205460ff1690565b600090565b600081565b600080516020612c2883398151915281565b600080516020612c0883398151915290565b600080516020612bc883398151915281565b600080516020612c0883398151915281565b61128e600033611208565b6112aa5760405162461bcd60e51b8152600401610511906128e8565b6004546003600160a01b90910460ff16106112d75760405162461bcd60e51b8152600401610511906123fb565b6001600160a01b0382166112fd5760405162461bcd60e51b81526004016105119061263a565b6001600160a01b038216600090815260016020526040812090600282015460ff16600381111561133d57634e487b7160e01b600052602160045260246000fd5b1461135a5760405162461bcd60e51b815260040161051190612919565b6000821161137a5760405162461bcd60e51b81526004016105119061244c565b81815560028101805460ff191660011790556004805460ff600160a01b909104169060146113a783612b1b565b91906101000a81548160ff021916908360ff16021790555050826001600160a01b03167f4bead8e8f83a9bd5711f341b054c96c4448cb1a697860e7d59de17724d964033836040516113f991906120fd565b60405180910390a2505050565b6004546000906001600160a01b03163314806114285750611428600033611208565b80611485575060023360009081526001602052604090206002015460ff16600381111561146557634e487b7160e01b600052602160045260246000fd5b1480156114855750611485600080516020612b8883398151915233611208565b6114a15760405162461bcd60e51b815260040161051190612245565b60016001600160a01b03831660009081526001602052604090206002015460ff1660038111156114e157634e487b7160e01b600052602160045260246000fd5b141561150657506001600160a01b0381166000908152600160205260409020546104d8565b506000919050565b600160208190526000918252604090912080549181015460029091015460ff1683565b61153a8261055e565b61154681610b5b611c11565b610b6a8383611cfe565b600080516020612ba883398151915290565b600080516020612c2883398151915290565b600060026001600160a01b03831660009081526001602052604090206002015460ff1660038111156115b657634e487b7160e01b600052602160045260246000fd5b1415806115c35750600354155b156115d0575060006104d8565b6003546001600160a01b038316600090815260016020819052604090912001546115fc90612710612a87565b6104d59190612a67565b6060600280548060200260200160405190810160405280929190818152602001828054801561165e57602002820191906000526020600020905b81546001600160a01b03168152600190910190602001808311611640575b5050505050905090565b600080516020612c4883398151915290565b6004546001600160a01b031633146116a45760405162461bcd60e51b815260040161051190612210565b6001600160a01b038216600090815260016020819052604090912090600282015460ff1660038111156116e757634e487b7160e01b600052602160045260246000fd5b146117045760405162461bcd60e51b815260040161051190612552565b805482146117245760405162461bcd60e51b81526004016105119061278f565b6002818101805460ff19169091179055600181018290556000805b6002548110156117aa57846001600160a01b03166002828154811061177457634e487b7160e01b600052603260045260246000fd5b6000918252602090912001546001600160a01b0316141561179857600191506117aa565b806117a281612b00565b91505061173f565b50806117fc57600280546001810182556000919091527f405787fa12a823e0f2b7631cc41b3ba8828b3321ca811111fa75cd3aa3bb5ace0180546001600160a01b0319166001600160a01b0386161790555b611814600080516020612b8883398151915285610b46565b82600360008282546118269190612a4f565b92505081905550836001600160a01b03167fed4124503cbccb17ea26c625be47636abac278557bbb45442c60820f6b9dda4a8460405161186691906120fd565b60405180910390a250505050565b61187f600033611208565b61189b5760405162461bcd60e51b8152600401610511906128e8565b6001600160a01b0381166118c15760405162461bcd60e51b815260040161051190612759565b600480546001600160a01b0319166001600160a01b0383169081179091556040517f2420d7da1ad6c0ecc0c86e32b26e9a939959873f39778c4a2243f2ffcb7c644590600090a250565b6060600061191a836002612a87565b611925906002612a4f565b6001600160401b0381111561194a57634e487b7160e01b600052604160045260246000fd5b6040519080825280601f01601f191660200182016040528015611974576020820181803683370190505b509050600360fc1b8160008151811061199d57634e487b7160e01b600052603260045260246000fd5b60200101906001600160f81b031916908160001a905350600f60fb1b816001815181106119da57634e487b7160e01b600052603260045260246000fd5b60200101906001600160f81b031916908160001a90535060006119fe846002612a87565b611a09906001612a4f565b90505b6001811115611a9d576f181899199a1a9b1b9c1cb0b131b232b360811b85600f1660108110611a4b57634e487b7160e01b600052603260045260246000fd5b1a60f81b828281518110611a6f57634e487b7160e01b600052603260045260246000fd5b60200101906001600160f81b031916908160001a90535060049490941c93611a9681612ae9565b9050611a0c565b508315611abc5760405162461bcd60e51b815260040161051190612139565b9392505050565b6001600160e01b031981166301ffc9a760e01b14919050565b600080805b8351811015611c0a57600260016000868481518110611b1057634e487b7160e01b600052603260045260246000fd5b6020908102919091018101516001600160a01b031682528101919091526040016000206002015460ff166003811115611b5957634e487b7160e01b600052602160045260246000fd5b148015611ba05750611ba0600080516020612b88833981519152858381518110611b9357634e487b7160e01b600052603260045260246000fd5b6020026020010151611208565b611bbc5760405162461bcd60e51b8152600401610511906125dd565b611bec848281518110611bdf57634e487b7160e01b600052603260045260246000fd5b6020026020010151611574565b611bf69083612a4f565b915080611c0281612b00565b915050611ae1565b5092915050565b3390565b611c1f8282611208565b610bb157611c37816001600160a01b0316601461190b565b611c4283602061190b565b604051602001611c53929190612022565b60408051601f198184030181529082905262461bcd60e51b825261051191600401612106565b611c838282611208565b610bb1576000828152602081815260408083206001600160a01b03851684529091529020805460ff19166001179055611cba611c11565b6001600160a01b0316816001600160a01b0316837f2f8788117e7eff1d82e926ec794901d17c78024a50270940304540a733656f0d60405160405180910390a45050565b611d088282611208565b15610bb1576000828152602081815260408083206001600160a01b03851684529091529020805460ff19169055611d3d611c11565b6001600160a01b0316816001600160a01b0316837ff6391f5c32d9c69d2a47ea670b442974b53935d1edc7fd64eb21e047a839171b60405160405180910390a45050565b6040518060600160405280600081526020016000815260200160006003811115611dbb57634e487b7160e01b600052602160045260246000fd5b905290565b80356001600160a01b03811681146104d857600080fd5b600082601f830112611de7578081fd5b813560206001600160401b0380831115611e0357611e03612b51565b81830260405183828201018181108482111715611e2257611e22612b51565b60405284815283810192508684018288018501891015611e40578687fd5b8692505b85831015611e6957611e5581611dc0565b845292840192600192909201918401611e44565b50979650505050505050565b600060208284031215611e86578081fd5b611abc82611dc0565b60008060408385031215611ea1578081fd5b611eaa83611dc0565b915060208301356001600160401b03811115611ec4578182fd5b611ed085828601611dd7565b9150509250929050565b60008060408385031215611eec578182fd5b611ef583611dc0565b946020939093013593505050565b600080600060608486031215611f17578081fd5b611f2084611dc0565b92506020840135915060408401356001600160401b03811115611f41578182fd5b611f4d86828701611dd7565b9150509250925092565b600060208284031215611f68578081fd5b5035919050565b60008060408385031215611f81578182fd5b82359150611f9160208401611dc0565b90509250929050565b600080600060608486031215611fae578283fd5b83359250611fbe60208501611dc0565b915060408401356001600160401b03811115611f41578182fd5b600060208284031215611fe9578081fd5b81356001600160e01b031981168114611abc578182fd5b6004811061201e57634e487b7160e01b600052602160045260246000fd5b9052565b600076020b1b1b2b9b9a1b7b73a3937b61d1030b1b1b7bab73a1604d1b82528351612054816017850160208801612abd565b7001034b99036b4b9b9b4b733903937b6329607d1b6017918401918201528351612085816028840160208801612abd565b01602801949350505050565b6001600160a01b0391909116815260200190565b6020808252825182820181905260009190848201906040850190845b818110156120e65783516001600160a01b0316835292840192918401916001016120c1565b50909695505050505050565b901515815260200190565b90815260200190565b6000602082528251806020840152612125816040850160208701612abd565b601f01601f19169190910160400192915050565b6020808252818101527f537472696e67733a20686578206c656e67746820696e73756666696369656e74604082015260600190565b6020808252602d908201527f524d3a204e67756f69206465207875617420786f61206b686f6e672064756f6360408201526c081d1d481c1a1948191d5e595d609a1b606082015260800190565b60208082526035908201527f524d3a204e67756f69206465207875617420636170207661692074726f206b686040820152741bdb99c8191d5bd8c81d1d481c1a1948191d5e595d605a1b606082015260800190565b6020808252818101527f524d3a204368692043544d206d6f692064756f6320676f692068616d206e6179604082015260600190565b60208082526031908201527f524d3a204b686f6e6720636f20717579656e2074727579206361702074686f6e60408201527019c81d1a5b881d9bdb881919481e1d585d607a1b606082015260800190565b60208082526045908201527f524d3a20517579207472696e6820626f6f747374726170206368756120686f6160408201527f6e2074617420686f6163206461206475207468616e68207669656e20626f6f74606082015264073747261760dc1b608082015260a00190565b60208082526039908201527f524d3a204e67756f6920646520787561742074687520686f69207661692074726040820152781bc81ada1bdb99c8191d5bd8c81d1d481c1a1948191d5e595d603a1b606082015260800190565b60208082526017908201527614934e8810d85b881b99dd5bda481c1a1948191d5e595d604a1b604082015260600190565b6020808252603090820152600080516020612b6883398151915260408201526f1a1948191d5e595d081919481e1d585d60821b606082015260800190565b6020808252601890820152770524d3a20436869204744204b686f2064756f6320706865760441b604082015260600190565b60208082526031908201527f524d3a2044612064617420736f206c756f6e67207468616e68207669656e204260408201527044482062616e2064617520746f6920646160781b606082015260800190565b60208082526022908201527f524d3a20566f6e20676f7020646520787561742070686169206c6f6e20686f6e604082015261020360f41b606082015260800190565b6020808252818101527f524d3a2043616e206e67756f6920706865206475796574207669656320786f61604082015260600190565b6020808252601a9082015279524d3a20546169206b686f616e206b686f6e6720686f70206c6560301b604082015260600190565b6020808252603b908201527f524d3a20546169206b686f616e206b686f6e672070686169206c61207468616e60408201527a68207669656e2042444820686f617420646f6e6720646520786f6160281b606082015260800190565b6020808252602c908201527f524d3a20556e67207669656e206b686f6e67206f207472616e6720746861692060408201526b31b437903c30b190373430b760a11b606082015260800190565b6020808252603190820152600080516020612b688339815191526040820152706865206475796574207669656320786f6160781b606082015260800190565b6020808252603e908201527f524d3a204e67756f6920706865206475796574206b686f6e672070686169207460408201527f68616e68207669656e2042444820686f617420646f6e6720686f70206c650000606082015260800190565b60208082526021908201527f524d3a204469612063686920756e67207669656e206b686f6e6720686f70206c6040820152606560f81b606082015260800190565b6020808252602b908201527f524d3a205661692074726f206b686f6e6720686f70206c65206465204244482060408201526a6361702f74687520686f6960a81b606082015260800190565b6020808252601d908201527f524d3a20436869204744204375612068616e672064756f632070686570000000604082015260600190565b6020808252603c908201527f524d3a20546169206b686f616e20626920786f61206b686f6e6720746865207060408201527b0d0ca40c8eaf2cae840ecd2cac640f0dec240c6d0d2dcd040dad2dcd60231b606082015260800190565b6020808252601c908201527b524d3a20446961206368692043544d206b686f6e6720686f70206c6560201b604082015260600190565b6020808252602e908201527f524d3a20536f207469656e2043544d2062616f2063616f206b686f6e67206b6860408201526d1bdc081d9bda481919481e1d585d60921b606082015260800190565b6020808252602a908201527f524d3a20436869207468616e68207669656e2042444820686f617420646f6e6760408201526902064756f6320706865760b41b606082015260800190565b60208082526038908201527f524d3a2043616e206974206e686174206d6f74206e67756f692070686520647560408201527779657420286b686163206e67756f6920646520787561742960401b606082015260800190565b60208082526043908201527f524d3a204e67756f692064652078756174206b686f6e672064756f632074752060408201527f7068652064757965742074726f6e672064616e68207361636820617070726f7660608201526265727360e81b608082015260a00190565b6020808252601790820152760524d3a204368692041646d696e2064756f63207068657604c1b604082015260600190565b60208082526037908201527f524d3a20556e67207669656e20646120746f6e2074616920686f61632064616e604082015276672074726f6e6720717561207472696e68207875206c7960481b606082015260800190565b6020808252602f908201527f416363657373436f6e74726f6c3a2063616e206f6e6c792072656e6f756e636560408201526e103937b632b9903337b91039b2b63360891b606082015260800190565b6020808252601e908201527f524d3a204b686f6e6720647520636f207068616e207068652064757965740000604082015260600190565b600060608201905082518252602083015160208301526040830151611c0a6040840182612000565b8381526020810183905260608101612a396040830184612000565b949350505050565b60ff91909116815260200190565b60008219821115612a6257612a62612b3b565b500190565b600082612a8257634e487b7160e01b81526012600452602481fd5b500490565b6000816000190483118215151615612aa157612aa1612b3b565b500290565b600082821015612ab857612ab8612b3b565b500390565b60005b83811015612ad8578181015183820152602001612ac0565b838111156107525750506000910152565b600081612af857612af8612b3b565b506000190190565b6000600019821415612b1457612b14612b3b565b5060010190565b600060ff821660ff811415612b3257612b32612b3b565b60010192915050565b634e487b7160e01b600052601160045260246000fd5b634e487b7160e01b600052604160045260246000fdfe524d3a204b686f6e67206475207479206c6520636f207068616e2042444820700182a37f4cfe4a11c9cc13af6a96350bc084bedfd41df0928670dbabcfe3aea103ce45385a6da0f9c94bd522d1e76071af055dd49cf9bcd2dd1979a114f03543d283d0fb22ee0804ca51c2a4749bdad99cfb7b348bd92a8833753d542c46c50f42340fd1b40523657f7374ab2d72653f7ae00df11e5da261a68abd1d0f0aad153e9ee691b81ce40c5a04b318fa7b05d5216de50b16764207a4ac8753362d20bcd1ae8bbdabd60d63e418b84f5ad6f9cba90092c9816d7724d85f0d4e4bea2c607a27847106d9de274bc7cc402b56b28792b17910251f705d7490179d093a8c33a26469706673582212208466801f801b316c2c58dc11f56a4ee9e0cf32f81647017d6471f159b3e8a3c164736f6c63430008000033",
  "immutableReferences": {},
  "source": "// SPDX-License-Identifier: MIT\r\npragma solidity ^0.8.0;\r\n\r\nimport \"@openzeppelin/contracts/access/AccessControl.sol\";\r\n\r\ncontract RoleManagement is AccessControl {\r\n    bytes32 public constant BOARD_ROLE = keccak256(\"BOARD_ROLE\");\r\n    bytes32 public constant WAREHOUSE_DIRECTOR_ROLE = keccak256(\"WAREHOUSE_DIRECTOR_ROLE\");\r\n    bytes32 public constant STORE_DIRECTOR_ROLE = keccak256(\"STORE_DIRECTOR_ROLE\");\r\n    bytes32 public constant FINANCE_DIRECTOR_ROLE = keccak256(\"FINANCE_DIRECTOR_ROLE\");\r\n    bytes32 public constant WAREHOUSE_MANAGER_ROLE = keccak256(\"WAREHOUSE_MANAGER_ROLE\");\r\n    bytes32 public constant STORE_MANAGER_ROLE = keccak256(\"STORE_MANAGER_ROLE\");\r\n    bytes32 public constant SUPPLIER_ROLE = keccak256(\"SUPPLIER_ROLE\");\r\n\r\n    enum BoardMemberStatus {\r\n        None,               // Cha c trng thi\r\n        PendingConfirmation,//  c BH hin ti ph duyt s b, ch ng vin xc nhn v gp vn\r\n        Active,             // Thnh vin BH chnh thc\r\n        Removed             //  b loi b\r\n    }\r\n\r\n    struct BoardMember {\r\n        uint256 shareCapitalProposed;   // Vn gp c  xut/quy c khi  trng thi PendingConfirmation\r\n        uint256 shareCapitalContributed;// Vn thc t  gp khi tr thnh Active\r\n        BoardMemberStatus status;       // Trng thi ca thnh vin/ng vin\r\n    }\r\n\r\n    mapping(address => BoardMember) public boardMembers;\r\n    address[] public boardAddresses; // Ch lu cc thnh vin Active\r\n    uint256 public totalCapital;    // Tng vn gp ca cc thnh vin Active\r\n\r\n    address public companyTreasuryManagerAddress; // a ch CTM  ch CTM mi c gi hm kch hot\r\n\r\n    uint8 public initialMembersAddedCount; // m s thnh vin BH ban u  c thm qua c ch bootstrap\r\n    uint8 public constant MAX_INITIAL_MEMBERS = 3; // S lng thnh vin bootstrap ti a\r\n\r\n    event BoardMemberProposed(address indexed candidate, uint256 shareCapitalProposed); //  xut thng thng\r\n    event InitialBoardMemberProposedByAdmin(address indexed candidate, uint256 shareCapitalProposed); //  xut trong giai on bootstrap\r\n    event BoardMemberActivated(address indexed member, uint256 shareCapitalContributed);\r\n    event BoardMemberRemoved(address indexed member);\r\n    event CompanyTreasuryManagerAddressSet(address indexed ctmAddress);\r\n\r\n\r\nconstructor() {\r\n        // 1. S dng _setupRole  cp DEFAULT_ADMIN_ROLE cho ngi deploy\r\n        _setupRole(DEFAULT_ADMIN_ROLE, msg.sender); // SA  Y: Dng _setupRole\r\n\r\n        // 2. Thit lp ngi deploy lm thnh vin BH hot ng u tin\r\n        address initialBoardMember = msg.sender;\r\n        uint256 initialCapitalContribution = uint256(10 ether); // V d vn gp ban u\r\n\r\n        require(initialBoardMember != address(0), \"RM: Dia chi nguoi trien khai khong hop le\");\r\n\r\n        BoardMember storage member = boardMembers[initialBoardMember];\r\n        member.shareCapitalProposed = initialCapitalContribution;\r\n        member.shareCapitalContributed = initialCapitalContribution;\r\n        member.status = BoardMemberStatus.Active;\r\n\r\n        boardAddresses.push(initialBoardMember);\r\n        // Gi y msg.sender (ngi deploy)  c DEFAULT_ADMIN_ROLE,\r\n        // nn c th cp BOARD_ROLE cho chnh mnh (hoc ngi khc) bng _grantRole\r\n        grantRole(BOARD_ROLE, initialBoardMember); // Dng ny vn dng _grantRole l ng\r\n\r\n        totalCapital = initialCapitalContribution;\r\n        initialMembersAddedCount = 1; \r\n\r\n        emit BoardMemberActivated(initialBoardMember, initialCapitalContribution);\r\n    }\r\n    \r\n    modifier onlyAdmin() {\r\n        require(hasRole(DEFAULT_ADMIN_ROLE, msg.sender), \"RM: Chi Admin duoc phep\");\r\n        _;\r\n    }\r\n    \r\n    modifier onlyActiveBoardMember() {\r\n        require(boardMembers[msg.sender].status == BoardMemberStatus.Active && hasRole(BOARD_ROLE, msg.sender), \"RM: Chi thanh vien BDH hoat dong duoc phep\");\r\n        _;\r\n    }\r\n\r\n    modifier onlyCTM() {\r\n        require(msg.sender == companyTreasuryManagerAddress, \"RM: Chi CTM moi duoc goi ham nay\");\r\n        _;\r\n    }\r\n\r\n    function setCompanyTreasuryManagerAddress(address _ctmAddress) external onlyAdmin {\r\n        require(_ctmAddress != address(0), \"RM: Dia chi CTM khong hop le\");\r\n        companyTreasuryManagerAddress = _ctmAddress;\r\n        emit CompanyTreasuryManagerAddressSet(_ctmAddress);\r\n    }\r\n\r\n    function getSharesPercentage(address account) public view returns (uint256) {\r\n        if (boardMembers[account].status != BoardMemberStatus.Active || totalCapital == 0) {\r\n            return 0;\r\n        }\r\n        return (boardMembers[account].shareCapitalContributed * 10000) / totalCapital;\r\n    }\r\n\r\n    function _sumSharesPercentage(address[] memory approvers) internal view returns (uint256) {\r\n        uint256 totalPercentageSum = 0;\r\n        for (uint i = 0; i < approvers.length; i++) {\r\n            require(boardMembers[approvers[i]].status == BoardMemberStatus.Active && hasRole(BOARD_ROLE, approvers[i]), \"RM: Nguoi phe duyet khong phai thanh vien BDH hoat dong hop le\");\r\n            totalPercentageSum += getSharesPercentage(approvers[i]);\r\n        }\r\n        return totalPercentageSum;\r\n    }\r\n\r\n    // Bc Bootstrap: Admin thm cc thnh vin BH ban u (ti a MAX_INITIAL_MEMBERS - 1 ngi na)\r\n    function addInitialBoardMemberByAdmin(address _candidate, uint256 _shareCapitalProposed)\r\n        external\r\n        onlyAdmin \r\n    {\r\n        require(initialMembersAddedCount < MAX_INITIAL_MEMBERS, \"RM: Da dat so luong thanh vien BDH ban dau toi da\");\r\n        require(_candidate != address(0), \"RM: Dia chi ung vien khong hop le\");\r\n        BoardMember storage member = boardMembers[_candidate];\r\n        require(member.status == BoardMemberStatus.None, \"RM: Ung vien da ton tai hoac dang trong qua trinh xu ly\");\r\n        require(_shareCapitalProposed > 0, \"RM: Von gop de xuat phai lon hon 0\");\r\n\r\n        member.shareCapitalProposed = _shareCapitalProposed;\r\n        member.status = BoardMemberStatus.PendingConfirmation;\r\n        \r\n        initialMembersAddedCount++; \r\n        emit InitialBoardMemberProposedByAdmin(_candidate, _shareCapitalProposed);\r\n    }\r\n\r\n    // Bc Thng thng: BH hin ti  xut ng vin mi (sau giai on bootstrap)\r\n    function proposeBoardMember(address _candidate, uint256 _shareCapitalProposed, address[] memory _approvers)\r\n        external\r\n        onlyActiveBoardMember \r\n    {\r\n        require(initialMembersAddedCount >= MAX_INITIAL_MEMBERS, \"RM: Quy trinh bootstrap chua hoan tat hoac da du thanh vien bootstrap\");\r\n        require(_candidate != address(0), \"RM: Dia chi ung vien khong hop le\");\r\n        BoardMember storage member = boardMembers[_candidate];\r\n        require(member.status == BoardMemberStatus.None, \"RM: Ung vien da ton tai hoac dang trong qua trinh xu ly\");\r\n        require(_shareCapitalProposed > 0, \"RM: Von gop de xuat phai lon hon 0\");\r\n        require(_approvers.length > 0, \"RM: Can it nhat mot nguoi phe duyet (khac nguoi de xuat)\");\r\n\r\n        for(uint i = 0; i < _approvers.length; i++) {\r\n            require(_approvers[i] != msg.sender, \"RM: Nguoi de xuat khong duoc tu phe duyet trong danh sach approvers\");\r\n        }\r\n\r\n        uint256 approvalSharesPercent = _sumSharesPercentage(_approvers);\r\n        require(approvalSharesPercent > 5000, \"RM: Khong du ty le co phan BDH phe duyet de xuat\");\r\n\r\n        member.shareCapitalProposed = _shareCapitalProposed;\r\n        member.status = BoardMemberStatus.PendingConfirmation;\r\n        \r\n        emit BoardMemberProposed(_candidate, _shareCapitalProposed);\r\n    }\r\n\r\n    // Bc 2 (chung cho c bootstrap v thng thng): CTM gi hm ny sau khi nhn c vn gp\r\n    function activateBoardMemberByTreasury(address _candidate, uint256 _contributedAmount) \r\n        external \r\n        onlyCTM \r\n    {\r\n        BoardMember storage member = boardMembers[_candidate];\r\n        require(member.status == BoardMemberStatus.PendingConfirmation, \"RM: Ung vien khong o trang thai cho xac nhan\");\r\n        require(_contributedAmount == member.shareCapitalProposed, \"RM: So tien CTM bao cao khong khop voi de xuat\");\r\n\r\n        member.status = BoardMemberStatus.Active;\r\n        member.shareCapitalContributed = _contributedAmount;\r\n        \r\n        bool alreadyInArray = false;\r\n        for(uint i = 0; i < boardAddresses.length; i++){\r\n            if(boardAddresses[i] == _candidate){\r\n                alreadyInArray = true;\r\n                break;\r\n            }\r\n        }\r\n        if(!alreadyInArray){\r\n            boardAddresses.push(_candidate);\r\n        }\r\n\r\n        grantRole(BOARD_ROLE, _candidate);\r\n        totalCapital += _contributedAmount;\r\n        emit BoardMemberActivated(_candidate, _contributedAmount);\r\n    }\r\n    \r\n    // Hm  CTM c s vn  xut ca mt ng vin\r\n    function getProposedShareCapital(address _candidate) external view returns (uint256) {\r\n        // Cho php CTM, Admin, v BH hin ti xem\r\n        require(msg.sender == companyTreasuryManagerAddress || \r\n                hasRole(DEFAULT_ADMIN_ROLE, msg.sender) || \r\n                (boardMembers[msg.sender].status == BoardMemberStatus.Active && hasRole(BOARD_ROLE, msg.sender)), \r\n                \"RM: Khong co quyen truy cap thong tin von de xuat\");\r\n        \r\n        if (boardMembers[_candidate].status == BoardMemberStatus.PendingConfirmation) {\r\n            return boardMembers[_candidate].shareCapitalProposed;\r\n        }\r\n        return 0; // Hoc revert nu khng tm thy hoc trng thi khng ng\r\n    }\r\n\r\n    // Hm xa thnh vin Ban Gim c\r\n    function removeBoardMember(address _accountToRemove, address[] memory _approvers)\r\n        external\r\n        onlyActiveBoardMember // Ngi  xut xa phi l BH hot ng\r\n    {\r\n        require(boardMembers[_accountToRemove].status == BoardMemberStatus.Active, \"RM: Tai khoan khong phai la thanh vien BDH hoat dong de xoa\");\r\n        require(_approvers.length > 0, \"RM: Can nguoi phe duyet viec xoa\");\r\n\r\n        for(uint i = 0; i < _approvers.length; i++) {\r\n            require(_approvers[i] != msg.sender, \"RM: Nguoi de xuat xoa khong duoc tu phe duyet\");\r\n            require(_approvers[i] != _accountToRemove, \"RM: Tai khoan bi xoa khong the phe duyet viec xoa chinh minh\");\r\n        }\r\n\r\n        uint256 approvalSharesPercent = _sumSharesPercentage(_approvers);\r\n        require(approvalSharesPercent > 5000, \"RM: Khong du ty le co phan BDH phe duyet viec xoa\");\r\n\r\n        totalCapital -= boardMembers[_accountToRemove].shareCapitalContributed;\r\n        revokeRole(BOARD_ROLE, _accountToRemove);\r\n        boardMembers[_accountToRemove].status = BoardMemberStatus.Removed;\r\n        // boardMembers[_accountToRemove].shareCapitalContributed = 0; // Optional: reset contributed capital\r\n\r\n        for (uint i = 0; i < boardAddresses.length; i++) {\r\n            if (boardAddresses[i] == _accountToRemove) {\r\n                boardAddresses[i] = boardAddresses[boardAddresses.length - 1];\r\n                boardAddresses.pop();\r\n                break;\r\n            }\r\n        }\r\n        emit BoardMemberRemoved(_accountToRemove);\r\n    }\r\n\r\n    // Cc hm cp/thu hi vai tr khc (Director, Supplier) bi BH\r\n    function grantRoleByBoard(bytes32 role, address account, address[] memory approvers) external onlyActiveBoardMember {\r\n        require(\r\n            role == WAREHOUSE_DIRECTOR_ROLE ||\r\n            role == STORE_DIRECTOR_ROLE ||\r\n            role == FINANCE_DIRECTOR_ROLE ||\r\n            role == SUPPLIER_ROLE, \"RM: Vai tro khong hop le de BDH cap/thu hoi\"\r\n        );\r\n        require(account != address(0), \"RM: Tai khoan khong hop le\");\r\n        require(approvers.length > 0, \"RM: Can nguoi phe duyet\");\r\n         for(uint i = 0; i < approvers.length; i++) { // m bo ngi  xut khng t duyt\r\n            require(approvers[i] != msg.sender, \"RM: Nguoi de xuat cap vai tro khong duoc tu phe duyet\");\r\n        }\r\n        uint256 approvalSharesPercent = _sumSharesPercentage(approvers);\r\n        require(approvalSharesPercent > 5000, \"RM: Khong du co phan phe duyet\");\r\n        grantRole(role, account);\r\n    }\r\n\r\n    function revokeRoleByBoard(bytes32 role, address account, address[] memory approvers) external onlyActiveBoardMember {\r\n         require(\r\n            role == WAREHOUSE_DIRECTOR_ROLE ||\r\n            role == STORE_DIRECTOR_ROLE ||\r\n            role == FINANCE_DIRECTOR_ROLE ||\r\n            role == SUPPLIER_ROLE, \"RM: Vai tro khong hop le de BDH cap/thu hoi\"\r\n        );\r\n        require(account != address(0), \"RM: Tai khoan khong hop le\");\r\n        require(approvers.length > 0, \"RM: Can nguoi phe duyet\");\r\n        for(uint i = 0; i < approvers.length; i++) { // m bo ngi  xut khng t duyt\r\n            require(approvers[i] != msg.sender, \"RM: Nguoi de xuat thu hoi vai tro khong duoc tu phe duyet\");\r\n        }\r\n        uint256 approvalSharesPercent = _sumSharesPercentage(approvers);\r\n        require(approvalSharesPercent > 5000, \"RM: Khong du co phan phe duyet\");\r\n        revokeRole(role, account);\r\n    }\r\n\r\n    // Cc hm cp/thu hi vai tr Manager bi Director tng ng\r\n    function grantWarehouseManager(address account) external {\r\n        require(hasRole(WAREHOUSE_DIRECTOR_ROLE, msg.sender), \"RM: Chi GD Kho duoc phep\");\r\n        grantRole(WAREHOUSE_MANAGER_ROLE, account);\r\n    }\r\n    function revokeWarehouseManager(address account) external {\r\n         require(hasRole(WAREHOUSE_DIRECTOR_ROLE, msg.sender), \"RM: Chi GD Kho duoc phep\");\r\n        revokeRole(WAREHOUSE_MANAGER_ROLE, account);\r\n    }\r\n\r\n    function grantStoreManager(address account) external {\r\n        require(hasRole(STORE_DIRECTOR_ROLE, msg.sender), \"RM: Chi GD Cua hang duoc phep\");\r\n        grantRole(STORE_MANAGER_ROLE, account);\r\n    }\r\n    function revokeStoreManager(address account) external {\r\n        require(hasRole(STORE_DIRECTOR_ROLE, msg.sender), \"RM: Chi GD Cua hang duoc phep\");\r\n        revokeRole(STORE_MANAGER_ROLE, account);\r\n    }\r\n\r\n    // --- View Functions ---\r\n    function getBoardMembers() external view returns (address[] memory) { return boardAddresses; }\r\n    function getBoardMemberInfo(address member) external view returns (BoardMember memory) { return boardMembers[member]; }\r\n\r\n    // --- Role ID Getters ---\r\n    function BOARD_ROLE_ID() external pure returns (bytes32) { return BOARD_ROLE; }\r\n    function WAREHOUSE_DIRECTOR_ROLE_ID() external pure returns (bytes32) { return WAREHOUSE_DIRECTOR_ROLE; }\r\n    function STORE_DIRECTOR_ROLE_ID() external pure returns (bytes32) { return STORE_DIRECTOR_ROLE; }\r\n    function FINANCE_DIRECTOR_ROLE_ID() external pure returns (bytes32) { return FINANCE_DIRECTOR_ROLE; }\r\n    function WAREHOUSE_MANAGER_ROLE_ID() external pure returns (bytes32) { return WAREHOUSE_MANAGER_ROLE; }\r\n    function STORE_MANAGER_ROLE_ID() external pure returns (bytes32) { return STORE_MANAGER_ROLE; }\r\n    function SUPPLIER_ROLE_ID() external pure returns (bytes32) { return SUPPLIER_ROLE; }\r\n    function DEFAULT_ADMIN_ROLE_ID() external pure returns (bytes32) { return DEFAULT_ADMIN_ROLE; }\r\n}",
  "sourcePath": "D:\\nhi\\Logtech\\New tech in Log\\dapp2\\SC\\contracts\\RoleManagement.sol",
  "compiler": {
    "name": "solc",
    "version": "0.8.0+commit.c7dfd78e.Emscripten.clang"
  },
  "schemaVersion": "3.4.16",
  "updatedAt": "2025-06-02T03:33:10.779Z",
  "devdoc": {
    "kind": "dev",
    "methods": {
      "getRoleAdmin(bytes32)": {
        "details": "Returns the admin role that controls `role`. See {grantRole} and {revokeRole}. To change a role's admin, use {_setRoleAdmin}."
      },
      "grantRole(bytes32,address)": {
        "details": "Grants `role` to `account`. If `account` had not been already granted `role`, emits a {RoleGranted} event. Requirements: - the caller must have ``role``'s admin role."
      },
      "hasRole(bytes32,address)": {
        "details": "Returns `true` if `account` has been granted `role`."
      },
      "renounceRole(bytes32,address)": {
        "details": "Revokes `role` from the calling account. Roles are often managed via {grantRole} and {revokeRole}: this function's purpose is to provide a mechanism for accounts to lose their privileges if they are compromised (such as when a trusted device is misplaced). If the calling account had been granted `role`, emits a {RoleRevoked} event. Requirements: - the caller must be `account`."
      },
      "revokeRole(bytes32,address)": {
        "details": "Revokes `role` from `account`. If `account` had been granted `role`, emits a {RoleRevoked} event. Requirements: - the caller must have ``role``'s admin role."
      },
      "supportsInterface(bytes4)": {
        "details": "See {IERC165-supportsInterface}."
      }
    },
    "version": 1
  },
  "userdoc": {
    "kind": "user",
    "methods": {},
    "version": 1
  }
}