{
  "contractName": "RoleManagement",
  "abi": [
    {
      "inputs": [],
      "stateMutability": "nonpayable",
      "type": "constructor"
    },
    {
      "anonymous": false,
      "inputs": [
        {
          "indexed": true,
          "internalType": "address",
          "name": "member",
          "type": "address"
        },
        {
          "indexed": false,
          "internalType": "uint256",
          "name": "shareCapitalContributed",
          "type": "uint256"
        }
      ],
      "name": "BoardMemberActivated",
      "type": "event"
    },
    {
      "anonymous": false,
      "inputs": [
        {
          "indexed": true,
          "internalType": "address",
          "name": "candidate",
          "type": "address"
        },
        {
          "indexed": false,
          "internalType": "uint256",
          "name": "shareCapitalProposed",
          "type": "uint256"
        }
      ],
      "name": "BoardMemberProposed",
      "type": "event"
    },
    {
      "anonymous": false,
      "inputs": [
        {
          "indexed": true,
          "internalType": "address",
          "name": "member",
          "type": "address"
        }
      ],
      "name": "BoardMemberRemoved",
      "type": "event"
    },
    {
      "anonymous": false,
      "inputs": [
        {
          "indexed": true,
          "internalType": "address",
          "name": "ctmAddress",
          "type": "address"
        }
      ],
      "name": "CompanyTreasuryManagerAddressSet",
      "type": "event"
    },
    {
      "anonymous": false,
      "inputs": [
        {
          "indexed": true,
          "internalType": "address",
          "name": "candidate",
          "type": "address"
        },
        {
          "indexed": false,
          "internalType": "uint256",
          "name": "shareCapitalProposed",
          "type": "uint256"
        }
      ],
      "name": "InitialBoardMemberProposedByAdmin",
      "type": "event"
    },
    {
      "anonymous": false,
      "inputs": [
        {
          "indexed": true,
          "internalType": "bytes32",
          "name": "role",
          "type": "bytes32"
        },
        {
          "indexed": true,
          "internalType": "bytes32",
          "name": "previousAdminRole",
          "type": "bytes32"
        },
        {
          "indexed": true,
          "internalType": "bytes32",
          "name": "newAdminRole",
          "type": "bytes32"
        }
      ],
      "name": "RoleAdminChanged",
      "type": "event"
    },
    {
      "anonymous": false,
      "inputs": [
        {
          "indexed": true,
          "internalType": "bytes32",
          "name": "role",
          "type": "bytes32"
        },
        {
          "indexed": true,
          "internalType": "address",
          "name": "account",
          "type": "address"
        },
        {
          "indexed": true,
          "internalType": "address",
          "name": "sender",
          "type": "address"
        }
      ],
      "name": "RoleGranted",
      "type": "event"
    },
    {
      "anonymous": false,
      "inputs": [
        {
          "indexed": true,
          "internalType": "bytes32",
          "name": "role",
          "type": "bytes32"
        },
        {
          "indexed": true,
          "internalType": "address",
          "name": "account",
          "type": "address"
        },
        {
          "indexed": true,
          "internalType": "address",
          "name": "sender",
          "type": "address"
        }
      ],
      "name": "RoleRevoked",
      "type": "event"
    },
    {
      "inputs": [],
      "name": "BOARD_ROLE",
      "outputs": [
        {
          "internalType": "bytes32",
          "name": "",
          "type": "bytes32"
        }
      ],
      "stateMutability": "view",
      "type": "function",
      "constant": true
    },
    {
      "inputs": [],
      "name": "DEFAULT_ADMIN_ROLE",
      "outputs": [
        {
          "internalType": "bytes32",
          "name": "",
          "type": "bytes32"
        }
      ],
      "stateMutability": "view",
      "type": "function",
      "constant": true
    },
    {
      "inputs": [],
      "name": "FINANCE_DIRECTOR_ROLE",
      "outputs": [
        {
          "internalType": "bytes32",
          "name": "",
          "type": "bytes32"
        }
      ],
      "stateMutability": "view",
      "type": "function",
      "constant": true
    },
    {
      "inputs": [],
      "name": "MAX_INITIAL_MEMBERS",
      "outputs": [
        {
          "internalType": "uint8",
          "name": "",
          "type": "uint8"
        }
      ],
      "stateMutability": "view",
      "type": "function",
      "constant": true
    },
    {
      "inputs": [],
      "name": "STORE_DIRECTOR_ROLE",
      "outputs": [
        {
          "internalType": "bytes32",
          "name": "",
          "type": "bytes32"
        }
      ],
      "stateMutability": "view",
      "type": "function",
      "constant": true
    },
    {
      "inputs": [],
      "name": "STORE_MANAGER_ROLE",
      "outputs": [
        {
          "internalType": "bytes32",
          "name": "",
          "type": "bytes32"
        }
      ],
      "stateMutability": "view",
      "type": "function",
      "constant": true
    },
    {
      "inputs": [],
      "name": "SUPPLIER_ROLE",
      "outputs": [
        {
          "internalType": "bytes32",
          "name": "",
          "type": "bytes32"
        }
      ],
      "stateMutability": "view",
      "type": "function",
      "constant": true
    },
    {
      "inputs": [],
      "name": "WAREHOUSE_DIRECTOR_ROLE",
      "outputs": [
        {
          "internalType": "bytes32",
          "name": "",
          "type": "bytes32"
        }
      ],
      "stateMutability": "view",
      "type": "function",
      "constant": true
    },
    {
      "inputs": [],
      "name": "WAREHOUSE_MANAGER_ROLE",
      "outputs": [
        {
          "internalType": "bytes32",
          "name": "",
          "type": "bytes32"
        }
      ],
      "stateMutability": "view",
      "type": "function",
      "constant": true
    },
    {
      "inputs": [
        {
          "internalType": "uint256",
          "name": "",
          "type": "uint256"
        }
      ],
      "name": "boardAddresses",
      "outputs": [
        {
          "internalType": "address",
          "name": "",
          "type": "address"
        }
      ],
      "stateMutability": "view",
      "type": "function",
      "constant": true
    },
    {
      "inputs": [
        {
          "internalType": "address",
          "name": "",
          "type": "address"
        }
      ],
      "name": "boardMembers",
      "outputs": [
        {
          "internalType": "uint256",
          "name": "shareCapitalProposed",
          "type": "uint256"
        },
        {
          "internalType": "uint256",
          "name": "shareCapitalContributed",
          "type": "uint256"
        },
        {
          "internalType": "enum RoleManagement.BoardMemberStatus",
          "name": "status",
          "type": "uint8"
        }
      ],
      "stateMutability": "view",
      "type": "function",
      "constant": true
    },
    {
      "inputs": [],
      "name": "companyTreasuryManagerAddress",
      "outputs": [
        {
          "internalType": "address",
          "name": "",
          "type": "address"
        }
      ],
      "stateMutability": "view",
      "type": "function",
      "constant": true
    },
    {
      "inputs": [
        {
          "internalType": "bytes32",
          "name": "role",
          "type": "bytes32"
        }
      ],
      "name": "getRoleAdmin",
      "outputs": [
        {
          "internalType": "bytes32",
          "name": "",
          "type": "bytes32"
        }
      ],
      "stateMutability": "view",
      "type": "function",
      "constant": true
    },
    {
      "inputs": [
        {
          "internalType": "bytes32",
          "name": "role",
          "type": "bytes32"
        },
        {
          "internalType": "address",
          "name": "account",
          "type": "address"
        }
      ],
      "name": "grantRole",
      "outputs": [],
      "stateMutability": "nonpayable",
      "type": "function"
    },
    {
      "inputs": [
        {
          "internalType": "bytes32",
          "name": "role",
          "type": "bytes32"
        },
        {
          "internalType": "address",
          "name": "account",
          "type": "address"
        }
      ],
      "name": "hasRole",
      "outputs": [
        {
          "internalType": "bool",
          "name": "",
          "type": "bool"
        }
      ],
      "stateMutability": "view",
      "type": "function",
      "constant": true
    },
    {
      "inputs": [],
      "name": "initialMembersAddedCount",
      "outputs": [
        {
          "internalType": "uint8",
          "name": "",
          "type": "uint8"
        }
      ],
      "stateMutability": "view",
      "type": "function",
      "constant": true
    },
    {
      "inputs": [
        {
          "internalType": "bytes32",
          "name": "role",
          "type": "bytes32"
        },
        {
          "internalType": "address",
          "name": "account",
          "type": "address"
        }
      ],
      "name": "renounceRole",
      "outputs": [],
      "stateMutability": "nonpayable",
      "type": "function"
    },
    {
      "inputs": [
        {
          "internalType": "bytes32",
          "name": "role",
          "type": "bytes32"
        },
        {
          "internalType": "address",
          "name": "account",
          "type": "address"
        }
      ],
      "name": "revokeRole",
      "outputs": [],
      "stateMutability": "nonpayable",
      "type": "function"
    },
    {
      "inputs": [
        {
          "internalType": "bytes4",
          "name": "interfaceId",
          "type": "bytes4"
        }
      ],
      "name": "supportsInterface",
      "outputs": [
        {
          "internalType": "bool",
          "name": "",
          "type": "bool"
        }
      ],
      "stateMutability": "view",
      "type": "function",
      "constant": true
    },
    {
      "inputs": [],
      "name": "totalCapital",
      "outputs": [
        {
          "internalType": "uint256",
          "name": "",
          "type": "uint256"
        }
      ],
      "stateMutability": "view",
      "type": "function",
      "constant": true
    },
    {
      "inputs": [
        {
          "internalType": "address",
          "name": "_ctmAddress",
          "type": "address"
        }
      ],
      "name": "setCompanyTreasuryManagerAddress",
      "outputs": [],
      "stateMutability": "nonpayable",
      "type": "function"
    },
    {
      "inputs": [
        {
          "internalType": "address",
          "name": "account",
          "type": "address"
        }
      ],
      "name": "getSharesPercentage",
      "outputs": [
        {
          "internalType": "uint256",
          "name": "",
          "type": "uint256"
        }
      ],
      "stateMutability": "view",
      "type": "function",
      "constant": true
    },
    {
      "inputs": [
        {
          "internalType": "address",
          "name": "_candidate",
          "type": "address"
        },
        {
          "internalType": "uint256",
          "name": "_shareCapitalProposed",
          "type": "uint256"
        }
      ],
      "name": "addInitialBoardMemberByAdmin",
      "outputs": [],
      "stateMutability": "nonpayable",
      "type": "function"
    },
    {
      "inputs": [
        {
          "internalType": "address",
          "name": "_candidate",
          "type": "address"
        },
        {
          "internalType": "uint256",
          "name": "_shareCapitalProposed",
          "type": "uint256"
        },
        {
          "internalType": "address[]",
          "name": "_approvers",
          "type": "address[]"
        }
      ],
      "name": "proposeBoardMember",
      "outputs": [],
      "stateMutability": "nonpayable",
      "type": "function"
    },
    {
      "inputs": [
        {
          "internalType": "address",
          "name": "_candidate",
          "type": "address"
        },
        {
          "internalType": "uint256",
          "name": "_contributedAmount",
          "type": "uint256"
        }
      ],
      "name": "activateBoardMemberByTreasury",
      "outputs": [],
      "stateMutability": "nonpayable",
      "type": "function"
    },
    {
      "inputs": [
        {
          "internalType": "address",
          "name": "_candidate",
          "type": "address"
        }
      ],
      "name": "getProposedShareCapital",
      "outputs": [
        {
          "internalType": "uint256",
          "name": "",
          "type": "uint256"
        }
      ],
      "stateMutability": "view",
      "type": "function",
      "constant": true
    },
    {
      "inputs": [
        {
          "internalType": "address",
          "name": "_accountToRemove",
          "type": "address"
        },
        {
          "internalType": "address[]",
          "name": "_approvers",
          "type": "address[]"
        }
      ],
      "name": "removeBoardMember",
      "outputs": [],
      "stateMutability": "nonpayable",
      "type": "function"
    },
    {
      "inputs": [
        {
          "internalType": "bytes32",
          "name": "role",
          "type": "bytes32"
        },
        {
          "internalType": "address",
          "name": "account",
          "type": "address"
        },
        {
          "internalType": "address[]",
          "name": "approvers",
          "type": "address[]"
        }
      ],
      "name": "grantRoleByBoard",
      "outputs": [],
      "stateMutability": "nonpayable",
      "type": "function"
    },
    {
      "inputs": [
        {
          "internalType": "bytes32",
          "name": "role",
          "type": "bytes32"
        },
        {
          "internalType": "address",
          "name": "account",
          "type": "address"
        },
        {
          "internalType": "address[]",
          "name": "approvers",
          "type": "address[]"
        }
      ],
      "name": "revokeRoleByBoard",
      "outputs": [],
      "stateMutability": "nonpayable",
      "type": "function"
    },
    {
      "inputs": [
        {
          "internalType": "address",
          "name": "account",
          "type": "address"
        }
      ],
      "name": "grantWarehouseManager",
      "outputs": [],
      "stateMutability": "nonpayable",
      "type": "function"
    },
    {
      "inputs": [
        {
          "internalType": "address",
          "name": "account",
          "type": "address"
        }
      ],
      "name": "revokeWarehouseManager",
      "outputs": [],
      "stateMutability": "nonpayable",
      "type": "function"
    },
    {
      "inputs": [
        {
          "internalType": "address",
          "name": "account",
          "type": "address"
        }
      ],
      "name": "grantStoreManager",
      "outputs": [],
      "stateMutability": "nonpayable",
      "type": "function"
    },
    {
      "inputs": [
        {
          "internalType": "address",
          "name": "account",
          "type": "address"
        }
      ],
      "name": "revokeStoreManager",
      "outputs": [],
      "stateMutability": "nonpayable",
      "type": "function"
    },
    {
      "inputs": [],
      "name": "getBoardMembers",
      "outputs": [
        {
          "internalType": "address[]",
          "name": "",
          "type": "address[]"
        }
      ],
      "stateMutability": "view",
      "type": "function",
      "constant": true
    },
    {
      "inputs": [
        {
          "internalType": "address",
          "name": "member",
          "type": "address"
        }
      ],
      "name": "getBoardMemberInfo",
      "outputs": [
        {
          "components": [
            {
              "internalType": "uint256",
              "name": "shareCapitalProposed",
              "type": "uint256"
            },
            {
              "internalType": "uint256",
              "name": "shareCapitalContributed",
              "type": "uint256"
            },
            {
              "internalType": "enum RoleManagement.BoardMemberStatus",
              "name": "status",
              "type": "uint8"
            }
          ],
          "internalType": "struct RoleManagement.BoardMember",
          "name": "",
          "type": "tuple"
        }
      ],
      "stateMutability": "view",
      "type": "function",
      "constant": true
    },
    {
      "inputs": [],
      "name": "BOARD_ROLE_ID",
      "outputs": [
        {
          "internalType": "bytes32",
          "name": "",
          "type": "bytes32"
        }
      ],
      "stateMutability": "pure",
      "type": "function",
      "constant": true
    },
    {
      "inputs": [],
      "name": "WAREHOUSE_DIRECTOR_ROLE_ID",
      "outputs": [
        {
          "internalType": "bytes32",
          "name": "",
          "type": "bytes32"
        }
      ],
      "stateMutability": "pure",
      "type": "function",
      "constant": true
    },
    {
      "inputs": [],
      "name": "STORE_DIRECTOR_ROLE_ID",
      "outputs": [
        {
          "internalType": "bytes32",
          "name": "",
          "type": "bytes32"
        }
      ],
      "stateMutability": "pure",
      "type": "function",
      "constant": true
    },
    {
      "inputs": [],
      "name": "FINANCE_DIRECTOR_ROLE_ID",
      "outputs": [
        {
          "internalType": "bytes32",
          "name": "",
          "type": "bytes32"
        }
      ],
      "stateMutability": "pure",
      "type": "function",
      "constant": true
    },
    {
      "inputs": [],
      "name": "WAREHOUSE_MANAGER_ROLE_ID",
      "outputs": [
        {
          "internalType": "bytes32",
          "name": "",
          "type": "bytes32"
        }
      ],
      "stateMutability": "pure",
      "type": "function",
      "constant": true
    },
    {
      "inputs": [],
      "name": "STORE_MANAGER_ROLE_ID",
      "outputs": [
        {
          "internalType": "bytes32",
          "name": "",
          "type": "bytes32"
        }
      ],
      "stateMutability": "pure",
      "type": "function",
      "constant": true
    },
    {
      "inputs": [],
      "name": "SUPPLIER_ROLE_ID",
      "outputs": [
        {
          "internalType": "bytes32",
          "name": "",
          "type": "bytes32"
        }
      ],
      "stateMutability": "pure",
      "type": "function",
      "constant": true
    },
    {
      "inputs": [],
      "name": "DEFAULT_ADMIN_ROLE_ID",
      "outputs": [
        {
          "internalType": "bytes32",
          "name": "",
          "type": "bytes32"
        }
      ],
      "stateMutability": "pure",
      "type": "function",
      "constant": true
    }
  ],
  "bytecode": "0x60806040523480156200001157600080fd5b506200001f60003362000191565b33678ac7230489e80000816200008e5760405162461bcd60e51b815260206004820152602960248201527f524d3a2044696120636869206e67756f6920747269656e206b686169206b686f6044820152686e6720686f70206c6560b81b60648201526084015b60405180910390fd5b6001600160a01b038216600081815260016020819052604082208481558082018590556002808201805460ff191682179055805492830181559092527f405787fa12a823e0f2b7631cc41b3ba8828b3321ca811111fa75cd3aa3bb5ace0180546001600160a01b0319169092179091556200012a7f0182a37f4cfe4a11c9cc13af6a96350bc084bedfd41df0928670dbabcfe3aea184620001a1565b60038290556004805460ff60a01b1916600160a01b1790556040516001600160a01b038416907fed4124503cbccb17ea26c625be47636abac278557bbb45442c60820f6b9dda4a90620001809085815260200190565b60405180910390a250505062000655565b6200019d8282620001d0565b5050565b600082815260208190526040902060010154620001bf813362000270565b620001cb8383620001d0565b505050565b6000828152602081815260408083206001600160a01b038516845290915290205460ff166200019d576000828152602081815260408083206001600160a01b03851684529091529020805460ff191660011790556200022c3390565b6001600160a01b0316816001600160a01b0316837f2f8788117e7eff1d82e926ec794901d17c78024a50270940304540a733656f0d60405160405180910390a45050565b6000828152602081815260408083206001600160a01b038516845290915290205460ff166200019d57620002ba816001600160a01b031660146200030b60201b6200294e1760201c565b620002d08360206200294e6200030b821b17811c565b604051602001620002e392919062000507565b60408051601f198184030181529082905262461bcd60e51b8252620000859160040162000580565b606060006200031c836002620005d0565b62000329906002620005b5565b6001600160401b038111156200034f57634e487b7160e01b600052604160045260246000fd5b6040519080825280601f01601f1916602001820160405280156200037a576020820181803683370190505b509050600360fc1b81600081518110620003a457634e487b7160e01b600052603260045260246000fd5b60200101906001600160f81b031916908160001a905350600f60fb1b81600181518110620003e257634e487b7160e01b600052603260045260246000fd5b60200101906001600160f81b031916908160001a905350600062000408846002620005d0565b62000415906001620005b5565b90505b6001811115620004af576f181899199a1a9b1b9c1cb0b131b232b360811b85600f16601081106200045957634e487b7160e01b600052603260045260246000fd5b1a60f81b8282815181106200047e57634e487b7160e01b600052603260045260246000fd5b60200101906001600160f81b031916908160001a90535060049490941c93620004a78162000625565b905062000418565b508315620005005760405162461bcd60e51b815260206004820181905260248201527f537472696e67733a20686578206c656e67746820696e73756666696369656e74604482015260640162000085565b9392505050565b7f416363657373436f6e74726f6c3a206163636f756e742000000000000000000081526000835162000541816017850160208801620005f2565b7001034b99036b4b9b9b4b733903937b6329607d1b601791840191820152835162000574816028840160208801620005f2565b01602801949350505050565b6020815260008251806020840152620005a1816040850160208701620005f2565b601f01601f19169190910160400192915050565b60008219821115620005cb57620005cb6200063f565b500190565b6000816000190483118215151615620005ed57620005ed6200063f565b500290565b60005b838110156200060f578181015183820152602001620005f5565b838111156200061f576000848401525b50505050565b6000816200063757620006376200063f565b506000190190565b634e487b7160e01b600052601160045260246000fd5b61348280620006656000396000f3fe608060405234801561001057600080fd5b50600436106102e95760003560e01c8063821c3a1411610191578063b664c586116100e3578063de131bec11610097578063f2babe2811610071578063f2babe2814610778578063f83ea09f1461079e578063fc0dabb1146107b157600080fd5b8063de131bec1461072a578063e3fcbac114610750578063edd4ea9a1461076357600080fd5b8063bff13785116100c8578063bff13785146106b1578063d547741f146106f1578063ddf62a641461070457600080fd5b8063b664c5861461068b578063be9d3db31461069e57600080fd5b80639a8d3cde11610145578063a64f63001161011f578063a64f630014610617578063ad4ed4971461063d578063ae1be5c81461066457600080fd5b80639a8d3cde146105e1578063a217fddf146105e8578063a29508fc146105f057600080fd5b80638b94a8e2116101765780638b94a8e214610570578063912410051461059757806391d14854146105aa57600080fd5b8063821c3a141461053757806387116bb61461054a57600080fd5b806336568abe1161024a5780636250e056116101fe578063752a7c86116101d8578063752a7c86146104fe5780637849a5d014610511578063800ac75f1461052457600080fd5b80636250e0561461048c57806366f1114f146104b3578063735d94db146104d357600080fd5b8063385c6dc21161022f578063385c6dc21461043f5780633fb94983146104535780634bbc85871461046657600080fd5b806336568abe14610423578063383032ea1461043657600080fd5b8063248a9ca3116102a157806327f0934f1161028657806327f0934f146103d7578063294059ba146103fd5780632f2ff15d1461041057600080fd5b8063248a9ca3146103a157806326c52743146103c457600080fd5b806305b11d37116102d257806305b11d371461032b578063171bfd03146103605780631f1077981461037a57600080fd5b806301ffc9a7146102ee57806305936a7414610316575b600080fd5b6103016102fc366004613186565b6107c4565b60405190151581526020015b60405180910390f35b610329610324366004613020565b61085d565b005b6103527f0182a37f4cfe4a11c9cc13af6a96350bc084bedfd41df0928670dbabcfe3aea181565b60405190815260200161030d565b610368600381565b60405160ff909116815260200161030d565b6103527f03ce45385a6da0f9c94bd522d1e76071af055dd49cf9bcd2dd1979a114f0354381565b6103526103af366004613104565b60009081526020819052604090206001015490565b6103296103d2366004613147565b61090d565b7f0182a37f4cfe4a11c9cc13af6a96350bc084bedfd41df0928670dbabcfe3aea1610352565b61032961040b36600461303a565b610cd4565b61032961041e36600461311c565b6112b5565b61032961043136600461311c565b6112e0565b61035260035481565b60045461036890600160a01b900460ff1681565b6103296104613660046130af565b61136c565b7fd283d0fb22ee0804ca51c2a4749bdad99cfb7b348bd92a8833753d542c46c50f610352565b6103527f7a27847106d9de274bc7cc402b56b28792b17910251f705d7490179d093a8c3381565b6104c66104c1366004613020565b6118d2565b60405161030d91906132e9565b6104e66104e1366004613104565b611964565b6040516001600160a01b03909116815260200161030d565b61032961050c366004613020565b61198e565b61032961051f366004613147565b611a36565b610329610532366004613020565b611df7565b6004546104e6906001600160a01b031681565b7f42340fd1b40523657f7374ab2d72653f7ae00df11e5da261a68abd1d0f0aad15610352565b6103527f42340fd1b40523657f7374ab2d72653f7ae00df11e5da261a68abd1d0f0aad1581565b6103296105a5366004613020565b611e9f565b6103016105b836600461311c565b6000918252602082815260408084206001600160a01b0393909316845291905290205460ff1690565b6000610352565b610352600081565b6103527fd1ae8bbdabd60d63e418b84f5ad6f9cba90092c9816d7724d85f0d4e4bea2c6081565b7f3e9ee691b81ce40c5a04b318fa7b05d5216de50b16764207a4ac8753362d20bc610352565b6103527fd283d0fb22ee0804ca51c2a4749bdad99cfb7b348bd92a8833753d542c46c50f81565b6103527f3e9ee691b81ce40c5a04b318fa7b05d5216de50b16764207a4ac8753362d20bc81565b610329610699366004613086565b611f47565b6103526106ac366004613020565b61227b565b6106e26106bf366004613020565b600160208190526000918252604090912080549181015460029091015460ff1683565b60405161030d93929190613311565b6103296106ff36600461311c565b612419565b7f03ce45385a6da0f9c94bd522d1e76071af055dd49cf9bcd2dd1979a114f03543610352565b7fd1ae8bbdabd60d63e418b84f5ad6f9cba90092c9816d7724d85f0d4e4bea2c60610352565b61035261075e366004613020565b61243f565b61076b6124d1565b60405161030d9190613269565b7f7a27847106d9de274bc7cc402b56b28792b17910251f705d7490179d093a8c33610352565b6103296107ac366004613086565b612533565b6103296107bf366004613020565b612823565b60007fffffffff0000000000000000000000000000000000000000000000000000000082167f7965db0b00000000000000000000000000000000000000000000000000000000148061085757507f01ffc9a7000000000000000000000000000000000000000000000000000000007fffffffff000000000000000000000000000000000000000000000000000000008316145b92915050565b3360009081527f166b705cb020decf787d051088d5bed5d4030c59b362c1b0af158164bfa47457602052604090205460ff166108e05760405162461bcd60e51b815260206004820152601d60248201527f524d3a20436869204744204375612068616e672064756f63207068657000000060448201526064015b60405180910390fd5b61090a7f03ce45385a6da0f9c94bd522d1e76071af055dd49cf9bcd2dd1979a114f0354382612419565b50565b60023360009081526001602052604090206002015460ff16600381111561094457634e487b7160e01b600052602160045260246000fd5b14801561097f57503360009081527fa7a29618debaa59f0fc05b2ba996e7c1b75722f511d61514074624c13af3c801602052604090205460ff165b6109de5760405162461bcd60e51b815260206004820152602a60248201527f524d3a20436869207468616e68207669656e2042444820686f617420646f6e6760448201526902064756f6320706865760b41b60648201526084016108d7565b7fd283d0fb22ee0804ca51c2a4749bdad99cfb7b348bd92a8833753d542c46c50f831480610a2b57507f3e9ee691b81ce40c5a04b318fa7b05d5216de50b16764207a4ac8753362d20bc83145b80610a5557507f42340fd1b40523657f7374ab2d72653f7ae00df11e5da261a68abd1d0f0aad1583145b80610a7f57507fd1ae8bbdabd60d63e418b84f5ad6f9cba90092c9816d7724d85f0d4e4bea2c6083145b610af15760405162461bcd60e51b815260206004820152602b60248201527f524d3a205661692074726f206b686f6e6720686f70206c65206465204244482060448201527f6361702f74687520686f6900000000000000000000000000000000000000000060648201526084016108d7565b6001600160a01b038216610b475760405162461bcd60e51b815260206004820152601a60248201527f524d3a20546169206b686f616e206b686f6e6720686f70206c6500000000000060448201526064016108d7565b6000815111610b985760405162461bcd60e51b815260206004820152601760248201527f524d3a2043616e206e67756f692070686520647579657400000000000000000060448201526064016108d7565b60005b8151811015610c6557336001600160a01b0316828281518110610bce57634e487b7160e01b600052603260045260246000fd5b60200260200101516001600160a01b03161415610c535760405162461bcd60e51b815260206004820152603960248201527f524d3a204e67756f6920646520787561742074687520686f692076616920747260448201527f6f206b686f6e672064756f63207475207068652064757965740000000000000060648201526084016108d7565b80610c5d816133e5565b915050610b9b565b506000610c7182612bc4565b90506113888111610cc45760405162461bcd60e51b815260206004820152601e60248201527f524d3a204b686f6e6720647520636f207068616e20706865206475796574000060448201526064016108d7565b610cce8484612419565b50505050565b60023360009081526001602052604090206002015460ff166003811115610d0b57634e487b7160e01b600052602160045260246000fd5b148015610d4657503360009081527fa7a29618debaa59f0fc05b2ba996e7c1b75722f511d61514074624c13af3c801602052604090205460ff165b610da55760405162461bcd60e51b815260206004820152602a60248201527f524d3a20436869207468616e68207669656e2042444820686f617420646f6e6760448201526902064756f6320706865760b41b60648201526084016108d7565b60026001600160a01b03831660009081526001602052604090206002015460ff166003811115610de557634e487b7160e01b600052602160045260246000fd5b14610e585760405162461bcd60e51b815260206004820152603b60248201527f524d3a20546169206b686f616e206b686f6e672070686169206c61207468616e60448201527f68207669656e2042444820686f617420646f6e6720646520786f61000000000060648201526084016108d7565b6000815111610ea95760405162461bcd60e51b815260206004820181905260248201527f524d3a2043616e206e67756f6920706865206475796574207669656320786f6160448201526064016108d7565b60005b815181101561102557336001600160a01b0316828281518110610edf57634e487b7160e01b600052603260045260246000fd5b60200260200101516001600160a01b03161415610f645760405162461bcd60e51b815260206004820152602d60248201527f524d3a204e67756f69206465207875617420786f61206b686f6e672064756f6360448201527f207475207068652064757965740000000000000000000000000000000000000060648201526084016108d7565b826001600160a01b0316828281518110610f8e57634e487b7160e01b600052603260045260246000fd5b60200260200101516001600160a01b031614156110135760405162461bcd60e51b815260206004820152603c60248201527f524d3a20546169206b686f616e20626920786f61206b686f6e6720746865207060448201527f6865206475796574207669656320786f61206368696e68206d696e680000000060648201526084016108d7565b8061101d816133e5565b915050610eac565b50600061103182612bc4565b905061138881116110aa5760405162461bcd60e51b815260206004820152603160248201527f524d3a204b686f6e67206475207479206c6520636f207068616e20424448207060448201527f6865206475796574207669656320786f6100000000000000000000000000000060648201526084016108d7565b6001600160a01b03831660009081526001602081905260408220015460038054919290916110d990849061338b565b9091555061110990507f0182a37f4cfe4a11c9cc13af6a96350bc084bedfd41df0928670dbabcfe3aea184612419565b6001600160a01b0383166000908152600160205260408120600201805460ff191660031790555b60025481101561127b57836001600160a01b03166002828154811061116557634e487b7160e01b600052603260045260246000fd5b6000918252602090912001546001600160a01b0316141561126957600280546111909060019061338b565b815481106111ae57634e487b7160e01b600052603260045260246000fd5b600091825260209091200154600280546001600160a01b0390921691839081106111e857634e487b7160e01b600052603260045260246000fd5b9060005260206000200160006101000a8154816001600160a01b0302191690836001600160a01b03160217905550600280548061123557634e487b7160e01b600052603160045260246000fd5b6000828152602090208101600019908101805473ffffffffffffffffffffffffffffffffffffffff1916905501905561127b565b80611273816133e5565b915050611130565b506040516001600160a01b038416907f5059b541f12100245fc1e0afc5a897e4f2b2ac151e48752188c24421eeb9750b90600090a2505050565b6000828152602081905260409020600101546112d18133612d85565b6112db8383612e03565b505050565b6001600160a01b038116331461135e5760405162461bcd60e51b815260206004820152602f60248201527f416363657373436f6e74726f6c3a2063616e206f6e6c792072656e6f756e636560448201527f20726f6c657320666f722073656c66000000000000000000000000000000000060648201526084016108d7565b6113688282612ea1565b5050565b60023360009081526001602052604090206002015460ff1660038111156113a357634e487b7160e01b600052602160045260246000fd5b1480156113de57503360009081527fa7a29618debaa59f0fc05b2ba996e7c1b75722f511d61514074624c13af3c801602052604090205460ff165b61143d5760405162461bcd60e51b815260206004820152602a60248201527f524d3a20436869207468616e68207669656e2042444820686f617420646f6e6760448201526902064756f6320706865760b41b60648201526084016108d7565b6004546003600160a01b90910460ff1610156114e75760405162461bcd60e51b815260206004820152604560248201527f524d3a20517579207472696e6820626f6f747374726170206368756120686f6160448201527f6e2074617420686f6163206461206475207468616e68207669656e20626f6f7460648201527f7374726170000000000000000000000000000000000000000000000000000000608482015260a4016108d7565b6001600160a01b0383166115635760405162461bcd60e51b815260206004820152602160248201527f524d3a204469612063686920756e67207669656e206b686f6e6720686f70206c60448201527f650000000000000000000000000000000000000000000000000000000000000060648201526084016108d7565b6001600160a01b038316600090815260016020526040812090600282015460ff1660038111156115a357634e487b7160e01b600052602160045260246000fd5b146116165760405162461bcd60e51b815260206004820152603760248201527f524d3a20556e67207669656e20646120746f6e2074616920686f61632064616e60448201527f672074726f6e6720717561207472696e68207875206c7900000000000000000060648201526084016108d7565b6000831161168c5760405162461bcd60e51b815260206004820152602260248201527f524d3a20566f6e20676f7020646520787561742070686169206c6f6e20686f6e60448201527f203000000000000000000000000000000000000000000000000000000000000060648201526084016108d7565b60008251116117035760405162461bcd60e51b815260206004820152603860248201527f524d3a2043616e206974206e686174206d6f74206e67756f692070686520647560448201527f79657420286b686163206e67756f69206465207875617429000000000000000060648201526084016108d7565b60005b82518110156117f657336001600160a01b031683828151811061173957634e487b7160e01b600052603260045260246000fd5b60200260200101516001600160a01b031614156117e45760405162461bcd60e51b815260206004820152604360248201527f524d3a204e67756f692064652078756174206b686f6e672064756f632074752060448201527f7068652064757965742074726f6e672064616e68207361636820617070726f7660648201527f6572730000000000000000000000000000000000000000000000000000000000608482015260a4016108d7565b806117ee816133e5565b915050611706565b50600061180283612bc4565b9050611388811161187b5760405162461bcd60e51b815260206004820152603060248201527f524d3a204b686f6e67206475207479206c6520636f207068616e20424448207060448201527f686520647579657420646520787561740000000000000000000000000000000060648201526084016108d7565b83825560028201805460ff191660011790556040518481526001600160a01b038616907f057b33cd829daf4c6abec68bb31f2afeeb2836f3ca471b6bb489889ce0f554149060200160405180910390a25050505050565b6118da612f20565b6001600160a01b03821660009081526001602081815260409283902083516060810185528154815292810154918301919091526002810154919290919083019060ff16600381111561193c57634e487b7160e01b600052602160045260246000fd5b600381111561195b57634e487b7160e01b600052602160045260246000fd5b90525092915050565b6002818154811061197457600080fd5b6000918252602090912001546001600160a01b0316905081565b3360009081527f2a3ed7a6845927def00ca745bc8301dbeed71cfc17cfcbc3ba448a036a4e6e1e602052604090205460ff16611a0c5760405162461bcd60e51b815260206004820152601860248201527f524d3a20436869204744204b686f2064756f632070686570000000000000000060448201526064016108d7565b61090a7f7a27847106d9de274bc7cc402b56b28792b17910251f705d7490179d093a8c33826112b5565b60023360009081526001602052604090206002015460ff166003811115611a6d57634e487b7160e01b600052602160045260246000fd5b148015611aa857503360009081527fa7a29618debaa59f0fc05b2ba996e7c1b75722f511d61514074624c13af3c801602052604090205460ff165b611b075760405162461bcd60e51b815260206004820152602a60248201527f524d3a20436869207468616e68207669656e2042444820686f617420646f6e6760448201526902064756f6320706865760b41b60648201526084016108d7565b7fd283d0fb22ee0804ca51c2a4749bdad99cfb7b348bd92a8833753d542c46c50f831480611b5457507f3e9ee691b81ce40c5a04b318fa7b05d5216de50b16764207a4ac8753362d20bc83145b80611b7e57507f42340fd1b40523657f7374ab2d72653f7ae00df11e5da261a68abd1d0f0aad1583145b80611ba857507fd1ae8bbdabd60d63e418b84f5ad6f9cba90092c9816d7724d85f0d4e4bea2c6083145b611c1a5760405162461bcd60e51b815260206004820152602b60248201527f524d3a205661692074726f206b686f6e6720686f70206c65206465204244482060448201527f6361702f74687520686f6900000000000000000000000000000000000000000060648201526084016108d7565b6001600160a01b038216611c705760405162461bcd60e51b815260206004820152601a60248201527f524d3a20546169206b686f616e206b686f6e6720686f70206c6500000000000060448201526064016108d7565b6000815111611cc15760405162461bcd60e51b815260206004820152601760248201527f524d3a2043616e206e67756f692070686520647579657400000000000000000060448201526064016108d7565b60005b8151811015611d8e57336001600160a01b0316828281518110611cf757634e487b7160e01b600052603260045260246000fd5b60200260200101516001600160a01b03161415611d7c5760405162461bcd60e51b815260206004820152603560248201527f524d3a204e67756f69206465207875617420636170207661692074726f206b6860448201527f6f6e672064756f6320747520706865206475796574000000000000000000000060648201526084016108d7565b80611d86816133e5565b915050611cc4565b506000611d9a82612bc4565b90506113888111611ded5760405162461bcd60e51b815260206004820152601e60248201527f524d3a204b686f6e6720647520636f207068616e20706865206475796574000060448201526064016108d7565b610cce84846112b5565b3360009081527f166b705cb020decf787d051088d5bed5d4030c59b362c1b0af158164bfa47457602052604090205460ff16611e755760405162461bcd60e51b815260206004820152601d60248201527f524d3a20436869204744204375612068616e672064756f63207068657000000060448201526064016108d7565b61090a7f03ce45385a6da0f9c94bd522d1e76071af055dd49cf9bcd2dd1979a114f03543826112b5565b3360009081527f2a3ed7a6845927def00ca745bc8301dbeed71cfc17cfcbc3ba448a036a4e6e1e602052604090205460ff16611f1d5760405162461bcd60e51b815260206004820152601860248201527f524d3a20436869204744204b686f2064756f632070686570000000000000000060448201526064016108d7565b61090a7f7a27847106d9de274bc7cc402b56b28792b17910251f705d7490179d093a8c3382612419565b3360009081527fad3228b676f7d3cd4284a5443f17f1962b36e491b30a40b2405849e597ba5fb5602052604090205460ff16611fc55760405162461bcd60e51b815260206004820152601760248201527f524d3a204368692041646d696e2064756f63207068657000000000000000000060448201526064016108d7565b6004546003600160a01b90910460ff16106120485760405162461bcd60e51b815260206004820152603160248201527f524d3a2044612064617420736f206c756f6e67207468616e68207669656e204260448201527f44482062616e2064617520746f6920646100000000000000000000000000000060648201526084016108d7565b6001600160a01b0382166120c45760405162461bcd60e51b815260206004820152602160248201527f524d3a204469612063686920756e67207669656e206b686f6e6720686f70206c60448201527f650000000000000000000000000000000000000000000000000000000000000060648201526084016108d7565b6001600160a01b038216600090815260016020526040812090600282015460ff16600381111561210457634e487b7160e01b600052602160045260246000fd5b146121775760405162461bcd60e51b815260206004820152603760248201527f524d3a20556e67207669656e20646120746f6e2074616920686f61632064616e60448201527f672074726f6e6720717561207472696e68207875206c7900000000000000000060648201526084016108d7565b600082116121ed5760405162461bcd60e51b815260206004820152602260248201527f524d3a20566f6e20676f7020646520787561742070686169206c6f6e20686f6e60448201527f203000000000000000000000000000000000000000000000000000000000000060648201526084016108d7565b81815560028101805460ff191660011790556004805460ff600160a01b9091041690601461221a83613400565b91906101000a81548160ff021916908360ff16021790555050826001600160a01b03167f4bead8e8f83a9bd5711f341b054c96c4448cb1a697860e7d59de17724d9640338360405161226e91815260200190565b60405180910390a2505050565b6004546000906001600160a01b03163314806122c557503360009081527fad3228b676f7d3cd4284a5443f17f1962b36e491b30a40b2405849e597ba5fb5602052604090205460ff165b8061233d575060023360009081526001602052604090206002015460ff16600381111561230257634e487b7160e01b600052602160045260246000fd5b14801561233d57503360009081527fa7a29618debaa59f0fc05b2ba996e7c1b75722f511d61514074624c13af3c801602052604090205460ff165b6123af5760405162461bcd60e51b815260206004820152603160248201527f524d3a204b686f6e6720636f20717579656e2074727579206361702074686f6e60448201527f672074696e20766f6e206465207875617400000000000000000000000000000060648201526084016108d7565b60016001600160a01b03831660009081526001602052604090206002015460ff1660038111156123ef57634e487b7160e01b600052602160045260246000fd5b141561241157506001600160a01b031660009081526001602052604090205490565b506000919050565b6000828152602081905260409020600101546124358133612d85565b6112db8383612ea1565b600060026001600160a01b03831660009081526001602052604090206002015460ff16600381111561248157634e487b7160e01b600052602160045260246000fd5b14158061248e5750600354155b1561249b57506000919050565b6003546001600160a01b038316600090815260016020819052604090912001546124c79061271061336c565b610857919061334c565b6060600280548060200260200160405190810160405280929190818152602001828054801561252957602002820191906000526020600020905b81546001600160a01b0316815260019091019060200180831161250b575b5050505050905090565b6004546001600160a01b0316331461258d5760405162461bcd60e51b815260206004820181905260248201527f524d3a204368692043544d206d6f692064756f6320676f692068616d206e617960448201526064016108d7565b6001600160a01b038216600090815260016020819052604090912090600282015460ff1660038111156125d057634e487b7160e01b600052602160045260246000fd5b146126435760405162461bcd60e51b815260206004820152602c60248201527f524d3a20556e67207669656e206b686f6e67206f207472616e6720746861692060448201527f63686f20786163206e68616e000000000000000000000000000000000000000060648201526084016108d7565b805482146126b95760405162461bcd60e51b815260206004820152602e60248201527f524d3a20536f207469656e2043544d2062616f2063616f206b686f6e67206b6860448201527f6f7020766f69206465207875617400000000000000000000000000000000000060648201526084016108d7565b6002818101805460ff19169091179055600181018290556000805b60025481101561273f57846001600160a01b03166002828154811061270957634e487b7160e01b600052603260045260246000fd5b6000918252602090912001546001600160a01b0316141561272d576001915061273f565b80612737816133e5565b9150506126d4565b508061279e57600280546001810182556000919091527f405787fa12a823e0f2b7631cc41b3ba8828b3321ca811111fa75cd3aa3bb5ace01805473ffffffffffffffffffffffffffffffffffffffff19166001600160a01b0386161790555b6127c87f0182a37f4cfe4a11c9cc13af6a96350bc084bedfd41df0928670dbabcfe3aea1856112b5565b82600360008282546127da9190613334565b90915550506040518381526001600160a01b038516907fed4124503cbccb17ea26c625be47636abac278557bbb45442c60820f6b9dda4a9060200160405180910390a250505050565b3360009081527fad3228b676f7d3cd4284a5443f17f1962b36e491b30a40b2405849e597ba5fb5602052604090205460ff166128a15760405162461bcd60e51b815260206004820152601760248201527f524d3a204368692041646d696e2064756f63207068657000000000000000000060448201526064016108d7565b6001600160a01b0381166128f75760405162461bcd60e51b815260206004820152601c60248201527f524d3a20446961206368692043544d206b686f6e6720686f70206c650000000060448201526064016108d7565b6004805473ffffffffffffffffffffffffffffffffffffffff19166001600160a01b0383169081179091556040517f2420d7da1ad6c0ecc0c86e32b26e9a939959873f39778c4a2243f2ffcb7c644590600090a250565b6060600061295d83600261336c565b612968906002613334565b67ffffffffffffffff81111561298e57634e487b7160e01b600052604160045260246000fd5b6040519080825280601f01601f1916602001820160405280156129b8576020820181803683370190505b5090507f3000000000000000000000000000000000000000000000000000000000000000816000815181106129fd57634e487b7160e01b600052603260045260246000fd5b60200101907effffffffffffffffffffffffffffffffffffffffffffffffffffffffffffff1916908160001a9053507f780000000000000000000000000000000000000000000000000000000000000081600181518110612a6e57634e487b7160e01b600052603260045260246000fd5b60200101907effffffffffffffffffffffffffffffffffffffffffffffffffffffffffffff1916908160001a9053506000612aaa84600261336c565b612ab5906001613334565b90505b6001811115612b6e577f303132333435363738396162636465660000000000000000000000000000000085600f1660108110612b0457634e487b7160e01b600052603260045260246000fd5b1a60f81b828281518110612b2857634e487b7160e01b600052603260045260246000fd5b60200101907effffffffffffffffffffffffffffffffffffffffffffffffffffffffffffff1916908160001a90535060049490941c93612b67816133ce565b9050612ab8565b508315612bbd5760405162461bcd60e51b815260206004820181905260248201527f537472696e67733a20686578206c656e67746820696e73756666696369656e7460448201526064016108d7565b9392505050565b600080805b8351811015612d7e57600260016000868481518110612bf857634e487b7160e01b600052603260045260246000fd5b6020908102919091018101516001600160a01b031682528101919091526040016000206002015460ff166003811115612c4157634e487b7160e01b600052602160045260246000fd5b148015612cbe5750612cbe7f0182a37f4cfe4a11c9cc13af6a96350bc084bedfd41df0928670dbabcfe3aea1858381518110612c8d57634e487b7160e01b600052603260045260246000fd5b60200260200101516000918252602082815260408084206001600160a01b0393909316845291905290205460ff1690565b612d305760405162461bcd60e51b815260206004820152603e60248201527f524d3a204e67756f6920706865206475796574206b686f6e672070686169207460448201527f68616e68207669656e2042444820686f617420646f6e6720686f70206c65000060648201526084016108d7565b612d60848281518110612d5357634e487b7160e01b600052603260045260246000fd5b602002602001015161243f565b612d6a9083613334565b915080612d76816133e5565b915050612bc9565b5092915050565b6000828152602081815260408083206001600160a01b038516845290915290205460ff1661136857612dc1816001600160a01b0316601461294e565b612dcc83602061294e565b604051602001612ddd9291906131e8565b60408051601f198184030181529082905262461bcd60e51b82526108d7916004016132b6565b6000828152602081815260408083206001600160a01b038516845290915290205460ff16611368576000828152602081815260408083206001600160a01b03851684529091529020805460ff19166001179055612e5d3390565b6001600160a01b0316816001600160a01b0316837f2f8788117e7eff1d82e926ec794901d17c78024a50270940304540a733656f0d60405160405180910390a45050565b6000828152602081815260408083206001600160a01b038516845290915290205460ff1615611368576000828152602081815260408083206001600160a01b0385168085529252808320805460ff1916905551339285917ff6391f5c32d9c69d2a47ea670b442974b53935d1edc7fd64eb21e047a839171b9190a45050565b6040518060600160405280600081526020016000815260200160006003811115612f5a57634e487b7160e01b600052602160045260246000fd5b905290565b80356001600160a01b0381168114612f7657600080fd5b919050565b600082601f830112612f8b578081fd5b8135602067ffffffffffffffff80831115612fa857612fa8613436565b8260051b604051601f19603f83011681018181108482111715612fcd57612fcd613436565b60405284815283810192508684018288018501891015612feb578687fd5b8692505b858310156130145761300081612f5f565b845292840192600192909201918401612fef565b50979650505050505050565b600060208284031215613031578081fd5b612bbd82612f5f565b6000806040838503121561304c578081fd5b61305583612f5f565b9150602083013567ffffffffffffffff811115613070578182fd5b61307c85828601612f7b565b9150509250929050565b60008060408385031215613098578182fd5b6130a183612f5f565b946020939093013593505050565b6000806000606084860312156130c3578081fd5b6130cc84612f5f565b925060208401359150604084013567ffffffffffffffff8111156130ee578182fd5b6130fa86828701612f7b565b9150509250925092565b600060208284031215613115578081fd5b5035919050565b6000806040838503121561312e578182fd5b8235915061313e60208401612f5f565b90509250929050565b60008060006060848603121561315b578283fd5b8335925061316b60208501612f5f565b9150604084013567ffffffffffffffff8111156130ee578182fd5b600060208284031215613197578081fd5b81357fffffffff0000000000000000000000000000000000000000000000000000000081168114612bbd578182fd5b600481106131e457634e487b7160e01b600052602160045260246000fd5b9052565b7f416363657373436f6e74726f6c3a206163636f756e74200000000000000000008152600083516132208160178501602088016133a2565b7f206973206d697373696e6720726f6c6520000000000000000000000000000000601791840191820152835161325d8160288401602088016133a2565b01602801949350505050565b6020808252825182820181905260009190848201906040850190845b818110156132aa5783516001600160a01b031683529284019291840191600101613285565b50909695505050505050565b60208152600082518060208401526132d58160408501602087016133a2565b601f01601f19169190910160400192915050565b600060608201905082518252602083015160208301526040830151612d7e60408401826131c6565b838152602081018390526060810161332c60408301846131c6565b949350505050565b6000821982111561334757613347613420565b500190565b60008261336757634e487b7160e01b81526012600452602481fd5b500490565b600081600019048311821515161561338657613386613420565b500290565b60008282101561339d5761339d613420565b500390565b60005b838110156133bd5781810151838201526020016133a5565b83811115610cce5750506000910152565b6000816133dd576133dd613420565b506000190190565b60006000198214156133f9576133f9613420565b5060010190565b600060ff821660ff81141561341757613417613420565b60010192915050565b634e487b7160e01b600052601160045260246000fd5b634e487b7160e01b600052604160045260246000fdfea26469706673582212208732eb7129ac27a9756a16cb6127c6d94042e28a22667e78da552bf171fc7fa264736f6c63430008040033",
  "immutableReferences": {},
  "source": "// SPDX-License-Identifier: MIT\r\npragma solidity ^0.8.4;\r\n\r\nimport \"@openzeppelin/contracts/access/AccessControl.sol\";\r\n\r\ncontract RoleManagement is AccessControl {\r\n    bytes32 public constant BOARD_ROLE = keccak256(\"BOARD_ROLE\");\r\n    bytes32 public constant WAREHOUSE_DIRECTOR_ROLE = keccak256(\"WAREHOUSE_DIRECTOR_ROLE\");\r\n    bytes32 public constant STORE_DIRECTOR_ROLE = keccak256(\"STORE_DIRECTOR_ROLE\");\r\n    bytes32 public constant FINANCE_DIRECTOR_ROLE = keccak256(\"FINANCE_DIRECTOR_ROLE\");\r\n    bytes32 public constant WAREHOUSE_MANAGER_ROLE = keccak256(\"WAREHOUSE_MANAGER_ROLE\");\r\n    bytes32 public constant STORE_MANAGER_ROLE = keccak256(\"STORE_MANAGER_ROLE\");\r\n    bytes32 public constant SUPPLIER_ROLE = keccak256(\"SUPPLIER_ROLE\");\r\n\r\n    enum BoardMemberStatus {\r\n        None,               // Cha c trng thi\r\n        PendingConfirmation,//  c BH hin ti ph duyt s b, ch ng vin xc nhn v gp vn\r\n        Active,             // Thnh vin BH chnh thc\r\n        Removed             //  b loi b\r\n    }\r\n\r\n    struct BoardMember {\r\n        uint256 shareCapitalProposed;   // Vn gp c  xut/quy c khi  trng thi PendingConfirmation\r\n        uint256 shareCapitalContributed;// Vn thc t  gp khi tr thnh Active\r\n        BoardMemberStatus status;       // Trng thi ca thnh vin/ng vin\r\n    }\r\n\r\n    mapping(address => BoardMember) public boardMembers;\r\n    address[] public boardAddresses; // Ch lu cc thnh vin Active\r\n    uint256 public totalCapital;    // Tng vn gp ca cc thnh vin Active\r\n\r\n    address public companyTreasuryManagerAddress; // a ch CTM  ch CTM mi c gi hm kch hot\r\n\r\n    uint8 public initialMembersAddedCount; // m s thnh vin BH ban u  c thm qua c ch bootstrap\r\n    uint8 public constant MAX_INITIAL_MEMBERS = 3; // S lng thnh vin bootstrap ti a\r\n\r\n    event BoardMemberProposed(address indexed candidate, uint256 shareCapitalProposed); //  xut thng thng\r\n    event InitialBoardMemberProposedByAdmin(address indexed candidate, uint256 shareCapitalProposed); //  xut trong giai on bootstrap\r\n    event BoardMemberActivated(address indexed member, uint256 shareCapitalContributed);\r\n    event BoardMemberRemoved(address indexed member);\r\n    event CompanyTreasuryManagerAddressSet(address indexed ctmAddress);\r\n\r\n\r\nconstructor() {\r\n        // 1. S dng _setupRole  cp DEFAULT_ADMIN_ROLE cho ngi deploy\r\n        _setupRole(DEFAULT_ADMIN_ROLE, msg.sender); // SA  Y: Dng _setupRole\r\n\r\n        // 2. Thit lp ngi deploy lm thnh vin BH hot ng u tin\r\n        address initialBoardMember = msg.sender;\r\n        uint256 initialCapitalContribution = uint256(10 ether); // V d vn gp ban u\r\n\r\n        require(initialBoardMember != address(0), \"RM: Dia chi nguoi trien khai khong hop le\");\r\n\r\n        BoardMember storage member = boardMembers[initialBoardMember];\r\n        member.shareCapitalProposed = initialCapitalContribution;\r\n        member.shareCapitalContributed = initialCapitalContribution;\r\n        member.status = BoardMemberStatus.Active;\r\n\r\n        boardAddresses.push(initialBoardMember);\r\n        // Gi y msg.sender (ngi deploy)  c DEFAULT_ADMIN_ROLE,\r\n        // nn c th cp BOARD_ROLE cho chnh mnh (hoc ngi khc) bng _grantRole\r\n        grantRole(BOARD_ROLE, initialBoardMember); // Dng ny vn dng _grantRole l ng\r\n\r\n        totalCapital = initialCapitalContribution;\r\n        initialMembersAddedCount = 1; \r\n\r\n        emit BoardMemberActivated(initialBoardMember, initialCapitalContribution);\r\n    }\r\n    \r\n    modifier onlyAdmin() {\r\n        require(hasRole(DEFAULT_ADMIN_ROLE, msg.sender), \"RM: Chi Admin duoc phep\");\r\n        _;\r\n    }\r\n    \r\n    modifier onlyActiveBoardMember() {\r\n        require(boardMembers[msg.sender].status == BoardMemberStatus.Active && hasRole(BOARD_ROLE, msg.sender), \"RM: Chi thanh vien BDH hoat dong duoc phep\");\r\n        _;\r\n    }\r\n\r\n    modifier onlyCTM() {\r\n        require(msg.sender == companyTreasuryManagerAddress, \"RM: Chi CTM moi duoc goi ham nay\");\r\n        _;\r\n    }\r\n\r\n    function setCompanyTreasuryManagerAddress(address _ctmAddress) external onlyAdmin {\r\n        require(_ctmAddress != address(0), \"RM: Dia chi CTM khong hop le\");\r\n        companyTreasuryManagerAddress = _ctmAddress;\r\n        emit CompanyTreasuryManagerAddressSet(_ctmAddress);\r\n    }\r\n\r\n    function getSharesPercentage(address account) public view returns (uint256) {\r\n        if (boardMembers[account].status != BoardMemberStatus.Active || totalCapital == 0) {\r\n            return 0;\r\n        }\r\n        return (boardMembers[account].shareCapitalContributed * 10000) / totalCapital;\r\n    }\r\n\r\n    function _sumSharesPercentage(address[] memory approvers) internal view returns (uint256) {\r\n        uint256 totalPercentageSum = 0;\r\n        for (uint i = 0; i < approvers.length; i++) {\r\n            require(boardMembers[approvers[i]].status == BoardMemberStatus.Active && hasRole(BOARD_ROLE, approvers[i]), \"RM: Nguoi phe duyet khong phai thanh vien BDH hoat dong hop le\");\r\n            totalPercentageSum += getSharesPercentage(approvers[i]);\r\n        }\r\n        return totalPercentageSum;\r\n    }\r\n\r\n    // Bc Bootstrap: Admin thm cc thnh vin BH ban u (ti a MAX_INITIAL_MEMBERS - 1 ngi na)\r\n    function addInitialBoardMemberByAdmin(address _candidate, uint256 _shareCapitalProposed)\r\n        external\r\n        onlyAdmin \r\n    {\r\n        require(initialMembersAddedCount < MAX_INITIAL_MEMBERS, \"RM: Da dat so luong thanh vien BDH ban dau toi da\");\r\n        require(_candidate != address(0), \"RM: Dia chi ung vien khong hop le\");\r\n        BoardMember storage member = boardMembers[_candidate];\r\n        require(member.status == BoardMemberStatus.None, \"RM: Ung vien da ton tai hoac dang trong qua trinh xu ly\");\r\n        require(_shareCapitalProposed > 0, \"RM: Von gop de xuat phai lon hon 0\");\r\n\r\n        member.shareCapitalProposed = _shareCapitalProposed;\r\n        member.status = BoardMemberStatus.PendingConfirmation;\r\n        \r\n        initialMembersAddedCount++; \r\n        emit InitialBoardMemberProposedByAdmin(_candidate, _shareCapitalProposed);\r\n    }\r\n\r\n    // Bc Thng thng: BH hin ti  xut ng vin mi (sau giai on bootstrap)\r\n    function proposeBoardMember(address _candidate, uint256 _shareCapitalProposed, address[] memory _approvers)\r\n        external\r\n        onlyActiveBoardMember \r\n    {\r\n        require(initialMembersAddedCount >= MAX_INITIAL_MEMBERS, \"RM: Quy trinh bootstrap chua hoan tat hoac da du thanh vien bootstrap\");\r\n        require(_candidate != address(0), \"RM: Dia chi ung vien khong hop le\");\r\n        BoardMember storage member = boardMembers[_candidate];\r\n        require(member.status == BoardMemberStatus.None, \"RM: Ung vien da ton tai hoac dang trong qua trinh xu ly\");\r\n        require(_shareCapitalProposed > 0, \"RM: Von gop de xuat phai lon hon 0\");\r\n        require(_approvers.length > 0, \"RM: Can it nhat mot nguoi phe duyet (khac nguoi de xuat)\");\r\n\r\n        for(uint i = 0; i < _approvers.length; i++) {\r\n            require(_approvers[i] != msg.sender, \"RM: Nguoi de xuat khong duoc tu phe duyet trong danh sach approvers\");\r\n        }\r\n\r\n        uint256 approvalSharesPercent = _sumSharesPercentage(_approvers);\r\n        require(approvalSharesPercent > 5000, \"RM: Khong du ty le co phan BDH phe duyet de xuat\");\r\n\r\n        member.shareCapitalProposed = _shareCapitalProposed;\r\n        member.status = BoardMemberStatus.PendingConfirmation;\r\n        \r\n        emit BoardMemberProposed(_candidate, _shareCapitalProposed);\r\n    }\r\n\r\n    // Bc 2 (chung cho c bootstrap v thng thng): CTM gi hm ny sau khi nhn c vn gp\r\n    function activateBoardMemberByTreasury(address _candidate, uint256 _contributedAmount) \r\n        external \r\n        onlyCTM \r\n    {\r\n        BoardMember storage member = boardMembers[_candidate];\r\n        require(member.status == BoardMemberStatus.PendingConfirmation, \"RM: Ung vien khong o trang thai cho xac nhan\");\r\n        require(_contributedAmount == member.shareCapitalProposed, \"RM: So tien CTM bao cao khong khop voi de xuat\");\r\n\r\n        member.status = BoardMemberStatus.Active;\r\n        member.shareCapitalContributed = _contributedAmount;\r\n        \r\n        bool alreadyInArray = false;\r\n        for(uint i = 0; i < boardAddresses.length; i++){\r\n            if(boardAddresses[i] == _candidate){\r\n                alreadyInArray = true;\r\n                break;\r\n            }\r\n        }\r\n        if(!alreadyInArray){\r\n            boardAddresses.push(_candidate);\r\n        }\r\n\r\n        grantRole(BOARD_ROLE, _candidate);\r\n        totalCapital += _contributedAmount;\r\n        emit BoardMemberActivated(_candidate, _contributedAmount);\r\n    }\r\n    \r\n    // Hm  CTM c s vn  xut ca mt ng vin\r\n    function getProposedShareCapital(address _candidate) external view returns (uint256) {\r\n        // Cho php CTM, Admin, v BH hin ti xem\r\n        require(msg.sender == companyTreasuryManagerAddress || \r\n                hasRole(DEFAULT_ADMIN_ROLE, msg.sender) || \r\n                (boardMembers[msg.sender].status == BoardMemberStatus.Active && hasRole(BOARD_ROLE, msg.sender)), \r\n                \"RM: Khong co quyen truy cap thong tin von de xuat\");\r\n        \r\n        if (boardMembers[_candidate].status == BoardMemberStatus.PendingConfirmation) {\r\n            return boardMembers[_candidate].shareCapitalProposed;\r\n        }\r\n        return 0; // Hoc revert nu khng tm thy hoc trng thi khng ng\r\n    }\r\n\r\n    // Hm xa thnh vin Ban Gim c\r\n    function removeBoardMember(address _accountToRemove, address[] memory _approvers)\r\n        external\r\n        onlyActiveBoardMember // Ngi  xut xa phi l BH hot ng\r\n    {\r\n        require(boardMembers[_accountToRemove].status == BoardMemberStatus.Active, \"RM: Tai khoan khong phai la thanh vien BDH hoat dong de xoa\");\r\n        require(_approvers.length > 0, \"RM: Can nguoi phe duyet viec xoa\");\r\n\r\n        for(uint i = 0; i < _approvers.length; i++) {\r\n            require(_approvers[i] != msg.sender, \"RM: Nguoi de xuat xoa khong duoc tu phe duyet\");\r\n            require(_approvers[i] != _accountToRemove, \"RM: Tai khoan bi xoa khong the phe duyet viec xoa chinh minh\");\r\n        }\r\n\r\n        uint256 approvalSharesPercent = _sumSharesPercentage(_approvers);\r\n        require(approvalSharesPercent > 5000, \"RM: Khong du ty le co phan BDH phe duyet viec xoa\");\r\n\r\n        totalCapital -= boardMembers[_accountToRemove].shareCapitalContributed;\r\n        revokeRole(BOARD_ROLE, _accountToRemove);\r\n        boardMembers[_accountToRemove].status = BoardMemberStatus.Removed;\r\n        // boardMembers[_accountToRemove].shareCapitalContributed = 0; // Optional: reset contributed capital\r\n\r\n        for (uint i = 0; i < boardAddresses.length; i++) {\r\n            if (boardAddresses[i] == _accountToRemove) {\r\n                boardAddresses[i] = boardAddresses[boardAddresses.length - 1];\r\n                boardAddresses.pop();\r\n                break;\r\n            }\r\n        }\r\n        emit BoardMemberRemoved(_accountToRemove);\r\n    }\r\n\r\n    // Cc hm cp/thu hi vai tr khc (Director, Supplier) bi BH\r\n    function grantRoleByBoard(bytes32 role, address account, address[] memory approvers) external onlyActiveBoardMember {\r\n        require(\r\n            role == WAREHOUSE_DIRECTOR_ROLE ||\r\n            role == STORE_DIRECTOR_ROLE ||\r\n            role == FINANCE_DIRECTOR_ROLE ||\r\n            role == SUPPLIER_ROLE, \"RM: Vai tro khong hop le de BDH cap/thu hoi\"\r\n        );\r\n        require(account != address(0), \"RM: Tai khoan khong hop le\");\r\n        require(approvers.length > 0, \"RM: Can nguoi phe duyet\");\r\n         for(uint i = 0; i < approvers.length; i++) { // m bo ngi  xut khng t duyt\r\n            require(approvers[i] != msg.sender, \"RM: Nguoi de xuat cap vai tro khong duoc tu phe duyet\");\r\n        }\r\n        uint256 approvalSharesPercent = _sumSharesPercentage(approvers);\r\n        require(approvalSharesPercent > 5000, \"RM: Khong du co phan phe duyet\");\r\n        grantRole(role, account);\r\n    }\r\n\r\n    function revokeRoleByBoard(bytes32 role, address account, address[] memory approvers) external onlyActiveBoardMember {\r\n         require(\r\n            role == WAREHOUSE_DIRECTOR_ROLE ||\r\n            role == STORE_DIRECTOR_ROLE ||\r\n            role == FINANCE_DIRECTOR_ROLE ||\r\n            role == SUPPLIER_ROLE, \"RM: Vai tro khong hop le de BDH cap/thu hoi\"\r\n        );\r\n        require(account != address(0), \"RM: Tai khoan khong hop le\");\r\n        require(approvers.length > 0, \"RM: Can nguoi phe duyet\");\r\n        for(uint i = 0; i < approvers.length; i++) { // m bo ngi  xut khng t duyt\r\n            require(approvers[i] != msg.sender, \"RM: Nguoi de xuat thu hoi vai tro khong duoc tu phe duyet\");\r\n        }\r\n        uint256 approvalSharesPercent = _sumSharesPercentage(approvers);\r\n        require(approvalSharesPercent > 5000, \"RM: Khong du co phan phe duyet\");\r\n        revokeRole(role, account);\r\n    }\r\n\r\n    // Cc hm cp/thu hi vai tr Manager bi Director tng ng\r\n    function grantWarehouseManager(address account) external {\r\n        require(hasRole(WAREHOUSE_DIRECTOR_ROLE, msg.sender), \"RM: Chi GD Kho duoc phep\");\r\n        grantRole(WAREHOUSE_MANAGER_ROLE, account);\r\n    }\r\n    function revokeWarehouseManager(address account) external {\r\n         require(hasRole(WAREHOUSE_DIRECTOR_ROLE, msg.sender), \"RM: Chi GD Kho duoc phep\");\r\n        revokeRole(WAREHOUSE_MANAGER_ROLE, account);\r\n    }\r\n\r\n    function grantStoreManager(address account) external {\r\n        require(hasRole(STORE_DIRECTOR_ROLE, msg.sender), \"RM: Chi GD Cua hang duoc phep\");\r\n        grantRole(STORE_MANAGER_ROLE, account);\r\n    }\r\n    function revokeStoreManager(address account) external {\r\n        require(hasRole(STORE_DIRECTOR_ROLE, msg.sender), \"RM: Chi GD Cua hang duoc phep\");\r\n        revokeRole(STORE_MANAGER_ROLE, account);\r\n    }\r\n\r\n    // --- View Functions ---\r\n    function getBoardMembers() external view returns (address[] memory) { return boardAddresses; }\r\n    function getBoardMemberInfo(address member) external view returns (BoardMember memory) { return boardMembers[member]; }\r\n\r\n    // --- Role ID Getters ---\r\n    function BOARD_ROLE_ID() external pure returns (bytes32) { return BOARD_ROLE; }\r\n    function WAREHOUSE_DIRECTOR_ROLE_ID() external pure returns (bytes32) { return WAREHOUSE_DIRECTOR_ROLE; }\r\n    function STORE_DIRECTOR_ROLE_ID() external pure returns (bytes32) { return STORE_DIRECTOR_ROLE; }\r\n    function FINANCE_DIRECTOR_ROLE_ID() external pure returns (bytes32) { return FINANCE_DIRECTOR_ROLE; }\r\n    function WAREHOUSE_MANAGER_ROLE_ID() external pure returns (bytes32) { return WAREHOUSE_MANAGER_ROLE; }\r\n    function STORE_MANAGER_ROLE_ID() external pure returns (bytes32) { return STORE_MANAGER_ROLE; }\r\n    function SUPPLIER_ROLE_ID() external pure returns (bytes32) { return SUPPLIER_ROLE; }\r\n    function DEFAULT_ADMIN_ROLE_ID() external pure returns (bytes32) { return DEFAULT_ADMIN_ROLE; }\r\n}",
  "sourcePath": "D:\\nhi\\Logtech\\New tech in Log\\dapp2\\SC\\contracts\\RoleManagement.sol",
  "compiler": {
    "name": "solc",
    "version": "0.8.4+commit.c7e474f2.Emscripten.clang"
  },
  "schemaVersion": "3.4.16",
  "updatedAt": "2025-06-02T14:38:43.052Z",
  "networkType": "ethereum",
  "devdoc": {
    "kind": "dev",
    "methods": {
      "getRoleAdmin(bytes32)": {
        "details": "Returns the admin role that controls `role`. See {grantRole} and {revokeRole}. To change a role's admin, use {_setRoleAdmin}."
      },
      "grantRole(bytes32,address)": {
        "details": "Grants `role` to `account`. If `account` had not been already granted `role`, emits a {RoleGranted} event. Requirements: - the caller must have ``role``'s admin role."
      },
      "hasRole(bytes32,address)": {
        "details": "Returns `true` if `account` has been granted `role`."
      },
      "renounceRole(bytes32,address)": {
        "details": "Revokes `role` from the calling account. Roles are often managed via {grantRole} and {revokeRole}: this function's purpose is to provide a mechanism for accounts to lose their privileges if they are compromised (such as when a trusted device is misplaced). If the calling account had been granted `role`, emits a {RoleRevoked} event. Requirements: - the caller must be `account`."
      },
      "revokeRole(bytes32,address)": {
        "details": "Revokes `role` from `account`. If `account` had been granted `role`, emits a {RoleRevoked} event. Requirements: - the caller must have ``role``'s admin role."
      },
      "supportsInterface(bytes4)": {
        "details": "See {IERC165-supportsInterface}."
      }
    },
    "version": 1
  },
  "userdoc": {
    "kind": "user",
    "methods": {},
    "version": 1
  }
}