{
  "contractName": "StoreInventoryManagement",
  "abi": [
    {
      "inputs": [
        {
          "internalType": "address",
          "name": "_roleManagementAddress",
          "type": "address"
        },
        {
          "internalType": "address",
          "name": "_itemsManagementAddress",
          "type": "address"
        }
      ],
      "stateMutability": "nonpayable",
      "type": "constructor"
    },
    {
      "anonymous": false,
      "inputs": [
        {
          "indexed": true,
          "internalType": "address",
          "name": "comAddress",
          "type": "address"
        }
      ],
      "name": "CustomerOrderManagementAddressSet",
      "type": "event"
    },
    {
      "anonymous": false,
      "inputs": [
        {
          "indexed": true,
          "internalType": "address",
          "name": "previousOwner",
          "type": "address"
        },
        {
          "indexed": true,
          "internalType": "address",
          "name": "newOwner",
          "type": "address"
        }
      ],
      "name": "OwnershipTransferred",
      "type": "event"
    },
    {
      "anonymous": false,
      "inputs": [
        {
          "indexed": true,
          "internalType": "address",
          "name": "storeAddress",
          "type": "address"
        },
        {
          "indexed": true,
          "internalType": "string",
          "name": "itemId",
          "type": "string"
        },
        {
          "indexed": false,
          "internalType": "uint256",
          "name": "quantityDeducted",
          "type": "uint256"
        },
        {
          "indexed": true,
          "internalType": "uint256",
          "name": "customerOrderId",
          "type": "uint256"
        }
      ],
      "name": "StockDeductedForSale",
      "type": "event"
    },
    {
      "anonymous": false,
      "inputs": [
        {
          "indexed": true,
          "internalType": "address",
          "name": "storeAddress",
          "type": "address"
        },
        {
          "indexed": true,
          "internalType": "string",
          "name": "itemId",
          "type": "string"
        },
        {
          "indexed": false,
          "internalType": "uint256",
          "name": "quantity",
          "type": "uint256"
        },
        {
          "indexed": true,
          "internalType": "address",
          "name": "fromWarehouse",
          "type": "address"
        },
        {
          "indexed": false,
          "internalType": "uint256",
          "name": "wimTransferId",
          "type": "uint256"
        }
      ],
      "name": "StockReceivedAtStore",
      "type": "event"
    },
    {
      "anonymous": false,
      "inputs": [
        {
          "indexed": true,
          "internalType": "address",
          "name": "storeAddress",
          "type": "address"
        },
        {
          "indexed": true,
          "internalType": "address",
          "name": "designatedWarehouse",
          "type": "address"
        },
        {
          "indexed": false,
          "internalType": "string",
          "name": "itemId",
          "type": "string"
        },
        {
          "indexed": false,
          "internalType": "uint256",
          "name": "quantity",
          "type": "uint256"
        },
        {
          "indexed": true,
          "internalType": "uint256",
          "name": "wimTransferId",
          "type": "uint256"
        },
        {
          "indexed": false,
          "internalType": "address",
          "name": "byStoreManager",
          "type": "address"
        }
      ],
      "name": "StockRequestedFromWarehouse",
      "type": "event"
    },
    {
      "anonymous": false,
      "inputs": [
        {
          "indexed": true,
          "internalType": "address",
          "name": "storeAddress",
          "type": "address"
        },
        {
          "indexed": true,
          "internalType": "string",
          "name": "itemId",
          "type": "string"
        },
        {
          "indexed": false,
          "internalType": "int256",
          "name": "quantityChange",
          "type": "int256"
        },
        {
          "indexed": false,
          "internalType": "string",
          "name": "reason",
          "type": "string"
        },
        {
          "indexed": true,
          "internalType": "address",
          "name": "byAdminOrManager",
          "type": "address"
        }
      ],
      "name": "StoreStockAdjusted",
      "type": "event"
    },
    {
      "anonymous": false,
      "inputs": [
        {
          "indexed": true,
          "internalType": "address",
          "name": "wimAddress",
          "type": "address"
        }
      ],
      "name": "WarehouseInventoryManagementAddressSet",
      "type": "event"
    },
    {
      "inputs": [],
      "name": "customerOrderManagementAddress",
      "outputs": [
        {
          "internalType": "address",
          "name": "",
          "type": "address"
        }
      ],
      "stateMutability": "view",
      "type": "function"
    },
    {
      "inputs": [],
      "name": "itemsManagementExternal",
      "outputs": [
        {
          "internalType": "contract IItemsManagementInterface",
          "name": "",
          "type": "address"
        }
      ],
      "stateMutability": "view",
      "type": "function"
    },
    {
      "inputs": [],
      "name": "owner",
      "outputs": [
        {
          "internalType": "address",
          "name": "",
          "type": "address"
        }
      ],
      "stateMutability": "view",
      "type": "function"
    },
    {
      "inputs": [],
      "name": "renounceOwnership",
      "outputs": [],
      "stateMutability": "nonpayable",
      "type": "function"
    },
    {
      "inputs": [],
      "name": "roleManagementExternal",
      "outputs": [
        {
          "internalType": "contract IRoleManagementInterface",
          "name": "",
          "type": "address"
        }
      ],
      "stateMutability": "view",
      "type": "function"
    },
    {
      "inputs": [
        {
          "internalType": "address",
          "name": "",
          "type": "address"
        },
        {
          "internalType": "string",
          "name": "",
          "type": "string"
        }
      ],
      "name": "storeStockLevels",
      "outputs": [
        {
          "internalType": "uint256",
          "name": "",
          "type": "uint256"
        }
      ],
      "stateMutability": "view",
      "type": "function"
    },
    {
      "inputs": [
        {
          "internalType": "address",
          "name": "newOwner",
          "type": "address"
        }
      ],
      "name": "transferOwnership",
      "outputs": [],
      "stateMutability": "nonpayable",
      "type": "function"
    },
    {
      "inputs": [],
      "name": "warehouseInventoryManagementExternal",
      "outputs": [
        {
          "internalType": "contract IWarehouseInventoryManagementInterface",
          "name": "",
          "type": "address"
        }
      ],
      "stateMutability": "view",
      "type": "function"
    },
    {
      "inputs": [
        {
          "internalType": "address",
          "name": "_wimAddress",
          "type": "address"
        }
      ],
      "name": "setWarehouseInventoryManagementAddress",
      "outputs": [],
      "stateMutability": "nonpayable",
      "type": "function"
    },
    {
      "inputs": [
        {
          "internalType": "address",
          "name": "_comAddress",
          "type": "address"
        }
      ],
      "name": "setCustomerOrderManagementAddress",
      "outputs": [],
      "stateMutability": "nonpayable",
      "type": "function"
    },
    {
      "inputs": [
        {
          "internalType": "address",
          "name": "_storeAddress",
          "type": "address"
        },
        {
          "internalType": "string",
          "name": "_itemId",
          "type": "string"
        },
        {
          "internalType": "uint256",
          "name": "_quantity",
          "type": "uint256"
        }
      ],
      "name": "requestStockFromDesignatedWarehouse",
      "outputs": [],
      "stateMutability": "nonpayable",
      "type": "function"
    },
    {
      "inputs": [
        {
          "internalType": "address",
          "name": "_storeAddress",
          "type": "address"
        },
        {
          "internalType": "string",
          "name": "_itemId",
          "type": "string"
        },
        {
          "internalType": "uint256",
          "name": "_quantity",
          "type": "uint256"
        },
        {
          "internalType": "address",
          "name": "_fromWarehouseAddress",
          "type": "address"
        },
        {
          "internalType": "uint256",
          "name": "_internalTransferId",
          "type": "uint256"
        }
      ],
      "name": "confirmStockReceivedFromWarehouse",
      "outputs": [],
      "stateMutability": "nonpayable",
      "type": "function"
    },
    {
      "inputs": [
        {
          "internalType": "address",
          "name": "_storeAddress",
          "type": "address"
        },
        {
          "internalType": "string",
          "name": "_itemId",
          "type": "string"
        },
        {
          "internalType": "uint256",
          "name": "_quantity",
          "type": "uint256"
        },
        {
          "internalType": "uint256",
          "name": "_customerOrderId",
          "type": "uint256"
        }
      ],
      "name": "deductStockForCustomerSale",
      "outputs": [],
      "stateMutability": "nonpayable",
      "type": "function"
    },
    {
      "inputs": [
        {
          "internalType": "address",
          "name": "_storeAddress",
          "type": "address"
        },
        {
          "internalType": "string",
          "name": "_itemId",
          "type": "string"
        },
        {
          "internalType": "int256",
          "name": "_quantityChange",
          "type": "int256"
        },
        {
          "internalType": "string",
          "name": "_reason",
          "type": "string"
        }
      ],
      "name": "adjustStoreStockManually",
      "outputs": [],
      "stateMutability": "nonpayable",
      "type": "function"
    },
    {
      "inputs": [
        {
          "internalType": "address",
          "name": "_storeAddress",
          "type": "address"
        },
        {
          "internalType": "string",
          "name": "_itemId",
          "type": "string"
        }
      ],
      "name": "getStoreStockLevel",
      "outputs": [
        {
          "internalType": "uint256",
          "name": "",
          "type": "uint256"
        }
      ],
      "stateMutability": "view",
      "type": "function"
    }
  ],
  "bytecode": "0x60806040523480156200001157600080fd5b5060405162001c8838038062001c88833981016040819052620000349162000185565b600080546001600160a01b031916339081178255604051909182917f8be0079c531659141344cd1fd0a4f28419497f9722a3daafe3b4186f6b6457e0908290a3506001600160a01b038216620000d15760405162461bcd60e51b815260206004820152601c60248201527f53494d3a204469612063686920524d206b686f6e6720686f70206c650000000060448201526064015b60405180910390fd5b600180546001600160a01b0319166001600160a01b03848116919091179091558116620001415760405162461bcd60e51b815260206004820181905260248201527f53494d3a2044696120636869204974656d734d206b686f6e6720686f70206c656044820152606401620000c8565b600280546001600160a01b0319166001600160a01b039290921691909117905550620001bc565b80516001600160a01b03811681146200018057600080fd5b919050565b6000806040838503121562000198578182fd5b620001a38362000168565b9150620001b36020840162000168565b90509250929050565b611abc80620001cc6000396000f3fe608060405234801561001057600080fd5b50600436106100c55760003560e01c806318492987146100ca57806347970052146100f3578063626f94d6146101085780636718b05b1461011b578063715018a61461012e5780637b0f813c146101365780638a4d65f2146101495780638da5cb5b146101935780639ac01de61461019b578063d04cc29b146101ae578063dc94b946146101c1578063e6a21943146101d4578063eb2ca110146101e7578063f2fde38b146101fa578063f4ddd27a1461020d575b600080fd5b6003546100dd906001600160a01b031681565b6040516100ea9190611818565b60405180910390f35b610106610101366004611488565b610220565b005b610106610116366004611413565b610687565b6004546100dd906001600160a01b031681565b610106610756565b6101066101443660046115e2565b6107bd565b610185610157366004611646565b6005602090815260009283526040909220815180830184018051928152908401929093019190912091525481565b6040519081526020016100ea565b6100dd6109d8565b6101066101a9366004611569565b6109e7565b6002546100dd906001600160a01b031681565b6101066101cf366004611510565b610bc8565b6001546100dd906001600160a01b031681565b6101856101f5366004611436565b611128565b610106610208366004611413565b611191565b61010661021b366004611413565b61126e565b600061022a6109d8565b6001600160a01b0316336001600160a01b03161490506000816103fe5760025460405163329a587360e01b81526000916001600160a01b03169063329a587390610278908c90600401611818565b60006040518083038186803b15801561029057600080fd5b505afa1580156102a4573d6000803e3d6000fd5b505050506040513d6000823e601f3d908101601f191682016040526102cc91908101906116ff565b9050806080015180156102eb575060608101516001600160a01b031633145b156103fc57600154604080516303e20ef360e31b815290516000926001600160a01b031691631f107798916004808301926020929190829003018186803b15801561033557600080fd5b505afa158015610349573d6000803e3d6000fd5b505050506040513d601f19601f8201168201806040525081019061036d91906116e7565b600154604051632474521560e21b81529192506001600160a01b0316906391d14854906103a09084903390600401611874565b60206040518083038186803b1580156103b857600080fd5b505afa1580156103cc573d6000803e3d6000fd5b505050506040513d601f19601f820116820180604052508101906103f091906116cd565b156103fa57600192505b505b505b81806104075750805b6104745760405162461bcd60e51b815260206004820152603360248201527f53494d3a204b686f6e6720636f20717579656e2064696575206368696e6820746044820152726f6e206b686f206375612068616e67206e617960681b60648201526084015b60405180910390fd5b6001600160a01b038816600090815260056020526040808220905161049c908a908a90611808565b908152602001604051809103902054905060008613156104fe576104c086826119d9565b6001600160a01b038a166000908152600560205260409081902090516104e9908b908b90611808565b9081526040519081900360200190205561061d565b60008612156105c157600061051287611a08565b9050808210156105785760405162461bcd60e51b815260206004820152602b60248201527f53494d3a2044696575206368696e682074687520636f6e672064616e2064656e60448201526a20746f6e206b686f20616d60a81b606482015260840161046b565b61058281836119f1565b6001600160a01b038b166000908152600560205260409081902090516105ab908c908c90611808565b908152604051908190036020019020555061061d565b60405162461bcd60e51b815260206004820152602b60248201527f53494d3a205468617920646f6920736f206c756f6e67206b686f6e672074686560448201526a2062616e67206b686f6e6760a81b606482015260840161046b565b604051339061062f908a908a90611808565b60405180910390208a6001600160a01b03167ffb5dfbe66914f7eaeb79eb9cace7c205345c751a42326b54ade553ebf68bc1f98989896040516106749392919061188b565b60405180910390a4505050505050505050565b336106906109d8565b6001600160a01b0316146106b65760405162461bcd60e51b815260040161046b90611925565b6001600160a01b03811661070c5760405162461bcd60e51b815260206004820152601d60248201527f53494d3a204469612063686920434f4d206b686f6e6720686f70206c65000000604482015260640161046b565b600480546001600160a01b0319166001600160a01b0383169081179091556040517ff60a7d245ccf77dd2036da1a1ad14a8c5dba1a9ccc98b56d0ad004b140c9472390600090a250565b3361075f6109d8565b6001600160a01b0316146107855760405162461bcd60e51b815260040161046b90611925565b600080546040516001600160a01b0390911690600080516020611a67833981519152908390a3600080546001600160a01b0319169055565b6004546001600160a01b031633146108175760405162461bcd60e51b815260206004820152601d60248201527f53494d3a204e67756f6920676f69206b686f6e67207068616920434f4d000000604482015260640161046b565b6001600160a01b03851661083d5760405162461bcd60e51b815260040161046b906118e3565b600082116108985760405162461bcd60e51b815260206004820152602260248201527f53494d3a20536f206c756f6e67207472752070686169206c6120736f2064756f6044820152616e6760f01b606482015260840161046b565b6001600160a01b03851660009081526005602052604080822090516108c09087908790611808565b90815260200160405180910390205490508281101561092f5760405162461bcd60e51b815260206004820152602560248201527f53494d3a204b686f6e6720647520746f6e206b686f206375612068616e67206460448201526432903130b760d91b606482015260840161046b565b61093983826119f1565b6001600160a01b0387166000908152600560205260409081902090516109629088908890611808565b908152602001604051809103902081905550818585604051610985929190611808565b6040518091039020876001600160a01b03167f29b1e31f6ff829a325f63fc4bef376ea772e735f65e21879531683f99aa6c3d8866040516109c891815260200190565b60405180910390a4505050505050565b6000546001600160a01b031690565b6003546001600160a01b03163314610a415760405162461bcd60e51b815260206004820152601d60248201527f53494d3a204e67756f6920676f69206b686f6e6720706861692057494d000000604482015260640161046b565b6001600160a01b038616610a675760405162461bcd60e51b815260040161046b906118e3565b6001600160a01b038216610ac75760405162461bcd60e51b815260206004820152602160248201527f53494d3a2044696120636869206b686f20677569206b686f6e6720686f70206c6044820152606560f81b606482015260840161046b565b60008311610b175760405162461bcd60e51b815260206004820152601d60248201527f53494d3a20536f206c756f6e67206e68616e20706861692064756f6e67000000604482015260640161046b565b6001600160a01b038616600090815260056020526040908190209051849190610b439088908890611808565b90815260200160405180910390206000828254610b6091906119d9565b90915550506040516001600160a01b03831690610b809087908790611808565b6040805191829003822086835260208301859052916001600160a01b038a16917f52f87c542bd5d87d5adb3164a279f24fa2c53d27e879e17c8b400bc10cdc502691016109c8565b836001600160a01b038116610bef5760405162461bcd60e51b815260040161046b906118e3565b60025460405163329a587360e01b81526000916001600160a01b03169063329a587390610c20908590600401611818565b60006040518083038186803b158015610c3857600080fd5b505afa158015610c4c573d6000803e3d6000fd5b505050506040513d6000823e601f3d908101601f19168201604052610c7491908101906116ff565b90508060800151610cdc5760405162461bcd60e51b815260206004820152602c60248201527f53494d3a204375612068616e6720636875612064756f632064616e67206b792060448201526b74726f6e67204974656d734d60a01b606482015260840161046b565b60608101516001600160a01b03163314610d4f5760405162461bcd60e51b815260206004820152602e60248201527f53494d3a204e67756f6920676f69206b686f6e672070686169207175616e206c60448201526d79206375612068616e67206e617960901b606482015260840161046b565b600154604080516303e20ef360e31b815290516000926001600160a01b031691631f107798916004808301926020929190829003018186803b158015610d9457600080fd5b505afa158015610da8573d6000803e3d6000fd5b505050506040513d601f19601f82011682018060405250810190610dcc91906116e7565b600154604051632474521560e21b81529192506001600160a01b0316906391d1485490610dff9084903390600401611874565b60206040518083038186803b158015610e1757600080fd5b505afa158015610e2b573d6000803e3d6000fd5b505050506040513d601f19601f82011682018060405250810190610e4f91906116cd565b610eab5760405162461bcd60e51b815260206004820152602760248201527f53494d3a204e67756f6920676f69207468696575207661692074726f2051554160448201526609cbe98b2be86960cb1b606482015260840161046b565b6003546001600160a01b0316610f035760405162461bcd60e51b815260206004820152601e60248201527f53494d3a20446961206368692057494d20636875612064756f63206461740000604482015260640161046b565b60008411610f535760405162461bcd60e51b815260206004820152601e60248201527f53494d3a20536f206c756f6e672070686169206c6120736f2064756f6e670000604482015260640161046b565b60025460405163329a587360e01b81526000916001600160a01b03169063329a587390610f84908b90600401611818565b60006040518083038186803b158015610f9c57600080fd5b505afa158015610fb0573d6000803e3d6000fd5b505050506040513d6000823e601f3d908101601f19168201604052610fd891908101906116ff565b60c08101519091506001600160a01b03166110475760405162461bcd60e51b815260206004820152602960248201527f53494d3a204375612068616e67206b686f6e6720636f206b686f206e67756f6e604482015268040c6d0d240c8d2dcd60bb1b606482015260840161046b565b60035460c0820151604051631f8b929d60e01b81526000926001600160a01b031691631f8b929d916110869133918e91908e908e908e9060040161182c565b602060405180830381600087803b1580156110a057600080fd5b505af11580156110b4573d6000803e3d6000fd5b505050506040513d601f19601f820116820180604052508101906110d891906116e7565b9050808260c001516001600160a01b03168a6001600160a01b03167f9050656f654737d2120a21133900e4b61725a4a70ac1c8e16c5c015812dc9b638b8b8b3360405161067494939291906118ae565b60006001600160a01b0384166111505760405162461bcd60e51b815260040161046b906118e3565b6001600160a01b0384166000908152600560205260409081902090516111799085908590611808565b90815260200160405180910390205490509392505050565b3361119a6109d8565b6001600160a01b0316146111c05760405162461bcd60e51b815260040161046b90611925565b6001600160a01b0381166112255760405162461bcd60e51b815260206004820152602660248201527f4f776e61626c653a206e6577206f776e657220697320746865207a65726f206160448201526564647265737360d01b606482015260840161046b565b600080546040516001600160a01b0380851693921691600080516020611a6783398151915291a3600080546001600160a01b0319166001600160a01b0392909216919091179055565b336112776109d8565b6001600160a01b03161461129d5760405162461bcd60e51b815260040161046b90611925565b6001600160a01b0381166112f35760405162461bcd60e51b815260206004820152601d60248201527f53494d3a20446961206368692057494d206b686f6e6720686f70206c65000000604482015260640161046b565b600380546001600160a01b0319166001600160a01b0383169081179091556040517f9d00bdb4c1bf918df98c2197d7890603abf58babbc46d1a0442c1d92855fa12990600090a250565b805161134881611a4e565b919050565b8051801515811461134857600080fd5b60008083601f84011261136e578182fd5b5081356001600160401b03811115611384578182fd5b60208301915083602082850101111561139c57600080fd5b9250929050565b600082601f8301126113b3578081fd5b81516113c66113c1826119b2565b611982565b818152602085818487010111156113db578384fd5b835b838110156113f85785810182015183820183015281016113dd565b8381111561140857848285850101525b509095945050505050565b600060208284031215611424578081fd5b813561142f81611a4e565b9392505050565b60008060006040848603121561144a578182fd5b833561145581611a4e565b925060208401356001600160401b0381111561146f578283fd5b61147b8682870161135d565b9497909650939450505050565b600080600080600080608087890312156114a0578182fd5b86356114ab81611a4e565b955060208701356001600160401b03808211156114c6578384fd5b6114d28a838b0161135d565b90975095506040890135945060608901359150808211156114f1578384fd5b506114fe89828a0161135d565b979a9699509497509295939492505050565b60008060008060608587031215611525578384fd5b843561153081611a4e565b935060208501356001600160401b0381111561154a578384fd5b6115568782880161135d565b9598909750949560400135949350505050565b60008060008060008060a08789031215611581578182fd5b863561158c81611a4e565b955060208701356001600160401b038111156115a6578283fd5b6115b289828a0161135d565b9096509450506040870135925060608701356115cd81611a4e565b80925050608087013590509295509295509295565b6000806000806000608086880312156115f9578081fd5b853561160481611a4e565b945060208601356001600160401b0381111561161e578182fd5b61162a8882890161135d565b9699909850959660408101359660609091013595509350505050565b60008060408385031215611658578182fd5b823561166381611a4e565b915060208301356001600160401b0381111561167d578182fd5b8301601f8101851361168d578182fd5b803561169b6113c1826119b2565b8181528660208385010111156116af578384fd5b81602084016020830137908101602001929092525090939092509050565b6000602082840312156116de578081fd5b61142f8261134d565b6000602082840312156116f8578081fd5b5051919050565b600060208284031215611710578081fd5b81516001600160401b0380821115611726578283fd5b9083019060e08286031215611739578283fd5b61174161195a565b61174a8361133d565b815260208301518281111561175d578485fd5b611769878286016113a3565b602083015250604083015182811115611780578485fd5b61178c878286016113a3565b60408301525061179e6060840161133d565b60608201526117af6080840161134d565b60808201526117c060a0840161134d565b60a08201526117d160c0840161133d565b60c082015295945050505050565b81835281816020850137506000828201602090810191909152601f909101601f19169091010190565b8183823760009101908152919050565b6001600160a01b0391909116815260200190565b6001600160a01b03878116825286811660208301528516604082015260a06060820181905260009061186190830185876117df565b9050826080830152979650505050505050565b9182526001600160a01b0316602082015260400190565b8381526040602082015260006118a56040830184866117df565b95945050505050565b6060815260006118c26060830186886117df565b6020830194909452506001600160a01b039190911660409091015292915050565b60208082526022908201527f53494d3a2044696120636869206375612068616e67206b686f6e6720686f70206040820152616c6560f01b606082015260800190565b6020808252818101527f4f776e61626c653a2063616c6c6572206973206e6f7420746865206f776e6572604082015260600190565b60405160e081016001600160401b038111828210171561197c5761197c611a38565b60405290565b604051601f8201601f191681016001600160401b03811182821017156119aa576119aa611a38565b604052919050565b60006001600160401b038211156119cb576119cb611a38565b50601f01601f191660200190565b600082198211156119ec576119ec611a22565b500190565b600082821015611a0357611a03611a22565b500390565b6000600160ff1b821415611a1e57611a1e611a22565b0390565b634e487b7160e01b600052601160045260246000fd5b634e487b7160e01b600052604160045260246000fd5b6001600160a01b0381168114611a6357600080fd5b5056fe8be0079c531659141344cd1fd0a4f28419497f9722a3daafe3b4186f6b6457e0a2646970667358221220d34f095528f579cbd36821628c67e53fd59e8882c49fdd77adc2dea43da901b364736f6c63430008040033",
  "immutableReferences": {},
  "source": "// SPDX-License-Identifier: MIT\r\npragma solidity ^0.8.4;\r\n\r\nimport \"@openzeppelin/contracts/access/Ownable.sol\";\r\nimport \"./Interfaces.sol\";      // Import file Interfaces.sol tp trung\r\nimport \"./ItemsManagement.sol\"; // Import ItemsManagement  trnh bin dch lin kt contract\r\n\r\n// Hp ng Qun l Tn kho Ca hng\r\ncontract StoreInventoryManagement is Ownable {\r\n    // S dng cc interface t Interfaces.sol\r\n    IRoleManagementInterface public roleManagementExternal;\r\n    IItemsManagementInterface public itemsManagementExternal;\r\n    IWarehouseInventoryManagementInterface public warehouseInventoryManagementExternal;\r\n\r\n    address public customerOrderManagementAddress; //  xc thc ngi gi deductStockForCustomerSale\r\n\r\n    // Tn kho ca hng: storeAddress => itemId => quantity\r\n    mapping(address => mapping(string => uint256)) public storeStockLevels;\r\n\r\n    // Khng cn theo di pendingTransfers trc tip  y, WIM s gi li confirmStockReceivedFromWarehouse\r\n\r\n    // --- EVENTS ---\r\n    event StockRequestedFromWarehouse(\r\n        address indexed storeAddress,\r\n        address indexed designatedWarehouse,\r\n        string itemId, // Thng khng cn indexed nu bn  c storeAddress v designatedWarehouse\r\n        uint256 quantity,\r\n        uint256 indexed wimTransferId, // ID t WIM  theo di\r\n        address byStoreManager\r\n    );\r\n    event StockReceivedAtStore(\r\n        address indexed storeAddress,\r\n        string indexed itemId, // itemId  y c th hu ch  theo di mt hng no c nhn\r\n        uint256 quantity,\r\n        address indexed fromWarehouse,\r\n        uint256 wimTransferId // ID t WIM  i chiu\r\n    );\r\n    event StockDeductedForSale(\r\n        address indexed storeAddress,\r\n        string indexed itemId, // Tng t, itemId  y c th hu ch\r\n        uint256 quantityDeducted,\r\n        uint256 indexed customerOrderId\r\n    );\r\n    event StoreStockAdjusted(\r\n        address indexed storeAddress,\r\n        string indexed itemId,\r\n        int256 quantityChange,\r\n        string reason,\r\n        address indexed byAdminOrManager // Phn nh ai  thc hin\r\n    );\r\n\r\n    // Admin/Owner events\r\n    event WarehouseInventoryManagementAddressSet(address indexed wimAddress);\r\n    event CustomerOrderManagementAddressSet(address indexed comAddress);\r\n\r\n\r\n    // --- CONSTRUCTOR ---\r\n    constructor(address _roleManagementAddress, address _itemsManagementAddress) Ownable() {\r\n        require(_roleManagementAddress != address(0), \"SIM: Dia chi RM khong hop le\");\r\n        roleManagementExternal = IRoleManagementInterface(_roleManagementAddress);\r\n\r\n        require(_itemsManagementAddress != address(0), \"SIM: Dia chi ItemsM khong hop le\");\r\n        itemsManagementExternal = IItemsManagementInterface(_itemsManagementAddress);\r\n    }\r\n\r\n    // --- MODIFIERS ---\r\n    // Modifier ch cho php Qun l Ca hng ca ca hng c ch nh\r\n    modifier onlyStoreManager(address _storeAddress) {\r\n        require(_storeAddress != address(0), \"SIM: Dia chi cua hang khong hop le\");\r\n        // S dng PhysicalLocationInfo  c forward-declare trong Interfaces.sol\r\n        PhysicalLocationInfo memory storeInfo = itemsManagementExternal.getStoreInfo(_storeAddress);\r\n        require(storeInfo.exists, \"SIM: Cua hang chua duoc dang ky trong ItemsM\");\r\n        require(storeInfo.manager == msg.sender, \"SIM: Nguoi goi khong phai quan ly cua hang nay\");\r\n\r\n        bytes32 smRole = roleManagementExternal.STORE_MANAGER_ROLE();\r\n        require(roleManagementExternal.hasRole(smRole, msg.sender), \"SIM: Nguoi goi thieu vai tro QUAN_LY_CH\");\r\n        _;\r\n    }\r\n\r\n    // --- HM SETTER (Ch Owner) ---\r\n    function setWarehouseInventoryManagementAddress(address _wimAddress) external onlyOwner {\r\n        require(_wimAddress != address(0), \"SIM: Dia chi WIM khong hop le\");\r\n        warehouseInventoryManagementExternal = IWarehouseInventoryManagementInterface(_wimAddress);\r\n        emit WarehouseInventoryManagementAddressSet(_wimAddress);\r\n    }\r\n\r\n    function setCustomerOrderManagementAddress(address _comAddress) external onlyOwner {\r\n        require(_comAddress != address(0), \"SIM: Dia chi COM khong hop le\");\r\n        customerOrderManagementAddress = _comAddress;\r\n        emit CustomerOrderManagementAddressSet(_comAddress);\r\n    }\r\n\r\n    // --- CC HM CT LI ---\r\n\r\n    // c gi bi Qun l Ca hng  ly hng t kho ngun ch nh ca h\r\n    function requestStockFromDesignatedWarehouse(\r\n        address _storeAddress, // Ca hng yu cu (msg.sender phi l qun l ca ca hng ny)\r\n        string calldata _itemId,\r\n        uint256 _quantity\r\n    ) external onlyStoreManager(_storeAddress) { // Modifier m bo msg.sender l qun l ca _storeAddress\r\n        require(address(warehouseInventoryManagementExternal) != address(0), \"SIM: Dia chi WIM chua duoc dat\");\r\n        require(_quantity > 0, \"SIM: So luong phai la so duong\");\r\n\r\n        // itemsManagementExternal.getStoreInfo  c gi trong modifier\r\n        PhysicalLocationInfo memory storeInfo = itemsManagementExternal.getStoreInfo(_storeAddress);\r\n        require(storeInfo.designatedSourceWarehouseAddress != address(0), \"SIM: Cua hang khong co kho nguon chi dinh\");\r\n\r\n        uint256 wimTransferId = warehouseInventoryManagementExternal.requestStockTransferToStore(\r\n            msg.sender, // Qun l ca hng ang yu cu\r\n            _storeAddress,\r\n            storeInfo.designatedSourceWarehouseAddress,\r\n            _itemId,\r\n            _quantity\r\n        );\r\n\r\n        emit StockRequestedFromWarehouse(_storeAddress, storeInfo.designatedSourceWarehouseAddress, _itemId, _quantity, wimTransferId, msg.sender);\r\n    }\r\n\r\n    // c gi bi WarehouseInventoryManagement sau khi  x l vic chuyn hng\r\n    function confirmStockReceivedFromWarehouse(\r\n        address _storeAddress,\r\n        string calldata _itemId,\r\n        uint256 _quantity,\r\n        address _fromWarehouseAddress, // Kho  gi hng\r\n        uint256 _internalTransferId    // ID giao dch chuyn ni b t WIM  i chiu\r\n    ) external {\r\n        require(msg.sender == address(warehouseInventoryManagementExternal), \"SIM: Nguoi goi khong phai WIM\");\r\n        require(_storeAddress != address(0), \"SIM: Dia chi cua hang khong hop le\");\r\n        require(_fromWarehouseAddress != address(0), \"SIM: Dia chi kho gui khong hop le\");\r\n        require(_quantity > 0, \"SIM: So luong nhan phai duong\");\r\n\r\n        // Ty chn: Xc thc _storeAddress tn ti thng qua itemsManagementExternal\r\n        // PhysicalLocationInfo memory storeInfo = itemsManagementExternal.getStoreInfo(_storeAddress);\r\n        // require(storeInfo.exists, \"SIM: Cua hang nhan khong ton tai\");\r\n\r\n        storeStockLevels[_storeAddress][_itemId] += _quantity;\r\n        emit StockReceivedAtStore(_storeAddress, _itemId, _quantity, _fromWarehouseAddress, _internalTransferId);\r\n    }\r\n\r\n    // c gi bi CustomerOrderManagement khi mt n hng c hon thnh v cn tr tn kho\r\n    function deductStockForCustomerSale(\r\n        address _storeAddress,\r\n        string calldata _itemId,\r\n        uint256 _quantity,\r\n        uint256 _customerOrderId\r\n    ) external {\r\n        require(msg.sender == customerOrderManagementAddress, \"SIM: Nguoi goi khong phai COM\");\r\n        require(_storeAddress != address(0), \"SIM: Dia chi cua hang khong hop le\");\r\n        require(_quantity > 0, \"SIM: So luong tru phai la so duong\");\r\n\r\n        uint256 currentStock = storeStockLevels[_storeAddress][_itemId];\r\n        require(currentStock >= _quantity, \"SIM: Khong du ton kho cua hang de ban\");\r\n\r\n        storeStockLevels[_storeAddress][_itemId] = currentStock - _quantity;\r\n        emit StockDeductedForSale(_storeAddress, _itemId, _quantity, _customerOrderId);\r\n    }\r\n\r\n    // --- CC HM ADMIN/QUN L CA HNG ---\r\n    function adjustStoreStockManually(\r\n        address _storeAddress,\r\n        string calldata _itemId,\r\n        int256 _quantityChange,\r\n        string calldata _reason\r\n    ) external { // Cho php Owner hoc Qun l ca hng \r\n        bool isOwner = (msg.sender == owner());\r\n        bool isAuthorizedManager = false;\r\n        if (!isOwner) {\r\n            // Kim tra xem msg.sender c phi l qun l ca _storeAddress khng\r\n            // v c vai tr STORE_MANAGER_ROLE khng\r\n            PhysicalLocationInfo memory storeInfo = itemsManagementExternal.getStoreInfo(_storeAddress);\r\n            if (storeInfo.exists && storeInfo.manager == msg.sender) {\r\n                bytes32 smRole = roleManagementExternal.STORE_MANAGER_ROLE();\r\n                if (roleManagementExternal.hasRole(smRole, msg.sender)) {\r\n                    isAuthorizedManager = true;\r\n                }\r\n            }\r\n        }\r\n        require(isOwner || isAuthorizedManager, \"SIM: Khong co quyen dieu chinh ton kho cua hang nay\");\r\n\r\n\r\n        uint256 currentStock = storeStockLevels[_storeAddress][_itemId];\r\n        if (_quantityChange > 0) {\r\n            storeStockLevels[_storeAddress][_itemId] = currentStock + uint256(_quantityChange);\r\n        } else if (_quantityChange < 0) {\r\n            uint256 amountToDecrease = uint256(-_quantityChange);\r\n            require(currentStock >= amountToDecrease, \"SIM: Dieu chinh thu cong dan den ton kho am\");\r\n            storeStockLevels[_storeAddress][_itemId] = currentStock - amountToDecrease;\r\n        } else {\r\n            revert(\"SIM: Thay doi so luong khong the bang khong\");\r\n        }\r\n        emit StoreStockAdjusted(_storeAddress, _itemId, _quantityChange, _reason, msg.sender);\r\n    }\r\n\r\n    // --- CC HM XEM (VIEW FUNCTIONS) ---\r\n    function getStoreStockLevel(address _storeAddress, string calldata _itemId) external view returns (uint256) {\r\n        require(_storeAddress != address(0), \"SIM: Dia chi cua hang khong hop le\");\r\n        return storeStockLevels[_storeAddress][_itemId];\r\n    }\r\n}",
  "sourcePath": "D:\\nhi\\Logtech\\New tech in Log\\dapp2\\SC\\contracts\\StoreInventory.sol",
  "compiler": {
    "name": "solc",
    "version": "0.8.4+commit.c7e474f2.Emscripten.clang"
  },
  "schemaVersion": "3.4.16",
  "updatedAt": "2025-06-02T14:39:38.623Z",
  "devdoc": {
    "kind": "dev",
    "methods": {
      "owner()": {
        "details": "Returns the address of the current owner."
      },
      "renounceOwnership()": {
        "details": "Leaves the contract without owner. It will not be possible to call `onlyOwner` functions anymore. Can only be called by the current owner. NOTE: Renouncing ownership will leave the contract without an owner, thereby removing any functionality that is only available to the owner."
      },
      "transferOwnership(address)": {
        "details": "Transfers ownership of the contract to a new account (`newOwner`). Can only be called by the current owner."
      }
    },
    "version": 1
  },
  "userdoc": {
    "kind": "user",
    "methods": {},
    "version": 1
  }
}