{
  "contractName": "StoreInventoryManagement",
  "abi": [
    {
      "inputs": [
        {
          "internalType": "address",
          "name": "_roleManagementAddress",
          "type": "address"
        },
        {
          "internalType": "address",
          "name": "_itemsManagementAddress",
          "type": "address"
        }
      ],
      "stateMutability": "nonpayable",
      "type": "constructor"
    },
    {
      "anonymous": false,
      "inputs": [
        {
          "indexed": true,
          "internalType": "address",
          "name": "previousOwner",
          "type": "address"
        },
        {
          "indexed": true,
          "internalType": "address",
          "name": "newOwner",
          "type": "address"
        }
      ],
      "name": "OwnershipTransferred",
      "type": "event"
    },
    {
      "anonymous": false,
      "inputs": [
        {
          "indexed": true,
          "internalType": "address",
          "name": "storeAddress",
          "type": "address"
        },
        {
          "indexed": true,
          "internalType": "string",
          "name": "itemId",
          "type": "string"
        },
        {
          "indexed": false,
          "internalType": "uint256",
          "name": "quantityDeducted",
          "type": "uint256"
        },
        {
          "indexed": true,
          "internalType": "uint256",
          "name": "customerOrderId",
          "type": "uint256"
        }
      ],
      "name": "StockDeductedForSale",
      "type": "event"
    },
    {
      "anonymous": false,
      "inputs": [
        {
          "indexed": true,
          "internalType": "address",
          "name": "storeAddress",
          "type": "address"
        },
        {
          "indexed": true,
          "internalType": "string",
          "name": "itemId",
          "type": "string"
        },
        {
          "indexed": false,
          "internalType": "uint256",
          "name": "quantity",
          "type": "uint256"
        },
        {
          "indexed": true,
          "internalType": "address",
          "name": "fromWarehouse",
          "type": "address"
        },
        {
          "indexed": false,
          "internalType": "uint256",
          "name": "wimTransferId",
          "type": "uint256"
        }
      ],
      "name": "StockReceivedAtStore",
      "type": "event"
    },
    {
      "anonymous": false,
      "inputs": [
        {
          "indexed": true,
          "internalType": "address",
          "name": "storeAddress",
          "type": "address"
        },
        {
          "indexed": true,
          "internalType": "address",
          "name": "designatedWarehouse",
          "type": "address"
        },
        {
          "indexed": false,
          "internalType": "string",
          "name": "itemId",
          "type": "string"
        },
        {
          "indexed": false,
          "internalType": "uint256",
          "name": "quantity",
          "type": "uint256"
        },
        {
          "indexed": true,
          "internalType": "uint256",
          "name": "wimTransferId",
          "type": "uint256"
        },
        {
          "indexed": false,
          "internalType": "address",
          "name": "byStoreManager",
          "type": "address"
        }
      ],
      "name": "StockRequestedFromWarehouse",
      "type": "event"
    },
    {
      "anonymous": false,
      "inputs": [
        {
          "indexed": true,
          "internalType": "address",
          "name": "storeAddress",
          "type": "address"
        },
        {
          "indexed": true,
          "internalType": "string",
          "name": "itemId",
          "type": "string"
        },
        {
          "indexed": false,
          "internalType": "int256",
          "name": "quantityChange",
          "type": "int256"
        },
        {
          "indexed": false,
          "internalType": "string",
          "name": "reason",
          "type": "string"
        },
        {
          "indexed": true,
          "internalType": "address",
          "name": "byAdminOrManager",
          "type": "address"
        }
      ],
      "name": "StoreStockAdjusted",
      "type": "event"
    },
    {
      "inputs": [],
      "name": "itemsManagementExternal",
      "outputs": [
        {
          "internalType": "contract IItemsManagement",
          "name": "",
          "type": "address"
        }
      ],
      "stateMutability": "view",
      "type": "function",
      "constant": true
    },
    {
      "inputs": [],
      "name": "owner",
      "outputs": [
        {
          "internalType": "address",
          "name": "",
          "type": "address"
        }
      ],
      "stateMutability": "view",
      "type": "function",
      "constant": true
    },
    {
      "inputs": [],
      "name": "renounceOwnership",
      "outputs": [],
      "stateMutability": "nonpayable",
      "type": "function"
    },
    {
      "inputs": [],
      "name": "roleManagementExternal",
      "outputs": [
        {
          "internalType": "contract IRoleManagement",
          "name": "",
          "type": "address"
        }
      ],
      "stateMutability": "view",
      "type": "function",
      "constant": true
    },
    {
      "inputs": [
        {
          "internalType": "address",
          "name": "",
          "type": "address"
        },
        {
          "internalType": "string",
          "name": "",
          "type": "string"
        }
      ],
      "name": "storeStockLevels",
      "outputs": [
        {
          "internalType": "uint256",
          "name": "",
          "type": "uint256"
        }
      ],
      "stateMutability": "view",
      "type": "function",
      "constant": true
    },
    {
      "inputs": [
        {
          "internalType": "address",
          "name": "newOwner",
          "type": "address"
        }
      ],
      "name": "transferOwnership",
      "outputs": [],
      "stateMutability": "nonpayable",
      "type": "function"
    },
    {
      "inputs": [],
      "name": "warehouseInventoryManagementExternal",
      "outputs": [
        {
          "internalType": "contract IWarehouseInventoryManagement",
          "name": "",
          "type": "address"
        }
      ],
      "stateMutability": "view",
      "type": "function",
      "constant": true
    },
    {
      "inputs": [
        {
          "internalType": "address",
          "name": "_wimAddress",
          "type": "address"
        }
      ],
      "name": "setWarehouseInventoryManagementAddress",
      "outputs": [],
      "stateMutability": "nonpayable",
      "type": "function"
    },
    {
      "inputs": [
        {
          "internalType": "address",
          "name": "_storeAddress",
          "type": "address"
        },
        {
          "internalType": "string",
          "name": "_itemId",
          "type": "string"
        },
        {
          "internalType": "uint256",
          "name": "_quantity",
          "type": "uint256"
        }
      ],
      "name": "requestStockFromDesignatedWarehouse",
      "outputs": [],
      "stateMutability": "nonpayable",
      "type": "function"
    },
    {
      "inputs": [
        {
          "internalType": "address",
          "name": "_storeAddress",
          "type": "address"
        },
        {
          "internalType": "string",
          "name": "_itemId",
          "type": "string"
        },
        {
          "internalType": "uint256",
          "name": "_quantity",
          "type": "uint256"
        },
        {
          "internalType": "address",
          "name": "_fromWarehouseAddress",
          "type": "address"
        },
        {
          "internalType": "uint256",
          "name": "_internalTransferId",
          "type": "uint256"
        }
      ],
      "name": "confirmStockReceivedFromWarehouse",
      "outputs": [],
      "stateMutability": "nonpayable",
      "type": "function"
    },
    {
      "inputs": [
        {
          "internalType": "address",
          "name": "_storeAddress",
          "type": "address"
        },
        {
          "internalType": "string",
          "name": "_itemId",
          "type": "string"
        },
        {
          "internalType": "uint256",
          "name": "_quantity",
          "type": "uint256"
        },
        {
          "internalType": "uint256",
          "name": "_customerOrderId",
          "type": "uint256"
        }
      ],
      "name": "deductStockForCustomerSale",
      "outputs": [],
      "stateMutability": "nonpayable",
      "type": "function"
    },
    {
      "inputs": [
        {
          "internalType": "address",
          "name": "_storeAddress",
          "type": "address"
        },
        {
          "internalType": "string",
          "name": "_itemId",
          "type": "string"
        },
        {
          "internalType": "int256",
          "name": "_quantityChange",
          "type": "int256"
        },
        {
          "internalType": "string",
          "name": "_reason",
          "type": "string"
        }
      ],
      "name": "adjustStoreStockManually",
      "outputs": [],
      "stateMutability": "nonpayable",
      "type": "function"
    },
    {
      "inputs": [
        {
          "internalType": "address",
          "name": "_storeAddress",
          "type": "address"
        },
        {
          "internalType": "string",
          "name": "_itemId",
          "type": "string"
        }
      ],
      "name": "getStoreStockLevel",
      "outputs": [
        {
          "internalType": "uint256",
          "name": "",
          "type": "uint256"
        }
      ],
      "stateMutability": "view",
      "type": "function",
      "constant": true
    }
  ],
  "bytecode": "0x60806040523480156200001157600080fd5b5060405162001a8f38038062001a8f833981016040819052620000349162000145565b60006200004062000124565b600080546001600160a01b0319166001600160a01b0383169081178255604051929350917f8be0079c531659141344cd1fd0a4f28419497f9722a3daafe3b4186f6b6457e0908290a3506001600160a01b038216620000bc5760405162461bcd60e51b8152600401620000b3906200017c565b60405180910390fd5b600180546001600160a01b0319166001600160a01b03848116919091179091558116620000fd5760405162461bcd60e51b8152600401620000b390620001b3565b600280546001600160a01b0319166001600160a01b039290921691909117905550620001e8565b3390565b80516001600160a01b03811681146200014057600080fd5b919050565b6000806040838503121562000158578182fd5b620001638362000128565b9150620001736020840162000128565b90509250929050565b6020808252601c908201527f53494d3a204469612063686920524d206b686f6e6720686f70206c6500000000604082015260600190565b6020808252818101527f53494d3a2044696120636869204974656d734d206b686f6e6720686f70206c65604082015260600190565b61189780620001f86000396000f3fe608060405234801561001057600080fd5b50600436106100df5760003560e01c80639ac01de61161008c578063e6a2194311610066578063e6a2194314610188578063eb2ca11014610190578063f2fde38b146101a3578063f4ddd27a146101b6576100df565b80639ac01de61461015a578063d04cc29b1461016d578063dc94b94614610175576100df565b80637b0f813c116100bd5780637b0f813c1461011f5780638a4d65f2146101325780638da5cb5b14610152576100df565b806318492987146100e45780634797005214610102578063715018a614610117575b600080fd5b6100ec6101c9565b6040516100f99190611251565b60405180910390f35b610115610110366004610ec9565b6101d8565b005b610115610548565b61011561012d366004611026565b6105d1565b61014561014036600461108b565b6106f1565b6040516100f9919061176b565b6100ec61071f565b610115610168366004610fac565b61072e565b6100ec610804565b610115610183366004610f52565b610813565b6100ec610be2565b61014561019e366004610e76565b610bf1565b6101156101b1366004610e53565b610c31565b6101156101c4366004610e53565b610cf1565b6003546001600160a01b031681565b60025460405163329a587360e01b81526000916001600160a01b03169063329a587390610209908a90600401611251565b60006040518083038186803b15801561022157600080fd5b505afa158015610235573d6000803e3d6000fd5b505050506040513d6000823e601f3d908101601f1916820160405261025d9190810190611145565b90508060800151801561027c575060608101516001600160a01b031633145b6102a15760405162461bcd60e51b815260040161029890611584565b60405180910390fd5b600154604080516303e20ef360e31b815290516000926001600160a01b031691631f107798916004808301926020929190829003018186803b1580156102e657600080fd5b505afa1580156102fa573d6000803e3d6000fd5b505050506040513d601f19601f8201168201806040525081019061031e919061112d565b600154604051632474521560e21b81529192506001600160a01b0316906391d148549061035190849033906004016112ad565b60206040518083038186803b15801561036957600080fd5b505afa15801561037d573d6000803e3d6000fd5b505050506040513d601f19601f820116820180604052508101906103a19190611113565b6103bd5760405162461bcd60e51b8152600401610298906113c1565b6001600160a01b03881660009081526004602052604080822090516103e5908a908a90611241565b908152602001604051809103902054905060008613156104475761040986826117d4565b6001600160a01b038a16600090815260046020526040908190209051610432908b908b90611241565b908152604051908190036020019020556104de565b60008612156104c657600061045b87611803565b90508082101561047d5760405162461bcd60e51b815260040161029890611364565b61048781836117ec565b6001600160a01b038b166000908152600460205260409081902090516104b0908c908c90611241565b90815260405190819003602001902055506104de565b60405162461bcd60e51b815260040161029890611408565b60405133906104f0908a908a90611241565b60405180910390208a6001600160a01b03167ffb5dfbe66914f7eaeb79eb9cace7c205345c751a42326b54ade553ebf68bc1f9898989604051610535939291906112c4565b60405180910390a4505050505050505050565b610550610d78565b6001600160a01b031661056161071f565b6001600160a01b0316146105875760405162461bcd60e51b8152600401610298906115f2565b600080546040516001600160a01b03909116907f8be0079c531659141344cd1fd0a4f28419497f9722a3daafe3b4186f6b6457e0908390a3600080546001600160a01b0319169055565b600082116105f15760405162461bcd60e51b815260040161029890611729565b6001600160a01b03851660009081526004602052604080822090516106199087908790611241565b90815260200160405180910390205490508281101561064a5760405162461bcd60e51b81526004016102989061153f565b61065483826117ec565b6001600160a01b03871660009081526004602052604090819020905161067d9088908890611241565b9081526020016040518091039020819055508185856040516106a0929190611241565b6040518091039020876001600160a01b03167f29b1e31f6ff829a325f63fc4bef376ea772e735f65e21879531683f99aa6c3d8866040516106e1919061176b565b60405180910390a4505050505050565b6004602090815260009283526040909220815180830184018051928152908401929093019190912091525481565b6000546001600160a01b031690565b6003546001600160a01b031633146107585760405162461bcd60e51b81526004016102989061165e565b6001600160a01b0386166000908152600460205260409081902090518491906107849088908890611241565b908152602001604051809103902060008282546107a191906117d4565b90915550506040516001600160a01b038316906107c19087908790611241565b6040518091039020876001600160a01b03167f52f87c542bd5d87d5adb3164a279f24fa2c53d27e879e17c8b400bc10cdc502686856040516106e1929190611774565b6002546001600160a01b031681565b60025460405163329a587360e01b815285916000916001600160a01b039091169063329a587390610848908590600401611251565b60006040518083038186803b15801561086057600080fd5b505afa158015610874573d6000803e3d6000fd5b505050506040513d6000823e601f3d908101601f1916820160405261089c9190810190611145565b905080608001516108bf5760405162461bcd60e51b815260040161029890611695565b60608101516001600160a01b031633146108eb5760405162461bcd60e51b8152600401610298906114e2565b600154604080516303e20ef360e31b815290516000926001600160a01b031691631f107798916004808301926020929190829003018186803b15801561093057600080fd5b505afa158015610944573d6000803e3d6000fd5b505050506040513d601f19601f82011682018060405250810190610968919061112d565b600154604051632474521560e21b81529192506001600160a01b0316906391d148549061099b90849033906004016112ad565b60206040518083038186803b1580156109b357600080fd5b505afa1580156109c7573d6000803e3d6000fd5b505050506040513d601f19601f820116820180604052508101906109eb9190611113565b610a075760405162461bcd60e51b8152600401610298906113c1565b6003546001600160a01b0316610a2f5760405162461bcd60e51b815260040161029890611627565b60008411610a4f5760405162461bcd60e51b8152600401610298906114ab565b60025460405163329a587360e01b81526000916001600160a01b03169063329a587390610a80908b90600401611251565b60006040518083038186803b158015610a9857600080fd5b505afa158015610aac573d6000803e3d6000fd5b505050506040513d6000823e601f3d908101601f19168201604052610ad49190810190611145565b60a08101519091506001600160a01b0316610b015760405162461bcd60e51b81526004016102989061131b565b60035460a0820151604051631f8b929d60e01b81526000926001600160a01b031691631f8b929d91610b409133918e91908e908e908e90600401611265565b602060405180830381600087803b158015610b5a57600080fd5b505af1158015610b6e573d6000803e3d6000fd5b505050506040513d601f19601f82011682018060405250810190610b92919061112d565b9050808260a001516001600160a01b03168a6001600160a01b03167f9050656f654737d2120a21133900e4b61725a4a70ac1c8e16c5c015812dc9b638b8b8b3360405161053594939291906112e7565b6001546001600160a01b031681565b6001600160a01b0383166000908152600460205260408082209051610c199085908590611241565b90815260200160405180910390205490509392505050565b610c39610d78565b6001600160a01b0316610c4a61071f565b6001600160a01b031614610c705760405162461bcd60e51b8152600401610298906115f2565b6001600160a01b038116610c965760405162461bcd60e51b815260040161029890611465565b600080546040516001600160a01b03808516939216917f8be0079c531659141344cd1fd0a4f28419497f9722a3daafe3b4186f6b6457e091a3600080546001600160a01b0319166001600160a01b0392909216919091179055565b610cf9610d78565b6001600160a01b0316610d0a61071f565b6001600160a01b031614610d305760405162461bcd60e51b8152600401610298906115f2565b6001600160a01b038116610d565760405162461bcd60e51b8152600401610298906116f2565b600380546001600160a01b0319166001600160a01b0392909216919091179055565b3390565b8051610d8781611849565b919050565b80518015158114610d8757600080fd5b60008083601f840112610dad578182fd5b50813567ffffffffffffffff811115610dc4578182fd5b602083019150836020828501011115610ddc57600080fd5b9250929050565b600082601f830112610df3578081fd5b8151610e06610e01826117ac565b611782565b81815260208581848701011115610e1b578384fd5b835b83811015610e38578581018201518382018301528101610e1d565b83811115610e4857848285850101525b509095945050505050565b600060208284031215610e64578081fd5b8135610e6f81611849565b9392505050565b600080600060408486031215610e8a578182fd5b8335610e9581611849565b9250602084013567ffffffffffffffff811115610eb0578283fd5b610ebc86828701610d9c565b9497909650939450505050565b60008060008060008060808789031215610ee1578182fd5b8635610eec81611849565b9550602087013567ffffffffffffffff80821115610f08578384fd5b610f148a838b01610d9c565b9097509550604089013594506060890135915080821115610f33578384fd5b50610f4089828a01610d9c565b979a9699509497509295939492505050565b60008060008060608587031215610f67578384fd5b8435610f7281611849565b9350602085013567ffffffffffffffff811115610f8d578384fd5b610f9987828801610d9c565b9598909750949560400135949350505050565b60008060008060008060a08789031215610fc4578182fd5b8635610fcf81611849565b9550602087013567ffffffffffffffff811115610fea578283fd5b610ff689828a01610d9c565b90965094505060408701359250606087013561101181611849565b80925050608087013590509295509295509295565b60008060008060006080868803121561103d578081fd5b853561104881611849565b9450602086013567ffffffffffffffff811115611063578182fd5b61106f88828901610d9c565b9699909850959660408101359660609091013595509350505050565b6000806040838503121561109d578182fd5b82356110a881611849565b9150602083013567ffffffffffffffff8111156110c3578182fd5b8301601f810185136110d3578182fd5b80356110e1610e01826117ac565b8181528660208385010111156110f5578384fd5b81602084016020830137908101602001929092525090939092509050565b600060208284031215611124578081fd5b610e6f82610d8c565b60006020828403121561113e578081fd5b5051919050565b600060208284031215611156578081fd5b815167ffffffffffffffff8082111561116d578283fd5b9083019060c08286031215611180578283fd5b61118a60c0611782565b61119383610d7c565b81526020830151828111156111a6578485fd5b6111b287828601610de3565b6020830152506040830151828111156111c9578485fd5b6111d587828601610de3565b6040830152506111e760608401610d7c565b60608201526111f860808401610d8c565b608082015261120960a08401610d7c565b60a082015295945050505050565b60008284528282602086013780602084860101526020601f19601f85011685010190509392505050565b6000828483379101908152919050565b6001600160a01b0391909116815260200190565b60006001600160a01b038089168352808816602084015280871660408401525060a0606083015261129a60a083018587611217565b9050826080830152979650505050505050565b9182526001600160a01b0316602082015260400190565b6000848252604060208301526112de604083018486611217565b95945050505050565b6000606082526112fb606083018688611217565b90508360208301526001600160a01b038316604083015295945050505050565b60208082526029908201527f53494d3a204375612068616e67206b686f6e6720636f206b686f206e67756f6e604082015268040c6d0d240c8d2dcd60bb1b606082015260800190565b6020808252602b908201527f53494d3a2044696575206368696e682074687520636f6e672064616e2064656e60408201527f20746f6e206b686f20616d000000000000000000000000000000000000000000606082015260800190565b60208082526027908201527f53494d3a204e67756f6920676f69207468696575207661692074726f2051554160408201526609cbe98b2be86960cb1b606082015260800190565b6020808252602b908201527f53494d3a205468617920646f6920736f206c756f6e67206b686f6e672074686560408201527f2062616e67206b686f6e67000000000000000000000000000000000000000000606082015260800190565b60208082526026908201527f4f776e61626c653a206e6577206f776e657220697320746865207a65726f206160408201526564647265737360d01b606082015260800190565b6020808252601e908201527f53494d3a20536f206c756f6e672070686169206c6120736f2064756f6e670000604082015260600190565b6020808252602e908201527f53494d3a204e67756f6920676f69206b686f6e672070686169207175616e206c60408201527f79206375612068616e67206e6179000000000000000000000000000000000000606082015260800190565b60208082526025908201527f53494d3a204b686f6e6720647520746f6e206b686f206375612068616e67206460408201526432903130b760d91b606082015260800190565b60208082526048908201527f53494d3a204e67756f6920676f69206b686f6e672070686169207175616e206c60408201527f792064756f6320757920717579656e2063686f20746f6e206b686f206375612060608201526768616e67206e617960c01b608082015260a00190565b6020808252818101527f4f776e61626c653a2063616c6c6572206973206e6f7420746865206f776e6572604082015260600190565b6020808252601e908201527f53494d3a20446961206368692057494d20636875612064756f63206461740000604082015260600190565b6020808252601d908201527f53494d3a204e67756f6920676f69206b686f6e6720706861692057494d000000604082015260600190565b6020808252602c908201527f53494d3a204375612068616e6720636875612064756f632064616e67206b792060408201527f74726f6e67204974656d734d0000000000000000000000000000000000000000606082015260800190565b6020808252601d908201527f53494d3a20446961206368692057494d206b686f6e6720686f70206c65000000604082015260600190565b60208082526022908201527f53494d3a20536f206c756f6e67207472752070686169206c6120736f2064756f6040820152616e6760f01b606082015260800190565b90815260200190565b918252602082015260400190565b60405181810167ffffffffffffffff811182821017156117a4576117a4611833565b604052919050565b600067ffffffffffffffff8211156117c6576117c6611833565b50601f01601f191660200190565b600082198211156117e7576117e761181d565b500190565b6000828210156117fe576117fe61181d565b500390565b6000600160ff1b8214156118195761181961181d565b0390565b634e487b7160e01b600052601160045260246000fd5b634e487b7160e01b600052604160045260246000fd5b6001600160a01b038116811461185e57600080fd5b5056fea2646970667358221220ce017430253a53cd2645ffe517d9471befbcbd0d0cfef283ca518d7bbb4ac89364736f6c63430008000033",
  "immutableReferences": {},
  "source": "// SPDX-License-Identifier: MIT\r\npragma solidity ^0.8.0;\r\n\r\nimport \"@openzeppelin/contracts/access/Ownable.sol\";\r\n\r\n// Khai bo trc cu trc t ItemsManagement\r\ncontract ItemsManagement { // Tn hp ng, khng phi tn interface\r\n    struct PhysicalLocationInfo { address locationId; string name; string locationType; address manager; bool exists; address designatedSourceWarehouseAddress; }\r\n}\r\n\r\n// Interface cho RoleManagement  kim tra vai tr Qun l Ca hng\r\ninterface IRoleManagement {\r\n    function STORE_MANAGER_ROLE() external view returns (bytes32);\r\n    function hasRole(bytes32 role, address account) external view returns (bool);\r\n}\r\n\r\n// Interface cho ItemsManagement  ly thng tin ca hng\r\ninterface IItemsManagement {\r\n    function getStoreInfo(address storeAddress) external view returns (ItemsManagement.PhysicalLocationInfo memory);\r\n    // function getItemInfo(string calldata itemId) external view; //  xc thc nu cn\r\n}\r\n\r\n// Interface cho WarehouseInventoryManagement  yu cu hng\r\ninterface IWarehouseInventoryManagement {\r\n    function requestStockTransferToStore(\r\n        address requestingStoreManager,     // Qun l CH yu cu\r\n        address storeAddress,               // Ca hng yu cu\r\n        address designatedWarehouseAddress, // Kho ngun ch nh\r\n        string calldata itemId,             // Mt hng\r\n        uint256 quantity                    // S lng\r\n    ) external returns (uint256 internalTransferId); // Tr v ID giao dch chuyn ni b\r\n}\r\n\r\n// Hp ng Qun l Tn kho Ca hng\r\ncontract StoreInventoryManagement is Ownable {\r\n    IRoleManagement public roleManagementExternal;\r\n    IItemsManagement public itemsManagementExternal;\r\n    IWarehouseInventoryManagement public warehouseInventoryManagementExternal; // Hp ng Qun l Tn kho Chnh\r\n\r\n    // Tn kho ca hng: storeAddress => itemId => quantity\r\n    mapping(address => mapping(string => uint256)) public storeStockLevels;\r\n\r\n    // C th theo di cc yu cu ang ch x l nu cn chi tit\r\n    // struct WarehouseTransferRequest { ... }\r\n    // mapping(uint256 => WarehouseTransferRequest) public pendingTransfers;\r\n\r\n    // S kin\r\n    event StockRequestedFromWarehouse(\r\n        address indexed storeAddress,       // indexed\r\n        address indexed designatedWarehouse,// indexed\r\n        string itemId,                      // KHNG indexed\r\n        uint256 quantity, \r\n        uint256 indexed wimTransferId,    // indexed\r\n        address byStoreManager              // KHNG indexed\r\n    );\r\n    event StockReceivedAtStore(address indexed storeAddress, string indexed itemId, uint256 quantity, address indexed fromWarehouse, uint256 wimTransferId); // Hng c nhn ti ca hng\r\n    event StockDeductedForSale(address indexed storeAddress, string indexed itemId, uint256 quantityDeducted, uint256 indexed customerOrderId); // Tn kho b tr cho n hng bn\r\n    event StoreStockAdjusted(address indexed storeAddress, string indexed itemId, int256 quantityChange, string reason, address indexed byAdminOrManager); // Tn kho ca hng c iu chnh\r\n\r\n    constructor(address _roleManagementAddress, address _itemsManagementAddress) Ownable() {\r\n        require(_roleManagementAddress != address(0), \"SIM: Dia chi RM khong hop le\"); // SIM: a ch RM khng hp l\r\n        roleManagementExternal = IRoleManagement(_roleManagementAddress);\r\n        require(_itemsManagementAddress != address(0), \"SIM: Dia chi ItemsM khong hop le\"); // SIM: a ch ItemsM khng hp l\r\n        itemsManagementExternal = IItemsManagement(_itemsManagementAddress);\r\n    }\r\n\r\n    // Modifier ch cho php Qun l Ca hng ca ca hng c ch nh\r\n    modifier onlyStoreManager(address _storeAddress) {\r\n        ItemsManagement.PhysicalLocationInfo memory storeInfo = itemsManagementExternal.getStoreInfo(_storeAddress);\r\n        require(storeInfo.exists, \"SIM: Cua hang chua duoc dang ky trong ItemsM\"); // SIM: Ca hng cha c ng k trong ItemsM\r\n        require(storeInfo.manager == msg.sender, \"SIM: Nguoi goi khong phai quan ly cua hang nay\"); // SIM: Ngi gi khng phi qun l ca hng ny\r\n        bytes32 smRole = roleManagementExternal.STORE_MANAGER_ROLE();\r\n        require(roleManagementExternal.hasRole(smRole, msg.sender), \"SIM: Nguoi goi thieu vai tro QUAN_LY_CH\"); // SIM: Ngi gi thiu vai tr QUAN_LY_CH\r\n        _;\r\n    }\r\n\r\n    // --- HM SETTER (Ch Owner) ---\r\n    function setWarehouseInventoryManagementAddress(address _wimAddress) external onlyOwner {\r\n        require(_wimAddress != address(0), \"SIM: Dia chi WIM khong hop le\"); // SIM: a ch WIM khng hp l\r\n        warehouseInventoryManagementExternal = IWarehouseInventoryManagement(_wimAddress);\r\n    }\r\n\r\n    // --- CC HM CT LI ---\r\n\r\n    // c gi bi Qun l Ca hng  ly hng t kho ngun ch nh ca h\r\n    function requestStockFromDesignatedWarehouse(\r\n        address _storeAddress,          // Ca hng yu cu\r\n        string calldata _itemId,         // Mt hng\r\n        uint256 _quantity               // S lng\r\n    ) external onlyStoreManager(_storeAddress) {\r\n        require(address(warehouseInventoryManagementExternal) != address(0), \"SIM: Dia chi WIM chua duoc dat\"); // SIM: a ch WIM cha c t\r\n        require(_quantity > 0, \"SIM: So luong phai la so duong\"); // SIM: S lng phi l s dng\r\n\r\n        ItemsManagement.PhysicalLocationInfo memory storeInfo = itemsManagementExternal.getStoreInfo(_storeAddress); //  ly bi modifier\r\n        require(storeInfo.designatedSourceWarehouseAddress != address(0), \"SIM: Cua hang khong co kho nguon chi dinh\"); // SIM: Ca hng khng c kho ngun ch nh\r\n\r\n        uint256 wimTransferId = warehouseInventoryManagementExternal.requestStockTransferToStore(\r\n            msg.sender, // Qun l ca hng ang yu cu\r\n            _storeAddress,\r\n            storeInfo.designatedSourceWarehouseAddress,\r\n            _itemId,\r\n            _quantity\r\n        );\r\n        \r\n        emit StockRequestedFromWarehouse(_storeAddress, storeInfo.designatedSourceWarehouseAddress, _itemId, _quantity, wimTransferId, msg.sender);\r\n    }\r\n\r\n    // c gi bi WarehouseInventoryManagement sau khi  x l vic chuyn hng\r\n    function confirmStockReceivedFromWarehouse(\r\n        address _storeAddress,          // Ca hng nhn\r\n        string calldata _itemId,         // Mt hng\r\n        uint256 _quantity,              // S lng\r\n        address _fromWarehouseAddress,  // Kho  gi hng\r\n        uint256 _internalTransferId     // ID giao dch chuyn ni b t WIM  i chiu\r\n    ) external {\r\n        require(msg.sender == address(warehouseInventoryManagementExternal), \"SIM: Nguoi goi khong phai WIM\"); // SIM: Ngi gi khng phi WIM\r\n        // Nu c theo di pendingTransfers:\r\n        // require(pendingTransfers[_internalTransferId].transferId != 0 && !pendingTransfers[_internalTransferId].received, \"SIM: Giao dich khong hop le hoac da nhan\");\r\n        // pendingTransfers[_internalTransferId].received = true;\r\n        // pendingTransfers[_internalTransferId].receivedTimestamp = block.timestamp;\r\n        \r\n        storeStockLevels[_storeAddress][_itemId] += _quantity;\r\n        emit StockReceivedAtStore(_storeAddress, _itemId, _quantity, _fromWarehouseAddress, _internalTransferId);\r\n\r\n        // Ty chn: Thng bo cho CustomerOrderManagement nu vic nhp kho ny l cho mt n hng ang ch\r\n        // iu ny i hi logic theo di phc tp hn (lin kt n hng khch vi yu cu nhp kho)\r\n    }\r\n\r\n    // c gi bi CustomerOrderManagement khi mt n hng c hon thnh v cn tr tn kho\r\n    function deductStockForCustomerSale(\r\n        address _storeAddress,          // Ca hng bn\r\n        string calldata _itemId,         // Mt hng\r\n        uint256 _quantity,              // S lng\r\n        uint256 _customerOrderId        // ID n hng ca khch\r\n    ) external { // c gi bi COM, msg.sender nn l a ch COM\r\n        // require(msg.sender == address(customerOrderManagementExternal), \"SIM: Nguoi goi khong phai COM\");\r\n        require(_quantity > 0, \"SIM: So luong tru phai la so duong\"); // SIM: S lng tr phi l s dng\r\n        \r\n        uint256 currentStock = storeStockLevels[_storeAddress][_itemId];\r\n        require(currentStock >= _quantity, \"SIM: Khong du ton kho cua hang de ban\"); // SIM: Khng  tn kho ca hng  bn\r\n        \r\n        storeStockLevels[_storeAddress][_itemId] = currentStock - _quantity;\r\n        emit StockDeductedForSale(_storeAddress, _itemId, _quantity, _customerOrderId);\r\n    }\r\n\r\n    // --- CC HM ADMIN/QUN L ---\r\n    function adjustStoreStockManually(\r\n        address _storeAddress,\r\n        string calldata _itemId,\r\n        int256 _quantityChange,      // C th m hoc dng\r\n        string calldata _reason\r\n    ) external { // C th l onlyOwner hoc onlyStoreManager(_storeAddress)\r\n        // V d: ch cho php qun l ca ca hng \r\n        ItemsManagement.PhysicalLocationInfo memory storeInfo = itemsManagementExternal.getStoreInfo(_storeAddress);\r\n        require(storeInfo.exists && storeInfo.manager == msg.sender, \"SIM: Nguoi goi khong phai quan ly duoc uy quyen cho ton kho cua hang nay\"); // SIM: Ngi gi khng phi qun l c y quyn cho tn kho ca hng ny\r\n        bytes32 smRole = roleManagementExternal.STORE_MANAGER_ROLE();\r\n        require(roleManagementExternal.hasRole(smRole, msg.sender), \"SIM: Nguoi goi thieu vai tro QUAN_LY_CH\"); // SIM: Ngi gi thiu vai tr QUAN_LY_CH\r\n\r\n        uint256 currentStock = storeStockLevels[_storeAddress][_itemId];\r\n        if (_quantityChange > 0) {\r\n            storeStockLevels[_storeAddress][_itemId] = currentStock + uint256(_quantityChange);\r\n        } else if (_quantityChange < 0) {\r\n            uint256 amountToDecrease = uint256(-_quantityChange);\r\n            require(currentStock >= amountToDecrease, \"SIM: Dieu chinh thu cong dan den ton kho am\"); // SIM: iu chnh th cng dn n tn kho m\r\n            storeStockLevels[_storeAddress][_itemId] = currentStock - amountToDecrease;\r\n        } else {\r\n            revert(\"SIM: Thay doi so luong khong the bang khong\"); // SIM: Thay i s lng khng th bng khng\r\n        }\r\n        emit StoreStockAdjusted(_storeAddress, _itemId, _quantityChange, _reason, msg.sender);\r\n    }\r\n\r\n    // --- CC HM XEM (VIEW FUNCTIONS) ---\r\n    function getStoreStockLevel(address _storeAddress, string calldata _itemId) external view returns (uint256) {\r\n        return storeStockLevels[_storeAddress][_itemId];\r\n    }\r\n}\r\n",
  "sourcePath": "D:\\nhi\\Logtech\\New tech in Log\\dapp2\\SC\\contracts\\StoreInventory.sol",
  "compiler": {
    "name": "solc",
    "version": "0.8.0+commit.c7dfd78e.Emscripten.clang"
  },
  "schemaVersion": "3.4.16",
  "updatedAt": "2025-06-01T18:42:33.959Z",
  "networkType": "ethereum",
  "devdoc": {
    "kind": "dev",
    "methods": {
      "owner()": {
        "details": "Returns the address of the current owner."
      },
      "renounceOwnership()": {
        "details": "Leaves the contract without owner. It will not be possible to call `onlyOwner` functions anymore. Can only be called by the current owner. NOTE: Renouncing ownership will leave the contract without an owner, thereby removing any functionality that is only available to the owner."
      },
      "transferOwnership(address)": {
        "details": "Transfers ownership of the contract to a new account (`newOwner`). Can only be called by the current owner."
      }
    },
    "version": 1
  },
  "userdoc": {
    "kind": "user",
    "methods": {},
    "version": 1
  }
}