{
  "contractName": "StoreInventoryManagement",
  "abi": [
    {
      "inputs": [
        {
          "internalType": "address",
          "name": "_roleManagementAddress",
          "type": "address"
        },
        {
          "internalType": "address",
          "name": "_itemsManagementAddress",
          "type": "address"
        }
      ],
      "stateMutability": "nonpayable",
      "type": "constructor"
    },
    {
      "anonymous": false,
      "inputs": [
        {
          "indexed": true,
          "internalType": "address",
          "name": "comAddress",
          "type": "address"
        }
      ],
      "name": "CustomerOrderManagementAddressSet",
      "type": "event"
    },
    {
      "anonymous": false,
      "inputs": [
        {
          "indexed": true,
          "internalType": "address",
          "name": "previousOwner",
          "type": "address"
        },
        {
          "indexed": true,
          "internalType": "address",
          "name": "newOwner",
          "type": "address"
        }
      ],
      "name": "OwnershipTransferred",
      "type": "event"
    },
    {
      "anonymous": false,
      "inputs": [
        {
          "indexed": true,
          "internalType": "address",
          "name": "storeAddress",
          "type": "address"
        },
        {
          "indexed": true,
          "internalType": "string",
          "name": "itemId",
          "type": "string"
        },
        {
          "indexed": false,
          "internalType": "uint256",
          "name": "quantityDeducted",
          "type": "uint256"
        },
        {
          "indexed": true,
          "internalType": "uint256",
          "name": "customerOrderId",
          "type": "uint256"
        }
      ],
      "name": "StockDeductedForSale",
      "type": "event"
    },
    {
      "anonymous": false,
      "inputs": [
        {
          "indexed": true,
          "internalType": "address",
          "name": "storeAddress",
          "type": "address"
        },
        {
          "indexed": true,
          "internalType": "string",
          "name": "itemId",
          "type": "string"
        },
        {
          "indexed": false,
          "internalType": "uint256",
          "name": "quantity",
          "type": "uint256"
        },
        {
          "indexed": true,
          "internalType": "address",
          "name": "fromWarehouse",
          "type": "address"
        },
        {
          "indexed": false,
          "internalType": "uint256",
          "name": "wimTransferId",
          "type": "uint256"
        }
      ],
      "name": "StockReceivedAtStore",
      "type": "event"
    },
    {
      "anonymous": false,
      "inputs": [
        {
          "indexed": true,
          "internalType": "address",
          "name": "storeAddress",
          "type": "address"
        },
        {
          "indexed": true,
          "internalType": "address",
          "name": "designatedWarehouse",
          "type": "address"
        },
        {
          "indexed": false,
          "internalType": "string",
          "name": "itemId",
          "type": "string"
        },
        {
          "indexed": false,
          "internalType": "uint256",
          "name": "quantity",
          "type": "uint256"
        },
        {
          "indexed": true,
          "internalType": "uint256",
          "name": "wimTransferId",
          "type": "uint256"
        },
        {
          "indexed": false,
          "internalType": "address",
          "name": "byStoreManager",
          "type": "address"
        }
      ],
      "name": "StockRequestedFromWarehouse",
      "type": "event"
    },
    {
      "anonymous": false,
      "inputs": [
        {
          "indexed": true,
          "internalType": "address",
          "name": "storeAddress",
          "type": "address"
        },
        {
          "indexed": true,
          "internalType": "string",
          "name": "itemId",
          "type": "string"
        },
        {
          "indexed": false,
          "internalType": "int256",
          "name": "quantityChange",
          "type": "int256"
        },
        {
          "indexed": false,
          "internalType": "string",
          "name": "reason",
          "type": "string"
        },
        {
          "indexed": true,
          "internalType": "address",
          "name": "byAdminOrManager",
          "type": "address"
        }
      ],
      "name": "StoreStockAdjusted",
      "type": "event"
    },
    {
      "anonymous": false,
      "inputs": [
        {
          "indexed": true,
          "internalType": "address",
          "name": "wimAddress",
          "type": "address"
        }
      ],
      "name": "WarehouseInventoryManagementAddressSet",
      "type": "event"
    },
    {
      "inputs": [],
      "name": "customerOrderManagementAddress",
      "outputs": [
        {
          "internalType": "address",
          "name": "",
          "type": "address"
        }
      ],
      "stateMutability": "view",
      "type": "function"
    },
    {
      "inputs": [],
      "name": "itemsManagementExternal",
      "outputs": [
        {
          "internalType": "contract IItemsManagementInterface",
          "name": "",
          "type": "address"
        }
      ],
      "stateMutability": "view",
      "type": "function"
    },
    {
      "inputs": [],
      "name": "owner",
      "outputs": [
        {
          "internalType": "address",
          "name": "",
          "type": "address"
        }
      ],
      "stateMutability": "view",
      "type": "function"
    },
    {
      "inputs": [],
      "name": "renounceOwnership",
      "outputs": [],
      "stateMutability": "nonpayable",
      "type": "function"
    },
    {
      "inputs": [],
      "name": "roleManagementExternal",
      "outputs": [
        {
          "internalType": "contract IRoleManagementInterface",
          "name": "",
          "type": "address"
        }
      ],
      "stateMutability": "view",
      "type": "function"
    },
    {
      "inputs": [
        {
          "internalType": "address",
          "name": "",
          "type": "address"
        },
        {
          "internalType": "string",
          "name": "",
          "type": "string"
        }
      ],
      "name": "storeStockLevels",
      "outputs": [
        {
          "internalType": "uint256",
          "name": "",
          "type": "uint256"
        }
      ],
      "stateMutability": "view",
      "type": "function"
    },
    {
      "inputs": [
        {
          "internalType": "address",
          "name": "newOwner",
          "type": "address"
        }
      ],
      "name": "transferOwnership",
      "outputs": [],
      "stateMutability": "nonpayable",
      "type": "function"
    },
    {
      "inputs": [],
      "name": "warehouseInventoryManagementExternal",
      "outputs": [
        {
          "internalType": "contract IWarehouseInventoryManagementInterface",
          "name": "",
          "type": "address"
        }
      ],
      "stateMutability": "view",
      "type": "function"
    },
    {
      "inputs": [
        {
          "internalType": "address",
          "name": "_wimAddress",
          "type": "address"
        }
      ],
      "name": "setWarehouseInventoryManagementAddress",
      "outputs": [],
      "stateMutability": "nonpayable",
      "type": "function"
    },
    {
      "inputs": [
        {
          "internalType": "address",
          "name": "_comAddress",
          "type": "address"
        }
      ],
      "name": "setCustomerOrderManagementAddress",
      "outputs": [],
      "stateMutability": "nonpayable",
      "type": "function"
    },
    {
      "inputs": [
        {
          "internalType": "address",
          "name": "_storeAddress",
          "type": "address"
        },
        {
          "internalType": "string",
          "name": "_itemId",
          "type": "string"
        },
        {
          "internalType": "uint256",
          "name": "_quantity",
          "type": "uint256"
        }
      ],
      "name": "requestStockFromDesignatedWarehouse",
      "outputs": [],
      "stateMutability": "nonpayable",
      "type": "function"
    },
    {
      "inputs": [
        {
          "internalType": "address",
          "name": "_storeAddress",
          "type": "address"
        },
        {
          "internalType": "string",
          "name": "_itemId",
          "type": "string"
        },
        {
          "internalType": "uint256",
          "name": "_quantity",
          "type": "uint256"
        },
        {
          "internalType": "address",
          "name": "_fromWarehouseAddress",
          "type": "address"
        },
        {
          "internalType": "uint256",
          "name": "_internalTransferId",
          "type": "uint256"
        }
      ],
      "name": "confirmStockReceivedFromWarehouse",
      "outputs": [],
      "stateMutability": "nonpayable",
      "type": "function"
    },
    {
      "inputs": [
        {
          "internalType": "address",
          "name": "_storeAddress",
          "type": "address"
        },
        {
          "internalType": "string",
          "name": "_itemId",
          "type": "string"
        },
        {
          "internalType": "uint256",
          "name": "_quantity",
          "type": "uint256"
        },
        {
          "internalType": "uint256",
          "name": "_customerOrderId",
          "type": "uint256"
        }
      ],
      "name": "deductStockForCustomerSale",
      "outputs": [],
      "stateMutability": "nonpayable",
      "type": "function"
    },
    {
      "inputs": [
        {
          "internalType": "address",
          "name": "_storeAddress",
          "type": "address"
        },
        {
          "internalType": "string",
          "name": "_itemId",
          "type": "string"
        },
        {
          "internalType": "int256",
          "name": "_quantityChange",
          "type": "int256"
        },
        {
          "internalType": "string",
          "name": "_reason",
          "type": "string"
        }
      ],
      "name": "adjustStoreStockManually",
      "outputs": [],
      "stateMutability": "nonpayable",
      "type": "function"
    },
    {
      "inputs": [
        {
          "internalType": "address",
          "name": "_storeAddress",
          "type": "address"
        },
        {
          "internalType": "string",
          "name": "_itemId",
          "type": "string"
        }
      ],
      "name": "getStoreStockLevel",
      "outputs": [
        {
          "internalType": "uint256",
          "name": "",
          "type": "uint256"
        }
      ],
      "stateMutability": "view",
      "type": "function"
    }
  ],
  "bytecode": "0x60806040523480156200001157600080fd5b5060405162001f8038038062001f80833981016040819052620000349162000185565b600080546001600160a01b031916339081178255604051909182917f8be0079c531659141344cd1fd0a4f28419497f9722a3daafe3b4186f6b6457e0908290a3506001600160a01b038216620000d15760405162461bcd60e51b815260206004820152601c60248201527f53494d3a204469612063686920524d206b686f6e6720686f70206c650000000060448201526064015b60405180910390fd5b600180546001600160a01b0319166001600160a01b03848116919091179091558116620001415760405162461bcd60e51b815260206004820181905260248201527f53494d3a2044696120636869204974656d734d206b686f6e6720686f70206c656044820152606401620000c8565b600280546001600160a01b0319166001600160a01b039290921691909117905550620001bc565b80516001600160a01b03811681146200018057600080fd5b919050565b6000806040838503121562000198578182fd5b620001a38362000168565b9150620001b36020840162000168565b90509250929050565b611db480620001cc6000396000f3fe608060405234801561001057600080fd5b50600436106100f55760003560e01c80638da5cb5b11610097578063e6a2194311610066578063e6a2194314610214578063eb2ca11014610227578063f2fde38b1461023a578063f4ddd27a1461024d57600080fd5b80638da5cb5b146101ca5780639ac01de6146101db578063d04cc29b146101ee578063dc94b9461461020157600080fd5b80636718b05b116100d35780636718b05b14610152578063715018a6146101655780637b0f813c1461016d5780638a4d65f21461018057600080fd5b806318492987146100fa578063479700521461012a578063626f94d61461013f575b600080fd5b60035461010d906001600160a01b031681565b6040516001600160a01b0390911681526020015b60405180910390f35b61013d6101383660046117eb565b610260565b005b61013d61014d366004611775565b610712565b60045461010d906001600160a01b031681565b61013d610819565b61013d61017b366004611948565b6108ca565b6101bc61018e3660046119ad565b6005602090815260009283526040909220815180830184018051928152908401929093019190912091525481565b604051908152602001610121565b6000546001600160a01b031661010d565b61013d6101e93660046118ce565b610b53565b60025461010d906001600160a01b031681565b61013d61020f366004611874565b610d8b565b60015461010d906001600160a01b031681565b6101bc610235366004611798565b6113b5565b61013d610248366004611775565b611459565b61013d61025b366004611775565b611597565b600080546001600160a01b03163314908161045b5760025460405163329a587360e01b81526001600160a01b038a81166004830152600092169063329a58739060240160006040518083038186803b1580156102bb57600080fd5b505afa1580156102cf573d6000803e3d6000fd5b505050506040513d6000823e601f3d908101601f191682016040526102f79190810190611a67565b905080608001518015610316575060608101516001600160a01b031633145b1561045957600154604080517f1f10779800000000000000000000000000000000000000000000000000000000815290516000926001600160a01b031691631f107798916004808301926020929190829003018186803b15801561037957600080fd5b505afa15801561038d573d6000803e3d6000fd5b505050506040513d601f19601f820116820180604052508101906103b19190611a4f565b6001546040517f91d14854000000000000000000000000000000000000000000000000000000008152600481018390523360248201529192506001600160a01b0316906391d148549060440160206040518083038186803b15801561041557600080fd5b505afa158015610429573d6000803e3d6000fd5b505050506040513d601f19601f8201168201806040525081019061044d9190611a35565b1561045757600192505b505b505b81806104645750805b6104db5760405162461bcd60e51b815260206004820152603360248201527f53494d3a204b686f6e6720636f20717579656e2064696575206368696e68207460448201527f6f6e206b686f206375612068616e67206e61790000000000000000000000000060648201526084015b60405180910390fd5b6001600160a01b0388166000908152600560205260408082209051610503908a908a90611b72565b90815260200160405180910390205490506000861315610565576105278682611ca3565b6001600160a01b038a16600090815260056020526040908190209051610550908b908b90611b72565b908152604051908190036020019020556106a8565b600086121561063a57600061057987611cd2565b9050808210156105f15760405162461bcd60e51b815260206004820152602b60248201527f53494d3a2044696575206368696e682074687520636f6e672064616e2064656e60448201527f20746f6e206b686f20616d00000000000000000000000000000000000000000060648201526084016104d2565b6105fb8183611cbb565b6001600160a01b038b16600090815260056020526040908190209051610624908c908c90611b72565b90815260405190819003602001902055506106a8565b60405162461bcd60e51b815260206004820152602b60248201527f53494d3a205468617920646f6920736f206c756f6e67206b686f6e672074686560448201527f2062616e67206b686f6e6700000000000000000000000000000000000000000060648201526084016104d2565b60405133906106ba908a908a90611b72565b60405180910390208a6001600160a01b03167ffb5dfbe66914f7eaeb79eb9cace7c205345c751a42326b54ade553ebf68bc1f98989896040516106ff93929190611bca565b60405180910390a4505050505050505050565b6000546001600160a01b0316331461076c5760405162461bcd60e51b815260206004820181905260248201527f4f776e61626c653a2063616c6c6572206973206e6f7420746865206f776e657260448201526064016104d2565b6001600160a01b0381166107c25760405162461bcd60e51b815260206004820152601d60248201527f53494d3a204469612063686920434f4d206b686f6e6720686f70206c6500000060448201526064016104d2565b6004805473ffffffffffffffffffffffffffffffffffffffff19166001600160a01b0383169081179091556040517ff60a7d245ccf77dd2036da1a1ad14a8c5dba1a9ccc98b56d0ad004b140c9472390600090a250565b6000546001600160a01b031633146108735760405162461bcd60e51b815260206004820181905260248201527f4f776e61626c653a2063616c6c6572206973206e6f7420746865206f776e657260448201526064016104d2565b600080546040516001600160a01b03909116907f8be0079c531659141344cd1fd0a4f28419497f9722a3daafe3b4186f6b6457e0908390a36000805473ffffffffffffffffffffffffffffffffffffffff19169055565b6004546001600160a01b031633146109245760405162461bcd60e51b815260206004820152601d60248201527f53494d3a204e67756f6920676f69206b686f6e67207068616920434f4d00000060448201526064016104d2565b6001600160a01b0385166109855760405162461bcd60e51b815260206004820152602260248201527f53494d3a2044696120636869206375612068616e67206b686f6e6720686f70206044820152616c6560f01b60648201526084016104d2565b600082116109fb5760405162461bcd60e51b815260206004820152602260248201527f53494d3a20536f206c756f6e67207472752070686169206c6120736f2064756f60448201527f6e6700000000000000000000000000000000000000000000000000000000000060648201526084016104d2565b6001600160a01b0385166000908152600560205260408082209051610a239087908790611b72565b908152602001604051809103902054905082811015610aaa5760405162461bcd60e51b815260206004820152602560248201527f53494d3a204b686f6e6720647520746f6e206b686f206375612068616e67206460448201527f652062616e00000000000000000000000000000000000000000000000000000060648201526084016104d2565b610ab48382611cbb565b6001600160a01b038716600090815260056020526040908190209051610add9088908890611b72565b908152602001604051809103902081905550818585604051610b00929190611b72565b6040518091039020876001600160a01b03167f29b1e31f6ff829a325f63fc4bef376ea772e735f65e21879531683f99aa6c3d886604051610b4391815260200190565b60405180910390a4505050505050565b6003546001600160a01b03163314610bad5760405162461bcd60e51b815260206004820152601d60248201527f53494d3a204e67756f6920676f69206b686f6e6720706861692057494d00000060448201526064016104d2565b6001600160a01b038616610c0e5760405162461bcd60e51b815260206004820152602260248201527f53494d3a2044696120636869206375612068616e67206b686f6e6720686f70206044820152616c6560f01b60648201526084016104d2565b6001600160a01b038216610c8a5760405162461bcd60e51b815260206004820152602160248201527f53494d3a2044696120636869206b686f20677569206b686f6e6720686f70206c60448201527f650000000000000000000000000000000000000000000000000000000000000060648201526084016104d2565b60008311610cda5760405162461bcd60e51b815260206004820152601d60248201527f53494d3a20536f206c756f6e67206e68616e20706861692064756f6e6700000060448201526064016104d2565b6001600160a01b038616600090815260056020526040908190209051849190610d069088908890611b72565b90815260200160405180910390206000828254610d239190611ca3565b90915550506040516001600160a01b03831690610d439087908790611b72565b6040805191829003822086835260208301859052916001600160a01b038a16917f52f87c542bd5d87d5adb3164a279f24fa2c53d27e879e17c8b400bc10cdc50269101610b43565b836001600160a01b038116610ded5760405162461bcd60e51b815260206004820152602260248201527f53494d3a2044696120636869206375612068616e67206b686f6e6720686f70206044820152616c6560f01b60648201526084016104d2565b60025460405163329a587360e01b81526001600160a01b038381166004830152600092169063329a58739060240160006040518083038186803b158015610e3357600080fd5b505afa158015610e47573d6000803e3d6000fd5b505050506040513d6000823e601f3d908101601f19168201604052610e6f9190810190611a67565b90508060800151610ee85760405162461bcd60e51b815260206004820152602c60248201527f53494d3a204375612068616e6720636875612064756f632064616e67206b792060448201527f74726f6e67204974656d734d000000000000000000000000000000000000000060648201526084016104d2565b60608101516001600160a01b03163314610f6a5760405162461bcd60e51b815260206004820152602e60248201527f53494d3a204e67756f6920676f69206b686f6e672070686169207175616e206c60448201527f79206375612068616e67206e617900000000000000000000000000000000000060648201526084016104d2565b600154604080517f1f10779800000000000000000000000000000000000000000000000000000000815290516000926001600160a01b031691631f107798916004808301926020929190829003018186803b158015610fc857600080fd5b505afa158015610fdc573d6000803e3d6000fd5b505050506040513d601f19601f820116820180604052508101906110009190611a4f565b6001546040517f91d14854000000000000000000000000000000000000000000000000000000008152600481018390523360248201529192506001600160a01b0316906391d148549060440160206040518083038186803b15801561106457600080fd5b505afa158015611078573d6000803e3d6000fd5b505050506040513d601f19601f8201168201806040525081019061109c9190611a35565b61110e5760405162461bcd60e51b815260206004820152602760248201527f53494d3a204e67756f6920676f69207468696575207661692074726f2051554160448201527f4e5f4c595f43480000000000000000000000000000000000000000000000000060648201526084016104d2565b6003546001600160a01b03166111665760405162461bcd60e51b815260206004820152601e60248201527f53494d3a20446961206368692057494d20636875612064756f6320646174000060448201526064016104d2565b600084116111b65760405162461bcd60e51b815260206004820152601e60248201527f53494d3a20536f206c756f6e672070686169206c6120736f2064756f6e67000060448201526064016104d2565b60025460405163329a587360e01b81526001600160a01b038981166004830152600092169063329a58739060240160006040518083038186803b1580156111fc57600080fd5b505afa158015611210573d6000803e3d6000fd5b505050506040513d6000823e601f3d908101601f191682016040526112389190810190611a67565b60c08101519091506001600160a01b03166112bb5760405162461bcd60e51b815260206004820152602960248201527f53494d3a204375612068616e67206b686f6e6720636f206b686f206e67756f6e60448201527f206368692064696e68000000000000000000000000000000000000000000000060648201526084016104d2565b60035460c08201516040517f1f8b929d0000000000000000000000000000000000000000000000000000000081526000926001600160a01b031691631f8b929d916113139133918e91908e908e908e90600401611b82565b602060405180830381600087803b15801561132d57600080fd5b505af1158015611341573d6000803e3d6000fd5b505050506040513d601f19601f820116820180604052508101906113659190611a4f565b9050808260c001516001600160a01b03168a6001600160a01b03167f9050656f654737d2120a21133900e4b61725a4a70ac1c8e16c5c015812dc9b638b8b8b336040516106ff9493929190611bed565b60006001600160a01b0384166114185760405162461bcd60e51b815260206004820152602260248201527f53494d3a2044696120636869206375612068616e67206b686f6e6720686f70206044820152616c6560f01b60648201526084016104d2565b6001600160a01b0384166000908152600560205260409081902090516114419085908590611b72565b90815260200160405180910390205490509392505050565b6000546001600160a01b031633146114b35760405162461bcd60e51b815260206004820181905260248201527f4f776e61626c653a2063616c6c6572206973206e6f7420746865206f776e657260448201526064016104d2565b6001600160a01b03811661152f5760405162461bcd60e51b815260206004820152602660248201527f4f776e61626c653a206e6577206f776e657220697320746865207a65726f206160448201527f646472657373000000000000000000000000000000000000000000000000000060648201526084016104d2565b600080546040516001600160a01b03808516939216917f8be0079c531659141344cd1fd0a4f28419497f9722a3daafe3b4186f6b6457e091a36000805473ffffffffffffffffffffffffffffffffffffffff19166001600160a01b0392909216919091179055565b6000546001600160a01b031633146115f15760405162461bcd60e51b815260206004820181905260248201527f4f776e61626c653a2063616c6c6572206973206e6f7420746865206f776e657260448201526064016104d2565b6001600160a01b0381166116475760405162461bcd60e51b815260206004820152601d60248201527f53494d3a20446961206368692057494d206b686f6e6720686f70206c6500000060448201526064016104d2565b6003805473ffffffffffffffffffffffffffffffffffffffff19166001600160a01b0383169081179091556040517f9d00bdb4c1bf918df98c2197d7890603abf58babbc46d1a0442c1d92855fa12990600090a250565b80516116a981611d66565b919050565b805180151581146116a957600080fd5b60008083601f8401126116cf578182fd5b50813567ffffffffffffffff8111156116e6578182fd5b6020830191508360208285010111156116fe57600080fd5b9250929050565b600082601f830112611715578081fd5b815161172861172382611c7b565b611c4a565b8181526020858184870101111561173d578384fd5b835b8381101561175a57858101820151838201830152810161173f565b8381111561176a57848285850101525b509095945050505050565b600060208284031215611786578081fd5b813561179181611d66565b9392505050565b6000806000604084860312156117ac578182fd5b83356117b781611d66565b9250602084013567ffffffffffffffff8111156117d2578283fd5b6117de868287016116be565b9497909650939450505050565b60008060008060008060808789031215611803578182fd5b863561180e81611d66565b9550602087013567ffffffffffffffff8082111561182a578384fd5b6118368a838b016116be565b9097509550604089013594506060890135915080821115611855578384fd5b5061186289828a016116be565b979a9699509497509295939492505050565b60008060008060608587031215611889578384fd5b843561189481611d66565b9350602085013567ffffffffffffffff8111156118af578384fd5b6118bb878288016116be565b9598909750949560400135949350505050565b60008060008060008060a087890312156118e6578182fd5b86356118f181611d66565b9550602087013567ffffffffffffffff81111561190c578283fd5b61191889828a016116be565b90965094505060408701359250606087013561193381611d66565b80925050608087013590509295509295509295565b60008060008060006080868803121561195f578081fd5b853561196a81611d66565b9450602086013567ffffffffffffffff811115611985578182fd5b611991888289016116be565b9699909850959660408101359660609091013595509350505050565b600080604083850312156119bf578182fd5b82356119ca81611d66565b9150602083013567ffffffffffffffff8111156119e5578182fd5b8301601f810185136119f5578182fd5b8035611a0361172382611c7b565b818152866020838501011115611a17578384fd5b81602084016020830137908101602001929092525090939092509050565b600060208284031215611a46578081fd5b611791826116ae565b600060208284031215611a60578081fd5b5051919050565b600060208284031215611a78578081fd5b815167ffffffffffffffff80821115611a8f578283fd5b9083019060e08286031215611aa2578283fd5b611aaa611c21565b611ab38361169e565b8152602083015182811115611ac6578485fd5b611ad287828601611705565b602083015250604083015182811115611ae9578485fd5b611af587828601611705565b604083015250611b076060840161169e565b6060820152611b18608084016116ae565b6080820152611b2960a084016116ae565b60a0820152611b3a60c0840161169e565b60c082015295945050505050565b8183528181602085013750600080602083850101526020601f19601f840116840101905092915050565b8183823760009101908152919050565b60006001600160a01b038089168352808816602084015280871660408401525060a06060830152611bb760a083018587611b48565b9050826080830152979650505050505050565b838152604060208201526000611be4604083018486611b48565b95945050505050565b606081526000611c01606083018688611b48565b90508360208301526001600160a01b038316604083015295945050505050565b60405160e0810167ffffffffffffffff81118282101715611c4457611c44611d37565b60405290565b604051601f8201601f1916810167ffffffffffffffff81118282101715611c7357611c73611d37565b604052919050565b600067ffffffffffffffff821115611c9557611c95611d37565b50601f01601f191660200190565b60008219821115611cb657611cb6611d08565b500190565b600082821015611ccd57611ccd611d08565b500390565b60007f8000000000000000000000000000000000000000000000000000000000000000821415611d0457611d04611d08565b0390565b7f4e487b7100000000000000000000000000000000000000000000000000000000600052601160045260246000fd5b7f4e487b7100000000000000000000000000000000000000000000000000000000600052604160045260246000fd5b6001600160a01b0381168114611d7b57600080fd5b5056fea2646970667358221220e9c4222cf0438f9ae7785c332c903dab81b7580be4e18c0a6ff2bfb1b0b6b52a64736f6c63430008040033",
  "immutableReferences": {},
  "source": "// SPDX-License-Identifier: MIT\r\npragma solidity ^0.8.4;\r\n\r\nimport \"@openzeppelin/contracts/access/Ownable.sol\";\r\nimport \"./Interfaces.sol\";      // Import file Interfaces.sol tp trung\r\nimport \"./ItemsManagement.sol\"; // Import ItemsManagement  trnh bin dch lin kt contract\r\n\r\n// Hp ng Qun l Tn kho Ca hng\r\ncontract StoreInventoryManagement is Ownable {\r\n    // S dng cc interface t Interfaces.sol\r\n    IRoleManagementInterface public roleManagementExternal;\r\n    IItemsManagementInterface public itemsManagementExternal;\r\n    IWarehouseInventoryManagementInterface public warehouseInventoryManagementExternal;\r\n\r\n    address public customerOrderManagementAddress; //  xc thc ngi gi deductStockForCustomerSale\r\n\r\n    // Tn kho ca hng: storeAddress => itemId => quantity\r\n    mapping(address => mapping(string => uint256)) public storeStockLevels;\r\n\r\n    // Khng cn theo di pendingTransfers trc tip  y, WIM s gi li confirmStockReceivedFromWarehouse\r\n\r\n    // --- EVENTS ---\r\n    event StockRequestedFromWarehouse(\r\n        address indexed storeAddress,\r\n        address indexed designatedWarehouse,\r\n        string itemId, // Thng khng cn indexed nu bn  c storeAddress v designatedWarehouse\r\n        uint256 quantity,\r\n        uint256 indexed wimTransferId, // ID t WIM  theo di\r\n        address byStoreManager\r\n    );\r\n    event StockReceivedAtStore(\r\n        address indexed storeAddress,\r\n        string indexed itemId, // itemId  y c th hu ch  theo di mt hng no c nhn\r\n        uint256 quantity,\r\n        address indexed fromWarehouse,\r\n        uint256 wimTransferId // ID t WIM  i chiu\r\n    );\r\n    event StockDeductedForSale(\r\n        address indexed storeAddress,\r\n        string indexed itemId, // Tng t, itemId  y c th hu ch\r\n        uint256 quantityDeducted,\r\n        uint256 indexed customerOrderId\r\n    );\r\n    event StoreStockAdjusted(\r\n        address indexed storeAddress,\r\n        string indexed itemId,\r\n        int256 quantityChange,\r\n        string reason,\r\n        address indexed byAdminOrManager // Phn nh ai  thc hin\r\n    );\r\n\r\n    // Admin/Owner events\r\n    event WarehouseInventoryManagementAddressSet(address indexed wimAddress);\r\n    event CustomerOrderManagementAddressSet(address indexed comAddress);\r\n\r\n\r\n    // --- CONSTRUCTOR ---\r\n    constructor(address _roleManagementAddress, address _itemsManagementAddress) Ownable() {\r\n        require(_roleManagementAddress != address(0), \"SIM: Dia chi RM khong hop le\");\r\n        roleManagementExternal = IRoleManagementInterface(_roleManagementAddress);\r\n\r\n        require(_itemsManagementAddress != address(0), \"SIM: Dia chi ItemsM khong hop le\");\r\n        itemsManagementExternal = IItemsManagementInterface(_itemsManagementAddress);\r\n    }\r\n\r\n    // --- MODIFIERS ---\r\n    // Modifier ch cho php Qun l Ca hng ca ca hng c ch nh\r\n    modifier onlyStoreManager(address _storeAddress) {\r\n        require(_storeAddress != address(0), \"SIM: Dia chi cua hang khong hop le\");\r\n        // S dng PhysicalLocationInfo  c forward-declare trong Interfaces.sol\r\n        PhysicalLocationInfo memory storeInfo = itemsManagementExternal.getStoreInfo(_storeAddress);\r\n        require(storeInfo.exists, \"SIM: Cua hang chua duoc dang ky trong ItemsM\");\r\n        require(storeInfo.manager == msg.sender, \"SIM: Nguoi goi khong phai quan ly cua hang nay\");\r\n\r\n        bytes32 smRole = roleManagementExternal.STORE_MANAGER_ROLE();\r\n        require(roleManagementExternal.hasRole(smRole, msg.sender), \"SIM: Nguoi goi thieu vai tro QUAN_LY_CH\");\r\n        _;\r\n    }\r\n\r\n    // --- HM SETTER (Ch Owner) ---\r\n    function setWarehouseInventoryManagementAddress(address _wimAddress) external onlyOwner {\r\n        require(_wimAddress != address(0), \"SIM: Dia chi WIM khong hop le\");\r\n        warehouseInventoryManagementExternal = IWarehouseInventoryManagementInterface(_wimAddress);\r\n        emit WarehouseInventoryManagementAddressSet(_wimAddress);\r\n    }\r\n\r\n    function setCustomerOrderManagementAddress(address _comAddress) external onlyOwner {\r\n        require(_comAddress != address(0), \"SIM: Dia chi COM khong hop le\");\r\n        customerOrderManagementAddress = _comAddress;\r\n        emit CustomerOrderManagementAddressSet(_comAddress);\r\n    }\r\n\r\n    // --- CC HM CT LI ---\r\n\r\n    // c gi bi Qun l Ca hng  ly hng t kho ngun ch nh ca h\r\n    function requestStockFromDesignatedWarehouse(\r\n        address _storeAddress, // Ca hng yu cu (msg.sender phi l qun l ca ca hng ny)\r\n        string calldata _itemId,\r\n        uint256 _quantity\r\n    ) external onlyStoreManager(_storeAddress) { // Modifier m bo msg.sender l qun l ca _storeAddress\r\n        require(address(warehouseInventoryManagementExternal) != address(0), \"SIM: Dia chi WIM chua duoc dat\");\r\n        require(_quantity > 0, \"SIM: So luong phai la so duong\");\r\n\r\n        // itemsManagementExternal.getStoreInfo  c gi trong modifier\r\n        PhysicalLocationInfo memory storeInfo = itemsManagementExternal.getStoreInfo(_storeAddress);\r\n        require(storeInfo.designatedSourceWarehouseAddress != address(0), \"SIM: Cua hang khong co kho nguon chi dinh\");\r\n\r\n        uint256 wimTransferId = warehouseInventoryManagementExternal.requestStockTransferToStore(\r\n            msg.sender, // Qun l ca hng ang yu cu\r\n            _storeAddress,\r\n            storeInfo.designatedSourceWarehouseAddress,\r\n            _itemId,\r\n            _quantity\r\n        );\r\n\r\n        emit StockRequestedFromWarehouse(_storeAddress, storeInfo.designatedSourceWarehouseAddress, _itemId, _quantity, wimTransferId, msg.sender);\r\n    }\r\n\r\n    // c gi bi WarehouseInventoryManagement sau khi  x l vic chuyn hng\r\n    function confirmStockReceivedFromWarehouse(\r\n        address _storeAddress,\r\n        string calldata _itemId,\r\n        uint256 _quantity,\r\n        address _fromWarehouseAddress, // Kho  gi hng\r\n        uint256 _internalTransferId    // ID giao dch chuyn ni b t WIM  i chiu\r\n    ) external {\r\n        require(msg.sender == address(warehouseInventoryManagementExternal), \"SIM: Nguoi goi khong phai WIM\");\r\n        require(_storeAddress != address(0), \"SIM: Dia chi cua hang khong hop le\");\r\n        require(_fromWarehouseAddress != address(0), \"SIM: Dia chi kho gui khong hop le\");\r\n        require(_quantity > 0, \"SIM: So luong nhan phai duong\");\r\n\r\n        // Ty chn: Xc thc _storeAddress tn ti thng qua itemsManagementExternal\r\n        // PhysicalLocationInfo memory storeInfo = itemsManagementExternal.getStoreInfo(_storeAddress);\r\n        // require(storeInfo.exists, \"SIM: Cua hang nhan khong ton tai\");\r\n\r\n        storeStockLevels[_storeAddress][_itemId] += _quantity;\r\n        emit StockReceivedAtStore(_storeAddress, _itemId, _quantity, _fromWarehouseAddress, _internalTransferId);\r\n    }\r\n\r\n    // c gi bi CustomerOrderManagement khi mt n hng c hon thnh v cn tr tn kho\r\n    function deductStockForCustomerSale(\r\n        address _storeAddress,\r\n        string calldata _itemId,\r\n        uint256 _quantity,\r\n        uint256 _customerOrderId\r\n    ) external {\r\n        require(msg.sender == customerOrderManagementAddress, \"SIM: Nguoi goi khong phai COM\");\r\n        require(_storeAddress != address(0), \"SIM: Dia chi cua hang khong hop le\");\r\n        require(_quantity > 0, \"SIM: So luong tru phai la so duong\");\r\n\r\n        uint256 currentStock = storeStockLevels[_storeAddress][_itemId];\r\n        require(currentStock >= _quantity, \"SIM: Khong du ton kho cua hang de ban\");\r\n\r\n        storeStockLevels[_storeAddress][_itemId] = currentStock - _quantity;\r\n        emit StockDeductedForSale(_storeAddress, _itemId, _quantity, _customerOrderId);\r\n    }\r\n\r\n    // --- CC HM ADMIN/QUN L CA HNG ---\r\n    function adjustStoreStockManually(\r\n        address _storeAddress,\r\n        string calldata _itemId,\r\n        int256 _quantityChange,\r\n        string calldata _reason\r\n    ) external { // Cho php Owner hoc Qun l ca hng \r\n        bool isOwner = (msg.sender == owner());\r\n        bool isAuthorizedManager = false;\r\n        if (!isOwner) {\r\n            // Kim tra xem msg.sender c phi l qun l ca _storeAddress khng\r\n            // v c vai tr STORE_MANAGER_ROLE khng\r\n            PhysicalLocationInfo memory storeInfo = itemsManagementExternal.getStoreInfo(_storeAddress);\r\n            if (storeInfo.exists && storeInfo.manager == msg.sender) {\r\n                bytes32 smRole = roleManagementExternal.STORE_MANAGER_ROLE();\r\n                if (roleManagementExternal.hasRole(smRole, msg.sender)) {\r\n                    isAuthorizedManager = true;\r\n                }\r\n            }\r\n        }\r\n        require(isOwner || isAuthorizedManager, \"SIM: Khong co quyen dieu chinh ton kho cua hang nay\");\r\n\r\n\r\n        uint256 currentStock = storeStockLevels[_storeAddress][_itemId];\r\n        if (_quantityChange > 0) {\r\n            storeStockLevels[_storeAddress][_itemId] = currentStock + uint256(_quantityChange);\r\n        } else if (_quantityChange < 0) {\r\n            uint256 amountToDecrease = uint256(-_quantityChange);\r\n            require(currentStock >= amountToDecrease, \"SIM: Dieu chinh thu cong dan den ton kho am\");\r\n            storeStockLevels[_storeAddress][_itemId] = currentStock - amountToDecrease;\r\n        } else {\r\n            revert(\"SIM: Thay doi so luong khong the bang khong\");\r\n        }\r\n        emit StoreStockAdjusted(_storeAddress, _itemId, _quantityChange, _reason, msg.sender);\r\n    }\r\n\r\n    // --- CC HM XEM (VIEW FUNCTIONS) ---\r\n    function getStoreStockLevel(address _storeAddress, string calldata _itemId) external view returns (uint256) {\r\n        require(_storeAddress != address(0), \"SIM: Dia chi cua hang khong hop le\");\r\n        return storeStockLevels[_storeAddress][_itemId];\r\n    }\r\n}",
  "sourcePath": "D:\\nhi\\Logtech\\New tech in Log\\dapp2\\SC\\contracts\\StoreInventory.sol",
  "compiler": {
    "name": "solc",
    "version": "0.8.4+commit.c7e474f2.Emscripten.clang"
  },
  "schemaVersion": "3.4.16",
  "updatedAt": "2025-06-02T14:38:40.322Z",
  "devdoc": {
    "kind": "dev",
    "methods": {
      "owner()": {
        "details": "Returns the address of the current owner."
      },
      "renounceOwnership()": {
        "details": "Leaves the contract without owner. It will not be possible to call `onlyOwner` functions anymore. Can only be called by the current owner. NOTE: Renouncing ownership will leave the contract without an owner, thereby removing any functionality that is only available to the owner."
      },
      "transferOwnership(address)": {
        "details": "Transfers ownership of the contract to a new account (`newOwner`). Can only be called by the current owner."
      }
    },
    "version": 1
  },
  "userdoc": {
    "kind": "user",
    "methods": {},
    "version": 1
  }
}