{
  "contractName": "StoreInventoryManagement",
  "abi": [
    {
      "inputs": [
        {
          "internalType": "address",
          "name": "_roleManagementAddress",
          "type": "address"
        },
        {
          "internalType": "address",
          "name": "_itemsManagementCoreAddress",
          "type": "address"
        }
      ],
      "stateMutability": "nonpayable",
      "type": "constructor"
    },
    {
      "anonymous": false,
      "inputs": [
        {
          "indexed": true,
          "internalType": "address",
          "name": "comAddress",
          "type": "address"
        }
      ],
      "name": "CustomerOrderManagementAddressSet",
      "type": "event"
    },
    {
      "anonymous": false,
      "inputs": [
        {
          "indexed": true,
          "internalType": "address",
          "name": "previousOwner",
          "type": "address"
        },
        {
          "indexed": true,
          "internalType": "address",
          "name": "newOwner",
          "type": "address"
        }
      ],
      "name": "OwnershipTransferred",
      "type": "event"
    },
    {
      "anonymous": false,
      "inputs": [
        {
          "indexed": true,
          "internalType": "address",
          "name": "storeAddress",
          "type": "address"
        },
        {
          "indexed": true,
          "internalType": "string",
          "name": "itemId",
          "type": "string"
        },
        {
          "indexed": false,
          "internalType": "uint256",
          "name": "quantityDeducted",
          "type": "uint256"
        },
        {
          "indexed": true,
          "internalType": "uint256",
          "name": "customerOrderId",
          "type": "uint256"
        }
      ],
      "name": "StockDeductedForSale",
      "type": "event"
    },
    {
      "anonymous": false,
      "inputs": [
        {
          "indexed": true,
          "internalType": "address",
          "name": "storeAddress",
          "type": "address"
        },
        {
          "indexed": true,
          "internalType": "string",
          "name": "itemId",
          "type": "string"
        },
        {
          "indexed": false,
          "internalType": "uint256",
          "name": "quantity",
          "type": "uint256"
        },
        {
          "indexed": true,
          "internalType": "address",
          "name": "fromWarehouse",
          "type": "address"
        },
        {
          "indexed": false,
          "internalType": "uint256",
          "name": "wimTransferId",
          "type": "uint256"
        }
      ],
      "name": "StockReceivedAtStore",
      "type": "event"
    },
    {
      "anonymous": false,
      "inputs": [
        {
          "indexed": true,
          "internalType": "address",
          "name": "storeAddress",
          "type": "address"
        },
        {
          "indexed": true,
          "internalType": "address",
          "name": "designatedWarehouse",
          "type": "address"
        },
        {
          "indexed": false,
          "internalType": "string",
          "name": "itemId",
          "type": "string"
        },
        {
          "indexed": false,
          "internalType": "uint256",
          "name": "quantity",
          "type": "uint256"
        },
        {
          "indexed": true,
          "internalType": "uint256",
          "name": "wimTransferId",
          "type": "uint256"
        },
        {
          "indexed": false,
          "internalType": "address",
          "name": "byStoreManager",
          "type": "address"
        }
      ],
      "name": "StockRequestedFromWarehouse",
      "type": "event"
    },
    {
      "anonymous": false,
      "inputs": [
        {
          "indexed": true,
          "internalType": "address",
          "name": "storeAddress",
          "type": "address"
        },
        {
          "indexed": true,
          "internalType": "string",
          "name": "itemId",
          "type": "string"
        },
        {
          "indexed": false,
          "internalType": "int256",
          "name": "quantityChange",
          "type": "int256"
        },
        {
          "indexed": false,
          "internalType": "string",
          "name": "reason",
          "type": "string"
        },
        {
          "indexed": true,
          "internalType": "address",
          "name": "byAdminOrManager",
          "type": "address"
        }
      ],
      "name": "StoreStockAdjusted",
      "type": "event"
    },
    {
      "anonymous": false,
      "inputs": [
        {
          "indexed": true,
          "internalType": "address",
          "name": "wimAddress",
          "type": "address"
        }
      ],
      "name": "WarehouseInventoryManagementAddressSet",
      "type": "event"
    },
    {
      "inputs": [],
      "name": "customerOrderManagementAddress",
      "outputs": [
        {
          "internalType": "address",
          "name": "",
          "type": "address"
        }
      ],
      "stateMutability": "view",
      "type": "function",
      "constant": true
    },
    {
      "inputs": [],
      "name": "itemsManagementCore",
      "outputs": [
        {
          "internalType": "contract IItemsManagementCoreInterface",
          "name": "",
          "type": "address"
        }
      ],
      "stateMutability": "view",
      "type": "function",
      "constant": true
    },
    {
      "inputs": [],
      "name": "owner",
      "outputs": [
        {
          "internalType": "address",
          "name": "",
          "type": "address"
        }
      ],
      "stateMutability": "view",
      "type": "function",
      "constant": true
    },
    {
      "inputs": [],
      "name": "renounceOwnership",
      "outputs": [],
      "stateMutability": "nonpayable",
      "type": "function"
    },
    {
      "inputs": [],
      "name": "roleManagementExternal",
      "outputs": [
        {
          "internalType": "contract IRoleManagementInterface",
          "name": "",
          "type": "address"
        }
      ],
      "stateMutability": "view",
      "type": "function",
      "constant": true
    },
    {
      "inputs": [
        {
          "internalType": "address",
          "name": "",
          "type": "address"
        },
        {
          "internalType": "string",
          "name": "",
          "type": "string"
        }
      ],
      "name": "storeStockLevels",
      "outputs": [
        {
          "internalType": "uint256",
          "name": "",
          "type": "uint256"
        }
      ],
      "stateMutability": "view",
      "type": "function",
      "constant": true
    },
    {
      "inputs": [
        {
          "internalType": "address",
          "name": "newOwner",
          "type": "address"
        }
      ],
      "name": "transferOwnership",
      "outputs": [],
      "stateMutability": "nonpayable",
      "type": "function"
    },
    {
      "inputs": [],
      "name": "warehouseInventoryManagementExternal",
      "outputs": [
        {
          "internalType": "contract IWarehouseInventoryManagementInterface",
          "name": "",
          "type": "address"
        }
      ],
      "stateMutability": "view",
      "type": "function",
      "constant": true
    },
    {
      "inputs": [
        {
          "internalType": "address",
          "name": "_wimAddress",
          "type": "address"
        }
      ],
      "name": "setWarehouseInventoryManagementAddress",
      "outputs": [],
      "stateMutability": "nonpayable",
      "type": "function"
    },
    {
      "inputs": [
        {
          "internalType": "address",
          "name": "_comAddress",
          "type": "address"
        }
      ],
      "name": "setCustomerOrderManagementAddress",
      "outputs": [],
      "stateMutability": "nonpayable",
      "type": "function"
    },
    {
      "inputs": [
        {
          "internalType": "address",
          "name": "_storeAddress",
          "type": "address"
        },
        {
          "internalType": "string",
          "name": "_itemId",
          "type": "string"
        },
        {
          "internalType": "uint256",
          "name": "_quantity",
          "type": "uint256"
        }
      ],
      "name": "requestStockFromDesignatedWarehouse",
      "outputs": [],
      "stateMutability": "nonpayable",
      "type": "function"
    },
    {
      "inputs": [
        {
          "internalType": "address",
          "name": "_storeAddress",
          "type": "address"
        },
        {
          "internalType": "string",
          "name": "_itemId",
          "type": "string"
        },
        {
          "internalType": "uint256",
          "name": "_quantity",
          "type": "uint256"
        },
        {
          "internalType": "address",
          "name": "_fromWarehouseAddress",
          "type": "address"
        },
        {
          "internalType": "uint256",
          "name": "_internalTransferId",
          "type": "uint256"
        }
      ],
      "name": "confirmStockReceivedFromWarehouse",
      "outputs": [],
      "stateMutability": "nonpayable",
      "type": "function"
    },
    {
      "inputs": [
        {
          "internalType": "address",
          "name": "_storeAddress",
          "type": "address"
        },
        {
          "internalType": "string",
          "name": "_itemId",
          "type": "string"
        },
        {
          "internalType": "uint256",
          "name": "_quantity",
          "type": "uint256"
        },
        {
          "internalType": "uint256",
          "name": "_customerOrderId",
          "type": "uint256"
        }
      ],
      "name": "deductStockForCustomerSale",
      "outputs": [],
      "stateMutability": "nonpayable",
      "type": "function"
    },
    {
      "inputs": [
        {
          "internalType": "address",
          "name": "_storeAddress",
          "type": "address"
        },
        {
          "internalType": "string",
          "name": "_itemId",
          "type": "string"
        },
        {
          "internalType": "int256",
          "name": "_quantityChange",
          "type": "int256"
        },
        {
          "internalType": "string",
          "name": "_reason",
          "type": "string"
        }
      ],
      "name": "adjustStoreStockManually",
      "outputs": [],
      "stateMutability": "nonpayable",
      "type": "function"
    },
    {
      "inputs": [
        {
          "internalType": "address",
          "name": "_storeAddress",
          "type": "address"
        },
        {
          "internalType": "string",
          "name": "_itemId",
          "type": "string"
        }
      ],
      "name": "getStoreStockLevel",
      "outputs": [
        {
          "internalType": "uint256",
          "name": "",
          "type": "uint256"
        }
      ],
      "stateMutability": "view",
      "type": "function",
      "constant": true
    }
  ],
  "bytecode": "0x60806040523480156200001157600080fd5b5060405162001c9838038062001c98833981016040819052620000349162000191565b600080546001600160a01b031916339081178255604051909182917f8be0079c531659141344cd1fd0a4f28419497f9722a3daafe3b4186f6b6457e0908290a3506001600160a01b038216620000d15760405162461bcd60e51b815260206004820152601c60248201527f53494d3a204469612063686920524d206b686f6e6720686f70206c650000000060448201526064015b60405180910390fd5b600180546001600160a01b0319166001600160a01b038481169190911790915581166200014d5760405162461bcd60e51b8152602060048201526024808201527f53494d3a2044696120636869204974656d734d436f7265206b686f6e6720686f60448201526370206c6560e01b6064820152608401620000c8565b600280546001600160a01b0319166001600160a01b039290921691909117905550620001c8565b80516001600160a01b03811681146200018c57600080fd5b919050565b60008060408385031215620001a4578182fd5b620001af8362000174565b9150620001bf6020840162000174565b90509250929050565b611ac080620001d86000396000f3fe608060405234801561001057600080fd5b50600436106100c55760003560e01c806318492987146100ca5780632eb3292f146100f35780634797005214610106578063626f94d61461011b5780636718b05b1461012e578063715018a6146101415780637b0f813c146101495780638a4d65f21461015c5780638da5cb5b146101a65780639ac01de6146101ae578063dc94b946146101c1578063e6a21943146101d4578063eb2ca110146101e7578063f2fde38b146101fa578063f4ddd27a1461020d575b600080fd5b6003546100dd906001600160a01b031681565b6040516100ea919061181c565b60405180910390f35b6002546100dd906001600160a01b031681565b61011961011436600461148c565b610220565b005b610119610129366004611417565b610687565b6004546100dd906001600160a01b031681565b610119610756565b6101196101573660046115e6565b6107bd565b61019861016a36600461164a565b6005602090815260009283526040909220815180830184018051928152908401929093019190912091525481565b6040519081526020016100ea565b6100dd6109d8565b6101196101bc36600461156d565b6109e7565b6101196101cf366004611514565b610bc8565b6001546100dd906001600160a01b031681565b6101986101f536600461143a565b61112c565b610119610208366004611417565b611195565b61011961021b366004611417565b611272565b600061022a6109d8565b6001600160a01b0316336001600160a01b03161490506000816103fe5760025460405163329a587360e01b81526000916001600160a01b03169063329a587390610278908c9060040161181c565b60006040518083038186803b15801561029057600080fd5b505afa1580156102a4573d6000803e3d6000fd5b505050506040513d6000823e601f3d908101601f191682016040526102cc9190810190611703565b9050806080015180156102eb575060608101516001600160a01b031633145b156103fc57600154604080516303e20ef360e31b815290516000926001600160a01b031691631f107798916004808301926020929190829003018186803b15801561033557600080fd5b505afa158015610349573d6000803e3d6000fd5b505050506040513d601f19601f8201168201806040525081019061036d91906116eb565b600154604051632474521560e21b81529192506001600160a01b0316906391d14854906103a09084903390600401611878565b60206040518083038186803b1580156103b857600080fd5b505afa1580156103cc573d6000803e3d6000fd5b505050506040513d601f19601f820116820180604052508101906103f091906116d1565b156103fa57600192505b505b505b81806104075750805b6104745760405162461bcd60e51b815260206004820152603360248201527f53494d3a204b686f6e6720636f20717579656e2064696575206368696e6820746044820152726f6e206b686f206375612068616e67206e617960681b60648201526084015b60405180910390fd5b6001600160a01b038816600090815260056020526040808220905161049c908a908a9061180c565b908152602001604051809103902054905060008613156104fe576104c086826119dd565b6001600160a01b038a166000908152600560205260409081902090516104e9908b908b9061180c565b9081526040519081900360200190205561061d565b60008612156105c157600061051287611a0c565b9050808210156105785760405162461bcd60e51b815260206004820152602b60248201527f53494d3a2044696575206368696e682074687520636f6e672064616e2064656e60448201526a20746f6e206b686f20616d60a81b606482015260840161046b565b61058281836119f5565b6001600160a01b038b166000908152600560205260409081902090516105ab908c908c9061180c565b908152604051908190036020019020555061061d565b60405162461bcd60e51b815260206004820152602b60248201527f53494d3a205468617920646f6920736f206c756f6e67206b686f6e672074686560448201526a2062616e67206b686f6e6760a81b606482015260840161046b565b604051339061062f908a908a9061180c565b60405180910390208a6001600160a01b03167ffb5dfbe66914f7eaeb79eb9cace7c205345c751a42326b54ade553ebf68bc1f98989896040516106749392919061188f565b60405180910390a4505050505050505050565b336106906109d8565b6001600160a01b0316146106b65760405162461bcd60e51b815260040161046b90611929565b6001600160a01b03811661070c5760405162461bcd60e51b815260206004820152601d60248201527f53494d3a204469612063686920434f4d206b686f6e6720686f70206c65000000604482015260640161046b565b600480546001600160a01b0319166001600160a01b0383169081179091556040517ff60a7d245ccf77dd2036da1a1ad14a8c5dba1a9ccc98b56d0ad004b140c9472390600090a250565b3361075f6109d8565b6001600160a01b0316146107855760405162461bcd60e51b815260040161046b90611929565b600080546040516001600160a01b0390911690600080516020611a6b833981519152908390a3600080546001600160a01b0319169055565b6004546001600160a01b031633146108175760405162461bcd60e51b815260206004820152601d60248201527f53494d3a204e67756f6920676f69206b686f6e67207068616920434f4d000000604482015260640161046b565b6001600160a01b03851661083d5760405162461bcd60e51b815260040161046b906118e7565b600082116108985760405162461bcd60e51b815260206004820152602260248201527f53494d3a20536f206c756f6e67207472752070686169206c6120736f2064756f6044820152616e6760f01b606482015260840161046b565b6001600160a01b03851660009081526005602052604080822090516108c0908790879061180c565b90815260200160405180910390205490508281101561092f5760405162461bcd60e51b815260206004820152602560248201527f53494d3a204b686f6e6720647520746f6e206b686f206375612068616e67206460448201526432903130b760d91b606482015260840161046b565b61093983826119f5565b6001600160a01b038716600090815260056020526040908190209051610962908890889061180c565b90815260200160405180910390208190555081858560405161098592919061180c565b6040518091039020876001600160a01b03167f29b1e31f6ff829a325f63fc4bef376ea772e735f65e21879531683f99aa6c3d8866040516109c891815260200190565b60405180910390a4505050505050565b6000546001600160a01b031690565b6003546001600160a01b03163314610a415760405162461bcd60e51b815260206004820152601d60248201527f53494d3a204e67756f6920676f69206b686f6e6720706861692057494d000000604482015260640161046b565b6001600160a01b038616610a675760405162461bcd60e51b815260040161046b906118e7565b6001600160a01b038216610ac75760405162461bcd60e51b815260206004820152602160248201527f53494d3a2044696120636869206b686f20677569206b686f6e6720686f70206c6044820152606560f81b606482015260840161046b565b60008311610b175760405162461bcd60e51b815260206004820152601d60248201527f53494d3a20536f206c756f6e67206e68616e20706861692064756f6e67000000604482015260640161046b565b6001600160a01b038616600090815260056020526040908190209051849190610b43908890889061180c565b90815260200160405180910390206000828254610b6091906119dd565b90915550506040516001600160a01b03831690610b80908790879061180c565b6040805191829003822086835260208301859052916001600160a01b038a16917f52f87c542bd5d87d5adb3164a279f24fa2c53d27e879e17c8b400bc10cdc502691016109c8565b836001600160a01b038116610bef5760405162461bcd60e51b815260040161046b906118e7565b60025460405163329a587360e01b81526000916001600160a01b03169063329a587390610c2090859060040161181c565b60006040518083038186803b158015610c3857600080fd5b505afa158015610c4c573d6000803e3d6000fd5b505050506040513d6000823e601f3d908101601f19168201604052610c749190810190611703565b90508060800151610ce05760405162461bcd60e51b815260206004820152603060248201527f53494d3a204375612068616e6720636875612064756f632064616e67206b792060448201526f74726f6e67204974656d734d436f726560801b606482015260840161046b565b60608101516001600160a01b03163314610d535760405162461bcd60e51b815260206004820152602e60248201527f53494d3a204e67756f6920676f69206b686f6e672070686169207175616e206c60448201526d79206375612068616e67206e617960901b606482015260840161046b565b600154604080516303e20ef360e31b815290516000926001600160a01b031691631f107798916004808301926020929190829003018186803b158015610d9857600080fd5b505afa158015610dac573d6000803e3d6000fd5b505050506040513d601f19601f82011682018060405250810190610dd091906116eb565b600154604051632474521560e21b81529192506001600160a01b0316906391d1485490610e039084903390600401611878565b60206040518083038186803b158015610e1b57600080fd5b505afa158015610e2f573d6000803e3d6000fd5b505050506040513d601f19601f82011682018060405250810190610e5391906116d1565b610eaf5760405162461bcd60e51b815260206004820152602760248201527f53494d3a204e67756f6920676f69207468696575207661692074726f2051554160448201526609cbe98b2be86960cb1b606482015260840161046b565b6003546001600160a01b0316610f075760405162461bcd60e51b815260206004820152601e60248201527f53494d3a20446961206368692057494d20636875612064756f63206461740000604482015260640161046b565b60008411610f575760405162461bcd60e51b815260206004820152601e60248201527f53494d3a20536f206c756f6e672070686169206c6120736f2064756f6e670000604482015260640161046b565b60025460405163329a587360e01b81526000916001600160a01b03169063329a587390610f88908b9060040161181c565b60006040518083038186803b158015610fa057600080fd5b505afa158015610fb4573d6000803e3d6000fd5b505050506040513d6000823e601f3d908101601f19168201604052610fdc9190810190611703565b60c08101519091506001600160a01b031661104b5760405162461bcd60e51b815260206004820152602960248201527f53494d3a204375612068616e67206b686f6e6720636f206b686f206e67756f6e604482015268040c6d0d240c8d2dcd60bb1b606482015260840161046b565b60035460c0820151604051631f8b929d60e01b81526000926001600160a01b031691631f8b929d9161108a9133918e91908e908e908e90600401611830565b602060405180830381600087803b1580156110a457600080fd5b505af11580156110b8573d6000803e3d6000fd5b505050506040513d601f19601f820116820180604052508101906110dc91906116eb565b9050808260c001516001600160a01b03168a6001600160a01b03167f9050656f654737d2120a21133900e4b61725a4a70ac1c8e16c5c015812dc9b638b8b8b3360405161067494939291906118b2565b60006001600160a01b0384166111545760405162461bcd60e51b815260040161046b906118e7565b6001600160a01b03841660009081526005602052604090819020905161117d908590859061180c565b90815260200160405180910390205490509392505050565b3361119e6109d8565b6001600160a01b0316146111c45760405162461bcd60e51b815260040161046b90611929565b6001600160a01b0381166112295760405162461bcd60e51b815260206004820152602660248201527f4f776e61626c653a206e6577206f776e657220697320746865207a65726f206160448201526564647265737360d01b606482015260840161046b565b600080546040516001600160a01b0380851693921691600080516020611a6b83398151915291a3600080546001600160a01b0319166001600160a01b0392909216919091179055565b3361127b6109d8565b6001600160a01b0316146112a15760405162461bcd60e51b815260040161046b90611929565b6001600160a01b0381166112f75760405162461bcd60e51b815260206004820152601d60248201527f53494d3a20446961206368692057494d206b686f6e6720686f70206c65000000604482015260640161046b565b600380546001600160a01b0319166001600160a01b0383169081179091556040517f9d00bdb4c1bf918df98c2197d7890603abf58babbc46d1a0442c1d92855fa12990600090a250565b805161134c81611a52565b919050565b8051801515811461134c57600080fd5b60008083601f840112611372578182fd5b5081356001600160401b03811115611388578182fd5b6020830191508360208285010111156113a057600080fd5b9250929050565b600082601f8301126113b7578081fd5b81516113ca6113c5826119b6565b611986565b818152602085818487010111156113df578384fd5b835b838110156113fc5785810182015183820183015281016113e1565b8381111561140c57848285850101525b509095945050505050565b600060208284031215611428578081fd5b813561143381611a52565b9392505050565b60008060006040848603121561144e578182fd5b833561145981611a52565b925060208401356001600160401b03811115611473578283fd5b61147f86828701611361565b9497909650939450505050565b600080600080600080608087890312156114a4578182fd5b86356114af81611a52565b955060208701356001600160401b03808211156114ca578384fd5b6114d68a838b01611361565b90975095506040890135945060608901359150808211156114f5578384fd5b5061150289828a01611361565b979a9699509497509295939492505050565b60008060008060608587031215611529578384fd5b843561153481611a52565b935060208501356001600160401b0381111561154e578384fd5b61155a87828801611361565b9598909750949560400135949350505050565b60008060008060008060a08789031215611585578182fd5b863561159081611a52565b955060208701356001600160401b038111156115aa578283fd5b6115b689828a01611361565b9096509450506040870135925060608701356115d181611a52565b80925050608087013590509295509295509295565b6000806000806000608086880312156115fd578081fd5b853561160881611a52565b945060208601356001600160401b03811115611622578182fd5b61162e88828901611361565b9699909850959660408101359660609091013595509350505050565b6000806040838503121561165c578182fd5b823561166781611a52565b915060208301356001600160401b03811115611681578182fd5b8301601f81018513611691578182fd5b803561169f6113c5826119b6565b8181528660208385010111156116b3578384fd5b81602084016020830137908101602001929092525090939092509050565b6000602082840312156116e2578081fd5b61143382611351565b6000602082840312156116fc578081fd5b5051919050565b600060208284031215611714578081fd5b81516001600160401b038082111561172a578283fd5b9083019060e0828603121561173d578283fd5b61174561195e565b61174e83611341565b8152602083015182811115611761578485fd5b61176d878286016113a7565b602083015250604083015182811115611784578485fd5b611790878286016113a7565b6040830152506117a260608401611341565b60608201526117b360808401611351565b60808201526117c460a08401611351565b60a08201526117d560c08401611341565b60c082015295945050505050565b81835281816020850137506000828201602090810191909152601f909101601f19169091010190565b8183823760009101908152919050565b6001600160a01b0391909116815260200190565b6001600160a01b03878116825286811660208301528516604082015260a06060820181905260009061186590830185876117e3565b9050826080830152979650505050505050565b9182526001600160a01b0316602082015260400190565b8381526040602082015260006118a96040830184866117e3565b95945050505050565b6060815260006118c66060830186886117e3565b6020830194909452506001600160a01b039190911660409091015292915050565b60208082526022908201527f53494d3a2044696120636869206375612068616e67206b686f6e6720686f70206040820152616c6560f01b606082015260800190565b6020808252818101527f4f776e61626c653a2063616c6c6572206973206e6f7420746865206f776e6572604082015260600190565b60405160e081016001600160401b038111828210171561198057611980611a3c565b60405290565b604051601f8201601f191681016001600160401b03811182821017156119ae576119ae611a3c565b604052919050565b60006001600160401b038211156119cf576119cf611a3c565b50601f01601f191660200190565b600082198211156119f0576119f0611a26565b500190565b600082821015611a0757611a07611a26565b500390565b6000600160ff1b821415611a2257611a22611a26565b0390565b634e487b7160e01b600052601160045260246000fd5b634e487b7160e01b600052604160045260246000fd5b6001600160a01b0381168114611a6757600080fd5b5056fe8be0079c531659141344cd1fd0a4f28419497f9722a3daafe3b4186f6b6457e0a264697066735822122042cffa2bbf8e69eea4667cc1275752bc5734ebedc00c0bbf984d8c5ed7fb803e64736f6c63430008040033",
  "immutableReferences": {},
  "source": "// SPDX-License-Identifier: MIT\r\npragma solidity ^0.8.4;\r\n\r\nimport \"@openzeppelin/contracts/access/Ownable.sol\";\r\nimport \"./Interfaces.sol\";      // Import file Interfaces.sol tp trung\r\n// KHNG CN: import \"./ItemsManagement.sol\";\r\n\r\n// Hp ng Qun l Tn kho Ca hng\r\ncontract StoreInventoryManagement is Ownable {\r\n    // S dng cc interface t Interfaces.sol\r\n    IRoleManagementInterface public roleManagementExternal;\r\n    // THAY I:\r\n    IItemsManagementCoreInterface public itemsManagementCore;\r\n    IWarehouseInventoryManagementInterface public warehouseInventoryManagementExternal;\r\n\r\n    address public customerOrderManagementAddress;\r\n\r\n    mapping(address => mapping(string => uint256)) public storeStockLevels;\r\n\r\n    // --- EVENTS ---\r\n    event StockRequestedFromWarehouse(\r\n        address indexed storeAddress,\r\n        address indexed designatedWarehouse,\r\n        string itemId,\r\n        uint256 quantity,\r\n        uint256 indexed wimTransferId,\r\n        address byStoreManager\r\n    );\r\n    event StockReceivedAtStore(\r\n        address indexed storeAddress,\r\n        string indexed itemId,\r\n        uint256 quantity,\r\n        address indexed fromWarehouse,\r\n        uint256 wimTransferId\r\n    );\r\n    event StockDeductedForSale(\r\n        address indexed storeAddress,\r\n        string indexed itemId,\r\n        uint256 quantityDeducted,\r\n        uint256 indexed customerOrderId\r\n    );\r\n    event StoreStockAdjusted(\r\n        address indexed storeAddress,\r\n        string indexed itemId,\r\n        int256 quantityChange,\r\n        string reason,\r\n        address indexed byAdminOrManager\r\n    );\r\n    event WarehouseInventoryManagementAddressSet(address indexed wimAddress);\r\n    event CustomerOrderManagementAddressSet(address indexed comAddress);\r\n\r\n    // --- CONSTRUCTOR ---\r\n    constructor(\r\n        address _roleManagementAddress,\r\n        // THAY I:\r\n        address _itemsManagementCoreAddress\r\n    ) Ownable() {\r\n        require(_roleManagementAddress != address(0), \"SIM: Dia chi RM khong hop le\");\r\n        roleManagementExternal = IRoleManagementInterface(_roleManagementAddress);\r\n\r\n        // THAY I:\r\n        require(_itemsManagementCoreAddress != address(0), \"SIM: Dia chi ItemsMCore khong hop le\");\r\n        itemsManagementCore = IItemsManagementCoreInterface(_itemsManagementCoreAddress);\r\n    }\r\n\r\n    modifier onlyStoreManager(address _storeAddress) {\r\n        require(_storeAddress != address(0), \"SIM: Dia chi cua hang khong hop le\");\r\n        // THAY I:\r\n        PhysicalLocationInfo memory storeInfo = itemsManagementCore.getStoreInfo(_storeAddress);\r\n        require(storeInfo.exists, \"SIM: Cua hang chua duoc dang ky trong ItemsMCore\");\r\n        require(storeInfo.manager == msg.sender, \"SIM: Nguoi goi khong phai quan ly cua hang nay\");\r\n\r\n        bytes32 smRole = roleManagementExternal.STORE_MANAGER_ROLE();\r\n        require(roleManagementExternal.hasRole(smRole, msg.sender), \"SIM: Nguoi goi thieu vai tro QUAN_LY_CH\");\r\n        _;\r\n    }\r\n\r\n    function setWarehouseInventoryManagementAddress(address _wimAddress) external onlyOwner {\r\n        require(_wimAddress != address(0), \"SIM: Dia chi WIM khong hop le\");\r\n        warehouseInventoryManagementExternal = IWarehouseInventoryManagementInterface(_wimAddress);\r\n        emit WarehouseInventoryManagementAddressSet(_wimAddress);\r\n    }\r\n\r\n    function setCustomerOrderManagementAddress(address _comAddress) external onlyOwner {\r\n        require(_comAddress != address(0), \"SIM: Dia chi COM khong hop le\");\r\n        customerOrderManagementAddress = _comAddress;\r\n        emit CustomerOrderManagementAddressSet(_comAddress);\r\n    }\r\n\r\n    function requestStockFromDesignatedWarehouse(\r\n        address _storeAddress,\r\n        string calldata _itemId,\r\n        uint256 _quantity\r\n    ) external onlyStoreManager(_storeAddress) {\r\n        require(address(warehouseInventoryManagementExternal) != address(0), \"SIM: Dia chi WIM chua duoc dat\");\r\n        require(_quantity > 0, \"SIM: So luong phai la so duong\");\r\n\r\n        // THAY I:\r\n        PhysicalLocationInfo memory storeInfo = itemsManagementCore.getStoreInfo(_storeAddress);\r\n        require(storeInfo.designatedSourceWarehouseAddress != address(0), \"SIM: Cua hang khong co kho nguon chi dinh\");\r\n\r\n        uint256 wimTransferId = warehouseInventoryManagementExternal.requestStockTransferToStore(\r\n            msg.sender,\r\n            _storeAddress,\r\n            storeInfo.designatedSourceWarehouseAddress,\r\n            _itemId,\r\n            _quantity\r\n        );\r\n        emit StockRequestedFromWarehouse(_storeAddress, storeInfo.designatedSourceWarehouseAddress, _itemId, _quantity, wimTransferId, msg.sender);\r\n    }\r\n\r\n    function confirmStockReceivedFromWarehouse(\r\n        address _storeAddress,\r\n        string calldata _itemId,\r\n        uint256 _quantity,\r\n        address _fromWarehouseAddress,\r\n        uint256 _internalTransferId\r\n    ) external {\r\n        require(msg.sender == address(warehouseInventoryManagementExternal), \"SIM: Nguoi goi khong phai WIM\");\r\n        require(_storeAddress != address(0), \"SIM: Dia chi cua hang khong hop le\");\r\n        require(_fromWarehouseAddress != address(0), \"SIM: Dia chi kho gui khong hop le\");\r\n        require(_quantity > 0, \"SIM: So luong nhan phai duong\");\r\n        storeStockLevels[_storeAddress][_itemId] += _quantity;\r\n        emit StockReceivedAtStore(_storeAddress, _itemId, _quantity, _fromWarehouseAddress, _internalTransferId);\r\n    }\r\n\r\n    function deductStockForCustomerSale(\r\n        address _storeAddress,\r\n        string calldata _itemId,\r\n        uint256 _quantity,\r\n        uint256 _customerOrderId\r\n    ) external {\r\n        require(msg.sender == customerOrderManagementAddress, \"SIM: Nguoi goi khong phai COM\");\r\n        require(_storeAddress != address(0), \"SIM: Dia chi cua hang khong hop le\");\r\n        require(_quantity > 0, \"SIM: So luong tru phai la so duong\");\r\n        uint256 currentStock = storeStockLevels[_storeAddress][_itemId];\r\n        require(currentStock >= _quantity, \"SIM: Khong du ton kho cua hang de ban\");\r\n        storeStockLevels[_storeAddress][_itemId] = currentStock - _quantity;\r\n        emit StockDeductedForSale(_storeAddress, _itemId, _quantity, _customerOrderId);\r\n    }\r\n\r\n    function adjustStoreStockManually(\r\n        address _storeAddress,\r\n        string calldata _itemId,\r\n        int256 _quantityChange,\r\n        string calldata _reason\r\n    ) external {\r\n        bool isOwner = (msg.sender == owner());\r\n        bool isAuthorizedManager = false;\r\n        if (!isOwner) {\r\n            // THAY I:\r\n            PhysicalLocationInfo memory storeInfo = itemsManagementCore.getStoreInfo(_storeAddress);\r\n            if (storeInfo.exists && storeInfo.manager == msg.sender) {\r\n                bytes32 smRole = roleManagementExternal.STORE_MANAGER_ROLE();\r\n                if (roleManagementExternal.hasRole(smRole, msg.sender)) {\r\n                    isAuthorizedManager = true;\r\n                }\r\n            }\r\n        }\r\n        require(isOwner || isAuthorizedManager, \"SIM: Khong co quyen dieu chinh ton kho cua hang nay\");\r\n        uint256 currentStock = storeStockLevels[_storeAddress][_itemId];\r\n        if (_quantityChange > 0) {\r\n            storeStockLevels[_storeAddress][_itemId] = currentStock + uint256(_quantityChange);\r\n        } else if (_quantityChange < 0) {\r\n            uint256 amountToDecrease = uint256(-_quantityChange);\r\n            require(currentStock >= amountToDecrease, \"SIM: Dieu chinh thu cong dan den ton kho am\");\r\n            storeStockLevels[_storeAddress][_itemId] = currentStock - amountToDecrease;\r\n        } else {\r\n            revert(\"SIM: Thay doi so luong khong the bang khong\");\r\n        }\r\n        emit StoreStockAdjusted(_storeAddress, _itemId, _quantityChange, _reason, msg.sender);\r\n    }\r\n\r\n    function getStoreStockLevel(address _storeAddress, string calldata _itemId) external view returns (uint256) {\r\n        require(_storeAddress != address(0), \"SIM: Dia chi cua hang khong hop le\");\r\n        return storeStockLevels[_storeAddress][_itemId];\r\n    }\r\n}",
  "sourcePath": "D:\\nhi\\Logtech\\New tech in Log\\dapp2\\SC\\contracts\\StoreInventory.sol",
  "compiler": {
    "name": "solc",
    "version": "0.8.4+commit.c7e474f2.Emscripten.clang"
  },
  "schemaVersion": "3.4.16",
  "updatedAt": "2025-06-03T05:39:59.382Z",
  "networkType": "ethereum",
  "devdoc": {
    "kind": "dev",
    "methods": {
      "owner()": {
        "details": "Returns the address of the current owner."
      },
      "renounceOwnership()": {
        "details": "Leaves the contract without owner. It will not be possible to call `onlyOwner` functions anymore. Can only be called by the current owner. NOTE: Renouncing ownership will leave the contract without an owner, thereby removing any functionality that is only available to the owner."
      },
      "transferOwnership(address)": {
        "details": "Transfers ownership of the contract to a new account (`newOwner`). Can only be called by the current owner."
      }
    },
    "version": 1
  },
  "userdoc": {
    "kind": "user",
    "methods": {},
    "version": 1
  }
}