{
  "contractName": "WarehouseSupplierOrderManagement",
  "abi": [
    {
      "inputs": [
        {
          "internalType": "address",
          "name": "_roleManagementAddress",
          "type": "address"
        },
        {
          "internalType": "address",
          "name": "_itemsManagementAddress",
          "type": "address"
        },
        {
          "internalType": "address",
          "name": "_companyTreasuryManagerAddress",
          "type": "address"
        }
      ],
      "stateMutability": "nonpayable",
      "type": "constructor"
    },
    {
      "anonymous": false,
      "inputs": [
        {
          "indexed": true,
          "internalType": "uint256",
          "name": "wsOrderId",
          "type": "uint256"
        },
        {
          "indexed": false,
          "internalType": "uint256",
          "name": "amount",
          "type": "uint256"
        },
        {
          "indexed": false,
          "internalType": "string",
          "name": "internalSupplierOrderId",
          "type": "string"
        }
      ],
      "name": "EscrowRequestedForWSOrder",
      "type": "event"
    },
    {
      "anonymous": false,
      "inputs": [
        {
          "indexed": true,
          "internalType": "address",
          "name": "previousOwner",
          "type": "address"
        },
        {
          "indexed": true,
          "internalType": "address",
          "name": "newOwner",
          "type": "address"
        }
      ],
      "name": "OwnershipTransferred",
      "type": "event"
    },
    {
      "anonymous": false,
      "inputs": [
        {
          "indexed": true,
          "internalType": "uint256",
          "name": "wsOrderId",
          "type": "uint256"
        },
        {
          "indexed": true,
          "internalType": "address",
          "name": "supplierAddress",
          "type": "address"
        },
        {
          "indexed": false,
          "internalType": "string",
          "name": "reason",
          "type": "string"
        }
      ],
      "name": "WSOrderCancelledBySupplier",
      "type": "event"
    },
    {
      "anonymous": false,
      "inputs": [
        {
          "indexed": true,
          "internalType": "uint256",
          "name": "wsOrderId",
          "type": "uint256"
        },
        {
          "indexed": true,
          "internalType": "address",
          "name": "warehouseManager",
          "type": "address"
        },
        {
          "indexed": false,
          "internalType": "string",
          "name": "reason",
          "type": "string"
        }
      ],
      "name": "WSOrderCancelledByWarehouse",
      "type": "event"
    },
    {
      "anonymous": false,
      "inputs": [
        {
          "indexed": true,
          "internalType": "uint256",
          "name": "wsOrderId",
          "type": "uint256"
        },
        {
          "indexed": true,
          "internalType": "address",
          "name": "supplierAddress",
          "type": "address"
        },
        {
          "indexed": false,
          "internalType": "uint256",
          "name": "amount",
          "type": "uint256"
        }
      ],
      "name": "WSOrderFundsReleasedToSupplier",
      "type": "event"
    },
    {
      "anonymous": false,
      "inputs": [
        {
          "indexed": true,
          "internalType": "uint256",
          "name": "wsOrderId",
          "type": "uint256"
        },
        {
          "indexed": true,
          "internalType": "address",
          "name": "warehouseAddress",
          "type": "address"
        },
        {
          "indexed": true,
          "internalType": "address",
          "name": "supplierAddress",
          "type": "address"
        },
        {
          "indexed": false,
          "internalType": "uint256",
          "name": "totalAmount",
          "type": "uint256"
        },
        {
          "indexed": false,
          "internalType": "string",
          "name": "internalSupplierOrderId",
          "type": "string"
        }
      ],
      "name": "WSOrderPlaced",
      "type": "event"
    },
    {
      "anonymous": false,
      "inputs": [
        {
          "indexed": true,
          "internalType": "uint256",
          "name": "wsOrderId",
          "type": "uint256"
        },
        {
          "indexed": true,
          "internalType": "address",
          "name": "warehouseManager",
          "type": "address"
        }
      ],
      "name": "WSOrderReceiptConfirmedByWarehouse",
      "type": "event"
    },
    {
      "anonymous": false,
      "inputs": [
        {
          "indexed": true,
          "internalType": "uint256",
          "name": "wsOrderId",
          "type": "uint256"
        },
        {
          "indexed": true,
          "internalType": "address",
          "name": "supplierAddress",
          "type": "address"
        }
      ],
      "name": "WSOrderShipmentConfirmedBySupplier",
      "type": "event"
    },
    {
      "anonymous": false,
      "inputs": [
        {
          "indexed": true,
          "internalType": "uint256",
          "name": "wsOrderId",
          "type": "uint256"
        },
        {
          "indexed": false,
          "internalType": "enum WarehouseSupplierOrderManagement.WSOrderStatus",
          "name": "newStatus",
          "type": "uint8"
        },
        {
          "indexed": false,
          "internalType": "uint256",
          "name": "timestamp",
          "type": "uint256"
        }
      ],
      "name": "WSOrderStatusUpdated",
      "type": "event"
    },
    {
      "anonymous": false,
      "inputs": [
        {
          "indexed": true,
          "internalType": "address",
          "name": "wimAddress",
          "type": "address"
        }
      ],
      "name": "WarehouseInventoryManagementAddressSet",
      "type": "event"
    },
    {
      "inputs": [],
      "name": "companyTreasuryManager",
      "outputs": [
        {
          "internalType": "contract ICompanyTreasuryManagerInterface",
          "name": "",
          "type": "address"
        }
      ],
      "stateMutability": "view",
      "type": "function"
    },
    {
      "inputs": [],
      "name": "itemsManagement",
      "outputs": [
        {
          "internalType": "contract IItemsManagementInterface",
          "name": "",
          "type": "address"
        }
      ],
      "stateMutability": "view",
      "type": "function"
    },
    {
      "inputs": [],
      "name": "nextWSOrderId",
      "outputs": [
        {
          "internalType": "uint256",
          "name": "",
          "type": "uint256"
        }
      ],
      "stateMutability": "view",
      "type": "function"
    },
    {
      "inputs": [],
      "name": "owner",
      "outputs": [
        {
          "internalType": "address",
          "name": "",
          "type": "address"
        }
      ],
      "stateMutability": "view",
      "type": "function"
    },
    {
      "inputs": [],
      "name": "renounceOwnership",
      "outputs": [],
      "stateMutability": "nonpayable",
      "type": "function"
    },
    {
      "inputs": [],
      "name": "roleManagement",
      "outputs": [
        {
          "internalType": "contract IRoleManagementInterface",
          "name": "",
          "type": "address"
        }
      ],
      "stateMutability": "view",
      "type": "function"
    },
    {
      "inputs": [
        {
          "internalType": "address",
          "name": "",
          "type": "address"
        },
        {
          "internalType": "uint256",
          "name": "",
          "type": "uint256"
        }
      ],
      "name": "supplierReceivedOrderIds",
      "outputs": [
        {
          "internalType": "uint256",
          "name": "",
          "type": "uint256"
        }
      ],
      "stateMutability": "view",
      "type": "function"
    },
    {
      "inputs": [
        {
          "internalType": "address",
          "name": "newOwner",
          "type": "address"
        }
      ],
      "name": "transferOwnership",
      "outputs": [],
      "stateMutability": "nonpayable",
      "type": "function"
    },
    {
      "inputs": [],
      "name": "warehouseInventoryManagement",
      "outputs": [
        {
          "internalType": "contract IWarehouseInventoryManagementInterface",
          "name": "",
          "type": "address"
        }
      ],
      "stateMutability": "view",
      "type": "function"
    },
    {
      "inputs": [
        {
          "internalType": "address",
          "name": "",
          "type": "address"
        },
        {
          "internalType": "uint256",
          "name": "",
          "type": "uint256"
        }
      ],
      "name": "warehouseSentOrderIds",
      "outputs": [
        {
          "internalType": "uint256",
          "name": "",
          "type": "uint256"
        }
      ],
      "stateMutability": "view",
      "type": "function"
    },
    {
      "inputs": [
        {
          "internalType": "uint256",
          "name": "",
          "type": "uint256"
        }
      ],
      "name": "wsOrders",
      "outputs": [
        {
          "internalType": "uint256",
          "name": "wsOrderId",
          "type": "uint256"
        },
        {
          "internalType": "address",
          "name": "warehouseAddress",
          "type": "address"
        },
        {
          "internalType": "address",
          "name": "warehouseManager",
          "type": "address"
        },
        {
          "internalType": "address",
          "name": "supplierAddress",
          "type": "address"
        },
        {
          "internalType": "uint256",
          "name": "totalAmount",
          "type": "uint256"
        },
        {
          "internalType": "enum WarehouseSupplierOrderManagement.WSOrderStatus",
          "name": "status",
          "type": "uint8"
        },
        {
          "internalType": "uint256",
          "name": "creationTimestamp",
          "type": "uint256"
        },
        {
          "internalType": "uint256",
          "name": "lastUpdateTimestamp",
          "type": "uint256"
        },
        {
          "internalType": "bool",
          "name": "fundsEscrowed",
          "type": "bool"
        },
        {
          "internalType": "bool",
          "name": "fundsReleasedToSupplier",
          "type": "bool"
        },
        {
          "internalType": "string",
          "name": "internalSupplierOrderId",
          "type": "string"
        }
      ],
      "stateMutability": "view",
      "type": "function"
    },
    {
      "inputs": [
        {
          "internalType": "address",
          "name": "_wimAddress",
          "type": "address"
        }
      ],
      "name": "setWarehouseInventoryManagementAddress",
      "outputs": [],
      "stateMutability": "nonpayable",
      "type": "function"
    },
    {
      "inputs": [
        {
          "internalType": "address",
          "name": "_warehouseAddress",
          "type": "address"
        },
        {
          "internalType": "address",
          "name": "_supplierAddress",
          "type": "address"
        },
        {
          "components": [
            {
              "internalType": "string",
              "name": "itemId",
              "type": "string"
            },
            {
              "internalType": "uint256",
              "name": "quantity",
              "type": "uint256"
            }
          ],
          "internalType": "struct WarehouseSupplierOrderManagement.WSOrderItemInput[]",
          "name": "_itemsInput",
          "type": "tuple[]"
        }
      ],
      "name": "placeOrderByWarehouse",
      "outputs": [],
      "stateMutability": "nonpayable",
      "type": "function"
    },
    {
      "inputs": [
        {
          "internalType": "uint256",
          "name": "_wsOrderId",
          "type": "uint256"
        }
      ],
      "name": "supplierConfirmShipment",
      "outputs": [],
      "stateMutability": "nonpayable",
      "type": "function"
    },
    {
      "inputs": [
        {
          "internalType": "uint256",
          "name": "_wsOrderId",
          "type": "uint256"
        }
      ],
      "name": "warehouseConfirmReceipt",
      "outputs": [],
      "stateMutability": "nonpayable",
      "type": "function"
    },
    {
      "inputs": [
        {
          "internalType": "uint256",
          "name": "_wsOrderId",
          "type": "uint256"
        },
        {
          "internalType": "string",
          "name": "_reason",
          "type": "string"
        }
      ],
      "name": "cancelOrderByWarehouse",
      "outputs": [],
      "stateMutability": "nonpayable",
      "type": "function"
    },
    {
      "inputs": [
        {
          "internalType": "uint256",
          "name": "_wsOrderId",
          "type": "uint256"
        },
        {
          "internalType": "string",
          "name": "_reason",
          "type": "string"
        }
      ],
      "name": "cancelOrderBySupplier",
      "outputs": [],
      "stateMutability": "nonpayable",
      "type": "function"
    },
    {
      "inputs": [
        {
          "internalType": "uint256",
          "name": "_wsOrderId",
          "type": "uint256"
        }
      ],
      "name": "getWSOrderDetails",
      "outputs": [
        {
          "components": [
            {
              "internalType": "uint256",
              "name": "wsOrderId",
              "type": "uint256"
            },
            {
              "internalType": "address",
              "name": "warehouseAddress",
              "type": "address"
            },
            {
              "internalType": "address",
              "name": "warehouseManager",
              "type": "address"
            },
            {
              "internalType": "address",
              "name": "supplierAddress",
              "type": "address"
            },
            {
              "components": [
                {
                  "internalType": "string",
                  "name": "itemId",
                  "type": "string"
                },
                {
                  "internalType": "uint256",
                  "name": "quantity",
                  "type": "uint256"
                },
                {
                  "internalType": "uint256",
                  "name": "unitPrice",
                  "type": "uint256"
                }
              ],
              "internalType": "struct WarehouseSupplierOrderManagement.WSOrderItem[]",
              "name": "items",
              "type": "tuple[]"
            },
            {
              "internalType": "uint256",
              "name": "totalAmount",
              "type": "uint256"
            },
            {
              "internalType": "enum WarehouseSupplierOrderManagement.WSOrderStatus",
              "name": "status",
              "type": "uint8"
            },
            {
              "internalType": "uint256",
              "name": "creationTimestamp",
              "type": "uint256"
            },
            {
              "internalType": "uint256",
              "name": "lastUpdateTimestamp",
              "type": "uint256"
            },
            {
              "internalType": "bool",
              "name": "fundsEscrowed",
              "type": "bool"
            },
            {
              "internalType": "bool",
              "name": "fundsReleasedToSupplier",
              "type": "bool"
            },
            {
              "internalType": "string",
              "name": "internalSupplierOrderId",
              "type": "string"
            }
          ],
          "internalType": "struct WarehouseSupplierOrderManagement.WSOrder",
          "name": "",
          "type": "tuple"
        }
      ],
      "stateMutability": "view",
      "type": "function"
    },
    {
      "inputs": [
        {
          "internalType": "address",
          "name": "_warehouseAddress",
          "type": "address"
        }
      ],
      "name": "getWarehouseSentOrders",
      "outputs": [
        {
          "internalType": "uint256[]",
          "name": "",
          "type": "uint256[]"
        }
      ],
      "stateMutability": "view",
      "type": "function"
    },
    {
      "inputs": [
        {
          "internalType": "address",
          "name": "_supplierAddress",
          "type": "address"
        }
      ],
      "name": "getSupplierReceivedOrders",
      "outputs": [
        {
          "internalType": "uint256[]",
          "name": "",
          "type": "uint256[]"
        }
      ],
      "stateMutability": "view",
      "type": "function"
    }
  ],
  "bytecode": "0x60e06040523480156200001157600080fd5b50604051620043c2380380620043c28339810160408190526200003491620001ee565b6001600081815581546001600160a01b031916339081179092556040518291907f8be0079c531659141344cd1fd0a4f28419497f9722a3daafe3b4186f6b6457e0908290a3506001600160a01b038316620000d65760405162461bcd60e51b815260206004820152601d60248201527f57534f4d3a204469612063686920524d206b686f6e6720686f70206c6500000060448201526064015b60405180910390fd5b6001600160601b0319606084901b166080526001600160a01b0382166200014a5760405162461bcd60e51b815260206004820152602160248201527f57534f4d3a2044696120636869204974656d734d206b686f6e6720686f70206c6044820152606560f81b6064820152608401620000cd565b6001600160601b0319606083901b1660a0526001600160a01b038116620001b45760405162461bcd60e51b815260206004820152601e60248201527f57534f4d3a20446961206368692043544d206b686f6e6720686f70206c6500006044820152606401620000cd565b60601b6001600160601b03191660c0525050600160035562000237565b80516001600160a01b0381168114620001e957600080fd5b919050565b60008060006060848603121562000203578283fd5b6200020e84620001d1565b92506200021e60208501620001d1565b91506200022e60408501620001d1565b90509250925092565b60805160601c60a05160601c60c05160601c6140cd620002f5600039600081816101fa0152818161229001528181612d2a01528181612de201528181612e620152818161309801526132f20152600081816102f30152818161082401528181610c7d0152612abe0152600081816102cc0152818161045e0152818161050c0152818161097d01528181610a2b0152818161120f015281816112bd01528181611acc01528181611b7a01528181611e5d0152611f0b01526140cd6000f3fe608060405234801561001057600080fd5b506004361061016c5760003560e01c8063ab20371a116100cd578063cf2a863e11610081578063dd7f325311610066578063dd7f32531461033b578063f2fde38b1461034e578063f4ddd27a1461036157600080fd5b8063cf2a863e14610315578063d21cab1d1461032857600080fd5b8063b34b29a3116100b2578063b34b29a3146102b4578063b977ba18146102c7578063c19aacdd146102ee57600080fd5b8063ab20371a14610298578063b26ba06c146102ab57600080fd5b80635f677881116101245780637a76038c116101095780637a76038c1461023c5780638da5cb5b14610266578063a85fd4611461027757600080fd5b80635f677881146101f5578063715018a61461023457600080fd5b806325526f971161015557806325526f971461019957806355c64cc8146101ac57806359fe0450146101d557600080fd5b80630d04c999146101715780632359554414610186575b600080fd5b61018461017f36600461391b565b610374565b005b6101846101943660046135ee565b610792565b6101846101a7366004613933565b61112a565b6101bf6101ba3660046135cb565b611466565b6040516101cc9190613c3a565b60405180910390f35b6101e86101e336600461391b565b6114d2565b6040516101cc9190613cb5565b61021c7f000000000000000000000000000000000000000000000000000000000000000081565b6040516001600160a01b0390911681526020016101cc565b610184611808565b61024f61024a36600461391b565b6118b9565b6040516101cc9b9a99989796959493929190613da0565b6001546001600160a01b031661021c565b61028a61028536600461367e565b6119b6565b6040519081526020016101cc565b6101846102a6366004613933565b6119e7565b61028a60035481565b60025461021c906001600160a01b031681565b61021c7f000000000000000000000000000000000000000000000000000000000000000081565b61021c7f000000000000000000000000000000000000000000000000000000000000000081565b6101bf6103233660046135cb565b611d0e565b61018461033636600461391b565b611d78565b61028a61034936600461367e565b61263c565b61018461035c3660046135cb565b612658565b61018461036f3660046135cb565b612797565b600081815260046020526040902080548291906103d85760405162461bcd60e51b815260206004820152601c60248201527f57534f4d3a20446f6e2068616e67206b686f6e6720746f6e207461690000000060448201526064015b60405180910390fd5b60038101546001600160a01b0316331461045a5760405162461bcd60e51b815260206004820152602b60248201527f57534f4d3a204e67756f6920676f69206b686f6e672070686169204e4343206360448201527f756120646f6e2068616e6700000000000000000000000000000000000000000060648201526084016103cf565b60007f00000000000000000000000000000000000000000000000000000000000000006001600160a01b031663a29508fc6040518163ffffffff1660e01b815260040160206040518083038186803b1580156104b557600080fd5b505afa1580156104c9573d6000803e3d6000fd5b505050506040513d601f19601f820116820180604052508101906104ed91906136c3565b604051632474521560e21b8152600481018290523360248201529091507f00000000000000000000000000000000000000000000000000000000000000006001600160a01b0316906391d148549060440160206040518083038186803b15801561055657600080fd5b505afa15801561056a573d6000803e3d6000fd5b505050506040513d601f19601f8201168201806040525081019061058e91906136a9565b6106005760405162461bcd60e51b815260206004820152602160248201527f57534f4d3a204e67756f6920676f69207468696575207661692074726f204e4360448201527f430000000000000000000000000000000000000000000000000000000000000060648201526084016103cf565b600260005414156106535760405162461bcd60e51b815260206004820152601f60248201527f5265656e7472616e637947756172643a207265656e7472616e742063616c6c0060448201526064016103cf565b6002600090815584815260046020526040812090600682015460ff16600481111561068e57634e487b7160e01b600052602160045260246000fd5b146107015760405162461bcd60e51b815260206004820152602f60248201527f57534f4d3a20446f6e2068616e67206b686f6e67206f207472616e672074686160448201527f692063686f206769616f2068616e67000000000000000000000000000000000060648201526084016103cf565b60068101805460ff19166001179055426008820155604051339086907fb6f72180d63baa4edcd43d4ac9ecba3df06a50e8d13785f2a76025ec6e82aea590600090a3600681015460405186917f9f2454a0dc8b062d3b51f32601a6fb1b8401132fec88d6093084e57203f859da9161077e9160ff16904290613c7e565b60405180910390a250506001600055505050565b836001600160a01b0381166107e95760405162461bcd60e51b815260206004820152601e60248201527f57534f4d3a2044696120636869206b686f206b686f6e6720686f70206c65000060448201526064016103cf565b6040517f7160572b0000000000000000000000000000000000000000000000000000000081526001600160a01b0382811660048301526000917f000000000000000000000000000000000000000000000000000000000000000090911690637160572b9060240160006040518083038186803b15801561086857600080fd5b505afa15801561087c573d6000803e3d6000fd5b505050506040513d6000823e601f3d908101601f191682016040526108a491908101906136db565b905080608001516108f75760405162461bcd60e51b815260206004820152601760248201527f57534f4d3a204b686f206b686f6e6720746f6e2074616900000000000000000060448201526064016103cf565b60608101516001600160a01b031633146109795760405162461bcd60e51b815260206004820152602a60248201527f57534f4d3a204e67756f6920676f69206b686f6e672070686169207175616e2060448201527f6c79206b686f206e61790000000000000000000000000000000000000000000060648201526084016103cf565b60007f00000000000000000000000000000000000000000000000000000000000000006001600160a01b0316636250e0566040518163ffffffff1660e01b815260040160206040518083038186803b1580156109d457600080fd5b505afa1580156109e8573d6000803e3d6000fd5b505050506040513d601f19601f82011682018060405250810190610a0c91906136c3565b604051632474521560e21b8152600481018290523360248201529091507f00000000000000000000000000000000000000000000000000000000000000006001600160a01b0316906391d148549060440160206040518083038186803b158015610a7557600080fd5b505afa158015610a89573d6000803e3d6000fd5b505050506040513d601f19601f82011682018060405250810190610aad91906136a9565b610b1f5760405162461bcd60e51b815260206004820152602960248201527f57534f4d3a204e67756f6920676f69207468696575207661692074726f20515560448201527f414e5f4c595f4b484f000000000000000000000000000000000000000000000060648201526084016103cf565b60026000541415610b725760405162461bcd60e51b815260206004820152601f60248201527f5265656e7472616e637947756172643a207265656e7472616e742063616c6c0060448201526064016103cf565b60026000819055546001600160a01b0316610bcf5760405162461bcd60e51b815260206004820152601f60248201527f57534f4d3a20446961206368692057494d20636875612064756f63206461740060448201526064016103cf565b83610c425760405162461bcd60e51b815260206004820152602b60248201527f57534f4d3a20446f6e2068616e67207068616920636f206974206e686174206d60448201527f6f74206d61742068616e6700000000000000000000000000000000000000000060648201526084016103cf565b6040517f59435f040000000000000000000000000000000000000000000000000000000081526001600160a01b0387811660048301526000917f0000000000000000000000000000000000000000000000000000000000000000909116906359435f049060240160006040518083038186803b158015610cc157600080fd5b505afa158015610cd5573d6000803e3d6000fd5b505050506040513d6000823e601f3d908101601f19168201604052610cfd91908101906137bc565b905080606001518015610d11575080604001515b610d835760405162461bcd60e51b815260206004820152602f60248201527f57534f4d3a204e4343206b686f6e6720686f70206c6520686f6163206368756160448201527f2064756f6320706865206475796574000000000000000000000000000000000060648201526084016103cf565b6003805460009182610d948361400e565b9190505590506000610da58261289e565b604051602001610db59190613a96565b604051602081830303815290604052905060006004600084815260200190815260200160002090508281600001819055508a8160010160006101000a8154816001600160a01b0302191690836001600160a01b03160217905550338160020160006101000a8154816001600160a01b0302191690836001600160a01b03160217905550898160030160006101000a8154816001600160a01b0302191690836001600160a01b0316021790555060008160060160006101000a81548160ff02191690836004811115610e9657634e487b7160e01b600052602160045260246000fd5b0217905550426007820181905560088201558151610ebd90600a830190602085019061348c565b50610ecd89898c846004016129f7565b60058201819055610f465760405162461bcd60e51b815260206004820152602a60248201527f57534f4d3a20546f6e67206769612074726920646f6e2068616e67207068616960448201527f206c6f6e20686f6e20300000000000000000000000000000000000000000000060648201526084016103cf565b6000610f588c8c858560050154612ce5565b905080610fcd5760405162461bcd60e51b815260206004820152602160248201527f57534f4d3a204b7920717579207469656e2074752043544d207468617420626160448201527f690000000000000000000000000000000000000000000000000000000000000060648201526084016103cf565b60018260090160006101000a81548160ff021916908315150217905550600560008d6001600160a01b03166001600160a01b03168152602001908152602001600020849080600181540180825580915050600190039060005260206000200160009091909190915055600660008c6001600160a01b03166001600160a01b031681526020019081526020016000208490806001815401808255809150506001900390600052602060002001600090919091909150558a6001600160a01b03168c6001600160a01b0316857fca5524882b8d6e81c9e5fe2d8c67f0f754c7036d71705466735472a0a19385238560050154876040516110cc929190613e1e565b60405180910390a4600682015460405185917f9f2454a0dc8b062d3b51f32601a6fb1b8401132fec88d6093084e57203f859da9161110f9160ff16904290613c7e565b60405180910390a25050600160005550505050505050505050565b600083815260046020526040902080548491906111895760405162461bcd60e51b815260206004820152601c60248201527f57534f4d3a20446f6e2068616e67206b686f6e6720746f6e207461690000000060448201526064016103cf565b60028101546001600160a01b0316331461120b5760405162461bcd60e51b815260206004820152603360248201527f57534f4d3a204e67756f6920676f69206b686f6e672070686169207175616e2060448201527f6c79206b686f2063756120646f6e2068616e670000000000000000000000000060648201526084016103cf565b60007f00000000000000000000000000000000000000000000000000000000000000006001600160a01b0316636250e0566040518163ffffffff1660e01b815260040160206040518083038186803b15801561126657600080fd5b505afa15801561127a573d6000803e3d6000fd5b505050506040513d601f19601f8201168201806040525081019061129e91906136c3565b604051632474521560e21b8152600481018290523360248201529091507f00000000000000000000000000000000000000000000000000000000000000006001600160a01b0316906391d148549060440160206040518083038186803b15801561130757600080fd5b505afa15801561131b573d6000803e3d6000fd5b505050506040513d601f19601f8201168201806040525081019061133f91906136a9565b6113b15760405162461bcd60e51b815260206004820152602960248201527f57534f4d3a204e67756f6920676f69207468696575207661692074726f20515560448201527f414e5f4c595f4b484f000000000000000000000000000000000000000000000060648201526084016103cf565b600260005414156114045760405162461bcd60e51b815260206004820152601f60248201527f5265656e7472616e637947756172643a207265656e7472616e742063616c6c0060448201526064016103cf565b600260005561141586600333613192565b336001600160a01b0316867fd781810a411caea390040732c2c51eb255b78adc2f307aa228013e4921ced2358787604051611451929190613c99565b60405180910390a35050600160005550505050565b6001600160a01b0381166000908152600660209081526040918290208054835181840281018401909452808452606093928301828280156114c657602002820191906000526020600020905b8154815260200190600101908083116114b2575b50505050509050919050565b61153960408051610180810182526000808252602082018190529181018290526060808201839052608082015260a081018290529060c082019081526020016000815260200160008152602001600015158152602001600015158152602001606081525090565b6000828152600460205260409020546115945760405162461bcd60e51b815260206004820152601d60248201527f57534f4d3a20446f6e2068616e67206b686f6e672074696d207468617900000060448201526064016103cf565b60008281526004602081815260408084208151610180810183528154815260018201546001600160a01b03908116828601526002830154811682850152600383015416606082015293810180548351818602810186019094528084529495919460808701949192909184015b828210156116d8578382906000526020600020906003020160405180606001604052908160008201805461163390613fd3565b80601f016020809104026020016040519081016040528092919081815260200182805461165f90613fd3565b80156116ac5780601f10611681576101008083540402835291602001916116ac565b820191906000526020600020905b81548152906001019060200180831161168f57829003601f168201915b505050505081526020016001820154815260200160028201548152505081526020019060010190611600565b5050509082525060058201546020820152600682015460409091019060ff16600481111561171657634e487b7160e01b600052602160045260246000fd5b600481111561173557634e487b7160e01b600052602160045260246000fd5b81526007820154602082015260088201546040820152600982015460ff808216151560608401526101009091041615156080820152600a8201805460a09092019161177f90613fd3565b80601f01602080910402602001604051908101604052809291908181526020018280546117ab90613fd3565b80156117f85780601f106117cd576101008083540402835291602001916117f8565b820191906000526020600020905b8154815290600101906020018083116117db57829003601f168201915b5050505050815250509050919050565b6001546001600160a01b031633146118625760405162461bcd60e51b815260206004820181905260248201527f4f776e61626c653a2063616c6c6572206973206e6f7420746865206f776e657260448201526064016103cf565b6001546040516000916001600160a01b0316907f8be0079c531659141344cd1fd0a4f28419497f9722a3daafe3b4186f6b6457e0908390a36001805473ffffffffffffffffffffffffffffffffffffffff19169055565b6004602052600090815260409020805460018201546002830154600384015460058501546006860154600787015460088801546009890154600a8a018054999a6001600160a01b03998a169a988a169990971697959660ff9586169694959394848416946101009094049093169290919061193390613fd3565b80601f016020809104026020016040519081016040528092919081815260200182805461195f90613fd3565b80156119ac5780601f10611981576101008083540402835291602001916119ac565b820191906000526020600020905b81548152906001019060200180831161198f57829003601f168201915b505050505090508b565b600560205281600052604060002081815481106119d257600080fd5b90600052602060002001600091509150505481565b60008381526004602052604090208054849190611a465760405162461bcd60e51b815260206004820152601c60248201527f57534f4d3a20446f6e2068616e67206b686f6e6720746f6e207461690000000060448201526064016103cf565b60038101546001600160a01b03163314611ac85760405162461bcd60e51b815260206004820152602b60248201527f57534f4d3a204e67756f6920676f69206b686f6e672070686169204e4343206360448201527f756120646f6e2068616e6700000000000000000000000000000000000000000060648201526084016103cf565b60007f00000000000000000000000000000000000000000000000000000000000000006001600160a01b031663a29508fc6040518163ffffffff1660e01b815260040160206040518083038186803b158015611b2357600080fd5b505afa158015611b37573d6000803e3d6000fd5b505050506040513d601f19601f82011682018060405250810190611b5b91906136c3565b604051632474521560e21b8152600481018290523360248201529091507f00000000000000000000000000000000000000000000000000000000000000006001600160a01b0316906391d148549060440160206040518083038186803b158015611bc457600080fd5b505afa158015611bd8573d6000803e3d6000fd5b505050506040513d601f19601f82011682018060405250810190611bfc91906136a9565b611c6e5760405162461bcd60e51b815260206004820152602160248201527f57534f4d3a204e67756f6920676f69207468696575207661692074726f204e4360448201527f430000000000000000000000000000000000000000000000000000000000000060648201526084016103cf565b60026000541415611cc15760405162461bcd60e51b815260206004820152601f60248201527f5265656e7472616e637947756172643a207265656e7472616e742063616c6c0060448201526064016103cf565b6002600055611cd286600433613192565b336001600160a01b0316867f2f08073ee23e78e5da4b0af1367e579251ebd22078ee866c900b46a1621844a38787604051611451929190613c99565b6001600160a01b0381166000908152600560209081526040918290208054835181840281018401909452808452606093928301828280156114c657602002820191906000526020600020908154815260200190600101908083116114b25750505050509050919050565b60008181526004602052604090208054829190611dd75760405162461bcd60e51b815260206004820152601c60248201527f57534f4d3a20446f6e2068616e67206b686f6e6720746f6e207461690000000060448201526064016103cf565b60028101546001600160a01b03163314611e595760405162461bcd60e51b815260206004820152603360248201527f57534f4d3a204e67756f6920676f69206b686f6e672070686169207175616e2060448201527f6c79206b686f2063756120646f6e2068616e670000000000000000000000000060648201526084016103cf565b60007f00000000000000000000000000000000000000000000000000000000000000006001600160a01b0316636250e0566040518163ffffffff1660e01b815260040160206040518083038186803b158015611eb457600080fd5b505afa158015611ec8573d6000803e3d6000fd5b505050506040513d601f19601f82011682018060405250810190611eec91906136c3565b604051632474521560e21b8152600481018290523360248201529091507f00000000000000000000000000000000000000000000000000000000000000006001600160a01b0316906391d148549060440160206040518083038186803b158015611f5557600080fd5b505afa158015611f69573d6000803e3d6000fd5b505050506040513d601f19601f82011682018060405250810190611f8d91906136a9565b611fff5760405162461bcd60e51b815260206004820152602960248201527f57534f4d3a204e67756f6920676f69207468696575207661692074726f20515560448201527f414e5f4c595f4b484f000000000000000000000000000000000000000000000060648201526084016103cf565b600260005414156120525760405162461bcd60e51b815260206004820152601f60248201527f5265656e7472616e637947756172643a207265656e7472616e742063616c6c0060448201526064016103cf565b600260009081558481526004602052604090206001600682015460ff16600481111561208e57634e487b7160e01b600052602160045260246000fd5b146121015760405162461bcd60e51b815260206004820152602160248201527f57534f4d3a20446f6e2068616e6720636875612064756f63204e43432067696160448201527f6f0000000000000000000000000000000000000000000000000000000000000060648201526084016103cf565b600981015460ff1661217b5760405162461bcd60e51b815260206004820152602c60248201527f57534f4d3a205469656e20636875612064756f63206b79207175792063686f2060448201527f646f6e2068616e67206e6179000000000000000000000000000000000000000060648201526084016103cf565b6009810154610100900460ff16156121fb5760405162461bcd60e51b815260206004820152602860248201527f57534f4d3a205469656e2064612064756f632067696169206e67616e2063686f60448201527f204e434320726f6900000000000000000000000000000000000000000000000060648201526084016103cf565b6002546001600160a01b03166122535760405162461bcd60e51b815260206004820152601f60248201527f57534f4d3a20446961206368692057494d20636875612064756f63206461740060448201526064016103cf565b600381015460058201546040517f51aeb5770000000000000000000000000000000000000000000000000000000081526000926001600160a01b037f00000000000000000000000000000000000000000000000000000000000000008116936351aeb577936122ce9390921691600a88019190600401613b79565b602060405180830381600087803b1580156122e857600080fd5b505af11580156122fc573d6000803e3d6000fd5b505050506040513d601f19601f8201168201806040525081019061232091906136a9565b9050806123955760405162461bcd60e51b815260206004820152602c60248201527f57534f4d3a2047696169206e67616e207469656e2063686f204e43432074752060448201527f43544d207468617420626169000000000000000000000000000000000000000060648201526084016103cf565b60068201805460ff191660021790556009820180546101007fffffffffffffffffffffffffffffffffffffffffffffffffffffffffffff00ff90911617905542600883015560005b600483015481101561257357600083600401828154811061240e57634e487b7160e01b600052603260045260246000fd5b906000526020600020906003020160405180606001604052908160008201805461243790613fd3565b80601f016020809104026020016040519081016040528092919081815260200182805461246390613fd3565b80156124b05780601f10612485576101008083540402835291602001916124b0565b820191906000526020600020905b81548152906001019060200180831161249357829003601f168201915b505050918352505060018281015460208084019190915260029384015460409384015292549088015484519385015192517fbe77f0720000000000000000000000000000000000000000000000000000000081529495506001600160a01b039182169463be77f0729461252d949390921692908e90600401613b44565b600060405180830381600087803b15801561254757600080fd5b505af115801561255b573d6000803e3d6000fd5b5050505050808061256b9061400e565b9150506123dd565b50604051339087907f92735abfa431d1388bc95bba2eb82528b69299773967b2e63b0a617efe3ef9bb90600090a3600382015460058301546040519081526001600160a01b039091169087907f6c3a76b1fd63a9e0a000ed4ece8f7f99d32f68ce757586538026bbaae41fd0059060200160405180910390a3600682015460405187917f9f2454a0dc8b062d3b51f32601a6fb1b8401132fec88d6093084e57203f859da916126279160ff16904290613c7e565b60405180910390a25050600160005550505050565b600660205281600052604060002081815481106119d257600080fd5b6001546001600160a01b031633146126b25760405162461bcd60e51b815260206004820181905260248201527f4f776e61626c653a2063616c6c6572206973206e6f7420746865206f776e657260448201526064016103cf565b6001600160a01b03811661272e5760405162461bcd60e51b815260206004820152602660248201527f4f776e61626c653a206e6577206f776e657220697320746865207a65726f206160448201527f646472657373000000000000000000000000000000000000000000000000000060648201526084016103cf565b6001546040516001600160a01b038084169216907f8be0079c531659141344cd1fd0a4f28419497f9722a3daafe3b4186f6b6457e090600090a36001805473ffffffffffffffffffffffffffffffffffffffff19166001600160a01b0392909216919091179055565b6001546001600160a01b031633146127f15760405162461bcd60e51b815260206004820181905260248201527f4f776e61626c653a2063616c6c6572206973206e6f7420746865206f776e657260448201526064016103cf565b6001600160a01b0381166128475760405162461bcd60e51b815260206004820152601e60248201527f57534f4d3a20446961206368692057494d206b686f6e6720686f70206c65000060448201526064016103cf565b6002805473ffffffffffffffffffffffffffffffffffffffff19166001600160a01b0383169081179091556040517f9d00bdb4c1bf918df98c2197d7890603abf58babbc46d1a0442c1d92855fa12990600090a250565b6060816128de57505060408051808201909152600181527f3000000000000000000000000000000000000000000000000000000000000000602082015290565b8160005b811561290857806128f28161400e565b91506129019050600a83613f42565b91506128e2565b60008167ffffffffffffffff81111561293157634e487b7160e01b600052604160045260246000fd5b6040519080825280601f01601f19166020018201604052801561295b576020820181803683370190505b509050815b85156129ee578061297081613fbc565b915061297f9050600a87614029565b61298a906030613f2a565b60f81b8282815181106129ad57634e487b7160e01b600052603260045260246000fd5b60200101907effffffffffffffffffffffffffffffffffffffffffffffffffffffffffffff1916908160001a9053506129e7600a87613f42565b9550612960565b50949350505050565b6000805b848110156129ee5736868683818110612a2457634e487b7160e01b600052603260045260246000fd5b9050602002810190612a369190613ea1565b90506000816020013511612ab25760405162461bcd60e51b815260206004820152602860248201527f57534f4d3a20536f206c756f6e67206d61742068616e672070686169206c612060448201527f736f2064756f6e6700000000000000000000000000000000000000000000000060648201526084016103cf565b60006001600160a01b037f00000000000000000000000000000000000000000000000000000000000000001663f063e02987612aee8580613e37565b6040518463ffffffff1660e01b8152600401612b0c93929190613b18565b60006040518083038186803b158015612b2457600080fd5b505afa158015612b38573d6000803e3d6000fd5b505050506040513d6000823e601f3d908101601f19168201604052612b609190810190613870565b905080608001518015612b74575080606001515b612c0d5760405162461bcd60e51b8152602060048201526044602482018190527f57534f4d3a204d61742068616e6720637561204e4343206b686f6e6720636f20908201527f73616e20686f616320636875612064756f632070686520647579657420626f6960648201527f2042444800000000000000000000000000000000000000000000000000000000608482015260a4016103cf565b6040805160608101909152859080612c258580613e37565b8080601f016020809104026020016040519081016040528093929190818152602001838380828437600092018290525093855250505060208681013581840152604086810151930192909252835460018101855593815281902082518051939460030290910192612c99928492019061348c565b506020820151816001015560408201518160020155505081602001358160400151612cc49190613f56565b612cce9085613f2a565b935050508080612cdd9061400e565b9150506129fb565b6040517fef1ac8a90000000000000000000000000000000000000000000000000000000081526001600160a01b038581166004830152848116602483015260009182917f0000000000000000000000000000000000000000000000000000000000000000169063ef1ac8a99060440160206040518083038186803b158015612d6c57600080fd5b505afa158015612d80573d6000803e3d6000fd5b505050506040513d601f19601f82011682018060405250810190612da491906136c3565b6040517f8b77b9a90000000000000000000000000000000000000000000000000000000081526001600160a01b0388811660048301529192506000917f00000000000000000000000000000000000000000000000000000000000000001690638b77b9a99060240160206040518083038186803b158015612e2457600080fd5b505afa158015612e38573d6000803e3d6000fd5b505050506040513d601f19601f82011682018060405250810190612e5c91906136c3565b905060007f00000000000000000000000000000000000000000000000000000000000000006001600160a01b031663d505ea1f6040518163ffffffff1660e01b815260040160206040518083038186803b158015612eb957600080fd5b505afa158015612ecd573d6000803e3d6000fd5b505050506040513d601f19601f82011682018060405250810190612ef191906136c3565b905060008311612f695760405162461bcd60e51b815260206004820152603e60248201527f57534f4d3a204b686f6e6720636f206368696e6820736163682063686920746960448201527f6575207475204e67616e207175792063686f206b686f2f6e6363206e6179000060648201526084016103cf565b82851115612fe1576040805162461bcd60e51b81526020600482015260248101919091527f57534f4d3a204769612074726920646f6e2068616e672076756f74207175612060448201527f6368696e682073616368206368692074696575206d6f6920646f6e2068616e6760648201526084016103cf565b6000612fed8684613f2a565b9050818111156130655760405162461bcd60e51b815260206004820152603960248201527f57534f4d3a20446f6e2068616e672076756f74207175612067696f692068616e60448201527f2063686920746965752064696e68206b7920637561206b686f0000000000000060648201526084016103cf565b6040517faa9ce11f0000000000000000000000000000000000000000000000000000000081526000906001600160a01b037f0000000000000000000000000000000000000000000000000000000000000000169063aa9ce11f906130d3908d908d908d908d90600401613adb565b602060405180830381600087803b1580156130ed57600080fd5b505af1158015613101573d6000803e3d6000fd5b505050506040513d601f19601f8201168201806040525081019061312591906136a9565b905060046000600160035461313a9190613f75565b8152602001908152602001600020600001547f4629bbe18e5b4f4ed30c48c723e468f1f198563313c15b138219d35c4e7a30d5888a60405161317d929190613e1e565b60405180910390a29998505050505050505050565b600083815260046020526040812090600682015460ff1660048111156131c857634e487b7160e01b600052602160045260246000fd5b1461323b5760405162461bcd60e51b815260206004820152602c60248201527f57534f4d3a20446f6e2068616e67206b686f6e67206f207472616e672074686160448201527f6920636f2074686520687579000000000000000000000000000000000000000060648201526084016103cf565b600981015460ff166132b55760405162461bcd60e51b815260206004820152603360248201527f57534f4d3a205469656e20636875612064756f63206b79207175792028686f6160448201527f632064612062692068757929206465206875790000000000000000000000000060648201526084016103cf565b600181015460058201546040517fdaf45d4e0000000000000000000000000000000000000000000000000000000081526000926001600160a01b037f000000000000000000000000000000000000000000000000000000000000000081169363daf45d4e936133309390921691600a88019190600401613b79565b602060405180830381600087803b15801561334a57600080fd5b505af115801561335e573d6000803e3d6000fd5b505050506040513d601f19601f8201168201806040525081019061338291906136a9565b9050806133f9576040805162461bcd60e51b81526020600482015260248101919091527f57534f4d3a20486f616e20747261207469656e206b792071757920766520435460448201527f4d2074686174206261692c20766965632068757920626920686f616e2074616360648201526084016103cf565b60068201805485919060ff1916600183600481111561342857634e487b7160e01b600052602160045260246000fd5b021790555060098201805460ff191690554260088301819055600683015460405187927f9f2454a0dc8b062d3b51f32601a6fb1b8401132fec88d6093084e57203f859da9261347d9260ff9091169190613c7e565b60405180910390a25050505050565b82805461349890613fd3565b90600052602060002090601f0160209004810192826134ba5760008555613500565b82601f106134d357805160ff1916838001178555613500565b82800160010185558215613500579182015b828111156135005782518255916020019190600101906134e5565b5061350c929150613510565b5090565b5b8082111561350c5760008155600101613511565b80516135308161407f565b919050565b8051801515811461353057600080fd5b600082601f830112613555578081fd5b815167ffffffffffffffff8082111561357057613570614069565b604051601f8301601f19908116603f0116810190828211818310171561359857613598614069565b816040528381528660208588010111156135b0578485fd5b6135c1846020830160208901613f8c565b9695505050505050565b6000602082840312156135dc578081fd5b81356135e78161407f565b9392505050565b60008060008060608587031215613603578283fd5b843561360e8161407f565b9350602085013561361e8161407f565b9250604085013567ffffffffffffffff8082111561363a578384fd5b818701915087601f83011261364d578384fd5b81358181111561365b578485fd5b8860208260051b850101111561366f578485fd5b95989497505060200194505050565b60008060408385031215613690578182fd5b823561369b8161407f565b946020939093013593505050565b6000602082840312156136ba578081fd5b6135e782613535565b6000602082840312156136d4578081fd5b5051919050565b6000602082840312156136ec578081fd5b815167ffffffffffffffff80821115613703578283fd5b9083019060e08286031215613716578283fd5b61371e613ede565b61372783613525565b815260208301518281111561373a578485fd5b61374687828601613545565b60208301525060408301518281111561375d578485fd5b61376987828601613545565b60408301525061377b60608401613525565b606082015261378c60808401613535565b608082015261379d60a08401613535565b60a08201526137ae60c08401613525565b60c082015295945050505050565b6000602082840312156137cd578081fd5b815167ffffffffffffffff808211156137e4578283fd5b90830190608082860312156137f7578283fd5b60405160808101818110838211171561381257613812614069565b60405282516138208161407f565b8152602083015182811115613833578485fd5b61383f87828601613545565b60208301525061385160408401613535565b604082015261386260608401613535565b606082015295945050505050565b600060208284031215613881578081fd5b815167ffffffffffffffff80821115613898578283fd5b9083019060a082860312156138ab578283fd5b6138b3613f07565b8251828111156138c1578485fd5b6138cd87828601613545565b825250602083015191506138e08261407f565b816020820152604083015160408201526138fc60608401613535565b606082015261390d60808401613535565b608082015295945050505050565b60006020828403121561392c578081fd5b5035919050565b600080600060408486031215613947578283fd5b83359250602084013567ffffffffffffffff80821115613965578384fd5b818601915086601f830112613978578384fd5b813581811115613986578485fd5b876020828501011115613997578485fd5b6020830194508093505050509250925092565b600081518084526020808501808196508360051b81019150828601855b85811015613a115782840389528151606081518187526139e982880182613a6a565b83890151888a01526040938401519390970192909252505097840197908401906001016139c7565b5091979650505050505050565b60058110613a3c57634e487b7160e01b600052602160045260246000fd5b9052565b8183528181602085013750600080602083850101526020601f19601f840116840101905092915050565b60008151808452613a82816020860160208601613f8c565b601f01601f19169290920160200192915050565b7f57534f4d2d4f524445522d000000000000000000000000000000000000000000815260008251613ace81600b850160208701613f8c565b91909101600b0192915050565b60006001600160a01b03808716835280861660208401525060806040830152613b076080830185613a6a565b905082606083015295945050505050565b6001600160a01b0384168152604060208201526000613b3b604083018486613a40565b95945050505050565b6001600160a01b0385168152608060208201526000613b666080830186613a6a565b6040830194909452506060015292915050565b6001600160a01b03841681526000602060608184015281855483600182811c915080831680613ba957607f831692505b858310811415613bc757634e487b7160e01b87526022600452602487fd5b6060880183905260808801818015613be65760018114613bf757613c21565b60ff19861682528782019650613c21565b60008c815260209020895b86811015613c1b57815484820152908501908901613c02565b83019750505b5050505050508092505050826040830152949350505050565b6020808252825182820181905260009190848201906040850190845b81811015613c7257835183529284019291840191600101613c56565b50909695505050505050565b60408101613c8c8285613a1e565b8260208301529392505050565b602081526000613cad602083018486613a40565b949350505050565b602081528151602082015260006020830151613cdc60408401826001600160a01b03169052565b5060408301516001600160a01b03811660608401525060608301516001600160a01b03811660808401525060808301516101808060a0850152613d236101a08501836139aa565b915060a085015160c085015260c0850151613d4160e0860182613a1e565b5060e08501516101008581019190915285015161012080860191909152850151610140613d718187018315159052565b8601519050610160613d868682018315159052565b860151858403601f19018387015290506135c18382613a6a565b8b81526001600160a01b038b811660208301528a8116604083015289166060820152608081018890526000610160613ddb60a084018a613a1e565b8760c08401528660e084015285151561010084015284151561012084015280610140840152613e0c81840185613a6a565b9e9d5050505050505050505050505050565b828152604060208201526000613cad6040830184613a6a565b60008083357fffffffffffffffffffffffffffffffffffffffffffffffffffffffffffffffe1843603018112613e6b578283fd5b83018035915067ffffffffffffffff821115613e85578283fd5b602001915036819003821315613e9a57600080fd5b9250929050565b600082357fffffffffffffffffffffffffffffffffffffffffffffffffffffffffffffffc1833603018112613ed4578182fd5b9190910192915050565b60405160e0810167ffffffffffffffff81118282101715613f0157613f01614069565b60405290565b60405160a0810167ffffffffffffffff81118282101715613f0157613f01614069565b60008219821115613f3d57613f3d61403d565b500190565b600082613f5157613f51614053565b500490565b6000816000190483118215151615613f7057613f7061403d565b500290565b600082821015613f8757613f8761403d565b500390565b60005b83811015613fa7578181015183820152602001613f8f565b83811115613fb6576000848401525b50505050565b600081613fcb57613fcb61403d565b506000190190565b600181811c90821680613fe757607f821691505b6020821081141561400857634e487b7160e01b600052602260045260246000fd5b50919050565b60006000198214156140225761402261403d565b5060010190565b60008261403857614038614053565b500690565b634e487b7160e01b600052601160045260246000fd5b634e487b7160e01b600052601260045260246000fd5b634e487b7160e01b600052604160045260246000fd5b6001600160a01b038116811461409457600080fd5b5056fea264697066735822122061c85e1b86b49c3cf22c525d223672683b704dbc986804d81fc52225fd0059ff64736f6c63430008040033",
  "immutableReferences": {
    "8266": [
      {
        "length": 32,
        "start": 716
      },
      {
        "length": 32,
        "start": 1118
      },
      {
        "length": 32,
        "start": 1292
      },
      {
        "length": 32,
        "start": 2429
      },
      {
        "length": 32,
        "start": 2603
      },
      {
        "length": 32,
        "start": 4623
      },
      {
        "length": 32,
        "start": 4797
      },
      {
        "length": 32,
        "start": 6860
      },
      {
        "length": 32,
        "start": 7034
      },
      {
        "length": 32,
        "start": 7773
      },
      {
        "length": 32,
        "start": 7947
      }
    ],
    "8269": [
      {
        "length": 32,
        "start": 755
      },
      {
        "length": 32,
        "start": 2084
      },
      {
        "length": 32,
        "start": 3197
      },
      {
        "length": 32,
        "start": 10942
      }
    ],
    "8272": [
      {
        "length": 32,
        "start": 506
      },
      {
        "length": 32,
        "start": 8848
      },
      {
        "length": 32,
        "start": 11562
      },
      {
        "length": 32,
        "start": 11746
      },
      {
        "length": 32,
        "start": 11874
      },
      {
        "length": 32,
        "start": 12440
      },
      {
        "length": 32,
        "start": 13042
      }
    ]
  },
  "source": "// SPDX-License-Identifier: MIT\r\npragma solidity ^0.8.4;\r\n\r\nimport \"@openzeppelin/contracts/security/ReentrancyGuard.sol\";\r\nimport \"@openzeppelin/contracts/access/Ownable.sol\";\r\nimport \"./Interfaces.sol\";      // Import file Interfaces.sol tp trung\r\nimport \"./ItemsManagement.sol\"; // Import ItemsManagement  trnh bin dch lin kt contract\r\n\r\n// Hp ng Qun l n hng Kho - Nh cung cp\r\ncontract WarehouseSupplierOrderManagement is ReentrancyGuard, Ownable {\r\n    // S dng cc interface t Interfaces.sol\r\n    IRoleManagementInterface public immutable roleManagement;\r\n    IItemsManagementInterface public immutable itemsManagement;\r\n    ICompanyTreasuryManagerInterface public immutable companyTreasuryManager;\r\n    IWarehouseInventoryManagementInterface public warehouseInventoryManagement; // S c set sau\r\n\r\n    uint256 public nextWSOrderId; // ID cho n hng Kho-NCC tip theo\r\n\r\n    // Trng thi n hng Kho-NCC\r\n    enum WSOrderStatus {\r\n        PendingShipment,         // 0: Ch NCC giao hng ( k qu)\r\n        ShippedBySupplier,       // 1: NCC  xc nhn giao hng\r\n        ReceivedByWarehouse,     // 2: Kho  xc nhn nhn hng ( gii ngn)\r\n        CancelledByWarehouse,    // 3: Kho hy (trc khi NCC giao)\r\n        CancelledBySupplier      // 4: NCC hy (trc khi NCC giao)\r\n    }\r\n\r\n    // Mt hng trong n Kho-NCC\r\n    struct WSOrderItem {\r\n        string itemId;\r\n        uint256 quantity;\r\n        uint256 unitPrice; // Gi ti thi im t hng\r\n    }\r\n\r\n    // Cu trc n hng Kho-NCC\r\n    struct WSOrder {\r\n        uint256 wsOrderId;\r\n        address warehouseAddress;   // Kho t hng\r\n        address warehouseManager;   // Qun l kho  t hng\r\n        address supplierAddress;    // Nh cung cp\r\n        WSOrderItem[] items;        // Danh sch mt hng\r\n        uint256 totalAmount;        // Tng gi tr n hng ( k qu)\r\n        WSOrderStatus status;\r\n        uint256 creationTimestamp;\r\n        uint256 lastUpdateTimestamp;\r\n        bool fundsEscrowed;         // C cho bit tin  c CTM k qu thnh cng\r\n        bool fundsReleasedToSupplier; // C cho bit tin  c CTM gii ngn cho NCC\r\n        string internalSupplierOrderId; // ID duy nht c s dng  tng tc vi CTM cho vic k qu\r\n    }\r\n\r\n    // D liu u vo t Qun l Kho khi t hng\r\n    struct WSOrderItemInput {\r\n        string itemId;\r\n        uint256 quantity;\r\n    }\r\n\r\n    mapping(uint256 => WSOrder) public wsOrders;\r\n    mapping(address => uint256[]) public warehouseSentOrderIds;    // warehouseAddress => array of wsOrderIds\r\n    mapping(address => uint256[]) public supplierReceivedOrderIds; // supplierAddress => array of wsOrderIds\r\n\r\n    // --- EVENTS ---\r\n    event WSOrderPlaced(uint256 indexed wsOrderId, address indexed warehouseAddress, address indexed supplierAddress, uint256 totalAmount, string internalSupplierOrderId);\r\n    event WSOrderShipmentConfirmedBySupplier(uint256 indexed wsOrderId, address indexed supplierAddress);\r\n    event WSOrderReceiptConfirmedByWarehouse(uint256 indexed wsOrderId, address indexed warehouseManager);\r\n    event WSOrderCancelledByWarehouse(uint256 indexed wsOrderId, address indexed warehouseManager, string reason);\r\n    event WSOrderCancelledBySupplier(uint256 indexed wsOrderId, address indexed supplierAddress, string reason);\r\n    event WSOrderFundsReleasedToSupplier(uint256 indexed wsOrderId, address indexed supplierAddress, uint256 amount); // Khi CTM gii ngn thnh cng\r\n    event EscrowRequestedForWSOrder(uint256 indexed wsOrderId, uint256 amount, string internalSupplierOrderId); // Khi yu cu CTM k qu\r\n    event WSOrderStatusUpdated(uint256 indexed wsOrderId, WSOrderStatus newStatus, uint256 timestamp);\r\n\r\n    // Admin/Owner events\r\n    event WarehouseInventoryManagementAddressSet(address indexed wimAddress);\r\n\r\n    // --- CONSTRUCTOR ---\r\n    constructor(\r\n        address _roleManagementAddress,\r\n        address _itemsManagementAddress,\r\n        address _companyTreasuryManagerAddress\r\n    ) Ownable() {\r\n        require(_roleManagementAddress != address(0), \"WSOM: Dia chi RM khong hop le\");\r\n        roleManagement = IRoleManagementInterface(_roleManagementAddress);\r\n\r\n        require(_itemsManagementAddress != address(0), \"WSOM: Dia chi ItemsM khong hop le\");\r\n        itemsManagement = IItemsManagementInterface(_itemsManagementAddress);\r\n\r\n        require(_companyTreasuryManagerAddress != address(0), \"WSOM: Dia chi CTM khong hop le\");\r\n        companyTreasuryManager = ICompanyTreasuryManagerInterface(_companyTreasuryManagerAddress);\r\n\r\n        nextWSOrderId = 1;\r\n    }\r\n\r\n    // --- SETTER (Owner only) ---\r\n    function setWarehouseInventoryManagementAddress(address _wimAddress) external onlyOwner {\r\n        require(_wimAddress != address(0), \"WSOM: Dia chi WIM khong hop le\");\r\n        warehouseInventoryManagement = IWarehouseInventoryManagementInterface(_wimAddress);\r\n        emit WarehouseInventoryManagementAddressSet(_wimAddress);\r\n    }\r\n\r\n    // --- MODIFIERS ---\r\n    modifier onlyWarehouseManagerForAction(address _warehouseAddress) {\r\n        require(_warehouseAddress != address(0), \"WSOM: Dia chi kho khong hop le\");\r\n        // S dng PhysicalLocationInfo t Interfaces.sol (forward-declared)\r\n        PhysicalLocationInfo memory warehouseInfo = itemsManagement.getWarehouseInfo(_warehouseAddress);\r\n        require(warehouseInfo.exists, \"WSOM: Kho khong ton tai\");\r\n        require(warehouseInfo.manager == msg.sender, \"WSOM: Nguoi goi khong phai quan ly kho nay\");\r\n\r\n        bytes32 whManagerRole = roleManagement.WAREHOUSE_MANAGER_ROLE();\r\n        require(roleManagement.hasRole(whManagerRole, msg.sender), \"WSOM: Nguoi goi thieu vai tro QUAN_LY_KHO\");\r\n        _;\r\n    }\r\n\r\n    modifier onlyOrderWarehouseManager(uint256 _wsOrderId) {\r\n        WSOrder storage currentOrder = wsOrders[_wsOrderId];\r\n        require(currentOrder.wsOrderId != 0, \"WSOM: Don hang khong ton tai\"); // Check if order exists\r\n        require(currentOrder.warehouseManager == msg.sender, \"WSOM: Nguoi goi khong phai quan ly kho cua don hang\");\r\n\r\n        bytes32 whManagerRole = roleManagement.WAREHOUSE_MANAGER_ROLE();\r\n        require(roleManagement.hasRole(whManagerRole, msg.sender), \"WSOM: Nguoi goi thieu vai tro QUAN_LY_KHO\");\r\n        _;\r\n    }\r\n\r\n    modifier onlyOrderSupplier(uint256 _wsOrderId) {\r\n        WSOrder storage currentOrder = wsOrders[_wsOrderId];\r\n        require(currentOrder.wsOrderId != 0, \"WSOM: Don hang khong ton tai\");\r\n        require(currentOrder.supplierAddress == msg.sender, \"WSOM: Nguoi goi khong phai NCC cua don hang\");\r\n\r\n        bytes32 supRole = roleManagement.SUPPLIER_ROLE();\r\n        require(roleManagement.hasRole(supRole, msg.sender), \"WSOM: Nguoi goi thieu vai tro NCC\");\r\n        _;\r\n    }\r\n\r\n\r\n    // --- INTERNAL HELPER FUNCTIONS ---\r\n    function _processOrderItems(\r\n        WSOrderItemInput[] calldata _itemsInput,\r\n        address _supplierAddress,\r\n        WSOrderItem[] storage _orderItems // Pass by storage reference to modify directly\r\n    ) internal returns (uint256 calculatedTotalAmount) {\r\n        calculatedTotalAmount = 0;\r\n        for (uint i = 0; i < _itemsInput.length; i++) {\r\n            WSOrderItemInput calldata itemInput = _itemsInput[i];\r\n            require(itemInput.quantity > 0, \"WSOM: So luong mat hang phai la so duong\");\r\n\r\n            // S dng SupplierItemListing t Interfaces.sol (forward-declared)\r\n            SupplierItemListing memory supplierListing = itemsManagement.getSupplierItemDetails(_supplierAddress, itemInput.itemId);\r\n            require(supplierListing.exists && supplierListing.isApprovedByBoard, \"WSOM: Mat hang cua NCC khong co san hoac chua duoc phe duyet boi BDH\");\r\n\r\n            _orderItems.push(WSOrderItem({\r\n                itemId: itemInput.itemId,\r\n                quantity: itemInput.quantity,\r\n                unitPrice: supplierListing.price\r\n            }));\r\n            calculatedTotalAmount += supplierListing.price * itemInput.quantity;\r\n        }\r\n    }\r\n\r\n    function _validateAndRequestEscrow(\r\n        address _warehouseAddress,\r\n        address _supplierAddress,\r\n        string memory _internalOrderId,\r\n        uint256 _orderTotal\r\n    ) internal returns (bool) { // Returns true if escrow request to CTM was successful\r\n        uint256 maxAmountPerOrderPolicy = companyTreasuryManager.getWarehouseSpendingPolicy(_warehouseAddress, _supplierAddress);\r\n        uint256 currentSpendingThisPeriod = companyTreasuryManager.getWarehouseSpendingThisPeriod(_warehouseAddress);\r\n        uint256 spendingLimitPerPeriod = companyTreasuryManager.WAREHOUSE_SPENDING_LIMIT_PER_PERIOD_CONST();\r\n\r\n        require(maxAmountPerOrderPolicy > 0, \"WSOM: Khong co chinh sach chi tieu tu Ngan quy cho kho/ncc nay\");\r\n        require(_orderTotal <= maxAmountPerOrderPolicy, \"WSOM: Gia tri don hang vuot qua chinh sach chi tieu moi don hang\");\r\n\r\n        uint256 projectedSpending = currentSpendingThisPeriod + _orderTotal;\r\n        require(projectedSpending <= spendingLimitPerPeriod, \"WSOM: Don hang vuot qua gioi han chi tieu dinh ky cua kho\");\r\n\r\n        bool escrowSuccess = companyTreasuryManager.requestEscrowForSupplierOrder(\r\n            _warehouseAddress, _supplierAddress, _internalOrderId, _orderTotal\r\n        );\r\n        emit EscrowRequestedForWSOrder(wsOrders[nextWSOrderId-1].wsOrderId, _orderTotal, _internalOrderId); // Assuming nextWSOrderId was just incremented\r\n        return escrowSuccess;\r\n    }\r\n\r\n    function uintToString(uint256 value) internal pure returns (string memory) {\r\n        if (value == 0) return \"0\";\r\n        uint256 temp = value;\r\n        uint256 digits;\r\n        while (temp != 0) { digits++; temp /= 10; }\r\n        bytes memory buffer = new bytes(digits);\r\n        uint256 i = digits;\r\n        while (value != 0) { i--; buffer[i] = bytes1(uint8(48 + (value % 10))); value /= 10; }\r\n        return string(buffer);\r\n    }\r\n\r\n    // --- CORE ORDER FUNCTIONS ---\r\n    function placeOrderByWarehouse(\r\n        address _warehouseAddress,    // Warehouse placing the order (msg.sender must be its manager)\r\n        address _supplierAddress,\r\n        WSOrderItemInput[] calldata _itemsInput\r\n    ) external onlyWarehouseManagerForAction(_warehouseAddress) nonReentrant {\r\n        require(address(warehouseInventoryManagement) != address(0), \"WSOM: Dia chi WIM chua duoc dat\");\r\n        require(_itemsInput.length > 0, \"WSOM: Don hang phai co it nhat mot mat hang\");\r\n\r\n        // S dng SupplierInfo t Interfaces.sol (forward-declared)\r\n        SupplierInfo memory supplierInfo = itemsManagement.getSupplierInfo(_supplierAddress);\r\n        require(supplierInfo.exists && supplierInfo.isApprovedByBoard, \"WSOM: NCC khong hop le hoac chua duoc phe duyet\");\r\n\r\n        uint256 currentWsOrderId = nextWSOrderId++;\r\n        // Generate a unique ID for CTM escrow, e.g., \"WSOM-ORDER-123\"\r\n        string memory internalOrderIdForEscrow = string(abi.encodePacked(\"WSOM-ORDER-\", uintToString(currentWsOrderId)));\r\n\r\n        WSOrder storage newOrder = wsOrders[currentWsOrderId];\r\n        newOrder.wsOrderId = currentWsOrderId;\r\n        newOrder.warehouseAddress = _warehouseAddress;\r\n        newOrder.warehouseManager = msg.sender;\r\n        newOrder.supplierAddress = _supplierAddress;\r\n        newOrder.status = WSOrderStatus.PendingShipment; // Initial status\r\n        newOrder.creationTimestamp = block.timestamp;\r\n        newOrder.lastUpdateTimestamp = block.timestamp;\r\n        newOrder.internalSupplierOrderId = internalOrderIdForEscrow;\r\n\r\n        // Process items and calculate total amount - _processOrderItems modifies newOrder.items directly\r\n        newOrder.totalAmount = _processOrderItems(_itemsInput, _supplierAddress, newOrder.items);\r\n        require(newOrder.totalAmount > 0, \"WSOM: Tong gia tri don hang phai lon hon 0\");\r\n\r\n        // Validate spending policies and request escrow from CompanyTreasuryManager\r\n        bool escrowSuccess = _validateAndRequestEscrow(\r\n            _warehouseAddress,\r\n            _supplierAddress,\r\n            internalOrderIdForEscrow,\r\n            newOrder.totalAmount\r\n        );\r\n        require(escrowSuccess, \"WSOM: Ky quy tien tu CTM that bai\");\r\n        newOrder.fundsEscrowed = true;\r\n\r\n        warehouseSentOrderIds[_warehouseAddress].push(currentWsOrderId);\r\n        supplierReceivedOrderIds[_supplierAddress].push(currentWsOrderId);\r\n\r\n        emit WSOrderPlaced(currentWsOrderId, _warehouseAddress, _supplierAddress, newOrder.totalAmount, internalOrderIdForEscrow);\r\n        emit WSOrderStatusUpdated(currentWsOrderId, newOrder.status, block.timestamp);\r\n    }\r\n\r\n    function supplierConfirmShipment(uint256 _wsOrderId) external onlyOrderSupplier(_wsOrderId) nonReentrant {\r\n        WSOrder storage currentOrder = wsOrders[_wsOrderId];\r\n        require(currentOrder.status == WSOrderStatus.PendingShipment, \"WSOM: Don hang khong o trang thai cho giao hang\");\r\n\r\n        currentOrder.status = WSOrderStatus.ShippedBySupplier;\r\n        currentOrder.lastUpdateTimestamp = block.timestamp;\r\n\r\n        emit WSOrderShipmentConfirmedBySupplier(_wsOrderId, msg.sender);\r\n        emit WSOrderStatusUpdated(_wsOrderId, currentOrder.status, block.timestamp);\r\n    }\r\n\r\n    function warehouseConfirmReceipt(uint256 _wsOrderId) external onlyOrderWarehouseManager(_wsOrderId) nonReentrant {\r\n        WSOrder storage currentOrder = wsOrders[_wsOrderId];\r\n        require(currentOrder.status == WSOrderStatus.ShippedBySupplier, \"WSOM: Don hang chua duoc NCC giao\");\r\n        require(currentOrder.fundsEscrowed, \"WSOM: Tien chua duoc ky quy cho don hang nay\");\r\n        require(!currentOrder.fundsReleasedToSupplier, \"WSOM: Tien da duoc giai ngan cho NCC roi\");\r\n        require(address(warehouseInventoryManagement) != address(0), \"WSOM: Dia chi WIM chua duoc dat\");\r\n\r\n        // Request CTM to release funds to supplier\r\n        bool releaseSuccess = companyTreasuryManager.releaseEscrowToSupplier(\r\n            currentOrder.supplierAddress,\r\n            currentOrder.internalSupplierOrderId,\r\n            currentOrder.totalAmount\r\n        );\r\n        require(releaseSuccess, \"WSOM: Giai ngan tien cho NCC tu CTM that bai\");\r\n\r\n        currentOrder.status = WSOrderStatus.ReceivedByWarehouse;\r\n        currentOrder.fundsReleasedToSupplier = true;\r\n        currentOrder.lastUpdateTimestamp = block.timestamp;\r\n\r\n        // Record stock in WarehouseInventoryManagement for each item\r\n        for (uint i = 0; i < currentOrder.items.length; i++) {\r\n            WSOrderItem memory item = currentOrder.items[i];\r\n            warehouseInventoryManagement.recordStockInFromSupplier(\r\n                currentOrder.warehouseAddress,\r\n                item.itemId,\r\n                item.quantity,\r\n                _wsOrderId // Pass the WSOM order ID for WIM to link\r\n            );\r\n        }\r\n\r\n        emit WSOrderReceiptConfirmedByWarehouse(_wsOrderId, msg.sender);\r\n        emit WSOrderFundsReleasedToSupplier(_wsOrderId, currentOrder.supplierAddress, currentOrder.totalAmount);\r\n        emit WSOrderStatusUpdated(_wsOrderId, currentOrder.status, block.timestamp);\r\n    }\r\n\r\n    function _internalCancelOrder(uint256 _wsOrderId, WSOrderStatus _newStatus, address) internal {\r\n        WSOrder storage currentOrder = wsOrders[_wsOrderId];\r\n        // Order can only be cancelled if it's pending shipment from supplier\r\n        require(currentOrder.status == WSOrderStatus.PendingShipment, \"WSOM: Don hang khong o trang thai co the huy\");\r\n        require(currentOrder.fundsEscrowed, \"WSOM: Tien chua duoc ky quy (hoac da bi huy) de huy\");\r\n\r\n        // Request CTM to refund the escrowed amount back to treasury (effectively cancelling the escrow)\r\n        bool refundSuccess = companyTreasuryManager.refundEscrowToTreasury(\r\n            currentOrder.warehouseAddress,\r\n            currentOrder.internalSupplierOrderId,\r\n            currentOrder.totalAmount\r\n        );\r\n        require(refundSuccess, \"WSOM: Hoan tra tien ky quy ve CTM that bai, viec huy bi hoan tac\");\r\n\r\n        currentOrder.status = _newStatus;\r\n        currentOrder.fundsEscrowed = false; // Mark funds as no longer escrowed for this order\r\n        currentOrder.lastUpdateTimestamp = block.timestamp;\r\n\r\n        // Specific event will be emitted by the calling public cancel function\r\n        emit WSOrderStatusUpdated(_wsOrderId, currentOrder.status, block.timestamp);\r\n    }\r\n\r\n    function cancelOrderByWarehouse(uint256 _wsOrderId, string calldata _reason)\r\n        external\r\n        onlyOrderWarehouseManager(_wsOrderId)\r\n        nonReentrant\r\n    {\r\n        _internalCancelOrder(_wsOrderId, WSOrderStatus.CancelledByWarehouse, msg.sender);\r\n        emit WSOrderCancelledByWarehouse(_wsOrderId, msg.sender, _reason);\r\n    }\r\n\r\n    function cancelOrderBySupplier(uint256 _wsOrderId, string calldata _reason)\r\n        external\r\n        onlyOrderSupplier(_wsOrderId)\r\n        nonReentrant\r\n    {\r\n        _internalCancelOrder(_wsOrderId, WSOrderStatus.CancelledBySupplier, msg.sender);\r\n        emit WSOrderCancelledBySupplier(_wsOrderId, msg.sender, _reason);\r\n    }\r\n\r\n    // --- VIEW FUNCTIONS ---\r\n    function getWSOrderDetails(uint256 _wsOrderId) external view returns (WSOrder memory) {\r\n        require(wsOrders[_wsOrderId].wsOrderId != 0, \"WSOM: Don hang khong tim thay\");\r\n        return wsOrders[_wsOrderId];\r\n    }\r\n\r\n    function getWarehouseSentOrders(address _warehouseAddress) external view returns (uint256[] memory) {\r\n        return warehouseSentOrderIds[_warehouseAddress];\r\n    }\r\n\r\n    function getSupplierReceivedOrders(address _supplierAddress) external view returns (uint256[] memory) {\r\n        return supplierReceivedOrderIds[_supplierAddress];\r\n    }\r\n}",
  "sourcePath": "D:\\nhi\\Logtech\\New tech in Log\\dapp2\\SC\\contracts\\WarehouseSupplierOrderManagement.sol",
  "compiler": {
    "name": "solc",
    "version": "0.8.4+commit.c7e474f2.Emscripten.clang"
  },
  "schemaVersion": "3.4.16",
  "updatedAt": "2025-06-02T14:38:40.346Z",
  "devdoc": {
    "kind": "dev",
    "methods": {
      "owner()": {
        "details": "Returns the address of the current owner."
      },
      "renounceOwnership()": {
        "details": "Leaves the contract without owner. It will not be possible to call `onlyOwner` functions anymore. Can only be called by the current owner. NOTE: Renouncing ownership will leave the contract without an owner, thereby removing any functionality that is only available to the owner."
      },
      "transferOwnership(address)": {
        "details": "Transfers ownership of the contract to a new account (`newOwner`). Can only be called by the current owner."
      }
    },
    "version": 1
  },
  "userdoc": {
    "kind": "user",
    "methods": {},
    "version": 1
  }
}