{
  "contractName": "WarehouseInventoryManagement",
  "abi": [
    {
      "inputs": [
        {
          "internalType": "address",
          "name": "_roleManagementAddress",
          "type": "address"
        },
        {
          "internalType": "address",
          "name": "_itemsManagementCoreAddress",
          "type": "address"
        }
      ],
      "stateMutability": "nonpayable",
      "type": "constructor"
    },
    {
      "anonymous": false,
      "inputs": [
        {
          "indexed": true,
          "internalType": "address",
          "name": "comAddress",
          "type": "address"
        }
      ],
      "name": "CustomerOrderManagementAddressSet",
      "type": "event"
    },
    {
      "anonymous": false,
      "inputs": [
        {
          "indexed": true,
          "internalType": "address",
          "name": "returnToWarehouseAddress",
          "type": "address"
        },
        {
          "indexed": false,
          "internalType": "string",
          "name": "itemId",
          "type": "string"
        },
        {
          "indexed": false,
          "internalType": "uint256",
          "name": "quantityReturned",
          "type": "uint256"
        },
        {
          "indexed": true,
          "internalType": "uint256",
          "name": "customerOrderId",
          "type": "uint256"
        }
      ],
      "name": "CustomerStockReturnedRecordedToWarehouse",
      "type": "event"
    },
    {
      "anonymous": false,
      "inputs": [
        {
          "indexed": true,
          "internalType": "address",
          "name": "previousOwner",
          "type": "address"
        },
        {
          "indexed": true,
          "internalType": "address",
          "name": "newOwner",
          "type": "address"
        }
      ],
      "name": "OwnershipTransferred",
      "type": "event"
    },
    {
      "anonymous": false,
      "inputs": [
        {
          "indexed": true,
          "internalType": "address",
          "name": "warehouseAddress",
          "type": "address"
        },
        {
          "indexed": true,
          "internalType": "string",
          "name": "itemId",
          "type": "string"
        },
        {
          "indexed": false,
          "internalType": "uint256",
          "name": "quantityProcessed",
          "type": "uint256"
        },
        {
          "indexed": false,
          "internalType": "bool",
          "name": "addedToMainStock",
          "type": "bool"
        },
        {
          "indexed": true,
          "internalType": "address",
          "name": "byAdminOrManager",
          "type": "address"
        }
      ],
      "name": "ProcessedReturnedCustomerStockAtWarehouse",
      "type": "event"
    },
    {
      "anonymous": false,
      "inputs": [
        {
          "indexed": true,
          "internalType": "address",
          "name": "warehouseAddress",
          "type": "address"
        },
        {
          "indexed": true,
          "internalType": "string",
          "name": "itemId",
          "type": "string"
        },
        {
          "indexed": false,
          "internalType": "int256",
          "name": "quantityChange",
          "type": "int256"
        },
        {
          "indexed": false,
          "internalType": "string",
          "name": "reason",
          "type": "string"
        },
        {
          "indexed": true,
          "internalType": "address",
          "name": "byAdminOrManager",
          "type": "address"
        }
      ],
      "name": "StockAdjusted",
      "type": "event"
    },
    {
      "anonymous": false,
      "inputs": [
        {
          "indexed": true,
          "internalType": "address",
          "name": "warehouseAddress",
          "type": "address"
        },
        {
          "indexed": false,
          "internalType": "string",
          "name": "itemId",
          "type": "string"
        },
        {
          "indexed": false,
          "internalType": "uint256",
          "name": "quantityAdded",
          "type": "uint256"
        },
        {
          "indexed": true,
          "internalType": "uint256",
          "name": "wsOrderId",
          "type": "uint256"
        },
        {
          "indexed": true,
          "internalType": "address",
          "name": "byWsom",
          "type": "address"
        }
      ],
      "name": "StockInFromSupplierRecorded",
      "type": "event"
    },
    {
      "anonymous": false,
      "inputs": [
        {
          "indexed": true,
          "internalType": "address",
          "name": "fromWarehouseAddress",
          "type": "address"
        },
        {
          "indexed": true,
          "internalType": "address",
          "name": "toStoreAddress",
          "type": "address"
        },
        {
          "indexed": false,
          "internalType": "string",
          "name": "itemId",
          "type": "string"
        },
        {
          "indexed": false,
          "internalType": "uint256",
          "name": "quantity",
          "type": "uint256"
        },
        {
          "indexed": true,
          "internalType": "uint256",
          "name": "internalTransferId",
          "type": "uint256"
        },
        {
          "indexed": false,
          "internalType": "address",
          "name": "byWarehouseManager",
          "type": "address"
        }
      ],
      "name": "StockTransferredToStore",
      "type": "event"
    },
    {
      "anonymous": false,
      "inputs": [
        {
          "indexed": true,
          "internalType": "address",
          "name": "simAddress",
          "type": "address"
        }
      ],
      "name": "StoreInventoryManagementAddressSet",
      "type": "event"
    },
    {
      "anonymous": false,
      "inputs": [
        {
          "indexed": true,
          "internalType": "address",
          "name": "wsomAddress",
          "type": "address"
        }
      ],
      "name": "WarehouseSupplierOrderManagementAddressSet",
      "type": "event"
    },
    {
      "inputs": [],
      "name": "customerOrderManagementAddress",
      "outputs": [
        {
          "internalType": "address",
          "name": "",
          "type": "address"
        }
      ],
      "stateMutability": "view",
      "type": "function",
      "constant": true
    },
    {
      "inputs": [],
      "name": "itemsManagementCore",
      "outputs": [
        {
          "internalType": "contract IItemsManagementCoreInterface",
          "name": "",
          "type": "address"
        }
      ],
      "stateMutability": "view",
      "type": "function",
      "constant": true
    },
    {
      "inputs": [],
      "name": "nextInternalTransferId",
      "outputs": [
        {
          "internalType": "uint256",
          "name": "",
          "type": "uint256"
        }
      ],
      "stateMutability": "view",
      "type": "function",
      "constant": true
    },
    {
      "inputs": [],
      "name": "owner",
      "outputs": [
        {
          "internalType": "address",
          "name": "",
          "type": "address"
        }
      ],
      "stateMutability": "view",
      "type": "function",
      "constant": true
    },
    {
      "inputs": [],
      "name": "renounceOwnership",
      "outputs": [],
      "stateMutability": "nonpayable",
      "type": "function"
    },
    {
      "inputs": [
        {
          "internalType": "address",
          "name": "",
          "type": "address"
        },
        {
          "internalType": "string",
          "name": "",
          "type": "string"
        }
      ],
      "name": "returnedStockByCustomer",
      "outputs": [
        {
          "internalType": "uint256",
          "name": "",
          "type": "uint256"
        }
      ],
      "stateMutability": "view",
      "type": "function",
      "constant": true
    },
    {
      "inputs": [],
      "name": "roleManagementExternal",
      "outputs": [
        {
          "internalType": "contract IRoleManagementInterface",
          "name": "",
          "type": "address"
        }
      ],
      "stateMutability": "view",
      "type": "function",
      "constant": true
    },
    {
      "inputs": [
        {
          "internalType": "address",
          "name": "",
          "type": "address"
        },
        {
          "internalType": "string",
          "name": "",
          "type": "string"
        }
      ],
      "name": "stockLevels",
      "outputs": [
        {
          "internalType": "uint256",
          "name": "",
          "type": "uint256"
        }
      ],
      "stateMutability": "view",
      "type": "function",
      "constant": true
    },
    {
      "inputs": [],
      "name": "storeInventoryManagementExternal",
      "outputs": [
        {
          "internalType": "contract IStoreInventoryManagementInterface",
          "name": "",
          "type": "address"
        }
      ],
      "stateMutability": "view",
      "type": "function",
      "constant": true
    },
    {
      "inputs": [
        {
          "internalType": "address",
          "name": "newOwner",
          "type": "address"
        }
      ],
      "name": "transferOwnership",
      "outputs": [],
      "stateMutability": "nonpayable",
      "type": "function"
    },
    {
      "inputs": [],
      "name": "warehouseSupplierOrderManagementAddress",
      "outputs": [
        {
          "internalType": "address",
          "name": "",
          "type": "address"
        }
      ],
      "stateMutability": "view",
      "type": "function",
      "constant": true
    },
    {
      "inputs": [
        {
          "internalType": "address",
          "name": "_simAddress",
          "type": "address"
        }
      ],
      "name": "setStoreInventoryManagementAddress",
      "outputs": [],
      "stateMutability": "nonpayable",
      "type": "function"
    },
    {
      "inputs": [
        {
          "internalType": "address",
          "name": "_wsomAddress",
          "type": "address"
        }
      ],
      "name": "setWarehouseSupplierOrderManagementAddress",
      "outputs": [],
      "stateMutability": "nonpayable",
      "type": "function"
    },
    {
      "inputs": [
        {
          "internalType": "address",
          "name": "_comAddress",
          "type": "address"
        }
      ],
      "name": "setCustomerOrderManagementAddress",
      "outputs": [],
      "stateMutability": "nonpayable",
      "type": "function"
    },
    {
      "inputs": [
        {
          "internalType": "address",
          "name": "_warehouseAddress",
          "type": "address"
        },
        {
          "internalType": "string",
          "name": "_itemId",
          "type": "string"
        },
        {
          "internalType": "uint256",
          "name": "_quantity",
          "type": "uint256"
        },
        {
          "internalType": "uint256",
          "name": "_wsOrderId",
          "type": "uint256"
        }
      ],
      "name": "recordStockInFromSupplier",
      "outputs": [],
      "stateMutability": "nonpayable",
      "type": "function"
    },
    {
      "inputs": [
        {
          "internalType": "address",
          "name": "_requestingStoreManager",
          "type": "address"
        },
        {
          "internalType": "address",
          "name": "_storeAddress",
          "type": "address"
        },
        {
          "internalType": "address",
          "name": "_warehouseAddress",
          "type": "address"
        },
        {
          "internalType": "string",
          "name": "_itemId",
          "type": "string"
        },
        {
          "internalType": "uint256",
          "name": "_quantity",
          "type": "uint256"
        }
      ],
      "name": "requestStockTransferToStore",
      "outputs": [
        {
          "internalType": "uint256",
          "name": "internalTransferId",
          "type": "uint256"
        }
      ],
      "stateMutability": "nonpayable",
      "type": "function"
    },
    {
      "inputs": [
        {
          "internalType": "address",
          "name": "_returnToWarehouseAddress",
          "type": "address"
        },
        {
          "internalType": "string",
          "name": "_itemId",
          "type": "string"
        },
        {
          "internalType": "uint256",
          "name": "_quantity",
          "type": "uint256"
        },
        {
          "internalType": "uint256",
          "name": "_customerOrderId",
          "type": "uint256"
        }
      ],
      "name": "recordReturnedStockByCustomer",
      "outputs": [],
      "stateMutability": "nonpayable",
      "type": "function"
    },
    {
      "inputs": [
        {
          "internalType": "address",
          "name": "_warehouseAddress",
          "type": "address"
        },
        {
          "internalType": "string",
          "name": "_itemId",
          "type": "string"
        },
        {
          "internalType": "int256",
          "name": "_quantityChange",
          "type": "int256"
        },
        {
          "internalType": "string",
          "name": "_reason",
          "type": "string"
        }
      ],
      "name": "adjustStockManually",
      "outputs": [],
      "stateMutability": "nonpayable",
      "type": "function"
    },
    {
      "inputs": [
        {
          "internalType": "address",
          "name": "_warehouseAddress",
          "type": "address"
        },
        {
          "internalType": "string",
          "name": "_itemId",
          "type": "string"
        },
        {
          "internalType": "uint256",
          "name": "_quantityToProcess",
          "type": "uint256"
        },
        {
          "internalType": "bool",
          "name": "_addToMainStock",
          "type": "bool"
        }
      ],
      "name": "processCustomerReturnedStock",
      "outputs": [],
      "stateMutability": "nonpayable",
      "type": "function"
    },
    {
      "inputs": [
        {
          "internalType": "address",
          "name": "_warehouseAddress",
          "type": "address"
        },
        {
          "internalType": "string",
          "name": "_itemId",
          "type": "string"
        }
      ],
      "name": "getWarehouseStockLevel",
      "outputs": [
        {
          "internalType": "uint256",
          "name": "",
          "type": "uint256"
        }
      ],
      "stateMutability": "view",
      "type": "function",
      "constant": true
    },
    {
      "inputs": [
        {
          "internalType": "address",
          "name": "_warehouseAddress",
          "type": "address"
        },
        {
          "internalType": "string",
          "name": "_itemId",
          "type": "string"
        }
      ],
      "name": "getCustomerReturnedStockLevelAtWarehouse",
      "outputs": [
        {
          "internalType": "uint256",
          "name": "",
          "type": "uint256"
        }
      ],
      "stateMutability": "view",
      "type": "function",
      "constant": true
    }
  ],
  "bytecode": "0x608060405260016008553480156200001657600080fd5b506040516200209738038062002097833981016040819052620000399162000196565b600080546001600160a01b031916339081178255604051909182917f8be0079c531659141344cd1fd0a4f28419497f9722a3daafe3b4186f6b6457e0908290a3506001600160a01b038216620000d65760405162461bcd60e51b815260206004820152601c60248201527f57494d3a204469612063686920524d206b686f6e6720686f70206c650000000060448201526064015b60405180910390fd5b600180546001600160a01b0319166001600160a01b03848116919091179091558116620001525760405162461bcd60e51b8152602060048201526024808201527f57494d3a2044696120636869204974656d734d436f7265206b686f6e6720686f60448201526370206c6560e01b6064820152608401620000cd565b600280546001600160a01b0319166001600160a01b039290921691909117905550620001cd565b80516001600160a01b03811681146200019157600080fd5b919050565b60008060408385031215620001a9578182fd5b620001b48362000179565b9150620001c46020840162000179565b90509250929050565b611eba80620001dd6000396000f3fe608060405234801561001057600080fd5b50600436106101075760003560e01c80630d4692831461010c5780631f8b929d1461013257806325a5e9b2146101455780632eb3292f1461015a57806346ba85fe1461017a5780635db41c3e1461018d578063626f94d6146101c95780636718b05b146101dc578063715018a6146101ef5780638befa103146101f75780638da5cb5b1461020a578063963ca3ce146102125780639e70350f1461024e578063be77f07214610261578063c3a087cd14610274578063c94c54a114610287578063cc11ff7f1461029a578063e53e0825146102ad578063e6a21943146102b6578063f2fde38b146102c9578063feedc7d3146102dc575b600080fd5b61011f61011a366004611859565b6102ef565b6040519081526020015b60405180910390f35b61011f6101403660046117d8565b610361565b6101586101533660046119a4565b6106ec565b005b60025461016d906001600160a01b031681565b6040516101299190611bdc565b61011f610188366004611859565b6108ba565b61011f61019b366004611a08565b6006602090815260009283526040909220815180830184018051928152908401929093019190912091525481565b6101586101d73660046117b5565b61090b565b60055461016d906001600160a01b031681565b6101586109da565b610158610205366004611933565b610a41565b61016d610e7a565b61011f610220366004611a08565b6007602090815260009283526040909220815180830184018051928152908401929093019190912091525481565b61015861025c3660046117b5565b610e89565b61015861026f3660046119a4565b610f58565b6101586102823660046118ab565b6110df565b60045461016d906001600160a01b031681565b60035461016d906001600160a01b031681565b61011f60085481565b60015461016d906001600160a01b031681565b6101586102d73660046117b5565b611538565b6101586102ea3660046117b5565b611615565b60006001600160a01b0384166103205760405162461bcd60e51b815260040161031790611cf8565b60405180910390fd5b6001600160a01b0384166000908152600660205260409081902090516103499085908590611bcc565b90815260200160405180910390205490509392505050565b6003546000906001600160a01b031633146103be5760405162461bcd60e51b815260206004820152601d60248201527f57494d3a204e67756f6920676f69206b686f6e6720706861692053494d0000006044820152606401610317565b6001600160a01b03861661041f5760405162461bcd60e51b815260206004820152602260248201527f57494d3a2044696120636869206375612068616e67206b686f6e6720686f70206044820152616c6560f01b6064820152608401610317565b6001600160a01b0385166104815760405162461bcd60e51b815260206004820152602360248201527f57494d3a2044696120636869206b686f206e67756f6e206b686f6e6720686f70604482015262206c6560e81b6064820152608401610317565b600082116104df5760405162461bcd60e51b815260206004820152602560248201527f57494d3a20536f206c756f6e672063687579656e2070686169206c6120736f2060448201526464756f6e6760d81b6064820152608401610317565b6003546001600160a01b03166105435760405162461bcd60e51b8152602060048201526024808201527f57494d3a20446961206368692053494d20636875612064756f632074686965746044820152630206c61760e41b6064820152608401610317565b6001600160a01b038516600090815260066020526040808220905161056b9087908790611bcc565b9081526020016040518091039020549050828110156105cb5760405162461bcd60e51b815260206004820152601c60248201527b57494d3a204b686f6e672064752068616e672074726f6e67206b686f60201b6044820152606401610317565b6105d58382611dc6565b6001600160a01b0387166000908152600660205260409081902090516105fe9088908890611bcc565b908152604051908190036020019020556008805490600061061e83611ddd565b90915550600354604051634d600ef360e11b81529193506001600160a01b031690639ac01de69061065d908a908990899089908d908a90600401611bf0565b600060405180830381600087803b15801561067757600080fd5b505af115801561068b573d6000803e3d6000fd5b5050505081876001600160a01b0316876001600160a01b03167f0e354fafb6caea45f9580177206df876eec0c1bba922f3e62cb5b0758083a04f8888888e6040516106d99493929190611c8e565b60405180910390a4509695505050505050565b6005546001600160a01b0316331461075a5760405162461bcd60e51b815260206004820152602b60248201527f57494d3a204e67756f6920676f69206b686f6e67207068616920434f4d20647560448201526a37b1903abc9038babcb2b760a91b6064820152608401610317565b6001600160a01b0385166107bf5760405162461bcd60e51b815260206004820152602660248201527f57494d3a2044696120636869206b686f207472612068616e67206b686f6e6720604482015265686f70206c6560d01b6064820152608401610317565b6000821161081d5760405162461bcd60e51b815260206004820152602560248201527f57494d3a20536f206c756f6e67207472612076652070686169206c6120736f2060448201526464756f6e6760d81b6064820152608401610317565b6001600160a01b0385166000908152600760205260409081902090518391906108499087908790611bcc565b908152602001604051809103902060008282546108669190611dae565b9250508190555080856001600160a01b03167f969e3aadc8dda52eb973b507ec1a260c78c514cf3c5a201734449a73a36a7dfc8686866040516108ab93929190611c6a565b60405180910390a35050505050565b60006001600160a01b0384166108e25760405162461bcd60e51b815260040161031790611cf8565b6001600160a01b0384166000908152600760205260409081902090516103499085908590611bcc565b33610914610e7a565b6001600160a01b03161461093a5760405162461bcd60e51b815260040161031790611cc3565b6001600160a01b0381166109905760405162461bcd60e51b815260206004820152601d60248201527f57494d3a204469612063686920434f4d206b686f6e6720686f70206c650000006044820152606401610317565b600580546001600160a01b0319166001600160a01b0383169081179091556040517ff60a7d245ccf77dd2036da1a1ad14a8c5dba1a9ccc98b56d0ad004b140c9472390600090a250565b336109e3610e7a565b6001600160a01b031614610a095760405162461bcd60e51b815260040161031790611cc3565b600080546040516001600160a01b0390911690600080516020611e65833981519152908390a3600080546001600160a01b0319169055565b6000610a4b610e7a565b6001600160a01b0316336001600160a01b0316149050600081610c1f57600254604051637160572b60e01b81526000916001600160a01b031690637160572b90610a99908b90600401611bdc565b60006040518083038186803b158015610ab157600080fd5b505afa158015610ac5573d6000803e3d6000fd5b505050506040513d6000823e601f3d908101601f19168201604052610aed9190810190611ac3565b905080608001518015610b0c575060608101516001600160a01b031633145b15610c1d5760015460408051633128702b60e11b815290516000926001600160a01b031691636250e056916004808301926020929190829003018186803b158015610b5657600080fd5b505afa158015610b6a573d6000803e3d6000fd5b505050506040513d601f19601f82011682018060405250810190610b8e9190611aab565b600154604051632474521560e21b81529192506001600160a01b0316906391d1485490610bc19084903390600401611c30565b60206040518083038186803b158015610bd957600080fd5b505afa158015610bed573d6000803e3d6000fd5b505050506040513d601f19601f82011682018060405250810190610c119190611a8f565b15610c1b57600192505b505b505b8180610c285750805b610c8a5760405162461bcd60e51b815260206004820152602d60248201527f57494d3a204b686f6e6720636f20717579656e207875206c792068616e67207460448201526c7261207665206b686f206e617960981b6064820152608401610317565b60008411610ce65760405162461bcd60e51b8152602060048201526024808201527f57494d3a20536f206c756f6e67207875206c792070686169206c6120736f2064604482015263756f6e6760e01b6064820152608401610317565b6001600160a01b0387166000908152600760205260408082209051610d0e9089908990611bcc565b908152602001604051809103902054905084811015610d7a5760405162461bcd60e51b815260206004820152602260248201527f57494d3a204b686f6e672064752068616e6720747261207665206465207875206044820152616c7960f01b6064820152608401610317565b610d848582611dc6565b6001600160a01b038916600090815260076020526040908190209051610dad908a908a90611bcc565b908152604051908190036020019020558315610e12576001600160a01b038816600090815260066020526040908190209051869190610def908a908a90611bcc565b90815260200160405180910390206000828254610e0c9190611dae565b90915550505b6040513390610e249089908990611bcc565b604080519182900382208883528715156020840152916001600160a01b038c16917f9fea66fc1ff8ab38fd935833ea9542ea08ec8fb497fd16099054e475c131aaff910160405180910390a45050505050505050565b6000546001600160a01b031690565b33610e92610e7a565b6001600160a01b031614610eb85760405162461bcd60e51b815260040161031790611cc3565b6001600160a01b038116610f0e5760405162461bcd60e51b815260206004820152601e60248201527f57494d3a20446961206368692057534f4d206b686f6e6720686f70206c6500006044820152606401610317565b600480546001600160a01b0319166001600160a01b0383169081179091556040517fcb36ba9fb6b00797b047f7ee0bd8a7a2e9035de6fdcb2cd93c50aaa91d2c1bbc90600090a250565b6004546001600160a01b03163314610fb25760405162461bcd60e51b815260206004820152601e60248201527f57494d3a204e67756f6920676f69206b686f6e6720706861692057534f4d00006044820152606401610317565b6001600160a01b038516610fd85760405162461bcd60e51b815260040161031790611cf8565b600082116110385760405162461bcd60e51b815260206004820152602760248201527f57494d3a20536f206c756f6e67207468656d2076616f2070686169206c6120736044820152666f2064756f6e6760c81b6064820152608401610317565b6001600160a01b0385166000908152600660205260409081902090518391906110649087908790611bcc565b908152602001604051809103902060008282546110819190611dae565b92505081905550336001600160a01b031681866001600160a01b03167f1e4ff52ce816e4259be08bbb6549aded6b88a1e9cfb191029752f4592b0e17718787876040516110d093929190611c6a565b60405180910390a45050505050565b60006110e9610e7a565b6001600160a01b0316336001600160a01b03161490506000816112bd57600254604051637160572b60e01b81526000916001600160a01b031690637160572b90611137908c90600401611bdc565b60006040518083038186803b15801561114f57600080fd5b505afa158015611163573d6000803e3d6000fd5b505050506040513d6000823e601f3d908101601f1916820160405261118b9190810190611ac3565b9050806080015180156111aa575060608101516001600160a01b031633145b156112bb5760015460408051633128702b60e11b815290516000926001600160a01b031691636250e056916004808301926020929190829003018186803b1580156111f457600080fd5b505afa158015611208573d6000803e3d6000fd5b505050506040513d601f19601f8201168201806040525081019061122c9190611aab565b600154604051632474521560e21b81529192506001600160a01b0316906391d148549061125f9084903390600401611c30565b60206040518083038186803b15801561127757600080fd5b505afa15801561128b573d6000803e3d6000fd5b505050506040513d601f19601f820116820180604052508101906112af9190611a8f565b156112b957600192505b505b505b81806112c65750805b6113255760405162461bcd60e51b815260206004820152602a60248201527f57494d3a204b686f6e6720636f20717579656e2064696575206368696e6820746044820152696f6e206b686f206e617960b01b6064820152608401610317565b6001600160a01b038816600090815260066020526040808220905161134d908a908a90611bcc565b908152602001604051809103902054905060008613156113af576113718682611dae565b6001600160a01b038a1660009081526006602052604090819020905161139a908b908b90611bcc565b908152604051908190036020019020556114ce565b60008612156114725760006113c387611df8565b9050808210156114295760405162461bcd60e51b815260206004820152602b60248201527f57494d3a2044696575206368696e682074687520636f6e672064616e2064656e60448201526a20746f6e206b686f20616d60a81b6064820152608401610317565b6114338183611dc6565b6001600160a01b038b1660009081526006602052604090819020905161145c908c908c90611bcc565b90815260405190819003602001902055506114ce565b60405162461bcd60e51b815260206004820152602b60248201527f57494d3a205468617920646f6920736f206c756f6e67206b686f6e672074686560448201526a2062616e67206b686f6e6760a81b6064820152608401610317565b60405133906114e0908a908a90611bcc565b60405180910390208a6001600160a01b03167f174bc369afea7ab6cbcd1994bd3075bbd3c07fd2b527578e0d996fdad901f49489898960405161152593929190611c47565b60405180910390a4505050505050505050565b33611541610e7a565b6001600160a01b0316146115675760405162461bcd60e51b815260040161031790611cc3565b6001600160a01b0381166115cc5760405162461bcd60e51b815260206004820152602660248201527f4f776e61626c653a206e6577206f776e657220697320746865207a65726f206160448201526564647265737360d01b6064820152608401610317565b600080546040516001600160a01b0380851693921691600080516020611e6583398151915291a3600080546001600160a01b0319166001600160a01b0392909216919091179055565b3361161e610e7a565b6001600160a01b0316146116445760405162461bcd60e51b815260040161031790611cc3565b6001600160a01b03811661169a5760405162461bcd60e51b815260206004820152601d60248201527f57494d3a20446961206368692053494d206b686f6e6720686f70206c650000006044820152606401610317565b600380546001600160a01b0319166001600160a01b0383169081179091556040517fb875684c9dfb17eb2f1c703cb1df8211b9cdee7ccde9c141ba5a4395d71a1a0490600090a250565b80516116ef81611e3e565b919050565b80516116ef81611e56565b60008083601f840112611710578182fd5b5081356001600160401b03811115611726578182fd5b60208301915083602082850101111561173e57600080fd5b9250929050565b600082601f830112611755578081fd5b815161176861176382611d87565b611d57565b8181526020858184870101111561177d578384fd5b835b8381101561179a57858101820151838201830152810161177f565b838111156117aa57848285850101525b509095945050505050565b6000602082840312156117c6578081fd5b81356117d181611e3e565b9392505050565b60008060008060008060a087890312156117f0578182fd5b86356117fb81611e3e565b9550602087013561180b81611e3e565b9450604087013561181b81611e3e565b935060608701356001600160401b03811115611835578283fd5b61184189828a016116ff565b979a9699509497949695608090950135949350505050565b60008060006040848603121561186d578283fd5b833561187881611e3e565b925060208401356001600160401b03811115611892578283fd5b61189e868287016116ff565b9497909650939450505050565b600080600080600080608087890312156118c3578182fd5b86356118ce81611e3e565b955060208701356001600160401b03808211156118e9578384fd5b6118f58a838b016116ff565b9097509550604089013594506060890135915080821115611914578384fd5b5061192189828a016116ff565b979a9699509497509295939492505050565b60008060008060006080868803121561194a578081fd5b853561195581611e3e565b945060208601356001600160401b0381111561196f578182fd5b61197b888289016116ff565b90955093505060408601359150606086013561199681611e56565b809150509295509295909350565b6000806000806000608086880312156119bb578081fd5b85356119c681611e3e565b945060208601356001600160401b038111156119e0578182fd5b6119ec888289016116ff565b9699909850959660408101359660609091013595509350505050565b60008060408385031215611a1a578182fd5b8235611a2581611e3e565b915060208301356001600160401b03811115611a3f578182fd5b8301601f81018513611a4f578182fd5b8035611a5d61176382611d87565b818152866020838501011115611a71578384fd5b81602084016020830137908101602001929092525090939092509050565b600060208284031215611aa0578081fd5b81516117d181611e56565b600060208284031215611abc578081fd5b5051919050565b600060208284031215611ad4578081fd5b81516001600160401b0380821115611aea578283fd5b9083019060e08286031215611afd578283fd5b611b05611d2f565b611b0e836116e4565b8152602083015182811115611b21578485fd5b611b2d87828601611745565b602083015250604083015182811115611b44578485fd5b611b5087828601611745565b604083015250611b62606084016116e4565b6060820152611b73608084016116f4565b6080820152611b8460a084016116f4565b60a0820152611b9560c084016116e4565b60c082015295945050505050565b81835281816020850137506000828201602090810191909152601f909101601f19169091010190565b8183823760009101908152919050565b6001600160a01b0391909116815260200190565b600060018060a01b03808916835260a06020840152611c1360a08401888a611ba3565b604084019690965293909316606082015260800152509392505050565b9182526001600160a01b0316602082015260400190565b838152604060208201526000611c61604083018486611ba3565b95945050505050565b604081526000611c7e604083018587611ba3565b9050826020830152949350505050565b606081526000611ca2606083018688611ba3565b6020830194909452506001600160a01b039190911660409091015292915050565b6020808252818101527f4f776e61626c653a2063616c6c6572206973206e6f7420746865206f776e6572604082015260600190565b6020808252601d908201527f57494d3a2044696120636869206b686f206b686f6e6720686f70206c65000000604082015260600190565b60405160e081016001600160401b0381118282101715611d5157611d51611e28565b60405290565b604051601f8201601f191681016001600160401b0381118282101715611d7f57611d7f611e28565b604052919050565b60006001600160401b03821115611da057611da0611e28565b50601f01601f191660200190565b60008219821115611dc157611dc1611e12565b500190565b600082821015611dd857611dd8611e12565b500390565b6000600019821415611df157611df1611e12565b5060010190565b6000600160ff1b821415611e0e57611e0e611e12565b0390565b634e487b7160e01b600052601160045260246000fd5b634e487b7160e01b600052604160045260246000fd5b6001600160a01b0381168114611e5357600080fd5b50565b8015158114611e5357600080fdfe8be0079c531659141344cd1fd0a4f28419497f9722a3daafe3b4186f6b6457e0a2646970667358221220a30efb715582fa259e3510e64c6207ebaec12ec4980e5f3ff9b42b18dcb9589964736f6c63430008040033",
  "immutableReferences": {},
  "source": "// SPDX-License-Identifier: MIT\r\npragma solidity ^0.8.4;\r\n\r\nimport \"@openzeppelin/contracts/access/Ownable.sol\";\r\nimport \"./Interfaces.sol\";      // Import file Interfaces.sol tp trung\r\n// KHNG CN: import \"./ItemsManagement.sol\";\r\n\r\n// Hp ng Qun l Tn kho Chnh (Kho trung tm)\r\ncontract WarehouseInventoryManagement is Ownable {\r\n    // S dng cc interface t Interfaces.sol\r\n    IRoleManagementInterface public roleManagementExternal;\r\n    // THAY I:\r\n    IItemsManagementCoreInterface public itemsManagementCore;\r\n    IStoreInventoryManagementInterface public storeInventoryManagementExternal;\r\n\r\n    address public warehouseSupplierOrderManagementAddress;\r\n    address public customerOrderManagementAddress;\r\n\r\n    mapping(address => mapping(string => uint256)) public stockLevels;\r\n    mapping(address => mapping(string => uint256)) public returnedStockByCustomer;\r\n    uint256 public nextInternalTransferId = 1;\r\n\r\n    // --- EVENTS ---\r\n    event StockInFromSupplierRecorded(address indexed warehouseAddress, string itemId, uint256 quantityAdded, uint256 indexed wsOrderId, address indexed byWsom);\r\n    event StockTransferredToStore(address indexed fromWarehouseAddress, address indexed toStoreAddress, string itemId, uint256 quantity, uint256 indexed internalTransferId, address byWarehouseManager);\r\n    event CustomerStockReturnedRecordedToWarehouse(address indexed returnToWarehouseAddress, string itemId, uint256 quantityReturned, uint256 indexed customerOrderId);\r\n    event StockAdjusted(address indexed warehouseAddress, string indexed itemId, int256 quantityChange, string reason, address indexed byAdminOrManager);\r\n    event ProcessedReturnedCustomerStockAtWarehouse(address indexed warehouseAddress, string indexed itemId, uint256 quantityProcessed, bool addedToMainStock, address indexed byAdminOrManager);\r\n    event StoreInventoryManagementAddressSet(address indexed simAddress);\r\n    event WarehouseSupplierOrderManagementAddressSet(address indexed wsomAddress);\r\n    event CustomerOrderManagementAddressSet(address indexed comAddress);\r\n\r\n    // --- CONSTRUCTOR ---\r\n    constructor(\r\n        address _roleManagementAddress,\r\n        // THAY I:\r\n        address _itemsManagementCoreAddress\r\n    ) Ownable() {\r\n        require(_roleManagementAddress != address(0), \"WIM: Dia chi RM khong hop le\");\r\n        roleManagementExternal = IRoleManagementInterface(_roleManagementAddress);\r\n\r\n        // THAY I:\r\n        require(_itemsManagementCoreAddress != address(0), \"WIM: Dia chi ItemsMCore khong hop le\");\r\n        itemsManagementCore = IItemsManagementCoreInterface(_itemsManagementCoreAddress);\r\n    }\r\n\r\n    modifier onlyWarehouseManager(address _warehouseAddress) {\r\n        require(_warehouseAddress != address(0), \"WIM: Dia chi kho khong hop le\");\r\n        // THAY I:\r\n        PhysicalLocationInfo memory whInfo = itemsManagementCore.getWarehouseInfo(_warehouseAddress);\r\n        require(whInfo.exists, \"WIM: Kho chua duoc dang ky trong ItemsMCore\");\r\n        require(whInfo.manager == msg.sender, \"WIM: Nguoi goi khong phai quan ly kho nay\");\r\n        bytes32 wmRole = roleManagementExternal.WAREHOUSE_MANAGER_ROLE();\r\n        require(roleManagementExternal.hasRole(wmRole, msg.sender), \"WIM: Nguoi goi thieu vai tro QUAN_LY_KHO\");\r\n        _;\r\n    }\r\n\r\n    function setStoreInventoryManagementAddress(address _simAddress) external onlyOwner {\r\n        require(_simAddress != address(0), \"WIM: Dia chi SIM khong hop le\");\r\n        storeInventoryManagementExternal = IStoreInventoryManagementInterface(_simAddress);\r\n        emit StoreInventoryManagementAddressSet(_simAddress);\r\n    }\r\n\r\n    function setWarehouseSupplierOrderManagementAddress(address _wsomAddress) external onlyOwner {\r\n        require(_wsomAddress != address(0), \"WIM: Dia chi WSOM khong hop le\");\r\n        warehouseSupplierOrderManagementAddress = _wsomAddress;\r\n        emit WarehouseSupplierOrderManagementAddressSet(_wsomAddress);\r\n    }\r\n\r\n    function setCustomerOrderManagementAddress(address _comAddress) external onlyOwner {\r\n        require(_comAddress != address(0), \"WIM: Dia chi COM khong hop le\");\r\n        customerOrderManagementAddress = _comAddress;\r\n        emit CustomerOrderManagementAddressSet(_comAddress);\r\n    }\r\n\r\n    function recordStockInFromSupplier(\r\n        address _warehouseAddress,\r\n        string calldata _itemId,\r\n        uint256 _quantity,\r\n        uint256 _wsOrderId\r\n    ) external {\r\n        require(msg.sender == warehouseSupplierOrderManagementAddress, \"WIM: Nguoi goi khong phai WSOM\");\r\n        require(_warehouseAddress != address(0), \"WIM: Dia chi kho khong hop le\");\r\n        require(_quantity > 0, \"WIM: So luong them vao phai la so duong\");\r\n        // Ty chn xc thc _warehouseAddress qua itemsManagementCore.getWarehouseInfo(_warehouseAddress)\r\n        stockLevels[_warehouseAddress][_itemId] += _quantity;\r\n        emit StockInFromSupplierRecorded(_warehouseAddress, _itemId, _quantity, _wsOrderId, msg.sender);\r\n    }\r\n\r\n    function requestStockTransferToStore(\r\n        address _requestingStoreManager,\r\n        address _storeAddress,\r\n        address _warehouseAddress,\r\n        string calldata _itemId,\r\n        uint256 _quantity\r\n    ) external returns (uint256 internalTransferId) {\r\n        require(msg.sender == address(storeInventoryManagementExternal), \"WIM: Nguoi goi khong phai SIM\");\r\n        require(_storeAddress != address(0), \"WIM: Dia chi cua hang khong hop le\");\r\n        require(_warehouseAddress != address(0), \"WIM: Dia chi kho nguon khong hop le\");\r\n        require(_quantity > 0, \"WIM: So luong chuyen phai la so duong\");\r\n        require(address(storeInventoryManagementExternal) != address(0), \"WIM: Dia chi SIM chua duoc thiet lap\");\r\n\r\n        // THAY I: (Ty chn kim tra, v SIM l ngi gi ng tin cy)\r\n        // PhysicalLocationInfo memory whInfo = itemsManagementCore.getWarehouseInfo(_warehouseAddress);\r\n        // require(whInfo.exists, \"WIM: Kho nguon chua duoc dang ky\");\r\n\r\n        uint256 currentStock = stockLevels[_warehouseAddress][_itemId];\r\n        require(currentStock >= _quantity, \"WIM: Khong du hang trong kho\");\r\n        stockLevels[_warehouseAddress][_itemId] = currentStock - _quantity;\r\n        internalTransferId = nextInternalTransferId++;\r\n        storeInventoryManagementExternal.confirmStockReceivedFromWarehouse(\r\n            _storeAddress,\r\n            _itemId,\r\n            _quantity,\r\n            _warehouseAddress,\r\n            internalTransferId\r\n        );\r\n        emit StockTransferredToStore(_warehouseAddress, _storeAddress, _itemId, _quantity, internalTransferId, _requestingStoreManager);\r\n        return internalTransferId;\r\n    }\r\n\r\n    function recordReturnedStockByCustomer(\r\n        address _returnToWarehouseAddress,\r\n        string calldata _itemId,\r\n        uint256 _quantity,\r\n        uint256 _customerOrderId\r\n    ) external {\r\n        require(msg.sender == customerOrderManagementAddress, \"WIM: Nguoi goi khong phai COM duoc uy quyen\");\r\n        require(_returnToWarehouseAddress != address(0), \"WIM: Dia chi kho tra hang khong hop le\");\r\n        require(_quantity > 0, \"WIM: So luong tra ve phai la so duong\");\r\n        // Ty chn xc thc _returnToWarehouseAddress qua itemsManagementCore.getWarehouseInfo(_returnToWarehouseAddress)\r\n        returnedStockByCustomer[_returnToWarehouseAddress][_itemId] += _quantity;\r\n        emit CustomerStockReturnedRecordedToWarehouse(_returnToWarehouseAddress, _itemId, _quantity, _customerOrderId);\r\n    }\r\n\r\n    function adjustStockManually(\r\n        address _warehouseAddress,\r\n        string calldata _itemId,\r\n        int256 _quantityChange,\r\n        string calldata _reason\r\n    ) external {\r\n        bool isOwner = (msg.sender == owner());\r\n        bool isAuthorizedManager = false;\r\n        if (!isOwner) {\r\n            // THAY I:\r\n            PhysicalLocationInfo memory whInfo = itemsManagementCore.getWarehouseInfo(_warehouseAddress);\r\n            if (whInfo.exists && whInfo.manager == msg.sender) {\r\n                 bytes32 wmRole = roleManagementExternal.WAREHOUSE_MANAGER_ROLE();\r\n                 if(roleManagementExternal.hasRole(wmRole, msg.sender)){\r\n                    isAuthorizedManager = true;\r\n                 }\r\n            }\r\n        }\r\n        require(isOwner || isAuthorizedManager, \"WIM: Khong co quyen dieu chinh ton kho nay\");\r\n        uint256 currentStock = stockLevels[_warehouseAddress][_itemId];\r\n        if (_quantityChange > 0) {\r\n            stockLevels[_warehouseAddress][_itemId] = currentStock + uint256(_quantityChange);\r\n        } else if (_quantityChange < 0) {\r\n            uint256 amountToDecrease = uint256(-_quantityChange);\r\n            require(currentStock >= amountToDecrease, \"WIM: Dieu chinh thu cong dan den ton kho am\");\r\n            stockLevels[_warehouseAddress][_itemId] = currentStock - amountToDecrease;\r\n        } else {\r\n            revert(\"WIM: Thay doi so luong khong the bang khong\");\r\n        }\r\n        emit StockAdjusted(_warehouseAddress, _itemId, _quantityChange, _reason, msg.sender);\r\n    }\r\n\r\n    function processCustomerReturnedStock(\r\n        address _warehouseAddress,\r\n        string calldata _itemId,\r\n        uint256 _quantityToProcess,\r\n        bool _addToMainStock\r\n    ) external {\r\n        bool isOwner = (msg.sender == owner());\r\n        bool isAuthorizedManager = false;\r\n        if (!isOwner) {\r\n            // THAY I:\r\n            PhysicalLocationInfo memory whInfo = itemsManagementCore.getWarehouseInfo(_warehouseAddress);\r\n            if (whInfo.exists && whInfo.manager == msg.sender) {\r\n                 bytes32 wmRole = roleManagementExternal.WAREHOUSE_MANAGER_ROLE();\r\n                 if(roleManagementExternal.hasRole(wmRole, msg.sender)){\r\n                    isAuthorizedManager = true;\r\n                 }\r\n            }\r\n        }\r\n        require(isOwner || isAuthorizedManager, \"WIM: Khong co quyen xu ly hang tra ve kho nay\");\r\n        require(_quantityToProcess > 0, \"WIM: So luong xu ly phai la so duong\");\r\n        uint256 currentReturnedStock = returnedStockByCustomer[_warehouseAddress][_itemId];\r\n        require(currentReturnedStock >= _quantityToProcess, \"WIM: Khong du hang tra ve de xu ly\");\r\n        returnedStockByCustomer[_warehouseAddress][_itemId] = currentReturnedStock - _quantityToProcess;\r\n        if (_addToMainStock) {\r\n            stockLevels[_warehouseAddress][_itemId] += _quantityToProcess;\r\n        }\r\n        emit ProcessedReturnedCustomerStockAtWarehouse(_warehouseAddress, _itemId, _quantityToProcess, _addToMainStock, msg.sender);\r\n    }\r\n\r\n    function getWarehouseStockLevel(address _warehouseAddress, string calldata _itemId) external view returns (uint256) {\r\n        require(_warehouseAddress != address(0), \"WIM: Dia chi kho khong hop le\");\r\n        return stockLevels[_warehouseAddress][_itemId];\r\n    }\r\n\r\n    function getCustomerReturnedStockLevelAtWarehouse(address _warehouseAddress, string calldata _itemId) external view returns (uint256) {\r\n        require(_warehouseAddress != address(0), \"WIM: Dia chi kho khong hop le\");\r\n        return returnedStockByCustomer[_warehouseAddress][_itemId];\r\n    }\r\n}",
  "sourcePath": "D:\\nhi\\Logtech\\New tech in Log\\dapp2\\SC\\contracts\\WarehouseInventory.sol",
  "compiler": {
    "name": "solc",
    "version": "0.8.4+commit.c7e474f2.Emscripten.clang"
  },
  "schemaVersion": "3.4.16",
  "updatedAt": "2025-06-03T02:07:25.388Z",
  "networkType": "ethereum",
  "devdoc": {
    "kind": "dev",
    "methods": {
      "owner()": {
        "details": "Returns the address of the current owner."
      },
      "renounceOwnership()": {
        "details": "Leaves the contract without owner. It will not be possible to call `onlyOwner` functions anymore. Can only be called by the current owner. NOTE: Renouncing ownership will leave the contract without an owner, thereby removing any functionality that is only available to the owner."
      },
      "transferOwnership(address)": {
        "details": "Transfers ownership of the contract to a new account (`newOwner`). Can only be called by the current owner."
      }
    },
    "version": 1
  },
  "userdoc": {
    "kind": "user",
    "methods": {},
    "version": 1
  }
}