{
  "contractName": "WarehouseInventoryManagement",
  "abi": [
    {
      "inputs": [
        {
          "internalType": "address",
          "name": "_roleManagementAddress",
          "type": "address"
        },
        {
          "internalType": "address",
          "name": "_itemsManagementAddress",
          "type": "address"
        }
      ],
      "stateMutability": "nonpayable",
      "type": "constructor"
    },
    {
      "anonymous": false,
      "inputs": [
        {
          "indexed": true,
          "internalType": "address",
          "name": "returnToWarehouseAddress",
          "type": "address"
        },
        {
          "indexed": false,
          "internalType": "string",
          "name": "itemId",
          "type": "string"
        },
        {
          "indexed": false,
          "internalType": "uint256",
          "name": "quantityReturned",
          "type": "uint256"
        },
        {
          "indexed": true,
          "internalType": "uint256",
          "name": "customerOrderId",
          "type": "uint256"
        }
      ],
      "name": "CustomerStockReturnedRecordedToWarehouse",
      "type": "event"
    },
    {
      "anonymous": false,
      "inputs": [
        {
          "indexed": true,
          "internalType": "address",
          "name": "previousOwner",
          "type": "address"
        },
        {
          "indexed": true,
          "internalType": "address",
          "name": "newOwner",
          "type": "address"
        }
      ],
      "name": "OwnershipTransferred",
      "type": "event"
    },
    {
      "anonymous": false,
      "inputs": [
        {
          "indexed": true,
          "internalType": "address",
          "name": "warehouseAddress",
          "type": "address"
        },
        {
          "indexed": true,
          "internalType": "string",
          "name": "itemId",
          "type": "string"
        },
        {
          "indexed": false,
          "internalType": "uint256",
          "name": "quantityProcessed",
          "type": "uint256"
        },
        {
          "indexed": false,
          "internalType": "bool",
          "name": "addedToMainStock",
          "type": "bool"
        },
        {
          "indexed": true,
          "internalType": "address",
          "name": "byAdmin",
          "type": "address"
        }
      ],
      "name": "ProcessedReturnedCustomerStockAtWarehouse",
      "type": "event"
    },
    {
      "anonymous": false,
      "inputs": [
        {
          "indexed": true,
          "internalType": "address",
          "name": "warehouseAddress",
          "type": "address"
        },
        {
          "indexed": true,
          "internalType": "string",
          "name": "itemId",
          "type": "string"
        },
        {
          "indexed": false,
          "internalType": "int256",
          "name": "quantityChange",
          "type": "int256"
        },
        {
          "indexed": false,
          "internalType": "string",
          "name": "reason",
          "type": "string"
        },
        {
          "indexed": true,
          "internalType": "address",
          "name": "byAdmin",
          "type": "address"
        }
      ],
      "name": "StockAdjusted",
      "type": "event"
    },
    {
      "anonymous": false,
      "inputs": [
        {
          "indexed": true,
          "internalType": "address",
          "name": "warehouseAddress",
          "type": "address"
        },
        {
          "indexed": false,
          "internalType": "string",
          "name": "itemId",
          "type": "string"
        },
        {
          "indexed": false,
          "internalType": "uint256",
          "name": "quantityAdded",
          "type": "uint256"
        },
        {
          "indexed": true,
          "internalType": "uint256",
          "name": "wsOrderId",
          "type": "uint256"
        },
        {
          "indexed": true,
          "internalType": "address",
          "name": "byWsom",
          "type": "address"
        }
      ],
      "name": "StockInFromSupplierRecorded",
      "type": "event"
    },
    {
      "anonymous": false,
      "inputs": [
        {
          "indexed": true,
          "internalType": "address",
          "name": "fromWarehouseAddress",
          "type": "address"
        },
        {
          "indexed": true,
          "internalType": "address",
          "name": "toStoreAddress",
          "type": "address"
        },
        {
          "indexed": false,
          "internalType": "string",
          "name": "itemId",
          "type": "string"
        },
        {
          "indexed": false,
          "internalType": "uint256",
          "name": "quantity",
          "type": "uint256"
        },
        {
          "indexed": true,
          "internalType": "uint256",
          "name": "internalTransferId",
          "type": "uint256"
        },
        {
          "indexed": false,
          "internalType": "address",
          "name": "byWarehouseManager",
          "type": "address"
        }
      ],
      "name": "StockTransferredToStore",
      "type": "event"
    },
    {
      "inputs": [],
      "name": "itemsManagementExternal",
      "outputs": [
        {
          "internalType": "contract IItemsManagement",
          "name": "",
          "type": "address"
        }
      ],
      "stateMutability": "view",
      "type": "function",
      "constant": true
    },
    {
      "inputs": [],
      "name": "nextInternalTransferId",
      "outputs": [
        {
          "internalType": "uint256",
          "name": "",
          "type": "uint256"
        }
      ],
      "stateMutability": "view",
      "type": "function",
      "constant": true
    },
    {
      "inputs": [],
      "name": "owner",
      "outputs": [
        {
          "internalType": "address",
          "name": "",
          "type": "address"
        }
      ],
      "stateMutability": "view",
      "type": "function",
      "constant": true
    },
    {
      "inputs": [],
      "name": "renounceOwnership",
      "outputs": [],
      "stateMutability": "nonpayable",
      "type": "function"
    },
    {
      "inputs": [
        {
          "internalType": "address",
          "name": "",
          "type": "address"
        },
        {
          "internalType": "string",
          "name": "",
          "type": "string"
        }
      ],
      "name": "returnedStockByCustomer",
      "outputs": [
        {
          "internalType": "uint256",
          "name": "",
          "type": "uint256"
        }
      ],
      "stateMutability": "view",
      "type": "function",
      "constant": true
    },
    {
      "inputs": [],
      "name": "roleManagementExternal",
      "outputs": [
        {
          "internalType": "contract IRoleManagement",
          "name": "",
          "type": "address"
        }
      ],
      "stateMutability": "view",
      "type": "function",
      "constant": true
    },
    {
      "inputs": [
        {
          "internalType": "address",
          "name": "",
          "type": "address"
        },
        {
          "internalType": "string",
          "name": "",
          "type": "string"
        }
      ],
      "name": "stockLevels",
      "outputs": [
        {
          "internalType": "uint256",
          "name": "",
          "type": "uint256"
        }
      ],
      "stateMutability": "view",
      "type": "function",
      "constant": true
    },
    {
      "inputs": [],
      "name": "storeInventoryManagementExternal",
      "outputs": [
        {
          "internalType": "contract IStoreInventoryManagement",
          "name": "",
          "type": "address"
        }
      ],
      "stateMutability": "view",
      "type": "function",
      "constant": true
    },
    {
      "inputs": [
        {
          "internalType": "address",
          "name": "newOwner",
          "type": "address"
        }
      ],
      "name": "transferOwnership",
      "outputs": [],
      "stateMutability": "nonpayable",
      "type": "function"
    },
    {
      "inputs": [],
      "name": "warehouseSupplierOrderManagementAddress",
      "outputs": [
        {
          "internalType": "address",
          "name": "",
          "type": "address"
        }
      ],
      "stateMutability": "view",
      "type": "function",
      "constant": true
    },
    {
      "inputs": [
        {
          "internalType": "address",
          "name": "_simAddress",
          "type": "address"
        }
      ],
      "name": "setStoreInventoryManagementAddress",
      "outputs": [],
      "stateMutability": "nonpayable",
      "type": "function"
    },
    {
      "inputs": [
        {
          "internalType": "address",
          "name": "_wsomAddress",
          "type": "address"
        }
      ],
      "name": "setWarehouseSupplierOrderManagementAddress",
      "outputs": [],
      "stateMutability": "nonpayable",
      "type": "function"
    },
    {
      "inputs": [
        {
          "internalType": "address",
          "name": "_warehouseAddress",
          "type": "address"
        },
        {
          "internalType": "string",
          "name": "_itemId",
          "type": "string"
        },
        {
          "internalType": "uint256",
          "name": "_quantity",
          "type": "uint256"
        },
        {
          "internalType": "uint256",
          "name": "_wsOrderId",
          "type": "uint256"
        }
      ],
      "name": "recordStockInFromSupplier",
      "outputs": [],
      "stateMutability": "nonpayable",
      "type": "function"
    },
    {
      "inputs": [
        {
          "internalType": "address",
          "name": "_requestingStoreManager",
          "type": "address"
        },
        {
          "internalType": "address",
          "name": "_storeAddress",
          "type": "address"
        },
        {
          "internalType": "address",
          "name": "_warehouseAddress",
          "type": "address"
        },
        {
          "internalType": "string",
          "name": "_itemId",
          "type": "string"
        },
        {
          "internalType": "uint256",
          "name": "_quantity",
          "type": "uint256"
        }
      ],
      "name": "requestStockTransferToStore",
      "outputs": [
        {
          "internalType": "uint256",
          "name": "internalTransferId",
          "type": "uint256"
        }
      ],
      "stateMutability": "nonpayable",
      "type": "function"
    },
    {
      "inputs": [
        {
          "internalType": "address",
          "name": "_returnToWarehouseAddress",
          "type": "address"
        },
        {
          "internalType": "string",
          "name": "_itemId",
          "type": "string"
        },
        {
          "internalType": "uint256",
          "name": "_quantity",
          "type": "uint256"
        },
        {
          "internalType": "uint256",
          "name": "_customerOrderId",
          "type": "uint256"
        }
      ],
      "name": "recordReturnedStockByCustomer",
      "outputs": [],
      "stateMutability": "nonpayable",
      "type": "function"
    },
    {
      "inputs": [
        {
          "internalType": "address",
          "name": "_warehouseAddress",
          "type": "address"
        },
        {
          "internalType": "string",
          "name": "_itemId",
          "type": "string"
        },
        {
          "internalType": "int256",
          "name": "_quantityChange",
          "type": "int256"
        },
        {
          "internalType": "string",
          "name": "_reason",
          "type": "string"
        }
      ],
      "name": "adjustStockManually",
      "outputs": [],
      "stateMutability": "nonpayable",
      "type": "function"
    },
    {
      "inputs": [
        {
          "internalType": "address",
          "name": "_warehouseAddress",
          "type": "address"
        },
        {
          "internalType": "string",
          "name": "_itemId",
          "type": "string"
        },
        {
          "internalType": "uint256",
          "name": "_quantityToProcess",
          "type": "uint256"
        },
        {
          "internalType": "bool",
          "name": "_addToMainStock",
          "type": "bool"
        }
      ],
      "name": "processCustomerReturnedStock",
      "outputs": [],
      "stateMutability": "nonpayable",
      "type": "function"
    },
    {
      "inputs": [
        {
          "internalType": "address",
          "name": "_warehouseAddress",
          "type": "address"
        },
        {
          "internalType": "string",
          "name": "_itemId",
          "type": "string"
        }
      ],
      "name": "getWarehouseStockLevel",
      "outputs": [
        {
          "internalType": "uint256",
          "name": "",
          "type": "uint256"
        }
      ],
      "stateMutability": "view",
      "type": "function",
      "constant": true
    },
    {
      "inputs": [
        {
          "internalType": "address",
          "name": "_warehouseAddress",
          "type": "address"
        },
        {
          "internalType": "string",
          "name": "_itemId",
          "type": "string"
        }
      ],
      "name": "getCustomerReturnedStockLevelAtWarehouse",
      "outputs": [
        {
          "internalType": "uint256",
          "name": "",
          "type": "uint256"
        }
      ],
      "stateMutability": "view",
      "type": "function",
      "constant": true
    }
  ],
  "bytecode": "0x608060405260016007553480156200001657600080fd5b5060405162001a1038038062001a1083398101604081905262000039916200012e565b6000620000456200010d565b600080546001600160a01b0319166001600160a01b0383169081178255604051929350917f8be0079c531659141344cd1fd0a4f28419497f9722a3daafe3b4186f6b6457e0908290a3506001600160a01b038216620000c15760405162461bcd60e51b8152600401620000b89062000165565b60405180910390fd5b600180546001600160a01b0319166001600160a01b03848116919091179091558116156200010557600280546001600160a01b0319166001600160a01b0383161790555b50506200019c565b3390565b80516001600160a01b03811681146200012957600080fd5b919050565b6000806040838503121562000141578182fd5b6200014c8362000111565b91506200015c6020840162000111565b90509250929050565b6020808252601c908201527f57494d3a204469612063686920524d206b686f6e6720686f70206c6500000000604082015260600190565b61186480620001ac6000396000f3fe608060405234801561001057600080fd5b50600436106101515760003560e01c80639e70350f116100cd578063d04cc29b11610081578063e6a2194311610066578063e6a2194314610269578063f2fde38b14610271578063feedc7d31461028457610151565b8063d04cc29b14610259578063e53e08251461026157610151565b8063c3a087cd116100b2578063c3a087cd14610236578063c94c54a114610249578063cc11ff7f1461025157610151565b80639e70350f14610210578063be77f0721461022357610151565b80635db41c3e116101245780638befa103116101095780638befa103146101d55780638da5cb5b146101e8578063963ca3ce146101fd57610151565b80635db41c3e146101ba578063715018a6146101cd57610151565b80630d469283146101565780631f8b929d1461017f57806325a5e9b21461019257806346ba85fe146101a7575b600080fd5b610169610164366004610f22565b610297565b604051610176919061170d565b60405180910390f35b61016961018d366004610ea0565b6102d7565b6101a56101a0366004611070565b610550565b005b6101696101b5366004610f22565b61060d565b6101696101c83660046110d5565b610635565b6101a5610663565b6101a56101e3366004610ffe565b6106ec565b6101f06108a1565b6040516101769190611269565b61016961020b3660046110d5565b6108b0565b6101a561021e366004610e7d565b6108de565b6101a5610231366004611070565b610965565b6101a5610244366004610f75565b610a56565b6101f0610c1e565b6101f0610c2d565b6101f0610c3c565b610169610c4b565b6101f0610c51565b6101a561027f366004610e7d565b610c60565b6101a5610292366004610e7d565b610d20565b6001600160a01b03831660009081526005602052604080822090516102bf9085908590611259565b90815260200160405180910390205490509392505050565b6003546000906001600160a01b0316331461030d5760405162461bcd60e51b81526004016103049061153e565b60405180910390fd5b6000821161032d5760405162461bcd60e51b8152600401610304906113dc565b600254604051637160572b60e01b81526000916001600160a01b031690637160572b9061035e908990600401611269565b60006040518083038186803b15801561037657600080fd5b505afa15801561038a573d6000803e3d6000fd5b505050506040513d6000823e601f3d908101601f191682016040526103b2919081019061115d565b905080608001516103d55760405162461bcd60e51b815260040161030490611509565b6001600160a01b03861660009081526005602052604080822090516103fd9088908890611259565b90815260200160405180910390205490508381101561042e5760405162461bcd60e51b8152600401610304906116d6565b6104388482611790565b6001600160a01b0388166000908152600560205260409081902090516104619089908990611259565b9081526040519081900360200190205560078054906000610481836117a7565b90915550600354604051634d600ef360e11b81529194506001600160a01b031690639ac01de6906104c0908b908a908a908a908e908b9060040161127d565b600060405180830381600087803b1580156104da57600080fd5b505af11580156104ee573d6000803e3d6000fd5b5050505082886001600160a01b0316886001600160a01b03167f0e354fafb6caea45f9580177206df876eec0c1bba922f3e62cb5b0758083a04f8989898f60405161053c9493929190611305565b60405180910390a450509695505050505050565b600082116105705760405162461bcd60e51b8152600401610304906114c4565b6001600160a01b03851660009081526006602052604090819020905183919061059c9087908790611259565b908152602001604051809103902060008282546105b99190611778565b9250508190555080856001600160a01b03167f969e3aadc8dda52eb973b507ec1a260c78c514cf3c5a201734449a73a36a7dfc8686866040516105fe939291906112e1565b60405180910390a35050505050565b6001600160a01b03831660009081526006602052604080822090516102bf9085908590611259565b6005602090815260009283526040909220815180830184018051928152908401929093019190912091525481565b61066b610da7565b6001600160a01b031661067c6108a1565b6001600160a01b0316146106a25760405162461bcd60e51b81526004016103049061148f565b600080546040516001600160a01b03909116907f8be0079c531659141344cd1fd0a4f28419497f9722a3daafe3b4186f6b6457e0908390a3600080546001600160a01b0319169055565b6106f4610da7565b6001600160a01b03166107056108a1565b6001600160a01b03161461072b5760405162461bcd60e51b81526004016103049061148f565b6000821161074b5760405162461bcd60e51b8152600401610304906115ee565b6001600160a01b03851660009081526006602052604080822090516107739087908790611259565b9081526020016040518091039020549050828110156107a45760405162461bcd60e51b815260040161030490611575565b6107ae8382611790565b6001600160a01b0387166000908152600660205260409081902090516107d79088908890611259565b90815260405190819003602001902055811561083c576001600160a01b0386166000908152600560205260409081902090518491906108199088908890611259565b908152602001604051809103902060008282546108369190611778565b90915550505b604051339061084e9087908790611259565b6040518091039020876001600160a01b03167f9fea66fc1ff8ab38fd935833ea9542ea08ec8fb497fd16099054e475c131aaff8686604051610891929190611716565b60405180910390a4505050505050565b6000546001600160a01b031690565b6006602090815260009283526040909220815180830184018051928152908401929093019190912091525481565b6108e6610da7565b6001600160a01b03166108f76108a1565b6001600160a01b03161461091d5760405162461bcd60e51b81526004016103049061148f565b6001600160a01b0381166109435760405162461bcd60e51b815260040161030490611421565b600480546001600160a01b0319166001600160a01b0392909216919091179055565b6004546001600160a01b0316331461098f5760405162461bcd60e51b8152600401610304906115b7565b600082116109af5760405162461bcd60e51b815260040161030490611632565b6001600160a01b0385166000908152600560205260409081902090518391906109db9087908790611259565b908152602001604051809103902060008282546109f89190611778565b92505081905550336001600160a01b031681866001600160a01b03167f1e4ff52ce816e4259be08bbb6549aded6b88a1e9cfb191029752f4592b0e1771878787604051610a47939291906112e1565b60405180910390a45050505050565b610a5e610da7565b6001600160a01b0316610a6f6108a1565b6001600160a01b031614610a955760405162461bcd60e51b81526004016103049061148f565b6001600160a01b0386166000908152600560205260408082209051610abd9088908890611259565b90815260200160405180910390205490506000841315610b1f57610ae18482611778565b6001600160a01b038816600090815260056020526040908190209051610b0a9089908990611259565b90815260405190819003602001902055610bb6565b6000841215610b9e576000610b33856117c2565b905080821015610b555760405162461bcd60e51b81526004016103049061137f565b610b5f8183611790565b6001600160a01b038916600090815260056020526040908190209051610b88908a908a90611259565b9081526040519081900360200190205550610bb6565b60405162461bcd60e51b815260040161030490611679565b6040513390610bc89088908890611259565b6040518091039020886001600160a01b03167f174bc369afea7ab6cbcd1994bd3075bbd3c07fd2b527578e0d996fdad901f494878787604051610c0d939291906112be565b60405180910390a450505050505050565b6004546001600160a01b031681565b6003546001600160a01b031681565b6002546001600160a01b031681565b60075481565b6001546001600160a01b031681565b610c68610da7565b6001600160a01b0316610c796108a1565b6001600160a01b031614610c9f5760405162461bcd60e51b81526004016103049061148f565b6001600160a01b038116610cc55760405162461bcd60e51b815260040161030490611339565b600080546040516001600160a01b03808516939216917f8be0079c531659141344cd1fd0a4f28419497f9722a3daafe3b4186f6b6457e091a3600080546001600160a01b0319166001600160a01b0392909216919091179055565b610d28610da7565b6001600160a01b0316610d396108a1565b6001600160a01b031614610d5f5760405162461bcd60e51b81526004016103049061148f565b6001600160a01b038116610d855760405162461bcd60e51b815260040161030490611458565b600380546001600160a01b0319166001600160a01b0392909216919091179055565b3390565b8051610db681611808565b919050565b8051610db681611820565b60008083601f840112610dd7578182fd5b50813567ffffffffffffffff811115610dee578182fd5b602083019150836020828501011115610e0657600080fd5b9250929050565b600082601f830112610e1d578081fd5b8151610e30610e2b82611750565b611726565b81815260208581848701011115610e45578384fd5b835b83811015610e62578581018201518382018301528101610e47565b83811115610e7257848285850101525b509095945050505050565b600060208284031215610e8e578081fd5b8135610e9981611808565b9392505050565b60008060008060008060a08789031215610eb8578182fd5b8635610ec381611808565b95506020870135610ed381611808565b94506040870135610ee381611808565b9350606087013567ffffffffffffffff811115610efe578283fd5b610f0a89828a01610dc6565b979a9699509497949695608090950135949350505050565b600080600060408486031215610f36578283fd5b8335610f4181611808565b9250602084013567ffffffffffffffff811115610f5c578283fd5b610f6886828701610dc6565b9497909650939450505050565b60008060008060008060808789031215610f8d578182fd5b8635610f9881611808565b9550602087013567ffffffffffffffff80821115610fb4578384fd5b610fc08a838b01610dc6565b9097509550604089013594506060890135915080821115610fdf578384fd5b50610fec89828a01610dc6565b979a9699509497509295939492505050565b600080600080600060808688031215611015578081fd5b853561102081611808565b9450602086013567ffffffffffffffff81111561103b578182fd5b61104788828901610dc6565b90955093505060408601359150606086013561106281611820565b809150509295509295909350565b600080600080600060808688031215611087578081fd5b853561109281611808565b9450602086013567ffffffffffffffff8111156110ad578182fd5b6110b988828901610dc6565b9699909850959660408101359660609091013595509350505050565b600080604083850312156110e7578182fd5b82356110f281611808565b9150602083013567ffffffffffffffff81111561110d578182fd5b8301601f8101851361111d578182fd5b803561112b610e2b82611750565b81815286602083850101111561113f578384fd5b81602084016020830137908101602001929092525090939092509050565b60006020828403121561116e578081fd5b815167ffffffffffffffff80821115611185578283fd5b9083019060c08286031215611198578283fd5b6111a260c0611726565b6111ab83610dab565b81526020830151828111156111be578485fd5b6111ca87828601610e0d565b6020830152506040830151828111156111e1578485fd5b6111ed87828601610e0d565b6040830152506111ff60608401610dab565b606082015261121060808401610dbb565b608082015261122160a08401610dab565b60a082015295945050505050565b60008284528282602086013780602084860101526020601f19601f85011685010190509392505050565b6000828483379101908152919050565b6001600160a01b0391909116815260200190565b60006001600160a01b03808916835260a060208401526112a160a08401888a61122f565b604084019690965293909316606082015260800152509392505050565b6000848252604060208301526112d860408301848661122f565b95945050505050565b6000604082526112f560408301858761122f565b9050826020830152949350505050565b60006060825261131960608301868861122f565b90508360208301526001600160a01b038316604083015295945050505050565b60208082526026908201527f4f776e61626c653a206e6577206f776e657220697320746865207a65726f206160408201526564647265737360d01b606082015260800190565b6020808252602b908201527f57494d3a2044696575206368696e682074687520636f6e672064616e2064656e60408201527f20746f6e206b686f20616d000000000000000000000000000000000000000000606082015260800190565b60208082526025908201527f57494d3a20536f206c756f6e672063687579656e2070686169206c6120736f2060408201526464756f6e6760d81b606082015260800190565b6020808252601e908201527f57494d3a20446961206368692057534f4d206b686f6e6720686f70206c650000604082015260600190565b6020808252601d908201527f57494d3a20446961206368692053494d206b686f6e6720686f70206c65000000604082015260600190565b6020808252818101527f4f776e61626c653a2063616c6c6572206973206e6f7420746865206f776e6572604082015260600190565b60208082526025908201527f57494d3a20536f206c756f6e67207472612076652070686169206c6120736f2060408201526464756f6e6760d81b606082015260800190565b6020808252818101527f57494d3a204b686f206e67756f6e20636875612064756f632064616e67206b79604082015260600190565b6020808252601d908201527f57494d3a204e67756f6920676f69206b686f6e6720706861692053494d000000604082015260600190565b60208082526022908201527f57494d3a204b686f6e672064752068616e6720747261207665206465207875206040820152616c7960f01b606082015260800190565b6020808252601e908201527f57494d3a204e67756f6920676f69206b686f6e6720706861692057534f4d0000604082015260600190565b60208082526024908201527f57494d3a20536f206c756f6e67207875206c792070686169206c6120736f2064604082015263756f6e6760e01b606082015260800190565b60208082526027908201527f57494d3a20536f206c756f6e67207468656d2076616f2070686169206c6120736040820152666f2064756f6e6760c81b606082015260800190565b6020808252602b908201527f57494d3a205468617920646f6920736f206c756f6e67206b686f6e672074686560408201527f2062616e67206b686f6e67000000000000000000000000000000000000000000606082015260800190565b6020808252601c908201527f57494d3a204b686f6e672064752068616e672074726f6e67206b686f00000000604082015260600190565b90815260200190565b9182521515602082015260400190565b60405181810167ffffffffffffffff81118282101715611748576117486117f2565b604052919050565b600067ffffffffffffffff82111561176a5761176a6117f2565b50601f01601f191660200190565b6000821982111561178b5761178b6117dc565b500190565b6000828210156117a2576117a26117dc565b500390565b60006000198214156117bb576117bb6117dc565b5060010190565b6000600160ff1b8214156117d8576117d86117dc565b0390565b634e487b7160e01b600052601160045260246000fd5b634e487b7160e01b600052604160045260246000fd5b6001600160a01b038116811461181d57600080fd5b50565b801515811461181d57600080fdfea26469706673582212204568ac3c8f61680d98fddb43cba43b5a5d97973f347efbb3d98fc9cce637546364736f6c63430008000033",
  "immutableReferences": {},
  "source": "// SPDX-License-Identifier: MIT\r\npragma solidity ^0.8.0;\r\n\r\nimport \"@openzeppelin/contracts/access/Ownable.sol\";\r\n\r\n// Khai bo trc cu trc t ItemsManagement\r\ncontract ItemsManagement { // Tn hp ng, khng phi tn interface\r\n    struct PhysicalLocationInfo { address locationId; string name; string locationType; address manager; bool exists; address designatedSourceWarehouseAddress; }\r\n}\r\n\r\n// Interface cho RoleManagement  kim tra vai tr Qun l Kho\r\ninterface IRoleManagement {\r\n    function WAREHOUSE_MANAGER_ROLE() external view returns (bytes32);\r\n    function hasRole(bytes32 role, address account) external view returns (bool);\r\n}\r\n\r\n// Interface cho ItemsManagement  ly thng tin kho (ty chn)\r\ninterface IItemsManagement {\r\n    function getWarehouseInfo(address warehouseAddress) external view returns (ItemsManagement.PhysicalLocationInfo memory);\r\n    // C th khng cn getItemInfo nu tin tng itemId t cc hp ng khc\r\n}\r\n\r\n// Interface cho StoreInventoryManagement  thng bo khi hng  c chuyn\r\ninterface IStoreInventoryManagement {\r\n    function confirmStockReceivedFromWarehouse(\r\n        address storeAddress,       // Ca hng nhn\r\n        string calldata itemId,     // Mt hng\r\n        uint256 quantity,           // S lng\r\n        address fromWarehouseAddress, // Kho  gi (a ch ca hp ng ny)\r\n        uint256 internalTransferId  // ID giao dch chuyn ni b\r\n    ) external;\r\n}\r\n\r\n// Hp ng Qun l Tn kho Chnh (Kho trung tm)\r\ncontract WarehouseInventoryManagement is Ownable {\r\n    IRoleManagement public roleManagementExternal;\r\n    IItemsManagement public itemsManagementExternal; // Ty chn,  kim tra thm\r\n    IStoreInventoryManagement public storeInventoryManagementExternal; // Hp ng Qun l Tn kho Ca hng\r\n    \r\n    address public warehouseSupplierOrderManagementAddress; //  nhn hng t NCC\r\n\r\n    // Tn kho chnh: warehouseAddress => itemId => quantity\r\n    mapping(address => mapping(string => uint256)) public stockLevels;\r\n\r\n    // Hng tr v t khch hng ti kho\r\n    mapping(address => mapping(string => uint256)) public returnedStockByCustomer;\r\n\r\n    uint256 public nextInternalTransferId = 1; // ID cho vic chuyn hng ni b Kho -> Ca hng\r\n\r\n    // S kin\r\n        event StockInFromSupplierRecorded(\r\n        address indexed warehouseAddress, // QUAN TRNG  lc theo kho\r\n        string itemId,                    // itemId thng khng cn indexed nu bn lun c warehouseAddress\r\n        uint256 quantityAdded,\r\n        uint256 indexed wsOrderId,        // QUAN TRNG  lin kt vi n hng NCC\r\n        address indexed byWsom            // QUAN TRNG  bit ai gi\r\n    ); // 3 indexed: warehouseAddress, wsOrderId, byWsom\r\n\r\n    event StockTransferredToStore(\r\n        address indexed fromWarehouseAddress, // QUAN TRNG\r\n        address indexed toStoreAddress,       // QUAN TRNG\r\n        string itemId,\r\n        uint256 quantity,\r\n        uint256 indexed internalTransferId,   // QUAN TRNG  theo di\r\n        address byWarehouseManager            // Ngi qun l kho thc hin, c th khng cn indexed nu bn c fromWarehouseAddress\r\n    ); // 3 indexed: fromWarehouseAddress, toStoreAddress, internalTransferId\r\n\r\n    event CustomerStockReturnedRecordedToWarehouse(\r\n        address indexed returnToWarehouseAddress, // QUAN TRNG\r\n        string itemId,\r\n        uint256 quantityReturned,\r\n        uint256 indexed customerOrderId         // QUAN TRNG\r\n        // Khng cn thm indexed  y\r\n    ); // 2 indexed: returnToWarehouseAddress, customerOrderId (OK)\r\n\r\n    event StockAdjusted(\r\n        address indexed warehouseAddress,        // QUAN TRNG\r\n        string indexed itemId,                   // QUAN TRNG\r\n        int256 quantityChange,\r\n        string reason,\r\n        address indexed byAdmin                  // QUAN TRNG\r\n    ); // 3 indexed: warehouseAddress, itemId, byAdmin (OK)\r\n\r\n    event ProcessedReturnedCustomerStockAtWarehouse(\r\n        address indexed warehouseAddress,        // QUAN TRNG\r\n        string indexed itemId,                   // QUAN TRNG\r\n        uint256 quantityProcessed,\r\n        bool addedToMainStock,\r\n        address indexed byAdmin                  // QUAN TRNG\r\n    );\r\n    constructor(address _roleManagementAddress, address _itemsManagementAddress) Ownable() {\r\n        require(_roleManagementAddress != address(0), \"WIM: Dia chi RM khong hop le\"); // WIM: a ch RM khng hp l\r\n        roleManagementExternal = IRoleManagement(_roleManagementAddress);\r\n        \r\n        if (_itemsManagementAddress != address(0)) {\r\n            itemsManagementExternal = IItemsManagement(_itemsManagementAddress);\r\n        }\r\n    }\r\n\r\n    // Modifier ch cho php Qun l Kho ca kho c ch nh\r\n    modifier onlyWarehouseManager(address _warehouseAddress) {\r\n        // Kim tra _warehouseAddress c phi l kho hp l V msg.sender l qun l ca kho \r\n        ItemsManagement.PhysicalLocationInfo memory whInfo = itemsManagementExternal.getWarehouseInfo(_warehouseAddress);\r\n        require(whInfo.exists, \"WIM: Kho chua duoc dang ky trong ItemsM\"); // WIM: Kho cha c ng k trong ItemsM\r\n        require(whInfo.manager == msg.sender, \"WIM: Nguoi goi khong phai quan ly kho nay\"); // WIM: Ngi gi khng phi qun l kho ny\r\n        bytes32 wmRole = roleManagementExternal.WAREHOUSE_MANAGER_ROLE();\r\n        require(roleManagementExternal.hasRole(wmRole, msg.sender), \"WIM: Nguoi goi thieu vai tro QUAN_LY_KHO\"); // WIM: Ngi gi thiu vai tr QUAN_LY_KHO\r\n        _;\r\n    }\r\n\r\n    // --- HM SETTER (Ch Owner) ---\r\n    function setStoreInventoryManagementAddress(address _simAddress) external onlyOwner {\r\n        require(_simAddress != address(0), \"WIM: Dia chi SIM khong hop le\"); // WIM: a ch SIM khng hp l\r\n        storeInventoryManagementExternal = IStoreInventoryManagement(_simAddress);\r\n    }\r\n\r\n    function setWarehouseSupplierOrderManagementAddress(address _wsomAddress) external onlyOwner {\r\n        require(_wsomAddress != address(0), \"WIM: Dia chi WSOM khong hop le\"); // WIM: a ch WSOM khng hp l\r\n        warehouseSupplierOrderManagementAddress = _wsomAddress;\r\n    }\r\n\r\n    // --- CC HM CT LI ---\r\n\r\n    // c gi bi WarehouseSupplierOrderManagement khi c hng mi t nh cung cp\r\n    function recordStockInFromSupplier(\r\n        address _warehouseAddress,      // Kho nhn hng\r\n        string calldata _itemId,         // Mt hng\r\n        uint256 _quantity,              // S lng\r\n        uint256 _wsOrderId              // ID n hng Kho-NCC\r\n    ) external {\r\n        require(msg.sender == warehouseSupplierOrderManagementAddress, \"WIM: Nguoi goi khong phai WSOM\"); // WIM: Ngi gi khng phi WSOM\r\n        require(_quantity > 0, \"WIM: So luong them vao phai la so duong\"); // WIM: S lng thm vo phi l s dng\r\n        // Ty chn: Xc thc _warehouseAddress tn ti thng qua itemsManagementExternal\r\n\r\n        stockLevels[_warehouseAddress][_itemId] += _quantity;\r\n        emit StockInFromSupplierRecorded(_warehouseAddress, _itemId, _quantity, _wsOrderId, msg.sender);\r\n    }\r\n\r\n    // c gi bi StoreInventoryManagement (thay mt Qun l Ca hng)  yu cu hng\r\n    // Logic ny gi nh StoreInventoryManagement  xc thc Qun l Ca hng v kho ngun ch nh.\r\n    function requestStockTransferToStore(\r\n        address _requestingStoreManager, // Ngi qun l ca hng yu cu (c SIM xc thc)\r\n        address _storeAddress,          // Ca hng yu cu\r\n        address _warehouseAddress,      // Kho ngun c ch nh cho ca hng\r\n        string calldata _itemId,         // Mt hng\r\n        uint256 _quantity               // S lng\r\n    ) external returns (uint256 internalTransferId) {\r\n        require(msg.sender == address(storeInventoryManagementExternal), \"WIM: Nguoi goi khong phai SIM\"); // WIM: Ngi gi khng phi SIM\r\n        require(_quantity > 0, \"WIM: So luong chuyen phai la so duong\"); // WIM: S lng chuyn phi l s dng\r\n        \r\n        ItemsManagement.PhysicalLocationInfo memory whInfo = itemsManagementExternal.getWarehouseInfo(_warehouseAddress);\r\n        require(whInfo.exists, \"WIM: Kho nguon chua duoc dang ky\"); // WIM: Kho ngun cha c ng k\r\n        // Qun l thc t ca _warehouseAddress c th cn ph duyt.\r\n        // Hin ti, gi nh nu SIM gi th c php nu c  hng.\r\n\r\n        uint256 currentStock = stockLevels[_warehouseAddress][_itemId];\r\n        require(currentStock >= _quantity, \"WIM: Khong du hang trong kho\"); // WIM: Khng  hng trong kho\r\n        \r\n        stockLevels[_warehouseAddress][_itemId] = currentStock - _quantity;\r\n        internalTransferId = nextInternalTransferId++;\r\n\r\n        // Thng bo cho StoreInventoryManagement  xc nhn  nhn hng\r\n        storeInventoryManagementExternal.confirmStockReceivedFromWarehouse(\r\n            _storeAddress,\r\n            _itemId,\r\n            _quantity,\r\n            _warehouseAddress, // Bo co kho no  hon thnh\r\n            internalTransferId\r\n        );\r\n\r\n        emit StockTransferredToStore(_warehouseAddress, _storeAddress, _itemId, _quantity, internalTransferId, _requestingStoreManager); // _requestingStoreManager l ngi khi to\r\n        return internalTransferId;\r\n    }\r\n    \r\n    // c gi bi CustomerOrderManagement khi khch hng tr hng v kho\r\n    function recordReturnedStockByCustomer(\r\n        address _returnToWarehouseAddress, // Kho c th c ch nh cho vic tr hng\r\n        string calldata _itemId,\r\n        uint256 _quantity,\r\n        uint256 _customerOrderId\r\n    ) external { // c gi bi COM\r\n        // require(msg.sender == customerOrderManagementAddress, \"WIM: Nguoi goi khong phai COM duoc uy quyen\"); // Cn a ch COM\r\n        require(_quantity > 0, \"WIM: So luong tra ve phai la so duong\"); // WIM: S lng tr v phi l s dng\r\n        // Ty chn: Xc thc _returnToWarehouseAddress qua itemsManagementExternal\r\n\r\n        returnedStockByCustomer[_returnToWarehouseAddress][_itemId] += _quantity;\r\n        emit CustomerStockReturnedRecordedToWarehouse(_returnToWarehouseAddress, _itemId, _quantity, _customerOrderId);\r\n    }\r\n\r\n    // --- CC HM ADMIN (Ch Owner) ---\r\n    function adjustStockManually(\r\n        address _warehouseAddress,\r\n        string calldata _itemId,\r\n        int256 _quantityChange,      // C th m hoc dng\r\n        string calldata _reason\r\n    ) external onlyOwner { // Hoc onlyWarehouseManager(_warehouseAddress)\r\n        uint256 currentStock = stockLevels[_warehouseAddress][_itemId];\r\n        if (_quantityChange > 0) {\r\n            stockLevels[_warehouseAddress][_itemId] = currentStock + uint256(_quantityChange);\r\n        } else if (_quantityChange < 0) {\r\n            uint256 amountToDecrease = uint256(-_quantityChange);\r\n            require(currentStock >= amountToDecrease, \"WIM: Dieu chinh thu cong dan den ton kho am\"); // WIM: iu chnh th cng dn n tn kho m\r\n            stockLevels[_warehouseAddress][_itemId] = currentStock - amountToDecrease;\r\n        } else {\r\n            revert(\"WIM: Thay doi so luong khong the bang khong\"); // WIM: Thay i s lng khng th bng khng\r\n        }\r\n        emit StockAdjusted(_warehouseAddress, _itemId, _quantityChange, _reason, msg.sender);\r\n    }\r\n\r\n    function processCustomerReturnedStock(\r\n        address _warehouseAddress,      // Kho cha hng tr v\r\n        string calldata _itemId,\r\n        uint256 _quantityToProcess,\r\n        bool _addToMainStock          // V d: nu mt hng c th bn li\r\n    ) external onlyOwner { // Hoc onlyWarehouseManager(_warehouseAddress)\r\n        require(_quantityToProcess > 0, \"WIM: So luong xu ly phai la so duong\"); // WIM: S lng x l phi l s dng\r\n        uint256 currentReturnedStock = returnedStockByCustomer[_warehouseAddress][_itemId];\r\n        require(currentReturnedStock >= _quantityToProcess, \"WIM: Khong du hang tra ve de xu ly\"); // WIM: Khng  hng tr v  x l\r\n\r\n        returnedStockByCustomer[_warehouseAddress][_itemId] = currentReturnedStock - _quantityToProcess;\r\n        if (_addToMainStock) {\r\n            stockLevels[_warehouseAddress][_itemId] += _quantityToProcess;\r\n        }\r\n        emit ProcessedReturnedCustomerStockAtWarehouse(_warehouseAddress, _itemId, _quantityToProcess, _addToMainStock, msg.sender);\r\n    }\r\n\r\n    // --- CC HM XEM (VIEW FUNCTIONS) ---\r\n    function getWarehouseStockLevel(address _warehouseAddress, string calldata _itemId) external view returns (uint256) {\r\n        return stockLevels[_warehouseAddress][_itemId];\r\n    }\r\n\r\n    function getCustomerReturnedStockLevelAtWarehouse(address _warehouseAddress, string calldata _itemId) external view returns (uint256) {\r\n        return returnedStockByCustomer[_warehouseAddress][_itemId];\r\n    }\r\n}\r\n",
  "sourcePath": "D:\\nhi\\Logtech\\New tech in Log\\dapp2\\SC\\contracts\\WarehouseInventory.sol",
  "compiler": {
    "name": "solc",
    "version": "0.8.0+commit.c7dfd78e.Emscripten.clang"
  },
  "schemaVersion": "3.4.16",
  "updatedAt": "2025-06-01T18:42:33.947Z",
  "networkType": "ethereum",
  "devdoc": {
    "kind": "dev",
    "methods": {
      "owner()": {
        "details": "Returns the address of the current owner."
      },
      "renounceOwnership()": {
        "details": "Leaves the contract without owner. It will not be possible to call `onlyOwner` functions anymore. Can only be called by the current owner. NOTE: Renouncing ownership will leave the contract without an owner, thereby removing any functionality that is only available to the owner."
      },
      "transferOwnership(address)": {
        "details": "Transfers ownership of the contract to a new account (`newOwner`). Can only be called by the current owner."
      }
    },
    "version": 1
  },
  "userdoc": {
    "kind": "user",
    "methods": {},
    "version": 1
  }
}