{
  "contractName": "WarehouseSupplierOrderManagement",
  "abi": [
    {
      "inputs": [
        {
          "internalType": "address",
          "name": "_roleManagementAddress",
          "type": "address"
        },
        {
          "internalType": "address",
          "name": "_itemsManagementCoreAddress",
          "type": "address"
        },
        {
          "internalType": "address",
          "name": "_itemsPricingAndListingAddress",
          "type": "address"
        },
        {
          "internalType": "address",
          "name": "_companyTreasuryManagerAddress",
          "type": "address"
        }
      ],
      "stateMutability": "nonpayable",
      "type": "constructor"
    },
    {
      "anonymous": false,
      "inputs": [
        {
          "indexed": true,
          "internalType": "uint256",
          "name": "wsOrderId",
          "type": "uint256"
        },
        {
          "indexed": false,
          "internalType": "uint256",
          "name": "amount",
          "type": "uint256"
        },
        {
          "indexed": false,
          "internalType": "string",
          "name": "internalSupplierOrderId",
          "type": "string"
        }
      ],
      "name": "EscrowRequestedForWSOrder",
      "type": "event"
    },
    {
      "anonymous": false,
      "inputs": [
        {
          "indexed": true,
          "internalType": "address",
          "name": "previousOwner",
          "type": "address"
        },
        {
          "indexed": true,
          "internalType": "address",
          "name": "newOwner",
          "type": "address"
        }
      ],
      "name": "OwnershipTransferred",
      "type": "event"
    },
    {
      "anonymous": false,
      "inputs": [
        {
          "indexed": true,
          "internalType": "uint256",
          "name": "wsOrderId",
          "type": "uint256"
        },
        {
          "indexed": true,
          "internalType": "address",
          "name": "supplierAddress",
          "type": "address"
        },
        {
          "indexed": false,
          "internalType": "string",
          "name": "reason",
          "type": "string"
        }
      ],
      "name": "WSOrderCancelledBySupplier",
      "type": "event"
    },
    {
      "anonymous": false,
      "inputs": [
        {
          "indexed": true,
          "internalType": "uint256",
          "name": "wsOrderId",
          "type": "uint256"
        },
        {
          "indexed": true,
          "internalType": "address",
          "name": "warehouseManager",
          "type": "address"
        },
        {
          "indexed": false,
          "internalType": "string",
          "name": "reason",
          "type": "string"
        }
      ],
      "name": "WSOrderCancelledByWarehouse",
      "type": "event"
    },
    {
      "anonymous": false,
      "inputs": [
        {
          "indexed": true,
          "internalType": "uint256",
          "name": "wsOrderId",
          "type": "uint256"
        },
        {
          "indexed": true,
          "internalType": "address",
          "name": "supplierAddress",
          "type": "address"
        },
        {
          "indexed": false,
          "internalType": "uint256",
          "name": "amount",
          "type": "uint256"
        }
      ],
      "name": "WSOrderFundsReleasedToSupplier",
      "type": "event"
    },
    {
      "anonymous": false,
      "inputs": [
        {
          "indexed": true,
          "internalType": "uint256",
          "name": "wsOrderId",
          "type": "uint256"
        },
        {
          "indexed": true,
          "internalType": "address",
          "name": "warehouseAddress",
          "type": "address"
        },
        {
          "indexed": true,
          "internalType": "address",
          "name": "supplierAddress",
          "type": "address"
        },
        {
          "indexed": false,
          "internalType": "uint256",
          "name": "totalAmount",
          "type": "uint256"
        },
        {
          "indexed": false,
          "internalType": "string",
          "name": "internalSupplierOrderId",
          "type": "string"
        }
      ],
      "name": "WSOrderPlaced",
      "type": "event"
    },
    {
      "anonymous": false,
      "inputs": [
        {
          "indexed": true,
          "internalType": "uint256",
          "name": "wsOrderId",
          "type": "uint256"
        },
        {
          "indexed": true,
          "internalType": "address",
          "name": "warehouseManager",
          "type": "address"
        }
      ],
      "name": "WSOrderReceiptConfirmedByWarehouse",
      "type": "event"
    },
    {
      "anonymous": false,
      "inputs": [
        {
          "indexed": true,
          "internalType": "uint256",
          "name": "wsOrderId",
          "type": "uint256"
        },
        {
          "indexed": true,
          "internalType": "address",
          "name": "supplierAddress",
          "type": "address"
        }
      ],
      "name": "WSOrderShipmentConfirmedBySupplier",
      "type": "event"
    },
    {
      "anonymous": false,
      "inputs": [
        {
          "indexed": true,
          "internalType": "uint256",
          "name": "wsOrderId",
          "type": "uint256"
        },
        {
          "indexed": false,
          "internalType": "enum WarehouseSupplierOrderManagement.WSOrderStatus",
          "name": "newStatus",
          "type": "uint8"
        },
        {
          "indexed": false,
          "internalType": "uint256",
          "name": "timestamp",
          "type": "uint256"
        }
      ],
      "name": "WSOrderStatusUpdated",
      "type": "event"
    },
    {
      "anonymous": false,
      "inputs": [
        {
          "indexed": true,
          "internalType": "address",
          "name": "wimAddress",
          "type": "address"
        }
      ],
      "name": "WarehouseInventoryManagementAddressSet",
      "type": "event"
    },
    {
      "inputs": [],
      "name": "companyTreasuryManager",
      "outputs": [
        {
          "internalType": "contract ICompanyTreasuryManagerInterface",
          "name": "",
          "type": "address"
        }
      ],
      "stateMutability": "view",
      "type": "function",
      "constant": true
    },
    {
      "inputs": [],
      "name": "itemsManagementCore",
      "outputs": [
        {
          "internalType": "contract IItemsManagementCoreInterface",
          "name": "",
          "type": "address"
        }
      ],
      "stateMutability": "view",
      "type": "function",
      "constant": true
    },
    {
      "inputs": [],
      "name": "itemsPricingAndListing",
      "outputs": [
        {
          "internalType": "contract IItemsPricingAndListingInterface",
          "name": "",
          "type": "address"
        }
      ],
      "stateMutability": "view",
      "type": "function",
      "constant": true
    },
    {
      "inputs": [],
      "name": "nextWSOrderId",
      "outputs": [
        {
          "internalType": "uint256",
          "name": "",
          "type": "uint256"
        }
      ],
      "stateMutability": "view",
      "type": "function",
      "constant": true
    },
    {
      "inputs": [],
      "name": "owner",
      "outputs": [
        {
          "internalType": "address",
          "name": "",
          "type": "address"
        }
      ],
      "stateMutability": "view",
      "type": "function",
      "constant": true
    },
    {
      "inputs": [],
      "name": "renounceOwnership",
      "outputs": [],
      "stateMutability": "nonpayable",
      "type": "function"
    },
    {
      "inputs": [],
      "name": "roleManagement",
      "outputs": [
        {
          "internalType": "contract IRoleManagementInterface",
          "name": "",
          "type": "address"
        }
      ],
      "stateMutability": "view",
      "type": "function",
      "constant": true
    },
    {
      "inputs": [
        {
          "internalType": "address",
          "name": "",
          "type": "address"
        },
        {
          "internalType": "uint256",
          "name": "",
          "type": "uint256"
        }
      ],
      "name": "supplierReceivedOrderIds",
      "outputs": [
        {
          "internalType": "uint256",
          "name": "",
          "type": "uint256"
        }
      ],
      "stateMutability": "view",
      "type": "function",
      "constant": true
    },
    {
      "inputs": [
        {
          "internalType": "address",
          "name": "newOwner",
          "type": "address"
        }
      ],
      "name": "transferOwnership",
      "outputs": [],
      "stateMutability": "nonpayable",
      "type": "function"
    },
    {
      "inputs": [],
      "name": "warehouseInventoryManagement",
      "outputs": [
        {
          "internalType": "contract IWarehouseInventoryManagementInterface",
          "name": "",
          "type": "address"
        }
      ],
      "stateMutability": "view",
      "type": "function",
      "constant": true
    },
    {
      "inputs": [
        {
          "internalType": "address",
          "name": "",
          "type": "address"
        },
        {
          "internalType": "uint256",
          "name": "",
          "type": "uint256"
        }
      ],
      "name": "warehouseSentOrderIds",
      "outputs": [
        {
          "internalType": "uint256",
          "name": "",
          "type": "uint256"
        }
      ],
      "stateMutability": "view",
      "type": "function",
      "constant": true
    },
    {
      "inputs": [
        {
          "internalType": "uint256",
          "name": "",
          "type": "uint256"
        }
      ],
      "name": "wsOrders",
      "outputs": [
        {
          "internalType": "uint256",
          "name": "wsOrderId",
          "type": "uint256"
        },
        {
          "internalType": "address",
          "name": "warehouseAddress",
          "type": "address"
        },
        {
          "internalType": "address",
          "name": "warehouseManager",
          "type": "address"
        },
        {
          "internalType": "address",
          "name": "supplierAddress",
          "type": "address"
        },
        {
          "internalType": "uint256",
          "name": "totalAmount",
          "type": "uint256"
        },
        {
          "internalType": "enum WarehouseSupplierOrderManagement.WSOrderStatus",
          "name": "status",
          "type": "uint8"
        },
        {
          "internalType": "uint256",
          "name": "creationTimestamp",
          "type": "uint256"
        },
        {
          "internalType": "uint256",
          "name": "lastUpdateTimestamp",
          "type": "uint256"
        },
        {
          "internalType": "bool",
          "name": "fundsEscrowed",
          "type": "bool"
        },
        {
          "internalType": "bool",
          "name": "fundsReleasedToSupplier",
          "type": "bool"
        },
        {
          "internalType": "string",
          "name": "internalSupplierOrderId",
          "type": "string"
        }
      ],
      "stateMutability": "view",
      "type": "function",
      "constant": true
    },
    {
      "inputs": [
        {
          "internalType": "address",
          "name": "_wimAddress",
          "type": "address"
        }
      ],
      "name": "setWarehouseInventoryManagementAddress",
      "outputs": [],
      "stateMutability": "nonpayable",
      "type": "function"
    },
    {
      "inputs": [
        {
          "internalType": "address",
          "name": "_warehouseAddress",
          "type": "address"
        },
        {
          "internalType": "address",
          "name": "_supplierAddress",
          "type": "address"
        },
        {
          "components": [
            {
              "internalType": "string",
              "name": "itemId",
              "type": "string"
            },
            {
              "internalType": "uint256",
              "name": "quantity",
              "type": "uint256"
            }
          ],
          "internalType": "struct WarehouseSupplierOrderManagement.WSOrderItemInput[]",
          "name": "_itemsInput",
          "type": "tuple[]"
        }
      ],
      "name": "placeOrderByWarehouse",
      "outputs": [],
      "stateMutability": "nonpayable",
      "type": "function"
    },
    {
      "inputs": [
        {
          "internalType": "uint256",
          "name": "_wsOrderId",
          "type": "uint256"
        }
      ],
      "name": "supplierConfirmShipment",
      "outputs": [],
      "stateMutability": "nonpayable",
      "type": "function"
    },
    {
      "inputs": [
        {
          "internalType": "uint256",
          "name": "_wsOrderId",
          "type": "uint256"
        }
      ],
      "name": "warehouseConfirmReceipt",
      "outputs": [],
      "stateMutability": "nonpayable",
      "type": "function"
    },
    {
      "inputs": [
        {
          "internalType": "uint256",
          "name": "_wsOrderId",
          "type": "uint256"
        },
        {
          "internalType": "string",
          "name": "_reason",
          "type": "string"
        }
      ],
      "name": "cancelOrderByWarehouse",
      "outputs": [],
      "stateMutability": "nonpayable",
      "type": "function"
    },
    {
      "inputs": [
        {
          "internalType": "uint256",
          "name": "_wsOrderId",
          "type": "uint256"
        },
        {
          "internalType": "string",
          "name": "_reason",
          "type": "string"
        }
      ],
      "name": "cancelOrderBySupplier",
      "outputs": [],
      "stateMutability": "nonpayable",
      "type": "function"
    },
    {
      "inputs": [
        {
          "internalType": "uint256",
          "name": "_wsOrderId",
          "type": "uint256"
        }
      ],
      "name": "getWSOrderDetails",
      "outputs": [
        {
          "components": [
            {
              "internalType": "uint256",
              "name": "wsOrderId",
              "type": "uint256"
            },
            {
              "internalType": "address",
              "name": "warehouseAddress",
              "type": "address"
            },
            {
              "internalType": "address",
              "name": "warehouseManager",
              "type": "address"
            },
            {
              "internalType": "address",
              "name": "supplierAddress",
              "type": "address"
            },
            {
              "components": [
                {
                  "internalType": "string",
                  "name": "itemId",
                  "type": "string"
                },
                {
                  "internalType": "uint256",
                  "name": "quantity",
                  "type": "uint256"
                },
                {
                  "internalType": "uint256",
                  "name": "unitPrice",
                  "type": "uint256"
                }
              ],
              "internalType": "struct WarehouseSupplierOrderManagement.WSOrderItem[]",
              "name": "items",
              "type": "tuple[]"
            },
            {
              "internalType": "uint256",
              "name": "totalAmount",
              "type": "uint256"
            },
            {
              "internalType": "enum WarehouseSupplierOrderManagement.WSOrderStatus",
              "name": "status",
              "type": "uint8"
            },
            {
              "internalType": "uint256",
              "name": "creationTimestamp",
              "type": "uint256"
            },
            {
              "internalType": "uint256",
              "name": "lastUpdateTimestamp",
              "type": "uint256"
            },
            {
              "internalType": "bool",
              "name": "fundsEscrowed",
              "type": "bool"
            },
            {
              "internalType": "bool",
              "name": "fundsReleasedToSupplier",
              "type": "bool"
            },
            {
              "internalType": "string",
              "name": "internalSupplierOrderId",
              "type": "string"
            }
          ],
          "internalType": "struct WarehouseSupplierOrderManagement.WSOrder",
          "name": "",
          "type": "tuple"
        }
      ],
      "stateMutability": "view",
      "type": "function",
      "constant": true
    },
    {
      "inputs": [
        {
          "internalType": "address",
          "name": "_warehouseAddress",
          "type": "address"
        }
      ],
      "name": "getWarehouseSentOrders",
      "outputs": [
        {
          "internalType": "uint256[]",
          "name": "",
          "type": "uint256[]"
        }
      ],
      "stateMutability": "view",
      "type": "function",
      "constant": true
    },
    {
      "inputs": [
        {
          "internalType": "address",
          "name": "_supplierAddress",
          "type": "address"
        }
      ],
      "name": "getSupplierReceivedOrders",
      "outputs": [
        {
          "internalType": "uint256[]",
          "name": "",
          "type": "uint256[]"
        }
      ],
      "stateMutability": "view",
      "type": "function",
      "constant": true
    }
  ],
  "bytecode": "0x6101006040523480156200001257600080fd5b5060405162003dc038038062003dc0833981016040819052620000359162000269565b6001600081815581546001600160a01b031916339081179092556040518291907f8be0079c531659141344cd1fd0a4f28419497f9722a3daafe3b4186f6b6457e0908290a3506001600160a01b038416620000d75760405162461bcd60e51b815260206004820152601d60248201527f57534f4d3a204469612063686920524d206b686f6e6720686f70206c6500000060448201526064015b60405180910390fd5b6001600160601b0319606085901b166080526001600160a01b0383166200014f5760405162461bcd60e51b815260206004820152602560248201527f57534f4d3a2044696120636869204974656d734d436f7265206b686f6e6720686044820152646f70206c6560d81b6064820152608401620000ce565b6001600160601b0319606084901b1660a0526001600160a01b038216620001c45760405162461bcd60e51b815260206004820152602260248201527f57534f4d3a2044696120636869204974656d73504c206b686f6e6720686f70206044820152616c6560f01b6064820152608401620000ce565b6001600160601b0319606083901b1660c0526001600160a01b0381166200022e5760405162461bcd60e51b815260206004820152601e60248201527f57534f4d3a20446961206368692043544d206b686f6e6720686f70206c6500006044820152606401620000ce565b60601b6001600160601b03191660e0525050600160035550620002c5565b80516001600160a01b03811681146200026457600080fd5b919050565b600080600080608085870312156200027f578384fd5b6200028a856200024c565b93506200029a602086016200024c565b9250620002aa604086016200024c565b9150620002ba606086016200024c565b905092959194509250565b60805160601c60a05160601c60c05160601c60e05160601c613a3062000390600039600081816101c901528181611ba8015281816124d401528181612554015281816125f40152818161280d0152612a21015260008181610222015261229a01526000818161014c0152818161067701526109c50152600081816102a10152818161038a01528181610433015281816107ae0152818161085701528181610e8b01528181610f3401528181611601015281816116aa01528181611886015261192f0152613a306000f3fe608060405234801561001057600080fd5b50600436106101075760003560e01c80630d04c9991461010c578063235955441461012157806325526f97146101345780632eb3292f1461014757806355c64cc81461018457806359fe0450146101a45780635f677881146101c4578063715018a6146101eb5780637a76038c146101f35780637b6222151461021d5780638da5cb5b14610244578063a85fd4611461024c578063ab20371a1461026d578063b26ba06c14610280578063b34b29a314610289578063b977ba181461029c578063cf2a863e146102c3578063d21cab1d146102d6578063dd7f3253146102e9578063f2fde38b146102fc578063f4ddd27a1461030f575b600080fd5b61011f61011a366004613033565b610322565b005b61011f61012f366004612d0a565b610606565b61011f61014236600461304b565b610e2c565b61016e7f000000000000000000000000000000000000000000000000000000000000000081565b60405161017b91906131ec565b60405180910390f35b610197610192366004612ce7565b61105c565b60405161017b9190613362565b6101b76101b2366004613033565b6110c8565b60405161017b91906135e3565b61016e7f000000000000000000000000000000000000000000000000000000000000000081565b61011f6113fe565b610206610201366004613033565b611465565b60405161017b9b9a999897969594939291906136c2565b61016e7f000000000000000000000000000000000000000000000000000000000000000081565b61016e611562565b61025f61025a366004612d99565b611571565b60405190815260200161017b565b61011f61027b36600461304b565b6115a2565b61025f60035481565b60025461016e906001600160a01b031681565b61016e7f000000000000000000000000000000000000000000000000000000000000000081565b6101976102d1366004612ce7565b6117bd565b61011f6102e4366004613033565b611827565b61025f6102f7366004612d99565b611efb565b61011f61030a366004612ce7565b611f17565b61011f61031d366004612ce7565b611ff5565b6000818152600460205260409020805482919061035a5760405162461bcd60e51b815260040161035190613488565b60405180910390fd5b60038101546001600160a01b031633146103865760405162461bcd60e51b8152600401610351906133f4565b60007f00000000000000000000000000000000000000000000000000000000000000006001600160a01b031663a29508fc6040518163ffffffff1660e01b815260040160206040518083038186803b1580156103e157600080fd5b505afa1580156103f5573d6000803e3d6000fd5b505050506040513d601f19601f820116820180604052508101906104199190612dde565b604051632474521560e21b81529091506001600160a01b037f000000000000000000000000000000000000000000000000000000000000000016906391d148549061046a90849033906004016133a6565b60206040518083038186803b15801561048257600080fd5b505afa158015610496573d6000803e3d6000fd5b505050506040513d601f19601f820116820180604052508101906104ba9190612dc4565b6104d65760405162461bcd60e51b81526004016103519061356b565b600260005414156104f95760405162461bcd60e51b8152600401610351906135ac565b6002600090815584815260046020526040812090600682015460ff16600481111561053457634e487b7160e01b600052602160045260246000fd5b146105875760405162461bcd60e51b815260206004820152602f602482015260008051602061397b83398151915260448201526e692063686f206769616f2068616e6760881b6064820152608401610351565b60068101805460ff19166001179055426008820155604051339086907fb6f72180d63baa4edcd43d4ac9ecba3df06a50e8d13785f2a76025ec6e82aea590600090a3600681015460405186916000805160206139db833981519152916105f29160ff169042906133bd565b60405180910390a250506001600055505050565b836001600160a01b03811661065d5760405162461bcd60e51b815260206004820152601e60248201527f57534f4d3a2044696120636869206b686f206b686f6e6720686f70206c6500006044820152606401610351565b604051637160572b60e01b81526000906001600160a01b037f00000000000000000000000000000000000000000000000000000000000000001690637160572b906106ac9085906004016131ec565b60006040518083038186803b1580156106c457600080fd5b505afa1580156106d8573d6000803e3d6000fd5b505050506040513d6000823e601f3d908101601f191682016040526107009190810190612df6565b9050806080015161074d5760405162461bcd60e51b815260206004820152601760248201527657534f4d3a204b686f206b686f6e6720746f6e2074616960481b6044820152606401610351565b60608101516001600160a01b031633146107aa5760405162461bcd60e51b815260206004820152602a60248201526000805160206139bb8339815191526044820152696c79206b686f206e617960b01b6064820152608401610351565b60007f00000000000000000000000000000000000000000000000000000000000000006001600160a01b0316636250e0566040518163ffffffff1660e01b815260040160206040518083038186803b15801561080557600080fd5b505afa158015610819573d6000803e3d6000fd5b505050506040513d601f19601f8201168201806040525081019061083d9190612dde565b604051632474521560e21b81529091506001600160a01b037f000000000000000000000000000000000000000000000000000000000000000016906391d148549061088e90849033906004016133a6565b60206040518083038186803b1580156108a657600080fd5b505afa1580156108ba573d6000803e3d6000fd5b505050506040513d601f19601f820116820180604052508101906108de9190612dc4565b6108fa5760405162461bcd60e51b81526004016103519061343f565b6002600054141561091d5760405162461bcd60e51b8152600401610351906135ac565b60026000819055546001600160a01b031661094a5760405162461bcd60e51b815260040161035190613534565b836109ab5760405162461bcd60e51b815260206004820152602b60248201527f57534f4d3a20446f6e2068616e67207068616920636f206974206e686174206d60448201526a6f74206d61742068616e6760a81b6064820152608401610351565b604051631650d7c160e21b81526000906001600160a01b037f000000000000000000000000000000000000000000000000000000000000000016906359435f04906109fa908a906004016131ec565b60006040518083038186803b158015610a1257600080fd5b505afa158015610a26573d6000803e3d6000fd5b505050506040513d6000823e601f3d908101601f19168201604052610a4e9190810190612ed6565b905080606001518015610a62575080604001515b610ac65760405162461bcd60e51b815260206004820152602f60248201527f57534f4d3a204e4343206b686f6e6720686f70206c6520686f6163206368756160448201526e08191d5bd8c81c1a1948191d5e595d608a1b6064820152608401610351565b6003805460009182610ad7836138f1565b9190505590506000610ae8826120c4565b604051602001610af891906131b9565b604051602081830303815290604052905060006004600084815260200190815260200160002090508281600001819055508a8160010160006101000a8154816001600160a01b0302191690836001600160a01b03160217905550338160020160006101000a8154816001600160a01b0302191690836001600160a01b03160217905550898160030160006101000a8154816001600160a01b0302191690836001600160a01b0316021790555060008160060160006101000a81548160ff02191690836004811115610bd957634e487b7160e01b600052602160045260246000fd5b0217905550426007820181905560088201558151610c0090600a8301906020850190612ba9565b50610c1089898c846004016121e8565b60058201819055610c765760405162461bcd60e51b815260206004820152602a60248201527f57534f4d3a20546f6e67206769612074726920646f6e2068616e6720706861696044820152690206c6f6e20686f6e20360b41b6064820152608401610351565b6000610c888c8c8585600501546124a8565b905080610ce15760405162461bcd60e51b815260206004820152602160248201527f57534f4d3a204b7920717579207469656e2074752043544d20746861742062616044820152606960f81b6064820152608401610351565b60018260090160006101000a81548160ff021916908315150217905550600560008d6001600160a01b03166001600160a01b03168152602001908152602001600020849080600181540180825580915050600190039060005260206000200160009091909190915055600660008c6001600160a01b03166001600160a01b031681526020019081526020016000208490806001815401808255809150506001900390600052602060002001600090919091909150558a6001600160a01b03168c6001600160a01b0316857fca5524882b8d6e81c9e5fe2d8c67f0f754c7036d71705466735472a0a1938523856005015487604051610de0929190613740565b60405180910390a4600682015460405185916000805160206139db83398151915291610e119160ff169042906133bd565b60405180910390a25050600160005550505050505050505050565b60008381526004602052604090208054849190610e5b5760405162461bcd60e51b815260040161035190613488565b60028101546001600160a01b03163314610e875760405162461bcd60e51b8152600401610351906134f3565b60007f00000000000000000000000000000000000000000000000000000000000000006001600160a01b0316636250e0566040518163ffffffff1660e01b815260040160206040518083038186803b158015610ee257600080fd5b505afa158015610ef6573d6000803e3d6000fd5b505050506040513d601f19601f82011682018060405250810190610f1a9190612dde565b604051632474521560e21b81529091506001600160a01b037f000000000000000000000000000000000000000000000000000000000000000016906391d1485490610f6b90849033906004016133a6565b60206040518083038186803b158015610f8357600080fd5b505afa158015610f97573d6000803e3d6000fd5b505050506040513d601f19601f82011682018060405250810190610fbb9190612dc4565b610fd75760405162461bcd60e51b81526004016103519061343f565b60026000541415610ffa5760405162461bcd60e51b8152600401610351906135ac565b600260005561100b86600333612907565b336001600160a01b0316867fd781810a411caea390040732c2c51eb255b78adc2f307aa228013e4921ced23587876040516110479291906133d8565b60405180910390a35050600160005550505050565b6001600160a01b0381166000908152600660209081526040918290208054835181840281018401909452808452606093928301828280156110bc57602002820191906000526020600020905b8154815260200190600101908083116110a8575b50505050509050919050565b61112f60408051610180810182526000808252602082018190529181018290526060808201839052608082015260a081018290529060c082019081526020016000815260200160008152602001600015158152602001600015158152602001606081525090565b60008281526004602052604090205461118a5760405162461bcd60e51b815260206004820152601d60248201527f57534f4d3a20446f6e2068616e67206b686f6e672074696d20746861790000006044820152606401610351565b60008281526004602081815260408084208151610180810183528154815260018201546001600160a01b03908116828601526002830154811682850152600383015416606082015293810180548351818602810186019094528084529495919460808701949192909184015b828210156112ce5783829060005260206000209060030201604051806060016040529081600082018054611229906138b6565b80601f0160208091040260200160405190810160405280929190818152602001828054611255906138b6565b80156112a25780601f10611277576101008083540402835291602001916112a2565b820191906000526020600020905b81548152906001019060200180831161128557829003601f168201915b5050505050815260200160018201548152602001600282015481525050815260200190600101906111f6565b5050509082525060058201546020820152600682015460409091019060ff16600481111561130c57634e487b7160e01b600052602160045260246000fd5b600481111561132b57634e487b7160e01b600052602160045260246000fd5b81526007820154602082015260088201546040820152600982015460ff808216151560608401526101009091041615156080820152600a8201805460a090920191611375906138b6565b80601f01602080910402602001604051908101604052809291908181526020018280546113a1906138b6565b80156113ee5780601f106113c3576101008083540402835291602001916113ee565b820191906000526020600020905b8154815290600101906020018083116113d157829003601f168201915b5050505050815250509050919050565b33611407611562565b6001600160a01b03161461142d5760405162461bcd60e51b8152600401610351906134be565b6001546040516000916001600160a01b03169060008051602061399b833981519152908390a3600180546001600160a01b0319169055565b6004602052600090815260409020805460018201546002830154600384015460058501546006860154600787015460088801546009890154600a8a018054999a6001600160a01b03998a169a988a169990971697959660ff958616969495939484841694610100909404909316929091906114df906138b6565b80601f016020809104026020016040519081016040528092919081815260200182805461150b906138b6565b80156115585780601f1061152d57610100808354040283529160200191611558565b820191906000526020600020905b81548152906001019060200180831161153b57829003601f168201915b505050505090508b565b6001546001600160a01b031690565b6005602052816000526040600020818154811061158d57600080fd5b90600052602060002001600091509150505481565b600083815260046020526040902080548491906115d15760405162461bcd60e51b815260040161035190613488565b60038101546001600160a01b031633146115fd5760405162461bcd60e51b8152600401610351906133f4565b60007f00000000000000000000000000000000000000000000000000000000000000006001600160a01b031663a29508fc6040518163ffffffff1660e01b815260040160206040518083038186803b15801561165857600080fd5b505afa15801561166c573d6000803e3d6000fd5b505050506040513d601f19601f820116820180604052508101906116909190612dde565b604051632474521560e21b81529091506001600160a01b037f000000000000000000000000000000000000000000000000000000000000000016906391d14854906116e190849033906004016133a6565b60206040518083038186803b1580156116f957600080fd5b505afa15801561170d573d6000803e3d6000fd5b505050506040513d601f19601f820116820180604052508101906117319190612dc4565b61174d5760405162461bcd60e51b81526004016103519061356b565b600260005414156117705760405162461bcd60e51b8152600401610351906135ac565b600260005561178186600433612907565b336001600160a01b0316867f2f08073ee23e78e5da4b0af1367e579251ebd22078ee866c900b46a1621844a387876040516110479291906133d8565b6001600160a01b0381166000908152600560209081526040918290208054835181840281018401909452808452606093928301828280156110bc57602002820191906000526020600020908154815260200190600101908083116110a85750505050509050919050565b600081815260046020526040902080548291906118565760405162461bcd60e51b815260040161035190613488565b60028101546001600160a01b031633146118825760405162461bcd60e51b8152600401610351906134f3565b60007f00000000000000000000000000000000000000000000000000000000000000006001600160a01b0316636250e0566040518163ffffffff1660e01b815260040160206040518083038186803b1580156118dd57600080fd5b505afa1580156118f1573d6000803e3d6000fd5b505050506040513d601f19601f820116820180604052508101906119159190612dde565b604051632474521560e21b81529091506001600160a01b037f000000000000000000000000000000000000000000000000000000000000000016906391d148549061196690849033906004016133a6565b60206040518083038186803b15801561197e57600080fd5b505afa158015611992573d6000803e3d6000fd5b505050506040513d601f19601f820116820180604052508101906119b69190612dc4565b6119d25760405162461bcd60e51b81526004016103519061343f565b600260005414156119f55760405162461bcd60e51b8152600401610351906135ac565b600260009081558481526004602052604090206001600682015460ff166004811115611a3157634e487b7160e01b600052602160045260246000fd5b14611a885760405162461bcd60e51b815260206004820152602160248201527f57534f4d3a20446f6e2068616e6720636875612064756f63204e4343206769616044820152606f60f81b6064820152608401610351565b600981015460ff16611af15760405162461bcd60e51b815260206004820152602c60248201527f57534f4d3a205469656e20636875612064756f63206b79207175792063686f2060448201526b646f6e2068616e67206e617960a01b6064820152608401610351565b6009810154610100900460ff1615611b5c5760405162461bcd60e51b815260206004820152602860248201527f57534f4d3a205469656e2064612064756f632067696169206e67616e2063686f604482015267204e434320726f6960c01b6064820152608401610351565b6002546001600160a01b0316611b845760405162461bcd60e51b815260040161035190613534565b600381015460058201546040516351aeb57760e01b81526000926001600160a01b037f00000000000000000000000000000000000000000000000000000000000000008116936351aeb57793611be69390921691600a880191906004016132a2565b602060405180830381600087803b158015611c0057600080fd5b505af1158015611c14573d6000803e3d6000fd5b505050506040513d601f19601f82011682018060405250810190611c389190612dc4565b905080611c9c5760405162461bcd60e51b815260206004820152602c60248201527f57534f4d3a2047696169206e67616e207469656e2063686f204e43432074752060448201526b43544d20746861742062616960a01b6064820152608401610351565b60068201805460ff1916600217905560098201805461010061ff001990911617905542600883015560005b6004830154811015611e44576000836004018281548110611cf857634e487b7160e01b600052603260045260246000fd5b9060005260206000209060030201604051806060016040529081600082018054611d21906138b6565b80601f0160208091040260200160405190810160405280929190818152602001828054611d4d906138b6565b8015611d9a5780601f10611d6f57610100808354040283529160200191611d9a565b820191906000526020600020905b815481529060010190602001808311611d7d57829003601f168201915b50505091835250506001828101546020808401919091526002938401546040938401529254908801548451938501519251635f3bf83960e11b81529495506001600160a01b039182169463be77f07294611dfe949390921692908e9060040161326b565b600060405180830381600087803b158015611e1857600080fd5b505af1158015611e2c573d6000803e3d6000fd5b50505050508080611e3c906138f1565b915050611cc7565b50604051339087907f92735abfa431d1388bc95bba2eb82528b69299773967b2e63b0a617efe3ef9bb90600090a3600382015460058301546040519081526001600160a01b039091169087907f6c3a76b1fd63a9e0a000ed4ece8f7f99d32f68ce757586538026bbaae41fd0059060200160405180910390a3600682015460405187916000805160206139db83398151915291611ee69160ff169042906133bd565b60405180910390a25050600160005550505050565b6006602052816000526040600020818154811061158d57600080fd5b33611f20611562565b6001600160a01b031614611f465760405162461bcd60e51b8152600401610351906134be565b6001600160a01b038116611fab5760405162461bcd60e51b815260206004820152602660248201527f4f776e61626c653a206e6577206f776e657220697320746865207a65726f206160448201526564647265737360d01b6064820152608401610351565b6001546040516001600160a01b0380841692169060008051602061399b83398151915290600090a3600180546001600160a01b0319166001600160a01b0392909216919091179055565b33611ffe611562565b6001600160a01b0316146120245760405162461bcd60e51b8152600401610351906134be565b6001600160a01b03811661207a5760405162461bcd60e51b815260206004820152601e60248201527f57534f4d3a20446961206368692057494d206b686f6e6720686f70206c6500006044820152606401610351565b600280546001600160a01b0319166001600160a01b0383169081179091556040517f9d00bdb4c1bf918df98c2197d7890603abf58babbc46d1a0442c1d92855fa12990600090a250565b6060816120e85750506040805180820190915260018152600360fc1b602082015290565b8160005b811561211257806120fc816138f1565b915061210b9050600a83613825565b91506120ec565b6000816001600160401b0381111561213a57634e487b7160e01b600052604160045260246000fd5b6040519080825280601f01601f191660200182016040528015612164576020820181803683370190505b509050815b85156121df57806121798161389f565b91506121889050600a8761390c565b61219390603061380d565b60f81b8282815181106121b657634e487b7160e01b600052603260045260246000fd5b60200101906001600160f81b031916908160001a9053506121d8600a87613825565b9550612169565b50949350505050565b6000805b848110156121df573686868381811061221557634e487b7160e01b600052603260045260246000fd5b905060200281019061222791906137a4565b9050600081602001351161228e5760405162461bcd60e51b815260206004820152602860248201527f57534f4d3a20536f206c756f6e67206d61742068616e672070686169206c6120604482015267736f2064756f6e6760c01b6064820152608401610351565b60006001600160a01b037f00000000000000000000000000000000000000000000000000000000000000001663f063e029876122ca8580613759565b6040518463ffffffff1660e01b81526004016122e89392919061323d565b60006040518083038186803b15801561230057600080fd5b505afa158015612314573d6000803e3d6000fd5b505050506040513d6000823e601f3d908101601f1916820160405261233c9190810190612f89565b905080608001518015612350575080606001515b6123d05760405162461bcd60e51b8152602060048201526044602482018190527f57534f4d3a204d61742068616e6720637561204e4343206b686f6e6720636f20908201527f73616e20686f616320636875612064756f632070686520647579657420626f696064820152630408488960e31b608482015260a401610351565b60408051606081019091528590806123e88580613759565b8080601f01602080910402602001604051908101604052809392919081815260200183838082843760009201829052509385525050506020868101358184015260408681015193019290925283546001810185559381528190208251805193946003029091019261245c9284920190612ba9565b5060208201518160010155604082015181600201555050816020013581604001516124879190613839565b612491908561380d565b9350505080806124a0906138f1565b9150506121ec565b60405163ef1ac8a960e01b81526001600160a01b038581166004830152848116602483015260009182917f0000000000000000000000000000000000000000000000000000000000000000169063ef1ac8a99060440160206040518083038186803b15801561251657600080fd5b505afa15801561252a573d6000803e3d6000fd5b505050506040513d601f19601f8201168201806040525081019061254e9190612dde565b905060007f00000000000000000000000000000000000000000000000000000000000000006001600160a01b0316638b77b9a9886040518263ffffffff1660e01b815260040161259e91906131ec565b60206040518083038186803b1580156125b657600080fd5b505afa1580156125ca573d6000803e3d6000fd5b505050506040513d601f19601f820116820180604052508101906125ee9190612dde565b905060007f00000000000000000000000000000000000000000000000000000000000000006001600160a01b031663d505ea1f6040518163ffffffff1660e01b815260040160206040518083038186803b15801561264b57600080fd5b505afa15801561265f573d6000803e3d6000fd5b505050506040513d601f19601f820116820180604052508101906126839190612dde565b9050600083116126fb5760405162461bcd60e51b815260206004820152603e60248201527f57534f4d3a204b686f6e6720636f206368696e6820736163682063686920746960448201527f6575207475204e67616e207175792063686f206b686f2f6e6363206e617900006064820152608401610351565b82851115612773576040805162461bcd60e51b81526020600482015260248101919091527f57534f4d3a204769612074726920646f6e2068616e672076756f74207175612060448201527f6368696e682073616368206368692074696575206d6f6920646f6e2068616e676064820152608401610351565b600061277f868461380d565b9050818111156127f35760405162461bcd60e51b815260206004820152603960248201527f57534f4d3a20446f6e2068616e672076756f74207175612067696f692068616e6044820152782063686920746965752064696e68206b7920637561206b686f60381b6064820152608401610351565b60405163aa9ce11f60e01b81526000906001600160a01b037f0000000000000000000000000000000000000000000000000000000000000000169063aa9ce11f90612848908d908d908d908d90600401613200565b602060405180830381600087803b15801561286257600080fd5b505af1158015612876573d6000803e3d6000fd5b505050506040513d601f19601f8201168201806040525081019061289a9190612dc4565b90506004600060016003546128af9190613858565b8152602001908152602001600020600001547f4629bbe18e5b4f4ed30c48c723e468f1f198563313c15b138219d35c4e7a30d5888a6040516128f2929190613740565b60405180910390a29998505050505050505050565b600083815260046020526040812090600682015460ff16600481111561293d57634e487b7160e01b600052602160045260246000fd5b1461298d5760405162461bcd60e51b815260206004820152602c602482015260008051602061397b83398151915260448201526b6920636f207468652068757960a01b6064820152608401610351565b600981015460ff166129fd5760405162461bcd60e51b815260206004820152603360248201527f57534f4d3a205469656e20636875612064756f63206b79207175792028686f616044820152726320646120626920687579292064652068757960681b6064820152608401610351565b60018101546005820154604051636d7a2ea760e11b81526000926001600160a01b037f000000000000000000000000000000000000000000000000000000000000000081169363daf45d4e93612a5f9390921691600a880191906004016132a2565b602060405180830381600087803b158015612a7957600080fd5b505af1158015612a8d573d6000803e3d6000fd5b505050506040513d601f19601f82011682018060405250810190612ab19190612dc4565b905080612b28576040805162461bcd60e51b81526020600482015260248101919091527f57534f4d3a20486f616e20747261207469656e206b792071757920766520435460448201527f4d2074686174206261692c20766965632068757920626920686f616e207461636064820152608401610351565b60068201805485919060ff19166001836004811115612b5757634e487b7160e01b600052602160045260246000fd5b021790555060098201805460ff191690554260088301819055600683015460405187926000805160206139db83398151915292612b9a9260ff90911691906133bd565b60405180910390a25050505050565b828054612bb5906138b6565b90600052602060002090601f016020900481019282612bd75760008555612c1d565b82601f10612bf057805160ff1916838001178555612c1d565b82800160010185558215612c1d579182015b82811115612c1d578251825591602001919060010190612c02565b50612c29929150612c2d565b5090565b5b80821115612c295760008155600101612c2e565b8051612c4d81613962565b919050565b80518015158114612c4d57600080fd5b600082601f830112612c72578081fd5b81516001600160401b0380821115612c8c57612c8c61394c565b604051601f8301601f19908116603f01168101908282118183101715612cb457612cb461394c565b81604052838152866020858801011115612ccc578485fd5b612cdd84602083016020890161386f565b9695505050505050565b600060208284031215612cf8578081fd5b8135612d0381613962565b9392505050565b60008060008060608587031215612d1f578283fd5b8435612d2a81613962565b93506020850135612d3a81613962565b925060408501356001600160401b0380821115612d55578384fd5b818701915087601f830112612d68578384fd5b813581811115612d76578485fd5b8860208260051b8501011115612d8a578485fd5b95989497505060200194505050565b60008060408385031215612dab578182fd5b8235612db681613962565b946020939093013593505050565b600060208284031215612dd5578081fd5b612d0382612c52565b600060208284031215612def578081fd5b5051919050565b600060208284031215612e07578081fd5b81516001600160401b0380821115612e1d578283fd5b9083019060e08286031215612e30578283fd5b612e386137c3565b612e4183612c42565b8152602083015182811115612e54578485fd5b612e6087828601612c62565b602083015250604083015182811115612e77578485fd5b612e8387828601612c62565b604083015250612e9560608401612c42565b6060820152612ea660808401612c52565b6080820152612eb760a08401612c52565b60a0820152612ec860c08401612c42565b60c082015295945050505050565b600060208284031215612ee7578081fd5b81516001600160401b0380821115612efd578283fd5b9083019060808286031215612f10578283fd5b604051608081018181108382111715612f2b57612f2b61394c565b6040528251612f3981613962565b8152602083015182811115612f4c578485fd5b612f5887828601612c62565b602083015250612f6a60408401612c52565b6040820152612f7b60608401612c52565b606082015295945050505050565b600060208284031215612f9a578081fd5b81516001600160401b0380821115612fb0578283fd5b9083019060a08286031215612fc3578283fd5b612fcb6137eb565b825182811115612fd9578485fd5b612fe587828601612c62565b82525060208301519150612ff882613962565b8160208201526040830151604082015261301460608401612c52565b606082015261302560808401612c52565b608082015295945050505050565b600060208284031215613044578081fd5b5035919050565b60008060006040848603121561305f578283fd5b8335925060208401356001600160401b038082111561307c578384fd5b818601915086601f83011261308f578384fd5b81358181111561309d578485fd5b8760208285010111156130ae578485fd5b6020830194508093505050509250925092565b6001600160a01b03169052565b600081518084526020808501808196508360051b81019150828601855b8581101561313557828403895281516060815181875261310d8288018261318d565b83890151888a01526040938401519390970192909252505097840197908401906001016130eb565b5091979650505050505050565b6005811061316057634e487b7160e01b600052602160045260246000fd5b9052565b81835281816020850137506000828201602090810191909152601f909101601f19169091010190565b600081518084526131a581602086016020860161386f565b601f01601f19169290920160200192915050565b6a57534f4d2d4f524445522d60a81b8152600082516131df81600b85016020870161386f565b91909101600b0192915050565b6001600160a01b0391909116815260200190565b6001600160a01b0385811682528416602082015260806040820181905260009061322c9083018561318d565b905082606083015295945050505050565b6001600160a01b03841681526040602082018190526000906132629083018486613164565b95945050505050565b6001600160a01b038516815260806020820181905260009061328f9083018661318d565b6040830194909452506060015292915050565b60018060a01b03841681526000602060608184015281855483600182811c9150808316806132d157607f831692505b8583108114156132ef57634e487b7160e01b87526022600452602487fd5b606088018390526080880181801561330e576001811461331f57613349565b60ff19861682528782019650613349565b60008c815260209020895b868110156133435781548482015290850190890161332a565b83019750505b5050505050508092505050826040830152949350505050565b6020808252825182820181905260009190848201906040850190845b8181101561339a5783518352928401929184019160010161337e565b50909695505050505050565b9182526001600160a01b0316602082015260400190565b604081016133cb8285613142565b8260208301529392505050565b6020815260006133ec602083018486613164565b949350505050565b6020808252602b908201527f57534f4d3a204e67756f6920676f69206b686f6e672070686169204e4343206360408201526a756120646f6e2068616e6760a81b606082015260800190565b60208082526029908201527f57534f4d3a204e67756f6920676f69207468696575207661692074726f205155604082015268414e5f4c595f4b484f60b81b606082015260800190565b6020808252601c908201527b57534f4d3a20446f6e2068616e67206b686f6e6720746f6e2074616960201b604082015260600190565b6020808252818101527f4f776e61626c653a2063616c6c6572206973206e6f7420746865206f776e6572604082015260600190565b60208082526033908201526000805160206139bb8339815191526040820152726c79206b686f2063756120646f6e2068616e6760681b606082015260800190565b6020808252601f908201527f57534f4d3a20446961206368692057494d20636875612064756f632064617400604082015260600190565b60208082526021908201527f57534f4d3a204e67756f6920676f69207468696575207661692074726f204e436040820152604360f81b606082015260800190565b6020808252601f908201527f5265656e7472616e637947756172643a207265656e7472616e742063616c6c00604082015260600190565b60208152815160208201526000602083015161360260408401826130c1565b50604083015161361560608401826130c1565b50606083015161362860808401826130c1565b5060808301516101808060a08501526136456101a08501836130ce565b915060a085015160c085015260c085015161366360e0860182613142565b5060e085015161010085810191909152850151610120808601919091528501516101406136938187018315159052565b86015190506101606136a88682018315159052565b860151858403601f1901838701529050612cdd838261318d565b8b81526001600160a01b038b811660208301528a81166040830152891660608201526080810188905260006101606136fd60a084018a613142565b8760c08401528660e08401528515156101008401528415156101208401528061014084015261372e8184018561318d565b9e9d5050505050505050505050505050565b8281526040602082015260006133ec604083018461318d565b6000808335601e1984360301811261376f578283fd5b8301803591506001600160401b03821115613788578283fd5b60200191503681900382131561379d57600080fd5b9250929050565b60008235603e198336030181126137b9578182fd5b9190910192915050565b60405160e081016001600160401b03811182821017156137e5576137e561394c565b60405290565b60405160a081016001600160401b03811182821017156137e5576137e561394c565b6000821982111561382057613820613920565b500190565b60008261383457613834613936565b500490565b600081600019048311821515161561385357613853613920565b500290565b60008282101561386a5761386a613920565b500390565b60005b8381101561388a578181015183820152602001613872565b83811115613899576000848401525b50505050565b6000816138ae576138ae613920565b506000190190565b600181811c908216806138ca57607f821691505b602082108114156138eb57634e487b7160e01b600052602260045260246000fd5b50919050565b600060001982141561390557613905613920565b5060010190565b60008261391b5761391b613936565b500690565b634e487b7160e01b600052601160045260246000fd5b634e487b7160e01b600052601260045260246000fd5b634e487b7160e01b600052604160045260246000fd5b6001600160a01b038116811461397757600080fd5b5056fe57534f4d3a20446f6e2068616e67206b686f6e67206f207472616e67207468618be0079c531659141344cd1fd0a4f28419497f9722a3daafe3b4186f6b6457e057534f4d3a204e67756f6920676f69206b686f6e672070686169207175616e209f2454a0dc8b062d3b51f32601a6fb1b8401132fec88d6093084e57203f859daa26469706673582212206b26b30f66bb91aeb2484289d9d677f69a3238dffcdaaed584943070ce18335964736f6c63430008040033",
  "immutableReferences": {
    "8301": [
      {
        "length": 32,
        "start": 673
      },
      {
        "length": 32,
        "start": 906
      },
      {
        "length": 32,
        "start": 1075
      },
      {
        "length": 32,
        "start": 1966
      },
      {
        "length": 32,
        "start": 2135
      },
      {
        "length": 32,
        "start": 3723
      },
      {
        "length": 32,
        "start": 3892
      },
      {
        "length": 32,
        "start": 5633
      },
      {
        "length": 32,
        "start": 5802
      },
      {
        "length": 32,
        "start": 6278
      },
      {
        "length": 32,
        "start": 6447
      }
    ],
    "8304": [
      {
        "length": 32,
        "start": 332
      },
      {
        "length": 32,
        "start": 1655
      },
      {
        "length": 32,
        "start": 2501
      }
    ],
    "8307": [
      {
        "length": 32,
        "start": 546
      },
      {
        "length": 32,
        "start": 8858
      }
    ],
    "8310": [
      {
        "length": 32,
        "start": 457
      },
      {
        "length": 32,
        "start": 7080
      },
      {
        "length": 32,
        "start": 9428
      },
      {
        "length": 32,
        "start": 9556
      },
      {
        "length": 32,
        "start": 9716
      },
      {
        "length": 32,
        "start": 10253
      },
      {
        "length": 32,
        "start": 10785
      }
    ]
  },
  "source": "// SPDX-License-Identifier: MIT\r\npragma solidity ^0.8.4;\r\n\r\nimport \"@openzeppelin/contracts/security/ReentrancyGuard.sol\";\r\nimport \"@openzeppelin/contracts/access/Ownable.sol\";\r\nimport \"./Interfaces.sol\";      // Import file Interfaces.sol tp trung\r\n// KHNG CN: import \"./ItemsManagement.sol\";\r\n\r\n// Hp ng Qun l n hng Kho - Nh cung cp\r\ncontract WarehouseSupplierOrderManagement is ReentrancyGuard, Ownable {\r\n    // S dng cc interface t Interfaces.sol\r\n    IRoleManagementInterface public immutable roleManagement;\r\n    // THAY I:\r\n    IItemsManagementCoreInterface public immutable itemsManagementCore;\r\n    IItemsPricingAndListingInterface public immutable itemsPricingAndListing;\r\n\r\n    ICompanyTreasuryManagerInterface public immutable companyTreasuryManager;\r\n    IWarehouseInventoryManagementInterface public warehouseInventoryManagement;\r\n\r\n    uint256 public nextWSOrderId;\r\n\r\n    enum WSOrderStatus { PendingShipment, ShippedBySupplier, ReceivedByWarehouse, CancelledByWarehouse, CancelledBySupplier }\r\n\r\n    struct WSOrderItem {\r\n        string itemId;\r\n        uint256 quantity;\r\n        uint256 unitPrice;\r\n    }\r\n\r\n    struct WSOrder {\r\n        uint256 wsOrderId;\r\n        address warehouseAddress;\r\n        address warehouseManager;\r\n        address supplierAddress;\r\n        WSOrderItem[] items;\r\n        uint256 totalAmount;\r\n        WSOrderStatus status;\r\n        uint256 creationTimestamp;\r\n        uint256 lastUpdateTimestamp;\r\n        bool fundsEscrowed;\r\n        bool fundsReleasedToSupplier;\r\n        string internalSupplierOrderId;\r\n    }\r\n\r\n    struct WSOrderItemInput {\r\n        string itemId;\r\n        uint256 quantity;\r\n    }\r\n\r\n    mapping(uint256 => WSOrder) public wsOrders;\r\n    mapping(address => uint256[]) public warehouseSentOrderIds;\r\n    mapping(address => uint256[]) public supplierReceivedOrderIds;\r\n\r\n    // --- EVENTS ---\r\n    event WSOrderPlaced(uint256 indexed wsOrderId, address indexed warehouseAddress, address indexed supplierAddress, uint256 totalAmount, string internalSupplierOrderId);\r\n    event WSOrderShipmentConfirmedBySupplier(uint256 indexed wsOrderId, address indexed supplierAddress);\r\n    event WSOrderReceiptConfirmedByWarehouse(uint256 indexed wsOrderId, address indexed warehouseManager);\r\n    event WSOrderCancelledByWarehouse(uint256 indexed wsOrderId, address indexed warehouseManager, string reason);\r\n    event WSOrderCancelledBySupplier(uint256 indexed wsOrderId, address indexed supplierAddress, string reason);\r\n    event WSOrderFundsReleasedToSupplier(uint256 indexed wsOrderId, address indexed supplierAddress, uint256 amount);\r\n    event EscrowRequestedForWSOrder(uint256 indexed wsOrderId, uint256 amount, string internalSupplierOrderId);\r\n    event WSOrderStatusUpdated(uint256 indexed wsOrderId, WSOrderStatus newStatus, uint256 timestamp);\r\n    event WarehouseInventoryManagementAddressSet(address indexed wimAddress);\r\n\r\n    constructor(\r\n        address _roleManagementAddress,\r\n        // THAY I:\r\n        address _itemsManagementCoreAddress,\r\n        address _itemsPricingAndListingAddress,\r\n        address _companyTreasuryManagerAddress\r\n    ) Ownable() {\r\n        require(_roleManagementAddress != address(0), \"WSOM: Dia chi RM khong hop le\");\r\n        roleManagement = IRoleManagementInterface(_roleManagementAddress);\r\n\r\n        // THAY I:\r\n        require(_itemsManagementCoreAddress != address(0), \"WSOM: Dia chi ItemsMCore khong hop le\");\r\n        itemsManagementCore = IItemsManagementCoreInterface(_itemsManagementCoreAddress);\r\n        require(_itemsPricingAndListingAddress != address(0), \"WSOM: Dia chi ItemsPL khong hop le\");\r\n        itemsPricingAndListing = IItemsPricingAndListingInterface(_itemsPricingAndListingAddress);\r\n\r\n        require(_companyTreasuryManagerAddress != address(0), \"WSOM: Dia chi CTM khong hop le\");\r\n        companyTreasuryManager = ICompanyTreasuryManagerInterface(_companyTreasuryManagerAddress);\r\n\r\n        nextWSOrderId = 1;\r\n    }\r\n\r\n    function setWarehouseInventoryManagementAddress(address _wimAddress) external onlyOwner {\r\n        require(_wimAddress != address(0), \"WSOM: Dia chi WIM khong hop le\");\r\n        warehouseInventoryManagement = IWarehouseInventoryManagementInterface(_wimAddress);\r\n        emit WarehouseInventoryManagementAddressSet(_wimAddress);\r\n    }\r\n\r\n    modifier onlyWarehouseManagerForAction(address _warehouseAddress) {\r\n        require(_warehouseAddress != address(0), \"WSOM: Dia chi kho khong hop le\");\r\n        // THAY I:\r\n        PhysicalLocationInfo memory warehouseInfo = itemsManagementCore.getWarehouseInfo(_warehouseAddress);\r\n        require(warehouseInfo.exists, \"WSOM: Kho khong ton tai\");\r\n        require(warehouseInfo.manager == msg.sender, \"WSOM: Nguoi goi khong phai quan ly kho nay\");\r\n        bytes32 whManagerRole = roleManagement.WAREHOUSE_MANAGER_ROLE();\r\n        require(roleManagement.hasRole(whManagerRole, msg.sender), \"WSOM: Nguoi goi thieu vai tro QUAN_LY_KHO\");\r\n        _;\r\n    }\r\n\r\n    modifier onlyOrderWarehouseManager(uint256 _wsOrderId) {\r\n        WSOrder storage currentOrder = wsOrders[_wsOrderId];\r\n        require(currentOrder.wsOrderId != 0, \"WSOM: Don hang khong ton tai\");\r\n        require(currentOrder.warehouseManager == msg.sender, \"WSOM: Nguoi goi khong phai quan ly kho cua don hang\");\r\n        bytes32 whManagerRole = roleManagement.WAREHOUSE_MANAGER_ROLE();\r\n        require(roleManagement.hasRole(whManagerRole, msg.sender), \"WSOM: Nguoi goi thieu vai tro QUAN_LY_KHO\");\r\n        _;\r\n    }\r\n\r\n    modifier onlyOrderSupplier(uint256 _wsOrderId) {\r\n        WSOrder storage currentOrder = wsOrders[_wsOrderId];\r\n        require(currentOrder.wsOrderId != 0, \"WSOM: Don hang khong ton tai\");\r\n        require(currentOrder.supplierAddress == msg.sender, \"WSOM: Nguoi goi khong phai NCC cua don hang\");\r\n        bytes32 supRole = roleManagement.SUPPLIER_ROLE();\r\n        require(roleManagement.hasRole(supRole, msg.sender), \"WSOM: Nguoi goi thieu vai tro NCC\");\r\n        _;\r\n    }\r\n\r\n    function _processOrderItems(\r\n        WSOrderItemInput[] calldata _itemsInput,\r\n        address _supplierAddress,\r\n        WSOrderItem[] storage _orderItems\r\n    ) internal returns (uint256 calculatedTotalAmount) {\r\n        calculatedTotalAmount = 0;\r\n        for (uint i = 0; i < _itemsInput.length; i++) {\r\n            WSOrderItemInput calldata itemInput = _itemsInput[i];\r\n            require(itemInput.quantity > 0, \"WSOM: So luong mat hang phai la so duong\");\r\n            // THAY I:\r\n            SupplierItemListing memory supplierListing = itemsPricingAndListing.getSupplierItemDetails(_supplierAddress, itemInput.itemId);\r\n            require(supplierListing.exists && supplierListing.isApprovedByBoard, \"WSOM: Mat hang cua NCC khong co san hoac chua duoc phe duyet boi BDH\");\r\n            _orderItems.push(WSOrderItem({\r\n                itemId: itemInput.itemId,\r\n                quantity: itemInput.quantity,\r\n                unitPrice: supplierListing.price\r\n            }));\r\n            calculatedTotalAmount += supplierListing.price * itemInput.quantity;\r\n        }\r\n    }\r\n\r\n    function _validateAndRequestEscrow(\r\n        address _warehouseAddress,\r\n        address _supplierAddress,\r\n        string memory _internalOrderId,\r\n        uint256 _orderTotal\r\n    ) internal returns (bool) {\r\n        uint256 maxAmountPerOrderPolicy = companyTreasuryManager.getWarehouseSpendingPolicy(_warehouseAddress, _supplierAddress);\r\n        uint256 currentSpendingThisPeriod = companyTreasuryManager.getWarehouseSpendingThisPeriod(_warehouseAddress);\r\n        uint256 spendingLimitPerPeriod = companyTreasuryManager.WAREHOUSE_SPENDING_LIMIT_PER_PERIOD_CONST();\r\n        require(maxAmountPerOrderPolicy > 0, \"WSOM: Khong co chinh sach chi tieu tu Ngan quy cho kho/ncc nay\");\r\n        require(_orderTotal <= maxAmountPerOrderPolicy, \"WSOM: Gia tri don hang vuot qua chinh sach chi tieu moi don hang\");\r\n        uint256 projectedSpending = currentSpendingThisPeriod + _orderTotal;\r\n        require(projectedSpending <= spendingLimitPerPeriod, \"WSOM: Don hang vuot qua gioi han chi tieu dinh ky cua kho\");\r\n        bool escrowSuccess = companyTreasuryManager.requestEscrowForSupplierOrder(\r\n            _warehouseAddress, _supplierAddress, _internalOrderId, _orderTotal\r\n        );\r\n        emit EscrowRequestedForWSOrder(wsOrders[nextWSOrderId-1].wsOrderId, _orderTotal, _internalOrderId);\r\n        return escrowSuccess;\r\n    }\r\n\r\n    function uintToString(uint256 value) internal pure returns (string memory) {\r\n        if (value == 0) return \"0\";\r\n        uint256 temp = value;\r\n        uint256 digits;\r\n        while (temp != 0) { digits++; temp /= 10; }\r\n        bytes memory buffer = new bytes(digits);\r\n        uint256 i = digits;\r\n        while (value != 0) { i--; buffer[i] = bytes1(uint8(48 + (value % 10))); value /= 10; }\r\n        return string(buffer);\r\n    }\r\n\r\n    function placeOrderByWarehouse(\r\n        address _warehouseAddress,\r\n        address _supplierAddress,\r\n        WSOrderItemInput[] calldata _itemsInput\r\n    ) external onlyWarehouseManagerForAction(_warehouseAddress) nonReentrant {\r\n        require(address(warehouseInventoryManagement) != address(0), \"WSOM: Dia chi WIM chua duoc dat\");\r\n        require(_itemsInput.length > 0, \"WSOM: Don hang phai co it nhat mot mat hang\");\r\n\r\n        // THAY I:\r\n        SupplierInfo memory supplierInfo = itemsManagementCore.getSupplierInfo(_supplierAddress);\r\n        require(supplierInfo.exists && supplierInfo.isApprovedByBoard, \"WSOM: NCC khong hop le hoac chua duoc phe duyet\");\r\n\r\n        uint256 currentWsOrderId = nextWSOrderId++;\r\n        string memory internalOrderIdForEscrow = string(abi.encodePacked(\"WSOM-ORDER-\", uintToString(currentWsOrderId)));\r\n        WSOrder storage newOrder = wsOrders[currentWsOrderId];\r\n        newOrder.wsOrderId = currentWsOrderId;\r\n        newOrder.warehouseAddress = _warehouseAddress;\r\n        newOrder.warehouseManager = msg.sender;\r\n        newOrder.supplierAddress = _supplierAddress;\r\n        newOrder.status = WSOrderStatus.PendingShipment;\r\n        newOrder.creationTimestamp = block.timestamp;\r\n        newOrder.lastUpdateTimestamp = block.timestamp;\r\n        newOrder.internalSupplierOrderId = internalOrderIdForEscrow;\r\n        newOrder.totalAmount = _processOrderItems(_itemsInput, _supplierAddress, newOrder.items);\r\n        require(newOrder.totalAmount > 0, \"WSOM: Tong gia tri don hang phai lon hon 0\");\r\n        bool escrowSuccess = _validateAndRequestEscrow(\r\n            _warehouseAddress,\r\n            _supplierAddress,\r\n            internalOrderIdForEscrow,\r\n            newOrder.totalAmount\r\n        );\r\n        require(escrowSuccess, \"WSOM: Ky quy tien tu CTM that bai\");\r\n        newOrder.fundsEscrowed = true;\r\n        warehouseSentOrderIds[_warehouseAddress].push(currentWsOrderId);\r\n        supplierReceivedOrderIds[_supplierAddress].push(currentWsOrderId);\r\n        emit WSOrderPlaced(currentWsOrderId, _warehouseAddress, _supplierAddress, newOrder.totalAmount, internalOrderIdForEscrow);\r\n        emit WSOrderStatusUpdated(currentWsOrderId, newOrder.status, block.timestamp);\r\n    }\r\n\r\n    function supplierConfirmShipment(uint256 _wsOrderId) external onlyOrderSupplier(_wsOrderId) nonReentrant {\r\n        WSOrder storage currentOrder = wsOrders[_wsOrderId];\r\n        require(currentOrder.status == WSOrderStatus.PendingShipment, \"WSOM: Don hang khong o trang thai cho giao hang\");\r\n        currentOrder.status = WSOrderStatus.ShippedBySupplier;\r\n        currentOrder.lastUpdateTimestamp = block.timestamp;\r\n        emit WSOrderShipmentConfirmedBySupplier(_wsOrderId, msg.sender);\r\n        emit WSOrderStatusUpdated(_wsOrderId, currentOrder.status, block.timestamp);\r\n    }\r\n\r\n    function warehouseConfirmReceipt(uint256 _wsOrderId) external onlyOrderWarehouseManager(_wsOrderId) nonReentrant {\r\n        WSOrder storage currentOrder = wsOrders[_wsOrderId];\r\n        require(currentOrder.status == WSOrderStatus.ShippedBySupplier, \"WSOM: Don hang chua duoc NCC giao\");\r\n        require(currentOrder.fundsEscrowed, \"WSOM: Tien chua duoc ky quy cho don hang nay\");\r\n        require(!currentOrder.fundsReleasedToSupplier, \"WSOM: Tien da duoc giai ngan cho NCC roi\");\r\n        require(address(warehouseInventoryManagement) != address(0), \"WSOM: Dia chi WIM chua duoc dat\");\r\n        bool releaseSuccess = companyTreasuryManager.releaseEscrowToSupplier(\r\n            currentOrder.supplierAddress,\r\n            currentOrder.internalSupplierOrderId,\r\n            currentOrder.totalAmount\r\n        );\r\n        require(releaseSuccess, \"WSOM: Giai ngan tien cho NCC tu CTM that bai\");\r\n        currentOrder.status = WSOrderStatus.ReceivedByWarehouse;\r\n        currentOrder.fundsReleasedToSupplier = true;\r\n        currentOrder.lastUpdateTimestamp = block.timestamp;\r\n        for (uint i = 0; i < currentOrder.items.length; i++) {\r\n            WSOrderItem memory item = currentOrder.items[i];\r\n            warehouseInventoryManagement.recordStockInFromSupplier(\r\n                currentOrder.warehouseAddress,\r\n                item.itemId,\r\n                item.quantity,\r\n                _wsOrderId\r\n            );\r\n        }\r\n        emit WSOrderReceiptConfirmedByWarehouse(_wsOrderId, msg.sender);\r\n        emit WSOrderFundsReleasedToSupplier(_wsOrderId, currentOrder.supplierAddress, currentOrder.totalAmount);\r\n        emit WSOrderStatusUpdated(_wsOrderId, currentOrder.status, block.timestamp);\r\n    }\r\n\r\n    function _internalCancelOrder(uint256 _wsOrderId, WSOrderStatus _newStatus, address) internal {\r\n        WSOrder storage currentOrder = wsOrders[_wsOrderId];\r\n        require(currentOrder.status == WSOrderStatus.PendingShipment, \"WSOM: Don hang khong o trang thai co the huy\");\r\n        require(currentOrder.fundsEscrowed, \"WSOM: Tien chua duoc ky quy (hoac da bi huy) de huy\");\r\n        bool refundSuccess = companyTreasuryManager.refundEscrowToTreasury(\r\n            currentOrder.warehouseAddress,\r\n            currentOrder.internalSupplierOrderId,\r\n            currentOrder.totalAmount\r\n        );\r\n        require(refundSuccess, \"WSOM: Hoan tra tien ky quy ve CTM that bai, viec huy bi hoan tac\");\r\n        currentOrder.status = _newStatus;\r\n        currentOrder.fundsEscrowed = false;\r\n        currentOrder.lastUpdateTimestamp = block.timestamp;\r\n        emit WSOrderStatusUpdated(_wsOrderId, currentOrder.status, block.timestamp);\r\n    }\r\n\r\n    function cancelOrderByWarehouse(uint256 _wsOrderId, string calldata _reason)\r\n        external\r\n        onlyOrderWarehouseManager(_wsOrderId)\r\n        nonReentrant\r\n    {\r\n        _internalCancelOrder(_wsOrderId, WSOrderStatus.CancelledByWarehouse, msg.sender);\r\n        emit WSOrderCancelledByWarehouse(_wsOrderId, msg.sender, _reason);\r\n    }\r\n\r\n    function cancelOrderBySupplier(uint256 _wsOrderId, string calldata _reason)\r\n        external\r\n        onlyOrderSupplier(_wsOrderId)\r\n        nonReentrant\r\n    {\r\n        _internalCancelOrder(_wsOrderId, WSOrderStatus.CancelledBySupplier, msg.sender);\r\n        emit WSOrderCancelledBySupplier(_wsOrderId, msg.sender, _reason);\r\n    }\r\n\r\n    function getWSOrderDetails(uint256 _wsOrderId) external view returns (WSOrder memory) {\r\n        require(wsOrders[_wsOrderId].wsOrderId != 0, \"WSOM: Don hang khong tim thay\");\r\n        return wsOrders[_wsOrderId];\r\n    }\r\n\r\n    function getWarehouseSentOrders(address _warehouseAddress) external view returns (uint256[] memory) {\r\n        return warehouseSentOrderIds[_warehouseAddress];\r\n    }\r\n\r\n    function getSupplierReceivedOrders(address _supplierAddress) external view returns (uint256[] memory) {\r\n        return supplierReceivedOrderIds[_supplierAddress];\r\n    }\r\n}",
  "sourcePath": "D:\\nhi\\Logtech\\New tech in Log\\dapp2\\SC\\contracts\\WarehouseSupplierOrderManagement.sol",
  "compiler": {
    "name": "solc",
    "version": "0.8.4+commit.c7e474f2.Emscripten.clang"
  },
  "schemaVersion": "3.4.16",
  "updatedAt": "2025-06-03T02:07:25.427Z",
  "networkType": "ethereum",
  "devdoc": {
    "kind": "dev",
    "methods": {
      "owner()": {
        "details": "Returns the address of the current owner."
      },
      "renounceOwnership()": {
        "details": "Leaves the contract without owner. It will not be possible to call `onlyOwner` functions anymore. Can only be called by the current owner. NOTE: Renouncing ownership will leave the contract without an owner, thereby removing any functionality that is only available to the owner."
      },
      "transferOwnership(address)": {
        "details": "Transfers ownership of the contract to a new account (`newOwner`). Can only be called by the current owner."
      }
    },
    "version": 1
  },
  "userdoc": {
    "kind": "user",
    "methods": {},
    "version": 1
  }
}