{
  "contractName": "WarehouseInventoryManagement",
  "abi": [
    {
      "inputs": [
        {
          "internalType": "address",
          "name": "_roleManagementAddress",
          "type": "address"
        },
        {
          "internalType": "address",
          "name": "_itemsManagementAddress",
          "type": "address"
        }
      ],
      "stateMutability": "nonpayable",
      "type": "constructor"
    },
    {
      "anonymous": false,
      "inputs": [
        {
          "indexed": true,
          "internalType": "address",
          "name": "comAddress",
          "type": "address"
        }
      ],
      "name": "CustomerOrderManagementAddressSet",
      "type": "event"
    },
    {
      "anonymous": false,
      "inputs": [
        {
          "indexed": true,
          "internalType": "address",
          "name": "returnToWarehouseAddress",
          "type": "address"
        },
        {
          "indexed": false,
          "internalType": "string",
          "name": "itemId",
          "type": "string"
        },
        {
          "indexed": false,
          "internalType": "uint256",
          "name": "quantityReturned",
          "type": "uint256"
        },
        {
          "indexed": true,
          "internalType": "uint256",
          "name": "customerOrderId",
          "type": "uint256"
        }
      ],
      "name": "CustomerStockReturnedRecordedToWarehouse",
      "type": "event"
    },
    {
      "anonymous": false,
      "inputs": [
        {
          "indexed": true,
          "internalType": "address",
          "name": "previousOwner",
          "type": "address"
        },
        {
          "indexed": true,
          "internalType": "address",
          "name": "newOwner",
          "type": "address"
        }
      ],
      "name": "OwnershipTransferred",
      "type": "event"
    },
    {
      "anonymous": false,
      "inputs": [
        {
          "indexed": true,
          "internalType": "address",
          "name": "warehouseAddress",
          "type": "address"
        },
        {
          "indexed": true,
          "internalType": "string",
          "name": "itemId",
          "type": "string"
        },
        {
          "indexed": false,
          "internalType": "uint256",
          "name": "quantityProcessed",
          "type": "uint256"
        },
        {
          "indexed": false,
          "internalType": "bool",
          "name": "addedToMainStock",
          "type": "bool"
        },
        {
          "indexed": true,
          "internalType": "address",
          "name": "byAdminOrManager",
          "type": "address"
        }
      ],
      "name": "ProcessedReturnedCustomerStockAtWarehouse",
      "type": "event"
    },
    {
      "anonymous": false,
      "inputs": [
        {
          "indexed": true,
          "internalType": "address",
          "name": "warehouseAddress",
          "type": "address"
        },
        {
          "indexed": true,
          "internalType": "string",
          "name": "itemId",
          "type": "string"
        },
        {
          "indexed": false,
          "internalType": "int256",
          "name": "quantityChange",
          "type": "int256"
        },
        {
          "indexed": false,
          "internalType": "string",
          "name": "reason",
          "type": "string"
        },
        {
          "indexed": true,
          "internalType": "address",
          "name": "byAdminOrManager",
          "type": "address"
        }
      ],
      "name": "StockAdjusted",
      "type": "event"
    },
    {
      "anonymous": false,
      "inputs": [
        {
          "indexed": true,
          "internalType": "address",
          "name": "warehouseAddress",
          "type": "address"
        },
        {
          "indexed": false,
          "internalType": "string",
          "name": "itemId",
          "type": "string"
        },
        {
          "indexed": false,
          "internalType": "uint256",
          "name": "quantityAdded",
          "type": "uint256"
        },
        {
          "indexed": true,
          "internalType": "uint256",
          "name": "wsOrderId",
          "type": "uint256"
        },
        {
          "indexed": true,
          "internalType": "address",
          "name": "byWsom",
          "type": "address"
        }
      ],
      "name": "StockInFromSupplierRecorded",
      "type": "event"
    },
    {
      "anonymous": false,
      "inputs": [
        {
          "indexed": true,
          "internalType": "address",
          "name": "fromWarehouseAddress",
          "type": "address"
        },
        {
          "indexed": true,
          "internalType": "address",
          "name": "toStoreAddress",
          "type": "address"
        },
        {
          "indexed": false,
          "internalType": "string",
          "name": "itemId",
          "type": "string"
        },
        {
          "indexed": false,
          "internalType": "uint256",
          "name": "quantity",
          "type": "uint256"
        },
        {
          "indexed": true,
          "internalType": "uint256",
          "name": "internalTransferId",
          "type": "uint256"
        },
        {
          "indexed": false,
          "internalType": "address",
          "name": "byWarehouseManager",
          "type": "address"
        }
      ],
      "name": "StockTransferredToStore",
      "type": "event"
    },
    {
      "anonymous": false,
      "inputs": [
        {
          "indexed": true,
          "internalType": "address",
          "name": "simAddress",
          "type": "address"
        }
      ],
      "name": "StoreInventoryManagementAddressSet",
      "type": "event"
    },
    {
      "anonymous": false,
      "inputs": [
        {
          "indexed": true,
          "internalType": "address",
          "name": "wsomAddress",
          "type": "address"
        }
      ],
      "name": "WarehouseSupplierOrderManagementAddressSet",
      "type": "event"
    },
    {
      "inputs": [],
      "name": "customerOrderManagementAddress",
      "outputs": [
        {
          "internalType": "address",
          "name": "",
          "type": "address"
        }
      ],
      "stateMutability": "view",
      "type": "function"
    },
    {
      "inputs": [],
      "name": "itemsManagementExternal",
      "outputs": [
        {
          "internalType": "contract IItemsManagementInterface",
          "name": "",
          "type": "address"
        }
      ],
      "stateMutability": "view",
      "type": "function"
    },
    {
      "inputs": [],
      "name": "nextInternalTransferId",
      "outputs": [
        {
          "internalType": "uint256",
          "name": "",
          "type": "uint256"
        }
      ],
      "stateMutability": "view",
      "type": "function"
    },
    {
      "inputs": [],
      "name": "owner",
      "outputs": [
        {
          "internalType": "address",
          "name": "",
          "type": "address"
        }
      ],
      "stateMutability": "view",
      "type": "function"
    },
    {
      "inputs": [],
      "name": "renounceOwnership",
      "outputs": [],
      "stateMutability": "nonpayable",
      "type": "function"
    },
    {
      "inputs": [
        {
          "internalType": "address",
          "name": "",
          "type": "address"
        },
        {
          "internalType": "string",
          "name": "",
          "type": "string"
        }
      ],
      "name": "returnedStockByCustomer",
      "outputs": [
        {
          "internalType": "uint256",
          "name": "",
          "type": "uint256"
        }
      ],
      "stateMutability": "view",
      "type": "function"
    },
    {
      "inputs": [],
      "name": "roleManagementExternal",
      "outputs": [
        {
          "internalType": "contract IRoleManagementInterface",
          "name": "",
          "type": "address"
        }
      ],
      "stateMutability": "view",
      "type": "function"
    },
    {
      "inputs": [
        {
          "internalType": "address",
          "name": "",
          "type": "address"
        },
        {
          "internalType": "string",
          "name": "",
          "type": "string"
        }
      ],
      "name": "stockLevels",
      "outputs": [
        {
          "internalType": "uint256",
          "name": "",
          "type": "uint256"
        }
      ],
      "stateMutability": "view",
      "type": "function"
    },
    {
      "inputs": [],
      "name": "storeInventoryManagementExternal",
      "outputs": [
        {
          "internalType": "contract IStoreInventoryManagementInterface",
          "name": "",
          "type": "address"
        }
      ],
      "stateMutability": "view",
      "type": "function"
    },
    {
      "inputs": [
        {
          "internalType": "address",
          "name": "newOwner",
          "type": "address"
        }
      ],
      "name": "transferOwnership",
      "outputs": [],
      "stateMutability": "nonpayable",
      "type": "function"
    },
    {
      "inputs": [],
      "name": "warehouseSupplierOrderManagementAddress",
      "outputs": [
        {
          "internalType": "address",
          "name": "",
          "type": "address"
        }
      ],
      "stateMutability": "view",
      "type": "function"
    },
    {
      "inputs": [
        {
          "internalType": "address",
          "name": "_simAddress",
          "type": "address"
        }
      ],
      "name": "setStoreInventoryManagementAddress",
      "outputs": [],
      "stateMutability": "nonpayable",
      "type": "function"
    },
    {
      "inputs": [
        {
          "internalType": "address",
          "name": "_wsomAddress",
          "type": "address"
        }
      ],
      "name": "setWarehouseSupplierOrderManagementAddress",
      "outputs": [],
      "stateMutability": "nonpayable",
      "type": "function"
    },
    {
      "inputs": [
        {
          "internalType": "address",
          "name": "_comAddress",
          "type": "address"
        }
      ],
      "name": "setCustomerOrderManagementAddress",
      "outputs": [],
      "stateMutability": "nonpayable",
      "type": "function"
    },
    {
      "inputs": [
        {
          "internalType": "address",
          "name": "_warehouseAddress",
          "type": "address"
        },
        {
          "internalType": "string",
          "name": "_itemId",
          "type": "string"
        },
        {
          "internalType": "uint256",
          "name": "_quantity",
          "type": "uint256"
        },
        {
          "internalType": "uint256",
          "name": "_wsOrderId",
          "type": "uint256"
        }
      ],
      "name": "recordStockInFromSupplier",
      "outputs": [],
      "stateMutability": "nonpayable",
      "type": "function"
    },
    {
      "inputs": [
        {
          "internalType": "address",
          "name": "_requestingStoreManager",
          "type": "address"
        },
        {
          "internalType": "address",
          "name": "_storeAddress",
          "type": "address"
        },
        {
          "internalType": "address",
          "name": "_warehouseAddress",
          "type": "address"
        },
        {
          "internalType": "string",
          "name": "_itemId",
          "type": "string"
        },
        {
          "internalType": "uint256",
          "name": "_quantity",
          "type": "uint256"
        }
      ],
      "name": "requestStockTransferToStore",
      "outputs": [
        {
          "internalType": "uint256",
          "name": "internalTransferId",
          "type": "uint256"
        }
      ],
      "stateMutability": "nonpayable",
      "type": "function"
    },
    {
      "inputs": [
        {
          "internalType": "address",
          "name": "_returnToWarehouseAddress",
          "type": "address"
        },
        {
          "internalType": "string",
          "name": "_itemId",
          "type": "string"
        },
        {
          "internalType": "uint256",
          "name": "_quantity",
          "type": "uint256"
        },
        {
          "internalType": "uint256",
          "name": "_customerOrderId",
          "type": "uint256"
        }
      ],
      "name": "recordReturnedStockByCustomer",
      "outputs": [],
      "stateMutability": "nonpayable",
      "type": "function"
    },
    {
      "inputs": [
        {
          "internalType": "address",
          "name": "_warehouseAddress",
          "type": "address"
        },
        {
          "internalType": "string",
          "name": "_itemId",
          "type": "string"
        },
        {
          "internalType": "int256",
          "name": "_quantityChange",
          "type": "int256"
        },
        {
          "internalType": "string",
          "name": "_reason",
          "type": "string"
        }
      ],
      "name": "adjustStockManually",
      "outputs": [],
      "stateMutability": "nonpayable",
      "type": "function"
    },
    {
      "inputs": [
        {
          "internalType": "address",
          "name": "_warehouseAddress",
          "type": "address"
        },
        {
          "internalType": "string",
          "name": "_itemId",
          "type": "string"
        },
        {
          "internalType": "uint256",
          "name": "_quantityToProcess",
          "type": "uint256"
        },
        {
          "internalType": "bool",
          "name": "_addToMainStock",
          "type": "bool"
        }
      ],
      "name": "processCustomerReturnedStock",
      "outputs": [],
      "stateMutability": "nonpayable",
      "type": "function"
    },
    {
      "inputs": [
        {
          "internalType": "address",
          "name": "_warehouseAddress",
          "type": "address"
        },
        {
          "internalType": "string",
          "name": "_itemId",
          "type": "string"
        }
      ],
      "name": "getWarehouseStockLevel",
      "outputs": [
        {
          "internalType": "uint256",
          "name": "",
          "type": "uint256"
        }
      ],
      "stateMutability": "view",
      "type": "function"
    },
    {
      "inputs": [
        {
          "internalType": "address",
          "name": "_warehouseAddress",
          "type": "address"
        },
        {
          "internalType": "string",
          "name": "_itemId",
          "type": "string"
        }
      ],
      "name": "getCustomerReturnedStockLevelAtWarehouse",
      "outputs": [
        {
          "internalType": "uint256",
          "name": "",
          "type": "uint256"
        }
      ],
      "stateMutability": "view",
      "type": "function"
    }
  ],
  "bytecode": "0x608060405260016008553480156200001657600080fd5b50604051620021383803806200213883398101604081905262000039916200018a565b600080546001600160a01b031916339081178255604051909182917f8be0079c531659141344cd1fd0a4f28419497f9722a3daafe3b4186f6b6457e0908290a3506001600160a01b038216620000d65760405162461bcd60e51b815260206004820152601c60248201527f57494d3a204469612063686920524d206b686f6e6720686f70206c650000000060448201526064015b60405180910390fd5b600180546001600160a01b0319166001600160a01b03848116919091179091558116620001465760405162461bcd60e51b815260206004820181905260248201527f57494d3a2044696120636869204974656d734d206b686f6e6720686f70206c656044820152606401620000cd565b600280546001600160a01b0319166001600160a01b039290921691909117905550620001c1565b80516001600160a01b03811681146200018557600080fd5b919050565b600080604083850312156200019d578182fd5b620001a8836200016d565b9150620001b8602084016200016d565b90509250929050565b611f6780620001d16000396000f3fe608060405234801561001057600080fd5b50600436106101375760003560e01c8063963ca3ce116100b8578063cc11ff7f1161007c578063cc11ff7f146102cb578063d04cc29b146102de578063e53e0825146102f1578063e6a21943146102fa578063f2fde38b1461030d578063feedc7d31461032057600080fd5b8063963ca3ce146102435780639e70350f1461027f578063be77f07214610292578063c3a087cd146102a5578063c94c54a1146102b857600080fd5b8063626f94d6116100ff578063626f94d6146101d95780636718b05b146101ec578063715018a6146102175780638befa1031461021f5780638da5cb5b1461023257600080fd5b80630d4692831461013c5780631f8b929d1461016257806325a5e9b21461017557806346ba85fe1461018a5780635db41c3e1461019d575b600080fd5b61014f61014a366004611948565b610333565b6040519081526020015b60405180910390f35b61014f6101703660046118c6565b6103a5565b610188610183366004611a96565b610807565b005b61014f610198366004611948565b6109d5565b61014f6101ab366004611afb565b6006602090815260009283526040909220815180830184018051928152908401929093019190912091525481565b6101886101e73660046118a3565b610a26565b6005546101ff906001600160a01b031681565b6040516001600160a01b039091168152602001610159565b610188610af0565b61018861022d366004611a24565b610b64565b6000546001600160a01b03166101ff565b61014f610251366004611afb565b6007602090815260009283526040909220815180830184018051928152908401929093019190912091525481565b61018861028d3660046118a3565b610f88565b6101886102a0366004611a96565b611052565b6101886102b336600461199b565b6111d9565b6004546101ff906001600160a01b031681565b6003546101ff906001600160a01b031681565b6002546101ff906001600160a01b031681565b61014f60085481565b6001546101ff906001600160a01b031681565b61018861031b3660046118a3565b61161d565b61018861032e3660046118a3565b611707565b60006001600160a01b0384166103645760405162461bcd60e51b815260040161035b90611dc2565b60405180910390fd5b6001600160a01b03841660009081526006602052604090819020905161038d9085908590611cc1565b90815260200160405180910390205490509392505050565b6003546000906001600160a01b031633146104025760405162461bcd60e51b815260206004820152601d60248201527f57494d3a204e67756f6920676f69206b686f6e6720706861692053494d000000604482015260640161035b565b6001600160a01b0386166104635760405162461bcd60e51b815260206004820152602260248201527f57494d3a2044696120636869206375612068616e67206b686f6e6720686f70206044820152616c6560f01b606482015260840161035b565b6001600160a01b0385166104c55760405162461bcd60e51b815260206004820152602360248201527f57494d3a2044696120636869206b686f206e67756f6e206b686f6e6720686f70604482015262206c6560e81b606482015260840161035b565b600082116105235760405162461bcd60e51b815260206004820152602560248201527f57494d3a20536f206c756f6e672063687579656e2070686169206c6120736f2060448201526464756f6e6760d81b606482015260840161035b565b6003546001600160a01b03166105875760405162461bcd60e51b8152602060048201526024808201527f57494d3a20446961206368692053494d20636875612064756f632074686965746044820152630206c61760e41b606482015260840161035b565b600254604051637160572b60e01b81526001600160a01b0387811660048301526000921690637160572b9060240160006040518083038186803b1580156105cd57600080fd5b505afa1580156105e1573d6000803e3d6000fd5b505050506040513d6000823e601f3d908101601f191682016040526106099190810190611bb7565b9050806080015161065c5760405162461bcd60e51b815260206004820181905260248201527f57494d3a204b686f206e67756f6e20636875612064756f632064616e67206b79604482015260640161035b565b6001600160a01b03861660009081526006602052604080822090516106849088908890611cc1565b9081526020016040518091039020549050838110156106e55760405162461bcd60e51b815260206004820152601c60248201527f57494d3a204b686f6e672064752068616e672074726f6e67206b686f00000000604482015260640161035b565b6106ef8482611e93565b6001600160a01b0388166000908152600660205260409081902090516107189089908990611cc1565b908152604051908190036020019020556008805490600061073883611eaa565b90915550600354604051634d600ef360e11b81529194506001600160a01b031690639ac01de690610777908b908a908a908a908e908b90600401611cd1565b600060405180830381600087803b15801561079157600080fd5b505af11580156107a5573d6000803e3d6000fd5b5050505082886001600160a01b0316886001600160a01b03167f0e354fafb6caea45f9580177206df876eec0c1bba922f3e62cb5b0758083a04f8989898f6040516107f39493929190611d58565b60405180910390a450509695505050505050565b6005546001600160a01b031633146108755760405162461bcd60e51b815260206004820152602b60248201527f57494d3a204e67756f6920676f69206b686f6e67207068616920434f4d20647560448201526a37b1903abc9038babcb2b760a91b606482015260840161035b565b6001600160a01b0385166108da5760405162461bcd60e51b815260206004820152602660248201527f57494d3a2044696120636869206b686f207472612068616e67206b686f6e6720604482015265686f70206c6560d01b606482015260840161035b565b600082116109385760405162461bcd60e51b815260206004820152602560248201527f57494d3a20536f206c756f6e67207472612076652070686169206c6120736f2060448201526464756f6e6760d81b606482015260840161035b565b6001600160a01b0385166000908152600760205260409081902090518391906109649087908790611cc1565b908152602001604051809103902060008282546109819190611e7b565b9250508190555080856001600160a01b03167f969e3aadc8dda52eb973b507ec1a260c78c514cf3c5a201734449a73a36a7dfc8686866040516109c693929190611d34565b60405180910390a35050505050565b60006001600160a01b0384166109fd5760405162461bcd60e51b815260040161035b90611dc2565b6001600160a01b03841660009081526007602052604090819020905161038d9085908590611cc1565b6000546001600160a01b03163314610a505760405162461bcd60e51b815260040161035b90611d8d565b6001600160a01b038116610aa65760405162461bcd60e51b815260206004820152601d60248201527f57494d3a204469612063686920434f4d206b686f6e6720686f70206c65000000604482015260640161035b565b600580546001600160a01b0319166001600160a01b0383169081179091556040517ff60a7d245ccf77dd2036da1a1ad14a8c5dba1a9ccc98b56d0ad004b140c9472390600090a250565b6000546001600160a01b03163314610b1a5760405162461bcd60e51b815260040161035b90611d8d565b600080546040516001600160a01b03909116907f8be0079c531659141344cd1fd0a4f28419497f9722a3daafe3b4186f6b6457e0908390a3600080546001600160a01b0319169055565b600080546001600160a01b031633149081610d2d57600254604051637160572b60e01b81526001600160a01b0389811660048301526000921690637160572b9060240160006040518083038186803b158015610bbf57600080fd5b505afa158015610bd3573d6000803e3d6000fd5b505050506040513d6000823e601f3d908101601f19168201604052610bfb9190810190611bb7565b905080608001518015610c1a575060608101516001600160a01b031633145b15610d2b5760015460408051633128702b60e11b815290516000926001600160a01b031691636250e056916004808301926020929190829003018186803b158015610c6457600080fd5b505afa158015610c78573d6000803e3d6000fd5b505050506040513d601f19601f82011682018060405250810190610c9c9190611b9f565b600154604051632474521560e21b8152600481018390523360248201529192506001600160a01b0316906391d148549060440160206040518083038186803b158015610ce757600080fd5b505afa158015610cfb573d6000803e3d6000fd5b505050506040513d601f19601f82011682018060405250810190610d1f9190611b83565b15610d2957600192505b505b505b8180610d365750805b610d985760405162461bcd60e51b815260206004820152602d60248201527f57494d3a204b686f6e6720636f20717579656e207875206c792068616e67207460448201526c7261207665206b686f206e617960981b606482015260840161035b565b60008411610df45760405162461bcd60e51b8152602060048201526024808201527f57494d3a20536f206c756f6e67207875206c792070686169206c6120736f2064604482015263756f6e6760e01b606482015260840161035b565b6001600160a01b0387166000908152600760205260408082209051610e1c9089908990611cc1565b908152602001604051809103902054905084811015610e885760405162461bcd60e51b815260206004820152602260248201527f57494d3a204b686f6e672064752068616e6720747261207665206465207875206044820152616c7960f01b606482015260840161035b565b610e928582611e93565b6001600160a01b038916600090815260076020526040908190209051610ebb908a908a90611cc1565b908152604051908190036020019020558315610f20576001600160a01b038816600090815260066020526040908190209051869190610efd908a908a90611cc1565b90815260200160405180910390206000828254610f1a9190611e7b565b90915550505b6040513390610f329089908990611cc1565b604080519182900382208883528715156020840152916001600160a01b038c16917f9fea66fc1ff8ab38fd935833ea9542ea08ec8fb497fd16099054e475c131aaff910160405180910390a45050505050505050565b6000546001600160a01b03163314610fb25760405162461bcd60e51b815260040161035b90611d8d565b6001600160a01b0381166110085760405162461bcd60e51b815260206004820152601e60248201527f57494d3a20446961206368692057534f4d206b686f6e6720686f70206c650000604482015260640161035b565b600480546001600160a01b0319166001600160a01b0383169081179091556040517fcb36ba9fb6b00797b047f7ee0bd8a7a2e9035de6fdcb2cd93c50aaa91d2c1bbc90600090a250565b6004546001600160a01b031633146110ac5760405162461bcd60e51b815260206004820152601e60248201527f57494d3a204e67756f6920676f69206b686f6e6720706861692057534f4d0000604482015260640161035b565b6001600160a01b0385166110d25760405162461bcd60e51b815260040161035b90611dc2565b600082116111325760405162461bcd60e51b815260206004820152602760248201527f57494d3a20536f206c756f6e67207468656d2076616f2070686169206c6120736044820152666f2064756f6e6760c81b606482015260840161035b565b6001600160a01b03851660009081526006602052604090819020905183919061115e9087908790611cc1565b9081526020016040518091039020600082825461117b9190611e7b565b92505081905550336001600160a01b031681866001600160a01b03167f1e4ff52ce816e4259be08bbb6549aded6b88a1e9cfb191029752f4592b0e17718787876040516111ca93929190611d34565b60405180910390a45050505050565b600080546001600160a01b0316331490816113a257600254604051637160572b60e01b81526001600160a01b038a811660048301526000921690637160572b9060240160006040518083038186803b15801561123457600080fd5b505afa158015611248573d6000803e3d6000fd5b505050506040513d6000823e601f3d908101601f191682016040526112709190810190611bb7565b90508060800151801561128f575060608101516001600160a01b031633145b156113a05760015460408051633128702b60e11b815290516000926001600160a01b031691636250e056916004808301926020929190829003018186803b1580156112d957600080fd5b505afa1580156112ed573d6000803e3d6000fd5b505050506040513d601f19601f820116820180604052508101906113119190611b9f565b600154604051632474521560e21b8152600481018390523360248201529192506001600160a01b0316906391d148549060440160206040518083038186803b15801561135c57600080fd5b505afa158015611370573d6000803e3d6000fd5b505050506040513d601f19601f820116820180604052508101906113949190611b83565b1561139e57600192505b505b505b81806113ab5750805b61140a5760405162461bcd60e51b815260206004820152602a60248201527f57494d3a204b686f6e6720636f20717579656e2064696575206368696e6820746044820152696f6e206b686f206e617960b01b606482015260840161035b565b6001600160a01b0388166000908152600660205260408082209051611432908a908a90611cc1565b90815260200160405180910390205490506000861315611494576114568682611e7b565b6001600160a01b038a1660009081526006602052604090819020905161147f908b908b90611cc1565b908152604051908190036020019020556115b3565b60008612156115575760006114a887611ec5565b90508082101561150e5760405162461bcd60e51b815260206004820152602b60248201527f57494d3a2044696575206368696e682074687520636f6e672064616e2064656e60448201526a20746f6e206b686f20616d60a81b606482015260840161035b565b6115188183611e93565b6001600160a01b038b16600090815260066020526040908190209051611541908c908c90611cc1565b90815260405190819003602001902055506115b3565b60405162461bcd60e51b815260206004820152602b60248201527f57494d3a205468617920646f6920736f206c756f6e67206b686f6e672074686560448201526a2062616e67206b686f6e6760a81b606482015260840161035b565b60405133906115c5908a908a90611cc1565b60405180910390208a6001600160a01b03167f174bc369afea7ab6cbcd1994bd3075bbd3c07fd2b527578e0d996fdad901f49489898960405161160a93929190611d11565b60405180910390a4505050505050505050565b6000546001600160a01b031633146116475760405162461bcd60e51b815260040161035b90611d8d565b6001600160a01b0381166116ac5760405162461bcd60e51b815260206004820152602660248201527f4f776e61626c653a206e6577206f776e657220697320746865207a65726f206160448201526564647265737360d01b606482015260840161035b565b600080546040516001600160a01b03808516939216917f8be0079c531659141344cd1fd0a4f28419497f9722a3daafe3b4186f6b6457e091a3600080546001600160a01b0319166001600160a01b0392909216919091179055565b6000546001600160a01b031633146117315760405162461bcd60e51b815260040161035b90611d8d565b6001600160a01b0381166117875760405162461bcd60e51b815260206004820152601d60248201527f57494d3a20446961206368692053494d206b686f6e6720686f70206c65000000604482015260640161035b565b600380546001600160a01b0319166001600160a01b0383169081179091556040517fb875684c9dfb17eb2f1c703cb1df8211b9cdee7ccde9c141ba5a4395d71a1a0490600090a250565b80516117dc81611f0b565b919050565b80516117dc81611f23565b60008083601f8401126117fd578182fd5b50813567ffffffffffffffff811115611814578182fd5b60208301915083602082850101111561182c57600080fd5b9250929050565b600082601f830112611843578081fd5b815161185661185182611e53565b611e22565b8181526020858184870101111561186b578384fd5b835b8381101561188857858101820151838201830152810161186d565b8381111561189857848285850101525b509095945050505050565b6000602082840312156118b4578081fd5b81356118bf81611f0b565b9392505050565b60008060008060008060a087890312156118de578182fd5b86356118e981611f0b565b955060208701356118f981611f0b565b9450604087013561190981611f0b565b9350606087013567ffffffffffffffff811115611924578283fd5b61193089828a016117ec565b979a9699509497949695608090950135949350505050565b60008060006040848603121561195c578283fd5b833561196781611f0b565b9250602084013567ffffffffffffffff811115611982578283fd5b61198e868287016117ec565b9497909650939450505050565b600080600080600080608087890312156119b3578182fd5b86356119be81611f0b565b9550602087013567ffffffffffffffff808211156119da578384fd5b6119e68a838b016117ec565b9097509550604089013594506060890135915080821115611a05578384fd5b50611a1289828a016117ec565b979a9699509497509295939492505050565b600080600080600060808688031215611a3b578081fd5b8535611a4681611f0b565b9450602086013567ffffffffffffffff811115611a61578182fd5b611a6d888289016117ec565b909550935050604086013591506060860135611a8881611f23565b809150509295509295909350565b600080600080600060808688031215611aad578081fd5b8535611ab881611f0b565b9450602086013567ffffffffffffffff811115611ad3578182fd5b611adf888289016117ec565b9699909850959660408101359660609091013595509350505050565b60008060408385031215611b0d578182fd5b8235611b1881611f0b565b9150602083013567ffffffffffffffff811115611b33578182fd5b8301601f81018513611b43578182fd5b8035611b5161185182611e53565b818152866020838501011115611b65578384fd5b81602084016020830137908101602001929092525090939092509050565b600060208284031215611b94578081fd5b81516118bf81611f23565b600060208284031215611bb0578081fd5b5051919050565b600060208284031215611bc8578081fd5b815167ffffffffffffffff80821115611bdf578283fd5b9083019060e08286031215611bf2578283fd5b611bfa611df9565b611c03836117d1565b8152602083015182811115611c16578485fd5b611c2287828601611833565b602083015250604083015182811115611c39578485fd5b611c4587828601611833565b604083015250611c57606084016117d1565b6060820152611c68608084016117e1565b6080820152611c7960a084016117e1565b60a0820152611c8a60c084016117d1565b60c082015295945050505050565b81835281816020850137506000828201602090810191909152601f909101601f19169091010190565b8183823760009101908152919050565b600060018060a01b03808916835260a06020840152611cf460a08401888a611c98565b604084019690965293909316606082015260800152509392505050565b838152604060208201526000611d2b604083018486611c98565b95945050505050565b604081526000611d48604083018587611c98565b9050826020830152949350505050565b606081526000611d6c606083018688611c98565b6020830194909452506001600160a01b039190911660409091015292915050565b6020808252818101527f4f776e61626c653a2063616c6c6572206973206e6f7420746865206f776e6572604082015260600190565b6020808252601d908201527f57494d3a2044696120636869206b686f206b686f6e6720686f70206c65000000604082015260600190565b60405160e0810167ffffffffffffffff81118282101715611e1c57611e1c611ef5565b60405290565b604051601f8201601f1916810167ffffffffffffffff81118282101715611e4b57611e4b611ef5565b604052919050565b600067ffffffffffffffff821115611e6d57611e6d611ef5565b50601f01601f191660200190565b60008219821115611e8e57611e8e611edf565b500190565b600082821015611ea557611ea5611edf565b500390565b6000600019821415611ebe57611ebe611edf565b5060010190565b6000600160ff1b821415611edb57611edb611edf565b0390565b634e487b7160e01b600052601160045260246000fd5b634e487b7160e01b600052604160045260246000fd5b6001600160a01b0381168114611f2057600080fd5b50565b8015158114611f2057600080fdfea264697066735822122035b2bcfc5ba1f15e1dc6e83a9bab6c27a8502e79a1228d71248e98a6cf33426964736f6c63430008040033",
  "immutableReferences": {},
  "source": "// SPDX-License-Identifier: MIT\r\npragma solidity ^0.8.4;\r\n\r\nimport \"@openzeppelin/contracts/access/Ownable.sol\";\r\nimport \"./Interfaces.sol\";      // Import file Interfaces.sol tp trung\r\nimport \"./ItemsManagement.sol\"; // Import ItemsManagement  trnh bin dch lin kt contract\r\n\r\n// Hp ng Qun l Tn kho Chnh (Kho trung tm)\r\ncontract WarehouseInventoryManagement is Ownable {\r\n    // S dng cc interface t Interfaces.sol\r\n    IRoleManagementInterface public roleManagementExternal;\r\n    IItemsManagementInterface public itemsManagementExternal;\r\n    IStoreInventoryManagementInterface public storeInventoryManagementExternal;\r\n\r\n    address public warehouseSupplierOrderManagementAddress; //  nhn hng t NCC\r\n    address public customerOrderManagementAddress; //  nhn hng tr v t khch (thm nu cn)\r\n\r\n    // Tn kho chnh: warehouseAddress => itemId => quantity\r\n    mapping(address => mapping(string => uint256)) public stockLevels;\r\n\r\n    // Hng tr v t khch hng ti kho\r\n    mapping(address => mapping(string => uint256)) public returnedStockByCustomer;\r\n\r\n    uint256 public nextInternalTransferId = 1; // ID cho vic chuyn hng ni b Kho -> Ca hng\r\n\r\n    // --- EVENTS ---\r\n    event StockInFromSupplierRecorded(\r\n        address indexed warehouseAddress,\r\n        string itemId,\r\n        uint256 quantityAdded,\r\n        uint256 indexed wsOrderId,\r\n        address indexed byWsom\r\n    );\r\n\r\n    event StockTransferredToStore(\r\n        address indexed fromWarehouseAddress,\r\n        address indexed toStoreAddress,\r\n        string itemId,\r\n        uint256 quantity,\r\n        uint256 indexed internalTransferId,\r\n        address byWarehouseManager // Hoc byRequestingStoreManager nu bn mun ghi li ngi yu cu ban u\r\n    );\r\n\r\n    event CustomerStockReturnedRecordedToWarehouse(\r\n        address indexed returnToWarehouseAddress,\r\n        string itemId,\r\n        uint256 quantityReturned,\r\n        uint256 indexed customerOrderId\r\n    );\r\n\r\n    event StockAdjusted(\r\n        address indexed warehouseAddress,\r\n        string indexed itemId,\r\n        int256 quantityChange,\r\n        string reason,\r\n        address indexed byAdminOrManager // Thay i tn  phn nh r hn\r\n    );\r\n\r\n    event ProcessedReturnedCustomerStockAtWarehouse(\r\n        address indexed warehouseAddress,\r\n        string indexed itemId,\r\n        uint256 quantityProcessed,\r\n        bool addedToMainStock,\r\n        address indexed byAdminOrManager // Thay i tn\r\n    );\r\n\r\n    // Admin/Owner events\r\n    event StoreInventoryManagementAddressSet(address indexed simAddress);\r\n    event WarehouseSupplierOrderManagementAddressSet(address indexed wsomAddress);\r\n    event CustomerOrderManagementAddressSet(address indexed comAddress);\r\n\r\n\r\n    // --- CONSTRUCTOR ---\r\n    constructor(address _roleManagementAddress, address _itemsManagementAddress) Ownable() {\r\n        require(_roleManagementAddress != address(0), \"WIM: Dia chi RM khong hop le\");\r\n        roleManagementExternal = IRoleManagementInterface(_roleManagementAddress);\r\n\r\n        require(_itemsManagementAddress != address(0), \"WIM: Dia chi ItemsM khong hop le\"); // Thm kim tra null\r\n        itemsManagementExternal = IItemsManagementInterface(_itemsManagementAddress);\r\n    }\r\n\r\n    // --- MODIFIERS ---\r\n    // Modifier ch cho php Qun l Kho ca kho c ch nh\r\n    modifier onlyWarehouseManager(address _warehouseAddress) {\r\n        require(_warehouseAddress != address(0), \"WIM: Dia chi kho khong hop le\");\r\n        // S dng PhysicalLocationInfo  c forward-declare trong Interfaces.sol\r\n        PhysicalLocationInfo memory whInfo = itemsManagementExternal.getWarehouseInfo(_warehouseAddress);\r\n        require(whInfo.exists, \"WIM: Kho chua duoc dang ky trong ItemsM\");\r\n        require(whInfo.manager == msg.sender, \"WIM: Nguoi goi khong phai quan ly kho nay\");\r\n\r\n        bytes32 wmRole = roleManagementExternal.WAREHOUSE_MANAGER_ROLE();\r\n        require(roleManagementExternal.hasRole(wmRole, msg.sender), \"WIM: Nguoi goi thieu vai tro QUAN_LY_KHO\");\r\n        _;\r\n    }\r\n\r\n    // --- HM SETTER (Ch Owner) ---\r\n    function setStoreInventoryManagementAddress(address _simAddress) external onlyOwner {\r\n        require(_simAddress != address(0), \"WIM: Dia chi SIM khong hop le\");\r\n        storeInventoryManagementExternal = IStoreInventoryManagementInterface(_simAddress);\r\n        emit StoreInventoryManagementAddressSet(_simAddress);\r\n    }\r\n\r\n    function setWarehouseSupplierOrderManagementAddress(address _wsomAddress) external onlyOwner {\r\n        require(_wsomAddress != address(0), \"WIM: Dia chi WSOM khong hop le\");\r\n        warehouseSupplierOrderManagementAddress = _wsomAddress;\r\n        emit WarehouseSupplierOrderManagementAddressSet(_wsomAddress);\r\n    }\r\n\r\n    function setCustomerOrderManagementAddress(address _comAddress) external onlyOwner {\r\n        require(_comAddress != address(0), \"WIM: Dia chi COM khong hop le\");\r\n        customerOrderManagementAddress = _comAddress;\r\n        emit CustomerOrderManagementAddressSet(_comAddress);\r\n    }\r\n\r\n\r\n    // --- CC HM CT LI ---\r\n\r\n    // c gi bi WarehouseSupplierOrderManagement khi c hng mi t nh cung cp\r\n    function recordStockInFromSupplier(\r\n        address _warehouseAddress,\r\n        string calldata _itemId,\r\n        uint256 _quantity,\r\n        uint256 _wsOrderId\r\n    ) external {\r\n        require(msg.sender == warehouseSupplierOrderManagementAddress, \"WIM: Nguoi goi khong phai WSOM\");\r\n        require(_warehouseAddress != address(0), \"WIM: Dia chi kho khong hop le\");\r\n        require(_quantity > 0, \"WIM: So luong them vao phai la so duong\");\r\n\r\n        // Ty chn: Xc thc _warehouseAddress tn ti thng qua itemsManagementExternal\r\n        // PhysicalLocationInfo memory whInfo = itemsManagementExternal.getWarehouseInfo(_warehouseAddress);\r\n        // require(whInfo.exists, \"WIM: Kho nhan hang khong ton tai\");\r\n\r\n        stockLevels[_warehouseAddress][_itemId] += _quantity;\r\n        emit StockInFromSupplierRecorded(_warehouseAddress, _itemId, _quantity, _wsOrderId, msg.sender);\r\n    }\r\n\r\n    // c gi bi StoreInventoryManagement (thay mt Qun l Ca hng)  yu cu hng\r\n    function requestStockTransferToStore(\r\n        address _requestingStoreManager,\r\n        address _storeAddress,\r\n        address _warehouseAddress, // Kho ngun c ch nh cho ca hng\r\n        string calldata _itemId,\r\n        uint256 _quantity\r\n    ) external returns (uint256 internalTransferId) {\r\n        require(msg.sender == address(storeInventoryManagementExternal), \"WIM: Nguoi goi khong phai SIM\");\r\n        require(_storeAddress != address(0), \"WIM: Dia chi cua hang khong hop le\");\r\n        require(_warehouseAddress != address(0), \"WIM: Dia chi kho nguon khong hop le\");\r\n        require(_quantity > 0, \"WIM: So luong chuyen phai la so duong\");\r\n        require(address(storeInventoryManagementExternal) != address(0), \"WIM: Dia chi SIM chua duoc thiet lap\");\r\n\r\n\r\n        PhysicalLocationInfo memory whInfo = itemsManagementExternal.getWarehouseInfo(_warehouseAddress);\r\n        require(whInfo.exists, \"WIM: Kho nguon chua duoc dang ky\");\r\n        // Logic hin ti khng yu cu ngi gi phi l qun l kho ngun,\r\n        // m tin tng SIM  xc thc yu cu t qun l ca hng hp l.\r\n\r\n        uint256 currentStock = stockLevels[_warehouseAddress][_itemId];\r\n        require(currentStock >= _quantity, \"WIM: Khong du hang trong kho\");\r\n\r\n        stockLevels[_warehouseAddress][_itemId] = currentStock - _quantity;\r\n        internalTransferId = nextInternalTransferId++;\r\n\r\n        storeInventoryManagementExternal.confirmStockReceivedFromWarehouse(\r\n            _storeAddress,\r\n            _itemId,\r\n            _quantity,\r\n            _warehouseAddress, // Bo co kho no  hon thnh vic gi\r\n            internalTransferId\r\n        );\r\n\r\n        emit StockTransferredToStore(_warehouseAddress, _storeAddress, _itemId, _quantity, internalTransferId, _requestingStoreManager);\r\n        return internalTransferId;\r\n    }\r\n\r\n    // c gi bi CustomerOrderManagement khi khch hng tr hng v kho\r\n    function recordReturnedStockByCustomer(\r\n        address _returnToWarehouseAddress, // Kho c th c ch nh cho vic tr hng\r\n        string calldata _itemId,\r\n        uint256 _quantity,\r\n        uint256 _customerOrderId\r\n    ) external {\r\n        require(msg.sender == customerOrderManagementAddress, \"WIM: Nguoi goi khong phai COM duoc uy quyen\");\r\n        require(_returnToWarehouseAddress != address(0), \"WIM: Dia chi kho tra hang khong hop le\");\r\n        require(_quantity > 0, \"WIM: So luong tra ve phai la so duong\");\r\n\r\n        // Ty chn: Xc thc _returnToWarehouseAddress qua itemsManagementExternal\r\n        // PhysicalLocationInfo memory whInfo = itemsManagementExternal.getWarehouseInfo(_returnToWarehouseAddress);\r\n        // require(whInfo.exists, \"WIM: Kho tra hang khong ton tai\");\r\n\r\n        returnedStockByCustomer[_returnToWarehouseAddress][_itemId] += _quantity;\r\n        emit CustomerStockReturnedRecordedToWarehouse(_returnToWarehouseAddress, _itemId, _quantity, _customerOrderId);\r\n    }\r\n\r\n    // --- CC HM ADMIN/QUN L KHO (Owner hoc Qun l Kho tng ng) ---\r\n    function adjustStockManually(\r\n        address _warehouseAddress,\r\n        string calldata _itemId,\r\n        int256 _quantityChange,\r\n        string calldata _reason\r\n    ) external { // Cho php Owner hoc Qun l kho \r\n        bool isOwner = (msg.sender == owner());\r\n        bool isAuthorizedManager = false;\r\n        if (!isOwner) {\r\n            PhysicalLocationInfo memory whInfo = itemsManagementExternal.getWarehouseInfo(_warehouseAddress);\r\n            if (whInfo.exists && whInfo.manager == msg.sender) {\r\n                 bytes32 wmRole = roleManagementExternal.WAREHOUSE_MANAGER_ROLE();\r\n                 if(roleManagementExternal.hasRole(wmRole, msg.sender)){\r\n                    isAuthorizedManager = true;\r\n                 }\r\n            }\r\n        }\r\n        require(isOwner || isAuthorizedManager, \"WIM: Khong co quyen dieu chinh ton kho nay\");\r\n\r\n\r\n        uint256 currentStock = stockLevels[_warehouseAddress][_itemId];\r\n        if (_quantityChange > 0) {\r\n            stockLevels[_warehouseAddress][_itemId] = currentStock + uint256(_quantityChange);\r\n        } else if (_quantityChange < 0) {\r\n            uint256 amountToDecrease = uint256(-_quantityChange);\r\n            require(currentStock >= amountToDecrease, \"WIM: Dieu chinh thu cong dan den ton kho am\");\r\n            stockLevels[_warehouseAddress][_itemId] = currentStock - amountToDecrease;\r\n        } else {\r\n            revert(\"WIM: Thay doi so luong khong the bang khong\");\r\n        }\r\n        emit StockAdjusted(_warehouseAddress, _itemId, _quantityChange, _reason, msg.sender);\r\n    }\r\n\r\n    function processCustomerReturnedStock(\r\n        address _warehouseAddress,\r\n        string calldata _itemId,\r\n        uint256 _quantityToProcess,\r\n        bool _addToMainStock\r\n    ) external { // Cho php Owner hoc Qun l kho \r\n        bool isOwner = (msg.sender == owner());\r\n        bool isAuthorizedManager = false;\r\n        if (!isOwner) {\r\n            PhysicalLocationInfo memory whInfo = itemsManagementExternal.getWarehouseInfo(_warehouseAddress);\r\n            if (whInfo.exists && whInfo.manager == msg.sender) {\r\n                 bytes32 wmRole = roleManagementExternal.WAREHOUSE_MANAGER_ROLE();\r\n                 if(roleManagementExternal.hasRole(wmRole, msg.sender)){\r\n                    isAuthorizedManager = true;\r\n                 }\r\n            }\r\n        }\r\n        require(isOwner || isAuthorizedManager, \"WIM: Khong co quyen xu ly hang tra ve kho nay\");\r\n\r\n\r\n        require(_quantityToProcess > 0, \"WIM: So luong xu ly phai la so duong\");\r\n        uint256 currentReturnedStock = returnedStockByCustomer[_warehouseAddress][_itemId];\r\n        require(currentReturnedStock >= _quantityToProcess, \"WIM: Khong du hang tra ve de xu ly\");\r\n\r\n        returnedStockByCustomer[_warehouseAddress][_itemId] = currentReturnedStock - _quantityToProcess;\r\n        if (_addToMainStock) {\r\n            stockLevels[_warehouseAddress][_itemId] += _quantityToProcess;\r\n        }\r\n        emit ProcessedReturnedCustomerStockAtWarehouse(_warehouseAddress, _itemId, _quantityToProcess, _addToMainStock, msg.sender);\r\n    }\r\n\r\n    // --- CC HM XEM (VIEW FUNCTIONS) ---\r\n    function getWarehouseStockLevel(address _warehouseAddress, string calldata _itemId) external view returns (uint256) {\r\n        require(_warehouseAddress != address(0), \"WIM: Dia chi kho khong hop le\");\r\n        return stockLevels[_warehouseAddress][_itemId];\r\n    }\r\n\r\n    function getCustomerReturnedStockLevelAtWarehouse(address _warehouseAddress, string calldata _itemId) external view returns (uint256) {\r\n        require(_warehouseAddress != address(0), \"WIM: Dia chi kho khong hop le\");\r\n        return returnedStockByCustomer[_warehouseAddress][_itemId];\r\n    }\r\n}",
  "sourcePath": "D:\\nhi\\Logtech\\New tech in Log\\dapp2\\SC\\contracts\\WarehouseInventory.sol",
  "compiler": {
    "name": "solc",
    "version": "0.8.4+commit.c7e474f2.Emscripten.clang"
  },
  "schemaVersion": "3.4.16",
  "updatedAt": "2025-06-02T14:26:21.216Z",
  "devdoc": {
    "kind": "dev",
    "methods": {
      "owner()": {
        "details": "Returns the address of the current owner."
      },
      "renounceOwnership()": {
        "details": "Leaves the contract without owner. It will not be possible to call `onlyOwner` functions anymore. Can only be called by the current owner. NOTE: Renouncing ownership will leave the contract without an owner, thereby removing any functionality that is only available to the owner."
      },
      "transferOwnership(address)": {
        "details": "Transfers ownership of the contract to a new account (`newOwner`). Can only be called by the current owner."
      }
    },
    "version": 1
  },
  "userdoc": {
    "kind": "user",
    "methods": {},
    "version": 1
  }
}