{
  "contractName": "WarehouseInventoryManagement",
  "abi": [
    {
      "inputs": [
        {
          "internalType": "address",
          "name": "_roleManagementAddress",
          "type": "address"
        },
        {
          "internalType": "address",
          "name": "_itemsManagementAddress",
          "type": "address"
        }
      ],
      "stateMutability": "nonpayable",
      "type": "constructor"
    },
    {
      "anonymous": false,
      "inputs": [
        {
          "indexed": true,
          "internalType": "address",
          "name": "returnToWarehouseAddress",
          "type": "address"
        },
        {
          "indexed": false,
          "internalType": "string",
          "name": "itemId",
          "type": "string"
        },
        {
          "indexed": false,
          "internalType": "uint256",
          "name": "quantityReturned",
          "type": "uint256"
        },
        {
          "indexed": true,
          "internalType": "uint256",
          "name": "customerOrderId",
          "type": "uint256"
        }
      ],
      "name": "CustomerStockReturnedRecordedToWarehouse",
      "type": "event"
    },
    {
      "anonymous": false,
      "inputs": [
        {
          "indexed": true,
          "internalType": "address",
          "name": "previousOwner",
          "type": "address"
        },
        {
          "indexed": true,
          "internalType": "address",
          "name": "newOwner",
          "type": "address"
        }
      ],
      "name": "OwnershipTransferred",
      "type": "event"
    },
    {
      "anonymous": false,
      "inputs": [
        {
          "indexed": true,
          "internalType": "address",
          "name": "warehouseAddress",
          "type": "address"
        },
        {
          "indexed": true,
          "internalType": "string",
          "name": "itemId",
          "type": "string"
        },
        {
          "indexed": false,
          "internalType": "uint256",
          "name": "quantityProcessed",
          "type": "uint256"
        },
        {
          "indexed": false,
          "internalType": "bool",
          "name": "addedToMainStock",
          "type": "bool"
        },
        {
          "indexed": true,
          "internalType": "address",
          "name": "byAdmin",
          "type": "address"
        }
      ],
      "name": "ProcessedReturnedCustomerStockAtWarehouse",
      "type": "event"
    },
    {
      "anonymous": false,
      "inputs": [
        {
          "indexed": true,
          "internalType": "address",
          "name": "warehouseAddress",
          "type": "address"
        },
        {
          "indexed": true,
          "internalType": "string",
          "name": "itemId",
          "type": "string"
        },
        {
          "indexed": false,
          "internalType": "int256",
          "name": "quantityChange",
          "type": "int256"
        },
        {
          "indexed": false,
          "internalType": "string",
          "name": "reason",
          "type": "string"
        },
        {
          "indexed": true,
          "internalType": "address",
          "name": "byAdmin",
          "type": "address"
        }
      ],
      "name": "StockAdjusted",
      "type": "event"
    },
    {
      "anonymous": false,
      "inputs": [
        {
          "indexed": true,
          "internalType": "address",
          "name": "warehouseAddress",
          "type": "address"
        },
        {
          "indexed": false,
          "internalType": "string",
          "name": "itemId",
          "type": "string"
        },
        {
          "indexed": false,
          "internalType": "uint256",
          "name": "quantityAdded",
          "type": "uint256"
        },
        {
          "indexed": true,
          "internalType": "uint256",
          "name": "wsOrderId",
          "type": "uint256"
        },
        {
          "indexed": true,
          "internalType": "address",
          "name": "byWsom",
          "type": "address"
        }
      ],
      "name": "StockInFromSupplierRecorded",
      "type": "event"
    },
    {
      "anonymous": false,
      "inputs": [
        {
          "indexed": true,
          "internalType": "address",
          "name": "fromWarehouseAddress",
          "type": "address"
        },
        {
          "indexed": true,
          "internalType": "address",
          "name": "toStoreAddress",
          "type": "address"
        },
        {
          "indexed": false,
          "internalType": "string",
          "name": "itemId",
          "type": "string"
        },
        {
          "indexed": false,
          "internalType": "uint256",
          "name": "quantity",
          "type": "uint256"
        },
        {
          "indexed": true,
          "internalType": "uint256",
          "name": "internalTransferId",
          "type": "uint256"
        },
        {
          "indexed": false,
          "internalType": "address",
          "name": "byWarehouseManager",
          "type": "address"
        }
      ],
      "name": "StockTransferredToStore",
      "type": "event"
    },
    {
      "inputs": [],
      "name": "itemsManagementExternal",
      "outputs": [
        {
          "internalType": "contract IItemsManagementInterface",
          "name": "",
          "type": "address"
        }
      ],
      "stateMutability": "view",
      "type": "function"
    },
    {
      "inputs": [],
      "name": "nextInternalTransferId",
      "outputs": [
        {
          "internalType": "uint256",
          "name": "",
          "type": "uint256"
        }
      ],
      "stateMutability": "view",
      "type": "function"
    },
    {
      "inputs": [],
      "name": "owner",
      "outputs": [
        {
          "internalType": "address",
          "name": "",
          "type": "address"
        }
      ],
      "stateMutability": "view",
      "type": "function"
    },
    {
      "inputs": [],
      "name": "renounceOwnership",
      "outputs": [],
      "stateMutability": "nonpayable",
      "type": "function"
    },
    {
      "inputs": [
        {
          "internalType": "address",
          "name": "",
          "type": "address"
        },
        {
          "internalType": "string",
          "name": "",
          "type": "string"
        }
      ],
      "name": "returnedStockByCustomer",
      "outputs": [
        {
          "internalType": "uint256",
          "name": "",
          "type": "uint256"
        }
      ],
      "stateMutability": "view",
      "type": "function"
    },
    {
      "inputs": [],
      "name": "roleManagementExternal",
      "outputs": [
        {
          "internalType": "contract IRoleManagementInterface",
          "name": "",
          "type": "address"
        }
      ],
      "stateMutability": "view",
      "type": "function"
    },
    {
      "inputs": [
        {
          "internalType": "address",
          "name": "",
          "type": "address"
        },
        {
          "internalType": "string",
          "name": "",
          "type": "string"
        }
      ],
      "name": "stockLevels",
      "outputs": [
        {
          "internalType": "uint256",
          "name": "",
          "type": "uint256"
        }
      ],
      "stateMutability": "view",
      "type": "function"
    },
    {
      "inputs": [],
      "name": "storeInventoryManagementExternal",
      "outputs": [
        {
          "internalType": "contract IStoreInventoryManagementInterface",
          "name": "",
          "type": "address"
        }
      ],
      "stateMutability": "view",
      "type": "function"
    },
    {
      "inputs": [
        {
          "internalType": "address",
          "name": "newOwner",
          "type": "address"
        }
      ],
      "name": "transferOwnership",
      "outputs": [],
      "stateMutability": "nonpayable",
      "type": "function"
    },
    {
      "inputs": [],
      "name": "warehouseSupplierOrderManagementAddress",
      "outputs": [
        {
          "internalType": "address",
          "name": "",
          "type": "address"
        }
      ],
      "stateMutability": "view",
      "type": "function"
    },
    {
      "inputs": [
        {
          "internalType": "address",
          "name": "_simAddress",
          "type": "address"
        }
      ],
      "name": "setStoreInventoryManagementAddress",
      "outputs": [],
      "stateMutability": "nonpayable",
      "type": "function"
    },
    {
      "inputs": [
        {
          "internalType": "address",
          "name": "_wsomAddress",
          "type": "address"
        }
      ],
      "name": "setWarehouseSupplierOrderManagementAddress",
      "outputs": [],
      "stateMutability": "nonpayable",
      "type": "function"
    },
    {
      "inputs": [
        {
          "internalType": "address",
          "name": "_warehouseAddress",
          "type": "address"
        },
        {
          "internalType": "string",
          "name": "_itemId",
          "type": "string"
        },
        {
          "internalType": "uint256",
          "name": "_quantity",
          "type": "uint256"
        },
        {
          "internalType": "uint256",
          "name": "_wsOrderId",
          "type": "uint256"
        }
      ],
      "name": "recordStockInFromSupplier",
      "outputs": [],
      "stateMutability": "nonpayable",
      "type": "function"
    },
    {
      "inputs": [
        {
          "internalType": "address",
          "name": "_requestingStoreManager",
          "type": "address"
        },
        {
          "internalType": "address",
          "name": "_storeAddress",
          "type": "address"
        },
        {
          "internalType": "address",
          "name": "_warehouseAddress",
          "type": "address"
        },
        {
          "internalType": "string",
          "name": "_itemId",
          "type": "string"
        },
        {
          "internalType": "uint256",
          "name": "_quantity",
          "type": "uint256"
        }
      ],
      "name": "requestStockTransferToStore",
      "outputs": [
        {
          "internalType": "uint256",
          "name": "internalTransferId",
          "type": "uint256"
        }
      ],
      "stateMutability": "nonpayable",
      "type": "function"
    },
    {
      "inputs": [
        {
          "internalType": "address",
          "name": "_returnToWarehouseAddress",
          "type": "address"
        },
        {
          "internalType": "string",
          "name": "_itemId",
          "type": "string"
        },
        {
          "internalType": "uint256",
          "name": "_quantity",
          "type": "uint256"
        },
        {
          "internalType": "uint256",
          "name": "_customerOrderId",
          "type": "uint256"
        }
      ],
      "name": "recordReturnedStockByCustomer",
      "outputs": [],
      "stateMutability": "nonpayable",
      "type": "function"
    },
    {
      "inputs": [
        {
          "internalType": "address",
          "name": "_warehouseAddress",
          "type": "address"
        },
        {
          "internalType": "string",
          "name": "_itemId",
          "type": "string"
        },
        {
          "internalType": "int256",
          "name": "_quantityChange",
          "type": "int256"
        },
        {
          "internalType": "string",
          "name": "_reason",
          "type": "string"
        }
      ],
      "name": "adjustStockManually",
      "outputs": [],
      "stateMutability": "nonpayable",
      "type": "function"
    },
    {
      "inputs": [
        {
          "internalType": "address",
          "name": "_warehouseAddress",
          "type": "address"
        },
        {
          "internalType": "string",
          "name": "_itemId",
          "type": "string"
        },
        {
          "internalType": "uint256",
          "name": "_quantityToProcess",
          "type": "uint256"
        },
        {
          "internalType": "bool",
          "name": "_addToMainStock",
          "type": "bool"
        }
      ],
      "name": "processCustomerReturnedStock",
      "outputs": [],
      "stateMutability": "nonpayable",
      "type": "function"
    },
    {
      "inputs": [
        {
          "internalType": "address",
          "name": "_warehouseAddress",
          "type": "address"
        },
        {
          "internalType": "string",
          "name": "_itemId",
          "type": "string"
        }
      ],
      "name": "getWarehouseStockLevel",
      "outputs": [
        {
          "internalType": "uint256",
          "name": "",
          "type": "uint256"
        }
      ],
      "stateMutability": "view",
      "type": "function"
    },
    {
      "inputs": [
        {
          "internalType": "address",
          "name": "_warehouseAddress",
          "type": "address"
        },
        {
          "internalType": "string",
          "name": "_itemId",
          "type": "string"
        }
      ],
      "name": "getCustomerReturnedStockLevelAtWarehouse",
      "outputs": [
        {
          "internalType": "uint256",
          "name": "",
          "type": "uint256"
        }
      ],
      "stateMutability": "view",
      "type": "function"
    }
  ],
  "bytecode": "0x608060405260016007553480156200001657600080fd5b506040516200187f3803806200187f83398101604081905262000039916200013e565b600080546001600160a01b031916339081178255604051909182917f8be0079c531659141344cd1fd0a4f28419497f9722a3daafe3b4186f6b6457e0908290a3506001600160a01b038216620000d55760405162461bcd60e51b815260206004820152601c60248201527f57494d3a204469612063686920524d206b686f6e6720686f70206c6500000000604482015260640160405180910390fd5b600180546001600160a01b0319166001600160a01b03848116919091179091558116156200011957600280546001600160a01b0319166001600160a01b0383161790555b505062000175565b80516001600160a01b03811681146200013957600080fd5b919050565b6000806040838503121562000151578182fd5b6200015c8362000121565b91506200016c6020840162000121565b90509250929050565b6116fa80620001856000396000f3fe608060405234801561001057600080fd5b50600436106100f15760003560e01c80630d469283146100f65780631f8b929d1461011c57806325a5e9b21461012f57806346ba85fe146101445780635db41c3e14610157578063715018a6146101935780638befa1031461019b5780638da5cb5b146101ae578063963ca3ce146101c35780639e70350f146101ff578063be77f07214610212578063c3a087cd14610225578063c94c54a114610238578063cc11ff7f1461024b578063d04cc29b1461025e578063e53e082514610271578063e6a219431461027a578063f2fde38b1461028d578063feedc7d3146102a0575b600080fd5b61010961010436600461112c565b6102b3565b6040519081526020015b60405180910390f35b61010961012a3660046110ab565b6102f3565b61014261013d366004611277565b610635565b005b61010961015236600461112c565b610730565b6101096101653660046112db565b6005602090815260009283526040909220815180830184018051928152908401929093019190912091525481565b610142610758565b6101426101a9366004611206565b6107bf565b6101b66109dc565b604051610113919061146a565b6101096101d13660046112db565b6006602090815260009283526040909220815180830184018051928152908401929093019190912091525481565b61014261020d366004611088565b6109eb565b610142610220366004611277565b610a92565b61014261023336600461117e565b610bf3565b6004546101b6906001600160a01b031681565b6003546101b6906001600160a01b031681565b6002546101b6906001600160a01b031681565b61010960075481565b6001546101b6906001600160a01b031681565b61014261029b366004611088565b610e33565b6101426102ae366004611088565b610f10565b6001600160a01b03831660009081526005602052604080822090516102db908590859061145a565b90815260200160405180910390205490509392505050565b6003546000906001600160a01b031633146103555760405162461bcd60e51b815260206004820152601d60248201527f57494d3a204e67756f6920676f69206b686f6e6720706861692053494d00000060448201526064015b60405180910390fd5b600082116103b35760405162461bcd60e51b815260206004820152602560248201527f57494d3a20536f206c756f6e672063687579656e2070686169206c6120736f2060448201526464756f6e6760d81b606482015260840161034c565b600254604051637160572b60e01b81526000916001600160a01b031690637160572b906103e490899060040161146a565b60006040518083038186803b1580156103fc57600080fd5b505afa158015610410573d6000803e3d6000fd5b505050506040513d6000823e601f3d908101601f191682016040526104389190810190611362565b9050806080015161048b5760405162461bcd60e51b815260206004820181905260248201527f57494d3a204b686f206e67756f6e20636875612064756f632064616e67206b79604482015260640161034c565b6001600160a01b03861660009081526005602052604080822090516104b3908890889061145a565b9081526020016040518091039020549050838110156105135760405162461bcd60e51b815260206004820152601c60248201527b57494d3a204b686f6e672064752068616e672074726f6e67206b686f60201b604482015260640161034c565b61051d8482611606565b6001600160a01b038816600090815260056020526040908190209051610546908990899061145a565b90815260405190819003602001902055600780549060006105668361161d565b90915550600354604051634d600ef360e11b81529194506001600160a01b031690639ac01de6906105a5908b908a908a908a908e908b9060040161147e565b600060405180830381600087803b1580156105bf57600080fd5b505af11580156105d3573d6000803e3d6000fd5b5050505082886001600160a01b0316886001600160a01b03167f0e354fafb6caea45f9580177206df876eec0c1bba922f3e62cb5b0758083a04f8989898f6040516106219493929190611505565b60405180910390a450509695505050505050565b600082116106935760405162461bcd60e51b815260206004820152602560248201527f57494d3a20536f206c756f6e67207472612076652070686169206c6120736f2060448201526464756f6e6760d81b606482015260840161034c565b6001600160a01b0385166000908152600660205260409081902090518391906106bf908790879061145a565b908152602001604051809103902060008282546106dc91906115ee565b9250508190555080856001600160a01b03167f969e3aadc8dda52eb973b507ec1a260c78c514cf3c5a201734449a73a36a7dfc868686604051610721939291906114e1565b60405180910390a35050505050565b6001600160a01b03831660009081526006602052604080822090516102db908590859061145a565b336107616109dc565b6001600160a01b0316146107875760405162461bcd60e51b815260040161034c9061153a565b600080546040516001600160a01b03909116906000805160206116a5833981519152908390a3600080546001600160a01b0319169055565b336107c86109dc565b6001600160a01b0316146107ee5760405162461bcd60e51b815260040161034c9061153a565b6000821161084a5760405162461bcd60e51b8152602060048201526024808201527f57494d3a20536f206c756f6e67207875206c792070686169206c6120736f2064604482015263756f6e6760e01b606482015260840161034c565b6001600160a01b0385166000908152600660205260408082209051610872908790879061145a565b9081526020016040518091039020549050828110156108de5760405162461bcd60e51b815260206004820152602260248201527f57494d3a204b686f6e672064752068616e6720747261207665206465207875206044820152616c7960f01b606482015260840161034c565b6108e88382611606565b6001600160a01b038716600090815260066020526040908190209051610911908890889061145a565b908152604051908190036020019020558115610976576001600160a01b038616600090815260056020526040908190209051849190610953908890889061145a565b9081526020016040518091039020600082825461097091906115ee565b90915550505b6040513390610988908790879061145a565b604080519182900382208683528515156020840152916001600160a01b038a16917f9fea66fc1ff8ab38fd935833ea9542ea08ec8fb497fd16099054e475c131aaff910160405180910390a4505050505050565b6000546001600160a01b031690565b336109f46109dc565b6001600160a01b031614610a1a5760405162461bcd60e51b815260040161034c9061153a565b6001600160a01b038116610a705760405162461bcd60e51b815260206004820152601e60248201527f57494d3a20446961206368692057534f4d206b686f6e6720686f70206c650000604482015260640161034c565b600480546001600160a01b0319166001600160a01b0392909216919091179055565b6004546001600160a01b03163314610aec5760405162461bcd60e51b815260206004820152601e60248201527f57494d3a204e67756f6920676f69206b686f6e6720706861692057534f4d0000604482015260640161034c565b60008211610b4c5760405162461bcd60e51b815260206004820152602760248201527f57494d3a20536f206c756f6e67207468656d2076616f2070686169206c6120736044820152666f2064756f6e6760c81b606482015260840161034c565b6001600160a01b038516600090815260056020526040908190209051839190610b78908790879061145a565b90815260200160405180910390206000828254610b9591906115ee565b92505081905550336001600160a01b031681866001600160a01b03167f1e4ff52ce816e4259be08bbb6549aded6b88a1e9cfb191029752f4592b0e1771878787604051610be4939291906114e1565b60405180910390a45050505050565b33610bfc6109dc565b6001600160a01b031614610c225760405162461bcd60e51b815260040161034c9061153a565b6001600160a01b0386166000908152600560205260408082209051610c4a908890889061145a565b90815260200160405180910390205490506000841315610cac57610c6e84826115ee565b6001600160a01b038816600090815260056020526040908190209051610c97908990899061145a565b90815260405190819003602001902055610dcb565b6000841215610d6f576000610cc085611638565b905080821015610d265760405162461bcd60e51b815260206004820152602b60248201527f57494d3a2044696575206368696e682074687520636f6e672064616e2064656e60448201526a20746f6e206b686f20616d60a81b606482015260840161034c565b610d308183611606565b6001600160a01b038916600090815260056020526040908190209051610d59908a908a9061145a565b9081526040519081900360200190205550610dcb565b60405162461bcd60e51b815260206004820152602b60248201527f57494d3a205468617920646f6920736f206c756f6e67206b686f6e672074686560448201526a2062616e67206b686f6e6760a81b606482015260840161034c565b6040513390610ddd908890889061145a565b6040518091039020886001600160a01b03167f174bc369afea7ab6cbcd1994bd3075bbd3c07fd2b527578e0d996fdad901f494878787604051610e22939291906114be565b60405180910390a450505050505050565b33610e3c6109dc565b6001600160a01b031614610e625760405162461bcd60e51b815260040161034c9061153a565b6001600160a01b038116610ec75760405162461bcd60e51b815260206004820152602660248201527f4f776e61626c653a206e6577206f776e657220697320746865207a65726f206160448201526564647265737360d01b606482015260840161034c565b600080546040516001600160a01b03808516939216916000805160206116a583398151915291a3600080546001600160a01b0319166001600160a01b0392909216919091179055565b33610f196109dc565b6001600160a01b031614610f3f5760405162461bcd60e51b815260040161034c9061153a565b6001600160a01b038116610f955760405162461bcd60e51b815260206004820152601d60248201527f57494d3a20446961206368692053494d206b686f6e6720686f70206c65000000604482015260640161034c565b600380546001600160a01b0319166001600160a01b0392909216919091179055565b8051610fc28161167e565b919050565b8051610fc281611696565b60008083601f840112610fe3578182fd5b5081356001600160401b03811115610ff9578182fd5b60208301915083602082850101111561101157600080fd5b9250929050565b600082601f830112611028578081fd5b815161103b611036826115c7565b611597565b81815260208581848701011115611050578384fd5b835b8381101561106d578581018201518382018301528101611052565b8381111561107d57848285850101525b509095945050505050565b600060208284031215611099578081fd5b81356110a48161167e565b9392505050565b60008060008060008060a087890312156110c3578182fd5b86356110ce8161167e565b955060208701356110de8161167e565b945060408701356110ee8161167e565b935060608701356001600160401b03811115611108578283fd5b61111489828a01610fd2565b979a9699509497949695608090950135949350505050565b600080600060408486031215611140578283fd5b833561114b8161167e565b925060208401356001600160401b03811115611165578283fd5b61117186828701610fd2565b9497909650939450505050565b60008060008060008060808789031215611196578182fd5b86356111a18161167e565b955060208701356001600160401b03808211156111bc578384fd5b6111c88a838b01610fd2565b90975095506040890135945060608901359150808211156111e7578384fd5b506111f489828a01610fd2565b979a9699509497509295939492505050565b60008060008060006080868803121561121d578081fd5b85356112288161167e565b945060208601356001600160401b03811115611242578182fd5b61124e88828901610fd2565b90955093505060408601359150606086013561126981611696565b809150509295509295909350565b60008060008060006080868803121561128e578081fd5b85356112998161167e565b945060208601356001600160401b038111156112b3578182fd5b6112bf88828901610fd2565b9699909850959660408101359660609091013595509350505050565b600080604083850312156112ed578182fd5b82356112f88161167e565b915060208301356001600160401b03811115611312578182fd5b8301601f81018513611322578182fd5b8035611330611036826115c7565b818152866020838501011115611344578384fd5b81602084016020830137908101602001929092525090939092509050565b600060208284031215611373578081fd5b81516001600160401b0380821115611389578283fd5b9083019060c0828603121561139c578283fd5b6113a461156f565b6113ad83610fb7565b81526020830151828111156113c0578485fd5b6113cc87828601611018565b6020830152506040830151828111156113e3578485fd5b6113ef87828601611018565b60408301525061140160608401610fb7565b606082015261141260808401610fc7565b608082015261142360a08401610fb7565b60a082015295945050505050565b81835281816020850137506000828201602090810191909152601f909101601f19169091010190565b8183823760009101908152919050565b6001600160a01b0391909116815260200190565b600060018060a01b03808916835260a060208401526114a160a08401888a611431565b604084019690965293909316606082015260800152509392505050565b8381526040602082015260006114d8604083018486611431565b95945050505050565b6040815260006114f5604083018587611431565b9050826020830152949350505050565b606081526000611519606083018688611431565b6020830194909452506001600160a01b039190911660409091015292915050565b6020808252818101527f4f776e61626c653a2063616c6c6572206973206e6f7420746865206f776e6572604082015260600190565b60405160c081016001600160401b038111828210171561159157611591611668565b60405290565b604051601f8201601f191681016001600160401b03811182821017156115bf576115bf611668565b604052919050565b60006001600160401b038211156115e0576115e0611668565b50601f01601f191660200190565b6000821982111561160157611601611652565b500190565b60008282101561161857611618611652565b500390565b600060001982141561163157611631611652565b5060010190565b6000600160ff1b82141561164e5761164e611652565b0390565b634e487b7160e01b600052601160045260246000fd5b634e487b7160e01b600052604160045260246000fd5b6001600160a01b038116811461169357600080fd5b50565b801515811461169357600080fdfe8be0079c531659141344cd1fd0a4f28419497f9722a3daafe3b4186f6b6457e0a26469706673582212209341c62a63db1874efc630f8a065817c42eb21f754cc32b10ac303261983215164736f6c63430008040033",
  "immutableReferences": {},
  "source": "// SPDX-License-Identifier: MIT\r\npragma solidity ^0.8.4;\r\n\r\nimport \"@openzeppelin/contracts/access/Ownable.sol\";\r\n\r\n// Khai bo trc cu trc t ItemsManagement\r\ncontract ItemsManagement { // Tn hp ng, khng phi tn interface\r\n    struct PhysicalLocationInfo { address locationId; string name; string locationType; address manager; bool exists; address designatedSourceWarehouseAddress; }\r\n}\r\n\r\n// Interface cho RoleManagement  kim tra vai tr Qun l Kho\r\ninterface IRoleManagementInterface {\r\n    function WAREHOUSE_MANAGER_ROLE() external view returns (bytes32);\r\n    function hasRole(bytes32 role, address account) external view returns (bool);\r\n}\r\n\r\n// Interface cho ItemsManagement  ly thng tin kho (ty chn)\r\ninterface IItemsManagementInterface {\r\n    function getWarehouseInfo(address warehouseAddress) external view returns (ItemsManagement.PhysicalLocationInfo memory);\r\n    // C th khng cn getItemInfo nu tin tng itemId t cc hp ng khc\r\n}\r\n\r\n// Interface cho StoreInventoryManagement  thng bo khi hng  c chuyn\r\ninterface IStoreInventoryManagementInterface {\r\n    function confirmStockReceivedFromWarehouse(\r\n        address storeAddress,       // Ca hng nhn\r\n        string calldata itemId,     // Mt hng\r\n        uint256 quantity,           // S lng\r\n        address fromWarehouseAddress, // Kho  gi (a ch ca hp ng ny)\r\n        uint256 internalTransferId  // ID giao dch chuyn ni b\r\n    ) external;\r\n}\r\n\r\n// Hp ng Qun l Tn kho Chnh (Kho trung tm)\r\ncontract WarehouseInventoryManagement is Ownable {\r\n    IRoleManagementInterface public roleManagementExternal;\r\n    IItemsManagementInterface public itemsManagementExternal; // Ty chn,  kim tra thm\r\n    IStoreInventoryManagementInterface public storeInventoryManagementExternal; // Hp ng Qun l Tn kho Ca hng\r\n    \r\n    address public warehouseSupplierOrderManagementAddress; //  nhn hng t NCC\r\n\r\n    // Tn kho chnh: warehouseAddress => itemId => quantity\r\n    mapping(address => mapping(string => uint256)) public stockLevels;\r\n\r\n    // Hng tr v t khch hng ti kho\r\n    mapping(address => mapping(string => uint256)) public returnedStockByCustomer;\r\n\r\n    uint256 public nextInternalTransferId = 1; // ID cho vic chuyn hng ni b Kho -> Ca hng\r\n\r\n    // S kin\r\n        event StockInFromSupplierRecorded(\r\n        address indexed warehouseAddress, // QUAN TRNG  lc theo kho\r\n        string itemId,                    // itemId thng khng cn indexed nu bn lun c warehouseAddress\r\n        uint256 quantityAdded,\r\n        uint256 indexed wsOrderId,        // QUAN TRNG  lin kt vi n hng NCC\r\n        address indexed byWsom            // QUAN TRNG  bit ai gi\r\n    ); // 3 indexed: warehouseAddress, wsOrderId, byWsom\r\n\r\n    event StockTransferredToStore(\r\n        address indexed fromWarehouseAddress, // QUAN TRNG\r\n        address indexed toStoreAddress,       // QUAN TRNG\r\n        string itemId,\r\n        uint256 quantity,\r\n        uint256 indexed internalTransferId,   // QUAN TRNG  theo di\r\n        address byWarehouseManager            // Ngi qun l kho thc hin, c th khng cn indexed nu bn c fromWarehouseAddress\r\n    ); // 3 indexed: fromWarehouseAddress, toStoreAddress, internalTransferId\r\n\r\n    event CustomerStockReturnedRecordedToWarehouse(\r\n        address indexed returnToWarehouseAddress, // QUAN TRNG\r\n        string itemId,\r\n        uint256 quantityReturned,\r\n        uint256 indexed customerOrderId         // QUAN TRNG\r\n        // Khng cn thm indexed  y\r\n    ); // 2 indexed: returnToWarehouseAddress, customerOrderId (OK)\r\n\r\n    event StockAdjusted(\r\n        address indexed warehouseAddress,        // QUAN TRNG\r\n        string indexed itemId,                   // QUAN TRNG\r\n        int256 quantityChange,\r\n        string reason,\r\n        address indexed byAdmin                  // QUAN TRNG\r\n    ); // 3 indexed: warehouseAddress, itemId, byAdmin (OK)\r\n\r\n    event ProcessedReturnedCustomerStockAtWarehouse(\r\n        address indexed warehouseAddress,        // QUAN TRNG\r\n        string indexed itemId,                   // QUAN TRNG\r\n        uint256 quantityProcessed,\r\n        bool addedToMainStock,\r\n        address indexed byAdmin                  // QUAN TRNG\r\n    );\r\n    constructor(address _roleManagementAddress, address _itemsManagementAddress) Ownable() {\r\n        require(_roleManagementAddress != address(0), \"WIM: Dia chi RM khong hop le\"); // WIM: a ch RM khng hp l\r\n        roleManagementExternal = IRoleManagementInterface(_roleManagementAddress);\r\n        \r\n        if (_itemsManagementAddress != address(0)) {\r\n            itemsManagementExternal = IItemsManagementInterface(_itemsManagementAddress);\r\n        }\r\n    }\r\n\r\n    // Modifier ch cho php Qun l Kho ca kho c ch nh\r\n    modifier onlyWarehouseManager(address _warehouseAddress) {\r\n        // Kim tra _warehouseAddress c phi l kho hp l V msg.sender l qun l ca kho \r\n        ItemsManagement.PhysicalLocationInfo memory whInfo = itemsManagementExternal.getWarehouseInfo(_warehouseAddress);\r\n        require(whInfo.exists, \"WIM: Kho chua duoc dang ky trong ItemsM\"); // WIM: Kho cha c ng k trong ItemsM\r\n        require(whInfo.manager == msg.sender, \"WIM: Nguoi goi khong phai quan ly kho nay\"); // WIM: Ngi gi khng phi qun l kho ny\r\n        bytes32 wmRole = roleManagementExternal.WAREHOUSE_MANAGER_ROLE();\r\n        require(roleManagementExternal.hasRole(wmRole, msg.sender), \"WIM: Nguoi goi thieu vai tro QUAN_LY_KHO\"); // WIM: Ngi gi thiu vai tr QUAN_LY_KHO\r\n        _;\r\n    }\r\n\r\n    // --- HM SETTER (Ch Owner) ---\r\n    function setStoreInventoryManagementAddress(address _simAddress) external onlyOwner {\r\n        require(_simAddress != address(0), \"WIM: Dia chi SIM khong hop le\"); // WIM: a ch SIM khng hp l\r\n        storeInventoryManagementExternal = IStoreInventoryManagementInterface(_simAddress);\r\n    }\r\n\r\n    function setWarehouseSupplierOrderManagementAddress(address _wsomAddress) external onlyOwner {\r\n        require(_wsomAddress != address(0), \"WIM: Dia chi WSOM khong hop le\"); // WIM: a ch WSOM khng hp l\r\n        warehouseSupplierOrderManagementAddress = _wsomAddress;\r\n    }\r\n\r\n    // --- CC HM CT LI ---\r\n\r\n    // c gi bi WarehouseSupplierOrderManagement khi c hng mi t nh cung cp\r\n    function recordStockInFromSupplier(\r\n        address _warehouseAddress,      // Kho nhn hng\r\n        string calldata _itemId,         // Mt hng\r\n        uint256 _quantity,              // S lng\r\n        uint256 _wsOrderId              // ID n hng Kho-NCC\r\n    ) external {\r\n        require(msg.sender == warehouseSupplierOrderManagementAddress, \"WIM: Nguoi goi khong phai WSOM\"); // WIM: Ngi gi khng phi WSOM\r\n        require(_quantity > 0, \"WIM: So luong them vao phai la so duong\"); // WIM: S lng thm vo phi l s dng\r\n        // Ty chn: Xc thc _warehouseAddress tn ti thng qua itemsManagementExternal\r\n\r\n        stockLevels[_warehouseAddress][_itemId] += _quantity;\r\n        emit StockInFromSupplierRecorded(_warehouseAddress, _itemId, _quantity, _wsOrderId, msg.sender);\r\n    }\r\n\r\n    // c gi bi StoreInventoryManagement (thay mt Qun l Ca hng)  yu cu hng\r\n    // Logic ny gi nh StoreInventoryManagement  xc thc Qun l Ca hng v kho ngun ch nh.\r\n    function requestStockTransferToStore(\r\n        address _requestingStoreManager, // Ngi qun l ca hng yu cu (c SIM xc thc)\r\n        address _storeAddress,          // Ca hng yu cu\r\n        address _warehouseAddress,      // Kho ngun c ch nh cho ca hng\r\n        string calldata _itemId,         // Mt hng\r\n        uint256 _quantity               // S lng\r\n    ) external returns (uint256 internalTransferId) {\r\n        require(msg.sender == address(storeInventoryManagementExternal), \"WIM: Nguoi goi khong phai SIM\"); // WIM: Ngi gi khng phi SIM\r\n        require(_quantity > 0, \"WIM: So luong chuyen phai la so duong\"); // WIM: S lng chuyn phi l s dng\r\n        \r\n        ItemsManagement.PhysicalLocationInfo memory whInfo = itemsManagementExternal.getWarehouseInfo(_warehouseAddress);\r\n        require(whInfo.exists, \"WIM: Kho nguon chua duoc dang ky\"); // WIM: Kho ngun cha c ng k\r\n        // Qun l thc t ca _warehouseAddress c th cn ph duyt.\r\n        // Hin ti, gi nh nu SIM gi th c php nu c  hng.\r\n\r\n        uint256 currentStock = stockLevels[_warehouseAddress][_itemId];\r\n        require(currentStock >= _quantity, \"WIM: Khong du hang trong kho\"); // WIM: Khng  hng trong kho\r\n        \r\n        stockLevels[_warehouseAddress][_itemId] = currentStock - _quantity;\r\n        internalTransferId = nextInternalTransferId++;\r\n\r\n        // Thng bo cho StoreInventoryManagement  xc nhn  nhn hng\r\n        storeInventoryManagementExternal.confirmStockReceivedFromWarehouse(\r\n            _storeAddress,\r\n            _itemId,\r\n            _quantity,\r\n            _warehouseAddress, // Bo co kho no  hon thnh\r\n            internalTransferId\r\n        );\r\n\r\n        emit StockTransferredToStore(_warehouseAddress, _storeAddress, _itemId, _quantity, internalTransferId, _requestingStoreManager); // _requestingStoreManager l ngi khi to\r\n        return internalTransferId;\r\n    }\r\n    \r\n    // c gi bi CustomerOrderManagement khi khch hng tr hng v kho\r\n    function recordReturnedStockByCustomer(\r\n        address _returnToWarehouseAddress, // Kho c th c ch nh cho vic tr hng\r\n        string calldata _itemId,\r\n        uint256 _quantity,\r\n        uint256 _customerOrderId\r\n    ) external { // c gi bi COM\r\n        // require(msg.sender == customerOrderManagementAddress, \"WIM: Nguoi goi khong phai COM duoc uy quyen\"); // Cn a ch COM\r\n        require(_quantity > 0, \"WIM: So luong tra ve phai la so duong\"); // WIM: S lng tr v phi l s dng\r\n        // Ty chn: Xc thc _returnToWarehouseAddress qua itemsManagementExternal\r\n\r\n        returnedStockByCustomer[_returnToWarehouseAddress][_itemId] += _quantity;\r\n        emit CustomerStockReturnedRecordedToWarehouse(_returnToWarehouseAddress, _itemId, _quantity, _customerOrderId);\r\n    }\r\n\r\n    // --- CC HM ADMIN (Ch Owner) ---\r\n    function adjustStockManually(\r\n        address _warehouseAddress,\r\n        string calldata _itemId,\r\n        int256 _quantityChange,      // C th m hoc dng\r\n        string calldata _reason\r\n    ) external onlyOwner { // Hoc onlyWarehouseManager(_warehouseAddress)\r\n        uint256 currentStock = stockLevels[_warehouseAddress][_itemId];\r\n        if (_quantityChange > 0) {\r\n            stockLevels[_warehouseAddress][_itemId] = currentStock + uint256(_quantityChange);\r\n        } else if (_quantityChange < 0) {\r\n            uint256 amountToDecrease = uint256(-_quantityChange);\r\n            require(currentStock >= amountToDecrease, \"WIM: Dieu chinh thu cong dan den ton kho am\"); // WIM: iu chnh th cng dn n tn kho m\r\n            stockLevels[_warehouseAddress][_itemId] = currentStock - amountToDecrease;\r\n        } else {\r\n            revert(\"WIM: Thay doi so luong khong the bang khong\"); // WIM: Thay i s lng khng th bng khng\r\n        }\r\n        emit StockAdjusted(_warehouseAddress, _itemId, _quantityChange, _reason, msg.sender);\r\n    }\r\n\r\n    function processCustomerReturnedStock(\r\n        address _warehouseAddress,      // Kho cha hng tr v\r\n        string calldata _itemId,\r\n        uint256 _quantityToProcess,\r\n        bool _addToMainStock          // V d: nu mt hng c th bn li\r\n    ) external onlyOwner { // Hoc onlyWarehouseManager(_warehouseAddress)\r\n        require(_quantityToProcess > 0, \"WIM: So luong xu ly phai la so duong\"); // WIM: S lng x l phi l s dng\r\n        uint256 currentReturnedStock = returnedStockByCustomer[_warehouseAddress][_itemId];\r\n        require(currentReturnedStock >= _quantityToProcess, \"WIM: Khong du hang tra ve de xu ly\"); // WIM: Khng  hng tr v  x l\r\n\r\n        returnedStockByCustomer[_warehouseAddress][_itemId] = currentReturnedStock - _quantityToProcess;\r\n        if (_addToMainStock) {\r\n            stockLevels[_warehouseAddress][_itemId] += _quantityToProcess;\r\n        }\r\n        emit ProcessedReturnedCustomerStockAtWarehouse(_warehouseAddress, _itemId, _quantityToProcess, _addToMainStock, msg.sender);\r\n    }\r\n\r\n    // --- CC HM XEM (VIEW FUNCTIONS) ---\r\n    function getWarehouseStockLevel(address _warehouseAddress, string calldata _itemId) external view returns (uint256) {\r\n        return stockLevels[_warehouseAddress][_itemId];\r\n    }\r\n\r\n    function getCustomerReturnedStockLevelAtWarehouse(address _warehouseAddress, string calldata _itemId) external view returns (uint256) {\r\n        return returnedStockByCustomer[_warehouseAddress][_itemId];\r\n    }\r\n}\r\n",
  "sourcePath": "D:\\nhi\\Logtech\\New tech in Log\\dapp2\\SC\\contracts\\WarehouseInventory.sol",
  "compiler": {
    "name": "solc",
    "version": "0.8.4+commit.c7e474f2.Emscripten.clang"
  },
  "schemaVersion": "3.4.16",
  "updatedAt": "2025-06-02T04:18:16.240Z",
  "devdoc": {
    "kind": "dev",
    "methods": {
      "owner()": {
        "details": "Returns the address of the current owner."
      },
      "renounceOwnership()": {
        "details": "Leaves the contract without owner. It will not be possible to call `onlyOwner` functions anymore. Can only be called by the current owner. NOTE: Renouncing ownership will leave the contract without an owner, thereby removing any functionality that is only available to the owner."
      },
      "transferOwnership(address)": {
        "details": "Transfers ownership of the contract to a new account (`newOwner`). Can only be called by the current owner."
      }
    },
    "version": 1
  },
  "userdoc": {
    "kind": "user",
    "methods": {},
    "version": 1
  }
}