{
  "contractName": "WarehouseSupplierOrderManagement",
  "abi": [
    {
      "inputs": [
        {
          "internalType": "address",
          "name": "_roleManagementAddress",
          "type": "address"
        },
        {
          "internalType": "address",
          "name": "_itemsManagementAddress",
          "type": "address"
        },
        {
          "internalType": "address",
          "name": "_companyTreasuryManagerAddress",
          "type": "address"
        }
      ],
      "stateMutability": "nonpayable",
      "type": "constructor"
    },
    {
      "anonymous": false,
      "inputs": [
        {
          "indexed": true,
          "internalType": "uint256",
          "name": "wsOrderId",
          "type": "uint256"
        },
        {
          "indexed": false,
          "internalType": "uint256",
          "name": "amount",
          "type": "uint256"
        }
      ],
      "name": "EscrowRequestedForWSOrder",
      "type": "event"
    },
    {
      "anonymous": false,
      "inputs": [
        {
          "indexed": true,
          "internalType": "address",
          "name": "previousOwner",
          "type": "address"
        },
        {
          "indexed": true,
          "internalType": "address",
          "name": "newOwner",
          "type": "address"
        }
      ],
      "name": "OwnershipTransferred",
      "type": "event"
    },
    {
      "anonymous": false,
      "inputs": [
        {
          "indexed": true,
          "internalType": "uint256",
          "name": "wsOrderId",
          "type": "uint256"
        },
        {
          "indexed": true,
          "internalType": "address",
          "name": "supplierAddress",
          "type": "address"
        },
        {
          "indexed": false,
          "internalType": "string",
          "name": "reason",
          "type": "string"
        }
      ],
      "name": "WSOrderCancelledBySupplier",
      "type": "event"
    },
    {
      "anonymous": false,
      "inputs": [
        {
          "indexed": true,
          "internalType": "uint256",
          "name": "wsOrderId",
          "type": "uint256"
        },
        {
          "indexed": true,
          "internalType": "address",
          "name": "warehouseManager",
          "type": "address"
        },
        {
          "indexed": false,
          "internalType": "string",
          "name": "reason",
          "type": "string"
        }
      ],
      "name": "WSOrderCancelledByWarehouse",
      "type": "event"
    },
    {
      "anonymous": false,
      "inputs": [
        {
          "indexed": true,
          "internalType": "uint256",
          "name": "wsOrderId",
          "type": "uint256"
        },
        {
          "indexed": true,
          "internalType": "address",
          "name": "supplierAddress",
          "type": "address"
        },
        {
          "indexed": false,
          "internalType": "uint256",
          "name": "amount",
          "type": "uint256"
        }
      ],
      "name": "WSOrderFundsReleasedToSupplier",
      "type": "event"
    },
    {
      "anonymous": false,
      "inputs": [
        {
          "indexed": true,
          "internalType": "uint256",
          "name": "wsOrderId",
          "type": "uint256"
        },
        {
          "indexed": true,
          "internalType": "address",
          "name": "warehouseAddress",
          "type": "address"
        },
        {
          "indexed": true,
          "internalType": "address",
          "name": "supplierAddress",
          "type": "address"
        },
        {
          "indexed": false,
          "internalType": "uint256",
          "name": "totalAmount",
          "type": "uint256"
        },
        {
          "indexed": false,
          "internalType": "string",
          "name": "internalSupplierOrderId",
          "type": "string"
        }
      ],
      "name": "WSOrderPlaced",
      "type": "event"
    },
    {
      "anonymous": false,
      "inputs": [
        {
          "indexed": true,
          "internalType": "uint256",
          "name": "wsOrderId",
          "type": "uint256"
        },
        {
          "indexed": true,
          "internalType": "address",
          "name": "warehouseManager",
          "type": "address"
        }
      ],
      "name": "WSOrderReceiptConfirmedByWarehouse",
      "type": "event"
    },
    {
      "anonymous": false,
      "inputs": [
        {
          "indexed": true,
          "internalType": "uint256",
          "name": "wsOrderId",
          "type": "uint256"
        },
        {
          "indexed": true,
          "internalType": "address",
          "name": "supplierAddress",
          "type": "address"
        }
      ],
      "name": "WSOrderShipmentConfirmedBySupplier",
      "type": "event"
    },
    {
      "anonymous": false,
      "inputs": [
        {
          "indexed": true,
          "internalType": "uint256",
          "name": "wsOrderId",
          "type": "uint256"
        },
        {
          "indexed": false,
          "internalType": "enum WarehouseSupplierOrderManagement.WSOrderStatus",
          "name": "newStatus",
          "type": "uint8"
        },
        {
          "indexed": false,
          "internalType": "uint256",
          "name": "timestamp",
          "type": "uint256"
        }
      ],
      "name": "WSOrderStatusUpdated",
      "type": "event"
    },
    {
      "anonymous": false,
      "inputs": [
        {
          "indexed": true,
          "internalType": "address",
          "name": "wimAddress",
          "type": "address"
        }
      ],
      "name": "WarehouseInventoryManagementAddressSet",
      "type": "event"
    },
    {
      "inputs": [],
      "name": "companyTreasuryManager",
      "outputs": [
        {
          "internalType": "contract ICompanyTreasuryManagerInterface",
          "name": "",
          "type": "address"
        }
      ],
      "stateMutability": "view",
      "type": "function"
    },
    {
      "inputs": [],
      "name": "itemsManagement",
      "outputs": [
        {
          "internalType": "contract IItemsManagementInterface",
          "name": "",
          "type": "address"
        }
      ],
      "stateMutability": "view",
      "type": "function"
    },
    {
      "inputs": [],
      "name": "nextWSOrderId",
      "outputs": [
        {
          "internalType": "uint256",
          "name": "",
          "type": "uint256"
        }
      ],
      "stateMutability": "view",
      "type": "function"
    },
    {
      "inputs": [],
      "name": "owner",
      "outputs": [
        {
          "internalType": "address",
          "name": "",
          "type": "address"
        }
      ],
      "stateMutability": "view",
      "type": "function"
    },
    {
      "inputs": [],
      "name": "renounceOwnership",
      "outputs": [],
      "stateMutability": "nonpayable",
      "type": "function"
    },
    {
      "inputs": [],
      "name": "roleManagement",
      "outputs": [
        {
          "internalType": "contract IRoleManagementInterface",
          "name": "",
          "type": "address"
        }
      ],
      "stateMutability": "view",
      "type": "function"
    },
    {
      "inputs": [
        {
          "internalType": "address",
          "name": "",
          "type": "address"
        },
        {
          "internalType": "uint256",
          "name": "",
          "type": "uint256"
        }
      ],
      "name": "supplierReceivedOrderIds",
      "outputs": [
        {
          "internalType": "uint256",
          "name": "",
          "type": "uint256"
        }
      ],
      "stateMutability": "view",
      "type": "function"
    },
    {
      "inputs": [
        {
          "internalType": "address",
          "name": "newOwner",
          "type": "address"
        }
      ],
      "name": "transferOwnership",
      "outputs": [],
      "stateMutability": "nonpayable",
      "type": "function"
    },
    {
      "inputs": [],
      "name": "warehouseInventoryManagement",
      "outputs": [
        {
          "internalType": "contract IWarehouseInventoryManagementInterface",
          "name": "",
          "type": "address"
        }
      ],
      "stateMutability": "view",
      "type": "function"
    },
    {
      "inputs": [
        {
          "internalType": "address",
          "name": "",
          "type": "address"
        },
        {
          "internalType": "uint256",
          "name": "",
          "type": "uint256"
        }
      ],
      "name": "warehouseSentOrderIds",
      "outputs": [
        {
          "internalType": "uint256",
          "name": "",
          "type": "uint256"
        }
      ],
      "stateMutability": "view",
      "type": "function"
    },
    {
      "inputs": [
        {
          "internalType": "uint256",
          "name": "",
          "type": "uint256"
        }
      ],
      "name": "wsOrders",
      "outputs": [
        {
          "internalType": "uint256",
          "name": "wsOrderId",
          "type": "uint256"
        },
        {
          "internalType": "address",
          "name": "warehouseAddress",
          "type": "address"
        },
        {
          "internalType": "address",
          "name": "warehouseManager",
          "type": "address"
        },
        {
          "internalType": "address",
          "name": "supplierAddress",
          "type": "address"
        },
        {
          "internalType": "uint256",
          "name": "totalAmount",
          "type": "uint256"
        },
        {
          "internalType": "enum WarehouseSupplierOrderManagement.WSOrderStatus",
          "name": "status",
          "type": "uint8"
        },
        {
          "internalType": "uint256",
          "name": "creationTimestamp",
          "type": "uint256"
        },
        {
          "internalType": "uint256",
          "name": "lastUpdateTimestamp",
          "type": "uint256"
        },
        {
          "internalType": "bool",
          "name": "fundsEscrowed",
          "type": "bool"
        },
        {
          "internalType": "bool",
          "name": "fundsReleasedToSupplier",
          "type": "bool"
        },
        {
          "internalType": "string",
          "name": "internalSupplierOrderId",
          "type": "string"
        }
      ],
      "stateMutability": "view",
      "type": "function"
    },
    {
      "inputs": [
        {
          "internalType": "address",
          "name": "_wimAddress",
          "type": "address"
        }
      ],
      "name": "setWarehouseInventoryManagementAddress",
      "outputs": [],
      "stateMutability": "nonpayable",
      "type": "function"
    },
    {
      "inputs": [
        {
          "internalType": "address",
          "name": "_warehouseAddress",
          "type": "address"
        },
        {
          "internalType": "address",
          "name": "_supplierAddress",
          "type": "address"
        },
        {
          "components": [
            {
              "internalType": "string",
              "name": "itemId",
              "type": "string"
            },
            {
              "internalType": "uint256",
              "name": "quantity",
              "type": "uint256"
            }
          ],
          "internalType": "struct WarehouseSupplierOrderManagement.WSOrderItemInput[]",
          "name": "_itemsInput",
          "type": "tuple[]"
        }
      ],
      "name": "placeOrderByWarehouse",
      "outputs": [],
      "stateMutability": "nonpayable",
      "type": "function"
    },
    {
      "inputs": [
        {
          "internalType": "uint256",
          "name": "_wsOrderId",
          "type": "uint256"
        }
      ],
      "name": "supplierConfirmShipment",
      "outputs": [],
      "stateMutability": "nonpayable",
      "type": "function"
    },
    {
      "inputs": [
        {
          "internalType": "uint256",
          "name": "_wsOrderId",
          "type": "uint256"
        }
      ],
      "name": "warehouseConfirmReceipt",
      "outputs": [],
      "stateMutability": "nonpayable",
      "type": "function"
    },
    {
      "inputs": [
        {
          "internalType": "uint256",
          "name": "_wsOrderId",
          "type": "uint256"
        },
        {
          "internalType": "string",
          "name": "_reason",
          "type": "string"
        }
      ],
      "name": "cancelOrderByWarehouse",
      "outputs": [],
      "stateMutability": "nonpayable",
      "type": "function"
    },
    {
      "inputs": [
        {
          "internalType": "uint256",
          "name": "_wsOrderId",
          "type": "uint256"
        },
        {
          "internalType": "string",
          "name": "_reason",
          "type": "string"
        }
      ],
      "name": "cancelOrderBySupplier",
      "outputs": [],
      "stateMutability": "nonpayable",
      "type": "function"
    },
    {
      "inputs": [
        {
          "internalType": "uint256",
          "name": "_wsOrderId",
          "type": "uint256"
        }
      ],
      "name": "getWSOrderDetails",
      "outputs": [
        {
          "components": [
            {
              "internalType": "uint256",
              "name": "wsOrderId",
              "type": "uint256"
            },
            {
              "internalType": "address",
              "name": "warehouseAddress",
              "type": "address"
            },
            {
              "internalType": "address",
              "name": "warehouseManager",
              "type": "address"
            },
            {
              "internalType": "address",
              "name": "supplierAddress",
              "type": "address"
            },
            {
              "components": [
                {
                  "internalType": "string",
                  "name": "itemId",
                  "type": "string"
                },
                {
                  "internalType": "uint256",
                  "name": "quantity",
                  "type": "uint256"
                },
                {
                  "internalType": "uint256",
                  "name": "unitPrice",
                  "type": "uint256"
                }
              ],
              "internalType": "struct WarehouseSupplierOrderManagement.WSOrderItem[]",
              "name": "items",
              "type": "tuple[]"
            },
            {
              "internalType": "uint256",
              "name": "totalAmount",
              "type": "uint256"
            },
            {
              "internalType": "enum WarehouseSupplierOrderManagement.WSOrderStatus",
              "name": "status",
              "type": "uint8"
            },
            {
              "internalType": "uint256",
              "name": "creationTimestamp",
              "type": "uint256"
            },
            {
              "internalType": "uint256",
              "name": "lastUpdateTimestamp",
              "type": "uint256"
            },
            {
              "internalType": "bool",
              "name": "fundsEscrowed",
              "type": "bool"
            },
            {
              "internalType": "bool",
              "name": "fundsReleasedToSupplier",
              "type": "bool"
            },
            {
              "internalType": "string",
              "name": "internalSupplierOrderId",
              "type": "string"
            }
          ],
          "internalType": "struct WarehouseSupplierOrderManagement.WSOrder",
          "name": "",
          "type": "tuple"
        }
      ],
      "stateMutability": "view",
      "type": "function"
    },
    {
      "inputs": [
        {
          "internalType": "address",
          "name": "_warehouse",
          "type": "address"
        }
      ],
      "name": "getWarehouseSentOrders",
      "outputs": [
        {
          "internalType": "uint256[]",
          "name": "",
          "type": "uint256[]"
        }
      ],
      "stateMutability": "view",
      "type": "function"
    },
    {
      "inputs": [
        {
          "internalType": "address",
          "name": "_supplier",
          "type": "address"
        }
      ],
      "name": "getSupplierReceivedOrders",
      "outputs": [
        {
          "internalType": "uint256[]",
          "name": "",
          "type": "uint256[]"
        }
      ],
      "stateMutability": "view",
      "type": "function"
    }
  ],
  "bytecode": "0x60e06040523480156200001157600080fd5b5060405162003b9738038062003b978339810160408190526200003491620001da565b6001600081815581546001600160a01b031916339081179092556040518291907f8be0079c531659141344cd1fd0a4f28419497f9722a3daafe3b4186f6b6457e0908290a3506001600160a01b038316620000d65760405162461bcd60e51b815260206004820152601d60248201527f57534f4d3a204469612063686920524d206b686f6e6720686f70206c6500000060448201526064015b60405180910390fd5b6001600160a01b038216620001385760405162461bcd60e51b815260206004820152602160248201527f57534f4d3a2044696120636869204974656d734d206b686f6e6720686f70206c6044820152606560f81b6064820152608401620000cd565b6001600160a01b038116620001905760405162461bcd60e51b815260206004820152601e60248201527f57534f4d3a20446961206368692043544d206b686f6e6720686f70206c6500006044820152606401620000cd565b6001600160601b0319606093841b811660805291831b821660a05290911b1660c052600160035562000223565b80516001600160a01b0381168114620001d557600080fd5b919050565b600080600060608486031215620001ef578283fd5b620001fa84620001bd565b92506200020a60208501620001bd565b91506200021a60408501620001bd565b90509250925092565b60805160601c60a05160601c60c05160601c6138b6620002e16000396000818161018a01528181611b5c0152818161248701528181612507015281816125a701528181612791015261293401526000818161026f015281816105e301528181610946015261224d015260008181610248015281816103630152818161040c0152818161072f015281816107d801528181610e5501528181610efe015281816115d40152818161167d01528181611863015261190c01526138b66000f3fe608060405234801561001057600080fd5b50600436106100fc5760003560e01c80630d04c99914610101578063235955441461011657806325526f971461012957806355c64cc81461013c57806359fe0450146101655780635f67788114610185578063715018a6146101b95780637a76038c146101c15780638da5cb5b146101eb578063a85fd461146101f3578063ab20371a14610214578063b26ba06c14610227578063b34b29a314610230578063b977ba1814610243578063c19aacdd1461026a578063cf2a863e14610291578063d21cab1d146102a4578063dd7f3253146102b7578063f2fde38b146102ca578063f4ddd27a146102dd575b600080fd5b61011461010f366004612ef8565b6102f0565b005b610114610124366004612c0e565b6105de565b610114610137366004612f10565b610deb565b61014f61014a366004612beb565b611024565b60405161015c9190613221565b60405180910390f35b610178610173366004612ef8565b611090565b60405161015c91906134a2565b6101ac7f000000000000000000000000000000000000000000000000000000000000000081565b60405161015c91906130ab565b6101146113c6565b6101d46101cf366004612ef8565b61142d565b60405161015c9b9a99989796959493929190613581565b6101ac61152a565b610206610201366004612c9d565b611539565b60405190815260200161015c565b610114610222366004612f10565b61156a565b61020660035481565b6002546101ac906001600160a01b031681565b6101ac7f000000000000000000000000000000000000000000000000000000000000000081565b6101ac7f000000000000000000000000000000000000000000000000000000000000000081565b61014f61029f366004612beb565b61178f565b6101146102b2366004612ef8565b6117f9565b6102066102c5366004612c9d565b611eae565b6101146102d8366004612beb565b611eca565b6101146102eb366004612beb565b611fa8565b60008181526004602052604090205481906103265760405162461bcd60e51b815260040161031d90613347565b60405180910390fd5b6000818152600460205260409020600301546001600160a01b0316331461035f5760405162461bcd60e51b815260040161031d906132b3565b60007f00000000000000000000000000000000000000000000000000000000000000006001600160a01b031663a29508fc6040518163ffffffff1660e01b815260040160206040518083038186803b1580156103ba57600080fd5b505afa1580156103ce573d6000803e3d6000fd5b505050506040513d601f19601f820116820180604052508101906103f29190612ce2565b604051632474521560e21b81529091506001600160a01b037f000000000000000000000000000000000000000000000000000000000000000016906391d14854906104439084903390600401613265565b60206040518083038186803b15801561045b57600080fd5b505afa15801561046f573d6000803e3d6000fd5b505050506040513d601f19601f820116820180604052508101906104939190612cc8565b6104af5760405162461bcd60e51b815260040161031d9061342a565b600260005414156104d25760405162461bcd60e51b815260040161031d9061346b565b6002600090815583815260046020526040812090600682015460ff16600481111561050d57634e487b7160e01b600052602160045260246000fd5b146105605760405162461bcd60e51b815260206004820152602f602482015260008051602061380183398151915260448201526e692063686f206769616f2068616e6760881b606482015260840161031d565b60068101805460ff19166001179055426008820155604051339085907fb6f72180d63baa4edcd43d4ac9ecba3df06a50e8d13785f2a76025ec6e82aea590600090a360068101546040518591600080516020613861833981519152916105cb9160ff1690429061327c565b60405180910390a2505060016000555050565b8360007f00000000000000000000000000000000000000000000000000000000000000006001600160a01b0316637160572b836040518263ffffffff1660e01b815260040161062d91906130ab565b60006040518083038186803b15801561064557600080fd5b505afa158015610659573d6000803e3d6000fd5b505050506040513d6000823e601f3d908101601f191682016040526106819190810190612cfa565b905080608001516106ce5760405162461bcd60e51b815260206004820152601760248201527657534f4d3a204b686f206b686f6e6720746f6e2074616960481b604482015260640161031d565b60608101516001600160a01b0316331461072b5760405162461bcd60e51b815260206004820152602a60248201526000805160206138418339815191526044820152696c79206b686f206e617960b01b606482015260840161031d565b60007f00000000000000000000000000000000000000000000000000000000000000006001600160a01b0316636250e0566040518163ffffffff1660e01b815260040160206040518083038186803b15801561078657600080fd5b505afa15801561079a573d6000803e3d6000fd5b505050506040513d601f19601f820116820180604052508101906107be9190612ce2565b604051632474521560e21b81529091506001600160a01b037f000000000000000000000000000000000000000000000000000000000000000016906391d148549061080f9084903390600401613265565b60206040518083038186803b15801561082757600080fd5b505afa15801561083b573d6000803e3d6000fd5b505050506040513d601f19601f8201168201806040525081019061085f9190612cc8565b61087b5760405162461bcd60e51b815260040161031d906132fe565b6002600054141561089e5760405162461bcd60e51b815260040161031d9061346b565b60026000819055546001600160a01b03166108cb5760405162461bcd60e51b815260040161031d906133f3565b8361092c5760405162461bcd60e51b815260206004820152602b60248201527f57534f4d3a20446f6e2068616e67207068616920636f206974206e686174206d60448201526a6f74206d61742068616e6760a81b606482015260840161031d565b604051631650d7c160e21b81526000906001600160a01b037f000000000000000000000000000000000000000000000000000000000000000016906359435f049061097b908a906004016130ab565b60006040518083038186803b15801561099357600080fd5b505afa1580156109a7573d6000803e3d6000fd5b505050506040513d6000823e601f3d908101601f191682016040526109cf9190810190612dba565b9050806060015180156109e3575080604001515b610a475760405162461bcd60e51b815260206004820152602f60248201527f57534f4d3a204e4343206b686f6e6720686f70206c6520686f6163206368756160448201526e08191d5bd8c81c1a1948191d5e595d608a1b606482015260840161031d565b6003805460009182610a5883613777565b9190505590506000610a6982612077565b604051602001610a79919061307e565b604051602081830303815290604052905060006004600084815260200190815260200160002090508281600001819055508a8160010160006101000a8154816001600160a01b0302191690836001600160a01b03160217905550338160020160006101000a8154816001600160a01b0302191690836001600160a01b03160217905550898160030160006101000a8154816001600160a01b0302191690836001600160a01b0316021790555060008160060160006101000a81548160ff02191690836004811115610b5a57634e487b7160e01b600052602160045260246000fd5b0217905550426007820181905560088201558151610b8190600a8301906020850190612aad565b50610b9189898c8460040161219b565b60058201819055610bf75760405162461bcd60e51b815260206004820152602a60248201527f57534f4d3a20546f6e67206769612074726920646f6e2068616e6720706861696044820152690206c6f6e20686f6e20360b41b606482015260840161031d565b6000610c098c8c85856005015461245b565b905080610c625760405162461bcd60e51b815260206004820152602160248201527f57534f4d3a204b7920717579207469656e2074752043544d20746861742062616044820152606960f81b606482015260840161031d565b60018260090160006101000a81548160ff021916908315150217905550600560008d6001600160a01b03166001600160a01b03168152602001908152602001600020849080600181540180825580915050600190039060005260206000200160009091909190915055600660008c6001600160a01b03166001600160a01b03168152602001908152602001600020849080600181540180825580915050600190039060005260206000200160009091909190915055837fce3d6d85a70666e8f745665e526c93c262fa6189f8ac539f5190d9246ac25c878360050154604051610d4d91815260200190565b60405180910390a28a6001600160a01b03168c6001600160a01b0316857fca5524882b8d6e81c9e5fe2d8c67f0f754c7036d71705466735472a0a1938523856005015487604051610d9f9291906135ff565b60405180910390a46006820154604051859160008051602061386183398151915291610dd09160ff1690429061327c565b60405180910390a25050600160005550505050505050505050565b6000838152600460205260409020548390610e185760405162461bcd60e51b815260040161031d90613347565b6000818152600460205260409020600201546001600160a01b03163314610e515760405162461bcd60e51b815260040161031d906133b2565b60007f00000000000000000000000000000000000000000000000000000000000000006001600160a01b0316636250e0566040518163ffffffff1660e01b815260040160206040518083038186803b158015610eac57600080fd5b505afa158015610ec0573d6000803e3d6000fd5b505050506040513d601f19601f82011682018060405250810190610ee49190612ce2565b604051632474521560e21b81529091506001600160a01b037f000000000000000000000000000000000000000000000000000000000000000016906391d1485490610f359084903390600401613265565b60206040518083038186803b158015610f4d57600080fd5b505afa158015610f61573d6000803e3d6000fd5b505050506040513d601f19601f82011682018060405250810190610f859190612cc8565b610fa15760405162461bcd60e51b815260040161031d906132fe565b60026000541415610fc45760405162461bcd60e51b815260040161031d9061346b565b6002600055610fd485600361282b565b336001600160a01b0316857fd781810a411caea390040732c2c51eb255b78adc2f307aa228013e4921ced2358686604051611010929190613297565b60405180910390a350506001600055505050565b6001600160a01b03811660009081526006602090815260409182902080548351818402810184019094528084526060939283018282801561108457602002820191906000526020600020905b815481526020019060010190808311611070575b50505050509050919050565b6110f760408051610180810182526000808252602082018190529181018290526060808201839052608082015260a081018290529060c082019081526020016000815260200160008152602001600015158152602001600015158152602001606081525090565b6000828152600460205260409020546111525760405162461bcd60e51b815260206004820152601d60248201527f57534f4d3a20446f6e2068616e67206b686f6e672074696d2074686179000000604482015260640161031d565b60008281526004602081815260408084208151610180810183528154815260018201546001600160a01b03908116828601526002830154811682850152600383015416606082015293810180548351818602810186019094528084529495919460808701949192909184015b8282101561129657838290600052602060002090600302016040518060600160405290816000820180546111f19061373c565b80601f016020809104026020016040519081016040528092919081815260200182805461121d9061373c565b801561126a5780601f1061123f5761010080835404028352916020019161126a565b820191906000526020600020905b81548152906001019060200180831161124d57829003601f168201915b5050505050815260200160018201548152602001600282015481525050815260200190600101906111be565b5050509082525060058201546020820152600682015460409091019060ff1660048111156112d457634e487b7160e01b600052602160045260246000fd5b60048111156112f357634e487b7160e01b600052602160045260246000fd5b81526007820154602082015260088201546040820152600982015460ff808216151560608401526101009091041615156080820152600a8201805460a09092019161133d9061373c565b80601f01602080910402602001604051908101604052809291908181526020018280546113699061373c565b80156113b65780601f1061138b576101008083540402835291602001916113b6565b820191906000526020600020905b81548152906001019060200180831161139957829003601f168201915b5050505050815250509050919050565b336113cf61152a565b6001600160a01b0316146113f55760405162461bcd60e51b815260040161031d9061337d565b6001546040516000916001600160a01b031690600080516020613821833981519152908390a3600180546001600160a01b0319169055565b6004602052600090815260409020805460018201546002830154600384015460058501546006860154600787015460088801546009890154600a8a018054999a6001600160a01b03998a169a988a169990971697959660ff958616969495939484841694610100909404909316929091906114a79061373c565b80601f01602080910402602001604051908101604052809291908181526020018280546114d39061373c565b80156115205780601f106114f557610100808354040283529160200191611520565b820191906000526020600020905b81548152906001019060200180831161150357829003601f168201915b505050505090508b565b6001546001600160a01b031690565b6005602052816000526040600020818154811061155557600080fd5b90600052602060002001600091509150505481565b60008381526004602052604090205483906115975760405162461bcd60e51b815260040161031d90613347565b6000818152600460205260409020600301546001600160a01b031633146115d05760405162461bcd60e51b815260040161031d906132b3565b60007f00000000000000000000000000000000000000000000000000000000000000006001600160a01b031663a29508fc6040518163ffffffff1660e01b815260040160206040518083038186803b15801561162b57600080fd5b505afa15801561163f573d6000803e3d6000fd5b505050506040513d601f19601f820116820180604052508101906116639190612ce2565b604051632474521560e21b81529091506001600160a01b037f000000000000000000000000000000000000000000000000000000000000000016906391d14854906116b49084903390600401613265565b60206040518083038186803b1580156116cc57600080fd5b505afa1580156116e0573d6000803e3d6000fd5b505050506040513d601f19601f820116820180604052508101906117049190612cc8565b6117205760405162461bcd60e51b815260040161031d9061342a565b600260005414156117435760405162461bcd60e51b815260040161031d9061346b565b600260005561175385600461282b565b336001600160a01b0316857f2f08073ee23e78e5da4b0af1367e579251ebd22078ee866c900b46a1621844a38686604051611010929190613297565b6001600160a01b03811660009081526005602090815260409182902080548351818402810184019094528084526060939283018282801561108457602002820191906000526020600020908154815260200190600101908083116110705750505050509050919050565b60008181526004602052604090205481906118265760405162461bcd60e51b815260040161031d90613347565b6000818152600460205260409020600201546001600160a01b0316331461185f5760405162461bcd60e51b815260040161031d906133b2565b60007f00000000000000000000000000000000000000000000000000000000000000006001600160a01b0316636250e0566040518163ffffffff1660e01b815260040160206040518083038186803b1580156118ba57600080fd5b505afa1580156118ce573d6000803e3d6000fd5b505050506040513d601f19601f820116820180604052508101906118f29190612ce2565b604051632474521560e21b81529091506001600160a01b037f000000000000000000000000000000000000000000000000000000000000000016906391d14854906119439084903390600401613265565b60206040518083038186803b15801561195b57600080fd5b505afa15801561196f573d6000803e3d6000fd5b505050506040513d601f19601f820116820180604052508101906119939190612cc8565b6119af5760405162461bcd60e51b815260040161031d906132fe565b600260005414156119d25760405162461bcd60e51b815260040161031d9061346b565b600260009081558381526004602052604090206001600682015460ff166004811115611a0e57634e487b7160e01b600052602160045260246000fd5b14611a655760405162461bcd60e51b815260206004820152602160248201527f57534f4d3a20446f6e2068616e6720636875612064756f63204e4343206769616044820152606f60f81b606482015260840161031d565b600981015460ff16611ab75760405162461bcd60e51b815260206004820152601b60248201527a57534f4d3a205469656e20636875612064756f63206b792071757960281b604482015260640161031d565b6009810154610100900460ff1615611b105760405162461bcd60e51b815260206004820152601c60248201527b2ba9a7a69d102a34b2b710323090323ab7b19033b4b0b4903733b0b760211b604482015260640161031d565b6002546001600160a01b0316611b385760405162461bcd60e51b815260040161031d906133f3565b600381015460058201546040516351aeb57760e01b81526000926001600160a01b037f00000000000000000000000000000000000000000000000000000000000000008116936351aeb57793611b9a9390921691600a88019190600401613161565b602060405180830381600087803b158015611bb457600080fd5b505af1158015611bc8573d6000803e3d6000fd5b505050506040513d601f19601f82011682018060405250810190611bec9190612cc8565b905080611c505760405162461bcd60e51b815260206004820152602c60248201527f57534f4d3a2047696169206e67616e207469656e2063686f204e43432074752060448201526b43544d20746861742062616960a01b606482015260840161031d565b60068201805460ff1916600217905560098201805461010061ff001990911617905542600883015560005b6004830154811015611df8576000836004018281548110611cac57634e487b7160e01b600052603260045260246000fd5b9060005260206000209060030201604051806060016040529081600082018054611cd59061373c565b80601f0160208091040260200160405190810160405280929190818152602001828054611d019061373c565b8015611d4e5780601f10611d2357610100808354040283529160200191611d4e565b820191906000526020600020905b815481529060010190602001808311611d3157829003601f168201915b50505091835250506001828101546020808401919091526002938401546040938401529254908801548451938501519251635f3bf83960e11b81529495506001600160a01b039182169463be77f07294611db2949390921692908d9060040161312a565b600060405180830381600087803b158015611dcc57600080fd5b505af1158015611de0573d6000803e3d6000fd5b50505050508080611df090613777565b915050611c7b565b50604051339086907f92735abfa431d1388bc95bba2eb82528b69299773967b2e63b0a617efe3ef9bb90600090a3600382015460058301546040519081526001600160a01b039091169086907f6c3a76b1fd63a9e0a000ed4ece8f7f99d32f68ce757586538026bbaae41fd0059060200160405180910390a36006820154604051869160008051602061386183398151915291611e9a9160ff1690429061327c565b60405180910390a250506001600055505050565b6006602052816000526040600020818154811061155557600080fd5b33611ed361152a565b6001600160a01b031614611ef95760405162461bcd60e51b815260040161031d9061337d565b6001600160a01b038116611f5e5760405162461bcd60e51b815260206004820152602660248201527f4f776e61626c653a206e6577206f776e657220697320746865207a65726f206160448201526564647265737360d01b606482015260840161031d565b6001546040516001600160a01b0380841692169060008051602061382183398151915290600090a3600180546001600160a01b0319166001600160a01b0392909216919091179055565b33611fb161152a565b6001600160a01b031614611fd75760405162461bcd60e51b815260040161031d9061337d565b6001600160a01b03811661202d5760405162461bcd60e51b815260206004820152601e60248201527f57534f4d3a20446961206368692057494d206b686f6e6720686f70206c650000604482015260640161031d565b600280546001600160a01b0319166001600160a01b0383169081179091556040517f9d00bdb4c1bf918df98c2197d7890603abf58babbc46d1a0442c1d92855fa12990600090a250565b60608161209b5750506040805180820190915260018152600360fc1b602082015290565b8160005b81156120c557806120af81613777565b91506120be9050600a836136c2565b915061209f565b6000816001600160401b038111156120ed57634e487b7160e01b600052604160045260246000fd5b6040519080825280601f01601f191660200182016040528015612117576020820181803683370190505b509050815b8515612192578061212c81613725565b915061213b9050600a87613792565b6121469060306136aa565b60f81b82828151811061216957634e487b7160e01b600052603260045260246000fd5b60200101906001600160f81b031916908160001a90535061218b600a876136c2565b955061211c565b50949350505050565b6000805b8481101561219257368686838181106121c857634e487b7160e01b600052603260045260246000fd5b90506020028101906121da9190613663565b905060008160200135116122415760405162461bcd60e51b815260206004820152602860248201527f57534f4d3a20536f206c756f6e67206d61742068616e672070686169206c6120604482015267736f2064756f6e6760c01b606482015260840161031d565b60006001600160a01b037f00000000000000000000000000000000000000000000000000000000000000001663f063e0298761227d8580613618565b6040518463ffffffff1660e01b815260040161229b939291906130fc565b60006040518083038186803b1580156122b357600080fd5b505afa1580156122c7573d6000803e3d6000fd5b505050506040513d6000823e601f3d908101601f191682016040526122ef9190810190612e6d565b905080608001518015612303575080606001515b6123835760405162461bcd60e51b8152602060048201526044602482018190527f57534f4d3a204d61742068616e6720637561204e4343206b686f6e6720636f20908201527f73616e20686f616320636875612064756f632070686520647579657420626f696064820152630408488960e31b608482015260a40161031d565b604080516060810190915285908061239b8580613618565b8080601f01602080910402602001604051908101604052809392919081815260200183838082843760009201829052509385525050506020868101358184015260408681015193019290925283546001810185559381528190208251805193946003029091019261240f9284920190612aad565b50602082015181600101556040820151816002015550508160200135816040015161243a91906136d6565b61244490856136aa565b93505050808061245390613777565b91505061219f565b60405163ef1ac8a960e01b81526001600160a01b038581166004830152848116602483015260009182917f0000000000000000000000000000000000000000000000000000000000000000169063ef1ac8a99060440160206040518083038186803b1580156124c957600080fd5b505afa1580156124dd573d6000803e3d6000fd5b505050506040513d601f19601f820116820180604052508101906125019190612ce2565b905060007f00000000000000000000000000000000000000000000000000000000000000006001600160a01b0316638b77b9a9886040518263ffffffff1660e01b815260040161255191906130ab565b60206040518083038186803b15801561256957600080fd5b505afa15801561257d573d6000803e3d6000fd5b505050506040513d601f19601f820116820180604052508101906125a19190612ce2565b905060007f00000000000000000000000000000000000000000000000000000000000000006001600160a01b031663d505ea1f6040518163ffffffff1660e01b815260040160206040518083038186803b1580156125fe57600080fd5b505afa158015612612573d6000803e3d6000fd5b505050506040513d601f19601f820116820180604052508101906126369190612ce2565b90506000831161269f5760405162461bcd60e51b815260206004820152602e60248201527f57534f4d3a204b686f6e6720636f206368696e6820736163682063686920746960448201526d6575207475204e67616e2071757960901b606482015260840161031d565b828511156127025760405162461bcd60e51b815260206004820152602a60248201527f57534f4d3a204769612074726920646f6e2068616e672076756f7420717561206044820152690c6d0d2dcd040e6c2c6d60b31b606482015260840161031d565b600061270e86846136aa565b90508181111561277a5760405162461bcd60e51b815260206004820152603160248201527f57534f4d3a20446f6e2068616e672076756f74207175612067696f692068616e6044820152702063686920746965752064696e68206b7960781b606482015260840161031d565b60405163aa9ce11f60e01b81526001600160a01b037f0000000000000000000000000000000000000000000000000000000000000000169063aa9ce11f906127cc908c908c908c908c906004016130bf565b602060405180830381600087803b1580156127e657600080fd5b505af11580156127fa573d6000803e3d6000fd5b505050506040513d601f19601f8201168201806040525081019061281e9190612cc8565b9998505050505050505050565b600082815260046020526040812090600682015460ff16600481111561286157634e487b7160e01b600052602160045260246000fd5b146128b15760405162461bcd60e51b815260206004820152602c602482015260008051602061380183398151915260448201526b6920636f207468652068757960a01b606482015260840161031d565b600981015460ff166129105760405162461bcd60e51b815260206004820152602260248201527f57534f4d3a205469656e20636875612064756f63206b79207175792064652068604482015261757960f01b606482015260840161031d565b60018101546005820154604051636d7a2ea760e11b81526000926001600160a01b037f000000000000000000000000000000000000000000000000000000000000000081169363daf45d4e936129729390921691600a88019190600401613161565b602060405180830381600087803b15801561298c57600080fd5b505af11580156129a0573d6000803e3d6000fd5b505050506040513d601f19601f820116820180604052508101906129c49190612cc8565b905080612a395760405162461bcd60e51b815260206004820152603d60248201527f57534f4d3a20486f616e20747261207469656e206b79207175792043544d207460448201527f686174206261692c20766965632068757920626920686f616e20746163000000606482015260840161031d565b60068201805484919060ff19166001836004811115612a6857634e487b7160e01b600052602160045260246000fd5b021790555042600883018190556006830154604051869260008051602061386183398151915292612a9f9260ff909116919061327c565b60405180910390a250505050565b828054612ab99061373c565b90600052602060002090601f016020900481019282612adb5760008555612b21565b82601f10612af457805160ff1916838001178555612b21565b82800160010185558215612b21579182015b82811115612b21578251825591602001919060010190612b06565b50612b2d929150612b31565b5090565b5b80821115612b2d5760008155600101612b32565b8051612b51816137e8565b919050565b80518015158114612b5157600080fd5b600082601f830112612b76578081fd5b81516001600160401b0380821115612b9057612b906137d2565b604051601f8301601f19908116603f01168101908282118183101715612bb857612bb86137d2565b81604052838152866020858801011115612bd0578485fd5b612be18460208301602089016136f5565b9695505050505050565b600060208284031215612bfc578081fd5b8135612c07816137e8565b9392505050565b60008060008060608587031215612c23578283fd5b8435612c2e816137e8565b93506020850135612c3e816137e8565b925060408501356001600160401b0380821115612c59578384fd5b818701915087601f830112612c6c578384fd5b813581811115612c7a578485fd5b8860208260051b8501011115612c8e578485fd5b95989497505060200194505050565b60008060408385031215612caf578182fd5b8235612cba816137e8565b946020939093013593505050565b600060208284031215612cd9578081fd5b612c0782612b56565b600060208284031215612cf3578081fd5b5051919050565b600060208284031215612d0b578081fd5b81516001600160401b0380821115612d21578283fd5b9083019060a08286031215612d34578283fd5b612d3c613682565b8251612d47816137e8565b8152602083015182811115612d5a578485fd5b612d6687828601612b66565b602083015250604083015182811115612d7d578485fd5b612d8987828601612b66565b604083015250612d9b60608401612b46565b6060820152612dac60808401612b56565b608082015295945050505050565b600060208284031215612dcb578081fd5b81516001600160401b0380821115612de1578283fd5b9083019060808286031215612df4578283fd5b604051608081018181108382111715612e0f57612e0f6137d2565b6040528251612e1d816137e8565b8152602083015182811115612e30578485fd5b612e3c87828601612b66565b602083015250612e4e60408401612b56565b6040820152612e5f60608401612b56565b606082015295945050505050565b600060208284031215612e7e578081fd5b81516001600160401b0380821115612e94578283fd5b9083019060a08286031215612ea7578283fd5b612eaf613682565b825182811115612ebd578485fd5b612ec987828601612b66565b82525060208301519150612edc826137e8565b81602082015260408301516040820152612d9b60608401612b56565b600060208284031215612f09578081fd5b5035919050565b600080600060408486031215612f24578283fd5b8335925060208401356001600160401b0380821115612f41578384fd5b818601915086601f830112612f54578384fd5b813581811115612f62578485fd5b876020828501011115612f73578485fd5b6020830194508093505050509250925092565b6001600160a01b03169052565b600081518084526020808501808196508360051b81019150828601855b85811015612ffa578284038952815160608151818752612fd282880182613052565b83890151888a0152604093840151939097019290925250509784019790840190600101612fb0565b5091979650505050505050565b6005811061302557634e487b7160e01b600052602160045260246000fd5b9052565b81835281816020850137506000828201602090810191909152601f909101601f19169091010190565b6000815180845261306a8160208601602086016136f5565b601f01601f19169290920160200192915050565b6457534f4d2d60d81b81526000825161309e8160058501602087016136f5565b9190910160050192915050565b6001600160a01b0391909116815260200190565b6001600160a01b038581168252841660208201526080604082018190526000906130eb90830185613052565b905082606083015295945050505050565b6001600160a01b03841681526040602082018190526000906131219083018486613029565b95945050505050565b6001600160a01b038516815260806020820181905260009061314e90830186613052565b6040830194909452506060015292915050565b60018060a01b03841681526000602060608184015281855483600182811c91508083168061319057607f831692505b8583108114156131ae57634e487b7160e01b87526022600452602487fd5b60608801839052608088018180156131cd57600181146131de57613208565b60ff19861682528782019650613208565b60008c815260209020895b86811015613202578154848201529085019089016131e9565b83019750505b5050505050508092505050826040830152949350505050565b6020808252825182820181905260009190848201906040850190845b818110156132595783518352928401929184019160010161323d565b50909695505050505050565b9182526001600160a01b0316602082015260400190565b6040810161328a8285613007565b8260208301529392505050565b6020815260006132ab602083018486613029565b949350505050565b6020808252602b908201527f57534f4d3a204e67756f6920676f69206b686f6e672070686169204e4343206360408201526a756120646f6e2068616e6760a81b606082015260800190565b60208082526029908201527f57534f4d3a204e67756f6920676f69207468696575207661692074726f205155604082015268414e5f4c595f4b484f60b81b606082015260800190565b6020808252601c908201527b57534f4d3a20446f6e2068616e67206b686f6e6720746f6e2074616960201b604082015260600190565b6020808252818101527f4f776e61626c653a2063616c6c6572206973206e6f7420746865206f776e6572604082015260600190565b60208082526033908201526000805160206138418339815191526040820152726c79206b686f2063756120646f6e2068616e6760681b606082015260800190565b6020808252601f908201527f57534f4d3a20446961206368692057494d20636875612064756f632064617400604082015260600190565b60208082526021908201527f57534f4d3a204e67756f6920676f69207468696575207661692074726f204e436040820152604360f81b606082015260800190565b6020808252601f908201527f5265656e7472616e637947756172643a207265656e7472616e742063616c6c00604082015260600190565b6020815281516020820152600060208301516134c16040840182612f86565b5060408301516134d46060840182612f86565b5060608301516134e76080840182612f86565b5060808301516101808060a08501526135046101a0850183612f93565b915060a085015160c085015260c085015161352260e0860182613007565b5060e085015161010085810191909152850151610120808601919091528501516101406135528187018315159052565b86015190506101606135678682018315159052565b860151858403601f1901838701529050612be18382613052565b8b81526001600160a01b038b811660208301528a81166040830152891660608201526080810188905260006101606135bc60a084018a613007565b8760c08401528660e0840152851515610100840152841515610120840152806101408401526135ed81840185613052565b9e9d5050505050505050505050505050565b8281526040602082015260006132ab6040830184613052565b6000808335601e1984360301811261362e578283fd5b8301803591506001600160401b03821115613647578283fd5b60200191503681900382131561365c57600080fd5b9250929050565b60008235603e19833603018112613678578182fd5b9190910192915050565b60405160a081016001600160401b03811182821017156136a4576136a46137d2565b60405290565b600082198211156136bd576136bd6137a6565b500190565b6000826136d1576136d16137bc565b500490565b60008160001904831182151516156136f0576136f06137a6565b500290565b60005b838110156137105781810151838201526020016136f8565b8381111561371f576000848401525b50505050565b600081613734576137346137a6565b506000190190565b600181811c9082168061375057607f821691505b6020821081141561377157634e487b7160e01b600052602260045260246000fd5b50919050565b600060001982141561378b5761378b6137a6565b5060010190565b6000826137a1576137a16137bc565b500690565b634e487b7160e01b600052601160045260246000fd5b634e487b7160e01b600052601260045260246000fd5b634e487b7160e01b600052604160045260246000fd5b6001600160a01b03811681146137fd57600080fd5b5056fe57534f4d3a20446f6e2068616e67206b686f6e67206f207472616e67207468618be0079c531659141344cd1fd0a4f28419497f9722a3daafe3b4186f6b6457e057534f4d3a204e67756f6920676f69206b686f6e672070686169207175616e209f2454a0dc8b062d3b51f32601a6fb1b8401132fec88d6093084e57203f859daa26469706673582212203482bd16c93ed9a31adec2558bd3930913b608db8cba83d97a727bada1a89f1664736f6c63430008040033",
  "immutableReferences": {
    "7790": [
      {
        "length": 32,
        "start": 584
      },
      {
        "length": 32,
        "start": 867
      },
      {
        "length": 32,
        "start": 1036
      },
      {
        "length": 32,
        "start": 1839
      },
      {
        "length": 32,
        "start": 2008
      },
      {
        "length": 32,
        "start": 3669
      },
      {
        "length": 32,
        "start": 3838
      },
      {
        "length": 32,
        "start": 5588
      },
      {
        "length": 32,
        "start": 5757
      },
      {
        "length": 32,
        "start": 6243
      },
      {
        "length": 32,
        "start": 6412
      }
    ],
    "7793": [
      {
        "length": 32,
        "start": 623
      },
      {
        "length": 32,
        "start": 1507
      },
      {
        "length": 32,
        "start": 2374
      },
      {
        "length": 32,
        "start": 8781
      }
    ],
    "7796": [
      {
        "length": 32,
        "start": 394
      },
      {
        "length": 32,
        "start": 7004
      },
      {
        "length": 32,
        "start": 9351
      },
      {
        "length": 32,
        "start": 9479
      },
      {
        "length": 32,
        "start": 9639
      },
      {
        "length": 32,
        "start": 10129
      },
      {
        "length": 32,
        "start": 10548
      }
    ]
  },
  "source": "// SPDX-License-Identifier: MIT\r\npragma solidity ^0.8.4; \r\n\r\nimport \"@openzeppelin/contracts/security/ReentrancyGuard.sol\"; // ng dn ng cho OZ v4+\r\nimport \"@openzeppelin/contracts/access/Ownable.sol\";\r\n\r\n// --- FORWARD DECLARATIONS FOR STRUCTS FROM ItemsManagement ---\r\nstruct PhysicalLocationInfo_WSOM {\r\n    address locationId; \r\n    string name; \r\n    string locationType; \r\n    address manager; \r\n    bool exists; \r\n    // bool isApprovedByBoard; // B comment v thm nu struct gc trong ItemsManagement c v bn cn\r\n    // address designatedSourceWarehouseAddress; // B comment v thm nu struct gc c v bn cn\r\n}\r\n\r\nstruct SupplierInfo_WSOM {\r\n    address supplierId; \r\n    string name; \r\n    bool isApprovedByBoard; \r\n    bool exists;\r\n}\r\n\r\nstruct SupplierItemListing_WSOM {\r\n    string itemId; \r\n    address supplierAddress; \r\n    uint256 price; \r\n    bool isApprovedByBoard; \r\n    bool exists;\r\n}\r\n// --- END FORWARD DECLARATIONS ---\r\n\r\n\r\n// --- INTERFACES ---\r\ninterface ICompanyTreasuryManagerInterface {\r\n    function requestEscrowForSupplierOrder(address warehouseAddress, address supplierAddress, string calldata supplierOrderId, uint256 amount) external returns (bool success);\r\n    function releaseEscrowToSupplier(address supplierAddress, string calldata supplierOrderId, uint256 amount) external returns (bool success);\r\n    function refundEscrowToTreasury(address warehouseAddress, string calldata supplierOrderId, uint256 amount) external returns (bool success);\r\n    function getWarehouseSpendingPolicy(address warehouseAddress, address supplierAddress) external view returns (uint256 maxAmountPerOrder);\r\n    function getWarehouseSpendingThisPeriod(address warehouseAddress) external view returns (uint256 currentSpending);\r\n    function WAREHOUSE_SPENDING_LIMIT_PER_PERIOD_CONST() external view returns (uint256 limit);\r\n}\r\n\r\ninterface IRoleManagementInterface {\r\n    function WAREHOUSE_MANAGER_ROLE() external view returns (bytes32);\r\n    function SUPPLIER_ROLE() external view returns (bytes32);\r\n    function hasRole(bytes32 role, address account) external view returns (bool);\r\n}\r\n\r\ninterface IItemsManagementInterface {\r\n    function getWarehouseInfo(address warehouseAddress) external view returns (PhysicalLocationInfo_WSOM memory);\r\n    function getSupplierInfo(address supplierAddress) external view returns (SupplierInfo_WSOM memory);\r\n    function getSupplierItemDetails(address supplierAddress, string calldata itemId) external view returns (SupplierItemListing_WSOM memory);\r\n}\r\n\r\ninterface IWarehouseInventoryManagementInterface {\r\n    function recordStockInFromSupplier(address warehouseAddress, string calldata itemId, uint256 quantity, uint256 wsOrderId) external;\r\n}\r\n// --- END INTERFACES ---\r\n\r\n\r\ncontract WarehouseSupplierOrderManagement is ReentrancyGuard, Ownable {\r\n    IRoleManagementInterface public immutable roleManagement;\r\n    IItemsManagementInterface public immutable itemsManagement;\r\n    ICompanyTreasuryManagerInterface public immutable companyTreasuryManager;\r\n    IWarehouseInventoryManagementInterface public warehouseInventoryManagement;\r\n\r\n    uint256 public nextWSOrderId;\r\n\r\n    enum WSOrderStatus { PendingShipment, ShippedBySupplier, ReceivedByWarehouse, CancelledByWarehouse, CancelledBySupplier }\r\n    struct WSOrderItem { string itemId; uint256 quantity; uint256 unitPrice; }\r\n    struct WSOrder {\r\n        uint256 wsOrderId;\r\n        address warehouseAddress;\r\n        address warehouseManager;\r\n        address supplierAddress;\r\n        WSOrderItem[] items;\r\n        uint256 totalAmount;\r\n        WSOrderStatus status;\r\n        uint256 creationTimestamp;\r\n        uint256 lastUpdateTimestamp;\r\n        bool fundsEscrowed;\r\n        bool fundsReleasedToSupplier;\r\n        string internalSupplierOrderId;\r\n    }\r\n    struct WSOrderItemInput { string itemId; uint256 quantity; }\r\n\r\n    mapping(uint256 => WSOrder) public wsOrders;\r\n    mapping(address => uint256[]) public warehouseSentOrderIds;\r\n    mapping(address => uint256[]) public supplierReceivedOrderIds;\r\n\r\n    event WSOrderPlaced(uint256 indexed wsOrderId, address indexed warehouseAddress, address indexed supplierAddress, uint256 totalAmount, string internalSupplierOrderId);\r\n    event WSOrderShipmentConfirmedBySupplier(uint256 indexed wsOrderId, address indexed supplierAddress);\r\n    event WSOrderReceiptConfirmedByWarehouse(uint256 indexed wsOrderId, address indexed warehouseManager);\r\n    event WSOrderCancelledByWarehouse(uint256 indexed wsOrderId, address indexed warehouseManager, string reason);\r\n    event WSOrderCancelledBySupplier(uint256 indexed wsOrderId, address indexed supplierAddress, string reason);\r\n    event WSOrderFundsReleasedToSupplier(uint256 indexed wsOrderId, address indexed supplierAddress, uint256 amount);\r\n    event EscrowRequestedForWSOrder(uint256 indexed wsOrderId, uint256 amount);\r\n    event WSOrderStatusUpdated(uint256 indexed wsOrderId, WSOrderStatus newStatus, uint256 timestamp);\r\n    event WarehouseInventoryManagementAddressSet(address indexed wimAddress);\r\n\r\n    constructor(\r\n        address _roleManagementAddress,\r\n        address _itemsManagementAddress,\r\n        address _companyTreasuryManagerAddress\r\n    ) Ownable() {\r\n        require(_roleManagementAddress != address(0), \"WSOM: Dia chi RM khong hop le\");\r\n        require(_itemsManagementAddress != address(0), \"WSOM: Dia chi ItemsM khong hop le\");\r\n        require(_companyTreasuryManagerAddress != address(0), \"WSOM: Dia chi CTM khong hop le\");\r\n\r\n        roleManagement = IRoleManagementInterface(_roleManagementAddress);\r\n        itemsManagement = IItemsManagementInterface(_itemsManagementAddress);\r\n        companyTreasuryManager = ICompanyTreasuryManagerInterface(_companyTreasuryManagerAddress);\r\n        nextWSOrderId = 1;\r\n    }\r\n\r\n    function setWarehouseInventoryManagementAddress(address _wimAddress) external onlyOwner {\r\n        require(_wimAddress != address(0), \"WSOM: Dia chi WIM khong hop le\");\r\n        warehouseInventoryManagement = IWarehouseInventoryManagementInterface(_wimAddress);\r\n        emit WarehouseInventoryManagementAddressSet(_wimAddress);\r\n    }\r\n\r\n    modifier onlyWarehouseManagerForAction(address _warehouseAddress) {\r\n        PhysicalLocationInfo_WSOM memory warehouseInfo = itemsManagement.getWarehouseInfo(_warehouseAddress);\r\n        require(warehouseInfo.exists, \"WSOM: Kho khong ton tai\");\r\n        require(warehouseInfo.manager == msg.sender, \"WSOM: Nguoi goi khong phai quan ly kho nay\");\r\n        bytes32 whManagerRole = roleManagement.WAREHOUSE_MANAGER_ROLE();\r\n        require(roleManagement.hasRole(whManagerRole, msg.sender), \"WSOM: Nguoi goi thieu vai tro QUAN_LY_KHO\");\r\n        _;\r\n    }\r\n\r\n    modifier onlyOrderWarehouseManager(uint256 _wsOrderId) {\r\n        require(wsOrders[_wsOrderId].wsOrderId != 0, \"WSOM: Don hang khong ton tai\");\r\n        require(wsOrders[_wsOrderId].warehouseManager == msg.sender, \"WSOM: Nguoi goi khong phai quan ly kho cua don hang\");\r\n        bytes32 whManagerRole = roleManagement.WAREHOUSE_MANAGER_ROLE();\r\n        require(roleManagement.hasRole(whManagerRole, msg.sender), \"WSOM: Nguoi goi thieu vai tro QUAN_LY_KHO\");\r\n        _;\r\n    }\r\n\r\n    modifier onlyOrderSupplier(uint256 _wsOrderId) {\r\n        require(wsOrders[_wsOrderId].wsOrderId != 0, \"WSOM: Don hang khong ton tai\");\r\n        require(wsOrders[_wsOrderId].supplierAddress == msg.sender, \"WSOM: Nguoi goi khong phai NCC cua don hang\");\r\n        bytes32 supRole = roleManagement.SUPPLIER_ROLE();\r\n        require(roleManagement.hasRole(supRole, msg.sender), \"WSOM: Nguoi goi thieu vai tro NCC\");\r\n        _;\r\n    }\r\n\r\n    // Hm con  x l vic to danh sch item v tnh tng tin\r\nfunction _processOrderItems(\r\n    WSOrderItemInput[] calldata _itemsInput,\r\n    address _supplierAddress,\r\n    WSOrderItem[] storage _orderItems\r\n) internal returns (uint256 calculatedTotalAmount) { // B 'view'\r\n    calculatedTotalAmount = 0;\r\n    for (uint i = 0; i < _itemsInput.length; i++) {\r\n        WSOrderItemInput calldata itemInput = _itemsInput[i];\r\n        require(itemInput.quantity > 0, \"WSOM: So luong mat hang phai la so duong\");\r\n        \r\n        SupplierItemListing_WSOM memory supplierListing = itemsManagement.getSupplierItemDetails(_supplierAddress, itemInput.itemId);\r\n        require(supplierListing.exists && supplierListing.isApprovedByBoard, \"WSOM: Mat hang cua NCC khong co san hoac chua duoc phe duyet boi BDH\");\r\n        \r\n        _orderItems.push(WSOrderItem({itemId: itemInput.itemId, quantity: itemInput.quantity, unitPrice: supplierListing.price}));\r\n        calculatedTotalAmount += supplierListing.price * itemInput.quantity;\r\n    }\r\n\r\n}\r\n    // Hm con  kim tra chnh sch chi tiu v yu cu k qu\r\n    function _validateAndRequestEscrow(\r\n        address _warehouseAddress,\r\n        address _supplierAddress,\r\n        string memory _internalOrderId, // Dng memory v n c to trong hm cha\r\n        uint256 _orderTotal\r\n    ) internal returns (bool) { // Tr v true nu k qu thnh cng\r\n        uint256 maxAmountPerOrderPolicy = companyTreasuryManager.getWarehouseSpendingPolicy(_warehouseAddress, _supplierAddress);\r\n        uint256 currentSpendingThisPeriod = companyTreasuryManager.getWarehouseSpendingThisPeriod(_warehouseAddress);\r\n        uint256 spendingLimitPerPeriod = companyTreasuryManager.WAREHOUSE_SPENDING_LIMIT_PER_PERIOD_CONST();\r\n        \r\n        require(maxAmountPerOrderPolicy > 0, \"WSOM: Khong co chinh sach chi tieu tu Ngan quy\");\r\n        require(_orderTotal <= maxAmountPerOrderPolicy, \"WSOM: Gia tri don hang vuot qua chinh sach\");\r\n        \r\n        uint256 projectedSpending = currentSpendingThisPeriod + _orderTotal;\r\n        require(projectedSpending <= spendingLimitPerPeriod, \"WSOM: Don hang vuot qua gioi han chi tieu dinh ky\");\r\n\r\n        return companyTreasuryManager.requestEscrowForSupplierOrder(\r\n            _warehouseAddress, _supplierAddress, _internalOrderId, _orderTotal\r\n        );\r\n    }\r\n\r\n\r\n    function placeOrderByWarehouse(\r\n        address _warehouseAddress,\r\n        address _supplierAddress,\r\n        WSOrderItemInput[] calldata _itemsInput\r\n    ) external onlyWarehouseManagerForAction(_warehouseAddress) nonReentrant {\r\n        require(address(warehouseInventoryManagement) != address(0), \"WSOM: Dia chi WIM chua duoc dat\");\r\n        require(_itemsInput.length > 0, \"WSOM: Don hang phai co it nhat mot mat hang\");\r\n        \r\n        SupplierInfo_WSOM memory supplierInfo = itemsManagement.getSupplierInfo(_supplierAddress);\r\n        require(supplierInfo.exists && supplierInfo.isApprovedByBoard, \"WSOM: NCC khong hop le hoac chua duoc phe duyet\");\r\n\r\n        uint256 currentWsOrderId = nextWSOrderId++;\r\n        string memory internalOrderIdForEscrow = string(abi.encodePacked(\"WSOM-\", uintToString(currentWsOrderId)));\r\n\r\n        WSOrder storage newOrder = wsOrders[currentWsOrderId];\r\n        // Khi to cc trng c bn ca newOrder\r\n        newOrder.wsOrderId = currentWsOrderId;\r\n        newOrder.warehouseAddress = _warehouseAddress;\r\n        newOrder.warehouseManager = msg.sender;\r\n        newOrder.supplierAddress = _supplierAddress;\r\n        newOrder.status = WSOrderStatus.PendingShipment;\r\n        newOrder.creationTimestamp = block.timestamp;\r\n        newOrder.lastUpdateTimestamp = block.timestamp;\r\n        newOrder.internalSupplierOrderId = internalOrderIdForEscrow;\r\n        // Mng newOrder.items s c in bi _processOrderItems\r\n\r\n        // Gi hm con  x l items v tnh totalAmount\r\n        newOrder.totalAmount = _processOrderItems(_itemsInput, _supplierAddress, newOrder.items);\r\n        require(newOrder.totalAmount > 0, \"WSOM: Tong gia tri don hang phai lon hon 0\"); // m bo c item hp l\r\n\r\n        // Gi hm con  kim tra chnh sch v yu cu escrow\r\n        bool escrowSuccess = _validateAndRequestEscrow(\r\n            _warehouseAddress,\r\n            _supplierAddress,\r\n            internalOrderIdForEscrow,\r\n            newOrder.totalAmount\r\n        );\r\n        require(escrowSuccess, \"WSOM: Ky quy tien tu CTM that bai\");\r\n        newOrder.fundsEscrowed = true;\r\n\r\n        warehouseSentOrderIds[_warehouseAddress].push(currentWsOrderId);\r\n        supplierReceivedOrderIds[_supplierAddress].push(currentWsOrderId);\r\n\r\n        emit EscrowRequestedForWSOrder(currentWsOrderId, newOrder.totalAmount);\r\n        emit WSOrderPlaced(currentWsOrderId, _warehouseAddress, _supplierAddress, newOrder.totalAmount, internalOrderIdForEscrow);\r\n        emit WSOrderStatusUpdated(currentWsOrderId, newOrder.status, block.timestamp);\r\n    }\r\n\r\n    function supplierConfirmShipment(uint256 _wsOrderId) external onlyOrderSupplier(_wsOrderId) nonReentrant {\r\n        WSOrder storage currentOrder = wsOrders[_wsOrderId];\r\n        require(currentOrder.status == WSOrderStatus.PendingShipment, \"WSOM: Don hang khong o trang thai cho giao hang\");\r\n        currentOrder.status = WSOrderStatus.ShippedBySupplier;\r\n        currentOrder.lastUpdateTimestamp = block.timestamp;\r\n        emit WSOrderShipmentConfirmedBySupplier(_wsOrderId, msg.sender);\r\n        emit WSOrderStatusUpdated(_wsOrderId, currentOrder.status, block.timestamp);\r\n    }\r\n\r\n    function warehouseConfirmReceipt(uint256 _wsOrderId) external onlyOrderWarehouseManager(_wsOrderId) nonReentrant {\r\n        WSOrder storage currentOrder = wsOrders[_wsOrderId];\r\n        require(currentOrder.status == WSOrderStatus.ShippedBySupplier, \"WSOM: Don hang chua duoc NCC giao\");\r\n        require(currentOrder.fundsEscrowed, \"WSOM: Tien chua duoc ky quy\");\r\n        require(!currentOrder.fundsReleasedToSupplier, \"WSOM: Tien da duoc giai ngan\");\r\n        require(address(warehouseInventoryManagement) != address(0), \"WSOM: Dia chi WIM chua duoc dat\");\r\n\r\n        bool releaseSuccess = companyTreasuryManager.releaseEscrowToSupplier(\r\n            currentOrder.supplierAddress, currentOrder.internalSupplierOrderId, currentOrder.totalAmount\r\n        );\r\n        require(releaseSuccess, \"WSOM: Giai ngan tien cho NCC tu CTM that bai\");\r\n\r\n        currentOrder.status = WSOrderStatus.ReceivedByWarehouse;\r\n        currentOrder.fundsReleasedToSupplier = true;\r\n        currentOrder.lastUpdateTimestamp = block.timestamp;\r\n\r\n        for (uint i = 0; i < currentOrder.items.length; i++) {\r\n            WSOrderItem memory item = currentOrder.items[i];\r\n            warehouseInventoryManagement.recordStockInFromSupplier(\r\n                currentOrder.warehouseAddress, item.itemId, item.quantity, _wsOrderId\r\n            );\r\n        }\r\n        emit WSOrderReceiptConfirmedByWarehouse(_wsOrderId, msg.sender);\r\n        emit WSOrderFundsReleasedToSupplier(_wsOrderId, currentOrder.supplierAddress, currentOrder.totalAmount);\r\n        emit WSOrderStatusUpdated(_wsOrderId, currentOrder.status, block.timestamp);\r\n    }\r\n\r\n    function cancelOrderByWarehouse(uint256 _wsOrderId, string calldata _reason)\r\n        external onlyOrderWarehouseManager(_wsOrderId) nonReentrant {\r\n        _internalCancelOrder(_wsOrderId, WSOrderStatus.CancelledByWarehouse);\r\n        emit WSOrderCancelledByWarehouse(_wsOrderId, msg.sender, _reason);\r\n    }\r\n\r\n    function cancelOrderBySupplier(uint256 _wsOrderId, string calldata _reason)\r\n        external onlyOrderSupplier(_wsOrderId) nonReentrant {\r\n        _internalCancelOrder(_wsOrderId, WSOrderStatus.CancelledBySupplier);\r\n        emit WSOrderCancelledBySupplier(_wsOrderId, msg.sender, _reason);\r\n    }\r\n\r\n    function _internalCancelOrder(uint256 _wsOrderId, WSOrderStatus _newStatus) internal {\r\n        WSOrder storage currentOrder = wsOrders[_wsOrderId];\r\n        require(currentOrder.status == WSOrderStatus.PendingShipment, \"WSOM: Don hang khong o trang thai co the huy\");\r\n        require(currentOrder.fundsEscrowed, \"WSOM: Tien chua duoc ky quy de huy\");\r\n\r\n        bool refundSuccess = companyTreasuryManager.refundEscrowToTreasury(\r\n            currentOrder.warehouseAddress, currentOrder.internalSupplierOrderId, currentOrder.totalAmount\r\n        );\r\n        require(refundSuccess, \"WSOM: Hoan tra tien ky quy CTM that bai, viec huy bi hoan tac\");\r\n\r\n        currentOrder.status = _newStatus;\r\n        currentOrder.lastUpdateTimestamp = block.timestamp;\r\n        emit WSOrderStatusUpdated(_wsOrderId, currentOrder.status, block.timestamp);\r\n    }\r\n\r\n    function getWSOrderDetails(uint256 _wsOrderId) external view returns (WSOrder memory) {\r\n        require(wsOrders[_wsOrderId].wsOrderId != 0, \"WSOM: Don hang khong tim thay\");\r\n        return wsOrders[_wsOrderId];\r\n    }\r\n    function getWarehouseSentOrders(address _warehouse) external view returns (uint256[] memory) { return warehouseSentOrderIds[_warehouse]; }\r\n    function getSupplierReceivedOrders(address _supplier) external view returns (uint256[] memory) { return supplierReceivedOrderIds[_supplier]; }\r\n\r\n    function uintToString(uint256 value) internal pure returns (string memory) {\r\n        if (value == 0) return \"0\";\r\n        uint256 temp = value;\r\n        uint256 digits;\r\n        while (temp != 0) { digits++; temp /= 10; }\r\n        bytes memory buffer = new bytes(digits);\r\n        uint256 i = digits;\r\n        while (value != 0) { i--; buffer[i] = bytes1(uint8(48 + (value % 10))); value /= 10; }\r\n        return string(buffer);\r\n    }\r\n}",
  "sourcePath": "D:\\nhi\\Logtech\\New tech in Log\\dapp2\\SC\\contracts\\WarehouseSupplierOrderManagement.sol",
  "compiler": {
    "name": "solc",
    "version": "0.8.4+commit.c7e474f2.Emscripten.clang"
  },
  "schemaVersion": "3.4.16",
  "updatedAt": "2025-06-02T04:18:16.251Z",
  "devdoc": {
    "kind": "dev",
    "methods": {
      "owner()": {
        "details": "Returns the address of the current owner."
      },
      "renounceOwnership()": {
        "details": "Leaves the contract without owner. It will not be possible to call `onlyOwner` functions anymore. Can only be called by the current owner. NOTE: Renouncing ownership will leave the contract without an owner, thereby removing any functionality that is only available to the owner."
      },
      "transferOwnership(address)": {
        "details": "Transfers ownership of the contract to a new account (`newOwner`). Can only be called by the current owner."
      }
    },
    "version": 1
  },
  "userdoc": {
    "kind": "user",
    "methods": {},
    "version": 1
  }
}